{"abi":[{"type":"constructor","inputs":[{"name":"_alignedServiceManager","type":"address","internalType":"address"},{"name":"_paymentServiceAddr","type":"address","internalType":"address"}],"stateMutability":"nonpayable"},{"type":"function","name":"alignedServiceManager","inputs":[],"outputs":[{"name":"","type":"address","internalType":"address"}],"stateMutability":"view"},{"type":"function","name":"approve","inputs":[{"name":"to","type":"address","internalType":"address"},{"name":"tokenId","type":"uint256","internalType":"uint256"}],"outputs":[],"stateMutability":"nonpayable"},{"type":"function","name":"balanceOf","inputs":[{"name":"owner","type":"address","internalType":"address"}],"outputs":[{"name":"","type":"uint256","internalType":"uint256"}],"stateMutability":"view"},{"type":"function","name":"elfCommitment","inputs":[],"outputs":[{"name":"","type":"bytes32","internalType":"bytes32"}],"stateMutability":"view"},{"type":"function","name":"getApproved","inputs":[{"name":"tokenId","type":"uint256","internalType":"uint256"}],"outputs":[{"name":"","type":"address","internalType":"address"}],"stateMutability":"view"},{"type":"function","name":"isApprovedForAll","inputs":[{"name":"owner","type":"address","internalType":"address"},{"name":"operator","type":"address","internalType":"address"}],"outputs":[{"name":"","type":"bool","internalType":"bool"}],"stateMutability":"view"},{"type":"function","name":"mintedProofs","inputs":[{"name":"","type":"bytes32","internalType":"bytes32"}],"outputs":[{"name":"","type":"bool","internalType":"bool"}],"stateMutability":"view"},{"type":"function","name":"name","inputs":[],"outputs":[{"name":"","type":"string","internalType":"string"}],"stateMutability":"view"},{"type":"function","name":"ownerOf","inputs":[{"name":"tokenId","type":"uint256","internalType":"uint256"}],"outputs":[{"name":"","type":"address","internalType":"address"}],"stateMutability":"view"},{"type":"function","name":"paymentServiceAddr","inputs":[],"outputs":[{"name":"","type":"address","internalType":"address"}],"stateMutability":"view"},{"type":"function","name":"safeTransferFrom","inputs":[{"name":"from","type":"address","internalType":"address"},{"name":"to","type":"address","internalType":"address"},{"name":"tokenId","type":"uint256","internalType":"uint256"}],"outputs":[],"stateMutability":"nonpayable"},{"type":"function","name":"safeTransferFrom","inputs":[{"name":"from","type":"address","internalType":"address"},{"name":"to","type":"address","internalType":"address"},{"name":"tokenId","type":"uint256","internalType":"uint256"},{"name":"data","type":"bytes","internalType":"bytes"}],"outputs":[],"stateMutability":"nonpayable"},{"type":"function","name":"setApprovalForAll","inputs":[{"name":"operator","type":"address","internalType":"address"},{"name":"approved","type":"bool","internalType":"bool"}],"outputs":[],"stateMutability":"nonpayable"},{"type":"function","name":"supportsInterface","inputs":[{"name":"interfaceId","type":"bytes4","internalType":"bytes4"}],"outputs":[{"name":"","type":"bool","internalType":"bool"}],"stateMutability":"view"},{"type":"function","name":"symbol","inputs":[],"outputs":[{"name":"","type":"string","internalType":"string"}],"stateMutability":"view"},{"type":"function","name":"tokenURI","inputs":[{"name":"tokenId","type":"uint256","internalType":"uint256"}],"outputs":[{"name":"","type":"string","internalType":"string"}],"stateMutability":"view"},{"type":"function","name":"transferFrom","inputs":[{"name":"from","type":"address","internalType":"address"},{"name":"to","type":"address","internalType":"address"},{"name":"tokenId","type":"uint256","internalType":"uint256"}],"outputs":[],"stateMutability":"nonpayable"},{"type":"function","name":"verifyBatchInclusion","inputs":[{"name":"proofCommitment","type":"bytes32","internalType":"bytes32"},{"name":"pubInputCommitment","type":"bytes32","internalType":"bytes32"},{"name":"provingSystemAuxDataCommitment","type":"bytes32","internalType":"bytes32"},{"name":"proofGeneratorAddr","type":"bytes20","internalType":"bytes20"},{"name":"batchMerkleRoot","type":"bytes32","internalType":"bytes32"},{"name":"merkleProof","type":"bytes","internalType":"bytes"},{"name":"verificationDataBatchIndex","type":"uint256","internalType":"uint256"}],"outputs":[{"name":"","type":"uint256","internalType":"uint256"}],"stateMutability":"nonpayable"},{"type":"event","name":"Approval","inputs":[{"name":"owner","type":"address","indexed":true,"internalType":"address"},{"name":"approved","type":"address","indexed":true,"internalType":"address"},{"name":"tokenId","type":"uint256","indexed":true,"internalType":"uint256"}],"anonymous":false},{"type":"event","name":"ApprovalForAll","inputs":[{"name":"owner","type":"address","indexed":true,"internalType":"address"},{"name":"operator","type":"address","indexed":true,"internalType":"address"},{"name":"approved","type":"bool","indexed":false,"internalType":"bool"}],"anonymous":false},{"type":"event","name":"BatchMetadataUpdate","inputs":[{"name":"_fromTokenId","type":"uint256","indexed":false,"internalType":"uint256"},{"name":"_toTokenId","type":"uint256","indexed":false,"internalType":"uint256"}],"anonymous":false},{"type":"event","name":"MetadataUpdate","inputs":[{"name":"_tokenId","type":"uint256","indexed":false,"internalType":"uint256"}],"anonymous":false},{"type":"event","name":"Transfer","inputs":[{"name":"from","type":"address","indexed":true,"internalType":"address"},{"name":"to","type":"address","indexed":true,"internalType":"address"},{"name":"tokenId","type":"uint256","indexed":true,"internalType":"uint256"}],"anonymous":false},{"type":"error","name":"ERC721IncorrectOwner","inputs":[{"name":"sender","type":"address","internalType":"address"},{"name":"tokenId","type":"uint256","internalType":"uint256"},{"name":"owner","type":"address","internalType":"address"}]},{"type":"error","name":"ERC721InsufficientApproval","inputs":[{"name":"operator","type":"address","internalType":"address"},{"name":"tokenId","type":"uint256","internalType":"uint256"}]},{"type":"error","name":"ERC721InvalidApprover","inputs":[{"name":"approver","type":"address","internalType":"address"}]},{"type":"error","name":"ERC721InvalidOperator","inputs":[{"name":"operator","type":"address","internalType":"address"}]},{"type":"error","name":"ERC721InvalidOwner","inputs":[{"name":"owner","type":"address","internalType":"address"}]},{"type":"error","name":"ERC721InvalidReceiver","inputs":[{"name":"receiver","type":"address","internalType":"address"}]},{"type":"error","name":"ERC721InvalidSender","inputs":[{"name":"sender","type":"address","internalType":"address"}]},{"type":"error","name":"ERC721NonexistentToken","inputs":[{"name":"tokenId","type":"uint256","internalType":"uint256"}]}],"bytecode":{"object":"0x60806040527f35dd40ab04e180712996495caec915b8a7c488433acbb50c4d8d912cb55bf1f1600a553480156200003557600080fd5b506040516200172538038062001725833981016040819052620000589162000121565b6040518060400160405280601581526020017f416c69676e6564204c61796572205a4b205175697a000000000000000000000081525060405180604001604052806004815260200163415a4b5160e01b8152508160009081620000bc9190620001fe565b506001620000cb8282620001fe565b5050600880546001600160a01b039485166001600160a01b031991821617909155600980549390941692169190911790915550620002ca565b80516001600160a01b03811681146200011c57600080fd5b919050565b600080604083850312156200013557600080fd5b620001408362000104565b9150620001506020840162000104565b90509250929050565b634e487b7160e01b600052604160045260246000fd5b600181811c908216806200018457607f821691505b602082108103620001a557634e487b7160e01b600052602260045260246000fd5b50919050565b601f821115620001f957600081815260208120601f850160051c81016020861015620001d45750805b601f850160051c820191505b81811015620001f557828155600101620001e0565b5050505b505050565b81516001600160401b038111156200021a576200021a62000159565b62000232816200022b84546200016f565b84620001ab565b602080601f8311600181146200026a5760008415620002515750858301515b600019600386901b1c1916600185901b178555620001f5565b600085815260208120601f198616915b828110156200029b578886015182559484019460019091019084016200027a565b5085821015620002ba5787850151600019600388901b60f8161c191681555b5050505050600190811b01905550565b61144b80620002da6000396000f3fe608060405234801561001057600080fd5b50600436106101165760003560e01c806390a05f2e116100a2578063c87b56dd11610071578063c87b56dd1461023c578063dd3df4bd1461024f578063e985e9c514610272578063f19cd88214610285578063fa534dc01461029857600080fd5b806390a05f2e146101fb57806395d89b411461020e578063a22cb46514610216578063b88d4fde1461022957600080fd5b80632212d607116100e95780632212d6071461019857806323b872dd146101af57806342842e0e146101c25780636352211e146101d557806370a08231146101e857600080fd5b806301ffc9a71461011b57806306fdde0314610143578063081812fc14610158578063095ea7b314610183575b600080fd5b61012e610129366004610e25565b6102ab565b60405190151581526020015b60405180910390f35b61014b6102d6565b60405161013a9190610e99565b61016b610166366004610eac565b610368565b6040516001600160a01b03909116815260200161013a565b610196610191366004610ee1565b610391565b005b6101a1600a5481565b60405190815260200161013a565b6101966101bd366004610f0b565b6103a0565b6101966101d0366004610f0b565b610430565b61016b6101e3366004610eac565b610450565b6101a16101f6366004610f47565b61045b565b60095461016b906001600160a01b031681565b61014b6104a3565b610196610224366004610f70565b6104b2565b61019661023736600461104a565b6104bd565b61014b61024a366004610eac565b6104d4565b61012e61025d366004610eac565b600b6020526000908152604090205460ff1681565b61012e6102803660046110b2565b6104ff565b60085461016b906001600160a01b031681565b6101a16102a63660046110e5565b61052d565b60006001600160e01b03198216632483248360e11b14806102d057506102d082610830565b92915050565b6060600080546102e590611177565b80601f016020809104026020016040519081016040528092919081815260200182805461031190611177565b801561035e5780601f106103335761010080835404028352916020019161035e565b820191906000526020600020905b81548152906001019060200180831161034157829003601f168201915b5050505050905090565b600061037382610880565b506000828152600460205260409020546001600160a01b03166102d0565b61039c8282336108b9565b5050565b6001600160a01b0382166103cf57604051633250574960e11b8152600060048201526024015b60405180910390fd5b60006103dc8383336108c6565b9050836001600160a01b0316816001600160a01b03161461042a576040516364283d7b60e01b81526001600160a01b03808616600483015260248201849052821660448201526064016103c6565b50505050565b61044b838383604051806020016040528060008152506104bd565b505050565b60006102d082610880565b60006001600160a01b038216610487576040516322718ad960e21b8152600060048201526024016103c6565b506001600160a01b031660009081526003602052604090205490565b6060600180546102e590611177565b61039c3383836109bf565b6104c88484846103a0565b61042a84848484610a5e565b60606104df82610880565b506040518060600160405280603581526020016113e16035913992915050565b6001600160a01b03918216600090815260056020908152604080832093909416825291909152205460ff1690565b600085600a54146105755760405162461bcd60e51b815260206004820152601260248201527108a988c40c8decae640dcdee840dac2e8c6d60731b60448201526064016103c6565b606085901c33146105d25760405162461bcd60e51b815260206004820152602160248201527f70726f6f6647656e657261746f724164647220646f6573206e6f74206d6174636044820152600d60fb1b60648201526084016103c6565b6040805160208082018b90528183018a9052606082018990526bffffffffffffffffffffffff198816608083015282516074818403018152609490920183528151918101919091206000818152600b9092529190205460ff161561066f5760405162461bcd60e51b81526020600482015260146024820152731c1c9bdbd988185b1c9958591e481b5a5b9d195960621b60448201526064016103c6565b60085460095460405160009283926001600160a01b03918216926106a5928f928f928f928f928f928f928f9216906024016111b1565b60408051601f198184030181529181526020820180516001600160e01b03166306045a9160e01b179052516106da9190611218565b600060405180830381855afa9150503d8060008114610715576040519150601f19603f3d011682016040523d82523d6000602084013e61071a565b606091505b5091509150816107615760405162461bcd60e51b81526020600482015260126024820152711cdd185d1a58d7d8d85b1b0819985a5b195960721b60448201526064016103c6565b6000818060200190518101906107779190611234565b9050806107c65760405162461bcd60e51b815260206004820152601b60248201527f70726f6f66206e6f7420696e636c7564656420696e206261746368000000000060448201526064016103c6565b6000848152600b60205260408120805460ff191660011790556007805490826107ee83611251565b9190505590506107fe3382610b87565b610820816040518060600160405280603581526020016113e160359139610bec565b9c9b505050505050505050505050565b60006001600160e01b031982166380ac58cd60e01b148061086157506001600160e01b03198216635b5e139f60e01b145b806102d057506301ffc9a760e01b6001600160e01b03198316146102d0565b6000818152600260205260408120546001600160a01b0316806102d057604051637e27328960e01b8152600481018490526024016103c6565b61044b8383836001610c3c565b6000828152600260205260408120546001600160a01b03908116908316156108f3576108f3818486610d42565b6001600160a01b0381161561093157610910600085600080610c3c565b6001600160a01b038116600090815260036020526040902080546000190190555b6001600160a01b03851615610960576001600160a01b0385166000908152600360205260409020805460010190555b60008481526002602052604080822080546001600160a01b0319166001600160a01b0389811691821790925591518793918516917fddf252ad1be2c89b69c2b068fc378daa952ba7f163c4a11628f55a4df523b3ef91a4949350505050565b6001600160a01b0382166109f157604051630b61174360e31b81526001600160a01b03831660048201526024016103c6565b6001600160a01b03838116600081815260056020908152604080832094871680845294825291829020805460ff191686151590811790915591519182527f17307eab39ab6107e8899845ad3d59bd9653f200f220920489ca2b5937696c31910160405180910390a3505050565b6001600160a01b0383163b1561042a57604051630a85bd0160e11b81526001600160a01b0384169063150b7a0290610aa0903390889087908790600401611278565b6020604051808303816000875af1925050508015610adb575060408051601f3d908101601f19168201909252610ad8918101906112b5565b60015b610b44573d808015610b09576040519150601f19603f3d011682016040523d82523d6000602084013e610b0e565b606091505b508051600003610b3c57604051633250574960e11b81526001600160a01b03851660048201526024016103c6565b805181602001fd5b6001600160e01b03198116630a85bd0160e11b14610b8057604051633250574960e11b81526001600160a01b03851660048201526024016103c6565b5050505050565b6001600160a01b038216610bb157604051633250574960e11b8152600060048201526024016103c6565b6000610bbf838360006108c6565b90506001600160a01b0381161561044b576040516339e3563760e11b8152600060048201526024016103c6565b6000828152600660205260409020610c048282611320565b506040518281527ff8e1a15aba9398e019f0b49df1a4fde98ee17ae345cb5f6b5e2c27f5033e8ce79060200160405180910390a15050565b8080610c5057506001600160a01b03821615155b15610d12576000610c6084610880565b90506001600160a01b03831615801590610c8c5750826001600160a01b0316816001600160a01b031614155b8015610c9f5750610c9d81846104ff565b155b15610cc85760405163a9fbf51f60e01b81526001600160a01b03841660048201526024016103c6565b8115610d105783856001600160a01b0316826001600160a01b03167f8c5be1e5ebec7d5bd14f71427d1e84f3dd0314c0f7b2291e5b200ac8c7c3b92560405160405180910390a45b505b5050600090815260046020526040902080546001600160a01b0319166001600160a01b0392909216919091179055565b610d4d838383610da6565b61044b576001600160a01b038316610d7b57604051637e27328960e01b8152600481018290526024016103c6565b60405163177e802f60e01b81526001600160a01b0383166004820152602481018290526044016103c6565b60006001600160a01b03831615801590610e045750826001600160a01b0316846001600160a01b03161480610de05750610de084846104ff565b80610e0457506000828152600460205260409020546001600160a01b038481169116145b949350505050565b6001600160e01b031981168114610e2257600080fd5b50565b600060208284031215610e3757600080fd5b8135610e4281610e0c565b9392505050565b60005b83811015610e64578181015183820152602001610e4c565b50506000910152565b60008151808452610e85816020860160208601610e49565b601f01601f19169290920160200192915050565b602081526000610e426020830184610e6d565b600060208284031215610ebe57600080fd5b5035919050565b80356001600160a01b0381168114610edc57600080fd5b919050565b60008060408385031215610ef457600080fd5b610efd83610ec5565b946020939093013593505050565b600080600060608486031215610f2057600080fd5b610f2984610ec5565b9250610f3760208501610ec5565b9150604084013590509250925092565b600060208284031215610f5957600080fd5b610e4282610ec5565b8015158114610e2257600080fd5b60008060408385031215610f8357600080fd5b610f8c83610ec5565b91506020830135610f9c81610f62565b809150509250929050565b634e487b7160e01b600052604160045260246000fd5b600082601f830112610fce57600080fd5b813567ffffffffffffffff80821115610fe957610fe9610fa7565b604051601f8301601f19908116603f0116810190828211818310171561101157611011610fa7565b8160405283815286602085880101111561102a57600080fd5b836020870160208301376000602085830101528094505050505092915050565b6000806000806080858703121561106057600080fd5b61106985610ec5565b935061107760208601610ec5565b925060408501359150606085013567ffffffffffffffff81111561109a57600080fd5b6110a687828801610fbd565b91505092959194509250565b600080604083850312156110c557600080fd5b6110ce83610ec5565b91506110dc60208401610ec5565b90509250929050565b600080600080600080600060e0888a03121561110057600080fd5b87359650602088013595506040880135945060608801356bffffffffffffffffffffffff198116811461113257600080fd5b93506080880135925060a088013567ffffffffffffffff81111561115557600080fd5b6111618a828b01610fbd565b92505060c0880135905092959891949750929550565b600181811c9082168061118b57607f821691505b6020821081036111ab57634e487b7160e01b600052602260045260246000fd5b50919050565b60006101008a83528960208401528860408401526bffffffffffffffffffffffff19881660608401528660808401528060a08401526111f281840187610e6d565b60c084019590955250506001600160a01b039190911660e0909101529695505050505050565b6000825161122a818460208701610e49565b9190910192915050565b60006020828403121561124657600080fd5b8151610e4281610f62565b60006001820161127157634e487b7160e01b600052601160045260246000fd5b5060010190565b6001600160a01b03858116825284166020820152604081018390526080606082018190526000906112ab90830184610e6d565b9695505050505050565b6000602082840312156112c757600080fd5b8151610e4281610e0c565b601f82111561044b57600081815260208120601f850160051c810160208610156112f95750805b601f850160051c820191505b8181101561131857828155600101611305565b505050505050565b815167ffffffffffffffff81111561133a5761133a610fa7565b61134e816113488454611177565b846112d2565b602080601f831160018114611383576000841561136b5750858301515b600019600386901b1c1916600185901b178555611318565b600085815260208120601f198616915b828110156113b257888601518255948401946001909101908401611393565b50858210156113d05787850151600019600388901b60f8161c191681555b5050505050600190811b0190555056fe697066733a2f2f516d554b76696e793978326f51556567794a464642415555327135727675354373507a725561425344756b704851a2646970667358221220e18828ee8df71e0807a53db821b319416c0c2e1d2b9761b2de39a61c4555fc6d64736f6c63430008150033","linkReferences":{}},"methodIdentifiers":{"alignedServiceManager()":"f19cd882","approve(address,uint256)":"095ea7b3","balanceOf(address)":"70a08231","elfCommitment()":"2212d607","getApproved(uint256)":"081812fc","isApprovedForAll(address,address)":"e985e9c5","mintedProofs(bytes32)":"dd3df4bd","name()":"06fdde03","ownerOf(uint256)":"6352211e","paymentServiceAddr()":"90a05f2e","safeTransferFrom(address,address,uint256)":"42842e0e","safeTransferFrom(address,address,uint256,bytes)":"b88d4fde","setApprovalForAll(address,bool)":"a22cb465","supportsInterface(bytes4)":"01ffc9a7","symbol()":"95d89b41","tokenURI(uint256)":"c87b56dd","transferFrom(address,address,uint256)":"23b872dd","verifyBatchInclusion(bytes32,bytes32,bytes32,bytes20,bytes32,bytes,uint256)":"fa534dc0"},"id":35}