{"abi":[{"type":"constructor","inputs":[{"name":"_alignedServiceManager","type":"address","internalType":"address"}],"stateMutability":"nonpayable"},{"type":"function","name":"alignedServiceManager","inputs":[],"outputs":[{"name":"","type":"address","internalType":"address"}],"stateMutability":"view"},{"type":"function","name":"approve","inputs":[{"name":"to","type":"address","internalType":"address"},{"name":"tokenId","type":"uint256","internalType":"uint256"}],"outputs":[],"stateMutability":"nonpayable"},{"type":"function","name":"balanceOf","inputs":[{"name":"owner","type":"address","internalType":"address"}],"outputs":[{"name":"","type":"uint256","internalType":"uint256"}],"stateMutability":"view"},{"type":"function","name":"elfCommitment","inputs":[],"outputs":[{"name":"","type":"bytes32","internalType":"bytes32"}],"stateMutability":"view"},{"type":"function","name":"getApproved","inputs":[{"name":"tokenId","type":"uint256","internalType":"uint256"}],"outputs":[{"name":"","type":"address","internalType":"address"}],"stateMutability":"view"},{"type":"function","name":"isApprovedForAll","inputs":[{"name":"owner","type":"address","internalType":"address"},{"name":"operator","type":"address","internalType":"address"}],"outputs":[{"name":"","type":"bool","internalType":"bool"}],"stateMutability":"view"},{"type":"function","name":"mintedProofs","inputs":[{"name":"","type":"bytes32","internalType":"bytes32"}],"outputs":[{"name":"","type":"bool","internalType":"bool"}],"stateMutability":"view"},{"type":"function","name":"name","inputs":[],"outputs":[{"name":"","type":"string","internalType":"string"}],"stateMutability":"view"},{"type":"function","name":"ownerOf","inputs":[{"name":"tokenId","type":"uint256","internalType":"uint256"}],"outputs":[{"name":"","type":"address","internalType":"address"}],"stateMutability":"view"},{"type":"function","name":"safeTransferFrom","inputs":[{"name":"from","type":"address","internalType":"address"},{"name":"to","type":"address","internalType":"address"},{"name":"tokenId","type":"uint256","internalType":"uint256"}],"outputs":[],"stateMutability":"nonpayable"},{"type":"function","name":"safeTransferFrom","inputs":[{"name":"from","type":"address","internalType":"address"},{"name":"to","type":"address","internalType":"address"},{"name":"tokenId","type":"uint256","internalType":"uint256"},{"name":"data","type":"bytes","internalType":"bytes"}],"outputs":[],"stateMutability":"nonpayable"},{"type":"function","name":"setApprovalForAll","inputs":[{"name":"operator","type":"address","internalType":"address"},{"name":"approved","type":"bool","internalType":"bool"}],"outputs":[],"stateMutability":"nonpayable"},{"type":"function","name":"supportsInterface","inputs":[{"name":"interfaceId","type":"bytes4","internalType":"bytes4"}],"outputs":[{"name":"","type":"bool","internalType":"bool"}],"stateMutability":"view"},{"type":"function","name":"symbol","inputs":[],"outputs":[{"name":"","type":"string","internalType":"string"}],"stateMutability":"view"},{"type":"function","name":"tokenURI","inputs":[{"name":"tokenId","type":"uint256","internalType":"uint256"}],"outputs":[{"name":"","type":"string","internalType":"string"}],"stateMutability":"view"},{"type":"function","name":"transferFrom","inputs":[{"name":"from","type":"address","internalType":"address"},{"name":"to","type":"address","internalType":"address"},{"name":"tokenId","type":"uint256","internalType":"uint256"}],"outputs":[],"stateMutability":"nonpayable"},{"type":"function","name":"verifyBatchInclusion","inputs":[{"name":"proofCommitment","type":"bytes32","internalType":"bytes32"},{"name":"pubInputCommitment","type":"bytes32","internalType":"bytes32"},{"name":"provingSystemAuxDataCommitment","type":"bytes32","internalType":"bytes32"},{"name":"proofGeneratorAddr","type":"bytes20","internalType":"bytes20"},{"name":"batchMerkleRoot","type":"bytes32","internalType":"bytes32"},{"name":"merkleProof","type":"bytes","internalType":"bytes"},{"name":"verificationDataBatchIndex","type":"uint256","internalType":"uint256"}],"outputs":[{"name":"","type":"uint256","internalType":"uint256"}],"stateMutability":"nonpayable"},{"type":"event","name":"Approval","inputs":[{"name":"owner","type":"address","indexed":true,"internalType":"address"},{"name":"approved","type":"address","indexed":true,"internalType":"address"},{"name":"tokenId","type":"uint256","indexed":true,"internalType":"uint256"}],"anonymous":false},{"type":"event","name":"ApprovalForAll","inputs":[{"name":"owner","type":"address","indexed":true,"internalType":"address"},{"name":"operator","type":"address","indexed":true,"internalType":"address"},{"name":"approved","type":"bool","indexed":false,"internalType":"bool"}],"anonymous":false},{"type":"event","name":"BatchMetadataUpdate","inputs":[{"name":"_fromTokenId","type":"uint256","indexed":false,"internalType":"uint256"},{"name":"_toTokenId","type":"uint256","indexed":false,"internalType":"uint256"}],"anonymous":false},{"type":"event","name":"MetadataUpdate","inputs":[{"name":"_tokenId","type":"uint256","indexed":false,"internalType":"uint256"}],"anonymous":false},{"type":"event","name":"Transfer","inputs":[{"name":"from","type":"address","indexed":true,"internalType":"address"},{"name":"to","type":"address","indexed":true,"internalType":"address"},{"name":"tokenId","type":"uint256","indexed":true,"internalType":"uint256"}],"anonymous":false},{"type":"error","name":"ERC721IncorrectOwner","inputs":[{"name":"sender","type":"address","internalType":"address"},{"name":"tokenId","type":"uint256","internalType":"uint256"},{"name":"owner","type":"address","internalType":"address"}]},{"type":"error","name":"ERC721InsufficientApproval","inputs":[{"name":"operator","type":"address","internalType":"address"},{"name":"tokenId","type":"uint256","internalType":"uint256"}]},{"type":"error","name":"ERC721InvalidApprover","inputs":[{"name":"approver","type":"address","internalType":"address"}]},{"type":"error","name":"ERC721InvalidOperator","inputs":[{"name":"operator","type":"address","internalType":"address"}]},{"type":"error","name":"ERC721InvalidOwner","inputs":[{"name":"owner","type":"address","internalType":"address"}]},{"type":"error","name":"ERC721InvalidReceiver","inputs":[{"name":"receiver","type":"address","internalType":"address"}]},{"type":"error","name":"ERC721InvalidSender","inputs":[{"name":"sender","type":"address","internalType":"address"}]},{"type":"error","name":"ERC721NonexistentToken","inputs":[{"name":"tokenId","type":"uint256","internalType":"uint256"}]}],"bytecode":{"object":"0x60806040527f35dd40ab04e180712996495caec915b8a7c488433acbb50c4d8d912cb55bf1f16009553480156200003557600080fd5b50604051620016bd380380620016bd8339810160408190526200005891620000f5565b6040518060400160405280601581526020017f416c69676e6564204c61796572205a4b205175697a000000000000000000000081525060405180604001604052806004815260200163415a4b5160e01b8152508160009081620000bc9190620001cc565b506001620000cb8282620001cc565b5050600880546001600160a01b0319166001600160a01b0393909316929092179091555062000298565b6000602082840312156200010857600080fd5b81516001600160a01b03811681146200012057600080fd5b9392505050565b634e487b7160e01b600052604160045260246000fd5b600181811c908216806200015257607f821691505b6020821081036200017357634e487b7160e01b600052602260045260246000fd5b50919050565b601f821115620001c757600081815260208120601f850160051c81016020861015620001a25750805b601f850160051c820191505b81811015620001c357828155600101620001ae565b5050505b505050565b81516001600160401b03811115620001e857620001e862000127565b6200020081620001f984546200013d565b8462000179565b602080601f8311600181146200023857600084156200021f5750858301515b600019600386901b1c1916600185901b178555620001c3565b600085815260208120601f198616915b82811015620002695788860151825594840194600190910190840162000248565b5085821015620002885787850151600019600388901b60f8161c191681555b5050505050600190811b01905550565b61141580620002a86000396000f3fe608060405234801561001057600080fd5b506004361061010b5760003560e01c806370a08231116100a2578063c87b56dd11610071578063c87b56dd1461021e578063dd3df4bd14610231578063e985e9c514610254578063f19cd88214610267578063fa534dc01461027a57600080fd5b806370a08231146101dd57806395d89b41146101f0578063a22cb465146101f8578063b88d4fde1461020b57600080fd5b80632212d607116100de5780632212d6071461018d57806323b872dd146101a457806342842e0e146101b75780636352211e146101ca57600080fd5b806301ffc9a71461011057806306fdde0314610138578063081812fc1461014d578063095ea7b314610178575b600080fd5b61012361011e366004610e02565b61028d565b60405190151581526020015b60405180910390f35b6101406102b8565b60405161012f9190610e76565b61016061015b366004610e89565b61034a565b6040516001600160a01b03909116815260200161012f565b61018b610186366004610ebe565b610373565b005b61019660095481565b60405190815260200161012f565b61018b6101b2366004610ee8565b610382565b61018b6101c5366004610ee8565b610412565b6101606101d8366004610e89565b610432565b6101966101eb366004610f24565b61043d565b610140610485565b61018b610206366004610f4d565b610494565b61018b610219366004611027565b61049f565b61014061022c366004610e89565b6104b6565b61012361023f366004610e89565b600a6020526000908152604090205460ff1681565b61012361026236600461108f565b6104e1565b600854610160906001600160a01b031681565b6101966102883660046110c2565b61050f565b60006001600160e01b03198216632483248360e11b14806102b257506102b28261080d565b92915050565b6060600080546102c790611154565b80601f01602080910402602001604051908101604052809291908181526020018280546102f390611154565b80156103405780601f1061031557610100808354040283529160200191610340565b820191906000526020600020905b81548152906001019060200180831161032357829003601f168201915b5050505050905090565b60006103558261085d565b506000828152600460205260409020546001600160a01b03166102b2565b61037e828233610896565b5050565b6001600160a01b0382166103b157604051633250574960e11b8152600060048201526024015b60405180910390fd5b60006103be8383336108a3565b9050836001600160a01b0316816001600160a01b03161461040c576040516364283d7b60e01b81526001600160a01b03808616600483015260248201849052821660448201526064016103a8565b50505050565b61042d8383836040518060200160405280600081525061049f565b505050565b60006102b28261085d565b60006001600160a01b038216610469576040516322718ad960e21b8152600060048201526024016103a8565b506001600160a01b031660009081526003602052604090205490565b6060600180546102c790611154565b61037e33838361099c565b6104aa848484610382565b61040c84848484610a3b565b60606104c18261085d565b506040518060600160405280603581526020016113ab6035913992915050565b6001600160a01b03918216600090815260056020908152604080832093909416825291909152205460ff1690565b600085600954146105575760405162461bcd60e51b815260206004820152601260248201527108a988c40c8decae640dcdee840dac2e8c6d60731b60448201526064016103a8565b606085901c33146105b45760405162461bcd60e51b815260206004820152602160248201527f70726f6f6647656e657261746f724164647220646f6573206e6f74206d6174636044820152600d60fb1b60648201526084016103a8565b6040805160208082018b90528183018a9052606082018990526bffffffffffffffffffffffff198816608083015282516074818403018152609490920183528151918101919091206000818152600a9092529190205460ff16156106515760405162461bcd60e51b81526020600482015260146024820152731c1c9bdbd988185b1c9958591e481b5a5b9d195960621b60448201526064016103a8565b60085460405160009182916001600160a01b0390911690610682908d908d908d908d908d908d908d9060240161118e565b60408051601f198184030181529181526020820180516001600160e01b03166303e94d3760e61b179052516106b791906111e2565b600060405180830381855afa9150503d80600081146106f2576040519150601f19603f3d011682016040523d82523d6000602084013e6106f7565b606091505b50915091508161073e5760405162461bcd60e51b81526020600482015260126024820152711cdd185d1a58d7d8d85b1b0819985a5b195960721b60448201526064016103a8565b60008180602001905181019061075491906111fe565b9050806107a35760405162461bcd60e51b815260206004820152601b60248201527f70726f6f66206e6f7420696e636c7564656420696e206261746368000000000060448201526064016103a8565b6000848152600a60205260408120805460ff191660011790556007805490826107cb8361121b565b9190505590506107db3382610b64565b6107fd816040518060600160405280603581526020016113ab60359139610bc9565b9c9b505050505050505050505050565b60006001600160e01b031982166380ac58cd60e01b148061083e57506001600160e01b03198216635b5e139f60e01b145b806102b257506301ffc9a760e01b6001600160e01b03198316146102b2565b6000818152600260205260408120546001600160a01b0316806102b257604051637e27328960e01b8152600481018490526024016103a8565b61042d8383836001610c19565b6000828152600260205260408120546001600160a01b03908116908316156108d0576108d0818486610d1f565b6001600160a01b0381161561090e576108ed600085600080610c19565b6001600160a01b038116600090815260036020526040902080546000190190555b6001600160a01b0385161561093d576001600160a01b0385166000908152600360205260409020805460010190555b60008481526002602052604080822080546001600160a01b0319166001600160a01b0389811691821790925591518793918516917fddf252ad1be2c89b69c2b068fc378daa952ba7f163c4a11628f55a4df523b3ef91a4949350505050565b6001600160a01b0382166109ce57604051630b61174360e31b81526001600160a01b03831660048201526024016103a8565b6001600160a01b03838116600081815260056020908152604080832094871680845294825291829020805460ff191686151590811790915591519182527f17307eab39ab6107e8899845ad3d59bd9653f200f220920489ca2b5937696c31910160405180910390a3505050565b6001600160a01b0383163b1561040c57604051630a85bd0160e11b81526001600160a01b0384169063150b7a0290610a7d903390889087908790600401611242565b6020604051808303816000875af1925050508015610ab8575060408051601f3d908101601f19168201909252610ab59181019061127f565b60015b610b21573d808015610ae6576040519150601f19603f3d011682016040523d82523d6000602084013e610aeb565b606091505b508051600003610b1957604051633250574960e11b81526001600160a01b03851660048201526024016103a8565b805181602001fd5b6001600160e01b03198116630a85bd0160e11b14610b5d57604051633250574960e11b81526001600160a01b03851660048201526024016103a8565b5050505050565b6001600160a01b038216610b8e57604051633250574960e11b8152600060048201526024016103a8565b6000610b9c838360006108a3565b90506001600160a01b0381161561042d576040516339e3563760e11b8152600060048201526024016103a8565b6000828152600660205260409020610be182826112ea565b506040518281527ff8e1a15aba9398e019f0b49df1a4fde98ee17ae345cb5f6b5e2c27f5033e8ce79060200160405180910390a15050565b8080610c2d57506001600160a01b03821615155b15610cef576000610c3d8461085d565b90506001600160a01b03831615801590610c695750826001600160a01b0316816001600160a01b031614155b8015610c7c5750610c7a81846104e1565b155b15610ca55760405163a9fbf51f60e01b81526001600160a01b03841660048201526024016103a8565b8115610ced5783856001600160a01b0316826001600160a01b03167f8c5be1e5ebec7d5bd14f71427d1e84f3dd0314c0f7b2291e5b200ac8c7c3b92560405160405180910390a45b505b5050600090815260046020526040902080546001600160a01b0319166001600160a01b0392909216919091179055565b610d2a838383610d83565b61042d576001600160a01b038316610d5857604051637e27328960e01b8152600481018290526024016103a8565b60405163177e802f60e01b81526001600160a01b0383166004820152602481018290526044016103a8565b60006001600160a01b03831615801590610de15750826001600160a01b0316846001600160a01b03161480610dbd5750610dbd84846104e1565b80610de157506000828152600460205260409020546001600160a01b038481169116145b949350505050565b6001600160e01b031981168114610dff57600080fd5b50565b600060208284031215610e1457600080fd5b8135610e1f81610de9565b9392505050565b60005b83811015610e41578181015183820152602001610e29565b50506000910152565b60008151808452610e62816020860160208601610e26565b601f01601f19169290920160200192915050565b602081526000610e1f6020830184610e4a565b600060208284031215610e9b57600080fd5b5035919050565b80356001600160a01b0381168114610eb957600080fd5b919050565b60008060408385031215610ed157600080fd5b610eda83610ea2565b946020939093013593505050565b600080600060608486031215610efd57600080fd5b610f0684610ea2565b9250610f1460208501610ea2565b9150604084013590509250925092565b600060208284031215610f3657600080fd5b610e1f82610ea2565b8015158114610dff57600080fd5b60008060408385031215610f6057600080fd5b610f6983610ea2565b91506020830135610f7981610f3f565b809150509250929050565b634e487b7160e01b600052604160045260246000fd5b600082601f830112610fab57600080fd5b813567ffffffffffffffff80821115610fc657610fc6610f84565b604051601f8301601f19908116603f01168101908282118183101715610fee57610fee610f84565b8160405283815286602085880101111561100757600080fd5b836020870160208301376000602085830101528094505050505092915050565b6000806000806080858703121561103d57600080fd5b61104685610ea2565b935061105460208601610ea2565b925060408501359150606085013567ffffffffffffffff81111561107757600080fd5b61108387828801610f9a565b91505092959194509250565b600080604083850312156110a257600080fd5b6110ab83610ea2565b91506110b960208401610ea2565b90509250929050565b600080600080600080600060e0888a0312156110dd57600080fd5b87359650602088013595506040880135945060608801356bffffffffffffffffffffffff198116811461110f57600080fd5b93506080880135925060a088013567ffffffffffffffff81111561113257600080fd5b61113e8a828b01610f9a565b92505060c0880135905092959891949750929550565b600181811c9082168061116857607f821691505b60208210810361118857634e487b7160e01b600052602260045260246000fd5b50919050565b8781528660208201528560408201526bffffffffffffffffffffffff198516606082015283608082015260e060a082015260006111ce60e0830185610e4a565b90508260c083015298975050505050505050565b600082516111f4818460208701610e26565b9190910192915050565b60006020828403121561121057600080fd5b8151610e1f81610f3f565b60006001820161123b57634e487b7160e01b600052601160045260246000fd5b5060010190565b6001600160a01b038581168252841660208201526040810183905260806060820181905260009061127590830184610e4a565b9695505050505050565b60006020828403121561129157600080fd5b8151610e1f81610de9565b601f82111561042d57600081815260208120601f850160051c810160208610156112c35750805b601f850160051c820191505b818110156112e2578281556001016112cf565b505050505050565b815167ffffffffffffffff81111561130457611304610f84565b611318816113128454611154565b8461129c565b602080601f83116001811461134d57600084156113355750858301515b600019600386901b1c1916600185901b1785556112e2565b600085815260208120601f198616915b8281101561137c5788860151825594840194600190910190840161135d565b508582101561139a5787850151600019600388901b60f8161c191681555b5050505050600190811b0190555056fe697066733a2f2f516d554b76696e793978326f51556567794a464642415555327135727675354373507a725561425344756b704851a2646970667358221220c610e2b3fc584ff15378d793e3eceea724322a73ed33c7051568c6a5c551b55764736f6c63430008150033","linkReferences":{}},"methodIdentifiers":{"alignedServiceManager()":"f19cd882","approve(address,uint256)":"095ea7b3","balanceOf(address)":"70a08231","elfCommitment()":"2212d607","getApproved(uint256)":"081812fc","isApprovedForAll(address,address)":"e985e9c5","mintedProofs(bytes32)":"dd3df4bd","name()":"06fdde03","ownerOf(uint256)":"6352211e","safeTransferFrom(address,address,uint256)":"42842e0e","safeTransferFrom(address,address,uint256,bytes)":"b88d4fde","setApprovalForAll(address,bool)":"a22cb465","supportsInterface(bytes4)":"01ffc9a7","symbol()":"95d89b41","tokenURI(uint256)":"c87b56dd","transferFrom(address,address,uint256)":"23b872dd","verifyBatchInclusion(bytes32,bytes32,bytes32,bytes20,bytes32,bytes,uint256)":"fa534dc0"},"id":35}