{"abi":[{"type":"constructor","inputs":[{"name":"__avsDirectory","type":"address","internalType":"contract IAVSDirectory"},{"name":"__rewardsCoordinator","type":"address","internalType":"contract IRewardsCoordinator"},{"name":"__registryCoordinator","type":"address","internalType":"contract IRegistryCoordinator"},{"name":"__stakeRegistry","type":"address","internalType":"contract IStakeRegistry"}],"stateMutability":"nonpayable"},{"type":"function","name":"avsDirectory","inputs":[],"outputs":[{"name":"","type":"address","internalType":"address"}],"stateMutability":"view"},{"type":"function","name":"batchesState","inputs":[{"name":"","type":"bytes32","internalType":"bytes32"}],"outputs":[{"name":"taskCreatedBlock","type":"uint32","internalType":"uint32"},{"name":"responded","type":"bool","internalType":"bool"}],"stateMutability":"view"},{"type":"function","name":"blsApkRegistry","inputs":[],"outputs":[{"name":"","type":"address","internalType":"contract IBLSApkRegistry"}],"stateMutability":"view"},{"type":"function","name":"checkSignatures","inputs":[{"name":"msgHash","type":"bytes32","internalType":"bytes32"},{"name":"referenceBlockNumber","type":"uint32","internalType":"uint32"},{"name":"params","type":"tuple","internalType":"struct IBLSSignatureChecker.NonSignerStakesAndSignature","components":[{"name":"nonSignerQuorumBitmapIndices","type":"uint32[]","internalType":"uint32[]"},{"name":"nonSignerPubkeys","type":"tuple[]","internalType":"struct BN254.G1Point[]","components":[{"name":"X","type":"uint256","internalType":"uint256"},{"name":"Y","type":"uint256","internalType":"uint256"}]},{"name":"quorumApks","type":"tuple[]","internalType":"struct BN254.G1Point[]","components":[{"name":"X","type":"uint256","internalType":"uint256"},{"name":"Y","type":"uint256","internalType":"uint256"}]},{"name":"apkG2","type":"tuple","internalType":"struct BN254.G2Point","components":[{"name":"X","type":"uint256[2]","internalType":"uint256[2]"},{"name":"Y","type":"uint256[2]","internalType":"uint256[2]"}]},{"name":"sigma","type":"tuple","internalType":"struct BN254.G1Point","components":[{"name":"X","type":"uint256","internalType":"uint256"},{"name":"Y","type":"uint256","internalType":"uint256"}]},{"name":"quorumApkIndices","type":"uint32[]","internalType":"uint32[]"},{"name":"totalStakeIndices","type":"uint32[]","internalType":"uint32[]"},{"name":"nonSignerStakeIndices","type":"uint32[][]","internalType":"uint32[][]"}]}],"outputs":[{"name":"","type":"tuple","internalType":"struct IBLSSignatureChecker.QuorumStakeTotals","components":[{"name":"signedStakeForQuorum","type":"uint96[]","internalType":"uint96[]"},{"name":"totalStakeForQuorum","type":"uint96[]","internalType":"uint96[]"}]},{"name":"","type":"bytes32","internalType":"bytes32"}],"stateMutability":"view"},{"type":"function","name":"createAVSRewardsSubmission","inputs":[{"name":"rewardsSubmissions","type":"tuple[]","internalType":"struct IRewardsCoordinator.RewardsSubmission[]","components":[{"name":"strategiesAndMultipliers","type":"tuple[]","internalType":"struct IRewardsCoordinator.StrategyAndMultiplier[]","components":[{"name":"strategy","type":"address","internalType":"contract IStrategy"},{"name":"multiplier","type":"uint96","internalType":"uint96"}]},{"name":"token","type":"address","internalType":"contract IERC20"},{"name":"amount","type":"uint256","internalType":"uint256"},{"name":"startTimestamp","type":"uint32","internalType":"uint32"},{"name":"duration","type":"uint32","internalType":"uint32"}]}],"outputs":[],"stateMutability":"nonpayable"},{"type":"function","name":"createNewTask","inputs":[{"name":"batchMerkleRoot","type":"bytes32","internalType":"bytes32"},{"name":"batchDataPointer","type":"string","internalType":"string"}],"outputs":[],"stateMutability":"payable"},{"type":"function","name":"delegation","inputs":[],"outputs":[{"name":"","type":"address","internalType":"contract IDelegationManager"}],"stateMutability":"view"},{"type":"function","name":"deregisterOperatorFromAVS","inputs":[{"name":"operator","type":"address","internalType":"address"}],"outputs":[],"stateMutability":"nonpayable"},{"type":"function","name":"getOperatorRestakedStrategies","inputs":[{"name":"operator","type":"address","internalType":"address"}],"outputs":[{"name":"","type":"address[]","internalType":"address[]"}],"stateMutability":"view"},{"type":"function","name":"getRestakeableStrategies","inputs":[],"outputs":[{"name":"","type":"address[]","internalType":"address[]"}],"stateMutability":"view"},{"type":"function","name":"initialize","inputs":[{"name":"_initialOwner","type":"address","internalType":"address"}],"outputs":[],"stateMutability":"nonpayable"},{"type":"function","name":"owner","inputs":[],"outputs":[{"name":"","type":"address","internalType":"address"}],"stateMutability":"view"},{"type":"function","name":"registerOperatorToAVS","inputs":[{"name":"operator","type":"address","internalType":"address"},{"name":"operatorSignature","type":"tuple","internalType":"struct ISignatureUtils.SignatureWithSaltAndExpiry","components":[{"name":"signature","type":"bytes","internalType":"bytes"},{"name":"salt","type":"bytes32","internalType":"bytes32"},{"name":"expiry","type":"uint256","internalType":"uint256"}]}],"outputs":[],"stateMutability":"nonpayable"},{"type":"function","name":"registryCoordinator","inputs":[],"outputs":[{"name":"","type":"address","internalType":"contract IRegistryCoordinator"}],"stateMutability":"view"},{"type":"function","name":"renounceOwnership","inputs":[],"outputs":[],"stateMutability":"nonpayable"},{"type":"function","name":"respondToTask","inputs":[{"name":"batchMerkleRoot","type":"bytes32","internalType":"bytes32"},{"name":"nonSignerStakesAndSignature","type":"tuple","internalType":"struct IBLSSignatureChecker.NonSignerStakesAndSignature","components":[{"name":"nonSignerQuorumBitmapIndices","type":"uint32[]","internalType":"uint32[]"},{"name":"nonSignerPubkeys","type":"tuple[]","internalType":"struct BN254.G1Point[]","components":[{"name":"X","type":"uint256","internalType":"uint256"},{"name":"Y","type":"uint256","internalType":"uint256"}]},{"name":"quorumApks","type":"tuple[]","internalType":"struct BN254.G1Point[]","components":[{"name":"X","type":"uint256","internalType":"uint256"},{"name":"Y","type":"uint256","internalType":"uint256"}]},{"name":"apkG2","type":"tuple","internalType":"struct BN254.G2Point","components":[{"name":"X","type":"uint256[2]","internalType":"uint256[2]"},{"name":"Y","type":"uint256[2]","internalType":"uint256[2]"}]},{"name":"sigma","type":"tuple","internalType":"struct BN254.G1Point","components":[{"name":"X","type":"uint256","internalType":"uint256"},{"name":"Y","type":"uint256","internalType":"uint256"}]},{"name":"quorumApkIndices","type":"uint32[]","internalType":"uint32[]"},{"name":"totalStakeIndices","type":"uint32[]","internalType":"uint32[]"},{"name":"nonSignerStakeIndices","type":"uint32[][]","internalType":"uint32[][]"}]}],"outputs":[],"stateMutability":"nonpayable"},{"type":"function","name":"rewardsInitiator","inputs":[],"outputs":[{"name":"","type":"address","internalType":"address"}],"stateMutability":"view"},{"type":"function","name":"setRewardsInitiator","inputs":[{"name":"newRewardsInitiator","type":"address","internalType":"address"}],"outputs":[],"stateMutability":"nonpayable"},{"type":"function","name":"setStaleStakesForbidden","inputs":[{"name":"value","type":"bool","internalType":"bool"}],"outputs":[],"stateMutability":"nonpayable"},{"type":"function","name":"stakeRegistry","inputs":[],"outputs":[{"name":"","type":"address","internalType":"contract IStakeRegistry"}],"stateMutability":"view"},{"type":"function","name":"staleStakesForbidden","inputs":[],"outputs":[{"name":"","type":"bool","internalType":"bool"}],"stateMutability":"view"},{"type":"function","name":"transferOwnership","inputs":[{"name":"newOwner","type":"address","internalType":"address"}],"outputs":[],"stateMutability":"nonpayable"},{"type":"function","name":"trySignatureAndApkVerification","inputs":[{"name":"msgHash","type":"bytes32","internalType":"bytes32"},{"name":"apk","type":"tuple","internalType":"struct BN254.G1Point","components":[{"name":"X","type":"uint256","internalType":"uint256"},{"name":"Y","type":"uint256","internalType":"uint256"}]},{"name":"apkG2","type":"tuple","internalType":"struct BN254.G2Point","components":[{"name":"X","type":"uint256[2]","internalType":"uint256[2]"},{"name":"Y","type":"uint256[2]","internalType":"uint256[2]"}]},{"name":"sigma","type":"tuple","internalType":"struct BN254.G1Point","components":[{"name":"X","type":"uint256","internalType":"uint256"},{"name":"Y","type":"uint256","internalType":"uint256"}]}],"outputs":[{"name":"pairingSuccessful","type":"bool","internalType":"bool"},{"name":"siganatureIsValid","type":"bool","internalType":"bool"}],"stateMutability":"view"},{"type":"function","name":"updateAVSMetadataURI","inputs":[{"name":"_metadataURI","type":"string","internalType":"string"}],"outputs":[],"stateMutability":"nonpayable"},{"type":"function","name":"verifyBatchInclusion","inputs":[{"name":"proofCommitment","type":"bytes32","internalType":"bytes32"},{"name":"pubInputCommitment","type":"bytes32","internalType":"bytes32"},{"name":"provingSystemAuxDataCommitment","type":"bytes32","internalType":"bytes32"},{"name":"proofGeneratorAddr","type":"bytes20","internalType":"bytes20"},{"name":"batchMerkleRoot","type":"bytes32","internalType":"bytes32"},{"name":"merkleProof","type":"bytes","internalType":"bytes"},{"name":"verificationDataBatchIndex","type":"uint256","internalType":"uint256"}],"outputs":[{"name":"","type":"bool","internalType":"bool"}],"stateMutability":"view"},{"type":"event","name":"BatchVerified","inputs":[{"name":"batchMerkleRoot","type":"bytes32","indexed":true,"internalType":"bytes32"}],"anonymous":false},{"type":"event","name":"Initialized","inputs":[{"name":"version","type":"uint8","indexed":false,"internalType":"uint8"}],"anonymous":false},{"type":"event","name":"NewBatch","inputs":[{"name":"batchMerkleRoot","type":"bytes32","indexed":true,"internalType":"bytes32"},{"name":"taskCreatedBlock","type":"uint32","indexed":false,"internalType":"uint32"},{"name":"batchDataPointer","type":"string","indexed":false,"internalType":"string"}],"anonymous":false},{"type":"event","name":"OwnershipTransferred","inputs":[{"name":"previousOwner","type":"address","indexed":true,"internalType":"address"},{"name":"newOwner","type":"address","indexed":true,"internalType":"address"}],"anonymous":false},{"type":"event","name":"RewardsInitiatorUpdated","inputs":[{"name":"prevRewardsInitiator","type":"address","indexed":false,"internalType":"address"},{"name":"newRewardsInitiator","type":"address","indexed":false,"internalType":"address"}],"anonymous":false},{"type":"event","name":"StaleStakesForbiddenUpdate","inputs":[{"name":"value","type":"bool","indexed":false,"internalType":"bool"}],"anonymous":false}],"bytecode":{"object":"0x6101806040523480156200001257600080fd5b5060405162004d0538038062004d058339810160408190526200003591620002e5565b6001600160a01b0380851660805280841660a05280831660c052811660e0528184848284620000636200020a565b50505050806001600160a01b0316610100816001600160a01b031681525050806001600160a01b031663683048356040518163ffffffff1660e01b8152600401602060405180830381865afa158015620000c1573d6000803e3d6000fd5b505050506040513d601f19601f82011682018060405250810190620000e791906200034d565b6001600160a01b0316610120816001600160a01b031681525050806001600160a01b0316635df459466040518163ffffffff1660e01b8152600401602060405180830381865afa15801562000140573d6000803e3d6000fd5b505050506040513d601f19601f820116820180604052508101906200016691906200034d565b6001600160a01b0316610140816001600160a01b031681525050610120516001600160a01b031663df5cf7236040518163ffffffff1660e01b8152600401602060405180830381865afa158015620001c2573d6000803e3d6000fd5b505050506040513d601f19601f82011682018060405250810190620001e891906200034d565b6001600160a01b03166101605250620002006200020a565b5050505062000374565b600054610100900460ff1615620002775760405162461bcd60e51b815260206004820152602760248201527f496e697469616c697a61626c653a20636f6e747261637420697320696e697469604482015266616c697a696e6760c81b606482015260840160405180910390fd5b60005460ff9081161015620002ca576000805460ff191660ff9081179091556040519081527f7f26b83ff96e1f2b6a682f133852f6798a09c465da95921460cefb38474024989060200160405180910390a15b565b6001600160a01b0381168114620002e257600080fd5b50565b60008060008060808587031215620002fc57600080fd5b84516200030981620002cc565b60208601519094506200031c81620002cc565b60408601519093506200032f81620002cc565b60608601519092506200034281620002cc565b939692955090935050565b6000602082840312156200036057600080fd5b81516200036d81620002cc565b9392505050565b60805160a05160c05160e0516101005161012051610140516101605161488362000482600039600081816104a901526115b201526000818161028901526117c50152600081816102d5015281816119b20152611ba201526000818161033c01528181610de40152818161126e015281816114150152611666015260008181610af901528181610c5401528181610ceb01528181612334015281816124b70152612556015260008181610920015281816109af01528181610a2f01528181611f7d015281816120490152818161227201526124120152600081816129ad01528181612a690152612b5501526000818161030601528181611fd1015281816120a5015261212401526148836000f3fe6080604052600436106101665760003560e01c80638da5cb5b116100d1578063c4d66de81161008a578063f2fde38b11610064578063f2fde38b146104e0578063fa534dc014610500578063fc299dee14610520578063fce36c7d1461054057600080fd5b8063c4d66de814610477578063df5cf72314610497578063e481af9d146104cb57600080fd5b80638da5cb5b146103735780639926ee7d14610391578063a364f4da146103b1578063a98fb355146103d1578063b099627e146103f1578063b98d09081461044d57600080fd5b80635c008994116101235780635c008994146102645780635df459461461027757806368304835146102c35780636b3aa72e146102f75780636d14a9871461032a578063715018a61461035e57600080fd5b8063171f1d5b1461016b5780632dd94eba146101a757806333cfb7b7146101c95780633bc28c8c146101f6578063416c7e5e146102165780634ae07c3714610236575b600080fd5b34801561017757600080fd5b5061018b610186366004613a7a565b610560565b6040805192151583529015156020830152015b60405180910390f35b3480156101b357600080fd5b506101c76101c2366004613d81565b6106ea565b005b3480156101d557600080fd5b506101e96101e4366004613ddc565b6108fb565b60405161019e9190613df9565b34801561020257600080fd5b506101c7610211366004613ddc565b610dce565b34801561022257600080fd5b506101c7610231366004613e54565b610de2565b34801561024257600080fd5b50610256610251366004613e71565b610f19565b60405161019e929190613f0b565b6101c7610272366004613f54565b611e6c565b34801561028357600080fd5b506102ab7f000000000000000000000000000000000000000000000000000000000000000081565b6040516001600160a01b03909116815260200161019e565b3480156102cf57600080fd5b506102ab7f000000000000000000000000000000000000000000000000000000000000000081565b34801561030357600080fd5b507f00000000000000000000000000000000000000000000000000000000000000006102ab565b34801561033657600080fd5b506102ab7f000000000000000000000000000000000000000000000000000000000000000081565b34801561036a57600080fd5b506101c7611f5e565b34801561037f57600080fd5b506033546001600160a01b03166102ab565b34801561039d57600080fd5b506101c76103ac36600461404d565b611f72565b3480156103bd57600080fd5b506101c76103cc366004613ddc565b61203e565b3480156103dd57600080fd5b506101c76103ec3660046140f8565b612105565b3480156103fd57600080fd5b5061043161040c366004614148565b60c96020526000908152604090205463ffffffff811690640100000000900460ff1682565b6040805163ffffffff909316835290151560208301520161019e565b34801561045957600080fd5b506097546104679060ff1681565b604051901515815260200161019e565b34801561048357600080fd5b506101c7610492366004613ddc565b612159565b3480156104a357600080fd5b506102ab7f000000000000000000000000000000000000000000000000000000000000000081565b3480156104d757600080fd5b506101e961226c565b3480156104ec57600080fd5b506101c76104fb366004613ddc565b612635565b34801561050c57600080fd5b5061046761051b366004614161565b6126ab565b34801561052c57600080fd5b506065546102ab906001600160a01b031681565b34801561054c57600080fd5b506101c761055b3660046141f2565b6127d4565b60008060007f30644e72e131a029b85045b68181585d2833e84879b9709143e1f593f0000001878760000151886020015188600001516000600281106105a8576105a8614266565b60200201518951600160200201518a602001516000600281106105cd576105cd614266565b60200201518b602001516001600281106105e9576105e9614266565b602090810291909101518c518d8301516040516106469a99989796959401988952602089019790975260408801959095526060870193909352608086019190915260a085015260c084015260e08301526101008201526101200190565b6040516020818303038152906040528051906020012060001c610669919061427c565b90506106dc61068261067b8884612b8c565b8690612c23565b61068a612cb7565b6106d26106c3856106bd604080518082018252600080825260209182015281518083019092526001825260029082015290565b90612b8c565b6106cc8c612d77565b90612c23565b886201d4c0612e07565b909890975095505050505050565b600082815260c9602052604090205463ffffffff166107475760405162461bcd60e51b8152602060048201526014602482015273426174636820646f65736e27742065786973747360601b60448201526064015b60405180910390fd5b600082815260c96020526040902054640100000000900460ff16156107ae5760405162461bcd60e51b815260206004820152601760248201527f426174636820616c726561647920726573706f6e646564000000000000000000604482015260640161073e565b600082815260c960205260408120805464ff000000001981166401000000001790915581906107e590859063ffffffff1685610f19565b91509150604360ff16826020015160008151811061080557610805614266565b602002602001015161081791906142b4565b6001600160601b03166064836000015160008151811061083957610839614266565b60200260200101516001600160601b031661085491906142e3565b10156108ca576040805162461bcd60e51b81526020600482015260248101919091527f5369676e61746f7269657320646f206e6f74206f776e206174206c656173742060448201527f7468726573686f6c642070657263656e74616765206f6620612071756f72756d606482015260840161073e565b60405184907f433ae0767fe95db70a0e30eda902926e41203b9eb97ec5175076fb9e2d35c13e90600090a250505050565b6040516309aa152760e11b81526001600160a01b0382811660048301526060916000917f000000000000000000000000000000000000000000000000000000000000000016906313542a4e90602401602060405180830381865afa158015610967573d6000803e3d6000fd5b505050506040513d601f19601f8201168201806040525081019061098b9190614302565b60405163871ef04960e01b8152600481018290529091506000906001600160a01b037f0000000000000000000000000000000000000000000000000000000000000000169063871ef04990602401602060405180830381865afa1580156109f6573d6000803e3d6000fd5b505050506040513d601f19601f82011682018060405250810190610a1a919061431b565b90506001600160c01b0381161580610ab457507f00000000000000000000000000000000000000000000000000000000000000006001600160a01b0316639aa1653d6040518163ffffffff1660e01b8152600401602060405180830381865afa158015610a8b573d6000803e3d6000fd5b505050506040513d601f19601f82011682018060405250810190610aaf9190614344565b60ff16155b15610ad45760408051600080825260208201909252905b50949350505050565b6000610ae8826001600160c01b031661302b565b90506000805b8251811015610bbe577f00000000000000000000000000000000000000000000000000000000000000006001600160a01b0316633ca5a5f5848381518110610b3857610b38614266565b01602001516040516001600160e01b031960e084901b16815260f89190911c6004820152602401602060405180830381865afa158015610b7c573d6000803e3d6000fd5b505050506040513d601f19601f82011682018060405250810190610ba09190614302565b610baa9083614367565b915080610bb68161437f565b915050610aee565b506000816001600160401b03811115610bd957610bd9613929565b604051908082528060200260200182016040528015610c02578160200160208202803683370190505b5090506000805b8451811015610dc1576000858281518110610c2657610c26614266565b0160200151604051633ca5a5f560e01b815260f89190911c6004820181905291506000906001600160a01b037f00000000000000000000000000000000000000000000000000000000000000001690633ca5a5f590602401602060405180830381865afa158015610c9b573d6000803e3d6000fd5b505050506040513d601f19601f82011682018060405250810190610cbf9190614302565b905060005b81811015610dab576040516356e4026d60e11b815260ff84166004820152602481018290527f00000000000000000000000000000000000000000000000000000000000000006001600160a01b03169063adc804da906044016040805180830381865afa158015610d39573d6000803e3d6000fd5b505050506040513d601f19601f82011682018060405250810190610d5d91906143af565b60000151868681518110610d7357610d73614266565b6001600160a01b039092166020928302919091019091015284610d958161437f565b9550508080610da39061437f565b915050610cc4565b5050508080610db99061437f565b915050610c09565b5090979650505050505050565b610dd66130ed565b610ddf81613147565b50565b7f00000000000000000000000000000000000000000000000000000000000000006001600160a01b0316638da5cb5b6040518163ffffffff1660e01b8152600401602060405180830381865afa158015610e40573d6000803e3d6000fd5b505050506040513d601f19601f82011682018060405250810190610e6491906143f0565b6001600160a01b0316336001600160a01b031614610f105760405162461bcd60e51b815260206004820152605c60248201527f424c535369676e6174757265436865636b65722e6f6e6c79436f6f7264696e6160448201527f746f724f776e65723a2063616c6c6572206973206e6f7420746865206f776e6560648201527f72206f6620746865207265676973747279436f6f7264696e61746f7200000000608482015260a40161073e565b610ddf816131b0565b60408051808201909152606080825260208201526000826040015151604051806040016040528060018152602001600081525051148015610f7557508260a0015151604051806040016040528060018152602001600081525051145b8015610f9c57508260c0015151604051806040016040528060018152602001600081525051145b8015610fc357508260e0015151604051806040016040528060018152602001600081525051145b61102d5760405162461bcd60e51b8152602060048201526041602482015260008051602061482e83398151915260448201527f7265733a20696e7075742071756f72756d206c656e677468206d69736d6174636064820152600d60fb1b608482015260a40161073e565b825151602084015151146110a55760405162461bcd60e51b81526020600482015260446024820181905260008051602061482e833981519152908201527f7265733a20696e707574206e6f6e7369676e6572206c656e677468206d69736d6064820152630c2e8c6d60e31b608482015260a40161073e565b4363ffffffff168463ffffffff16106111145760405162461bcd60e51b815260206004820152603c602482015260008051602061482e83398151915260448201527f7265733a20696e76616c6964207265666572656e636520626c6f636b00000000606482015260840161073e565b60408051808201825260008082526020808301829052835180850185526060808252818301528451808601865260018082529083019390935284518381528086019095529293919082810190803683370190505060208281019190915260408051808201825260018082526000919093015280518281528082019091529081602001602082028036833701905050815260408051808201909152606080825260208201528560200151516001600160401b038111156111d5576111d5613929565b6040519080825280602002602001820160405280156111fe578160200160208202803683370190505b5081526020860151516001600160401b0381111561121e5761121e613929565b604051908082528060200260200182016040528015611247578160200160208202803683370190505b50816020018190525060006112f360405180604001604052806001815260200160008152507f00000000000000000000000000000000000000000000000000000000000000006001600160a01b0316639aa1653d6040518163ffffffff1660e01b8152600401602060405180830381865afa1580156112ca573d6000803e3d6000fd5b505050506040513d601f19601f820116820180604052508101906112ee9190614344565b6131f7565b905060005b87602001515181101561158e5761133d8860200151828151811061131e5761131e614266565b6020026020010151805160009081526020918201519091526040902090565b8360200151828151811061135357611353614266565b6020908102919091010152801561141357602083015161137460018361440d565b8151811061138457611384614266565b602002602001015160001c836020015182815181106113a5576113a5614266565b602002602001015160001c11611413576040805162461bcd60e51b815260206004820152602481019190915260008051602061482e83398151915260448201527f7265733a206e6f6e5369676e65725075626b657973206e6f7420736f72746564606482015260840161073e565b7f00000000000000000000000000000000000000000000000000000000000000006001600160a01b03166304ec63518460200151838151811061145857611458614266565b60200260200101518b8b60000151858151811061147757611477614266565b60200260200101516040518463ffffffff1660e01b81526004016114b49392919092835263ffffffff918216602084015216604082015260600190565b602060405180830381865afa1580156114d1573d6000803e3d6000fd5b505050506040513d601f19601f820116820180604052508101906114f5919061431b565b6001600160c01b03168360000151828151811061151457611514614266565b60200260200101818152505061157a61067b61154e848660000151858151811061154057611540614266565b60200260200101511661328a565b8a60200151848151811061156457611564614266565b60200260200101516132b590919063ffffffff16565b9450806115868161437f565b9150506112f8565b505061159983613399565b60975490935060ff166000816115b0576000611632565b7f00000000000000000000000000000000000000000000000000000000000000006001600160a01b031663c448feb86040518163ffffffff1660e01b8152600401602060405180830381865afa15801561160e573d6000803e3d6000fd5b505050506040513d601f19601f820116820180604052508101906116329190614302565b905060005b604051806040016040528060018152602001600081525051811015611d3d5782156117c3578963ffffffff16827f00000000000000000000000000000000000000000000000000000000000000006001600160a01b031663249a0c42604051806040016040528060018152602001600081525085815181106116bb576116bb614266565b01602001516040516001600160e01b031960e084901b16815260f89190911c6004820152602401602060405180830381865afa1580156116ff573d6000803e3d6000fd5b505050506040513d601f19601f820116820180604052508101906117239190614302565b61172d9190614367565b116117c35760405162461bcd60e51b8152602060048201526066602482015260008051602061482e83398151915260448201527f7265733a205374616b6552656769737472792075706461746573206d7573742060648201527f62652077697468696e207769746864726177616c44656c6179426c6f636b732060848201526577696e646f7760d01b60a482015260c40161073e565b7f00000000000000000000000000000000000000000000000000000000000000006001600160a01b03166368bccaac6040518060400160405280600181526020016000815250838151811061181a5761181a614266565b602001015160f81c60f81b60f81c8c8c60a00151858151811061183f5761183f614266565b60209081029190910101516040516001600160e01b031960e086901b16815260ff909316600484015263ffffffff9182166024840152166044820152606401602060405180830381865afa15801561189b573d6000803e3d6000fd5b505050506040513d601f19601f820116820180604052508101906118bf9190614424565b6001600160401b0319166118e28a60400151838151811061131e5761131e614266565b67ffffffffffffffff19161461197e5760405162461bcd60e51b8152602060048201526061602482015260008051602061482e83398151915260448201527f7265733a2071756f72756d41706b206861736820696e2073746f72616765206460648201527f6f6573206e6f74206d617463682070726f76696465642071756f72756d2061706084820152606b60f81b60a482015260c40161073e565b6119ae8960400151828151811061199757611997614266565b602002602001015187612c2390919063ffffffff16565b95507f00000000000000000000000000000000000000000000000000000000000000006001600160a01b031663c8294c5660405180604001604052806001815260200160008152508381518110611a0757611a07614266565b602001015160f81c60f81b60f81c8c8c60c001518581518110611a2c57611a2c614266565b60209081029190910101516040516001600160e01b031960e086901b16815260ff909316600484015263ffffffff9182166024840152166044820152606401602060405180830381865afa158015611a88573d6000803e3d6000fd5b505050506040513d601f19601f82011682018060405250810190611aac919061444f565b85602001518281518110611ac257611ac2614266565b6001600160601b03909216602092830291909101820152850151805182908110611aee57611aee614266565b602002602001015185600001518281518110611b0c57611b0c614266565b60200260200101906001600160601b031690816001600160601b0316815250506000805b8a6020015151811015611d2857611b9b86600001518281518110611b5657611b56614266565b602002602001015160405180604001604052806001815260200160008152508581518110611b8657611b86614266565b016020015160f81c60ff161c60019081161490565b15611d16577f00000000000000000000000000000000000000000000000000000000000000006001600160a01b031663f2be94ae60405180604001604052806001815260200160008152508581518110611bf757611bf7614266565b602001015160f81c60f81b60f81c8e89602001518581518110611c1c57611c1c614266565b60200260200101518f60e001518881518110611c3a57611c3a614266565b60200260200101518781518110611c5357611c53614266565b60209081029190910101516040516001600160e01b031960e087901b16815260ff909416600485015263ffffffff92831660248501526044840191909152166064820152608401602060405180830381865afa158015611cb7573d6000803e3d6000fd5b505050506040513d601f19601f82011682018060405250810190611cdb919061444f565b8751805185908110611cef57611cef614266565b60200260200101818151611d03919061446c565b6001600160601b03169052506001909101905b80611d208161437f565b915050611b30565b50508080611d359061437f565b915050611637565b505050600080611d578a868a606001518b60800151610560565b9150915081611dc85760405162461bcd60e51b8152602060048201526043602482015260008051602061482e83398151915260448201527f7265733a2070616972696e6720707265636f6d70696c652063616c6c206661696064820152621b195960ea1b608482015260a40161073e565b80611e295760405162461bcd60e51b8152602060048201526039602482015260008051602061482e83398151915260448201527f7265733a207369676e617475726520697320696e76616c696400000000000000606482015260840161073e565b50506000878260200151604051602001611e44929190614494565b60408051808303601f1901815291905280516020909101209299929850919650505050505050565b600083815260c9602052604090205463ffffffff1615611ece5760405162461bcd60e51b815260206004820152601a60248201527f42617463682077617320616c7265616479207665726966696564000000000000604482015260640161073e565b6040805180820182526000602080830182815263ffffffff43818116865289855260c99093529285902084518154925115156401000000000264ffffffffff19909316941693909317179091559151909185917f1871c33134a542e0ab9facf7013d27b9ed95e64d299e9919ee091c9cfcb19fa591611f5091879087906144dc565b60405180910390a250505050565b611f666130ed565b611f706000613434565b565b336001600160a01b037f00000000000000000000000000000000000000000000000000000000000000001614611fba5760405162461bcd60e51b815260040161073e90614518565b604051639926ee7d60e01b81526001600160a01b037f00000000000000000000000000000000000000000000000000000000000000001690639926ee7d9061200890859085906004016145dd565b600060405180830381600087803b15801561202257600080fd5b505af1158015612036573d6000803e3d6000fd5b505050505050565b336001600160a01b037f000000000000000000000000000000000000000000000000000000000000000016146120865760405162461bcd60e51b815260040161073e90614518565b6040516351b27a6d60e11b81526001600160a01b0382811660048301527f0000000000000000000000000000000000000000000000000000000000000000169063a364f4da906024015b600060405180830381600087803b1580156120ea57600080fd5b505af11580156120fe573d6000803e3d6000fd5b5050505050565b61210d6130ed565b60405163a98fb35560e01b81526001600160a01b037f0000000000000000000000000000000000000000000000000000000000000000169063a98fb355906120d0908490600401614628565b600054610100900460ff16158080156121795750600054600160ff909116105b806121935750303b158015612193575060005460ff166001145b6121f65760405162461bcd60e51b815260206004820152602e60248201527f496e697469616c697a61626c653a20636f6e747261637420697320616c72656160448201526d191e481a5b9a5d1a585b1a5e995960921b606482015260840161073e565b6000805460ff191660011790558015612219576000805461ff0019166101001790555b61222282613434565b8015612268576000805461ff0019169055604051600181527f7f26b83ff96e1f2b6a682f133852f6798a09c465da95921460cefb38474024989060200160405180910390a15b5050565b606060007f00000000000000000000000000000000000000000000000000000000000000006001600160a01b0316639aa1653d6040518163ffffffff1660e01b8152600401602060405180830381865afa1580156122ce573d6000803e3d6000fd5b505050506040513d601f19601f820116820180604052508101906122f29190614344565b60ff1690508061231057505060408051600081526020810190915290565b6000805b828110156123c557604051633ca5a5f560e01b815260ff821660048201527f00000000000000000000000000000000000000000000000000000000000000006001600160a01b031690633ca5a5f590602401602060405180830381865afa158015612383573d6000803e3d6000fd5b505050506040513d601f19601f820116820180604052508101906123a79190614302565b6123b19083614367565b9150806123bd8161437f565b915050612314565b506000816001600160401b038111156123e0576123e0613929565b604051908082528060200260200182016040528015612409578160200160208202803683370190505b5090506000805b7f00000000000000000000000000000000000000000000000000000000000000006001600160a01b0316639aa1653d6040518163ffffffff1660e01b8152600401602060405180830381865afa15801561246e573d6000803e3d6000fd5b505050506040513d601f19601f820116820180604052508101906124929190614344565b60ff1681101561262b57604051633ca5a5f560e01b815260ff821660048201526000907f00000000000000000000000000000000000000000000000000000000000000006001600160a01b031690633ca5a5f590602401602060405180830381865afa158015612506573d6000803e3d6000fd5b505050506040513d601f19601f8201168201806040525081019061252a9190614302565b905060005b81811015612616576040516356e4026d60e11b815260ff84166004820152602481018290527f00000000000000000000000000000000000000000000000000000000000000006001600160a01b03169063adc804da906044016040805180830381865afa1580156125a4573d6000803e3d6000fd5b505050506040513d601f19601f820116820180604052508101906125c891906143af565b600001518585815181106125de576125de614266565b6001600160a01b0390921660209283029190910190910152836126008161437f565b945050808061260e9061437f565b91505061252f565b505080806126239061437f565b915050612410565b5090949350505050565b61263d6130ed565b6001600160a01b0381166126a25760405162461bcd60e51b815260206004820152602660248201527f4f776e61626c653a206e6577206f776e657220697320746865207a65726f206160448201526564647265737360d01b606482015260840161073e565b610ddf81613434565b600083815260c9602052604081205463ffffffff166127025760405162461bcd60e51b815260206004820152601360248201527210985d18da08191bd95cdb89dd08195e1a5cdd606a1b604482015260640161073e565b600084815260c96020526040902054640100000000900460ff16151560011461276d5760405162461bcd60e51b815260206004820152601c60248201527f426174636820686173206e6f74206265656e20726573706f6e64656400000000604482015260640161073e565b60408051602081018a9052908101889052606081018790526bffffffffffffffffffffffff198616608082015260009060940160408051601f19818403018152919052805160208201209091506127c685878387613486565b9a9950505050505050505050565b6065546001600160a01b031633146128695760405162461bcd60e51b815260206004820152604c60248201527f536572766963654d616e61676572426173652e6f6e6c7952657761726473496e60448201527f69746961746f723a2063616c6c6572206973206e6f742074686520726577617260648201526b32399034b734ba34b0ba37b960a11b608482015260a40161073e565b60005b81811015612b3d5782828281811061288657612886614266565b9050602002810190612898919061463b565b6128a9906040810190602001613ddc565b6001600160a01b03166323b872dd33308686868181106128cb576128cb614266565b90506020028101906128dd919061463b565b604080516001600160e01b031960e087901b1681526001600160a01b039485166004820152939092166024840152013560448201526064016020604051808303816000875af1158015612934573d6000803e3d6000fd5b505050506040513d601f19601f820116820180604052508101906129589190614666565b50600083838381811061296d5761296d614266565b905060200281019061297f919061463b565b612990906040810190602001613ddc565b604051636eb1769f60e11b81523060048201526001600160a01b037f000000000000000000000000000000000000000000000000000000000000000081166024830152919091169063dd62ed3e90604401602060405180830381865afa1580156129fe573d6000803e3d6000fd5b505050506040513d601f19601f82011682018060405250810190612a229190614302565b9050838383818110612a3657612a36614266565b9050602002810190612a48919061463b565b612a59906040810190602001613ddc565b6001600160a01b031663095ea7b37f000000000000000000000000000000000000000000000000000000000000000083878787818110612a9b57612a9b614266565b9050602002810190612aad919061463b565b60400135612abb9190614367565b6040516001600160e01b031960e085901b1681526001600160a01b03909216600483015260248201526044016020604051808303816000875af1158015612b06573d6000803e3d6000fd5b505050506040513d601f19601f82011682018060405250810190612b2a9190614666565b505080612b369061437f565b905061286c565b5060405163fce36c7d60e01b81526001600160a01b037f0000000000000000000000000000000000000000000000000000000000000000169063fce36c7d9061200890859085906004016146de565b6040805180820190915260008082526020820152612ba861384f565b835181526020808501519082015260408082018490526000908360608460076107d05a03fa9050808015612bdb57612bdd565bfe5b5080612c1b5760405162461bcd60e51b815260206004820152600d60248201526c1958cb5b5d5b0b59985a5b1959609a1b604482015260640161073e565b505092915050565b6040805180820190915260008082526020820152612c3f61386d565b835181526020808501518183015283516040808401919091529084015160608301526000908360808460066107d05a03fa9050808015612bdb575080612c1b5760405162461bcd60e51b815260206004820152600d60248201526c1958cb5859190b59985a5b1959609a1b604482015260640161073e565b612cbf61388b565b50604080516080810182527f198e9393920d483a7260bfb731fb5d25f1aa493335a9e71297e485b7aef312c28183019081527f1800deef121f1e76426a00665e5c4479674322d4f75edadd46debd5cd992f6ed6060830152815281518083019092527f275dc4a288d1afb3cbb1ac09187524c7db36395df7be3b99e673b13a075a65ec82527f1d9befcd05a5323e6da4d435f3b617cdb3af83285c2df711ef39c01571827f9d60208381019190915281019190915290565b604080518082019091526000808252602082015260008080612da760008051602061480e8339815191528661427c565b90505b612db38161349e565b909350915060008051602061480e833981519152828309831415612ded576040805180820190915290815260208101919091529392505050565b60008051602061480e833981519152600182089050612daa565b604080518082018252868152602080820186905282518084019093528683528201849052600091829190612e396138b0565b60005b6002811015612ffe576000612e528260066142e3565b9050848260028110612e6657612e66614266565b60200201515183612e78836000614367565b600c8110612e8857612e88614266565b6020020152848260028110612e9f57612e9f614266565b60200201516020015183826001612eb69190614367565b600c8110612ec657612ec6614266565b6020020152838260028110612edd57612edd614266565b6020020151515183612ef0836002614367565b600c8110612f0057612f00614266565b6020020152838260028110612f1757612f17614266565b6020020151516001602002015183612f30836003614367565b600c8110612f4057612f40614266565b6020020152838260028110612f5757612f57614266565b602002015160200151600060028110612f7257612f72614266565b602002015183612f83836004614367565b600c8110612f9357612f93614266565b6020020152838260028110612faa57612faa614266565b602002015160200151600160028110612fc557612fc5614266565b602002015183612fd6836005614367565b600c8110612fe657612fe6614266565b60200201525080612ff68161437f565b915050612e3c565b506130076138cf565b60006020826101808560088cfa9151919c9115159b50909950505050505050505050565b60606000806130398461328a565b61ffff166001600160401b0381111561305457613054613929565b6040519080825280601f01601f19166020018201604052801561307e576020820181803683370190505b5090506000805b825182108015613096575061010081105b1561262b576001811b9350858416156130dd578060f81b8383815181106130bf576130bf614266565b60200101906001600160f81b031916908160001a9053508160010191505b6130e68161437f565b9050613085565b6033546001600160a01b03163314611f705760405162461bcd60e51b815260206004820181905260248201527f4f776e61626c653a2063616c6c6572206973206e6f7420746865206f776e6572604482015260640161073e565b606554604080516001600160a01b03928316815291831660208301527fe11cddf1816a43318ca175bbc52cd0185436e9cbead7c83acc54a73e461717e3910160405180910390a1606580546001600160a01b0319166001600160a01b0392909216919091179055565b6097805460ff19168215159081179091556040519081527f40e4ed880a29e0f6ddce307457fb75cddf4feef7d3ecb0301bfdf4976a0e2dfc9060200160405180910390a150565b60008061320384613520565b9050808360ff166001901b116132815760405162461bcd60e51b815260206004820152603f60248201527f4269746d61705574696c732e6f72646572656442797465734172726179546f4260448201527f69746d61703a206269746d61702065786365656473206d61782076616c756500606482015260840161073e565b90505b92915050565b6000805b82156132845761329f60018461440d565b90921691806132ad816147eb565b91505061328e565b60408051808201909152600080825260208201526102008261ffff16106133115760405162461bcd60e51b815260206004820152601060248201526f7363616c61722d746f6f2d6c6172676560801b604482015260640161073e565b8161ffff1660011415613325575081613284565b6040805180820190915260008082526020820181905284906001905b8161ffff168661ffff161061338e57600161ffff871660ff83161c811614156133715761336e8484612c23565b93505b61337b8384612c23565b92506201fffe600192831b169101613341565b509195945050505050565b604080518082019091526000808252602082015281511580156133be57506020820151155b156133dc575050604080518082019091526000808252602082015290565b60405180604001604052808360000151815260200160008051602061480e833981519152846020015161340f919061427c565b6134279060008051602061480e83398151915261440d565b905292915050565b919050565b603380546001600160a01b038381166001600160a01b0319831681179093556040519116919082907f8be0079c531659141344cd1fd0a4f28419497f9722a3daafe3b4186f6b6457e090600090a35050565b6000836134948685856136ad565b1495945050505050565b6000808060008051602061480e833981519152600360008051602061480e8339815191528660008051602061480e833981519152888909090890506000613514827f0c19139cb84c680a6e14116da060561765e05aa45a1c72a34f082305b61f3f5260008051602061480e8339815191526137a7565b91959194509092505050565b6000610100825111156135a95760405162461bcd60e51b8152602060048201526044602482018190527f4269746d61705574696c732e6f72646572656442797465734172726179546f42908201527f69746d61703a206f7264657265644279746573417272617920697320746f6f206064820152636c6f6e6760e01b608482015260a40161073e565b81516135b757506000919050565b600080836000815181106135cd576135cd614266565b0160200151600160f89190911c81901b92505b84518110156136a4578481815181106135fb576135fb614266565b0160200151600160f89190911c1b91508282116136905760405162461bcd60e51b815260206004820152604760248201527f4269746d61705574696c732e6f72646572656442797465734172726179546f4260448201527f69746d61703a206f72646572656442797465734172726179206973206e6f74206064820152661bdc99195c995960ca1b608482015260a40161073e565b9181179161369d8161437f565b90506135e0565b50909392505050565b6000602084516136bd919061427c565b156137445760405162461bcd60e51b815260206004820152604b60248201527f4d65726b6c652e70726f63657373496e636c7573696f6e50726f6f664b65636360448201527f616b3a2070726f6f66206c656e6774682073686f756c642062652061206d756c60648201526a3a34b836329037b310199960a91b608482015260a40161073e565b8260205b85518111610acb5761375b60028561427c565b61377c57816000528086015160205260406000209150600284049350613795565b8086015160005281602052604060002091506002840493505b6137a0602082614367565b9050613748565b6000806137b26138cf565b6137ba6138ed565b602080825281810181905260408201819052606082018890526080820187905260a082018690528260c08360056107d05a03fa9250828015612bdb5750826138445760405162461bcd60e51b815260206004820152601a60248201527f424e3235342e6578704d6f643a2063616c6c206661696c757265000000000000604482015260640161073e565b505195945050505050565b60405180606001604052806003906020820280368337509192915050565b60405180608001604052806004906020820280368337509192915050565b604051806040016040528061389e61390b565b81526020016138ab61390b565b905290565b604051806101800160405280600c906020820280368337509192915050565b60405180602001604052806001906020820280368337509192915050565b6040518060c001604052806006906020820280368337509192915050565b60405180604001604052806002906020820280368337509192915050565b634e487b7160e01b600052604160045260246000fd5b604080519081016001600160401b038111828210171561396157613961613929565b60405290565b60405161010081016001600160401b038111828210171561396157613961613929565b604051601f8201601f191681016001600160401b03811182821017156139b2576139b2613929565b604052919050565b6000604082840312156139cc57600080fd5b6139d461393f565b9050813581526020820135602082015292915050565b600082601f8301126139fb57600080fd5b613a0361393f565b806040840185811115613a1557600080fd5b845b81811015613a2f578035845260209384019301613a17565b509095945050505050565b600060808284031215613a4c57600080fd5b613a5461393f565b9050613a6083836139ea565b8152613a6f83604084016139ea565b602082015292915050565b6000806000806101208587031215613a9157600080fd5b84359350613aa286602087016139ba565b9250613ab18660608701613a3a565b9150613ac08660e087016139ba565b905092959194509250565b60006001600160401b03821115613ae457613ae4613929565b5060051b60200190565b803563ffffffff8116811461342f57600080fd5b600082601f830112613b1357600080fd5b81356020613b28613b2383613acb565b61398a565b82815260059290921b84018101918181019086841115613b4757600080fd5b8286015b84811015613b6957613b5c81613aee565b8352918301918301613b4b565b509695505050505050565b600082601f830112613b8557600080fd5b81356020613b95613b2383613acb565b82815260069290921b84018101918181019086841115613bb457600080fd5b8286015b84811015613b6957613bca88826139ba565b835291830191604001613bb8565b600082601f830112613be957600080fd5b81356020613bf9613b2383613acb565b82815260059290921b84018101918181019086841115613c1857600080fd5b8286015b84811015613b695780356001600160401b03811115613c3b5760008081fd5b613c498986838b0101613b02565b845250918301918301613c1c565b60006101808284031215613c6a57600080fd5b613c72613967565b905081356001600160401b0380821115613c8b57600080fd5b613c9785838601613b02565b83526020840135915080821115613cad57600080fd5b613cb985838601613b74565b60208401526040840135915080821115613cd257600080fd5b613cde85838601613b74565b6040840152613cf08560608601613a3a565b6060840152613d028560e086016139ba565b6080840152610120840135915080821115613d1c57600080fd5b613d2885838601613b02565b60a0840152610140840135915080821115613d4257600080fd5b613d4e85838601613b02565b60c0840152610160840135915080821115613d6857600080fd5b50613d7584828501613bd8565b60e08301525092915050565b60008060408385031215613d9457600080fd5b8235915060208301356001600160401b03811115613db157600080fd5b613dbd85828601613c57565b9150509250929050565b6001600160a01b0381168114610ddf57600080fd5b600060208284031215613dee57600080fd5b813561328181613dc7565b6020808252825182820181905260009190848201906040850190845b81811015613e3a5783516001600160a01b031683529284019291840191600101613e15565b50909695505050505050565b8015158114610ddf57600080fd5b600060208284031215613e6657600080fd5b813561328181613e46565b600080600060608486031215613e8657600080fd5b83359250613e9660208501613aee565b915060408401356001600160401b03811115613eb157600080fd5b613ebd86828701613c57565b9150509250925092565b600081518084526020808501945080840160005b83811015613f005781516001600160601b031687529582019590820190600101613edb565b509495945050505050565b6040815260008351604080840152613f266080840182613ec7565b90506020850151603f19848303016060850152613f438282613ec7565b925050508260208301529392505050565b600080600060408486031215613f6957600080fd5b8335925060208401356001600160401b0380821115613f8757600080fd5b818601915086601f830112613f9b57600080fd5b813581811115613faa57600080fd5b876020828501011115613fbc57600080fd5b6020830194508093505050509250925092565b60006001600160401b03831115613fe857613fe8613929565b613ffb601f8401601f191660200161398a565b905082815283838301111561400f57600080fd5b828260208301376000602084830101529392505050565b600082601f83011261403757600080fd5b61404683833560208501613fcf565b9392505050565b6000806040838503121561406057600080fd5b823561406b81613dc7565b915060208301356001600160401b038082111561408757600080fd5b908401906060828703121561409b57600080fd5b6040516060810181811083821117156140b6576140b6613929565b6040528235828111156140c857600080fd5b6140d488828601614026565b82525060208301356020820152604083013560408201528093505050509250929050565b60006020828403121561410a57600080fd5b81356001600160401b0381111561412057600080fd5b8201601f8101841361413157600080fd5b61414084823560208401613fcf565b949350505050565b60006020828403121561415a57600080fd5b5035919050565b600080600080600080600060e0888a03121561417c57600080fd5b87359650602088013595506040880135945060608801356bffffffffffffffffffffffff19811681146141ae57600080fd5b93506080880135925060a08801356001600160401b038111156141d057600080fd5b6141dc8a828b01614026565b92505060c0880135905092959891949750929550565b6000806020838503121561420557600080fd5b82356001600160401b038082111561421c57600080fd5b818501915085601f83011261423057600080fd5b81358181111561423f57600080fd5b8660208260051b850101111561425457600080fd5b60209290920196919550909350505050565b634e487b7160e01b600052603260045260246000fd5b60008261429957634e487b7160e01b600052601260045260246000fd5b500690565b634e487b7160e01b600052601160045260246000fd5b60006001600160601b03808316818516818304811182151516156142da576142da61429e565b02949350505050565b60008160001904831182151516156142fd576142fd61429e565b500290565b60006020828403121561431457600080fd5b5051919050565b60006020828403121561432d57600080fd5b81516001600160c01b038116811461328157600080fd5b60006020828403121561435657600080fd5b815160ff8116811461328157600080fd5b6000821982111561437a5761437a61429e565b500190565b60006000198214156143935761439361429e565b5060010190565b6001600160601b0381168114610ddf57600080fd5b6000604082840312156143c157600080fd5b6143c961393f565b82516143d481613dc7565b815260208301516143e48161439a565b60208201529392505050565b60006020828403121561440257600080fd5b815161328181613dc7565b60008282101561441f5761441f61429e565b500390565b60006020828403121561443657600080fd5b815167ffffffffffffffff198116811461328157600080fd5b60006020828403121561446157600080fd5b81516132818161439a565b60006001600160601b038381169083168181101561448c5761448c61429e565b039392505050565b63ffffffff60e01b8360e01b1681526000600482018351602080860160005b838110156144cf578151855293820193908201906001016144b3565b5092979650505050505050565b63ffffffff8416815260406020820152816040820152818360608301376000818301606090810191909152601f909201601f1916010192915050565b60208082526052908201527f536572766963654d616e61676572426173652e6f6e6c7952656769737472794360408201527f6f6f7264696e61746f723a2063616c6c6572206973206e6f742074686520726560608201527133b4b9ba393c9031b7b7b93234b730ba37b960711b608082015260a00190565b6000815180845260005b818110156145b65760208185018101518683018201520161459a565b818111156145c8576000602083870101525b50601f01601f19169290920160200192915050565b60018060a01b038316815260406020820152600082516060604084015261460760a0840182614590565b90506020840151606084015260408401516080840152809150509392505050565b6020815260006140466020830184614590565b60008235609e1983360301811261465157600080fd5b9190910192915050565b803561342f81613dc7565b60006020828403121561467857600080fd5b815161328181613e46565b8183526000602080850194508260005b85811015613f005781356146a681613dc7565b6001600160a01b03168752818301356146be8161439a565b6001600160601b0316878401526040968701969190910190600101614693565b60208082528181018390526000906040808401600586901b8501820187855b888110156147dd57878303603f190184528135368b9003609e1901811261472357600080fd5b8a0160a0813536839003601e1901811261473c57600080fd5b820180356001600160401b0381111561475457600080fd5b8060061b360384131561476657600080fd5b828752614778838801828c8501614683565b9250505061478788830161465b565b6001600160a01b031688860152818701358786015260606147a9818401613aee565b63ffffffff169086015260806147c0838201613aee565b63ffffffff169501949094525092850192908501906001016146fd565b509098975050505050505050565b600061ffff808316818114156148035761480361429e565b600101939250505056fe30644e72e131a029b85045b68181585d97816a916871ca8d3c208c16d87cfd47424c535369676e6174757265436865636b65722e636865636b5369676e617475a26469706673582212209e2e4505323c24c9b24668179d4ab3476cac23f1eea42f9eae67012de09f024164736f6c634300080c0033","linkReferences":{}},"methodIdentifiers":{"avsDirectory()":"6b3aa72e","batchesState(bytes32)":"b099627e","blsApkRegistry()":"5df45946","checkSignatures(bytes32,uint32,(uint32[],(uint256,uint256)[],(uint256,uint256)[],(uint256[2],uint256[2]),(uint256,uint256),uint32[],uint32[],uint32[][]))":"4ae07c37","createAVSRewardsSubmission(((address,uint96)[],address,uint256,uint32,uint32)[])":"fce36c7d","createNewTask(bytes32,string)":"5c008994","delegation()":"df5cf723","deregisterOperatorFromAVS(address)":"a364f4da","getOperatorRestakedStrategies(address)":"33cfb7b7","getRestakeableStrategies()":"e481af9d","initialize(address)":"c4d66de8","owner()":"8da5cb5b","registerOperatorToAVS(address,(bytes,bytes32,uint256))":"9926ee7d","registryCoordinator()":"6d14a987","renounceOwnership()":"715018a6","respondToTask(bytes32,(uint32[],(uint256,uint256)[],(uint256,uint256)[],(uint256[2],uint256[2]),(uint256,uint256),uint32[],uint32[],uint32[][]))":"2dd94eba","rewardsInitiator()":"fc299dee","setRewardsInitiator(address)":"3bc28c8c","setStaleStakesForbidden(bool)":"416c7e5e","stakeRegistry()":"68304835","staleStakesForbidden()":"b98d0908","transferOwnership(address)":"f2fde38b","trySignatureAndApkVerification(bytes32,(uint256,uint256),(uint256[2],uint256[2]),(uint256,uint256))":"171f1d5b","updateAVSMetadataURI(string)":"a98fb355","verifyBatchInclusion(bytes32,bytes32,bytes32,bytes20,bytes32,bytes,uint256)":"fa534dc0"},"id":116}