{"abi":[{"type":"constructor","inputs":[{"name":"__avsDirectory","type":"address","internalType":"contract IAVSDirectory"},{"name":"__registryCoordinator","type":"address","internalType":"contract IRegistryCoordinator"},{"name":"__stakeRegistry","type":"address","internalType":"contract IStakeRegistry"}],"stateMutability":"nonpayable"},{"type":"function","name":"avsDirectory","inputs":[],"outputs":[{"name":"","type":"address","internalType":"address"}],"stateMutability":"view"},{"type":"function","name":"batchesState","inputs":[{"name":"","type":"bytes32","internalType":"bytes32"}],"outputs":[{"name":"taskCreatedBlock","type":"uint32","internalType":"uint32"},{"name":"responded","type":"bool","internalType":"bool"}],"stateMutability":"view"},{"type":"function","name":"blsApkRegistry","inputs":[],"outputs":[{"name":"","type":"address","internalType":"contract IBLSApkRegistry"}],"stateMutability":"view"},{"type":"function","name":"checkSignatures","inputs":[{"name":"msgHash","type":"bytes32","internalType":"bytes32"},{"name":"referenceBlockNumber","type":"uint32","internalType":"uint32"},{"name":"params","type":"tuple","internalType":"struct IBLSSignatureChecker.NonSignerStakesAndSignature","components":[{"name":"nonSignerQuorumBitmapIndices","type":"uint32[]","internalType":"uint32[]"},{"name":"nonSignerPubkeys","type":"tuple[]","internalType":"struct BN254.G1Point[]","components":[{"name":"X","type":"uint256","internalType":"uint256"},{"name":"Y","type":"uint256","internalType":"uint256"}]},{"name":"quorumApks","type":"tuple[]","internalType":"struct BN254.G1Point[]","components":[{"name":"X","type":"uint256","internalType":"uint256"},{"name":"Y","type":"uint256","internalType":"uint256"}]},{"name":"apkG2","type":"tuple","internalType":"struct BN254.G2Point","components":[{"name":"X","type":"uint256[2]","internalType":"uint256[2]"},{"name":"Y","type":"uint256[2]","internalType":"uint256[2]"}]},{"name":"sigma","type":"tuple","internalType":"struct BN254.G1Point","components":[{"name":"X","type":"uint256","internalType":"uint256"},{"name":"Y","type":"uint256","internalType":"uint256"}]},{"name":"quorumApkIndices","type":"uint32[]","internalType":"uint32[]"},{"name":"totalStakeIndices","type":"uint32[]","internalType":"uint32[]"},{"name":"nonSignerStakeIndices","type":"uint32[][]","internalType":"uint32[][]"}]}],"outputs":[{"name":"","type":"tuple","internalType":"struct IBLSSignatureChecker.QuorumStakeTotals","components":[{"name":"signedStakeForQuorum","type":"uint96[]","internalType":"uint96[]"},{"name":"totalStakeForQuorum","type":"uint96[]","internalType":"uint96[]"}]},{"name":"","type":"bytes32","internalType":"bytes32"}],"stateMutability":"view"},{"type":"function","name":"createNewTask","inputs":[{"name":"batchMerkleRoot","type":"bytes32","internalType":"bytes32"},{"name":"batchDataPointer","type":"string","internalType":"string"}],"outputs":[],"stateMutability":"payable"},{"type":"function","name":"delegation","inputs":[],"outputs":[{"name":"","type":"address","internalType":"contract IDelegationManager"}],"stateMutability":"view"},{"type":"function","name":"deregisterOperatorFromAVS","inputs":[{"name":"operator","type":"address","internalType":"address"}],"outputs":[],"stateMutability":"nonpayable"},{"type":"function","name":"getOperatorRestakedStrategies","inputs":[{"name":"operator","type":"address","internalType":"address"}],"outputs":[{"name":"","type":"address[]","internalType":"address[]"}],"stateMutability":"view"},{"type":"function","name":"getRestakeableStrategies","inputs":[],"outputs":[{"name":"","type":"address[]","internalType":"address[]"}],"stateMutability":"view"},{"type":"function","name":"initialize","inputs":[{"name":"_initialOwner","type":"address","internalType":"address"},{"name":"_aggregator","type":"address","internalType":"address"}],"outputs":[],"stateMutability":"nonpayable"},{"type":"function","name":"isAggregator","inputs":[{"name":"_aggregator","type":"address","internalType":"address"}],"outputs":[{"name":"","type":"bool","internalType":"bool"}],"stateMutability":"view"},{"type":"function","name":"owner","inputs":[],"outputs":[{"name":"","type":"address","internalType":"address"}],"stateMutability":"view"},{"type":"function","name":"registerOperatorToAVS","inputs":[{"name":"operator","type":"address","internalType":"address"},{"name":"operatorSignature","type":"tuple","internalType":"struct ISignatureUtils.SignatureWithSaltAndExpiry","components":[{"name":"signature","type":"bytes","internalType":"bytes"},{"name":"salt","type":"bytes32","internalType":"bytes32"},{"name":"expiry","type":"uint256","internalType":"uint256"}]}],"outputs":[],"stateMutability":"nonpayable"},{"type":"function","name":"registryCoordinator","inputs":[],"outputs":[{"name":"","type":"address","internalType":"contract IRegistryCoordinator"}],"stateMutability":"view"},{"type":"function","name":"renounceOwnership","inputs":[],"outputs":[],"stateMutability":"nonpayable"},{"type":"function","name":"respondToTask","inputs":[{"name":"batchMerkleRoot","type":"bytes32","internalType":"bytes32"},{"name":"nonSignerStakesAndSignature","type":"tuple","internalType":"struct IBLSSignatureChecker.NonSignerStakesAndSignature","components":[{"name":"nonSignerQuorumBitmapIndices","type":"uint32[]","internalType":"uint32[]"},{"name":"nonSignerPubkeys","type":"tuple[]","internalType":"struct BN254.G1Point[]","components":[{"name":"X","type":"uint256","internalType":"uint256"},{"name":"Y","type":"uint256","internalType":"uint256"}]},{"name":"quorumApks","type":"tuple[]","internalType":"struct BN254.G1Point[]","components":[{"name":"X","type":"uint256","internalType":"uint256"},{"name":"Y","type":"uint256","internalType":"uint256"}]},{"name":"apkG2","type":"tuple","internalType":"struct BN254.G2Point","components":[{"name":"X","type":"uint256[2]","internalType":"uint256[2]"},{"name":"Y","type":"uint256[2]","internalType":"uint256[2]"}]},{"name":"sigma","type":"tuple","internalType":"struct BN254.G1Point","components":[{"name":"X","type":"uint256","internalType":"uint256"},{"name":"Y","type":"uint256","internalType":"uint256"}]},{"name":"quorumApkIndices","type":"uint32[]","internalType":"uint32[]"},{"name":"totalStakeIndices","type":"uint32[]","internalType":"uint32[]"},{"name":"nonSignerStakeIndices","type":"uint32[][]","internalType":"uint32[][]"}]}],"outputs":[],"stateMutability":"nonpayable"},{"type":"function","name":"setStaleStakesForbidden","inputs":[{"name":"value","type":"bool","internalType":"bool"}],"outputs":[],"stateMutability":"nonpayable"},{"type":"function","name":"stakeRegistry","inputs":[],"outputs":[{"name":"","type":"address","internalType":"contract IStakeRegistry"}],"stateMutability":"view"},{"type":"function","name":"staleStakesForbidden","inputs":[],"outputs":[{"name":"","type":"bool","internalType":"bool"}],"stateMutability":"view"},{"type":"function","name":"transferOwnership","inputs":[{"name":"newOwner","type":"address","internalType":"address"}],"outputs":[],"stateMutability":"nonpayable"},{"type":"function","name":"trySignatureAndApkVerification","inputs":[{"name":"msgHash","type":"bytes32","internalType":"bytes32"},{"name":"apk","type":"tuple","internalType":"struct BN254.G1Point","components":[{"name":"X","type":"uint256","internalType":"uint256"},{"name":"Y","type":"uint256","internalType":"uint256"}]},{"name":"apkG2","type":"tuple","internalType":"struct BN254.G2Point","components":[{"name":"X","type":"uint256[2]","internalType":"uint256[2]"},{"name":"Y","type":"uint256[2]","internalType":"uint256[2]"}]},{"name":"sigma","type":"tuple","internalType":"struct BN254.G1Point","components":[{"name":"X","type":"uint256","internalType":"uint256"},{"name":"Y","type":"uint256","internalType":"uint256"}]}],"outputs":[{"name":"pairingSuccessful","type":"bool","internalType":"bool"},{"name":"siganatureIsValid","type":"bool","internalType":"bool"}],"stateMutability":"view"},{"type":"function","name":"updateAVSMetadataURI","inputs":[{"name":"_metadataURI","type":"string","internalType":"string"}],"outputs":[],"stateMutability":"nonpayable"},{"type":"function","name":"verifyBatchInclusion","inputs":[{"name":"proofCommitment","type":"bytes32","internalType":"bytes32"},{"name":"pubInputCommitment","type":"bytes32","internalType":"bytes32"},{"name":"provingSystemAuxDataCommitment","type":"bytes32","internalType":"bytes32"},{"name":"proofGeneratorAddr","type":"bytes20","internalType":"bytes20"},{"name":"batchMerkleRoot","type":"bytes32","internalType":"bytes32"},{"name":"merkleProof","type":"bytes","internalType":"bytes"},{"name":"verificationDataBatchIndex","type":"uint256","internalType":"uint256"}],"outputs":[{"name":"","type":"bool","internalType":"bool"}],"stateMutability":"nonpayable"},{"type":"event","name":"BatchVerified","inputs":[{"name":"batchMerkleRoot","type":"bytes32","indexed":true,"internalType":"bytes32"}],"anonymous":false},{"type":"event","name":"Initialized","inputs":[{"name":"version","type":"uint8","indexed":false,"internalType":"uint8"}],"anonymous":false},{"type":"event","name":"NewBatch","inputs":[{"name":"batchMerkleRoot","type":"bytes32","indexed":true,"internalType":"bytes32"},{"name":"taskCreatedBlock","type":"uint32","indexed":false,"internalType":"uint32"},{"name":"batchDataPointer","type":"string","indexed":false,"internalType":"string"}],"anonymous":false},{"type":"event","name":"OwnershipTransferred","inputs":[{"name":"previousOwner","type":"address","indexed":true,"internalType":"address"},{"name":"newOwner","type":"address","indexed":true,"internalType":"address"}],"anonymous":false},{"type":"event","name":"StaleStakesForbiddenUpdate","inputs":[{"name":"value","type":"bool","indexed":false,"internalType":"bool"}],"anonymous":false}],"bytecode":{"object":"0x6101606040523480156200001257600080fd5b50604051620045d1380380620045d18339810160408190526200003591620002da565b6001600160a01b0380841660c052808316608052811660a052818381836200005c620001ff565b5050506001600160a01b03811660e081905260408051636830483560e01b815290516368304835916004808201926020929091908290030181865afa158015620000aa573d6000803e3d6000fd5b505050506040513d601f19601f82011682018060405250810190620000d091906200032e565b6001600160a01b0316610100816001600160a01b031681525050806001600160a01b0316635df459466040518163ffffffff1660e01b8152600401602060405180830381865afa15801562000129573d6000803e3d6000fd5b505050506040513d601f19601f820116820180604052508101906200014f91906200032e565b6001600160a01b0316610120816001600160a01b031681525050610100516001600160a01b031663df5cf7236040518163ffffffff1660e01b8152600401602060405180830381865afa158015620001ab573d6000803e3d6000fd5b505050506040513d601f19601f82011682018060405250810190620001d191906200032e565b6001600160a01b031661014052506097805460ff19166001179055620001f6620001ff565b50505062000355565b600054610100900460ff16156200026c5760405162461bcd60e51b815260206004820152602760248201527f496e697469616c697a61626c653a20636f6e747261637420697320696e697469604482015266616c697a696e6760c81b606482015260840160405180910390fd5b60005460ff9081161015620002bf576000805460ff191660ff9081179091556040519081527f7f26b83ff96e1f2b6a682f133852f6798a09c465da95921460cefb38474024989060200160405180910390a15b565b6001600160a01b0381168114620002d757600080fd5b50565b600080600060608486031215620002f057600080fd5b8351620002fd81620002c1565b60208501519093506200031081620002c1565b60408501519092506200032381620002c1565b809150509250925092565b6000602082840312156200034157600080fd5b81516200034e81620002c1565b9392505050565b60805160a05160c05160e0516101005161012051610140516141876200044a6000396000818161049201526116ca0152600081816102a201526118dd0152600081816102ee01528181611aca0152611cba01526000818161035501528181610d79015281816113860152818161152d015261177e01526000818161031f015281816120e9015281816121bd015261223c015260008181610aa201528181610bfd01528181610c9401528181612339015281816124bc015261255b0152600081816108c901528181610958015281816109d8015281816120950152818161216101528181612277015261241701526141876000f3fe6080604052600436106101405760003560e01c80636d14a987116100b6578063b099627e1161006f578063b099627e1461040a578063b98d090814610466578063df5cf72314610480578063e481af9d146104b4578063f2fde38b146104c9578063fa534dc0146104e957600080fd5b80636d14a98714610343578063715018a6146103775780638da5cb5b1461038c5780639926ee7d146103aa578063a364f4da146103ca578063a98fb355146103ea57600080fd5b8063485cc95511610108578063485cc9551461022f5780634ae07c371461024f5780635c0089941461027d5780635df459461461029057806368304835146102dc5780636b3aa72e1461031057600080fd5b8063171f1d5b146101455780631e8f3c95146101815780632dd94eba146101c057806333cfb7b7146101e2578063416c7e5e1461020f575b600080fd5b34801561015157600080fd5b50610165610160366004613574565b610509565b6040805192151583529015156020830152015b60405180910390f35b34801561018d57600080fd5b506101b061019c3660046135da565b60c9546001600160a01b0390811691161490565b6040519015158152602001610178565b3480156101cc57600080fd5b506101e06101db3660046138ad565b610693565b005b3480156101ee57600080fd5b506102026101fd3660046135da565b6108a4565b60405161017891906138f3565b34801561021b57600080fd5b506101e061022a366004613940565b610d77565b34801561023b57600080fd5b506101e061024a366004613962565b610eec565b34801561025b57600080fd5b5061026f61026a36600461399b565b61101b565b604051610178929190613a35565b6101e061028b366004613a7e565b611f84565b34801561029c57600080fd5b506102c47f000000000000000000000000000000000000000000000000000000000000000081565b6040516001600160a01b039091168152602001610178565b3480156102e857600080fd5b506102c47f000000000000000000000000000000000000000000000000000000000000000081565b34801561031c57600080fd5b507f00000000000000000000000000000000000000000000000000000000000000006102c4565b34801561034f57600080fd5b506102c47f000000000000000000000000000000000000000000000000000000000000000081565b34801561038357600080fd5b506101e0612076565b34801561039857600080fd5b506033546001600160a01b03166102c4565b3480156103b657600080fd5b506101e06103c5366004613b77565b61208a565b3480156103d657600080fd5b506101e06103e53660046135da565b612156565b3480156103f657600080fd5b506101e0610405366004613c22565b61221d565b34801561041657600080fd5b5061044a610425366004613c72565b60ca6020526000908152604090205463ffffffff811690640100000000900460ff1682565b6040805163ffffffff9093168352901515602083015201610178565b34801561047257600080fd5b506097546101b09060ff1681565b34801561048c57600080fd5b506102c47f000000000000000000000000000000000000000000000000000000000000000081565b3480156104c057600080fd5b50610202612271565b3480156104d557600080fd5b506101e06104e43660046135da565b61263a565b3480156104f557600080fd5b506101b0610504366004613c8b565b6126b3565b60008060007f30644e72e131a029b85045b68181585d2833e84879b9709143e1f593f00000018787600001518860200151886000015160006002811061055157610551613d1c565b60200201518951600160200201518a6020015160006002811061057657610576613d1c565b60200201518b6020015160016002811061059257610592613d1c565b602090810291909101518c518d8301516040516105ef9a99989796959401988952602089019790975260408801959095526060870193909352608086019190915260a085015260c084015260e08301526101008201526101200190565b6040516020818303038152906040528051906020012060001c6106129190613d32565b905061068561062b610624888461271f565b86906127b6565b61063361284a565b61067b61066c85610666604080518082018252600080825260209182015281518083019092526001825260029082015290565b9061271f565b6106758c61290a565b906127b6565b886201d4c061299a565b909890975095505050505050565b600082815260ca602052604090205463ffffffff166106f05760405162461bcd60e51b8152602060048201526014602482015273426174636820646f65736e27742065786973747360601b60448201526064015b60405180910390fd5b600082815260ca6020526040902054640100000000900460ff16156107575760405162461bcd60e51b815260206004820152601760248201527f426174636820616c726561647920726573706f6e64656400000000000000000060448201526064016106e7565b600082815260ca60205260408120805464ff0000000019811664010000000017909155819061078e90859063ffffffff168561101b565b91509150604360ff1682602001516000815181106107ae576107ae613d1c565b60200260200101516107c09190613d6a565b6001600160601b0316606483600001516000815181106107e2576107e2613d1c565b60200260200101516001600160601b03166107fd9190613d99565b1015610873576040805162461bcd60e51b81526020600482015260248101919091527f5369676e61746f7269657320646f206e6f74206f776e206174206c656173742060448201527f7468726573686f6c642070657263656e74616765206f6620612071756f72756d60648201526084016106e7565b60405184907f433ae0767fe95db70a0e30eda902926e41203b9eb97ec5175076fb9e2d35c13e90600090a250505050565b6040516309aa152760e11b81526001600160a01b0382811660048301526060916000917f000000000000000000000000000000000000000000000000000000000000000016906313542a4e90602401602060405180830381865afa158015610910573d6000803e3d6000fd5b505050506040513d601f19601f820116820180604052508101906109349190613db8565b60405163871ef04960e01b8152600481018290529091506000906001600160a01b037f0000000000000000000000000000000000000000000000000000000000000000169063871ef04990602401602060405180830381865afa15801561099f573d6000803e3d6000fd5b505050506040513d601f19601f820116820180604052508101906109c39190613dd1565b90506001600160c01b0381161580610a5d57507f00000000000000000000000000000000000000000000000000000000000000006001600160a01b0316639aa1653d6040518163ffffffff1660e01b8152600401602060405180830381865afa158015610a34573d6000803e3d6000fd5b505050506040513d601f19601f82011682018060405250810190610a589190613dfa565b60ff16155b15610a7d5760408051600080825260208201909252905b50949350505050565b6000610a91826001600160c01b0316612bbe565b90506000805b8251811015610b67577f00000000000000000000000000000000000000000000000000000000000000006001600160a01b0316633ca5a5f5848381518110610ae157610ae1613d1c565b01602001516040516001600160e01b031960e084901b16815260f89190911c6004820152602401602060405180830381865afa158015610b25573d6000803e3d6000fd5b505050506040513d601f19601f82011682018060405250810190610b499190613db8565b610b539083613e1d565b915080610b5f81613e35565b915050610a97565b506000816001600160401b03811115610b8257610b82613423565b604051908082528060200260200182016040528015610bab578160200160208202803683370190505b5090506000805b8451811015610d6a576000858281518110610bcf57610bcf613d1c565b0160200151604051633ca5a5f560e01b815260f89190911c6004820181905291506000906001600160a01b037f00000000000000000000000000000000000000000000000000000000000000001690633ca5a5f590602401602060405180830381865afa158015610c44573d6000803e3d6000fd5b505050506040513d601f19601f82011682018060405250810190610c689190613db8565b905060005b81811015610d54576040516356e4026d60e11b815260ff84166004820152602481018290527f00000000000000000000000000000000000000000000000000000000000000006001600160a01b03169063adc804da906044016040805180830381865afa158015610ce2573d6000803e3d6000fd5b505050506040513d601f19601f82011682018060405250810190610d069190613e67565b60000151868681518110610d1c57610d1c613d1c565b6001600160a01b039092166020928302919091019091015284610d3e81613e35565b9550508080610d4c90613e35565b915050610c6d565b5050508080610d6290613e35565b915050610bb2565b5090979650505050505050565b7f00000000000000000000000000000000000000000000000000000000000000006001600160a01b0316638da5cb5b6040518163ffffffff1660e01b8152600401602060405180830381865afa158015610dd5573d6000803e3d6000fd5b505050506040513d601f19601f82011682018060405250810190610df99190613ea6565b6001600160a01b0316336001600160a01b031614610ea55760405162461bcd60e51b815260206004820152605c60248201527f424c535369676e6174757265436865636b65722e6f6e6c79436f6f7264696e6160448201527f746f724f776e65723a2063616c6c6572206973206e6f7420746865206f776e6560648201527f72206f6620746865207265676973747279436f6f7264696e61746f7200000000608482015260a4016106e7565b6097805460ff19168215159081179091556040519081527f40e4ed880a29e0f6ddce307457fb75cddf4feef7d3ecb0301bfdf4976a0e2dfc9060200160405180910390a150565b600054610100900460ff1615808015610f0c5750600054600160ff909116105b80610f265750303b158015610f26575060005460ff166001145b610f895760405162461bcd60e51b815260206004820152602e60248201527f496e697469616c697a61626c653a20636f6e747261637420697320616c72656160448201526d191e481a5b9a5d1a585b1a5e995960921b60648201526084016106e7565b6000805460ff191660011790558015610fac576000805461ff0019166101001790555b610fb583612c80565b60c980546001600160a01b0319166001600160a01b0384161790558015611016576000805461ff0019169055604051600181527f7f26b83ff96e1f2b6a682f133852f6798a09c465da95921460cefb38474024989060200160405180910390a15b505050565b604080518082019091526060808252602082015260408051808201909152600181526000602090910181905282604001515160405180604001604052806001815260200160008152505114801561108d57508260a0015151604051806040016040528060018152602001600081525051145b80156110b457508260c0015151604051806040016040528060018152602001600081525051145b80156110db57508260e0015151604051806040016040528060018152602001600081525051145b6111455760405162461bcd60e51b8152602060048201526041602482015260008051602061413283398151915260448201527f7265733a20696e7075742071756f72756d206c656e677468206d69736d6174636064820152600d60fb1b608482015260a4016106e7565b825151602084015151146111bd5760405162461bcd60e51b815260206004820152604460248201819052600080516020614132833981519152908201527f7265733a20696e707574206e6f6e7369676e6572206c656e677468206d69736d6064820152630c2e8c6d60e31b608482015260a4016106e7565b4363ffffffff168463ffffffff161061122c5760405162461bcd60e51b815260206004820152603c602482015260008051602061413283398151915260448201527f7265733a20696e76616c6964207265666572656e636520626c6f636b0000000060648201526084016106e7565b60408051808201825260008082526020808301829052835180850185526060808252818301528451808601865260018082529083019390935284518381528086019095529293919082810190803683370190505060208281019190915260408051808201825260018082526000919093015280518281528082019091529081602001602082028036833701905050815260408051808201909152606080825260208201528560200151516001600160401b038111156112ed576112ed613423565b604051908082528060200260200182016040528015611316578160200160208202803683370190505b5081526020860151516001600160401b0381111561133657611336613423565b60405190808252806020026020018201604052801561135f578160200160208202803683370190505b508160200181905250600061140b60405180604001604052806001815260200160008152507f00000000000000000000000000000000000000000000000000000000000000006001600160a01b0316639aa1653d6040518163ffffffff1660e01b8152600401602060405180830381865afa1580156113e2573d6000803e3d6000fd5b505050506040513d601f19601f820116820180604052508101906114069190613dfa565b612cd2565b905060005b8760200151518110156116a6576114558860200151828151811061143657611436613d1c565b6020026020010151805160009081526020918201519091526040902090565b8360200151828151811061146b5761146b613d1c565b6020908102919091010152801561152b57602083015161148c600183613ec3565b8151811061149c5761149c613d1c565b602002602001015160001c836020015182815181106114bd576114bd613d1c565b602002602001015160001c1161152b576040805162461bcd60e51b815260206004820152602481019190915260008051602061413283398151915260448201527f7265733a206e6f6e5369676e65725075626b657973206e6f7420736f7274656460648201526084016106e7565b7f00000000000000000000000000000000000000000000000000000000000000006001600160a01b03166304ec63518460200151838151811061157057611570613d1c565b60200260200101518b8b60000151858151811061158f5761158f613d1c565b60200260200101516040518463ffffffff1660e01b81526004016115cc9392919092835263ffffffff918216602084015216604082015260600190565b602060405180830381865afa1580156115e9573d6000803e3d6000fd5b505050506040513d601f19601f8201168201806040525081019061160d9190613dd1565b6001600160c01b03168360000151828151811061162c5761162c613d1c565b602002602001018181525050611692610624611666848660000151858151811061165857611658613d1c565b602002602001015116612d65565b8a60200151848151811061167c5761167c613d1c565b6020026020010151612d9090919063ffffffff16565b94508061169e81613e35565b915050611410565b50506116b183612e74565b60975490935060ff166000816116c857600061174a565b7f00000000000000000000000000000000000000000000000000000000000000006001600160a01b031663c448feb86040518163ffffffff1660e01b8152600401602060405180830381865afa158015611726573d6000803e3d6000fd5b505050506040513d601f19601f8201168201806040525081019061174a9190613db8565b905060005b604051806040016040528060018152602001600081525051811015611e555782156118db578963ffffffff16827f00000000000000000000000000000000000000000000000000000000000000006001600160a01b031663249a0c42604051806040016040528060018152602001600081525085815181106117d3576117d3613d1c565b01602001516040516001600160e01b031960e084901b16815260f89190911c6004820152602401602060405180830381865afa158015611817573d6000803e3d6000fd5b505050506040513d601f19601f8201168201806040525081019061183b9190613db8565b6118459190613e1d565b116118db5760405162461bcd60e51b8152602060048201526066602482015260008051602061413283398151915260448201527f7265733a205374616b6552656769737472792075706461746573206d7573742060648201527f62652077697468696e207769746864726177616c44656c6179426c6f636b732060848201526577696e646f7760d01b60a482015260c4016106e7565b7f00000000000000000000000000000000000000000000000000000000000000006001600160a01b03166368bccaac6040518060400160405280600181526020016000815250838151811061193257611932613d1c565b602001015160f81c60f81b60f81c8c8c60a00151858151811061195757611957613d1c565b60209081029190910101516040516001600160e01b031960e086901b16815260ff909316600484015263ffffffff9182166024840152166044820152606401602060405180830381865afa1580156119b3573d6000803e3d6000fd5b505050506040513d601f19601f820116820180604052508101906119d79190613eda565b6001600160401b0319166119fa8a60400151838151811061143657611436613d1c565b67ffffffffffffffff191614611a965760405162461bcd60e51b8152602060048201526061602482015260008051602061413283398151915260448201527f7265733a2071756f72756d41706b206861736820696e2073746f72616765206460648201527f6f6573206e6f74206d617463682070726f76696465642071756f72756d2061706084820152606b60f81b60a482015260c4016106e7565b611ac689604001518281518110611aaf57611aaf613d1c565b6020026020010151876127b690919063ffffffff16565b95507f00000000000000000000000000000000000000000000000000000000000000006001600160a01b031663c8294c5660405180604001604052806001815260200160008152508381518110611b1f57611b1f613d1c565b602001015160f81c60f81b60f81c8c8c60c001518581518110611b4457611b44613d1c565b60209081029190910101516040516001600160e01b031960e086901b16815260ff909316600484015263ffffffff9182166024840152166044820152606401602060405180830381865afa158015611ba0573d6000803e3d6000fd5b505050506040513d601f19601f82011682018060405250810190611bc49190613f05565b85602001518281518110611bda57611bda613d1c565b6001600160601b03909216602092830291909101820152850151805182908110611c0657611c06613d1c565b602002602001015185600001518281518110611c2457611c24613d1c565b60200260200101906001600160601b031690816001600160601b0316815250506000805b8a6020015151811015611e4057611cb386600001518281518110611c6e57611c6e613d1c565b602002602001015160405180604001604052806001815260200160008152508581518110611c9e57611c9e613d1c565b016020015160f81c60ff161c60019081161490565b15611e2e577f00000000000000000000000000000000000000000000000000000000000000006001600160a01b031663f2be94ae60405180604001604052806001815260200160008152508581518110611d0f57611d0f613d1c565b602001015160f81c60f81b60f81c8e89602001518581518110611d3457611d34613d1c565b60200260200101518f60e001518881518110611d5257611d52613d1c565b60200260200101518781518110611d6b57611d6b613d1c565b60209081029190910101516040516001600160e01b031960e087901b16815260ff909416600485015263ffffffff92831660248501526044840191909152166064820152608401602060405180830381865afa158015611dcf573d6000803e3d6000fd5b505050506040513d601f19601f82011682018060405250810190611df39190613f05565b8751805185908110611e0757611e07613d1c565b60200260200101818151611e1b9190613f20565b6001600160601b03169052506001909101905b80611e3881613e35565b915050611c48565b50508080611e4d90613e35565b91505061174f565b505050600080611e6f8a868a606001518b60800151610509565b9150915081611ee05760405162461bcd60e51b8152602060048201526043602482015260008051602061413283398151915260448201527f7265733a2070616972696e6720707265636f6d70696c652063616c6c206661696064820152621b195960ea1b608482015260a4016106e7565b80611f415760405162461bcd60e51b8152602060048201526039602482015260008051602061413283398151915260448201527f7265733a207369676e617475726520697320696e76616c69640000000000000060648201526084016106e7565b50506000878260200151604051602001611f5c929190613f48565b60408051808303601f1901815291905280516020909101209299929850919650505050505050565b600083815260ca602052604090205463ffffffff1615611fe65760405162461bcd60e51b815260206004820152601a60248201527f42617463682077617320616c726561647920766572696669656400000000000060448201526064016106e7565b6040805180820182526000602080830182815263ffffffff43818116865289855260ca9093529285902084518154925115156401000000000264ffffffffff19909316941693909317179091559151909185917f1871c33134a542e0ab9facf7013d27b9ed95e64d299e9919ee091c9cfcb19fa5916120689187908790613f90565b60405180910390a250505050565b61207e612f0f565b6120886000612c80565b565b336001600160a01b037f000000000000000000000000000000000000000000000000000000000000000016146120d25760405162461bcd60e51b81526004016106e790613fcc565b604051639926ee7d60e01b81526001600160a01b037f00000000000000000000000000000000000000000000000000000000000000001690639926ee7d906121209085908590600401614091565b600060405180830381600087803b15801561213a57600080fd5b505af115801561214e573d6000803e3d6000fd5b505050505050565b336001600160a01b037f0000000000000000000000000000000000000000000000000000000000000000161461219e5760405162461bcd60e51b81526004016106e790613fcc565b6040516351b27a6d60e11b81526001600160a01b0382811660048301527f0000000000000000000000000000000000000000000000000000000000000000169063a364f4da906024015b600060405180830381600087803b15801561220257600080fd5b505af1158015612216573d6000803e3d6000fd5b5050505050565b612225612f0f565b60405163a98fb35560e01b81526001600160a01b037f0000000000000000000000000000000000000000000000000000000000000000169063a98fb355906121e89084906004016140dc565b606060007f00000000000000000000000000000000000000000000000000000000000000006001600160a01b0316639aa1653d6040518163ffffffff1660e01b8152600401602060405180830381865afa1580156122d3573d6000803e3d6000fd5b505050506040513d601f19601f820116820180604052508101906122f79190613dfa565b60ff1690508061231557505060408051600081526020810190915290565b6000805b828110156123ca57604051633ca5a5f560e01b815260ff821660048201527f00000000000000000000000000000000000000000000000000000000000000006001600160a01b031690633ca5a5f590602401602060405180830381865afa158015612388573d6000803e3d6000fd5b505050506040513d601f19601f820116820180604052508101906123ac9190613db8565b6123b69083613e1d565b9150806123c281613e35565b915050612319565b506000816001600160401b038111156123e5576123e5613423565b60405190808252806020026020018201604052801561240e578160200160208202803683370190505b5090506000805b7f00000000000000000000000000000000000000000000000000000000000000006001600160a01b0316639aa1653d6040518163ffffffff1660e01b8152600401602060405180830381865afa158015612473573d6000803e3d6000fd5b505050506040513d601f19601f820116820180604052508101906124979190613dfa565b60ff1681101561263057604051633ca5a5f560e01b815260ff821660048201526000907f00000000000000000000000000000000000000000000000000000000000000006001600160a01b031690633ca5a5f590602401602060405180830381865afa15801561250b573d6000803e3d6000fd5b505050506040513d601f19601f8201168201806040525081019061252f9190613db8565b905060005b8181101561261b576040516356e4026d60e11b815260ff84166004820152602481018290527f00000000000000000000000000000000000000000000000000000000000000006001600160a01b03169063adc804da906044016040805180830381865afa1580156125a9573d6000803e3d6000fd5b505050506040513d601f19601f820116820180604052508101906125cd9190613e67565b600001518585815181106125e3576125e3613d1c565b6001600160a01b03909216602092830291909101909101528361260581613e35565b945050808061261390613e35565b915050612534565b5050808061262890613e35565b915050612415565b5090949350505050565b612642612f0f565b6001600160a01b0381166126a75760405162461bcd60e51b815260206004820152602660248201527f4f776e61626c653a206e6577206f776e657220697320746865207a65726f206160448201526564647265737360d01b60648201526084016106e7565b6126b081612c80565b50565b6040805160208101899052908101879052606081018690526bffffffffffffffffffffffff1985166080820152600090819060940160408051601f1981840301815291905280516020820120909150600061271086888488612f69565b9b9a5050505050505050505050565b604080518082019091526000808252602082015261273b613349565b835181526020808501519082015260408082018490526000908360608460076107d05a03fa905080801561276e57612770565bfe5b50806127ae5760405162461bcd60e51b815260206004820152600d60248201526c1958cb5b5d5b0b59985a5b1959609a1b60448201526064016106e7565b505092915050565b60408051808201909152600080825260208201526127d2613367565b835181526020808501518183015283516040808401919091529084015160608301526000908360808460066107d05a03fa905080801561276e5750806127ae5760405162461bcd60e51b815260206004820152600d60248201526c1958cb5859190b59985a5b1959609a1b60448201526064016106e7565b612852613385565b50604080516080810182527f198e9393920d483a7260bfb731fb5d25f1aa493335a9e71297e485b7aef312c28183019081527f1800deef121f1e76426a00665e5c4479674322d4f75edadd46debd5cd992f6ed6060830152815281518083019092527f275dc4a288d1afb3cbb1ac09187524c7db36395df7be3b99e673b13a075a65ec82527f1d9befcd05a5323e6da4d435f3b617cdb3af83285c2df711ef39c01571827f9d60208381019190915281019190915290565b60408051808201909152600080825260208201526000808061293a60008051602061411283398151915286613d32565b90505b61294681612f81565b9093509150600080516020614112833981519152828309831415612980576040805180820190915290815260208101919091529392505050565b60008051602061411283398151915260018208905061293d565b6040805180820182528681526020808201869052825180840190935286835282018490526000918291906129cc6133aa565b60005b6002811015612b915760006129e5826006613d99565b90508482600281106129f9576129f9613d1c565b60200201515183612a0b836000613e1d565b600c8110612a1b57612a1b613d1c565b6020020152848260028110612a3257612a32613d1c565b60200201516020015183826001612a499190613e1d565b600c8110612a5957612a59613d1c565b6020020152838260028110612a7057612a70613d1c565b6020020151515183612a83836002613e1d565b600c8110612a9357612a93613d1c565b6020020152838260028110612aaa57612aaa613d1c565b6020020151516001602002015183612ac3836003613e1d565b600c8110612ad357612ad3613d1c565b6020020152838260028110612aea57612aea613d1c565b602002015160200151600060028110612b0557612b05613d1c565b602002015183612b16836004613e1d565b600c8110612b2657612b26613d1c565b6020020152838260028110612b3d57612b3d613d1c565b602002015160200151600160028110612b5857612b58613d1c565b602002015183612b69836005613e1d565b600c8110612b7957612b79613d1c565b60200201525080612b8981613e35565b9150506129cf565b50612b9a6133c9565b60006020826101808560088cfa9151919c9115159b50909950505050505050505050565b6060600080612bcc84612d65565b61ffff166001600160401b03811115612be757612be7613423565b6040519080825280601f01601f191660200182016040528015612c11576020820181803683370190505b5090506000805b825182108015612c29575061010081105b15612630576001811b935085841615612c70578060f81b838381518110612c5257612c52613d1c565b60200101906001600160f81b031916908160001a9053508160010191505b612c7981613e35565b9050612c18565b603380546001600160a01b038381166001600160a01b0319831681179093556040519116919082907f8be0079c531659141344cd1fd0a4f28419497f9722a3daafe3b4186f6b6457e090600090a35050565b600080612cde84613003565b9050808360ff166001901b11612d5c5760405162461bcd60e51b815260206004820152603f60248201527f4269746d61705574696c732e6f72646572656442797465734172726179546f4260448201527f69746d61703a206269746d61702065786365656473206d61782076616c75650060648201526084016106e7565b90505b92915050565b6000805b8215612d5f57612d7a600184613ec3565b9092169180612d88816140ef565b915050612d69565b60408051808201909152600080825260208201526102008261ffff1610612dec5760405162461bcd60e51b815260206004820152601060248201526f7363616c61722d746f6f2d6c6172676560801b60448201526064016106e7565b8161ffff1660011415612e00575081612d5f565b6040805180820190915260008082526020820181905284906001905b8161ffff168661ffff1610612e6957600161ffff871660ff83161c81161415612e4c57612e4984846127b6565b93505b612e5683846127b6565b92506201fffe600192831b169101612e1c565b509195945050505050565b60408051808201909152600080825260208201528151158015612e9957506020820151155b15612eb7575050604080518082019091526000808252602082015290565b6040518060400160405280836000015181526020016000805160206141128339815191528460200151612eea9190613d32565b612f0290600080516020614112833981519152613ec3565b905292915050565b919050565b6033546001600160a01b031633146120885760405162461bcd60e51b815260206004820181905260248201527f4f776e61626c653a2063616c6c6572206973206e6f7420746865206f776e657260448201526064016106e7565b600083612f77868585613190565b1495945050505050565b60008080600080516020614112833981519152600360008051602061411283398151915286600080516020614112833981519152888909090890506000612ff7827f0c19139cb84c680a6e14116da060561765e05aa45a1c72a34f082305b61f3f526000805160206141128339815191526132a1565b91959194509092505050565b60006101008251111561308c5760405162461bcd60e51b8152602060048201526044602482018190527f4269746d61705574696c732e6f72646572656442797465734172726179546f42908201527f69746d61703a206f7264657265644279746573417272617920697320746f6f206064820152636c6f6e6760e01b608482015260a4016106e7565b815161309a57506000919050565b600080836000815181106130b0576130b0613d1c565b0160200151600160f89190911c81901b92505b8451811015613187578481815181106130de576130de613d1c565b0160200151600160f89190911c1b91508282116131735760405162461bcd60e51b815260206004820152604760248201527f4269746d61705574696c732e6f72646572656442797465734172726179546f4260448201527f69746d61703a206f72646572656442797465734172726179206973206e6f74206064820152661bdc99195c995960ca1b608482015260a4016106e7565b9181179161318081613e35565b90506130c3565b50909392505050565b600083516000141580156131af5750602084516131ad9190613d32565b155b61323e5760405162461bcd60e51b815260206004820152605460248201527f4d65726b6c652e70726f63657373496e636c7573696f6e50726f6f664b65636360448201527f616b3a2070726f6f66206c656e6774682073686f756c642062652061206e6f6e60648201527316bd32b9379036bab63a34b836329037b310199960611b608482015260a4016106e7565b8260205b85518111610a7457613255600285613d32565b6132765781600052808601516020526040600020915060028404935061328f565b8086015160005281602052604060002091506002840493505b61329a602082613e1d565b9050613242565b6000806132ac6133c9565b6132b46133e7565b602080825281810181905260408201819052606082018890526080820187905260a082018690528260c08360056107d05a03fa925082801561276e57508261333e5760405162461bcd60e51b815260206004820152601a60248201527f424e3235342e6578704d6f643a2063616c6c206661696c75726500000000000060448201526064016106e7565b505195945050505050565b60405180606001604052806003906020820280368337509192915050565b60405180608001604052806004906020820280368337509192915050565b6040518060400160405280613398613405565b81526020016133a5613405565b905290565b604051806101800160405280600c906020820280368337509192915050565b60405180602001604052806001906020820280368337509192915050565b6040518060c001604052806006906020820280368337509192915050565b60405180604001604052806002906020820280368337509192915050565b634e487b7160e01b600052604160045260246000fd5b604080519081016001600160401b038111828210171561345b5761345b613423565b60405290565b60405161010081016001600160401b038111828210171561345b5761345b613423565b604051601f8201601f191681016001600160401b03811182821017156134ac576134ac613423565b604052919050565b6000604082840312156134c657600080fd5b6134ce613439565b9050813581526020820135602082015292915050565b600082601f8301126134f557600080fd5b6134fd613439565b80604084018581111561350f57600080fd5b845b81811015613529578035845260209384019301613511565b509095945050505050565b60006080828403121561354657600080fd5b61354e613439565b905061355a83836134e4565b815261356983604084016134e4565b602082015292915050565b600080600080610120858703121561358b57600080fd5b8435935061359c86602087016134b4565b92506135ab8660608701613534565b91506135ba8660e087016134b4565b905092959194509250565b6001600160a01b03811681146126b057600080fd5b6000602082840312156135ec57600080fd5b8135612d5c816135c5565b60006001600160401b0382111561361057613610613423565b5060051b60200190565b803563ffffffff81168114612f0a57600080fd5b600082601f83011261363f57600080fd5b8135602061365461364f836135f7565b613484565b82815260059290921b8401810191818101908684111561367357600080fd5b8286015b84811015613695576136888161361a565b8352918301918301613677565b509695505050505050565b600082601f8301126136b157600080fd5b813560206136c161364f836135f7565b82815260069290921b840181019181810190868411156136e057600080fd5b8286015b84811015613695576136f688826134b4565b8352918301916040016136e4565b600082601f83011261371557600080fd5b8135602061372561364f836135f7565b82815260059290921b8401810191818101908684111561374457600080fd5b8286015b848110156136955780356001600160401b038111156137675760008081fd5b6137758986838b010161362e565b845250918301918301613748565b6000610180828403121561379657600080fd5b61379e613461565b905081356001600160401b03808211156137b757600080fd5b6137c38583860161362e565b835260208401359150808211156137d957600080fd5b6137e5858386016136a0565b602084015260408401359150808211156137fe57600080fd5b61380a858386016136a0565b604084015261381c8560608601613534565b606084015261382e8560e086016134b4565b608084015261012084013591508082111561384857600080fd5b6138548583860161362e565b60a084015261014084013591508082111561386e57600080fd5b61387a8583860161362e565b60c084015261016084013591508082111561389457600080fd5b506138a184828501613704565b60e08301525092915050565b600080604083850312156138c057600080fd5b8235915060208301356001600160401b038111156138dd57600080fd5b6138e985828601613783565b9150509250929050565b6020808252825182820181905260009190848201906040850190845b818110156139345783516001600160a01b03168352928401929184019160010161390f565b50909695505050505050565b60006020828403121561395257600080fd5b81358015158114612d5c57600080fd5b6000806040838503121561397557600080fd5b8235613980816135c5565b91506020830135613990816135c5565b809150509250929050565b6000806000606084860312156139b057600080fd5b833592506139c06020850161361a565b915060408401356001600160401b038111156139db57600080fd5b6139e786828701613783565b9150509250925092565b600081518084526020808501945080840160005b83811015613a2a5781516001600160601b031687529582019590820190600101613a05565b509495945050505050565b6040815260008351604080840152613a5060808401826139f1565b90506020850151603f19848303016060850152613a6d82826139f1565b925050508260208301529392505050565b600080600060408486031215613a9357600080fd5b8335925060208401356001600160401b0380821115613ab157600080fd5b818601915086601f830112613ac557600080fd5b813581811115613ad457600080fd5b876020828501011115613ae657600080fd5b6020830194508093505050509250925092565b60006001600160401b03831115613b1257613b12613423565b613b25601f8401601f1916602001613484565b9050828152838383011115613b3957600080fd5b828260208301376000602084830101529392505050565b600082601f830112613b6157600080fd5b613b7083833560208501613af9565b9392505050565b60008060408385031215613b8a57600080fd5b8235613b95816135c5565b915060208301356001600160401b0380821115613bb157600080fd5b9084019060608287031215613bc557600080fd5b604051606081018181108382111715613be057613be0613423565b604052823582811115613bf257600080fd5b613bfe88828601613b50565b82525060208301356020820152604083013560408201528093505050509250929050565b600060208284031215613c3457600080fd5b81356001600160401b03811115613c4a57600080fd5b8201601f81018413613c5b57600080fd5b613c6a84823560208401613af9565b949350505050565b600060208284031215613c8457600080fd5b5035919050565b600080600080600080600060e0888a031215613ca657600080fd5b87359650602088013595506040880135945060608801356bffffffffffffffffffffffff1981168114613cd857600080fd5b93506080880135925060a08801356001600160401b03811115613cfa57600080fd5b613d068a828b01613b50565b92505060c0880135905092959891949750929550565b634e487b7160e01b600052603260045260246000fd5b600082613d4f57634e487b7160e01b600052601260045260246000fd5b500690565b634e487b7160e01b600052601160045260246000fd5b60006001600160601b0380831681851681830481118215151615613d9057613d90613d54565b02949350505050565b6000816000190483118215151615613db357613db3613d54565b500290565b600060208284031215613dca57600080fd5b5051919050565b600060208284031215613de357600080fd5b81516001600160c01b0381168114612d5c57600080fd5b600060208284031215613e0c57600080fd5b815160ff81168114612d5c57600080fd5b60008219821115613e3057613e30613d54565b500190565b6000600019821415613e4957613e49613d54565b5060010190565b80516001600160601b0381168114612f0a57600080fd5b600060408284031215613e7957600080fd5b613e81613439565b8251613e8c816135c5565b8152613e9a60208401613e50565b60208201529392505050565b600060208284031215613eb857600080fd5b8151612d5c816135c5565b600082821015613ed557613ed5613d54565b500390565b600060208284031215613eec57600080fd5b815167ffffffffffffffff1981168114612d5c57600080fd5b600060208284031215613f1757600080fd5b613b7082613e50565b60006001600160601b0383811690831681811015613f4057613f40613d54565b039392505050565b63ffffffff60e01b8360e01b1681526000600482018351602080860160005b83811015613f8357815185529382019390820190600101613f67565b5092979650505050505050565b63ffffffff8416815260406020820152816040820152818360608301376000818301606090810191909152601f909201601f1916010192915050565b60208082526052908201527f536572766963654d616e61676572426173652e6f6e6c7952656769737472794360408201527f6f6f7264696e61746f723a2063616c6c6572206973206e6f742074686520726560608201527133b4b9ba393c9031b7b7b93234b730ba37b960711b608082015260a00190565b6000815180845260005b8181101561406a5760208185018101518683018201520161404e565b8181111561407c576000602083870101525b50601f01601f19169290920160200192915050565b60018060a01b03831681526040602082015260008251606060408401526140bb60a0840182614044565b90506020840151606084015260408401516080840152809150509392505050565b602081526000613b706020830184614044565b600061ffff8083168181141561410757614107613d54565b600101939250505056fe30644e72e131a029b85045b68181585d97816a916871ca8d3c208c16d87cfd47424c535369676e6174757265436865636b65722e636865636b5369676e617475a2646970667358221220570bd694f54d9eca039c7ecdb700a67ab8114500301d8a726e0e5e1cec2c697864736f6c634300080c0033","linkReferences":{}},"methodIdentifiers":{"avsDirectory()":"6b3aa72e","batchesState(bytes32)":"b099627e","blsApkRegistry()":"5df45946","checkSignatures(bytes32,uint32,(uint32[],(uint256,uint256)[],(uint256,uint256)[],(uint256[2],uint256[2]),(uint256,uint256),uint32[],uint32[],uint32[][]))":"4ae07c37","createNewTask(bytes32,string)":"5c008994","delegation()":"df5cf723","deregisterOperatorFromAVS(address)":"a364f4da","getOperatorRestakedStrategies(address)":"33cfb7b7","getRestakeableStrategies()":"e481af9d","initialize(address,address)":"485cc955","isAggregator(address)":"1e8f3c95","owner()":"8da5cb5b","registerOperatorToAVS(address,(bytes,bytes32,uint256))":"9926ee7d","registryCoordinator()":"6d14a987","renounceOwnership()":"715018a6","respondToTask(bytes32,(uint32[],(uint256,uint256)[],(uint256,uint256)[],(uint256[2],uint256[2]),(uint256,uint256),uint32[],uint32[],uint32[][]))":"2dd94eba","setStaleStakesForbidden(bool)":"416c7e5e","stakeRegistry()":"68304835","staleStakesForbidden()":"b98d0908","transferOwnership(address)":"f2fde38b","trySignatureAndApkVerification(bytes32,(uint256,uint256),(uint256[2],uint256[2]),(uint256,uint256))":"171f1d5b","updateAVSMetadataURI(string)":"a98fb355","verifyBatchInclusion(bytes32,bytes32,bytes32,bytes20,bytes32,bytes,uint256)":"fa534dc0"},"id":111}