{"abi":[{"type":"constructor","inputs":[{"name":"__avsDirectory","type":"address","internalType":"contract IAVSDirectory"},{"name":"__rewardsCoordinator","type":"address","internalType":"contract IRewardsCoordinator"},{"name":"__registryCoordinator","type":"address","internalType":"contract IRegistryCoordinator"},{"name":"__stakeRegistry","type":"address","internalType":"contract IStakeRegistry"}],"stateMutability":"nonpayable"},{"type":"receive","stateMutability":"payable"},{"type":"function","name":"avsDirectory","inputs":[],"outputs":[{"name":"","type":"address","internalType":"address"}],"stateMutability":"view"},{"type":"function","name":"balanceOf","inputs":[{"name":"account","type":"address","internalType":"address"}],"outputs":[{"name":"","type":"uint256","internalType":"uint256"}],"stateMutability":"view"},{"type":"function","name":"batchesState","inputs":[{"name":"","type":"bytes32","internalType":"bytes32"}],"outputs":[{"name":"taskCreatedBlock","type":"uint32","internalType":"uint32"},{"name":"responded","type":"bool","internalType":"bool"},{"name":"batcherAddress","type":"address","internalType":"address"}],"stateMutability":"view"},{"type":"function","name":"blsApkRegistry","inputs":[],"outputs":[{"name":"","type":"address","internalType":"contract IBLSApkRegistry"}],"stateMutability":"view"},{"type":"function","name":"checkSignatures","inputs":[{"name":"msgHash","type":"bytes32","internalType":"bytes32"},{"name":"referenceBlockNumber","type":"uint32","internalType":"uint32"},{"name":"params","type":"tuple","internalType":"struct IBLSSignatureChecker.NonSignerStakesAndSignature","components":[{"name":"nonSignerQuorumBitmapIndices","type":"uint32[]","internalType":"uint32[]"},{"name":"nonSignerPubkeys","type":"tuple[]","internalType":"struct BN254.G1Point[]","components":[{"name":"X","type":"uint256","internalType":"uint256"},{"name":"Y","type":"uint256","internalType":"uint256"}]},{"name":"quorumApks","type":"tuple[]","internalType":"struct BN254.G1Point[]","components":[{"name":"X","type":"uint256","internalType":"uint256"},{"name":"Y","type":"uint256","internalType":"uint256"}]},{"name":"apkG2","type":"tuple","internalType":"struct BN254.G2Point","components":[{"name":"X","type":"uint256[2]","internalType":"uint256[2]"},{"name":"Y","type":"uint256[2]","internalType":"uint256[2]"}]},{"name":"sigma","type":"tuple","internalType":"struct BN254.G1Point","components":[{"name":"X","type":"uint256","internalType":"uint256"},{"name":"Y","type":"uint256","internalType":"uint256"}]},{"name":"quorumApkIndices","type":"uint32[]","internalType":"uint32[]"},{"name":"totalStakeIndices","type":"uint32[]","internalType":"uint32[]"},{"name":"nonSignerStakeIndices","type":"uint32[][]","internalType":"uint32[][]"}]}],"outputs":[{"name":"","type":"tuple","internalType":"struct IBLSSignatureChecker.QuorumStakeTotals","components":[{"name":"signedStakeForQuorum","type":"uint96[]","internalType":"uint96[]"},{"name":"totalStakeForQuorum","type":"uint96[]","internalType":"uint96[]"}]},{"name":"","type":"bytes32","internalType":"bytes32"}],"stateMutability":"view"},{"type":"function","name":"createAVSRewardsSubmission","inputs":[{"name":"rewardsSubmissions","type":"tuple[]","internalType":"struct IRewardsCoordinator.RewardsSubmission[]","components":[{"name":"strategiesAndMultipliers","type":"tuple[]","internalType":"struct IRewardsCoordinator.StrategyAndMultiplier[]","components":[{"name":"strategy","type":"address","internalType":"contract IStrategy"},{"name":"multiplier","type":"uint96","internalType":"uint96"}]},{"name":"token","type":"address","internalType":"contract IERC20"},{"name":"amount","type":"uint256","internalType":"uint256"},{"name":"startTimestamp","type":"uint32","internalType":"uint32"},{"name":"duration","type":"uint32","internalType":"uint32"}]}],"outputs":[],"stateMutability":"nonpayable"},{"type":"function","name":"createNewTask","inputs":[{"name":"batchMerkleRoot","type":"bytes32","internalType":"bytes32"},{"name":"batchDataPointer","type":"string","internalType":"string"}],"outputs":[],"stateMutability":"payable"},{"type":"function","name":"delegation","inputs":[],"outputs":[{"name":"","type":"address","internalType":"contract IDelegationManager"}],"stateMutability":"view"},{"type":"function","name":"deregisterOperatorFromAVS","inputs":[{"name":"operator","type":"address","internalType":"address"}],"outputs":[],"stateMutability":"nonpayable"},{"type":"function","name":"getOperatorRestakedStrategies","inputs":[{"name":"operator","type":"address","internalType":"address"}],"outputs":[{"name":"","type":"address[]","internalType":"address[]"}],"stateMutability":"view"},{"type":"function","name":"getRestakeableStrategies","inputs":[],"outputs":[{"name":"","type":"address[]","internalType":"address[]"}],"stateMutability":"view"},{"type":"function","name":"initialize","inputs":[{"name":"_initialOwner","type":"address","internalType":"address"}],"outputs":[],"stateMutability":"nonpayable"},{"type":"function","name":"owner","inputs":[],"outputs":[{"name":"","type":"address","internalType":"address"}],"stateMutability":"view"},{"type":"function","name":"registerOperatorToAVS","inputs":[{"name":"operator","type":"address","internalType":"address"},{"name":"operatorSignature","type":"tuple","internalType":"struct ISignatureUtils.SignatureWithSaltAndExpiry","components":[{"name":"signature","type":"bytes","internalType":"bytes"},{"name":"salt","type":"bytes32","internalType":"bytes32"},{"name":"expiry","type":"uint256","internalType":"uint256"}]}],"outputs":[],"stateMutability":"nonpayable"},{"type":"function","name":"registryCoordinator","inputs":[],"outputs":[{"name":"","type":"address","internalType":"contract IRegistryCoordinator"}],"stateMutability":"view"},{"type":"function","name":"renounceOwnership","inputs":[],"outputs":[],"stateMutability":"nonpayable"},{"type":"function","name":"respondToTask","inputs":[{"name":"batchMerkleRoot","type":"bytes32","internalType":"bytes32"},{"name":"nonSignerStakesAndSignature","type":"tuple","internalType":"struct IBLSSignatureChecker.NonSignerStakesAndSignature","components":[{"name":"nonSignerQuorumBitmapIndices","type":"uint32[]","internalType":"uint32[]"},{"name":"nonSignerPubkeys","type":"tuple[]","internalType":"struct BN254.G1Point[]","components":[{"name":"X","type":"uint256","internalType":"uint256"},{"name":"Y","type":"uint256","internalType":"uint256"}]},{"name":"quorumApks","type":"tuple[]","internalType":"struct BN254.G1Point[]","components":[{"name":"X","type":"uint256","internalType":"uint256"},{"name":"Y","type":"uint256","internalType":"uint256"}]},{"name":"apkG2","type":"tuple","internalType":"struct BN254.G2Point","components":[{"name":"X","type":"uint256[2]","internalType":"uint256[2]"},{"name":"Y","type":"uint256[2]","internalType":"uint256[2]"}]},{"name":"sigma","type":"tuple","internalType":"struct BN254.G1Point","components":[{"name":"X","type":"uint256","internalType":"uint256"},{"name":"Y","type":"uint256","internalType":"uint256"}]},{"name":"quorumApkIndices","type":"uint32[]","internalType":"uint32[]"},{"name":"totalStakeIndices","type":"uint32[]","internalType":"uint32[]"},{"name":"nonSignerStakeIndices","type":"uint32[][]","internalType":"uint32[][]"}]}],"outputs":[],"stateMutability":"nonpayable"},{"type":"function","name":"rewardsInitiator","inputs":[],"outputs":[{"name":"","type":"address","internalType":"address"}],"stateMutability":"view"},{"type":"function","name":"setRewardsInitiator","inputs":[{"name":"newRewardsInitiator","type":"address","internalType":"address"}],"outputs":[],"stateMutability":"nonpayable"},{"type":"function","name":"setStaleStakesForbidden","inputs":[{"name":"value","type":"bool","internalType":"bool"}],"outputs":[],"stateMutability":"nonpayable"},{"type":"function","name":"stakeRegistry","inputs":[],"outputs":[{"name":"","type":"address","internalType":"contract IStakeRegistry"}],"stateMutability":"view"},{"type":"function","name":"staleStakesForbidden","inputs":[],"outputs":[{"name":"","type":"bool","internalType":"bool"}],"stateMutability":"view"},{"type":"function","name":"transferOwnership","inputs":[{"name":"newOwner","type":"address","internalType":"address"}],"outputs":[],"stateMutability":"nonpayable"},{"type":"function","name":"trySignatureAndApkVerification","inputs":[{"name":"msgHash","type":"bytes32","internalType":"bytes32"},{"name":"apk","type":"tuple","internalType":"struct BN254.G1Point","components":[{"name":"X","type":"uint256","internalType":"uint256"},{"name":"Y","type":"uint256","internalType":"uint256"}]},{"name":"apkG2","type":"tuple","internalType":"struct BN254.G2Point","components":[{"name":"X","type":"uint256[2]","internalType":"uint256[2]"},{"name":"Y","type":"uint256[2]","internalType":"uint256[2]"}]},{"name":"sigma","type":"tuple","internalType":"struct BN254.G1Point","components":[{"name":"X","type":"uint256","internalType":"uint256"},{"name":"Y","type":"uint256","internalType":"uint256"}]}],"outputs":[{"name":"pairingSuccessful","type":"bool","internalType":"bool"},{"name":"siganatureIsValid","type":"bool","internalType":"bool"}],"stateMutability":"view"},{"type":"function","name":"updateAVSMetadataURI","inputs":[{"name":"_metadataURI","type":"string","internalType":"string"}],"outputs":[],"stateMutability":"nonpayable"},{"type":"function","name":"verifyBatchInclusion","inputs":[{"name":"proofCommitment","type":"bytes32","internalType":"bytes32"},{"name":"pubInputCommitment","type":"bytes32","internalType":"bytes32"},{"name":"provingSystemAuxDataCommitment","type":"bytes32","internalType":"bytes32"},{"name":"proofGeneratorAddr","type":"bytes20","internalType":"bytes20"},{"name":"batchMerkleRoot","type":"bytes32","internalType":"bytes32"},{"name":"merkleProof","type":"bytes","internalType":"bytes"},{"name":"verificationDataBatchIndex","type":"uint256","internalType":"uint256"}],"outputs":[{"name":"","type":"bool","internalType":"bool"}],"stateMutability":"view"},{"type":"event","name":"BatchVerified","inputs":[{"name":"batchMerkleRoot","type":"bytes32","indexed":true,"internalType":"bytes32"}],"anonymous":false},{"type":"event","name":"Initialized","inputs":[{"name":"version","type":"uint8","indexed":false,"internalType":"uint8"}],"anonymous":false},{"type":"event","name":"NewBatch","inputs":[{"name":"batchMerkleRoot","type":"bytes32","indexed":true,"internalType":"bytes32"},{"name":"taskCreatedBlock","type":"uint32","indexed":false,"internalType":"uint32"},{"name":"batchDataPointer","type":"string","indexed":false,"internalType":"string"}],"anonymous":false},{"type":"event","name":"OwnershipTransferred","inputs":[{"name":"previousOwner","type":"address","indexed":true,"internalType":"address"},{"name":"newOwner","type":"address","indexed":true,"internalType":"address"}],"anonymous":false},{"type":"event","name":"RewardsInitiatorUpdated","inputs":[{"name":"prevRewardsInitiator","type":"address","indexed":false,"internalType":"address"},{"name":"newRewardsInitiator","type":"address","indexed":false,"internalType":"address"}],"anonymous":false},{"type":"event","name":"StaleStakesForbiddenUpdate","inputs":[{"name":"value","type":"bool","indexed":false,"internalType":"bool"}],"anonymous":false}],"bytecode":{"object":"0x6101806040523480156200001257600080fd5b5060405162004fa638038062004fa68339810160408190526200003591620002e5565b6001600160a01b0380851660805280841660a05280831660c052811660e0528184848284620000636200020a565b50505050806001600160a01b0316610100816001600160a01b031681525050806001600160a01b031663683048356040518163ffffffff1660e01b8152600401602060405180830381865afa158015620000c1573d6000803e3d6000fd5b505050506040513d601f19601f82011682018060405250810190620000e791906200034d565b6001600160a01b0316610120816001600160a01b031681525050806001600160a01b0316635df459466040518163ffffffff1660e01b8152600401602060405180830381865afa15801562000140573d6000803e3d6000fd5b505050506040513d601f19601f820116820180604052508101906200016691906200034d565b6001600160a01b0316610140816001600160a01b031681525050610120516001600160a01b031663df5cf7236040518163ffffffff1660e01b8152600401602060405180830381865afa158015620001c2573d6000803e3d6000fd5b505050506040513d601f19601f82011682018060405250810190620001e891906200034d565b6001600160a01b03166101605250620002006200020a565b5050505062000374565b600054610100900460ff1615620002775760405162461bcd60e51b815260206004820152602760248201527f496e697469616c697a61626c653a20636f6e747261637420697320696e697469604482015266616c697a696e6760c81b606482015260840160405180910390fd5b60005460ff9081161015620002ca576000805460ff191660ff9081179091556040519081527f7f26b83ff96e1f2b6a682f133852f6798a09c465da95921460cefb38474024989060200160405180910390a15b565b6001600160a01b0381168114620002e257600080fd5b50565b60008060008060808587031215620002fc57600080fd5b84516200030981620002cc565b60208601519094506200031c81620002cc565b60408601519093506200032f81620002cc565b60608601519092506200034281620002cc565b939692955090935050565b6000602082840312156200036057600080fd5b81516200036d81620002cc565b9392505050565b60805160a05160c05160e05161010051610120516101405161016051614b24620004826000396000818161055701526118140152600081816102d30152611a2701526000818161031f01528181611c140152611e0401526000818161038601528181611046015281816114d00152818161167701526118c8015260008181610d5b01528181610eb601528181610f4d0152818161264e015281816127d10152612870015260008181610b8201528181610c1101528181610c9101528181612297015281816123630152818161258c015261272c015260008181612c4e01528181612d0a0152612df6015260008181610350015281816122eb015281816123bf015261243e0152614b246000f3fe6080604052600436106101855760003560e01c80638da5cb5b116100d1578063c4d66de81161008a578063f2fde38b11610064578063f2fde38b1461058e578063fa534dc0146105ae578063fc299dee146105ce578063fce36c7d146105ee57600080fd5b8063c4d66de814610525578063df5cf72314610545578063e481af9d1461057957600080fd5b80638da5cb5b146104015780639926ee7d1461041f578063a364f4da1461043f578063a98fb3551461045f578063b099627e1461047f578063b98d0908146104fb57600080fd5b80635c0089941161013e5780636b3aa72e116101185780636b3aa72e146103415780636d14a9871461037457806370a08231146103a8578063715018a6146103ec57600080fd5b80635c008994146102ae5780635df45946146102c1578063683048351461030d57600080fd5b8063171f1d5b146101b55780632dd94eba146101f157806333cfb7b7146102135780633bc28c8c14610240578063416c7e5e146102605780634ae07c371461028057600080fd5b366101b05733600090815260ca6020526040812080543492906101a9908490613be0565b9091555050005b600080fd5b3480156101c157600080fd5b506101d56101d0366004613d49565b61060e565b6040805192151583529015156020830152015b60405180910390f35b3480156101fd57600080fd5b5061021161020c366004614050565b610798565b005b34801561021f57600080fd5b5061023361022e3660046140ab565b610b5d565b6040516101e891906140c8565b34801561024c57600080fd5b5061021161025b3660046140ab565b611030565b34801561026c57600080fd5b5061021161027b366004614123565b611044565b34801561028c57600080fd5b506102a061029b366004614140565b61117b565b6040516101e89291906141da565b6102116102bc366004614223565b6120ce565b3480156102cd57600080fd5b506102f57f000000000000000000000000000000000000000000000000000000000000000081565b6040516001600160a01b0390911681526020016101e8565b34801561031957600080fd5b506102f57f000000000000000000000000000000000000000000000000000000000000000081565b34801561034d57600080fd5b507f00000000000000000000000000000000000000000000000000000000000000006102f5565b34801561038057600080fd5b506102f57f000000000000000000000000000000000000000000000000000000000000000081565b3480156103b457600080fd5b506103de6103c33660046140ab565b6001600160a01b0316600090815260ca602052604090205490565b6040519081526020016101e8565b3480156103f857600080fd5b50610211612278565b34801561040d57600080fd5b506033546001600160a01b03166102f5565b34801561042b57600080fd5b5061021161043a36600461431c565b61228c565b34801561044b57600080fd5b5061021161045a3660046140ab565b612358565b34801561046b57600080fd5b5061021161047a3660046143c7565b61241f565b34801561048b57600080fd5b506104d061049a366004614417565b60c96020526000908152604090205463ffffffff811690640100000000810460ff1690600160281b90046001600160a01b031683565b6040805163ffffffff909416845291151560208401526001600160a01b0316908201526060016101e8565b34801561050757600080fd5b506097546105159060ff1681565b60405190151581526020016101e8565b34801561053157600080fd5b506102116105403660046140ab565b612473565b34801561055157600080fd5b506102f57f000000000000000000000000000000000000000000000000000000000000000081565b34801561058557600080fd5b50610233612586565b34801561059a57600080fd5b506102116105a93660046140ab565b61294f565b3480156105ba57600080fd5b506105156105c9366004614430565b6129c5565b3480156105da57600080fd5b506065546102f5906001600160a01b031681565b3480156105fa57600080fd5b506102116106093660046144c1565b612a75565b60008060007f30644e72e131a029b85045b68181585d2833e84879b9709143e1f593f00000018787600001518860200151886000015160006002811061065657610656614535565b60200201518951600160200201518a6020015160006002811061067b5761067b614535565b60200201518b6020015160016002811061069757610697614535565b602090810291909101518c518d8301516040516106f49a99989796959401988952602089019790975260408801959095526060870193909352608086019190915260a085015260c084015260e08301526101008201526101200190565b6040516020818303038152906040528051906020012060001c610717919061454b565b905061078a6107306107298884612e2d565b8690612ec4565b610738612f58565b6107806107718561076b604080518082018252600080825260209182015281518083019092526001825260029082015290565b90612e2d565b61077a8c613018565b90612ec4565b886201d4c06130a8565b909890975095505050505050565b60005a600084815260c9602052604090205490915063ffffffff166107fb5760405162461bcd60e51b8152602060048201526014602482015273426174636820646f65736e27742065786973747360601b60448201526064015b60405180910390fd5b600083815260c96020526040902054640100000000900460ff16156108625760405162461bcd60e51b815260206004820152601760248201527f426174636820616c726561647920726573706f6e64656400000000000000000060448201526064016107f2565b600083815260c96020908152604080832054600160281b90046001600160a01b0316835260ca9091529020546108d35760405162461bcd60e51b81526020600482015260166024820152754261746368657220686173206e6f2062616c616e636560501b60448201526064016107f2565b600083815260c960205260408120805464ff0000000019811664010000000017909155819061090a90869063ffffffff168661117b565b91509150604360ff16826020015160008151811061092a5761092a614535565b602002602001015161093c919061456d565b6001600160601b03166064836000015160008151811061095e5761095e614535565b60200260200101516001600160601b0316610979919061459c565b10156109ef576040805162461bcd60e51b81526020600482015260248101919091527f5369676e61746f7269657320646f206e6f74206f776e206174206c656173742060448201527f7468726573686f6c642070657263656e74616765206f6620612071756f72756d60648201526084016107f2565b60405185907f433ae0767fe95db70a0e30eda902926e41203b9eb97ec5175076fb9e2d35c13e90600090a260005a905060003a610a2c83876145bb565b610a3890615208613be0565b610a42919061459c565b600088815260c96020908152604080832054600160281b90046001600160a01b0316835260ca909152902054909150811115610ae65760405162461bcd60e51b815260206004820152603c60248201527f4261746368657220686173206e6f742073756666696369656e742066756e647360448201527f20666f7220706179696e672074686973207472616e73616374696f6e0000000060648201526084016107f2565b600087815260c96020908152604080832054600160281b90046001600160a01b0316835260ca90915281208054839290610b219084906145bb565b9091555050604051339082156108fc029083906000818181858888f19350505050158015610b53573d6000803e3d6000fd5b5050505050505050565b6040516309aa152760e11b81526001600160a01b0382811660048301526060916000917f000000000000000000000000000000000000000000000000000000000000000016906313542a4e90602401602060405180830381865afa158015610bc9573d6000803e3d6000fd5b505050506040513d601f19601f82011682018060405250810190610bed91906145d2565b60405163871ef04960e01b8152600481018290529091506000906001600160a01b037f0000000000000000000000000000000000000000000000000000000000000000169063871ef04990602401602060405180830381865afa158015610c58573d6000803e3d6000fd5b505050506040513d601f19601f82011682018060405250810190610c7c91906145eb565b90506001600160c01b0381161580610d1657507f00000000000000000000000000000000000000000000000000000000000000006001600160a01b0316639aa1653d6040518163ffffffff1660e01b8152600401602060405180830381865afa158015610ced573d6000803e3d6000fd5b505050506040513d601f19601f82011682018060405250810190610d119190614614565b60ff16155b15610d365760408051600080825260208201909252905b50949350505050565b6000610d4a826001600160c01b03166132cc565b90506000805b8251811015610e20577f00000000000000000000000000000000000000000000000000000000000000006001600160a01b0316633ca5a5f5848381518110610d9a57610d9a614535565b01602001516040516001600160e01b031960e084901b16815260f89190911c6004820152602401602060405180830381865afa158015610dde573d6000803e3d6000fd5b505050506040513d601f19601f82011682018060405250810190610e0291906145d2565b610e0c9083613be0565b915080610e1881614637565b915050610d50565b506000816001600160401b03811115610e3b57610e3b613bf8565b604051908082528060200260200182016040528015610e64578160200160208202803683370190505b5090506000805b8451811015611023576000858281518110610e8857610e88614535565b0160200151604051633ca5a5f560e01b815260f89190911c6004820181905291506000906001600160a01b037f00000000000000000000000000000000000000000000000000000000000000001690633ca5a5f590602401602060405180830381865afa158015610efd573d6000803e3d6000fd5b505050506040513d601f19601f82011682018060405250810190610f2191906145d2565b905060005b8181101561100d576040516356e4026d60e11b815260ff84166004820152602481018290527f00000000000000000000000000000000000000000000000000000000000000006001600160a01b03169063adc804da906044016040805180830381865afa158015610f9b573d6000803e3d6000fd5b505050506040513d601f19601f82011682018060405250810190610fbf9190614667565b60000151868681518110610fd557610fd5614535565b6001600160a01b039092166020928302919091019091015284610ff781614637565b955050808061100590614637565b915050610f26565b505050808061101b90614637565b915050610e6b565b5090979650505050505050565b61103861338e565b611041816133e8565b50565b7f00000000000000000000000000000000000000000000000000000000000000006001600160a01b0316638da5cb5b6040518163ffffffff1660e01b8152600401602060405180830381865afa1580156110a2573d6000803e3d6000fd5b505050506040513d601f19601f820116820180604052508101906110c691906146a8565b6001600160a01b0316336001600160a01b0316146111725760405162461bcd60e51b815260206004820152605c60248201527f424c535369676e6174757265436865636b65722e6f6e6c79436f6f7264696e6160448201527f746f724f776e65723a2063616c6c6572206973206e6f7420746865206f776e6560648201527f72206f6620746865207265676973747279436f6f7264696e61746f7200000000608482015260a4016107f2565b61104181613451565b604080518082019091526060808252602082015260008260400151516040518060400160405280600181526020016000815250511480156111d757508260a0015151604051806040016040528060018152602001600081525051145b80156111fe57508260c0015151604051806040016040528060018152602001600081525051145b801561122557508260e0015151604051806040016040528060018152602001600081525051145b61128f5760405162461bcd60e51b81526020600482015260416024820152600080516020614acf83398151915260448201527f7265733a20696e7075742071756f72756d206c656e677468206d69736d6174636064820152600d60fb1b608482015260a4016107f2565b825151602084015151146113075760405162461bcd60e51b815260206004820152604460248201819052600080516020614acf833981519152908201527f7265733a20696e707574206e6f6e7369676e6572206c656e677468206d69736d6064820152630c2e8c6d60e31b608482015260a4016107f2565b4363ffffffff168463ffffffff16106113765760405162461bcd60e51b815260206004820152603c6024820152600080516020614acf83398151915260448201527f7265733a20696e76616c6964207265666572656e636520626c6f636b0000000060648201526084016107f2565b60408051808201825260008082526020808301829052835180850185526060808252818301528451808601865260018082529083019390935284518381528086019095529293919082810190803683370190505060208281019190915260408051808201825260018082526000919093015280518281528082019091529081602001602082028036833701905050815260408051808201909152606080825260208201528560200151516001600160401b0381111561143757611437613bf8565b604051908082528060200260200182016040528015611460578160200160208202803683370190505b5081526020860151516001600160401b0381111561148057611480613bf8565b6040519080825280602002602001820160405280156114a9578160200160208202803683370190505b508160200181905250600061155560405180604001604052806001815260200160008152507f00000000000000000000000000000000000000000000000000000000000000006001600160a01b0316639aa1653d6040518163ffffffff1660e01b8152600401602060405180830381865afa15801561152c573d6000803e3d6000fd5b505050506040513d601f19601f820116820180604052508101906115509190614614565b613498565b905060005b8760200151518110156117f05761159f8860200151828151811061158057611580614535565b6020026020010151805160009081526020918201519091526040902090565b836020015182815181106115b5576115b5614535565b602090810291909101015280156116755760208301516115d66001836145bb565b815181106115e6576115e6614535565b602002602001015160001c8360200151828151811061160757611607614535565b602002602001015160001c11611675576040805162461bcd60e51b8152602060048201526024810191909152600080516020614acf83398151915260448201527f7265733a206e6f6e5369676e65725075626b657973206e6f7420736f7274656460648201526084016107f2565b7f00000000000000000000000000000000000000000000000000000000000000006001600160a01b03166304ec6351846020015183815181106116ba576116ba614535565b60200260200101518b8b6000015185815181106116d9576116d9614535565b60200260200101516040518463ffffffff1660e01b81526004016117169392919092835263ffffffff918216602084015216604082015260600190565b602060405180830381865afa158015611733573d6000803e3d6000fd5b505050506040513d601f19601f8201168201806040525081019061175791906145eb565b6001600160c01b03168360000151828151811061177657611776614535565b6020026020010181815250506117dc6107296117b084866000015185815181106117a2576117a2614535565b60200260200101511661352b565b8a6020015184815181106117c6576117c6614535565b602002602001015161355690919063ffffffff16565b9450806117e881614637565b91505061155a565b50506117fb8361363a565b60975490935060ff16600081611812576000611894565b7f00000000000000000000000000000000000000000000000000000000000000006001600160a01b031663c448feb86040518163ffffffff1660e01b8152600401602060405180830381865afa158015611870573d6000803e3d6000fd5b505050506040513d601f19601f8201168201806040525081019061189491906145d2565b905060005b604051806040016040528060018152602001600081525051811015611f9f578215611a25578963ffffffff16827f00000000000000000000000000000000000000000000000000000000000000006001600160a01b031663249a0c426040518060400160405280600181526020016000815250858151811061191d5761191d614535565b01602001516040516001600160e01b031960e084901b16815260f89190911c6004820152602401602060405180830381865afa158015611961573d6000803e3d6000fd5b505050506040513d601f19601f8201168201806040525081019061198591906145d2565b61198f9190613be0565b11611a255760405162461bcd60e51b81526020600482015260666024820152600080516020614acf83398151915260448201527f7265733a205374616b6552656769737472792075706461746573206d7573742060648201527f62652077697468696e207769746864726177616c44656c6179426c6f636b732060848201526577696e646f7760d01b60a482015260c4016107f2565b7f00000000000000000000000000000000000000000000000000000000000000006001600160a01b03166368bccaac60405180604001604052806001815260200160008152508381518110611a7c57611a7c614535565b602001015160f81c60f81b60f81c8c8c60a001518581518110611aa157611aa1614535565b60209081029190910101516040516001600160e01b031960e086901b16815260ff909316600484015263ffffffff9182166024840152166044820152606401602060405180830381865afa158015611afd573d6000803e3d6000fd5b505050506040513d601f19601f82011682018060405250810190611b2191906146c5565b6001600160401b031916611b448a60400151838151811061158057611580614535565b67ffffffffffffffff191614611be05760405162461bcd60e51b81526020600482015260616024820152600080516020614acf83398151915260448201527f7265733a2071756f72756d41706b206861736820696e2073746f72616765206460648201527f6f6573206e6f74206d617463682070726f76696465642071756f72756d2061706084820152606b60f81b60a482015260c4016107f2565b611c1089604001518281518110611bf957611bf9614535565b602002602001015187612ec490919063ffffffff16565b95507f00000000000000000000000000000000000000000000000000000000000000006001600160a01b031663c8294c5660405180604001604052806001815260200160008152508381518110611c6957611c69614535565b602001015160f81c60f81b60f81c8c8c60c001518581518110611c8e57611c8e614535565b60209081029190910101516040516001600160e01b031960e086901b16815260ff909316600484015263ffffffff9182166024840152166044820152606401602060405180830381865afa158015611cea573d6000803e3d6000fd5b505050506040513d601f19601f82011682018060405250810190611d0e91906146f0565b85602001518281518110611d2457611d24614535565b6001600160601b03909216602092830291909101820152850151805182908110611d5057611d50614535565b602002602001015185600001518281518110611d6e57611d6e614535565b60200260200101906001600160601b031690816001600160601b0316815250506000805b8a6020015151811015611f8a57611dfd86600001518281518110611db857611db8614535565b602002602001015160405180604001604052806001815260200160008152508581518110611de857611de8614535565b016020015160f81c60ff161c60019081161490565b15611f78577f00000000000000000000000000000000000000000000000000000000000000006001600160a01b031663f2be94ae60405180604001604052806001815260200160008152508581518110611e5957611e59614535565b602001015160f81c60f81b60f81c8e89602001518581518110611e7e57611e7e614535565b60200260200101518f60e001518881518110611e9c57611e9c614535565b60200260200101518781518110611eb557611eb5614535565b60209081029190910101516040516001600160e01b031960e087901b16815260ff909416600485015263ffffffff92831660248501526044840191909152166064820152608401602060405180830381865afa158015611f19573d6000803e3d6000fd5b505050506040513d601f19601f82011682018060405250810190611f3d91906146f0565b8751805185908110611f5157611f51614535565b60200260200101818151611f65919061470d565b6001600160601b03169052506001909101905b80611f8281614637565b915050611d92565b50508080611f9790614637565b915050611899565b505050600080611fb98a868a606001518b6080015161060e565b915091508161202a5760405162461bcd60e51b81526020600482015260436024820152600080516020614acf83398151915260448201527f7265733a2070616972696e6720707265636f6d70696c652063616c6c206661696064820152621b195960ea1b608482015260a4016107f2565b8061208b5760405162461bcd60e51b81526020600482015260396024820152600080516020614acf83398151915260448201527f7265733a207369676e617475726520697320696e76616c69640000000000000060648201526084016107f2565b505060008782602001516040516020016120a6929190614735565b60408051808303601f1901815291905280516020909101209299929850919650505050505050565b600083815260c9602052604090205463ffffffff16156121305760405162461bcd60e51b815260206004820152601b60248201527f42617463682077617320616c7265616479207375626d6974746564000000000060448201526064016107f2565b341561215b5733600090815260ca602052604081208054349290612155908490613be0565b90915550505b33600090815260ca60205260409020546121b75760405162461bcd60e51b815260206004820152601860248201527f426174636865722062616c616e636520697320656d707479000000000000000060448201526064016107f2565b604080516060810182526000602080830182815263ffffffff438181168652338688019081528a865260c99094529386902085518154935194516001600160a01b0316600160281b0265010000000000600160c81b03199515156401000000000264ffffffffff19909516919093161792909217929092169190911790559151909185917f1871c33134a542e0ab9facf7013d27b9ed95e64d299e9919ee091c9cfcb19fa59161226a918790879061477d565b60405180910390a250505050565b61228061338e565b61228a60006136d5565b565b336001600160a01b037f000000000000000000000000000000000000000000000000000000000000000016146122d45760405162461bcd60e51b81526004016107f2906147b9565b604051639926ee7d60e01b81526001600160a01b037f00000000000000000000000000000000000000000000000000000000000000001690639926ee7d90612322908590859060040161487e565b600060405180830381600087803b15801561233c57600080fd5b505af1158015612350573d6000803e3d6000fd5b505050505050565b336001600160a01b037f000000000000000000000000000000000000000000000000000000000000000016146123a05760405162461bcd60e51b81526004016107f2906147b9565b6040516351b27a6d60e11b81526001600160a01b0382811660048301527f0000000000000000000000000000000000000000000000000000000000000000169063a364f4da906024015b600060405180830381600087803b15801561240457600080fd5b505af1158015612418573d6000803e3d6000fd5b5050505050565b61242761338e565b60405163a98fb35560e01b81526001600160a01b037f0000000000000000000000000000000000000000000000000000000000000000169063a98fb355906123ea9084906004016148c9565b600054610100900460ff16158080156124935750600054600160ff909116105b806124ad5750303b1580156124ad575060005460ff166001145b6125105760405162461bcd60e51b815260206004820152602e60248201527f496e697469616c697a61626c653a20636f6e747261637420697320616c72656160448201526d191e481a5b9a5d1a585b1a5e995960921b60648201526084016107f2565b6000805460ff191660011790558015612533576000805461ff0019166101001790555b61253c826136d5565b8015612582576000805461ff0019169055604051600181527f7f26b83ff96e1f2b6a682f133852f6798a09c465da95921460cefb38474024989060200160405180910390a15b5050565b606060007f00000000000000000000000000000000000000000000000000000000000000006001600160a01b0316639aa1653d6040518163ffffffff1660e01b8152600401602060405180830381865afa1580156125e8573d6000803e3d6000fd5b505050506040513d601f19601f8201168201806040525081019061260c9190614614565b60ff1690508061262a57505060408051600081526020810190915290565b6000805b828110156126df57604051633ca5a5f560e01b815260ff821660048201527f00000000000000000000000000000000000000000000000000000000000000006001600160a01b031690633ca5a5f590602401602060405180830381865afa15801561269d573d6000803e3d6000fd5b505050506040513d601f19601f820116820180604052508101906126c191906145d2565b6126cb9083613be0565b9150806126d781614637565b91505061262e565b506000816001600160401b038111156126fa576126fa613bf8565b604051908082528060200260200182016040528015612723578160200160208202803683370190505b5090506000805b7f00000000000000000000000000000000000000000000000000000000000000006001600160a01b0316639aa1653d6040518163ffffffff1660e01b8152600401602060405180830381865afa158015612788573d6000803e3d6000fd5b505050506040513d601f19601f820116820180604052508101906127ac9190614614565b60ff1681101561294557604051633ca5a5f560e01b815260ff821660048201526000907f00000000000000000000000000000000000000000000000000000000000000006001600160a01b031690633ca5a5f590602401602060405180830381865afa158015612820573d6000803e3d6000fd5b505050506040513d601f19601f8201168201806040525081019061284491906145d2565b905060005b81811015612930576040516356e4026d60e11b815260ff84166004820152602481018290527f00000000000000000000000000000000000000000000000000000000000000006001600160a01b03169063adc804da906044016040805180830381865afa1580156128be573d6000803e3d6000fd5b505050506040513d601f19601f820116820180604052508101906128e29190614667565b600001518585815181106128f8576128f8614535565b6001600160a01b03909216602092830291909101909101528361291a81614637565b945050808061292890614637565b915050612849565b5050808061293d90614637565b91505061272a565b5090949350505050565b61295761338e565b6001600160a01b0381166129bc5760405162461bcd60e51b815260206004820152602660248201527f4f776e61626c653a206e6577206f776e657220697320746865207a65726f206160448201526564647265737360d01b60648201526084016107f2565b611041816136d5565b600083815260c9602052604081205463ffffffff166129e657506000612a6a565b600084815260c96020526040902054640100000000900460ff16612a0c57506000612a6a565b60408051602081018a9052908101889052606081018790526bffffffffffffffffffffffff198616608082015260009060940160408051601f1981840301815291905280516020820120909150612a6585878387613727565b925050505b979650505050505050565b6065546001600160a01b03163314612b0a5760405162461bcd60e51b815260206004820152604c60248201527f536572766963654d616e61676572426173652e6f6e6c7952657761726473496e60448201527f69746961746f723a2063616c6c6572206973206e6f742074686520726577617260648201526b32399034b734ba34b0ba37b960a11b608482015260a4016107f2565b60005b81811015612dde57828282818110612b2757612b27614535565b9050602002810190612b3991906148dc565b612b4a9060408101906020016140ab565b6001600160a01b03166323b872dd3330868686818110612b6c57612b6c614535565b9050602002810190612b7e91906148dc565b604080516001600160e01b031960e087901b1681526001600160a01b039485166004820152939092166024840152013560448201526064016020604051808303816000875af1158015612bd5573d6000803e3d6000fd5b505050506040513d601f19601f82011682018060405250810190612bf99190614907565b506000838383818110612c0e57612c0e614535565b9050602002810190612c2091906148dc565b612c319060408101906020016140ab565b604051636eb1769f60e11b81523060048201526001600160a01b037f000000000000000000000000000000000000000000000000000000000000000081166024830152919091169063dd62ed3e90604401602060405180830381865afa158015612c9f573d6000803e3d6000fd5b505050506040513d601f19601f82011682018060405250810190612cc391906145d2565b9050838383818110612cd757612cd7614535565b9050602002810190612ce991906148dc565b612cfa9060408101906020016140ab565b6001600160a01b031663095ea7b37f000000000000000000000000000000000000000000000000000000000000000083878787818110612d3c57612d3c614535565b9050602002810190612d4e91906148dc565b60400135612d5c9190613be0565b6040516001600160e01b031960e085901b1681526001600160a01b03909216600483015260248201526044016020604051808303816000875af1158015612da7573d6000803e3d6000fd5b505050506040513d601f19601f82011682018060405250810190612dcb9190614907565b505080612dd790614637565b9050612b0d565b5060405163fce36c7d60e01b81526001600160a01b037f0000000000000000000000000000000000000000000000000000000000000000169063fce36c7d90612322908590859060040161497f565b6040805180820190915260008082526020820152612e49613af0565b835181526020808501519082015260408082018490526000908360608460076107d05a03fa9050808015612e7c57612e7e565bfe5b5080612ebc5760405162461bcd60e51b815260206004820152600d60248201526c1958cb5b5d5b0b59985a5b1959609a1b60448201526064016107f2565b505092915050565b6040805180820190915260008082526020820152612ee0613b0e565b835181526020808501518183015283516040808401919091529084015160608301526000908360808460066107d05a03fa9050808015612e7c575080612ebc5760405162461bcd60e51b815260206004820152600d60248201526c1958cb5859190b59985a5b1959609a1b60448201526064016107f2565b612f60613b2c565b50604080516080810182527f198e9393920d483a7260bfb731fb5d25f1aa493335a9e71297e485b7aef312c28183019081527f1800deef121f1e76426a00665e5c4479674322d4f75edadd46debd5cd992f6ed6060830152815281518083019092527f275dc4a288d1afb3cbb1ac09187524c7db36395df7be3b99e673b13a075a65ec82527f1d9befcd05a5323e6da4d435f3b617cdb3af83285c2df711ef39c01571827f9d60208381019190915281019190915290565b604080518082019091526000808252602082015260008080613048600080516020614aaf8339815191528661454b565b90505b6130548161373f565b9093509150600080516020614aaf83398151915282830983141561308e576040805180820190915290815260208101919091529392505050565b600080516020614aaf83398151915260018208905061304b565b6040805180820182528681526020808201869052825180840190935286835282018490526000918291906130da613b51565b60005b600281101561329f5760006130f382600661459c565b905084826002811061310757613107614535565b60200201515183613119836000613be0565b600c811061312957613129614535565b602002015284826002811061314057613140614535565b602002015160200151838260016131579190613be0565b600c811061316757613167614535565b602002015283826002811061317e5761317e614535565b6020020151515183613191836002613be0565b600c81106131a1576131a1614535565b60200201528382600281106131b8576131b8614535565b60200201515160016020020151836131d1836003613be0565b600c81106131e1576131e1614535565b60200201528382600281106131f8576131f8614535565b60200201516020015160006002811061321357613213614535565b602002015183613224836004613be0565b600c811061323457613234614535565b602002015283826002811061324b5761324b614535565b60200201516020015160016002811061326657613266614535565b602002015183613277836005613be0565b600c811061328757613287614535565b6020020152508061329781614637565b9150506130dd565b506132a8613b70565b60006020826101808560088cfa9151919c9115159b50909950505050505050505050565b60606000806132da8461352b565b61ffff166001600160401b038111156132f5576132f5613bf8565b6040519080825280601f01601f19166020018201604052801561331f576020820181803683370190505b5090506000805b825182108015613337575061010081105b15612945576001811b93508584161561337e578060f81b83838151811061336057613360614535565b60200101906001600160f81b031916908160001a9053508160010191505b61338781614637565b9050613326565b6033546001600160a01b0316331461228a5760405162461bcd60e51b815260206004820181905260248201527f4f776e61626c653a2063616c6c6572206973206e6f7420746865206f776e657260448201526064016107f2565b606554604080516001600160a01b03928316815291831660208301527fe11cddf1816a43318ca175bbc52cd0185436e9cbead7c83acc54a73e461717e3910160405180910390a1606580546001600160a01b0319166001600160a01b0392909216919091179055565b6097805460ff19168215159081179091556040519081527f40e4ed880a29e0f6ddce307457fb75cddf4feef7d3ecb0301bfdf4976a0e2dfc9060200160405180910390a150565b6000806134a4846137c1565b9050808360ff166001901b116135225760405162461bcd60e51b815260206004820152603f60248201527f4269746d61705574696c732e6f72646572656442797465734172726179546f4260448201527f69746d61703a206269746d61702065786365656473206d61782076616c75650060648201526084016107f2565b90505b92915050565b6000805b8215613525576135406001846145bb565b909216918061354e81614a8c565b91505061352f565b60408051808201909152600080825260208201526102008261ffff16106135b25760405162461bcd60e51b815260206004820152601060248201526f7363616c61722d746f6f2d6c6172676560801b60448201526064016107f2565b8161ffff16600114156135c6575081613525565b6040805180820190915260008082526020820181905284906001905b8161ffff168661ffff161061362f57600161ffff871660ff83161c811614156136125761360f8484612ec4565b93505b61361c8384612ec4565b92506201fffe600192831b1691016135e2565b509195945050505050565b6040805180820190915260008082526020820152815115801561365f57506020820151155b1561367d575050604080518082019091526000808252602082015290565b604051806040016040528083600001518152602001600080516020614aaf83398151915284602001516136b0919061454b565b6136c890600080516020614aaf8339815191526145bb565b905292915050565b919050565b603380546001600160a01b038381166001600160a01b0319831681179093556040519116919082907f8be0079c531659141344cd1fd0a4f28419497f9722a3daafe3b4186f6b6457e090600090a35050565b60008361373586858561394e565b1495945050505050565b60008080600080516020614aaf8339815191526003600080516020614aaf83398151915286600080516020614aaf8339815191528889090908905060006137b5827f0c19139cb84c680a6e14116da060561765e05aa45a1c72a34f082305b61f3f52600080516020614aaf833981519152613a48565b91959194509092505050565b60006101008251111561384a5760405162461bcd60e51b8152602060048201526044602482018190527f4269746d61705574696c732e6f72646572656442797465734172726179546f42908201527f69746d61703a206f7264657265644279746573417272617920697320746f6f206064820152636c6f6e6760e01b608482015260a4016107f2565b815161385857506000919050565b6000808360008151811061386e5761386e614535565b0160200151600160f89190911c81901b92505b84518110156139455784818151811061389c5761389c614535565b0160200151600160f89190911c1b91508282116139315760405162461bcd60e51b815260206004820152604760248201527f4269746d61705574696c732e6f72646572656442797465734172726179546f4260448201527f69746d61703a206f72646572656442797465734172726179206973206e6f74206064820152661bdc99195c995960ca1b608482015260a4016107f2565b9181179161393e81614637565b9050613881565b50909392505050565b60006020845161395e919061454b565b156139e55760405162461bcd60e51b815260206004820152604b60248201527f4d65726b6c652e70726f63657373496e636c7573696f6e50726f6f664b65636360448201527f616b3a2070726f6f66206c656e6774682073686f756c642062652061206d756c60648201526a3a34b836329037b310199960a91b608482015260a4016107f2565b8260205b85518111610d2d576139fc60028561454b565b613a1d57816000528086015160205260406000209150600284049350613a36565b8086015160005281602052604060002091506002840493505b613a41602082613be0565b90506139e9565b600080613a53613b70565b613a5b613b8e565b602080825281810181905260408201819052606082018890526080820187905260a082018690528260c08360056107d05a03fa9250828015612e7c575082613ae55760405162461bcd60e51b815260206004820152601a60248201527f424e3235342e6578704d6f643a2063616c6c206661696c75726500000000000060448201526064016107f2565b505195945050505050565b60405180606001604052806003906020820280368337509192915050565b60405180608001604052806004906020820280368337509192915050565b6040518060400160405280613b3f613bac565b8152602001613b4c613bac565b905290565b604051806101800160405280600c906020820280368337509192915050565b60405180602001604052806001906020820280368337509192915050565b6040518060c001604052806006906020820280368337509192915050565b60405180604001604052806002906020820280368337509192915050565b634e487b7160e01b600052601160045260246000fd5b60008219821115613bf357613bf3613bca565b500190565b634e487b7160e01b600052604160045260246000fd5b604080519081016001600160401b0381118282101715613c3057613c30613bf8565b60405290565b60405161010081016001600160401b0381118282101715613c3057613c30613bf8565b604051601f8201601f191681016001600160401b0381118282101715613c8157613c81613bf8565b604052919050565b600060408284031215613c9b57600080fd5b613ca3613c0e565b9050813581526020820135602082015292915050565b600082601f830112613cca57600080fd5b613cd2613c0e565b806040840185811115613ce457600080fd5b845b81811015613cfe578035845260209384019301613ce6565b509095945050505050565b600060808284031215613d1b57600080fd5b613d23613c0e565b9050613d2f8383613cb9565b8152613d3e8360408401613cb9565b602082015292915050565b6000806000806101208587031215613d6057600080fd5b84359350613d718660208701613c89565b9250613d808660608701613d09565b9150613d8f8660e08701613c89565b905092959194509250565b60006001600160401b03821115613db357613db3613bf8565b5060051b60200190565b803563ffffffff811681146136d057600080fd5b600082601f830112613de257600080fd5b81356020613df7613df283613d9a565b613c59565b82815260059290921b84018101918181019086841115613e1657600080fd5b8286015b84811015613e3857613e2b81613dbd565b8352918301918301613e1a565b509695505050505050565b600082601f830112613e5457600080fd5b81356020613e64613df283613d9a565b82815260069290921b84018101918181019086841115613e8357600080fd5b8286015b84811015613e3857613e998882613c89565b835291830191604001613e87565b600082601f830112613eb857600080fd5b81356020613ec8613df283613d9a565b82815260059290921b84018101918181019086841115613ee757600080fd5b8286015b84811015613e385780356001600160401b03811115613f0a5760008081fd5b613f188986838b0101613dd1565b845250918301918301613eeb565b60006101808284031215613f3957600080fd5b613f41613c36565b905081356001600160401b0380821115613f5a57600080fd5b613f6685838601613dd1565b83526020840135915080821115613f7c57600080fd5b613f8885838601613e43565b60208401526040840135915080821115613fa157600080fd5b613fad85838601613e43565b6040840152613fbf8560608601613d09565b6060840152613fd18560e08601613c89565b6080840152610120840135915080821115613feb57600080fd5b613ff785838601613dd1565b60a084015261014084013591508082111561401157600080fd5b61401d85838601613dd1565b60c084015261016084013591508082111561403757600080fd5b5061404484828501613ea7565b60e08301525092915050565b6000806040838503121561406357600080fd5b8235915060208301356001600160401b0381111561408057600080fd5b61408c85828601613f26565b9150509250929050565b6001600160a01b038116811461104157600080fd5b6000602082840312156140bd57600080fd5b813561352281614096565b6020808252825182820181905260009190848201906040850190845b818110156141095783516001600160a01b0316835292840192918401916001016140e4565b50909695505050505050565b801515811461104157600080fd5b60006020828403121561413557600080fd5b813561352281614115565b60008060006060848603121561415557600080fd5b8335925061416560208501613dbd565b915060408401356001600160401b0381111561418057600080fd5b61418c86828701613f26565b9150509250925092565b600081518084526020808501945080840160005b838110156141cf5781516001600160601b0316875295820195908201906001016141aa565b509495945050505050565b60408152600083516040808401526141f56080840182614196565b90506020850151603f198483030160608501526142128282614196565b925050508260208301529392505050565b60008060006040848603121561423857600080fd5b8335925060208401356001600160401b038082111561425657600080fd5b818601915086601f83011261426a57600080fd5b81358181111561427957600080fd5b87602082850101111561428b57600080fd5b6020830194508093505050509250925092565b60006001600160401b038311156142b7576142b7613bf8565b6142ca601f8401601f1916602001613c59565b90508281528383830111156142de57600080fd5b828260208301376000602084830101529392505050565b600082601f83011261430657600080fd5b6143158383356020850161429e565b9392505050565b6000806040838503121561432f57600080fd5b823561433a81614096565b915060208301356001600160401b038082111561435657600080fd5b908401906060828703121561436a57600080fd5b60405160608101818110838211171561438557614385613bf8565b60405282358281111561439757600080fd5b6143a3888286016142f5565b82525060208301356020820152604083013560408201528093505050509250929050565b6000602082840312156143d957600080fd5b81356001600160401b038111156143ef57600080fd5b8201601f8101841361440057600080fd5b61440f8482356020840161429e565b949350505050565b60006020828403121561442957600080fd5b5035919050565b600080600080600080600060e0888a03121561444b57600080fd5b87359650602088013595506040880135945060608801356bffffffffffffffffffffffff198116811461447d57600080fd5b93506080880135925060a08801356001600160401b0381111561449f57600080fd5b6144ab8a828b016142f5565b92505060c0880135905092959891949750929550565b600080602083850312156144d457600080fd5b82356001600160401b03808211156144eb57600080fd5b818501915085601f8301126144ff57600080fd5b81358181111561450e57600080fd5b8660208260051b850101111561452357600080fd5b60209290920196919550909350505050565b634e487b7160e01b600052603260045260246000fd5b60008261456857634e487b7160e01b600052601260045260246000fd5b500690565b60006001600160601b038083168185168183048111821515161561459357614593613bca565b02949350505050565b60008160001904831182151516156145b6576145b6613bca565b500290565b6000828210156145cd576145cd613bca565b500390565b6000602082840312156145e457600080fd5b5051919050565b6000602082840312156145fd57600080fd5b81516001600160c01b038116811461352257600080fd5b60006020828403121561462657600080fd5b815160ff8116811461352257600080fd5b600060001982141561464b5761464b613bca565b5060010190565b6001600160601b038116811461104157600080fd5b60006040828403121561467957600080fd5b614681613c0e565b825161468c81614096565b8152602083015161469c81614652565b60208201529392505050565b6000602082840312156146ba57600080fd5b815161352281614096565b6000602082840312156146d757600080fd5b815167ffffffffffffffff198116811461352257600080fd5b60006020828403121561470257600080fd5b815161352281614652565b60006001600160601b038381169083168181101561472d5761472d613bca565b039392505050565b63ffffffff60e01b8360e01b1681526000600482018351602080860160005b8381101561477057815185529382019390820190600101614754565b5092979650505050505050565b63ffffffff8416815260406020820152816040820152818360608301376000818301606090810191909152601f909201601f1916010192915050565b60208082526052908201527f536572766963654d616e61676572426173652e6f6e6c7952656769737472794360408201527f6f6f7264696e61746f723a2063616c6c6572206973206e6f742074686520726560608201527133b4b9ba393c9031b7b7b93234b730ba37b960711b608082015260a00190565b6000815180845260005b818110156148575760208185018101518683018201520161483b565b81811115614869576000602083870101525b50601f01601f19169290920160200192915050565b60018060a01b03831681526040602082015260008251606060408401526148a860a0840182614831565b90506020840151606084015260408401516080840152809150509392505050565b6020815260006143156020830184614831565b60008235609e198336030181126148f257600080fd5b9190910192915050565b80356136d081614096565b60006020828403121561491957600080fd5b815161352281614115565b8183526000602080850194508260005b858110156141cf57813561494781614096565b6001600160a01b031687528183013561495f81614652565b6001600160601b0316878401526040968701969190910190600101614934565b60208082528181018390526000906040808401600586901b8501820187855b88811015614a7e57878303603f190184528135368b9003609e190181126149c457600080fd5b8a0160a0813536839003601e190181126149dd57600080fd5b820180356001600160401b038111156149f557600080fd5b8060061b3603841315614a0757600080fd5b828752614a19838801828c8501614924565b92505050614a288883016148fc565b6001600160a01b03168886015281870135878601526060614a4a818401613dbd565b63ffffffff16908601526080614a61838201613dbd565b63ffffffff1695019490945250928501929085019060010161499e565b509098975050505050505050565b600061ffff80831681811415614aa457614aa4613bca565b600101939250505056fe30644e72e131a029b85045b68181585d97816a916871ca8d3c208c16d87cfd47424c535369676e6174757265436865636b65722e636865636b5369676e617475a2646970667358221220964dacf3cbd191b304a7e57c6ad1526c14b9262cc8411436d729194658eae71164736f6c634300080c0033","linkReferences":{}},"methodIdentifiers":{"avsDirectory()":"6b3aa72e","balanceOf(address)":"70a08231","batchesState(bytes32)":"b099627e","blsApkRegistry()":"5df45946","checkSignatures(bytes32,uint32,(uint32[],(uint256,uint256)[],(uint256,uint256)[],(uint256[2],uint256[2]),(uint256,uint256),uint32[],uint32[],uint32[][]))":"4ae07c37","createAVSRewardsSubmission(((address,uint96)[],address,uint256,uint32,uint32)[])":"fce36c7d","createNewTask(bytes32,string)":"5c008994","delegation()":"df5cf723","deregisterOperatorFromAVS(address)":"a364f4da","getOperatorRestakedStrategies(address)":"33cfb7b7","getRestakeableStrategies()":"e481af9d","initialize(address)":"c4d66de8","owner()":"8da5cb5b","registerOperatorToAVS(address,(bytes,bytes32,uint256))":"9926ee7d","registryCoordinator()":"6d14a987","renounceOwnership()":"715018a6","respondToTask(bytes32,(uint32[],(uint256,uint256)[],(uint256,uint256)[],(uint256[2],uint256[2]),(uint256,uint256),uint32[],uint32[],uint32[][]))":"2dd94eba","rewardsInitiator()":"fc299dee","setRewardsInitiator(address)":"3bc28c8c","setStaleStakesForbidden(bool)":"416c7e5e","stakeRegistry()":"68304835","staleStakesForbidden()":"b98d0908","transferOwnership(address)":"f2fde38b","trySignatureAndApkVerification(bytes32,(uint256,uint256),(uint256[2],uint256[2]),(uint256,uint256))":"171f1d5b","updateAVSMetadataURI(string)":"a98fb355","verifyBatchInclusion(bytes32,bytes32,bytes32,bytes20,bytes32,bytes,uint256)":"fa534dc0"},"id":118}