{"abi":[{"type":"constructor","inputs":[{"name":"__avsDirectory","type":"address","internalType":"contract IAVSDirectory"},{"name":"__rewardsCoordinator","type":"address","internalType":"contract IRewardsCoordinator"},{"name":"__registryCoordinator","type":"address","internalType":"contract IRegistryCoordinator"},{"name":"__stakeRegistry","type":"address","internalType":"contract IStakeRegistry"}],"stateMutability":"nonpayable"},{"type":"receive","stateMutability":"payable"},{"type":"function","name":"avsDirectory","inputs":[],"outputs":[{"name":"","type":"address","internalType":"address"}],"stateMutability":"view"},{"type":"function","name":"balanceOf","inputs":[{"name":"account","type":"address","internalType":"address"}],"outputs":[{"name":"","type":"uint256","internalType":"uint256"}],"stateMutability":"view"},{"type":"function","name":"batchesState","inputs":[{"name":"","type":"bytes32","internalType":"bytes32"}],"outputs":[{"name":"batcherAddress","type":"address","internalType":"address"},{"name":"taskCreatedBlock","type":"uint32","internalType":"uint32"},{"name":"responded","type":"bool","internalType":"bool"}],"stateMutability":"view"},{"type":"function","name":"blsApkRegistry","inputs":[],"outputs":[{"name":"","type":"address","internalType":"contract IBLSApkRegistry"}],"stateMutability":"view"},{"type":"function","name":"checkPublicInput","inputs":[{"name":"publicInput","type":"bytes","internalType":"bytes"},{"name":"hash","type":"bytes32","internalType":"bytes32"}],"outputs":[{"name":"","type":"bool","internalType":"bool"}],"stateMutability":"pure"},{"type":"function","name":"checkSignatures","inputs":[{"name":"msgHash","type":"bytes32","internalType":"bytes32"},{"name":"referenceBlockNumber","type":"uint32","internalType":"uint32"},{"name":"params","type":"tuple","internalType":"struct IBLSSignatureChecker.NonSignerStakesAndSignature","components":[{"name":"nonSignerQuorumBitmapIndices","type":"uint32[]","internalType":"uint32[]"},{"name":"nonSignerPubkeys","type":"tuple[]","internalType":"struct BN254.G1Point[]","components":[{"name":"X","type":"uint256","internalType":"uint256"},{"name":"Y","type":"uint256","internalType":"uint256"}]},{"name":"quorumApks","type":"tuple[]","internalType":"struct BN254.G1Point[]","components":[{"name":"X","type":"uint256","internalType":"uint256"},{"name":"Y","type":"uint256","internalType":"uint256"}]},{"name":"apkG2","type":"tuple","internalType":"struct BN254.G2Point","components":[{"name":"X","type":"uint256[2]","internalType":"uint256[2]"},{"name":"Y","type":"uint256[2]","internalType":"uint256[2]"}]},{"name":"sigma","type":"tuple","internalType":"struct BN254.G1Point","components":[{"name":"X","type":"uint256","internalType":"uint256"},{"name":"Y","type":"uint256","internalType":"uint256"}]},{"name":"quorumApkIndices","type":"uint32[]","internalType":"uint32[]"},{"name":"totalStakeIndices","type":"uint32[]","internalType":"uint32[]"},{"name":"nonSignerStakeIndices","type":"uint32[][]","internalType":"uint32[][]"}]}],"outputs":[{"name":"","type":"tuple","internalType":"struct IBLSSignatureChecker.QuorumStakeTotals","components":[{"name":"signedStakeForQuorum","type":"uint96[]","internalType":"uint96[]"},{"name":"totalStakeForQuorum","type":"uint96[]","internalType":"uint96[]"}]},{"name":"","type":"bytes32","internalType":"bytes32"}],"stateMutability":"view"},{"type":"function","name":"createAVSRewardsSubmission","inputs":[{"name":"rewardsSubmissions","type":"tuple[]","internalType":"struct IRewardsCoordinator.RewardsSubmission[]","components":[{"name":"strategiesAndMultipliers","type":"tuple[]","internalType":"struct IRewardsCoordinator.StrategyAndMultiplier[]","components":[{"name":"strategy","type":"address","internalType":"contract IStrategy"},{"name":"multiplier","type":"uint96","internalType":"uint96"}]},{"name":"token","type":"address","internalType":"contract IERC20"},{"name":"amount","type":"uint256","internalType":"uint256"},{"name":"startTimestamp","type":"uint32","internalType":"uint32"},{"name":"duration","type":"uint32","internalType":"uint32"}]}],"outputs":[],"stateMutability":"nonpayable"},{"type":"function","name":"createNewTask","inputs":[{"name":"batchMerkleRoot","type":"bytes32","internalType":"bytes32"},{"name":"batchDataPointer","type":"string","internalType":"string"}],"outputs":[],"stateMutability":"payable"},{"type":"function","name":"delegation","inputs":[],"outputs":[{"name":"","type":"address","internalType":"contract IDelegationManager"}],"stateMutability":"view"},{"type":"function","name":"deregisterOperatorFromAVS","inputs":[{"name":"operator","type":"address","internalType":"address"}],"outputs":[],"stateMutability":"nonpayable"},{"type":"function","name":"getOperatorRestakedStrategies","inputs":[{"name":"operator","type":"address","internalType":"address"}],"outputs":[{"name":"","type":"address[]","internalType":"address[]"}],"stateMutability":"view"},{"type":"function","name":"getRestakeableStrategies","inputs":[],"outputs":[{"name":"","type":"address[]","internalType":"address[]"}],"stateMutability":"view"},{"type":"function","name":"initialize","inputs":[{"name":"_initialOwner","type":"address","internalType":"address"}],"outputs":[],"stateMutability":"nonpayable"},{"type":"function","name":"owner","inputs":[],"outputs":[{"name":"","type":"address","internalType":"address"}],"stateMutability":"view"},{"type":"function","name":"registerOperatorToAVS","inputs":[{"name":"operator","type":"address","internalType":"address"},{"name":"operatorSignature","type":"tuple","internalType":"struct ISignatureUtils.SignatureWithSaltAndExpiry","components":[{"name":"signature","type":"bytes","internalType":"bytes"},{"name":"salt","type":"bytes32","internalType":"bytes32"},{"name":"expiry","type":"uint256","internalType":"uint256"}]}],"outputs":[],"stateMutability":"nonpayable"},{"type":"function","name":"registryCoordinator","inputs":[],"outputs":[{"name":"","type":"address","internalType":"contract IRegistryCoordinator"}],"stateMutability":"view"},{"type":"function","name":"renounceOwnership","inputs":[],"outputs":[],"stateMutability":"nonpayable"},{"type":"function","name":"respondToTask","inputs":[{"name":"batchMerkleRoot","type":"bytes32","internalType":"bytes32"},{"name":"nonSignerStakesAndSignature","type":"tuple","internalType":"struct IBLSSignatureChecker.NonSignerStakesAndSignature","components":[{"name":"nonSignerQuorumBitmapIndices","type":"uint32[]","internalType":"uint32[]"},{"name":"nonSignerPubkeys","type":"tuple[]","internalType":"struct BN254.G1Point[]","components":[{"name":"X","type":"uint256","internalType":"uint256"},{"name":"Y","type":"uint256","internalType":"uint256"}]},{"name":"quorumApks","type":"tuple[]","internalType":"struct BN254.G1Point[]","components":[{"name":"X","type":"uint256","internalType":"uint256"},{"name":"Y","type":"uint256","internalType":"uint256"}]},{"name":"apkG2","type":"tuple","internalType":"struct BN254.G2Point","components":[{"name":"X","type":"uint256[2]","internalType":"uint256[2]"},{"name":"Y","type":"uint256[2]","internalType":"uint256[2]"}]},{"name":"sigma","type":"tuple","internalType":"struct BN254.G1Point","components":[{"name":"X","type":"uint256","internalType":"uint256"},{"name":"Y","type":"uint256","internalType":"uint256"}]},{"name":"quorumApkIndices","type":"uint32[]","internalType":"uint32[]"},{"name":"totalStakeIndices","type":"uint32[]","internalType":"uint32[]"},{"name":"nonSignerStakeIndices","type":"uint32[][]","internalType":"uint32[][]"}]}],"outputs":[],"stateMutability":"nonpayable"},{"type":"function","name":"rewardsInitiator","inputs":[],"outputs":[{"name":"","type":"address","internalType":"address"}],"stateMutability":"view"},{"type":"function","name":"setRewardsInitiator","inputs":[{"name":"newRewardsInitiator","type":"address","internalType":"address"}],"outputs":[],"stateMutability":"nonpayable"},{"type":"function","name":"setStaleStakesForbidden","inputs":[{"name":"value","type":"bool","internalType":"bool"}],"outputs":[],"stateMutability":"nonpayable"},{"type":"function","name":"stakeRegistry","inputs":[],"outputs":[{"name":"","type":"address","internalType":"contract IStakeRegistry"}],"stateMutability":"view"},{"type":"function","name":"staleStakesForbidden","inputs":[],"outputs":[{"name":"","type":"bool","internalType":"bool"}],"stateMutability":"view"},{"type":"function","name":"transferOwnership","inputs":[{"name":"newOwner","type":"address","internalType":"address"}],"outputs":[],"stateMutability":"nonpayable"},{"type":"function","name":"trySignatureAndApkVerification","inputs":[{"name":"msgHash","type":"bytes32","internalType":"bytes32"},{"name":"apk","type":"tuple","internalType":"struct BN254.G1Point","components":[{"name":"X","type":"uint256","internalType":"uint256"},{"name":"Y","type":"uint256","internalType":"uint256"}]},{"name":"apkG2","type":"tuple","internalType":"struct BN254.G2Point","components":[{"name":"X","type":"uint256[2]","internalType":"uint256[2]"},{"name":"Y","type":"uint256[2]","internalType":"uint256[2]"}]},{"name":"sigma","type":"tuple","internalType":"struct BN254.G1Point","components":[{"name":"X","type":"uint256","internalType":"uint256"},{"name":"Y","type":"uint256","internalType":"uint256"}]}],"outputs":[{"name":"pairingSuccessful","type":"bool","internalType":"bool"},{"name":"siganatureIsValid","type":"bool","internalType":"bool"}],"stateMutability":"view"},{"type":"function","name":"updateAVSMetadataURI","inputs":[{"name":"_metadataURI","type":"string","internalType":"string"}],"outputs":[],"stateMutability":"nonpayable"},{"type":"function","name":"verifyBatchInclusion","inputs":[{"name":"proofCommitment","type":"bytes32","internalType":"bytes32"},{"name":"pubInputCommitment","type":"bytes32","internalType":"bytes32"},{"name":"provingSystemAuxDataCommitment","type":"bytes32","internalType":"bytes32"},{"name":"proofGeneratorAddr","type":"bytes20","internalType":"bytes20"},{"name":"batchMerkleRoot","type":"bytes32","internalType":"bytes32"},{"name":"merkleProof","type":"bytes","internalType":"bytes"},{"name":"verificationDataBatchIndex","type":"uint256","internalType":"uint256"}],"outputs":[{"name":"","type":"bool","internalType":"bool"}],"stateMutability":"view"},{"type":"event","name":"BatchVerified","inputs":[{"name":"batchMerkleRoot","type":"bytes32","indexed":true,"internalType":"bytes32"}],"anonymous":false},{"type":"event","name":"Initialized","inputs":[{"name":"version","type":"uint8","indexed":false,"internalType":"uint8"}],"anonymous":false},{"type":"event","name":"NewBatch","inputs":[{"name":"batchMerkleRoot","type":"bytes32","indexed":true,"internalType":"bytes32"},{"name":"taskCreatedBlock","type":"uint32","indexed":false,"internalType":"uint32"},{"name":"batchDataPointer","type":"string","indexed":false,"internalType":"string"}],"anonymous":false},{"type":"event","name":"OwnershipTransferred","inputs":[{"name":"previousOwner","type":"address","indexed":true,"internalType":"address"},{"name":"newOwner","type":"address","indexed":true,"internalType":"address"}],"anonymous":false},{"type":"event","name":"RewardsInitiatorUpdated","inputs":[{"name":"prevRewardsInitiator","type":"address","indexed":false,"internalType":"address"},{"name":"newRewardsInitiator","type":"address","indexed":false,"internalType":"address"}],"anonymous":false},{"type":"event","name":"StaleStakesForbiddenUpdate","inputs":[{"name":"value","type":"bool","indexed":false,"internalType":"bool"}],"anonymous":false}],"bytecode":{"object":"0x6101806040523480156200001257600080fd5b5060405162004fc938038062004fc98339810160408190526200003591620002e5565b6001600160a01b0380851660805280841660a05280831660c052811660e0528184848284620000636200020a565b50505050806001600160a01b0316610100816001600160a01b031681525050806001600160a01b031663683048356040518163ffffffff1660e01b8152600401602060405180830381865afa158015620000c1573d6000803e3d6000fd5b505050506040513d601f19601f82011682018060405250810190620000e791906200034d565b6001600160a01b0316610120816001600160a01b031681525050806001600160a01b0316635df459466040518163ffffffff1660e01b8152600401602060405180830381865afa15801562000140573d6000803e3d6000fd5b505050506040513d601f19601f820116820180604052508101906200016691906200034d565b6001600160a01b0316610140816001600160a01b031681525050610120516001600160a01b031663df5cf7236040518163ffffffff1660e01b8152600401602060405180830381865afa158015620001c2573d6000803e3d6000fd5b505050506040513d601f19601f82011682018060405250810190620001e891906200034d565b6001600160a01b03166101605250620002006200020a565b5050505062000374565b600054610100900460ff1615620002775760405162461bcd60e51b815260206004820152602760248201527f496e697469616c697a61626c653a20636f6e747261637420697320696e697469604482015266616c697a696e6760c81b606482015260840160405180910390fd5b60005460ff9081161015620002ca576000805460ff191660ff9081179091556040519081527f7f26b83ff96e1f2b6a682f133852f6798a09c465da95921460cefb38474024989060200160405180910390a15b565b6001600160a01b0381168114620002e257600080fd5b50565b60008060008060808587031215620002fc57600080fd5b84516200030981620002cc565b60208601519094506200031c81620002cc565b60408601519093506200032f81620002cc565b60608601519092506200034281620002cc565b939692955090935050565b6000602082840312156200036057600080fd5b81516200036d81620002cc565b9392505050565b60805160a05160c05160e05161010051610120516101405161016051614b47620004826000396000818161059201526118600152600081816102ee0152611a7301526000818161033a01528181611c600152611e500152600081816103a1015281816110920152818161151c015281816116c30152611914015260008181610da701528181610f0201528181610f99015281816125f80152818161277b015261281a015260008181610bce01528181610c5d01528181610cdd015281816122410152818161230d0152818161253601526126d6015260008181612bfe01528181612cba0152612da601526000818161036b015281816122950152818161236901526123e80152614b476000f3fe6080604052600436106101a05760003560e01c80638da5cb5b116100ec578063c4d66de81161008a578063f2fde38b11610064578063f2fde38b146105c9578063fa534dc0146105e9578063fc299dee14610609578063fce36c7d1461062957600080fd5b8063c4d66de814610560578063df5cf72314610580578063e481af9d146105b457600080fd5b8063a364f4da116100c6578063a364f4da1461048a578063a98fb355146104aa578063b099627e146104ca578063b98d09081461054657600080fd5b80638da5cb5b1461041c57806395c6d6041461043a5780639926ee7d1461046a57600080fd5b80635c008994116101595780636b3aa72e116101335780636b3aa72e1461035c5780636d14a9871461038f57806370a08231146103c3578063715018a61461040757600080fd5b80635c008994146102c95780635df45946146102dc578063683048351461032857600080fd5b8063171f1d5b146101d05780632dd94eba1461020c57806333cfb7b71461022e5780633bc28c8c1461025b578063416c7e5e1461027b5780634ae07c371461029b57600080fd5b366101cb5733600090815260ca6020526040812080543492906101c4908490613b90565b9091555050005b600080fd5b3480156101dc57600080fd5b506101f06101eb366004613cf9565b610649565b6040805192151583529015156020830152015b60405180910390f35b34801561021857600080fd5b5061022c610227366004614000565b6107d3565b005b34801561023a57600080fd5b5061024e61024936600461405b565b610ba9565b6040516102039190614078565b34801561026757600080fd5b5061022c61027636600461405b565b61107c565b34801561028757600080fd5b5061022c6102963660046140d3565b611090565b3480156102a757600080fd5b506102bb6102b63660046140f0565b6111c7565b60405161020392919061418a565b61022c6102d736600461421b565b61211a565b3480156102e857600080fd5b506103107f000000000000000000000000000000000000000000000000000000000000000081565b6040516001600160a01b039091168152602001610203565b34801561033457600080fd5b506103107f000000000000000000000000000000000000000000000000000000000000000081565b34801561036857600080fd5b507f0000000000000000000000000000000000000000000000000000000000000000610310565b34801561039b57600080fd5b506103107f000000000000000000000000000000000000000000000000000000000000000081565b3480156103cf57600080fd5b506103f96103de36600461405b565b6001600160a01b0316600090815260ca602052604090205490565b604051908152602001610203565b34801561041357600080fd5b5061022c6121fd565b34801561042857600080fd5b506033546001600160a01b0316610310565b34801561044657600080fd5b5061045a610455366004614266565b612211565b6040519015158152602001610203565b34801561047657600080fd5b5061022c61048536600461432f565b612236565b34801561049657600080fd5b5061022c6104a536600461405b565b612302565b3480156104b657600080fd5b5061022c6104c53660046143da565b6123c9565b3480156104d657600080fd5b5061051a6104e536600461442a565b60c9602052600090815260409020546001600160a01b03811690600160a01b810463ffffffff1690600160c01b900460ff1683565b604080516001600160a01b03909416845263ffffffff9092166020840152151590820152606001610203565b34801561055257600080fd5b5060975461045a9060ff1681565b34801561056c57600080fd5b5061022c61057b36600461405b565b61241d565b34801561058c57600080fd5b506103107f000000000000000000000000000000000000000000000000000000000000000081565b3480156105c057600080fd5b5061024e612530565b3480156105d557600080fd5b5061022c6105e436600461405b565b6128f9565b3480156105f557600080fd5b5061045a610604366004614443565b61296f565b34801561061557600080fd5b50606554610310906001600160a01b031681565b34801561063557600080fd5b5061022c6106443660046144d4565b612a25565b60008060007f30644e72e131a029b85045b68181585d2833e84879b9709143e1f593f00000018787600001518860200151886000015160006002811061069157610691614548565b60200201518951600160200201518a602001516000600281106106b6576106b6614548565b60200201518b602001516001600281106106d2576106d2614548565b602090810291909101518c518d83015160405161072f9a99989796959401988952602089019790975260408801959095526060870193909352608086019190915260a085015260c084015260e08301526101008201526101200190565b6040516020818303038152906040528051906020012060001c610752919061455e565b90506107c561076b6107648884612ddd565b8690612e74565b610773612f08565b6107bb6107ac856107a6604080518082018252600080825260209182015281518083019092526001825260029082015290565b90612ddd565b6107b58c612fc8565b90612e74565b886201d4c0613058565b909890975095505050505050565b60005a600084815260c96020526040902054909150600160a01b900463ffffffff1661083d5760405162461bcd60e51b8152602060048201526014602482015273426174636820646f65736e27742065786973747360601b60448201526064015b60405180910390fd5b600083815260c96020526040902054600160c01b900460ff16156108a35760405162461bcd60e51b815260206004820152601760248201527f426174636820616c726561647920726573706f6e6465640000000000000000006044820152606401610834565b600083815260c960209081526040808320546001600160a01b0316835260ca90915290205461090d5760405162461bcd60e51b81526020600482015260166024820152754261746368657220686173206e6f2062616c616e636560501b6044820152606401610834565b600083815260c960205260408120805460ff60c01b1916600160c01b1790819055819061094a90869063ffffffff600160a01b90910416866111c7565b91509150604360ff16826020015160008151811061096a5761096a614548565b602002602001015161097c9190614580565b6001600160601b03166064836000015160008151811061099e5761099e614548565b60200260200101516001600160601b03166109b991906145af565b1015610a2f576040805162461bcd60e51b81526020600482015260248101919091527f5369676e61746f7269657320646f206e6f74206f776e206174206c656173742060448201527f7468726573686f6c642070657263656e74616765206f6620612071756f72756d6064820152608401610834565b60405185907f433ae0767fe95db70a0e30eda902926e41203b9eb97ec5175076fb9e2d35c13e90600090a260005a905060003a610a6c83876145ce565b610a799062011170613b90565b610a8391906145af565b600088815260c960209081526040808320546001600160a01b0316835260ca909152902054909150811115610b205760405162461bcd60e51b815260206004820152603c60248201527f4261746368657220686173206e6f742073756666696369656e742066756e647360448201527f20666f7220706179696e672074686973207472616e73616374696f6e000000006064820152608401610834565b600087815260c960209081526040808320546001600160a01b0316835260ca90915281208054839290610b549084906145ce565b9091555050600087815260c9602052604080822080546001600160a01b031916905551339183156108fc02918491818181858888f19350505050158015610b9f573d6000803e3d6000fd5b5050505050505050565b6040516309aa152760e11b81526001600160a01b0382811660048301526060916000917f000000000000000000000000000000000000000000000000000000000000000016906313542a4e90602401602060405180830381865afa158015610c15573d6000803e3d6000fd5b505050506040513d601f19601f82011682018060405250810190610c3991906145e5565b60405163871ef04960e01b8152600481018290529091506000906001600160a01b037f0000000000000000000000000000000000000000000000000000000000000000169063871ef04990602401602060405180830381865afa158015610ca4573d6000803e3d6000fd5b505050506040513d601f19601f82011682018060405250810190610cc891906145fe565b90506001600160c01b0381161580610d6257507f00000000000000000000000000000000000000000000000000000000000000006001600160a01b0316639aa1653d6040518163ffffffff1660e01b8152600401602060405180830381865afa158015610d39573d6000803e3d6000fd5b505050506040513d601f19601f82011682018060405250810190610d5d9190614627565b60ff16155b15610d825760408051600080825260208201909252905b50949350505050565b6000610d96826001600160c01b031661327c565b90506000805b8251811015610e6c577f00000000000000000000000000000000000000000000000000000000000000006001600160a01b0316633ca5a5f5848381518110610de657610de6614548565b01602001516040516001600160e01b031960e084901b16815260f89190911c6004820152602401602060405180830381865afa158015610e2a573d6000803e3d6000fd5b505050506040513d601f19601f82011682018060405250810190610e4e91906145e5565b610e589083613b90565b915080610e648161464a565b915050610d9c565b506000816001600160401b03811115610e8757610e87613ba8565b604051908082528060200260200182016040528015610eb0578160200160208202803683370190505b5090506000805b845181101561106f576000858281518110610ed457610ed4614548565b0160200151604051633ca5a5f560e01b815260f89190911c6004820181905291506000906001600160a01b037f00000000000000000000000000000000000000000000000000000000000000001690633ca5a5f590602401602060405180830381865afa158015610f49573d6000803e3d6000fd5b505050506040513d601f19601f82011682018060405250810190610f6d91906145e5565b905060005b81811015611059576040516356e4026d60e11b815260ff84166004820152602481018290527f00000000000000000000000000000000000000000000000000000000000000006001600160a01b03169063adc804da906044016040805180830381865afa158015610fe7573d6000803e3d6000fd5b505050506040513d601f19601f8201168201806040525081019061100b919061467a565b6000015186868151811061102157611021614548565b6001600160a01b0390921660209283029190910190910152846110438161464a565b95505080806110519061464a565b915050610f72565b50505080806110679061464a565b915050610eb7565b5090979650505050505050565b61108461333e565b61108d81613398565b50565b7f00000000000000000000000000000000000000000000000000000000000000006001600160a01b0316638da5cb5b6040518163ffffffff1660e01b8152600401602060405180830381865afa1580156110ee573d6000803e3d6000fd5b505050506040513d601f19601f8201168201806040525081019061111291906146bb565b6001600160a01b0316336001600160a01b0316146111be5760405162461bcd60e51b815260206004820152605c60248201527f424c535369676e6174757265436865636b65722e6f6e6c79436f6f7264696e6160448201527f746f724f776e65723a2063616c6c6572206973206e6f7420746865206f776e6560648201527f72206f6620746865207265676973747279436f6f7264696e61746f7200000000608482015260a401610834565b61108d81613401565b6040805180820190915260608082526020820152600082604001515160405180604001604052806001815260200160008152505114801561122357508260a0015151604051806040016040528060018152602001600081525051145b801561124a57508260c0015151604051806040016040528060018152602001600081525051145b801561127157508260e0015151604051806040016040528060018152602001600081525051145b6112db5760405162461bcd60e51b81526020600482015260416024820152600080516020614af283398151915260448201527f7265733a20696e7075742071756f72756d206c656e677468206d69736d6174636064820152600d60fb1b608482015260a401610834565b825151602084015151146113535760405162461bcd60e51b815260206004820152604460248201819052600080516020614af2833981519152908201527f7265733a20696e707574206e6f6e7369676e6572206c656e677468206d69736d6064820152630c2e8c6d60e31b608482015260a401610834565b4363ffffffff168463ffffffff16106113c25760405162461bcd60e51b815260206004820152603c6024820152600080516020614af283398151915260448201527f7265733a20696e76616c6964207265666572656e636520626c6f636b000000006064820152608401610834565b60408051808201825260008082526020808301829052835180850185526060808252818301528451808601865260018082529083019390935284518381528086019095529293919082810190803683370190505060208281019190915260408051808201825260018082526000919093015280518281528082019091529081602001602082028036833701905050815260408051808201909152606080825260208201528560200151516001600160401b0381111561148357611483613ba8565b6040519080825280602002602001820160405280156114ac578160200160208202803683370190505b5081526020860151516001600160401b038111156114cc576114cc613ba8565b6040519080825280602002602001820160405280156114f5578160200160208202803683370190505b50816020018190525060006115a160405180604001604052806001815260200160008152507f00000000000000000000000000000000000000000000000000000000000000006001600160a01b0316639aa1653d6040518163ffffffff1660e01b8152600401602060405180830381865afa158015611578573d6000803e3d6000fd5b505050506040513d601f19601f8201168201806040525081019061159c9190614627565b613448565b905060005b87602001515181101561183c576115eb886020015182815181106115cc576115cc614548565b6020026020010151805160009081526020918201519091526040902090565b8360200151828151811061160157611601614548565b602090810291909101015280156116c15760208301516116226001836145ce565b8151811061163257611632614548565b602002602001015160001c8360200151828151811061165357611653614548565b602002602001015160001c116116c1576040805162461bcd60e51b8152602060048201526024810191909152600080516020614af283398151915260448201527f7265733a206e6f6e5369676e65725075626b657973206e6f7420736f727465646064820152608401610834565b7f00000000000000000000000000000000000000000000000000000000000000006001600160a01b03166304ec63518460200151838151811061170657611706614548565b60200260200101518b8b60000151858151811061172557611725614548565b60200260200101516040518463ffffffff1660e01b81526004016117629392919092835263ffffffff918216602084015216604082015260600190565b602060405180830381865afa15801561177f573d6000803e3d6000fd5b505050506040513d601f19601f820116820180604052508101906117a391906145fe565b6001600160c01b0316836000015182815181106117c2576117c2614548565b6020026020010181815250506118286107646117fc84866000015185815181106117ee576117ee614548565b6020026020010151166134db565b8a60200151848151811061181257611812614548565b602002602001015161350690919063ffffffff16565b9450806118348161464a565b9150506115a6565b5050611847836135ea565b60975490935060ff1660008161185e5760006118e0565b7f00000000000000000000000000000000000000000000000000000000000000006001600160a01b031663c448feb86040518163ffffffff1660e01b8152600401602060405180830381865afa1580156118bc573d6000803e3d6000fd5b505050506040513d601f19601f820116820180604052508101906118e091906145e5565b905060005b604051806040016040528060018152602001600081525051811015611feb578215611a71578963ffffffff16827f00000000000000000000000000000000000000000000000000000000000000006001600160a01b031663249a0c426040518060400160405280600181526020016000815250858151811061196957611969614548565b01602001516040516001600160e01b031960e084901b16815260f89190911c6004820152602401602060405180830381865afa1580156119ad573d6000803e3d6000fd5b505050506040513d601f19601f820116820180604052508101906119d191906145e5565b6119db9190613b90565b11611a715760405162461bcd60e51b81526020600482015260666024820152600080516020614af283398151915260448201527f7265733a205374616b6552656769737472792075706461746573206d7573742060648201527f62652077697468696e207769746864726177616c44656c6179426c6f636b732060848201526577696e646f7760d01b60a482015260c401610834565b7f00000000000000000000000000000000000000000000000000000000000000006001600160a01b03166368bccaac60405180604001604052806001815260200160008152508381518110611ac857611ac8614548565b602001015160f81c60f81b60f81c8c8c60a001518581518110611aed57611aed614548565b60209081029190910101516040516001600160e01b031960e086901b16815260ff909316600484015263ffffffff9182166024840152166044820152606401602060405180830381865afa158015611b49573d6000803e3d6000fd5b505050506040513d601f19601f82011682018060405250810190611b6d91906146d8565b6001600160401b031916611b908a6040015183815181106115cc576115cc614548565b67ffffffffffffffff191614611c2c5760405162461bcd60e51b81526020600482015260616024820152600080516020614af283398151915260448201527f7265733a2071756f72756d41706b206861736820696e2073746f72616765206460648201527f6f6573206e6f74206d617463682070726f76696465642071756f72756d2061706084820152606b60f81b60a482015260c401610834565b611c5c89604001518281518110611c4557611c45614548565b602002602001015187612e7490919063ffffffff16565b95507f00000000000000000000000000000000000000000000000000000000000000006001600160a01b031663c8294c5660405180604001604052806001815260200160008152508381518110611cb557611cb5614548565b602001015160f81c60f81b60f81c8c8c60c001518581518110611cda57611cda614548565b60209081029190910101516040516001600160e01b031960e086901b16815260ff909316600484015263ffffffff9182166024840152166044820152606401602060405180830381865afa158015611d36573d6000803e3d6000fd5b505050506040513d601f19601f82011682018060405250810190611d5a9190614703565b85602001518281518110611d7057611d70614548565b6001600160601b03909216602092830291909101820152850151805182908110611d9c57611d9c614548565b602002602001015185600001518281518110611dba57611dba614548565b60200260200101906001600160601b031690816001600160601b0316815250506000805b8a6020015151811015611fd657611e4986600001518281518110611e0457611e04614548565b602002602001015160405180604001604052806001815260200160008152508581518110611e3457611e34614548565b016020015160f81c60ff161c60019081161490565b15611fc4577f00000000000000000000000000000000000000000000000000000000000000006001600160a01b031663f2be94ae60405180604001604052806001815260200160008152508581518110611ea557611ea5614548565b602001015160f81c60f81b60f81c8e89602001518581518110611eca57611eca614548565b60200260200101518f60e001518881518110611ee857611ee8614548565b60200260200101518781518110611f0157611f01614548565b60209081029190910101516040516001600160e01b031960e087901b16815260ff909416600485015263ffffffff92831660248501526044840191909152166064820152608401602060405180830381865afa158015611f65573d6000803e3d6000fd5b505050506040513d601f19601f82011682018060405250810190611f899190614703565b8751805185908110611f9d57611f9d614548565b60200260200101818151611fb19190614720565b6001600160601b03169052506001909101905b80611fce8161464a565b915050611dde565b50508080611fe39061464a565b9150506118e5565b5050506000806120058a868a606001518b60800151610649565b91509150816120765760405162461bcd60e51b81526020600482015260436024820152600080516020614af283398151915260448201527f7265733a2070616972696e6720707265636f6d70696c652063616c6c206661696064820152621b195960ea1b608482015260a401610834565b806120d75760405162461bcd60e51b81526020600482015260396024820152600080516020614af283398151915260448201527f7265733a207369676e617475726520697320696e76616c6964000000000000006064820152608401610834565b505060008782602001516040516020016120f2929190614748565b60408051808303601f1901815291905280516020909101209299929850919650505050505050565b34156121455733600090815260ca60205260408120805434929061213f908490613b90565b90915550505b60408051606081018252600081830181815233835263ffffffff4381811660208087019182528a865260c990529386902085518154955194511515600160c01b0260ff60c01b1995909416600160a01b026001600160c01b03199096166001600160a01b03909116179490941792909216179091559151909185917f1871c33134a542e0ab9facf7013d27b9ed95e64d299e9919ee091c9cfcb19fa5916121ef9187908790614790565b60405180910390a250505050565b61220561333e565b61220f6000613685565b565b60008184846040516122249291906147cc565b60405180910390201490509392505050565b336001600160a01b037f0000000000000000000000000000000000000000000000000000000000000000161461227e5760405162461bcd60e51b8152600401610834906147dc565b604051639926ee7d60e01b81526001600160a01b037f00000000000000000000000000000000000000000000000000000000000000001690639926ee7d906122cc90859085906004016148a1565b600060405180830381600087803b1580156122e657600080fd5b505af11580156122fa573d6000803e3d6000fd5b505050505050565b336001600160a01b037f0000000000000000000000000000000000000000000000000000000000000000161461234a5760405162461bcd60e51b8152600401610834906147dc565b6040516351b27a6d60e11b81526001600160a01b0382811660048301527f0000000000000000000000000000000000000000000000000000000000000000169063a364f4da906024015b600060405180830381600087803b1580156123ae57600080fd5b505af11580156123c2573d6000803e3d6000fd5b5050505050565b6123d161333e565b60405163a98fb35560e01b81526001600160a01b037f0000000000000000000000000000000000000000000000000000000000000000169063a98fb355906123949084906004016148ec565b600054610100900460ff161580801561243d5750600054600160ff909116105b806124575750303b158015612457575060005460ff166001145b6124ba5760405162461bcd60e51b815260206004820152602e60248201527f496e697469616c697a61626c653a20636f6e747261637420697320616c72656160448201526d191e481a5b9a5d1a585b1a5e995960921b6064820152608401610834565b6000805460ff1916600117905580156124dd576000805461ff0019166101001790555b6124e682613685565b801561252c576000805461ff0019169055604051600181527f7f26b83ff96e1f2b6a682f133852f6798a09c465da95921460cefb38474024989060200160405180910390a15b5050565b606060007f00000000000000000000000000000000000000000000000000000000000000006001600160a01b0316639aa1653d6040518163ffffffff1660e01b8152600401602060405180830381865afa158015612592573d6000803e3d6000fd5b505050506040513d601f19601f820116820180604052508101906125b69190614627565b60ff169050806125d457505060408051600081526020810190915290565b6000805b8281101561268957604051633ca5a5f560e01b815260ff821660048201527f00000000000000000000000000000000000000000000000000000000000000006001600160a01b031690633ca5a5f590602401602060405180830381865afa158015612647573d6000803e3d6000fd5b505050506040513d601f19601f8201168201806040525081019061266b91906145e5565b6126759083613b90565b9150806126818161464a565b9150506125d8565b506000816001600160401b038111156126a4576126a4613ba8565b6040519080825280602002602001820160405280156126cd578160200160208202803683370190505b5090506000805b7f00000000000000000000000000000000000000000000000000000000000000006001600160a01b0316639aa1653d6040518163ffffffff1660e01b8152600401602060405180830381865afa158015612732573d6000803e3d6000fd5b505050506040513d601f19601f820116820180604052508101906127569190614627565b60ff168110156128ef57604051633ca5a5f560e01b815260ff821660048201526000907f00000000000000000000000000000000000000000000000000000000000000006001600160a01b031690633ca5a5f590602401602060405180830381865afa1580156127ca573d6000803e3d6000fd5b505050506040513d601f19601f820116820180604052508101906127ee91906145e5565b905060005b818110156128da576040516356e4026d60e11b815260ff84166004820152602481018290527f00000000000000000000000000000000000000000000000000000000000000006001600160a01b03169063adc804da906044016040805180830381865afa158015612868573d6000803e3d6000fd5b505050506040513d601f19601f8201168201806040525081019061288c919061467a565b600001518585815181106128a2576128a2614548565b6001600160a01b0390921660209283029190910190910152836128c48161464a565b94505080806128d29061464a565b9150506127f3565b505080806128e79061464a565b9150506126d4565b5090949350505050565b61290161333e565b6001600160a01b0381166129665760405162461bcd60e51b815260206004820152602660248201527f4f776e61626c653a206e6577206f776e657220697320746865207a65726f206160448201526564647265737360d01b6064820152608401610834565b61108d81613685565b600083815260c96020526040812054600160a01b900463ffffffff1661299757506000612a1a565b600084815260c96020526040902054600160c01b900460ff166129bc57506000612a1a565b60408051602081018a9052908101889052606081018790526bffffffffffffffffffffffff198616608082015260009060940160408051601f1981840301815291905280516020820120909150612a15858783876136d7565b925050505b979650505050505050565b6065546001600160a01b03163314612aba5760405162461bcd60e51b815260206004820152604c60248201527f536572766963654d616e61676572426173652e6f6e6c7952657761726473496e60448201527f69746961746f723a2063616c6c6572206973206e6f742074686520726577617260648201526b32399034b734ba34b0ba37b960a11b608482015260a401610834565b60005b81811015612d8e57828282818110612ad757612ad7614548565b9050602002810190612ae991906148ff565b612afa90604081019060200161405b565b6001600160a01b03166323b872dd3330868686818110612b1c57612b1c614548565b9050602002810190612b2e91906148ff565b604080516001600160e01b031960e087901b1681526001600160a01b039485166004820152939092166024840152013560448201526064016020604051808303816000875af1158015612b85573d6000803e3d6000fd5b505050506040513d601f19601f82011682018060405250810190612ba9919061492a565b506000838383818110612bbe57612bbe614548565b9050602002810190612bd091906148ff565b612be190604081019060200161405b565b604051636eb1769f60e11b81523060048201526001600160a01b037f000000000000000000000000000000000000000000000000000000000000000081166024830152919091169063dd62ed3e90604401602060405180830381865afa158015612c4f573d6000803e3d6000fd5b505050506040513d601f19601f82011682018060405250810190612c7391906145e5565b9050838383818110612c8757612c87614548565b9050602002810190612c9991906148ff565b612caa90604081019060200161405b565b6001600160a01b031663095ea7b37f000000000000000000000000000000000000000000000000000000000000000083878787818110612cec57612cec614548565b9050602002810190612cfe91906148ff565b60400135612d0c9190613b90565b6040516001600160e01b031960e085901b1681526001600160a01b03909216600483015260248201526044016020604051808303816000875af1158015612d57573d6000803e3d6000fd5b505050506040513d601f19601f82011682018060405250810190612d7b919061492a565b505080612d879061464a565b9050612abd565b5060405163fce36c7d60e01b81526001600160a01b037f0000000000000000000000000000000000000000000000000000000000000000169063fce36c7d906122cc90859085906004016149a2565b6040805180820190915260008082526020820152612df9613aa0565b835181526020808501519082015260408082018490526000908360608460076107d05a03fa9050808015612e2c57612e2e565bfe5b5080612e6c5760405162461bcd60e51b815260206004820152600d60248201526c1958cb5b5d5b0b59985a5b1959609a1b6044820152606401610834565b505092915050565b6040805180820190915260008082526020820152612e90613abe565b835181526020808501518183015283516040808401919091529084015160608301526000908360808460066107d05a03fa9050808015612e2c575080612e6c5760405162461bcd60e51b815260206004820152600d60248201526c1958cb5859190b59985a5b1959609a1b6044820152606401610834565b612f10613adc565b50604080516080810182527f198e9393920d483a7260bfb731fb5d25f1aa493335a9e71297e485b7aef312c28183019081527f1800deef121f1e76426a00665e5c4479674322d4f75edadd46debd5cd992f6ed6060830152815281518083019092527f275dc4a288d1afb3cbb1ac09187524c7db36395df7be3b99e673b13a075a65ec82527f1d9befcd05a5323e6da4d435f3b617cdb3af83285c2df711ef39c01571827f9d60208381019190915281019190915290565b604080518082019091526000808252602082015260008080612ff8600080516020614ad28339815191528661455e565b90505b613004816136ef565b9093509150600080516020614ad283398151915282830983141561303e576040805180820190915290815260208101919091529392505050565b600080516020614ad2833981519152600182089050612ffb565b60408051808201825286815260208082018690528251808401909352868352820184905260009182919061308a613b01565b60005b600281101561324f5760006130a38260066145af565b90508482600281106130b7576130b7614548565b602002015151836130c9836000613b90565b600c81106130d9576130d9614548565b60200201528482600281106130f0576130f0614548565b602002015160200151838260016131079190613b90565b600c811061311757613117614548565b602002015283826002811061312e5761312e614548565b6020020151515183613141836002613b90565b600c811061315157613151614548565b602002015283826002811061316857613168614548565b6020020151516001602002015183613181836003613b90565b600c811061319157613191614548565b60200201528382600281106131a8576131a8614548565b6020020151602001516000600281106131c3576131c3614548565b6020020151836131d4836004613b90565b600c81106131e4576131e4614548565b60200201528382600281106131fb576131fb614548565b60200201516020015160016002811061321657613216614548565b602002015183613227836005613b90565b600c811061323757613237614548565b602002015250806132478161464a565b91505061308d565b50613258613b20565b60006020826101808560088cfa9151919c9115159b50909950505050505050505050565b606060008061328a846134db565b61ffff166001600160401b038111156132a5576132a5613ba8565b6040519080825280601f01601f1916602001820160405280156132cf576020820181803683370190505b5090506000805b8251821080156132e7575061010081105b156128ef576001811b93508584161561332e578060f81b83838151811061331057613310614548565b60200101906001600160f81b031916908160001a9053508160010191505b6133378161464a565b90506132d6565b6033546001600160a01b0316331461220f5760405162461bcd60e51b815260206004820181905260248201527f4f776e61626c653a2063616c6c6572206973206e6f7420746865206f776e65726044820152606401610834565b606554604080516001600160a01b03928316815291831660208301527fe11cddf1816a43318ca175bbc52cd0185436e9cbead7c83acc54a73e461717e3910160405180910390a1606580546001600160a01b0319166001600160a01b0392909216919091179055565b6097805460ff19168215159081179091556040519081527f40e4ed880a29e0f6ddce307457fb75cddf4feef7d3ecb0301bfdf4976a0e2dfc9060200160405180910390a150565b60008061345484613771565b9050808360ff166001901b116134d25760405162461bcd60e51b815260206004820152603f60248201527f4269746d61705574696c732e6f72646572656442797465734172726179546f4260448201527f69746d61703a206269746d61702065786365656473206d61782076616c7565006064820152608401610834565b90505b92915050565b6000805b82156134d5576134f06001846145ce565b90921691806134fe81614aaf565b9150506134df565b60408051808201909152600080825260208201526102008261ffff16106135625760405162461bcd60e51b815260206004820152601060248201526f7363616c61722d746f6f2d6c6172676560801b6044820152606401610834565b8161ffff16600114156135765750816134d5565b6040805180820190915260008082526020820181905284906001905b8161ffff168661ffff16106135df57600161ffff871660ff83161c811614156135c2576135bf8484612e74565b93505b6135cc8384612e74565b92506201fffe600192831b169101613592565b509195945050505050565b6040805180820190915260008082526020820152815115801561360f57506020820151155b1561362d575050604080518082019091526000808252602082015290565b604051806040016040528083600001518152602001600080516020614ad28339815191528460200151613660919061455e565b61367890600080516020614ad28339815191526145ce565b905292915050565b919050565b603380546001600160a01b038381166001600160a01b0319831681179093556040519116919082907f8be0079c531659141344cd1fd0a4f28419497f9722a3daafe3b4186f6b6457e090600090a35050565b6000836136e58685856138fe565b1495945050505050565b60008080600080516020614ad28339815191526003600080516020614ad283398151915286600080516020614ad2833981519152888909090890506000613765827f0c19139cb84c680a6e14116da060561765e05aa45a1c72a34f082305b61f3f52600080516020614ad28339815191526139f8565b91959194509092505050565b6000610100825111156137fa5760405162461bcd60e51b8152602060048201526044602482018190527f4269746d61705574696c732e6f72646572656442797465734172726179546f42908201527f69746d61703a206f7264657265644279746573417272617920697320746f6f206064820152636c6f6e6760e01b608482015260a401610834565b815161380857506000919050565b6000808360008151811061381e5761381e614548565b0160200151600160f89190911c81901b92505b84518110156138f55784818151811061384c5761384c614548565b0160200151600160f89190911c1b91508282116138e15760405162461bcd60e51b815260206004820152604760248201527f4269746d61705574696c732e6f72646572656442797465734172726179546f4260448201527f69746d61703a206f72646572656442797465734172726179206973206e6f74206064820152661bdc99195c995960ca1b608482015260a401610834565b918117916138ee8161464a565b9050613831565b50909392505050565b60006020845161390e919061455e565b156139955760405162461bcd60e51b815260206004820152604b60248201527f4d65726b6c652e70726f63657373496e636c7573696f6e50726f6f664b65636360448201527f616b3a2070726f6f66206c656e6774682073686f756c642062652061206d756c60648201526a3a34b836329037b310199960a91b608482015260a401610834565b8260205b85518111610d79576139ac60028561455e565b6139cd578160005280860151602052604060002091506002840493506139e6565b8086015160005281602052604060002091506002840493505b6139f1602082613b90565b9050613999565b600080613a03613b20565b613a0b613b3e565b602080825281810181905260408201819052606082018890526080820187905260a082018690528260c08360056107d05a03fa9250828015612e2c575082613a955760405162461bcd60e51b815260206004820152601a60248201527f424e3235342e6578704d6f643a2063616c6c206661696c7572650000000000006044820152606401610834565b505195945050505050565b60405180606001604052806003906020820280368337509192915050565b60405180608001604052806004906020820280368337509192915050565b6040518060400160405280613aef613b5c565b8152602001613afc613b5c565b905290565b604051806101800160405280600c906020820280368337509192915050565b60405180602001604052806001906020820280368337509192915050565b6040518060c001604052806006906020820280368337509192915050565b60405180604001604052806002906020820280368337509192915050565b634e487b7160e01b600052601160045260246000fd5b60008219821115613ba357613ba3613b7a565b500190565b634e487b7160e01b600052604160045260246000fd5b604080519081016001600160401b0381118282101715613be057613be0613ba8565b60405290565b60405161010081016001600160401b0381118282101715613be057613be0613ba8565b604051601f8201601f191681016001600160401b0381118282101715613c3157613c31613ba8565b604052919050565b600060408284031215613c4b57600080fd5b613c53613bbe565b9050813581526020820135602082015292915050565b600082601f830112613c7a57600080fd5b613c82613bbe565b806040840185811115613c9457600080fd5b845b81811015613cae578035845260209384019301613c96565b509095945050505050565b600060808284031215613ccb57600080fd5b613cd3613bbe565b9050613cdf8383613c69565b8152613cee8360408401613c69565b602082015292915050565b6000806000806101208587031215613d1057600080fd5b84359350613d218660208701613c39565b9250613d308660608701613cb9565b9150613d3f8660e08701613c39565b905092959194509250565b60006001600160401b03821115613d6357613d63613ba8565b5060051b60200190565b803563ffffffff8116811461368057600080fd5b600082601f830112613d9257600080fd5b81356020613da7613da283613d4a565b613c09565b82815260059290921b84018101918181019086841115613dc657600080fd5b8286015b84811015613de857613ddb81613d6d565b8352918301918301613dca565b509695505050505050565b600082601f830112613e0457600080fd5b81356020613e14613da283613d4a565b82815260069290921b84018101918181019086841115613e3357600080fd5b8286015b84811015613de857613e498882613c39565b835291830191604001613e37565b600082601f830112613e6857600080fd5b81356020613e78613da283613d4a565b82815260059290921b84018101918181019086841115613e9757600080fd5b8286015b84811015613de85780356001600160401b03811115613eba5760008081fd5b613ec88986838b0101613d81565b845250918301918301613e9b565b60006101808284031215613ee957600080fd5b613ef1613be6565b905081356001600160401b0380821115613f0a57600080fd5b613f1685838601613d81565b83526020840135915080821115613f2c57600080fd5b613f3885838601613df3565b60208401526040840135915080821115613f5157600080fd5b613f5d85838601613df3565b6040840152613f6f8560608601613cb9565b6060840152613f818560e08601613c39565b6080840152610120840135915080821115613f9b57600080fd5b613fa785838601613d81565b60a0840152610140840135915080821115613fc157600080fd5b613fcd85838601613d81565b60c0840152610160840135915080821115613fe757600080fd5b50613ff484828501613e57565b60e08301525092915050565b6000806040838503121561401357600080fd5b8235915060208301356001600160401b0381111561403057600080fd5b61403c85828601613ed6565b9150509250929050565b6001600160a01b038116811461108d57600080fd5b60006020828403121561406d57600080fd5b81356134d281614046565b6020808252825182820181905260009190848201906040850190845b818110156140b95783516001600160a01b031683529284019291840191600101614094565b50909695505050505050565b801515811461108d57600080fd5b6000602082840312156140e557600080fd5b81356134d2816140c5565b60008060006060848603121561410557600080fd5b8335925061411560208501613d6d565b915060408401356001600160401b0381111561413057600080fd5b61413c86828701613ed6565b9150509250925092565b600081518084526020808501945080840160005b8381101561417f5781516001600160601b03168752958201959082019060010161415a565b509495945050505050565b60408152600083516040808401526141a56080840182614146565b90506020850151603f198483030160608501526141c28282614146565b925050508260208301529392505050565b60008083601f8401126141e557600080fd5b5081356001600160401b038111156141fc57600080fd5b60208301915083602082850101111561421457600080fd5b9250929050565b60008060006040848603121561423057600080fd5b8335925060208401356001600160401b0381111561424d57600080fd5b614259868287016141d3565b9497909650939450505050565b60008060006040848603121561427b57600080fd5b83356001600160401b0381111561429157600080fd5b61429d868287016141d3565b909790965060209590950135949350505050565b60006001600160401b038311156142ca576142ca613ba8565b6142dd601f8401601f1916602001613c09565b90508281528383830111156142f157600080fd5b828260208301376000602084830101529392505050565b600082601f83011261431957600080fd5b614328838335602085016142b1565b9392505050565b6000806040838503121561434257600080fd5b823561434d81614046565b915060208301356001600160401b038082111561436957600080fd5b908401906060828703121561437d57600080fd5b60405160608101818110838211171561439857614398613ba8565b6040528235828111156143aa57600080fd5b6143b688828601614308565b82525060208301356020820152604083013560408201528093505050509250929050565b6000602082840312156143ec57600080fd5b81356001600160401b0381111561440257600080fd5b8201601f8101841361441357600080fd5b614422848235602084016142b1565b949350505050565b60006020828403121561443c57600080fd5b5035919050565b600080600080600080600060e0888a03121561445e57600080fd5b87359650602088013595506040880135945060608801356bffffffffffffffffffffffff198116811461449057600080fd5b93506080880135925060a08801356001600160401b038111156144b257600080fd5b6144be8a828b01614308565b92505060c0880135905092959891949750929550565b600080602083850312156144e757600080fd5b82356001600160401b03808211156144fe57600080fd5b818501915085601f83011261451257600080fd5b81358181111561452157600080fd5b8660208260051b850101111561453657600080fd5b60209290920196919550909350505050565b634e487b7160e01b600052603260045260246000fd5b60008261457b57634e487b7160e01b600052601260045260246000fd5b500690565b60006001600160601b03808316818516818304811182151516156145a6576145a6613b7a565b02949350505050565b60008160001904831182151516156145c9576145c9613b7a565b500290565b6000828210156145e0576145e0613b7a565b500390565b6000602082840312156145f757600080fd5b5051919050565b60006020828403121561461057600080fd5b81516001600160c01b03811681146134d257600080fd5b60006020828403121561463957600080fd5b815160ff811681146134d257600080fd5b600060001982141561465e5761465e613b7a565b5060010190565b6001600160601b038116811461108d57600080fd5b60006040828403121561468c57600080fd5b614694613bbe565b825161469f81614046565b815260208301516146af81614665565b60208201529392505050565b6000602082840312156146cd57600080fd5b81516134d281614046565b6000602082840312156146ea57600080fd5b815167ffffffffffffffff19811681146134d257600080fd5b60006020828403121561471557600080fd5b81516134d281614665565b60006001600160601b038381169083168181101561474057614740613b7a565b039392505050565b63ffffffff60e01b8360e01b1681526000600482018351602080860160005b8381101561478357815185529382019390820190600101614767565b5092979650505050505050565b63ffffffff8416815260406020820152816040820152818360608301376000818301606090810191909152601f909201601f1916010192915050565b8183823760009101908152919050565b60208082526052908201527f536572766963654d616e61676572426173652e6f6e6c7952656769737472794360408201527f6f6f7264696e61746f723a2063616c6c6572206973206e6f742074686520726560608201527133b4b9ba393c9031b7b7b93234b730ba37b960711b608082015260a00190565b6000815180845260005b8181101561487a5760208185018101518683018201520161485e565b8181111561488c576000602083870101525b50601f01601f19169290920160200192915050565b60018060a01b03831681526040602082015260008251606060408401526148cb60a0840182614854565b90506020840151606084015260408401516080840152809150509392505050565b6020815260006143286020830184614854565b60008235609e1983360301811261491557600080fd5b9190910192915050565b803561368081614046565b60006020828403121561493c57600080fd5b81516134d2816140c5565b8183526000602080850194508260005b8581101561417f57813561496a81614046565b6001600160a01b031687528183013561498281614665565b6001600160601b0316878401526040968701969190910190600101614957565b60208082528181018390526000906040808401600586901b8501820187855b88811015614aa157878303603f190184528135368b9003609e190181126149e757600080fd5b8a0160a0813536839003601e19018112614a0057600080fd5b820180356001600160401b03811115614a1857600080fd5b8060061b3603841315614a2a57600080fd5b828752614a3c838801828c8501614947565b92505050614a4b88830161491f565b6001600160a01b03168886015281870135878601526060614a6d818401613d6d565b63ffffffff16908601526080614a84838201613d6d565b63ffffffff169501949094525092850192908501906001016149c1565b509098975050505050505050565b600061ffff80831681811415614ac757614ac7613b7a565b600101939250505056fe30644e72e131a029b85045b68181585d97816a916871ca8d3c208c16d87cfd47424c535369676e6174757265436865636b65722e636865636b5369676e617475a26469706673582212204d4c0136bb9416803ae3da4324a3b24c72808ebffe7e6461764e6770400fb84264736f6c634300080c0033","linkReferences":{}},"methodIdentifiers":{"avsDirectory()":"6b3aa72e","balanceOf(address)":"70a08231","batchesState(bytes32)":"b099627e","blsApkRegistry()":"5df45946","checkPublicInput(bytes,bytes32)":"95c6d604","checkSignatures(bytes32,uint32,(uint32[],(uint256,uint256)[],(uint256,uint256)[],(uint256[2],uint256[2]),(uint256,uint256),uint32[],uint32[],uint32[][]))":"4ae07c37","createAVSRewardsSubmission(((address,uint96)[],address,uint256,uint32,uint32)[])":"fce36c7d","createNewTask(bytes32,string)":"5c008994","delegation()":"df5cf723","deregisterOperatorFromAVS(address)":"a364f4da","getOperatorRestakedStrategies(address)":"33cfb7b7","getRestakeableStrategies()":"e481af9d","initialize(address)":"c4d66de8","owner()":"8da5cb5b","registerOperatorToAVS(address,(bytes,bytes32,uint256))":"9926ee7d","registryCoordinator()":"6d14a987","renounceOwnership()":"715018a6","respondToTask(bytes32,(uint32[],(uint256,uint256)[],(uint256,uint256)[],(uint256[2],uint256[2]),(uint256,uint256),uint32[],uint32[],uint32[][]))":"2dd94eba","rewardsInitiator()":"fc299dee","setRewardsInitiator(address)":"3bc28c8c","setStaleStakesForbidden(bool)":"416c7e5e","stakeRegistry()":"68304835","staleStakesForbidden()":"b98d0908","transferOwnership(address)":"f2fde38b","trySignatureAndApkVerification(bytes32,(uint256,uint256),(uint256[2],uint256[2]),(uint256,uint256))":"171f1d5b","updateAVSMetadataURI(string)":"a98fb355","verifyBatchInclusion(bytes32,bytes32,bytes32,bytes20,bytes32,bytes,uint256)":"fa534dc0"},"id":116}