{"abi":[{"type":"constructor","inputs":[],"stateMutability":"nonpayable"},{"type":"receive","stateMutability":"payable"},{"type":"function","name":"AlignedLayerServiceManager","inputs":[],"outputs":[{"name":"","type":"address","internalType":"address"}],"stateMutability":"view"},{"type":"function","name":"BatcherWallet","inputs":[],"outputs":[{"name":"","type":"address","internalType":"address"}],"stateMutability":"view"},{"type":"function","name":"UserBalances","inputs":[{"name":"","type":"address","internalType":"address"}],"outputs":[{"name":"","type":"uint256","internalType":"uint256"}],"stateMutability":"view"},{"type":"function","name":"checkMerkleRoot","inputs":[{"name":"leaves","type":"bytes32[]","internalType":"bytes32[]"},{"name":"batchMerkleRoot","type":"bytes32","internalType":"bytes32"}],"outputs":[],"stateMutability":"pure"},{"type":"function","name":"createNewTask","inputs":[{"name":"batchMerkleRoot","type":"bytes32","internalType":"bytes32"},{"name":"batchDataPointer","type":"string","internalType":"string"},{"name":"leaves","type":"bytes32[]","internalType":"bytes32[]"},{"name":"signatureData","type":"tuple[]","internalType":"struct BatcherPaymentService.SignatureData[]","components":[{"name":"r","type":"bytes32","internalType":"bytes32"},{"name":"s","type":"bytes32","internalType":"bytes32"},{"name":"v","type":"uint8","internalType":"uint8"}]},{"name":"gasForAggregator","type":"uint256","internalType":"uint256"},{"name":"gasPerProof","type":"uint256","internalType":"uint256"}],"outputs":[],"stateMutability":"nonpayable"},{"type":"function","name":"initialize","inputs":[{"name":"_AlignedLayerServiceManager","type":"address","internalType":"address"},{"name":"_BatcherPaymentServiceOwner","type":"address","internalType":"address"},{"name":"_BatcherWallet","type":"address","internalType":"address"}],"outputs":[],"stateMutability":"nonpayable"},{"type":"function","name":"owner","inputs":[],"outputs":[{"name":"","type":"address","internalType":"address"}],"stateMutability":"view"},{"type":"function","name":"pause","inputs":[],"outputs":[],"stateMutability":"nonpayable"},{"type":"function","name":"paused","inputs":[],"outputs":[{"name":"","type":"bool","internalType":"bool"}],"stateMutability":"view"},{"type":"function","name":"proxiableUUID","inputs":[],"outputs":[{"name":"","type":"bytes32","internalType":"bytes32"}],"stateMutability":"view"},{"type":"function","name":"renounceOwnership","inputs":[],"outputs":[],"stateMutability":"nonpayable"},{"type":"function","name":"transferOwnership","inputs":[{"name":"newOwner","type":"address","internalType":"address"}],"outputs":[],"stateMutability":"nonpayable"},{"type":"function","name":"unpause","inputs":[],"outputs":[],"stateMutability":"nonpayable"},{"type":"function","name":"upgradeTo","inputs":[{"name":"newImplementation","type":"address","internalType":"address"}],"outputs":[],"stateMutability":"nonpayable"},{"type":"function","name":"upgradeToAndCall","inputs":[{"name":"newImplementation","type":"address","internalType":"address"},{"name":"data","type":"bytes","internalType":"bytes"}],"outputs":[],"stateMutability":"payable"},{"type":"function","name":"withdraw","inputs":[{"name":"amount","type":"uint256","internalType":"uint256"}],"outputs":[],"stateMutability":"nonpayable"},{"type":"event","name":"AdminChanged","inputs":[{"name":"previousAdmin","type":"address","indexed":false,"internalType":"address"},{"name":"newAdmin","type":"address","indexed":false,"internalType":"address"}],"anonymous":false},{"type":"event","name":"BeaconUpgraded","inputs":[{"name":"beacon","type":"address","indexed":true,"internalType":"address"}],"anonymous":false},{"type":"event","name":"FundsWithdrawn","inputs":[{"name":"recipient","type":"address","indexed":true,"internalType":"address"},{"name":"amount","type":"uint256","indexed":false,"internalType":"uint256"}],"anonymous":false},{"type":"event","name":"Initialized","inputs":[{"name":"version","type":"uint8","indexed":false,"internalType":"uint8"}],"anonymous":false},{"type":"event","name":"OwnershipTransferred","inputs":[{"name":"previousOwner","type":"address","indexed":true,"internalType":"address"},{"name":"newOwner","type":"address","indexed":true,"internalType":"address"}],"anonymous":false},{"type":"event","name":"Paused","inputs":[{"name":"account","type":"address","indexed":false,"internalType":"address"}],"anonymous":false},{"type":"event","name":"PaymentReceived","inputs":[{"name":"sender","type":"address","indexed":true,"internalType":"address"},{"name":"amount","type":"uint256","indexed":false,"internalType":"uint256"}],"anonymous":false},{"type":"event","name":"Unpaused","inputs":[{"name":"account","type":"address","indexed":false,"internalType":"address"}],"anonymous":false},{"type":"event","name":"Upgraded","inputs":[{"name":"implementation","type":"address","indexed":true,"internalType":"address"}],"anonymous":false}],"bytecode":{"object":"0x60a06040523060805234801561001457600080fd5b5061001d610022565b6100e2565b600054610100900460ff161561008e5760405162461bcd60e51b815260206004820152602760248201527f496e697469616c697a61626c653a20636f6e747261637420697320696e697469604482015266616c697a696e6760c81b606482015260840160405180910390fd5b60005460ff90811610156100e0576000805460ff191660ff9081179091556040519081527f7f26b83ff96e1f2b6a682f133852f6798a09c465da95921460cefb38474024989060200160405180910390a15b565b608051611bd46101196000396000818161045b0152818161049b015281816107ad015281816107ed01526108800152611bd46000f3fe6080604052600436106100f75760003560e01c806377f3f7821161008a578063c0c53b8b11610059578063c0c53b8b146102da578063d3c7f833146102fa578063e0f858371461031a578063f2fde38b1461033a57600080fd5b806377f3f782146102465780638456cb59146102735780638da5cb5b14610288578063b5708230146102ba57600080fd5b80634f1ef286116100c65780634f1ef286146101d357806352d1902d146101e65780635c975abb1461020e578063715018a61461023157600080fd5b80632e1a7d4d1461015c5780633659cfe61461017e5780633f4ba83a1461019e57806347a523ef146101b357600080fd5b366101575733600090815260fd60205260408120805434929061011b9084906115ba565b909155505060405134815233907f6ef95f06320e7a25a04a175ca677b7052bdd97131872c2192525a629f51be7709060200160405180910390a2005b600080fd5b34801561016857600080fd5b5061017c6101773660046115d2565b61035a565b005b34801561018a57600080fd5b5061017c610199366004611607565b610450565b3480156101aa57600080fd5b5061017c610530565b3480156101bf57600080fd5b5061017c6101ce36600461166e565b610542565b61017c6101e13660046116d0565b6107a2565b3480156101f257600080fd5b506101fb610873565b6040519081526020015b60405180910390f35b34801561021a57600080fd5b5060655460ff166040519015158152602001610205565b34801561023d57600080fd5b5061017c610926565b34801561025257600080fd5b506101fb610261366004611607565b60fd6020526000908152604090205481565b34801561027f57600080fd5b5061017c610938565b34801561029457600080fd5b506033546001600160a01b03165b6040516001600160a01b039091168152602001610205565b3480156102c657600080fd5b5060fb546102a2906001600160a01b031681565b3480156102e657600080fd5b5061017c6102f5366004611792565b610948565b34801561030657600080fd5b5060fc546102a2906001600160a01b031681565b34801561032657600080fd5b5061017c61033536600461181a565b610a9d565b34801561034657600080fd5b5061017c610355366004611607565b610d86565b610362610dfc565b33600090815260fd60205260409020548111156103c65760405162461bcd60e51b815260206004820152601e60248201527f50617965722068617320696e73756666696369656e742062616c616e6365000060448201526064015b60405180910390fd5b33600090815260fd6020526040812080548392906103e59084906118fe565b9091555050604051339082156108fc029083906000818181858888f19350505050158015610417573d6000803e3d6000fd5b5060405181815233907feaff4b37086828766ad3268786972c0cd24259d4c87a80f9d3963a3c3d999b0d9060200160405180910390a250565b306001600160a01b037f00000000000000000000000000000000000000000000000000000000000000001614156104995760405162461bcd60e51b81526004016103bd90611915565b7f00000000000000000000000000000000000000000000000000000000000000006001600160a01b03166104e2600080516020611b58833981519152546001600160a01b031690565b6001600160a01b0316146105085760405162461bcd60e51b81526004016103bd90611961565b61051181610e42565b6040805160008082526020820190925261052d91839190610e4a565b50565b610538610fba565b610540611014565b565b600061054f6002846119ad565b905060008167ffffffffffffffff81111561056c5761056c6116ba565b604051908082528060200260200182016040528015610595578160200160208202803683370190505b50905060005b828110156106555785856105b08360026119cf565b8181106105bf576105bf6119ee565b9050602002013586868360026105d591906119cf565b6105e09060016115ba565b8181106105ef576105ef6119ee565b90506020020135604051602001610610929190918252602082015260400190565b60405160208183030381529060405280519060200120828281518110610638576106386119ee565b60209081029190910101528061064d81611a04565b91505061059b565b506106616002836119ad565b91505b811561073c5760005b8281101561072957816106818260026119cf565b81518110610691576106916119ee565b6020026020010151828260026106a791906119cf565b6106b29060016115ba565b815181106106c2576106c26119ee565b60200260200101516040516020016106e4929190918252602082015260400190565b6040516020818303038152906040528051906020012082828151811061070c5761070c6119ee565b60209081029190910101528061072181611a04565b91505061066d565b506107356002836119ad565b9150610664565b8281600081518110610750576107506119ee565b60200260200101511461079b5760405162461bcd60e51b8152602060048201526013602482015272125b9d985b1a59081b595c9adb19481c9bdbdd606a1b60448201526064016103bd565b5050505050565b306001600160a01b037f00000000000000000000000000000000000000000000000000000000000000001614156107eb5760405162461bcd60e51b81526004016103bd90611915565b7f00000000000000000000000000000000000000000000000000000000000000006001600160a01b0316610834600080516020611b58833981519152546001600160a01b031690565b6001600160a01b03161461085a5760405162461bcd60e51b81526004016103bd90611961565b61086382610e42565b61086f82826001610e4a565b5050565b6000306001600160a01b037f000000000000000000000000000000000000000000000000000000000000000016146109135760405162461bcd60e51b815260206004820152603860248201527f555550535570677261646561626c653a206d757374206e6f742062652063616c60448201527f6c6564207468726f7567682064656c656761746563616c6c000000000000000060648201526084016103bd565b50600080516020611b5883398151915290565b61092e610fba565b6105406000611066565b610940610fba565b6105406110b8565b600054610100900460ff16158080156109685750600054600160ff909116105b806109825750303b158015610982575060005460ff166001145b6109e55760405162461bcd60e51b815260206004820152602e60248201527f496e697469616c697a61626c653a20636f6e747261637420697320616c72656160448201526d191e481a5b9a5d1a585b1a5e995960921b60648201526084016103bd565b6000805460ff191660011790558015610a08576000805461ff0019166101001790555b610a106110f5565b610a18611124565b610a2183611066565b60fb80546001600160a01b038087166001600160a01b03199283161790925560fc8054928516929091169190911790558015610a97576000805461ff0019169055604051600181527f7f26b83ff96e1f2b6a682f133852f6798a09c465da95921460cefb38474024989060200160405180910390a15b50505050565b60fc546001600160a01b03163314610b035760405162461bcd60e51b815260206004820152602360248201527f4f6e6c7920426174636865722063616e2063616c6c20746869732066756e637460448201526234b7b760e91b60648201526084016103bd565b610b0b610dfc565b82851015610b4f5760405162461bcd60e51b81526020600482015260116024820152704e6f7420656e6f756768206c656176657360781b60448201526064016103bd565b6000610b5b3a846119cf565b90506000610b693a846119cf565b90508680610baf5760405162461bcd60e51b81526020600482015260136024820152724e6f2070726f6f66207375626d69747465727360681b60448201526064016103bd565b82610bba82846119cf565b11610c135760405162461bcd60e51b8152602060048201526024808201527f4e6f7420656e6f7567682067617320746f20706179207468652061676772656760448201526330ba37b960e11b60648201526084016103bd565b610c1e89898e610542565b610c2b898989898661114b565b600060fb60009054906101000a90046001600160a01b03166001600160a01b0316848e8e8e604051602401610c6293929190611a1f565b60408051601f198184030181529181526020820180516001600160e01b0316631700226560e21b17905251610c979190611a81565b60006040518083038185875af1925050503d8060008114610cd4576040519150601f19603f3d011682016040523d82523d6000602084013e610cd9565b606091505b5050905080610d2a5760405162461bcd60e51b815260206004820152601960248201527f6372656174654e65775461736b2063616c6c206661696c65640000000000000060448201526064016103bd565b60fc546001600160a01b03166108fc85610d4485876119cf565b610d4e91906118fe565b6040518115909202916000818181858888f19350505050158015610d76573d6000803e3d6000fd5b5050505050505050505050505050565b610d8e610fba565b6001600160a01b038116610df35760405162461bcd60e51b815260206004820152602660248201527f4f776e61626c653a206e6577206f776e657220697320746865207a65726f206160448201526564647265737360d01b60648201526084016103bd565b61052d81611066565b60655460ff16156105405760405162461bcd60e51b815260206004820152601060248201526f14185d5cd8589b194e881c185d5cd95960821b60448201526064016103bd565b61052d610fba565b7f4910fdfa16fed3260ed0e7147f7cc6da11a60208b5b9406d12a635614ffd91435460ff1615610e8257610e7d836112f6565b505050565b826001600160a01b03166352d1902d6040518163ffffffff1660e01b8152600401602060405180830381865afa925050508015610edc575060408051601f3d908101601f19168201909252610ed991810190611a9d565b60015b610f3f5760405162461bcd60e51b815260206004820152602e60248201527f45524331393637557067726164653a206e657720696d706c656d656e7461746960448201526d6f6e206973206e6f74205555505360901b60648201526084016103bd565b600080516020611b588339815191528114610fae5760405162461bcd60e51b815260206004820152602960248201527f45524331393637557067726164653a20756e737570706f727465642070726f786044820152681a58589b195555525160ba1b60648201526084016103bd565b50610e7d838383611392565b6033546001600160a01b031633146105405760405162461bcd60e51b815260206004820181905260248201527f4f776e61626c653a2063616c6c6572206973206e6f7420746865206f776e657260448201526064016103bd565b61101c6113b7565b6065805460ff191690557f5db9ee0a495bf2e6ff9c91a7834c1ba4fdd244a5e8aa4e537bd38aeae4b073aa335b6040516001600160a01b03909116815260200160405180910390a1565b603380546001600160a01b038381166001600160a01b0319831681179093556040519116919082907f8be0079c531659141344cd1fd0a4f28419497f9722a3daafe3b4186f6b6457e090600090a35050565b6110c0610dfc565b6065805460ff191660011790557f62e78cea01bee320cd4e420270b5ea74000d11b0c9f74754ebdbfc544b05a2586110493390565b600054610100900460ff1661111c5760405162461bcd60e51b81526004016103bd90611ab6565b610540611400565b600054610100900460ff166105405760405162461bcd60e51b81526004016103bd90611ab6565b6000805b838110156112ed57600187878381811061116b5761116b6119ee565b90506020020135868684818110611184576111846119ee565b905060600201604001602081019061119c9190611b01565b8787858181106111ae576111ae6119ee565b905060600201600001358888868181106111ca576111ca6119ee565b905060600201602001356040516000815260200160405260405161120a949392919093845260ff9290921660208401526040830152606082015260800190565b6020604051602081039080840390855afa15801561122c573d6000803e3d6000fd5b5050506020604051035191508260fd6000846001600160a01b03166001600160a01b031681526020019081526020016000205410156112ad5760405162461bcd60e51b815260206004820152601e60248201527f50617965722068617320696e73756666696369656e742062616c616e6365000060448201526064016103bd565b6001600160a01b038216600090815260fd6020526040812080548592906112d59084906118fe565b909155508190506112e581611a04565b91505061114f565b50505050505050565b6001600160a01b0381163b6113635760405162461bcd60e51b815260206004820152602d60248201527f455243313936373a206e657720696d706c656d656e746174696f6e206973206e60448201526c1bdd08184818dbdb9d1c9858dd609a1b60648201526084016103bd565b600080516020611b5883398151915280546001600160a01b0319166001600160a01b0392909216919091179055565b61139b83611430565b6000825111806113a85750805b15610e7d57610a978383611470565b60655460ff166105405760405162461bcd60e51b815260206004820152601460248201527314185d5cd8589b194e881b9bdd081c185d5cd95960621b60448201526064016103bd565b600054610100900460ff166114275760405162461bcd60e51b81526004016103bd90611ab6565b61054033611066565b611439816112f6565b6040516001600160a01b038216907fbc7cd75a20ee27fd9adebab32041f755214dbc6bffa90cc0225b39da2e5c2d3b90600090a250565b60606001600160a01b0383163b6114d85760405162461bcd60e51b815260206004820152602660248201527f416464726573733a2064656c65676174652063616c6c20746f206e6f6e2d636f6044820152651b9d1c9858dd60d21b60648201526084016103bd565b600080846001600160a01b0316846040516114f39190611a81565b600060405180830381855af49150503d806000811461152e576040519150601f19603f3d011682016040523d82523d6000602084013e611533565b606091505b509150915061155b8282604051806060016040528060278152602001611b7860279139611564565b95945050505050565b6060831561157357508161159d565b8251156115835782518084602001fd5b8160405162461bcd60e51b81526004016103bd9190611b24565b9392505050565b634e487b7160e01b600052601160045260246000fd5b600082198211156115cd576115cd6115a4565b500190565b6000602082840312156115e457600080fd5b5035919050565b80356001600160a01b038116811461160257600080fd5b919050565b60006020828403121561161957600080fd5b61159d826115eb565b60008083601f84011261163457600080fd5b50813567ffffffffffffffff81111561164c57600080fd5b6020830191508360208260051b850101111561166757600080fd5b9250929050565b60008060006040848603121561168357600080fd5b833567ffffffffffffffff81111561169a57600080fd5b6116a686828701611622565b909790965060209590950135949350505050565b634e487b7160e01b600052604160045260246000fd5b600080604083850312156116e357600080fd5b6116ec836115eb565b9150602083013567ffffffffffffffff8082111561170957600080fd5b818501915085601f83011261171d57600080fd5b81358181111561172f5761172f6116ba565b604051601f8201601f19908116603f01168101908382118183101715611757576117576116ba565b8160405282815288602084870101111561177057600080fd5b8260208601602083013760006020848301015280955050505050509250929050565b6000806000606084860312156117a757600080fd5b6117b0846115eb565b92506117be602085016115eb565b91506117cc604085016115eb565b90509250925092565b60008083601f8401126117e757600080fd5b50813567ffffffffffffffff8111156117ff57600080fd5b60208301915083602060608302850101111561166757600080fd5b600080600080600080600080600060c08a8c03121561183857600080fd5b8935985060208a013567ffffffffffffffff8082111561185757600080fd5b818c0191508c601f83011261186b57600080fd5b81358181111561187a57600080fd5b8d602082850101111561188c57600080fd5b602083019a508099505060408c01359150808211156118aa57600080fd5b6118b68d838e01611622565b909850965060608c01359150808211156118cf57600080fd5b506118dc8c828d016117d5565b9a9d999c50979a96999598959660808101359660a09091013595509350505050565b600082821015611910576119106115a4565b500390565b6020808252602c908201527f46756e6374696f6e206d7573742062652063616c6c6564207468726f7567682060408201526b19195b1959d85d1958d85b1b60a21b606082015260800190565b6020808252602c908201527f46756e6374696f6e206d7573742062652063616c6c6564207468726f7567682060408201526b6163746976652070726f787960a01b606082015260800190565b6000826119ca57634e487b7160e01b600052601260045260246000fd5b500490565b60008160001904831182151516156119e9576119e96115a4565b500290565b634e487b7160e01b600052603260045260246000fd5b6000600019821415611a1857611a186115a4565b5060010190565b83815260406020820152816040820152818360608301376000818301606090810191909152601f909201601f1916010192915050565b60005b83811015611a70578181015183820152602001611a58565b83811115610a975750506000910152565b60008251611a93818460208701611a55565b9190910192915050565b600060208284031215611aaf57600080fd5b5051919050565b6020808252602b908201527f496e697469616c697a61626c653a20636f6e7472616374206973206e6f74206960408201526a6e697469616c697a696e6760a81b606082015260800190565b600060208284031215611b1357600080fd5b813560ff8116811461159d57600080fd5b6020815260008251806020840152611b43816040850160208701611a55565b601f01601f1916919091016040019291505056fe360894a13ba1a3210667c828492db98dca3e2076cc3735a920a3ca505d382bbc416464726573733a206c6f772d6c6576656c2064656c65676174652063616c6c206661696c6564a26469706673582212201311593a51e6ca580b4547b8747b688dad05ddd1210ba99c94eec720db9e9f1664736f6c634300080c0033","linkReferences":{}},"methodIdentifiers":{"AlignedLayerServiceManager()":"b5708230","BatcherWallet()":"d3c7f833","UserBalances(address)":"77f3f782","checkMerkleRoot(bytes32[],bytes32)":"47a523ef","createNewTask(bytes32,string,bytes32[],(bytes32,bytes32,uint8)[],uint256,uint256)":"e0f85837","initialize(address,address,address)":"c0c53b8b","owner()":"8da5cb5b","pause()":"8456cb59","paused()":"5c975abb","proxiableUUID()":"52d1902d","renounceOwnership()":"715018a6","transferOwnership(address)":"f2fde38b","unpause()":"3f4ba83a","upgradeTo(address)":"3659cfe6","upgradeToAndCall(address,bytes)":"4f1ef286","withdraw(uint256)":"2e1a7d4d"},"id":124}