{"abi":[{"type":"constructor","inputs":[],"stateMutability":"nonpayable"},{"type":"receive","stateMutability":"payable"},{"type":"function","name":"AlignedLayerServiceManager","inputs":[],"outputs":[{"name":"","type":"address","internalType":"address"}],"stateMutability":"view"},{"type":"function","name":"BatcherWallet","inputs":[],"outputs":[{"name":"","type":"address","internalType":"address"}],"stateMutability":"view"},{"type":"function","name":"UserBalances","inputs":[{"name":"","type":"address","internalType":"address"}],"outputs":[{"name":"","type":"uint256","internalType":"uint256"}],"stateMutability":"view"},{"type":"function","name":"checkMerkleRoot","inputs":[{"name":"leaves","type":"bytes32[]","internalType":"bytes32[]"},{"name":"batchMerkleRoot","type":"bytes32","internalType":"bytes32"}],"outputs":[],"stateMutability":"pure"},{"type":"function","name":"checkMerkleRootAndVerifySignatures","inputs":[{"name":"leaves","type":"bytes32[]","internalType":"bytes32[]"},{"name":"batchMerkleRoot","type":"bytes32","internalType":"bytes32"},{"name":"signatures","type":"tuple[]","internalType":"struct BatcherPaymentService.SignatureData[]","components":[{"name":"v","type":"uint8","internalType":"uint8"},{"name":"r","type":"bytes32","internalType":"bytes32"},{"name":"s","type":"bytes32","internalType":"bytes32"}]},{"name":"signatureCount","type":"uint256","internalType":"uint256"},{"name":"feePerProof","type":"uint256","internalType":"uint256"}],"outputs":[],"stateMutability":"nonpayable"},{"type":"function","name":"createNewTask","inputs":[{"name":"batchMerkleRoot","type":"bytes32","internalType":"bytes32"},{"name":"batchDataPointer","type":"string","internalType":"string"},{"name":"leaves","type":"bytes32[]","internalType":"bytes32[]"},{"name":"signatures","type":"tuple[]","internalType":"struct BatcherPaymentService.SignatureData[]","components":[{"name":"v","type":"uint8","internalType":"uint8"},{"name":"r","type":"bytes32","internalType":"bytes32"},{"name":"s","type":"bytes32","internalType":"bytes32"}]},{"name":"gasForAggregator","type":"uint256","internalType":"uint256"},{"name":"gasPerProof","type":"uint256","internalType":"uint256"}],"outputs":[],"stateMutability":"nonpayable"},{"type":"function","name":"initialize","inputs":[{"name":"_AlignedLayerServiceManager","type":"address","internalType":"address"},{"name":"_BatcherPaymentServiceOwner","type":"address","internalType":"address"},{"name":"_BatcherWallet","type":"address","internalType":"address"}],"outputs":[],"stateMutability":"nonpayable"},{"type":"function","name":"owner","inputs":[],"outputs":[{"name":"","type":"address","internalType":"address"}],"stateMutability":"view"},{"type":"function","name":"pause","inputs":[],"outputs":[],"stateMutability":"nonpayable"},{"type":"function","name":"paused","inputs":[],"outputs":[{"name":"","type":"bool","internalType":"bool"}],"stateMutability":"view"},{"type":"function","name":"proxiableUUID","inputs":[],"outputs":[{"name":"","type":"bytes32","internalType":"bytes32"}],"stateMutability":"view"},{"type":"function","name":"renounceOwnership","inputs":[],"outputs":[],"stateMutability":"nonpayable"},{"type":"function","name":"submittedSignatures","inputs":[{"name":"","type":"bytes32","internalType":"bytes32"}],"outputs":[{"name":"","type":"bool","internalType":"bool"}],"stateMutability":"view"},{"type":"function","name":"transferOwnership","inputs":[{"name":"newOwner","type":"address","internalType":"address"}],"outputs":[],"stateMutability":"nonpayable"},{"type":"function","name":"unpause","inputs":[],"outputs":[],"stateMutability":"nonpayable"},{"type":"function","name":"upgradeTo","inputs":[{"name":"newImplementation","type":"address","internalType":"address"}],"outputs":[],"stateMutability":"nonpayable"},{"type":"function","name":"upgradeToAndCall","inputs":[{"name":"newImplementation","type":"address","internalType":"address"},{"name":"data","type":"bytes","internalType":"bytes"}],"outputs":[],"stateMutability":"payable"},{"type":"function","name":"withdraw","inputs":[{"name":"amount","type":"uint256","internalType":"uint256"}],"outputs":[],"stateMutability":"nonpayable"},{"type":"event","name":"AdminChanged","inputs":[{"name":"previousAdmin","type":"address","indexed":false,"internalType":"address"},{"name":"newAdmin","type":"address","indexed":false,"internalType":"address"}],"anonymous":false},{"type":"event","name":"BeaconUpgraded","inputs":[{"name":"beacon","type":"address","indexed":true,"internalType":"address"}],"anonymous":false},{"type":"event","name":"FundsWithdrawn","inputs":[{"name":"recipient","type":"address","indexed":true,"internalType":"address"},{"name":"amount","type":"uint256","indexed":false,"internalType":"uint256"}],"anonymous":false},{"type":"event","name":"Initialized","inputs":[{"name":"version","type":"uint8","indexed":false,"internalType":"uint8"}],"anonymous":false},{"type":"event","name":"OwnershipTransferred","inputs":[{"name":"previousOwner","type":"address","indexed":true,"internalType":"address"},{"name":"newOwner","type":"address","indexed":true,"internalType":"address"}],"anonymous":false},{"type":"event","name":"Paused","inputs":[{"name":"account","type":"address","indexed":false,"internalType":"address"}],"anonymous":false},{"type":"event","name":"PaymentReceived","inputs":[{"name":"sender","type":"address","indexed":true,"internalType":"address"},{"name":"amount","type":"uint256","indexed":false,"internalType":"uint256"}],"anonymous":false},{"type":"event","name":"Unpaused","inputs":[{"name":"account","type":"address","indexed":false,"internalType":"address"}],"anonymous":false},{"type":"event","name":"Upgraded","inputs":[{"name":"implementation","type":"address","indexed":true,"internalType":"address"}],"anonymous":false}],"bytecode":{"object":"0x60a06040523060805234801561001457600080fd5b5061001d610022565b6100e2565b600054610100900460ff161561008e5760405162461bcd60e51b815260206004820152602760248201527f496e697469616c697a61626c653a20636f6e747261637420697320696e697469604482015266616c697a696e6760c81b606482015260840160405180910390fd5b60005460ff90811610156100e0576000805460ff191660ff9081179091556040519081527f7f26b83ff96e1f2b6a682f133852f6798a09c465da95921460cefb38474024989060200160405180910390a15b565b60805161216a6200011a600039600081816104c6015281816105060152818161084801528181610888015261091b015261216a6000f3fe60806040526004361061010d5760003560e01c806377f3f78211610095578063b570823011610064578063b570823014610325578063c0c53b8b14610345578063d3c7f83314610365578063f2fde38b14610385578063fcc9db0c146103a557600080fd5b806377f3f782146102915780638456cb59146102be5780638da5cb5b146102d35780639e78c4211461030557600080fd5b806347a523ef116100dc57806347a523ef1461020e5780634f1ef2861461022e57806352d1902d146102415780635c975abb14610264578063715018a61461027c57600080fd5b80632e1a7d4d1461017257806333ca0275146101945780633659cfe6146101d95780633f4ba83a146101f957600080fd5b3661016d5733600090815260fd602052604081208054349290610131908490611a6a565b909155505060405134815233907f6ef95f06320e7a25a04a175ca677b7052bdd97131872c2192525a629f51be7709060200160405180910390a2005b600080fd5b34801561017e57600080fd5b5061019261018d366004611a82565b6103c5565b005b3480156101a057600080fd5b506101c46101af366004611a82565b60fe6020526000908152604090205460ff1681565b60405190151581526020015b60405180910390f35b3480156101e557600080fd5b506101926101f4366004611ab7565b6104bb565b34801561020557600080fd5b5061019261059b565b34801561021a57600080fd5b50610192610229366004611b1e565b6105ad565b61019261023c366004611b80565b61083d565b34801561024d57600080fd5b5061025661090e565b6040519081526020016101d0565b34801561027057600080fd5b5060655460ff166101c4565b34801561028857600080fd5b506101926109c1565b34801561029d57600080fd5b506102566102ac366004611ab7565b60fd6020526000908152604090205481565b3480156102ca57600080fd5b506101926109d3565b3480156102df57600080fd5b506033546001600160a01b03165b6040516001600160a01b0390911681526020016101d0565b34801561031157600080fd5b50610192610320366004611c87565b6109e3565b34801561033157600080fd5b5060fb546102ed906001600160a01b031681565b34801561035157600080fd5b50610192610360366004611d10565b610e68565b34801561037157600080fd5b5060fc546102ed906001600160a01b031681565b34801561039157600080fd5b506101926103a0366004611ab7565b610fbd565b3480156103b157600080fd5b506101926103c0366004611d53565b611033565b6103cd611457565b33600090815260fd60205260409020548111156104315760405162461bcd60e51b815260206004820152601e60248201527f50617965722068617320696e73756666696369656e742062616c616e6365000060448201526064015b60405180910390fd5b33600090815260fd602052604081208054839290610450908490611e37565b9091555050604051339082156108fc029083906000818181858888f19350505050158015610482573d6000803e3d6000fd5b5060405181815233907feaff4b37086828766ad3268786972c0cd24259d4c87a80f9d3963a3c3d999b0d9060200160405180910390a250565b306001600160a01b037f00000000000000000000000000000000000000000000000000000000000000001614156105045760405162461bcd60e51b815260040161042890611e4e565b7f00000000000000000000000000000000000000000000000000000000000000006001600160a01b031661054d6000805160206120ee833981519152546001600160a01b031690565b6001600160a01b0316146105735760405162461bcd60e51b815260040161042890611e9a565b61057c8161149d565b60408051600080825260208201909252610598918391906114a5565b50565b6105a3611615565b6105ab61166f565b565b60006105ba600284611ee6565b905060008167ffffffffffffffff8111156105d7576105d7611b6a565b604051908082528060200260200182016040528015610600578160200160208202803683370190505b50905060005b828163ffffffff1610156106d8578585610621836002611f08565b63ffffffff1681811061063657610636611f34565b90506020020135868683600261064c9190611f08565b610657906001611f4a565b63ffffffff1681811061066c5761066c611f34565b9050602002013560405160200161068d929190918252602082015260400190565b60405160208183030381529060405280519060200120828263ffffffff16815181106106bb576106bb611f34565b6020908102919091010152806106d081611f72565b915050610606565b506106e4600283611ee6565b91505b81156107d75760005b828163ffffffff1610156107c4578161070a826002611f08565b63ffffffff168151811061072057610720611f34565b6020026020010151828260026107369190611f08565b610741906001611f4a565b63ffffffff168151811061075757610757611f34565b6020026020010151604051602001610779929190918252602082015260400190565b60405160208183030381529060405280519060200120828263ffffffff16815181106107a7576107a7611f34565b6020908102919091010152806107bc81611f72565b9150506106f0565b506107d0600283611ee6565b91506106e7565b82816000815181106107eb576107eb611f34565b6020026020010151146108365760405162461bcd60e51b8152602060048201526013602482015272125b9d985b1a59081b595c9adb19481c9bdbdd606a1b6044820152606401610428565b5050505050565b306001600160a01b037f00000000000000000000000000000000000000000000000000000000000000001614156108865760405162461bcd60e51b815260040161042890611e4e565b7f00000000000000000000000000000000000000000000000000000000000000006001600160a01b03166108cf6000805160206120ee833981519152546001600160a01b031690565b6001600160a01b0316146108f55760405162461bcd60e51b815260040161042890611e9a565b6108fe8261149d565b61090a828260016114a5565b5050565b6000306001600160a01b037f000000000000000000000000000000000000000000000000000000000000000016146109ae5760405162461bcd60e51b815260206004820152603860248201527f555550535570677261646561626c653a206d757374206e6f742062652063616c60448201527f6c6564207468726f7567682064656c656761746563616c6c00000000000000006064820152608401610428565b506000805160206120ee83398151915290565b6109c9611615565b6105ab60006116c1565b6109db611615565b6105ab611713565b60006109f0600288611ee6565b905060008167ffffffffffffffff811115610a0d57610a0d611b6a565b604051908082528060200260200182016040528015610a36578160200160208202803683370190505b50905060005b848163ffffffff161015610d0c57610a5560028a611ee6565b8163ffffffff161015610b16578989610a6f836002611f08565b63ffffffff16818110610a8457610a84611f34565b905060200201358a8a836002610a9a9190611f08565b610aa5906001611f4a565b63ffffffff16818110610aba57610aba611f34565b90506020020135604051602001610adb929190918252602082015260400190565b60405160208183030381529060405280519060200120828263ffffffff1681518110610b0957610b09611f34565b6020026020010181815250505b60008a8a8363ffffffff16818110610b3057610b30611f34565b60209081029290920135600081815260fe9093526040909220549192505060ff1615610b9e5760405162461bcd60e51b815260206004820152601b60248201527f5369676e617475726520616c7265616479207375626d697474656400000000006044820152606401610428565b3688888463ffffffff16818110610bb757610bb7611f34565b600085815260fe602090815260408220805460ff191660019081179091556060909302949094019450929091508490610bf290850185611f96565b604080516000815260208181018084529490945260ff9092168282015291850135606082015290840135608082015260a0016020604051602081039080840390855afa158015610c46573d6000803e3d6000fd5b5050506020604051035190508660fd6000836001600160a01b03166001600160a01b03168152602001908152602001600020541015610cc75760405162461bcd60e51b815260206004820152601f60248201527f5369676e65722068617320696e73756666696369656e742062616c616e6365006044820152606401610428565b6001600160a01b038116600090815260fd602052604081208054899290610cef908490611e37565b925050819055505050508080610d0490611f72565b915050610a3c565b505b8115610dfe5760005b828163ffffffff161015610deb5781610d31826002611f08565b63ffffffff1681518110610d4757610d47611f34565b602002602001015182826002610d5d9190611f08565b610d68906001611f4a565b63ffffffff1681518110610d7e57610d7e611f34565b6020026020010151604051602001610da0929190918252602082015260400190565b60405160208183030381529060405280519060200120828263ffffffff1681518110610dce57610dce611f34565b602090810291909101015280610de381611f72565b915050610d17565b50610df7600283611ee6565b9150610d0e565b8681600081518110610e1257610e12611f34565b602002602001015114610e5d5760405162461bcd60e51b8152602060048201526013602482015272125b9d985b1a59081b595c9adb19481c9bdbdd606a1b6044820152606401610428565b505050505050505050565b600054610100900460ff1615808015610e885750600054600160ff909116105b80610ea25750303b158015610ea2575060005460ff166001145b610f055760405162461bcd60e51b815260206004820152602e60248201527f496e697469616c697a61626c653a20636f6e747261637420697320616c72656160448201526d191e481a5b9a5d1a585b1a5e995960921b6064820152608401610428565b6000805460ff191660011790558015610f28576000805461ff0019166101001790555b610f30611750565b610f3861177f565b610f41836116c1565b60fb80546001600160a01b038087166001600160a01b03199283161790925560fc8054928516929091169190911790558015610fb7576000805461ff0019169055604051600181527f7f26b83ff96e1f2b6a682f133852f6798a09c465da95921460cefb38474024989060200160405180910390a15b50505050565b610fc5611615565b6001600160a01b03811661102a5760405162461bcd60e51b815260206004820152602660248201527f4f776e61626c653a206e6577206f776e657220697320746865207a65726f206160448201526564647265737360d01b6064820152608401610428565b610598816116c1565b60fc546001600160a01b031633146110995760405162461bcd60e51b815260206004820152602360248201527f4f6e6c7920426174636865722063616e2063616c6c20746869732066756e637460448201526234b7b760e91b6064820152608401610428565b6110a1611457565b848360006110af3a86611fb9565b905060006110bd3a86611fb9565b9050600084116111055760405162461bcd60e51b8152602060048201526013602482015272139bc81b19585d995cc81cdd589b5a5d1d1959606a1b6044820152606401610428565b600083116111555760405162461bcd60e51b815260206004820152601d60248201527f4e6f2070726f6f66207375626d6974746572207369676e6174757265730000006044820152606401610428565b868410156111995760405162461bcd60e51b81526020600482015260116024820152704e6f7420656e6f756768206c656176657360781b6044820152606401610428565b6111a4600185611e37565b8416156111fd5760405162461bcd60e51b815260206004820152602160248201527f4c6561766573206c656e677468206973206e6f74206120706f776572206f66206044820152601960f91b6064820152608401610428565b600082116112455760405162461bcd60e51b815260206004820152601560248201527427379033b0b9903337b91030b3b3b932b3b0ba37b960591b6044820152606401610428565b600081116112885760405162461bcd60e51b815260206004820152601060248201526f27379033b0b9903832b910383937b7b360811b6044820152606401610428565b816112938483611fb9565b116112ec5760405162461bcd60e51b8152602060048201526024808201527f4e6f7420656e6f7567682067617320746f20706179207468652061676772656760448201526330ba37b960e11b6064820152608401610428565b6112fb8a8a8f8b8b88876109e3565b600060fb60009054906101000a90046001600160a01b03166001600160a01b0316838f8f8f60405160240161133293929190611fd8565b60408051601f198184030181529181526020820180516001600160e01b0316631700226560e21b17905251611367919061203a565b60006040518083038185875af1925050503d80600081146113a4576040519150601f19603f3d011682016040523d82523d6000602084013e6113a9565b606091505b50509050806113fa5760405162461bcd60e51b815260206004820152601960248201527f6372656174654e65775461736b2063616c6c206661696c6564000000000000006044820152606401610428565b60fc546001600160a01b03166108fc846114148786611fb9565b61141e9190611e37565b6040518115909202916000818181858888f19350505050158015611446573d6000803e3d6000fd5b505050505050505050505050505050565b60655460ff16156105ab5760405162461bcd60e51b815260206004820152601060248201526f14185d5cd8589b194e881c185d5cd95960821b6044820152606401610428565b610598611615565b7f4910fdfa16fed3260ed0e7147f7cc6da11a60208b5b9406d12a635614ffd91435460ff16156114dd576114d8836117a6565b505050565b826001600160a01b03166352d1902d6040518163ffffffff1660e01b8152600401602060405180830381865afa925050508015611537575060408051601f3d908101601f1916820190925261153491810190612056565b60015b61159a5760405162461bcd60e51b815260206004820152602e60248201527f45524331393637557067726164653a206e657720696d706c656d656e7461746960448201526d6f6e206973206e6f74205555505360901b6064820152608401610428565b6000805160206120ee83398151915281146116095760405162461bcd60e51b815260206004820152602960248201527f45524331393637557067726164653a20756e737570706f727465642070726f786044820152681a58589b195555525160ba1b6064820152608401610428565b506114d8838383611842565b6033546001600160a01b031633146105ab5760405162461bcd60e51b815260206004820181905260248201527f4f776e61626c653a2063616c6c6572206973206e6f7420746865206f776e65726044820152606401610428565b611677611867565b6065805460ff191690557f5db9ee0a495bf2e6ff9c91a7834c1ba4fdd244a5e8aa4e537bd38aeae4b073aa335b6040516001600160a01b03909116815260200160405180910390a1565b603380546001600160a01b038381166001600160a01b0319831681179093556040519116919082907f8be0079c531659141344cd1fd0a4f28419497f9722a3daafe3b4186f6b6457e090600090a35050565b61171b611457565b6065805460ff191660011790557f62e78cea01bee320cd4e420270b5ea74000d11b0c9f74754ebdbfc544b05a2586116a43390565b600054610100900460ff166117775760405162461bcd60e51b81526004016104289061206f565b6105ab6118b0565b600054610100900460ff166105ab5760405162461bcd60e51b81526004016104289061206f565b6001600160a01b0381163b6118135760405162461bcd60e51b815260206004820152602d60248201527f455243313936373a206e657720696d706c656d656e746174696f6e206973206e60448201526c1bdd08184818dbdb9d1c9858dd609a1b6064820152608401610428565b6000805160206120ee83398151915280546001600160a01b0319166001600160a01b0392909216919091179055565b61184b836118e0565b6000825111806118585750805b156114d857610fb78383611920565b60655460ff166105ab5760405162461bcd60e51b815260206004820152601460248201527314185d5cd8589b194e881b9bdd081c185d5cd95960621b6044820152606401610428565b600054610100900460ff166118d75760405162461bcd60e51b81526004016104289061206f565b6105ab336116c1565b6118e9816117a6565b6040516001600160a01b038216907fbc7cd75a20ee27fd9adebab32041f755214dbc6bffa90cc0225b39da2e5c2d3b90600090a250565b60606001600160a01b0383163b6119885760405162461bcd60e51b815260206004820152602660248201527f416464726573733a2064656c65676174652063616c6c20746f206e6f6e2d636f6044820152651b9d1c9858dd60d21b6064820152608401610428565b600080846001600160a01b0316846040516119a3919061203a565b600060405180830381855af49150503d80600081146119de576040519150601f19603f3d011682016040523d82523d6000602084013e6119e3565b606091505b5091509150611a0b828260405180606001604052806027815260200161210e60279139611a14565b95945050505050565b60608315611a23575081611a4d565b825115611a335782518084602001fd5b8160405162461bcd60e51b815260040161042891906120ba565b9392505050565b634e487b7160e01b600052601160045260246000fd5b60008219821115611a7d57611a7d611a54565b500190565b600060208284031215611a9457600080fd5b5035919050565b80356001600160a01b0381168114611ab257600080fd5b919050565b600060208284031215611ac957600080fd5b611a4d82611a9b565b60008083601f840112611ae457600080fd5b50813567ffffffffffffffff811115611afc57600080fd5b6020830191508360208260051b8501011115611b1757600080fd5b9250929050565b600080600060408486031215611b3357600080fd5b833567ffffffffffffffff811115611b4a57600080fd5b611b5686828701611ad2565b909790965060209590950135949350505050565b634e487b7160e01b600052604160045260246000fd5b60008060408385031215611b9357600080fd5b611b9c83611a9b565b9150602083013567ffffffffffffffff80821115611bb957600080fd5b818501915085601f830112611bcd57600080fd5b813581811115611bdf57611bdf611b6a565b604051601f8201601f19908116603f01168101908382118183101715611c0757611c07611b6a565b81604052828152886020848701011115611c2057600080fd5b8260208601602083013760006020848301015280955050505050509250929050565b60008083601f840112611c5457600080fd5b50813567ffffffffffffffff811115611c6c57600080fd5b602083019150836020606083028501011115611b1757600080fd5b600080600080600080600060a0888a031215611ca257600080fd5b873567ffffffffffffffff80821115611cba57600080fd5b611cc68b838c01611ad2565b909950975060208a0135965060408a0135915080821115611ce657600080fd5b50611cf38a828b01611c42565b989b979a5095989597966060870135966080013595509350505050565b600080600060608486031215611d2557600080fd5b611d2e84611a9b565b9250611d3c60208501611a9b565b9150611d4a60408501611a9b565b90509250925092565b600080600080600080600080600060c08a8c031215611d7157600080fd5b8935985060208a013567ffffffffffffffff80821115611d9057600080fd5b818c0191508c601f830112611da457600080fd5b813581811115611db357600080fd5b8d6020828501011115611dc557600080fd5b602083019a508099505060408c0135915080821115611de357600080fd5b611def8d838e01611ad2565b909850965060608c0135915080821115611e0857600080fd5b50611e158c828d01611c42565b9a9d999c50979a96999598959660808101359660a09091013595509350505050565b600082821015611e4957611e49611a54565b500390565b6020808252602c908201527f46756e6374696f6e206d7573742062652063616c6c6564207468726f7567682060408201526b19195b1959d85d1958d85b1b60a21b606082015260800190565b6020808252602c908201527f46756e6374696f6e206d7573742062652063616c6c6564207468726f7567682060408201526b6163746976652070726f787960a01b606082015260800190565b600082611f0357634e487b7160e01b600052601260045260246000fd5b500490565b600063ffffffff80831681851681830481118215151615611f2b57611f2b611a54565b02949350505050565b634e487b7160e01b600052603260045260246000fd5b600063ffffffff808316818516808303821115611f6957611f69611a54565b01949350505050565b600063ffffffff80831681811415611f8c57611f8c611a54565b6001019392505050565b600060208284031215611fa857600080fd5b813560ff81168114611a4d57600080fd5b6000816000190483118215151615611fd357611fd3611a54565b500290565b83815260406020820152816040820152818360608301376000818301606090810191909152601f909201601f1916010192915050565b60005b83811015612029578181015183820152602001612011565b83811115610fb75750506000910152565b6000825161204c81846020870161200e565b9190910192915050565b60006020828403121561206857600080fd5b5051919050565b6020808252602b908201527f496e697469616c697a61626c653a20636f6e7472616374206973206e6f74206960408201526a6e697469616c697a696e6760a81b606082015260800190565b60208152600082518060208401526120d981604085016020870161200e565b601f01601f1916919091016040019291505056fe360894a13ba1a3210667c828492db98dca3e2076cc3735a920a3ca505d382bbc416464726573733a206c6f772d6c6576656c2064656c65676174652063616c6c206661696c6564a26469706673582212200327eca9acbbf5e9f55c49aaca68a758f1c7e34862924f733425553e17454d4c64736f6c634300080c0033","linkReferences":{}},"methodIdentifiers":{"AlignedLayerServiceManager()":"b5708230","BatcherWallet()":"d3c7f833","UserBalances(address)":"77f3f782","checkMerkleRoot(bytes32[],bytes32)":"47a523ef","checkMerkleRootAndVerifySignatures(bytes32[],bytes32,(uint8,bytes32,bytes32)[],uint256,uint256)":"9e78c421","createNewTask(bytes32,string,bytes32[],(uint8,bytes32,bytes32)[],uint256,uint256)":"fcc9db0c","initialize(address,address,address)":"c0c53b8b","owner()":"8da5cb5b","pause()":"8456cb59","paused()":"5c975abb","proxiableUUID()":"52d1902d","renounceOwnership()":"715018a6","submittedSignatures(bytes32)":"33ca0275","transferOwnership(address)":"f2fde38b","unpause()":"3f4ba83a","upgradeTo(address)":"3659cfe6","upgradeToAndCall(address,bytes)":"4f1ef286","withdraw(uint256)":"2e1a7d4d"},"id":10}