{"abi":[{"type":"constructor","inputs":[],"stateMutability":"nonpayable"},{"type":"receive","stateMutability":"payable"},{"type":"function","name":"AlignedLayerServiceManager","inputs":[],"outputs":[{"name":"","type":"address","internalType":"address"}],"stateMutability":"view"},{"type":"function","name":"BatcherWallet","inputs":[],"outputs":[{"name":"","type":"address","internalType":"address"}],"stateMutability":"view"},{"type":"function","name":"UserBalances","inputs":[{"name":"","type":"address","internalType":"address"}],"outputs":[{"name":"","type":"uint256","internalType":"uint256"}],"stateMutability":"view"},{"type":"function","name":"createNewTask","inputs":[{"name":"batchMerkleRoot","type":"bytes32","internalType":"bytes32"},{"name":"batchDataPointer","type":"string","internalType":"string"},{"name":"proofSubmitters","type":"address[]","internalType":"address[]"},{"name":"gasForAggregator","type":"uint256","internalType":"uint256"},{"name":"gasPerProof","type":"uint256","internalType":"uint256"}],"outputs":[],"stateMutability":"nonpayable"},{"type":"function","name":"initialize","inputs":[{"name":"_AlignedLayerServiceManager","type":"address","internalType":"address"},{"name":"_BatcherPaymentServiceOwner","type":"address","internalType":"address"},{"name":"_BatcherWallet","type":"address","internalType":"address"}],"outputs":[],"stateMutability":"nonpayable"},{"type":"function","name":"owner","inputs":[],"outputs":[{"name":"","type":"address","internalType":"address"}],"stateMutability":"view"},{"type":"function","name":"pause","inputs":[],"outputs":[],"stateMutability":"nonpayable"},{"type":"function","name":"paused","inputs":[],"outputs":[{"name":"","type":"bool","internalType":"bool"}],"stateMutability":"view"},{"type":"function","name":"proxiableUUID","inputs":[],"outputs":[{"name":"","type":"bytes32","internalType":"bytes32"}],"stateMutability":"view"},{"type":"function","name":"renounceOwnership","inputs":[],"outputs":[],"stateMutability":"nonpayable"},{"type":"function","name":"transferOwnership","inputs":[{"name":"newOwner","type":"address","internalType":"address"}],"outputs":[],"stateMutability":"nonpayable"},{"type":"function","name":"unpause","inputs":[],"outputs":[],"stateMutability":"nonpayable"},{"type":"function","name":"upgradeTo","inputs":[{"name":"newImplementation","type":"address","internalType":"address"}],"outputs":[],"stateMutability":"nonpayable"},{"type":"function","name":"upgradeToAndCall","inputs":[{"name":"newImplementation","type":"address","internalType":"address"},{"name":"data","type":"bytes","internalType":"bytes"}],"outputs":[],"stateMutability":"payable"},{"type":"function","name":"withdraw","inputs":[{"name":"amount","type":"uint256","internalType":"uint256"}],"outputs":[],"stateMutability":"nonpayable"},{"type":"event","name":"AdminChanged","inputs":[{"name":"previousAdmin","type":"address","indexed":false,"internalType":"address"},{"name":"newAdmin","type":"address","indexed":false,"internalType":"address"}],"anonymous":false},{"type":"event","name":"BeaconUpgraded","inputs":[{"name":"beacon","type":"address","indexed":true,"internalType":"address"}],"anonymous":false},{"type":"event","name":"FundsWithdrawn","inputs":[{"name":"recipient","type":"address","indexed":true,"internalType":"address"},{"name":"amount","type":"uint256","indexed":false,"internalType":"uint256"}],"anonymous":false},{"type":"event","name":"Initialized","inputs":[{"name":"version","type":"uint8","indexed":false,"internalType":"uint8"}],"anonymous":false},{"type":"event","name":"OwnershipTransferred","inputs":[{"name":"previousOwner","type":"address","indexed":true,"internalType":"address"},{"name":"newOwner","type":"address","indexed":true,"internalType":"address"}],"anonymous":false},{"type":"event","name":"Paused","inputs":[{"name":"account","type":"address","indexed":false,"internalType":"address"}],"anonymous":false},{"type":"event","name":"PaymentReceived","inputs":[{"name":"sender","type":"address","indexed":true,"internalType":"address"},{"name":"amount","type":"uint256","indexed":false,"internalType":"uint256"}],"anonymous":false},{"type":"event","name":"Unpaused","inputs":[{"name":"account","type":"address","indexed":false,"internalType":"address"}],"anonymous":false},{"type":"event","name":"Upgraded","inputs":[{"name":"implementation","type":"address","indexed":true,"internalType":"address"}],"anonymous":false}],"bytecode":{"object":"0x60a06040523060805234801561001457600080fd5b5061001d610022565b6100e2565b600054610100900460ff161561008e5760405162461bcd60e51b815260206004820152602760248201527f496e697469616c697a61626c653a20636f6e747261637420697320696e697469604482015266616c697a696e6760c81b606482015260840160405180910390fd5b60005460ff90811610156100e0576000805460ff191660ff9081179091556040519081527f7f26b83ff96e1f2b6a682f133852f6798a09c465da95921460cefb38474024989060200160405180910390a15b565b6080516117146101196000396000818161043001528181610470015281816105220152818161056201526105f501526117146000f3fe6080604052600436106100ec5760003560e01c806377f3f7821161008a578063c0c53b8b11610059578063c0c53b8b146102af578063ccc994ca146102cf578063d3c7f833146102ef578063f2fde38b1461030f57600080fd5b806377f3f7821461021b5780638456cb59146102485780638da5cb5b1461025d578063b57082301461028f57600080fd5b80634f1ef286116100c65780634f1ef286146101a857806352d1902d146101bb5780635c975abb146101e3578063715018a61461020657600080fd5b80632e1a7d4d146101515780633659cfe6146101735780633f4ba83a1461019357600080fd5b3661014c5733600090815260fd6020526040812080543492906101109084906111fd565b909155505060405134815233907f6ef95f06320e7a25a04a175ca677b7052bdd97131872c2192525a629f51be7709060200160405180910390a2005b600080fd5b34801561015d57600080fd5b5061017161016c366004611215565b61032f565b005b34801561017f57600080fd5b5061017161018e36600461124a565b610425565b34801561019f57600080fd5b50610171610505565b6101716101b636600461127b565b610517565b3480156101c757600080fd5b506101d06105e8565b6040519081526020015b60405180910390f35b3480156101ef57600080fd5b5060655460ff1660405190151581526020016101da565b34801561021257600080fd5b5061017161069b565b34801561022757600080fd5b506101d061023636600461124a565b60fd6020526000908152604090205481565b34801561025457600080fd5b506101716106ad565b34801561026957600080fd5b506033546001600160a01b03165b6040516001600160a01b0390911681526020016101da565b34801561029b57600080fd5b5060fb54610277906001600160a01b031681565b3480156102bb57600080fd5b506101716102ca36600461133d565b6106bd565b3480156102db57600080fd5b506101716102ea3660046113cc565b610812565b3480156102fb57600080fd5b5060fc54610277906001600160a01b031681565b34801561031b57600080fd5b5061017161032a36600461124a565b610b74565b610337610bea565b33600090815260fd602052604090205481111561039b5760405162461bcd60e51b815260206004820152601e60248201527f50617965722068617320696e73756666696369656e742062616c616e6365000060448201526064015b60405180910390fd5b33600090815260fd6020526040812080548392906103ba908490611483565b9091555050604051339082156108fc029083906000818181858888f193505050501580156103ec573d6000803e3d6000fd5b5060405181815233907feaff4b37086828766ad3268786972c0cd24259d4c87a80f9d3963a3c3d999b0d9060200160405180910390a250565b306001600160a01b037f000000000000000000000000000000000000000000000000000000000000000016141561046e5760405162461bcd60e51b81526004016103929061149a565b7f00000000000000000000000000000000000000000000000000000000000000006001600160a01b03166104b7600080516020611698833981519152546001600160a01b031690565b6001600160a01b0316146104dd5760405162461bcd60e51b8152600401610392906114e6565b6104e681610c30565b6040805160008082526020820190925261050291839190610c38565b50565b61050d610da8565b610515610e02565b565b306001600160a01b037f00000000000000000000000000000000000000000000000000000000000000001614156105605760405162461bcd60e51b81526004016103929061149a565b7f00000000000000000000000000000000000000000000000000000000000000006001600160a01b03166105a9600080516020611698833981519152546001600160a01b031690565b6001600160a01b0316146105cf5760405162461bcd60e51b8152600401610392906114e6565b6105d882610c30565b6105e482826001610c38565b5050565b6000306001600160a01b037f000000000000000000000000000000000000000000000000000000000000000016146106885760405162461bcd60e51b815260206004820152603860248201527f555550535570677261646561626c653a206d757374206e6f742062652063616c60448201527f6c6564207468726f7567682064656c656761746563616c6c00000000000000006064820152608401610392565b5060008051602061169883398151915290565b6106a3610da8565b6105156000610e54565b6106b5610da8565b610515610ea6565b600054610100900460ff16158080156106dd5750600054600160ff909116105b806106f75750303b1580156106f7575060005460ff166001145b61075a5760405162461bcd60e51b815260206004820152602e60248201527f496e697469616c697a61626c653a20636f6e747261637420697320616c72656160448201526d191e481a5b9a5d1a585b1a5e995960921b6064820152608401610392565b6000805460ff19166001179055801561077d576000805461ff0019166101001790555b610785610ee3565b61078d610f12565b61079683610e54565b60fb80546001600160a01b038087166001600160a01b03199283161790925560fc805492851692909116919091179055801561080c576000805461ff0019169055604051600181527f7f26b83ff96e1f2b6a682f133852f6798a09c465da95921460cefb38474024989060200160405180910390a15b50505050565b60fc546001600160a01b031633146108785760405162461bcd60e51b815260206004820152602360248201527f4f6e6c7920426174636865722063616e2063616c6c20746869732066756e637460448201526234b7b760e91b6064820152608401610392565b610880610bea565b600061088c3a84611532565b9050600061089a3a84611532565b905084806108e05760405162461bcd60e51b81526020600482015260136024820152724e6f2070726f6f66207375626d69747465727360681b6044820152606401610392565b826108eb8284611532565b116109425760405162461bcd60e51b815260206004820152602160248201527f4e6f7420656e6f7567682067617320746f2070617920746865206261746368656044820152603960f91b6064820152608401610392565b60005b81811015610a2357600088888381811061096157610961611551565b9050602002016020810190610976919061124a565b6001600160a01b038116600090815260fd60205260409020549091508411156109e15760405162461bcd60e51b815260206004820152601e60248201527f50617965722068617320696e73756666696369656e742062616c616e636500006044820152606401610392565b6001600160a01b038116600090815260fd602052604081208054869290610a09908490611483565b90915550829150610a1b905081611567565b915050610945565b5060fb546040516000916001600160a01b0316908590610a4b908e908e908e90602401611582565b60408051601f198184030181529181526020820180516001600160e01b0316631700226560e21b17905251610a8091906115e4565b60006040518083038185875af1925050503d8060008114610abd576040519150601f19603f3d011682016040523d82523d6000602084013e610ac2565b606091505b5050905080610b135760405162461bcd60e51b815260206004820152601960248201527f6372656174654e65775461736b2063616c6c206661696c6564000000000000006044820152606401610392565b600084610b208486611532565b610b2a9190611483565b60fc546040519192506001600160a01b03169082156108fc029083906000818181858888f19350505050158015610b65573d6000803e3d6000fd5b50505050505050505050505050565b610b7c610da8565b6001600160a01b038116610be15760405162461bcd60e51b815260206004820152602660248201527f4f776e61626c653a206e6577206f776e657220697320746865207a65726f206160448201526564647265737360d01b6064820152608401610392565b61050281610e54565b60655460ff16156105155760405162461bcd60e51b815260206004820152601060248201526f14185d5cd8589b194e881c185d5cd95960821b6044820152606401610392565b610502610da8565b7f4910fdfa16fed3260ed0e7147f7cc6da11a60208b5b9406d12a635614ffd91435460ff1615610c7057610c6b83610f39565b505050565b826001600160a01b03166352d1902d6040518163ffffffff1660e01b8152600401602060405180830381865afa925050508015610cca575060408051601f3d908101601f19168201909252610cc791810190611600565b60015b610d2d5760405162461bcd60e51b815260206004820152602e60248201527f45524331393637557067726164653a206e657720696d706c656d656e7461746960448201526d6f6e206973206e6f74205555505360901b6064820152608401610392565b6000805160206116988339815191528114610d9c5760405162461bcd60e51b815260206004820152602960248201527f45524331393637557067726164653a20756e737570706f727465642070726f786044820152681a58589b195555525160ba1b6064820152608401610392565b50610c6b838383610fd5565b6033546001600160a01b031633146105155760405162461bcd60e51b815260206004820181905260248201527f4f776e61626c653a2063616c6c6572206973206e6f7420746865206f776e65726044820152606401610392565b610e0a610ffa565b6065805460ff191690557f5db9ee0a495bf2e6ff9c91a7834c1ba4fdd244a5e8aa4e537bd38aeae4b073aa335b6040516001600160a01b03909116815260200160405180910390a1565b603380546001600160a01b038381166001600160a01b0319831681179093556040519116919082907f8be0079c531659141344cd1fd0a4f28419497f9722a3daafe3b4186f6b6457e090600090a35050565b610eae610bea565b6065805460ff191660011790557f62e78cea01bee320cd4e420270b5ea74000d11b0c9f74754ebdbfc544b05a258610e373390565b600054610100900460ff16610f0a5760405162461bcd60e51b815260040161039290611619565b610515611043565b600054610100900460ff166105155760405162461bcd60e51b815260040161039290611619565b6001600160a01b0381163b610fa65760405162461bcd60e51b815260206004820152602d60248201527f455243313936373a206e657720696d706c656d656e746174696f6e206973206e60448201526c1bdd08184818dbdb9d1c9858dd609a1b6064820152608401610392565b60008051602061169883398151915280546001600160a01b0319166001600160a01b0392909216919091179055565b610fde83611073565b600082511180610feb5750805b15610c6b5761080c83836110b3565b60655460ff166105155760405162461bcd60e51b815260206004820152601460248201527314185d5cd8589b194e881b9bdd081c185d5cd95960621b6044820152606401610392565b600054610100900460ff1661106a5760405162461bcd60e51b815260040161039290611619565b61051533610e54565b61107c81610f39565b6040516001600160a01b038216907fbc7cd75a20ee27fd9adebab32041f755214dbc6bffa90cc0225b39da2e5c2d3b90600090a250565b60606001600160a01b0383163b61111b5760405162461bcd60e51b815260206004820152602660248201527f416464726573733a2064656c65676174652063616c6c20746f206e6f6e2d636f6044820152651b9d1c9858dd60d21b6064820152608401610392565b600080846001600160a01b03168460405161113691906115e4565b600060405180830381855af49150503d8060008114611171576040519150601f19603f3d011682016040523d82523d6000602084013e611176565b606091505b509150915061119e82826040518060600160405280602781526020016116b8602791396111a7565b95945050505050565b606083156111b65750816111e0565b8251156111c65782518084602001fd5b8160405162461bcd60e51b81526004016103929190611664565b9392505050565b634e487b7160e01b600052601160045260246000fd5b60008219821115611210576112106111e7565b500190565b60006020828403121561122757600080fd5b5035919050565b80356001600160a01b038116811461124557600080fd5b919050565b60006020828403121561125c57600080fd5b6111e08261122e565b634e487b7160e01b600052604160045260246000fd5b6000806040838503121561128e57600080fd5b6112978361122e565b9150602083013567ffffffffffffffff808211156112b457600080fd5b818501915085601f8301126112c857600080fd5b8135818111156112da576112da611265565b604051601f8201601f19908116603f0116810190838211818310171561130257611302611265565b8160405282815288602084870101111561131b57600080fd5b8260208601602083013760006020848301015280955050505050509250929050565b60008060006060848603121561135257600080fd5b61135b8461122e565b92506113696020850161122e565b91506113776040850161122e565b90509250925092565b60008083601f84011261139257600080fd5b50813567ffffffffffffffff8111156113aa57600080fd5b6020830191508360208260051b85010111156113c557600080fd5b9250929050565b600080600080600080600060a0888a0312156113e757600080fd5b87359650602088013567ffffffffffffffff8082111561140657600080fd5b818a0191508a601f83011261141a57600080fd5b81358181111561142957600080fd5b8b602082850101111561143b57600080fd5b6020830198508097505060408a013591508082111561145957600080fd5b506114668a828b01611380565b989b979a5095989597966060870135966080013595509350505050565b600082821015611495576114956111e7565b500390565b6020808252602c908201527f46756e6374696f6e206d7573742062652063616c6c6564207468726f7567682060408201526b19195b1959d85d1958d85b1b60a21b606082015260800190565b6020808252602c908201527f46756e6374696f6e206d7573742062652063616c6c6564207468726f7567682060408201526b6163746976652070726f787960a01b606082015260800190565b600081600019048311821515161561154c5761154c6111e7565b500290565b634e487b7160e01b600052603260045260246000fd5b600060001982141561157b5761157b6111e7565b5060010190565b83815260406020820152816040820152818360608301376000818301606090810191909152601f909201601f1916010192915050565b60005b838110156115d35781810151838201526020016115bb565b8381111561080c5750506000910152565b600082516115f68184602087016115b8565b9190910192915050565b60006020828403121561161257600080fd5b5051919050565b6020808252602b908201527f496e697469616c697a61626c653a20636f6e7472616374206973206e6f74206960408201526a6e697469616c697a696e6760a81b606082015260800190565b60208152600082518060208401526116838160408501602087016115b8565b601f01601f1916919091016040019291505056fe360894a13ba1a3210667c828492db98dca3e2076cc3735a920a3ca505d382bbc416464726573733a206c6f772d6c6576656c2064656c65676174652063616c6c206661696c6564a264697066735822122047000f6c927f1a89af3c005ebbbaefc9bf856421f84809906d54712bf8f4768664736f6c634300080c0033","linkReferences":{}},"methodIdentifiers":{"AlignedLayerServiceManager()":"b5708230","BatcherWallet()":"d3c7f833","UserBalances(address)":"77f3f782","createNewTask(bytes32,string,address[],uint256,uint256)":"ccc994ca","initialize(address,address,address)":"c0c53b8b","owner()":"8da5cb5b","pause()":"8456cb59","paused()":"5c975abb","proxiableUUID()":"52d1902d","renounceOwnership()":"715018a6","transferOwnership(address)":"f2fde38b","unpause()":"3f4ba83a","upgradeTo(address)":"3659cfe6","upgradeToAndCall(address,bytes)":"4f1ef286","withdraw(uint256)":"2e1a7d4d"},"id":37}