{"abi":[{"type":"constructor","inputs":[],"stateMutability":"nonpayable"},{"type":"receive","stateMutability":"payable"},{"type":"function","name":"AlignedLayerServiceManager","inputs":[],"outputs":[{"name":"","type":"address","internalType":"address"}],"stateMutability":"view"},{"type":"function","name":"BatcherWallet","inputs":[],"outputs":[{"name":"","type":"address","internalType":"address"}],"stateMutability":"view"},{"type":"function","name":"EXTRA_USER_TX_GAS_COST","inputs":[],"outputs":[{"name":"","type":"uint256","internalType":"uint256"}],"stateMutability":"view"},{"type":"function","name":"PAYMENT_SERVICE_CREATE_TASK_GAS_COST","inputs":[],"outputs":[{"name":"","type":"uint256","internalType":"uint256"}],"stateMutability":"view"},{"type":"function","name":"SERVICE_MANAGER_CREATE_TASK_GAS_COST","inputs":[],"outputs":[{"name":"","type":"uint256","internalType":"uint256"}],"stateMutability":"view"},{"type":"function","name":"UserBalances","inputs":[{"name":"","type":"address","internalType":"address"}],"outputs":[{"name":"","type":"uint256","internalType":"uint256"}],"stateMutability":"view"},{"type":"function","name":"createNewTask","inputs":[{"name":"batchMerkleRoot","type":"bytes32","internalType":"bytes32"},{"name":"batchDataPointer","type":"string","internalType":"string"},{"name":"proofSubmitters","type":"address[]","internalType":"address[]"},{"name":"costOfRespondToTask","type":"uint256","internalType":"uint256"}],"outputs":[],"stateMutability":"nonpayable"},{"type":"function","name":"initialize","inputs":[{"name":"_AlignedLayerServiceManager","type":"address","internalType":"address"},{"name":"_BatcherWallet","type":"address","internalType":"address"},{"name":"_PaymentServiceCreateTaskGasCost","type":"uint256","internalType":"uint256"},{"name":"_ServiceManagerCreateTaskGasCost","type":"uint256","internalType":"uint256"},{"name":"_ExtraUserTxGasCost","type":"uint256","internalType":"uint256"}],"outputs":[],"stateMutability":"nonpayable"},{"type":"function","name":"owner","inputs":[],"outputs":[{"name":"","type":"address","internalType":"address"}],"stateMutability":"view"},{"type":"function","name":"pause","inputs":[],"outputs":[],"stateMutability":"nonpayable"},{"type":"function","name":"paused","inputs":[],"outputs":[{"name":"","type":"bool","internalType":"bool"}],"stateMutability":"view"},{"type":"function","name":"renounceOwnership","inputs":[],"outputs":[],"stateMutability":"nonpayable"},{"type":"function","name":"setExtraUserTxGasCost","inputs":[{"name":"amount","type":"uint256","internalType":"uint256"}],"outputs":[],"stateMutability":"nonpayable"},{"type":"function","name":"setPaymentServiceCreateTaskGasCost","inputs":[{"name":"amount","type":"uint256","internalType":"uint256"}],"outputs":[],"stateMutability":"nonpayable"},{"type":"function","name":"setServiceManagerCreateTaskGasCost","inputs":[{"name":"amount","type":"uint256","internalType":"uint256"}],"outputs":[],"stateMutability":"nonpayable"},{"type":"function","name":"transferOwnership","inputs":[{"name":"newOwner","type":"address","internalType":"address"}],"outputs":[],"stateMutability":"nonpayable"},{"type":"function","name":"unpause","inputs":[],"outputs":[],"stateMutability":"nonpayable"},{"type":"function","name":"withdraw","inputs":[{"name":"amount","type":"uint256","internalType":"uint256"}],"outputs":[],"stateMutability":"nonpayable"},{"type":"event","name":"FundsWithdrawn","inputs":[{"name":"recipient","type":"address","indexed":true,"internalType":"address"},{"name":"amount","type":"uint256","indexed":false,"internalType":"uint256"}],"anonymous":false},{"type":"event","name":"Initialized","inputs":[{"name":"version","type":"uint8","indexed":false,"internalType":"uint8"}],"anonymous":false},{"type":"event","name":"OwnershipTransferred","inputs":[{"name":"previousOwner","type":"address","indexed":true,"internalType":"address"},{"name":"newOwner","type":"address","indexed":true,"internalType":"address"}],"anonymous":false},{"type":"event","name":"Paused","inputs":[{"name":"account","type":"address","indexed":false,"internalType":"address"}],"anonymous":false},{"type":"event","name":"PaymentReceived","inputs":[{"name":"sender","type":"address","indexed":true,"internalType":"address"},{"name":"amount","type":"uint256","indexed":false,"internalType":"uint256"}],"anonymous":false},{"type":"event","name":"Unpaused","inputs":[{"name":"account","type":"address","indexed":false,"internalType":"address"}],"anonymous":false}],"bytecode":{"object":"0x608060405234801561001057600080fd5b5061001961001e565b6100de565b600054610100900460ff161561008a5760405162461bcd60e51b815260206004820152602760248201527f496e697469616c697a61626c653a20636f6e747261637420697320696e697469604482015266616c697a696e6760c81b606482015260840160405180910390fd5b60005460ff90811610156100dc576000805460ff191660ff9081179091556040519081527f7f26b83ff96e1f2b6a682f133852f6798a09c465da95921460cefb38474024989060200160405180910390a15b565b610f84806100ed6000396000f3fe60806040526004361061010d5760003560e01c80638456cb5911610095578063cdaa7ff211610064578063cdaa7ff214610314578063d13f90b41461032a578063d3c7f8331461034a578063f2fde38b1461036a578063fa5395c71461038a57600080fd5b80638456cb591461028d5780638ad635d4146102a25780638da5cb5b146102c2578063b5708230146102f457600080fd5b80635c975abb116100dc5780635c975abb146101f2578063642e6f24146102155780636595476d1461022b578063715018a61461024b57806377f3f7821461026057600080fd5b80632430f5f8146101725780632e1a7d4d1461019b5780633da924f5146101bd5780633f4ba83a146101dd57600080fd5b3661016d573360009081526099602052604081208054349290610131908490610c51565b909155505060405134815233907f6ef95f06320e7a25a04a175ca677b7052bdd97131872c2192525a629f51be7709060200160405180910390a2005b600080fd5b34801561017e57600080fd5b50610188609c5481565b6040519081526020015b60405180910390f35b3480156101a757600080fd5b506101bb6101b6366004610c69565b6103aa565b005b3480156101c957600080fd5b506101bb6101d8366004610c69565b6104a0565b3480156101e957600080fd5b506101bb6104b5565b3480156101fe57600080fd5b5060655460ff166040519015158152602001610192565b34801561022157600080fd5b50610188609a5481565b34801561023757600080fd5b506101bb610246366004610c69565b6104c7565b34801561025757600080fd5b506101bb6104dc565b34801561026c57600080fd5b5061018861027b366004610c9e565b60996020526000908152604090205481565b34801561029957600080fd5b506101bb6104ee565b3480156102ae57600080fd5b506101bb6102bd366004610c69565b6104fe565b3480156102ce57600080fd5b506033546001600160a01b03165b6040516001600160a01b039091168152602001610192565b34801561030057600080fd5b506097546102dc906001600160a01b031681565b34801561032057600080fd5b50610188609b5481565b34801561033657600080fd5b506101bb610345366004610cc0565b610513565b34801561035657600080fd5b506098546102dc906001600160a01b031681565b34801561037657600080fd5b506101bb610385366004610c9e565b610668565b34801561039657600080fd5b506101bb6103a5366004610d59565b6106e1565b6103b2610a12565b336000908152609960205260409020548111156104165760405162461bcd60e51b815260206004820152601e60248201527f50617965722068617320696e73756666696369656e742062616c616e6365000060448201526064015b60405180910390fd5b3360009081526099602052604081208054839290610435908490610e09565b9091555050604051339082156108fc029083906000818181858888f19350505050158015610467573d6000803e3d6000fd5b5060405181815233907feaff4b37086828766ad3268786972c0cd24259d4c87a80f9d3963a3c3d999b0d9060200160405180910390a250565b6104a8610a58565b6104b0610a12565b609a55565b6104bd610a58565b6104c5610ab2565b565b6104cf610a58565b6104d7610a12565b609b55565b6104e4610a58565b6104c56000610b04565b6104f6610a58565b6104c5610b56565b610506610a58565b61050e610a12565b609c55565b600054610100900460ff16158080156105335750600054600160ff909116105b8061054d5750303b15801561054d575060005460ff166001145b6105b05760405162461bcd60e51b815260206004820152602e60248201527f496e697469616c697a61626c653a20636f6e747261637420697320616c72656160448201526d191e481a5b9a5d1a585b1a5e995960921b606482015260840161040d565b6000805460ff1916600117905580156105d3576000805461ff0019166101001790555b6105db610b93565b609780546001600160a01b038089166001600160a01b0319928316179092556098805492881692909116919091179055609a849055609b839055609c8290558015610660576000805461ff0019169055604051600181527f7f26b83ff96e1f2b6a682f133852f6798a09c465da95921460cefb38474024989060200160405180910390a15b505050505050565b610670610a58565b6001600160a01b0381166106d55760405162461bcd60e51b815260206004820152602660248201527f4f776e61626c653a206e6577206f776e657220697320746865207a65726f206160448201526564647265737360d01b606482015260840161040d565b6106de81610b04565b50565b6098546001600160a01b031633146107475760405162461bcd60e51b815260206004820152602360248201527f4f6e6c7920426174636865722063616e2063616c6c20746869732066756e637460448201526234b7b760e91b606482015260840161040d565b61074f610a12565b81806107935760405162461bcd60e51b81526020600482015260136024820152724e6f2070726f6f66207375626d69747465727360681b604482015260640161040d565b6000600a3a83609c546107a69190610e20565b609b54609a546107b69190610c51565b6107c09190610c51565b6107ca9190610e20565b6107d590600b610e20565b6107df9190610e3f565b90506000826107ee8386610c51565b6107f89190610e3f565b905060005b838110156108db57600087878381811061081957610819610e61565b905060200201602081019061082e9190610c9e565b6001600160a01b0381166000908152609960205260409020549091508311156108995760405162461bcd60e51b815260206004820152601e60248201527f50617965722068617320696e73756666696369656e742062616c616e63650000604482015260640161040d565b6001600160a01b038116600090815260996020526040812080548592906108c1908490610e09565b909155508291506108d3905081610e77565b9150506107fd565b506097546040516000916001600160a01b0316908690610903908d908d908d90602401610e92565b60408051601f198184030181529181526020820180516001600160e01b0316631700226560e21b179052516109389190610ec8565b60006040518083038185875af1925050503d8060008114610975576040519150601f19603f3d011682016040523d82523d6000602084013e61097a565b606091505b50509050806109cb5760405162461bcd60e51b815260206004820152601960248201527f6372656174654e65775461736b2063616c6c206661696c656400000000000000604482015260640161040d565b6098546040516001600160a01b039091169084156108fc029085906000818181858888f19350505050158015610a05573d6000803e3d6000fd5b5050505050505050505050565b60655460ff16156104c55760405162461bcd60e51b815260206004820152601060248201526f14185d5cd8589b194e881c185d5cd95960821b604482015260640161040d565b6033546001600160a01b031633146104c55760405162461bcd60e51b815260206004820181905260248201527f4f776e61626c653a2063616c6c6572206973206e6f7420746865206f776e6572604482015260640161040d565b610aba610bc2565b6065805460ff191690557f5db9ee0a495bf2e6ff9c91a7834c1ba4fdd244a5e8aa4e537bd38aeae4b073aa335b6040516001600160a01b03909116815260200160405180910390a1565b603380546001600160a01b038381166001600160a01b0319831681179093556040519116919082907f8be0079c531659141344cd1fd0a4f28419497f9722a3daafe3b4186f6b6457e090600090a35050565b610b5e610a12565b6065805460ff191660011790557f62e78cea01bee320cd4e420270b5ea74000d11b0c9f74754ebdbfc544b05a258610ae73390565b600054610100900460ff16610bba5760405162461bcd60e51b815260040161040d90610f03565b6104c5610c0b565b60655460ff166104c55760405162461bcd60e51b815260206004820152601460248201527314185d5cd8589b194e881b9bdd081c185d5cd95960621b604482015260640161040d565b600054610100900460ff16610c325760405162461bcd60e51b815260040161040d90610f03565b6104c533610b04565b634e487b7160e01b600052601160045260246000fd5b60008219821115610c6457610c64610c3b565b500190565b600060208284031215610c7b57600080fd5b5035919050565b80356001600160a01b0381168114610c9957600080fd5b919050565b600060208284031215610cb057600080fd5b610cb982610c82565b9392505050565b600080600080600060a08688031215610cd857600080fd5b610ce186610c82565b9450610cef60208701610c82565b94979496505050506040830135926060810135926080909101359150565b60008083601f840112610d1f57600080fd5b50813567ffffffffffffffff811115610d3757600080fd5b6020830191508360208260051b8501011115610d5257600080fd5b9250929050565b60008060008060008060808789031215610d7257600080fd5b86359550602087013567ffffffffffffffff80821115610d9157600080fd5b818901915089601f830112610da557600080fd5b813581811115610db457600080fd5b8a6020828501011115610dc657600080fd5b602083019750809650506040890135915080821115610de457600080fd5b50610df189828a01610d0d565b979a9699509497949695606090950135949350505050565b600082821015610e1b57610e1b610c3b565b500390565b6000816000190483118215151615610e3a57610e3a610c3b565b500290565b600082610e5c57634e487b7160e01b600052601260045260246000fd5b500490565b634e487b7160e01b600052603260045260246000fd5b6000600019821415610e8b57610e8b610c3b565b5060010190565b83815260406020820152816040820152818360608301376000818301606090810191909152601f909201601f1916010192915050565b6000825160005b81811015610ee95760208186018101518583015201610ecf565b81811115610ef8576000828501525b509190910192915050565b6020808252602b908201527f496e697469616c697a61626c653a20636f6e7472616374206973206e6f74206960408201526a6e697469616c697a696e6760a81b60608201526080019056fea26469706673582212200c34321bbcd78579b2ab3fc4fc198a3b86e70ec234af50b9bb9242d53ebf809464736f6c634300080c0033","linkReferences":{}},"methodIdentifiers":{"AlignedLayerServiceManager()":"b5708230","BatcherWallet()":"d3c7f833","EXTRA_USER_TX_GAS_COST()":"2430f5f8","PAYMENT_SERVICE_CREATE_TASK_GAS_COST()":"642e6f24","SERVICE_MANAGER_CREATE_TASK_GAS_COST()":"cdaa7ff2","UserBalances(address)":"77f3f782","createNewTask(bytes32,string,address[],uint256)":"fa5395c7","initialize(address,address,uint256,uint256,uint256)":"d13f90b4","owner()":"8da5cb5b","pause()":"8456cb59","paused()":"5c975abb","renounceOwnership()":"715018a6","setExtraUserTxGasCost(uint256)":"8ad635d4","setPaymentServiceCreateTaskGasCost(uint256)":"3da924f5","setServiceManagerCreateTaskGasCost(uint256)":"6595476d","transferOwnership(address)":"f2fde38b","unpause()":"3f4ba83a","withdraw(uint256)":"2e1a7d4d"},"id":120}