{"abi":[{"type":"constructor","inputs":[{"name":"__avsDirectory","type":"address","internalType":"contract IAVSDirectory"},{"name":"__registryCoordinator","type":"address","internalType":"contract IRegistryCoordinator"},{"name":"__stakeRegistry","type":"address","internalType":"contract IStakeRegistry"}],"stateMutability":"nonpayable"},{"type":"function","name":"avsDirectory","inputs":[],"outputs":[{"name":"","type":"address","internalType":"address"}],"stateMutability":"view"},{"type":"function","name":"blsApkRegistry","inputs":[],"outputs":[{"name":"","type":"address","internalType":"contract IBLSApkRegistry"}],"stateMutability":"view"},{"type":"function","name":"checkSignatures","inputs":[{"name":"msgHash","type":"bytes32","internalType":"bytes32"},{"name":"referenceBlockNumber","type":"uint32","internalType":"uint32"},{"name":"params","type":"tuple","internalType":"struct IBLSSignatureChecker.NonSignerStakesAndSignature","components":[{"name":"nonSignerQuorumBitmapIndices","type":"uint32[]","internalType":"uint32[]"},{"name":"nonSignerPubkeys","type":"tuple[]","internalType":"struct BN254.G1Point[]","components":[{"name":"X","type":"uint256","internalType":"uint256"},{"name":"Y","type":"uint256","internalType":"uint256"}]},{"name":"quorumApks","type":"tuple[]","internalType":"struct BN254.G1Point[]","components":[{"name":"X","type":"uint256","internalType":"uint256"},{"name":"Y","type":"uint256","internalType":"uint256"}]},{"name":"apkG2","type":"tuple","internalType":"struct BN254.G2Point","components":[{"name":"X","type":"uint256[2]","internalType":"uint256[2]"},{"name":"Y","type":"uint256[2]","internalType":"uint256[2]"}]},{"name":"sigma","type":"tuple","internalType":"struct BN254.G1Point","components":[{"name":"X","type":"uint256","internalType":"uint256"},{"name":"Y","type":"uint256","internalType":"uint256"}]},{"name":"quorumApkIndices","type":"uint32[]","internalType":"uint32[]"},{"name":"totalStakeIndices","type":"uint32[]","internalType":"uint32[]"},{"name":"nonSignerStakeIndices","type":"uint32[][]","internalType":"uint32[][]"}]}],"outputs":[{"name":"","type":"tuple","internalType":"struct IBLSSignatureChecker.QuorumStakeTotals","components":[{"name":"signedStakeForQuorum","type":"uint96[]","internalType":"uint96[]"},{"name":"totalStakeForQuorum","type":"uint96[]","internalType":"uint96[]"}]},{"name":"","type":"bytes32","internalType":"bytes32"}],"stateMutability":"view"},{"type":"function","name":"createNewTask","inputs":[{"name":"batchMerkleRoot","type":"bytes32","internalType":"bytes32"},{"name":"batchDataPointer","type":"string","internalType":"string"}],"outputs":[],"stateMutability":"payable"},{"type":"function","name":"delegation","inputs":[],"outputs":[{"name":"","type":"address","internalType":"contract IDelegationManager"}],"stateMutability":"view"},{"type":"function","name":"deregisterOperatorFromAVS","inputs":[{"name":"operator","type":"address","internalType":"address"}],"outputs":[],"stateMutability":"nonpayable"},{"type":"function","name":"getOperatorRestakedStrategies","inputs":[{"name":"operator","type":"address","internalType":"address"}],"outputs":[{"name":"","type":"address[]","internalType":"address[]"}],"stateMutability":"view"},{"type":"function","name":"getRestakeableStrategies","inputs":[],"outputs":[{"name":"","type":"address[]","internalType":"address[]"}],"stateMutability":"view"},{"type":"function","name":"initialize","inputs":[{"name":"_initialOwner","type":"address","internalType":"address"},{"name":"_aggregator","type":"address","internalType":"address"}],"outputs":[],"stateMutability":"nonpayable"},{"type":"function","name":"isAggregator","inputs":[{"name":"_aggregator","type":"address","internalType":"address"}],"outputs":[{"name":"","type":"bool","internalType":"bool"}],"stateMutability":"view"},{"type":"function","name":"owner","inputs":[],"outputs":[{"name":"","type":"address","internalType":"address"}],"stateMutability":"view"},{"type":"function","name":"registerOperatorToAVS","inputs":[{"name":"operator","type":"address","internalType":"address"},{"name":"operatorSignature","type":"tuple","internalType":"struct ISignatureUtils.SignatureWithSaltAndExpiry","components":[{"name":"signature","type":"bytes","internalType":"bytes"},{"name":"salt","type":"bytes32","internalType":"bytes32"},{"name":"expiry","type":"uint256","internalType":"uint256"}]}],"outputs":[],"stateMutability":"nonpayable"},{"type":"function","name":"registryCoordinator","inputs":[],"outputs":[{"name":"","type":"address","internalType":"contract IRegistryCoordinator"}],"stateMutability":"view"},{"type":"function","name":"renounceOwnership","inputs":[],"outputs":[],"stateMutability":"nonpayable"},{"type":"function","name":"respondToTask","inputs":[{"name":"batchMerkleRoot","type":"bytes32","internalType":"bytes32"},{"name":"nonSignerStakesAndSignature","type":"tuple","internalType":"struct IBLSSignatureChecker.NonSignerStakesAndSignature","components":[{"name":"nonSignerQuorumBitmapIndices","type":"uint32[]","internalType":"uint32[]"},{"name":"nonSignerPubkeys","type":"tuple[]","internalType":"struct BN254.G1Point[]","components":[{"name":"X","type":"uint256","internalType":"uint256"},{"name":"Y","type":"uint256","internalType":"uint256"}]},{"name":"quorumApks","type":"tuple[]","internalType":"struct BN254.G1Point[]","components":[{"name":"X","type":"uint256","internalType":"uint256"},{"name":"Y","type":"uint256","internalType":"uint256"}]},{"name":"apkG2","type":"tuple","internalType":"struct BN254.G2Point","components":[{"name":"X","type":"uint256[2]","internalType":"uint256[2]"},{"name":"Y","type":"uint256[2]","internalType":"uint256[2]"}]},{"name":"sigma","type":"tuple","internalType":"struct BN254.G1Point","components":[{"name":"X","type":"uint256","internalType":"uint256"},{"name":"Y","type":"uint256","internalType":"uint256"}]},{"name":"quorumApkIndices","type":"uint32[]","internalType":"uint32[]"},{"name":"totalStakeIndices","type":"uint32[]","internalType":"uint32[]"},{"name":"nonSignerStakeIndices","type":"uint32[][]","internalType":"uint32[][]"}]}],"outputs":[],"stateMutability":"nonpayable"},{"type":"function","name":"setStaleStakesForbidden","inputs":[{"name":"value","type":"bool","internalType":"bool"}],"outputs":[],"stateMutability":"nonpayable"},{"type":"function","name":"stakeRegistry","inputs":[],"outputs":[{"name":"","type":"address","internalType":"contract IStakeRegistry"}],"stateMutability":"view"},{"type":"function","name":"staleStakesForbidden","inputs":[],"outputs":[{"name":"","type":"bool","internalType":"bool"}],"stateMutability":"view"},{"type":"function","name":"transferOwnership","inputs":[{"name":"newOwner","type":"address","internalType":"address"}],"outputs":[],"stateMutability":"nonpayable"},{"type":"function","name":"trySignatureAndApkVerification","inputs":[{"name":"msgHash","type":"bytes32","internalType":"bytes32"},{"name":"apk","type":"tuple","internalType":"struct BN254.G1Point","components":[{"name":"X","type":"uint256","internalType":"uint256"},{"name":"Y","type":"uint256","internalType":"uint256"}]},{"name":"apkG2","type":"tuple","internalType":"struct BN254.G2Point","components":[{"name":"X","type":"uint256[2]","internalType":"uint256[2]"},{"name":"Y","type":"uint256[2]","internalType":"uint256[2]"}]},{"name":"sigma","type":"tuple","internalType":"struct BN254.G1Point","components":[{"name":"X","type":"uint256","internalType":"uint256"},{"name":"Y","type":"uint256","internalType":"uint256"}]}],"outputs":[{"name":"pairingSuccessful","type":"bool","internalType":"bool"},{"name":"siganatureIsValid","type":"bool","internalType":"bool"}],"stateMutability":"view"},{"type":"function","name":"updateAVSMetadataURI","inputs":[{"name":"_metadataURI","type":"string","internalType":"string"}],"outputs":[],"stateMutability":"nonpayable"},{"type":"event","name":"BatchVerified","inputs":[{"name":"batchMerkleRoot","type":"bytes32","indexed":false,"internalType":"bytes32"}],"anonymous":false},{"type":"event","name":"Initialized","inputs":[{"name":"version","type":"uint8","indexed":false,"internalType":"uint8"}],"anonymous":false},{"type":"event","name":"NewBatch","inputs":[{"name":"batchMerkleRoot","type":"bytes32","indexed":false,"internalType":"bytes32"},{"name":"taskCreatedBlock","type":"uint32","indexed":false,"internalType":"uint32"},{"name":"batchDataPointer","type":"string","indexed":false,"internalType":"string"}],"anonymous":false},{"type":"event","name":"OwnershipTransferred","inputs":[{"name":"previousOwner","type":"address","indexed":true,"internalType":"address"},{"name":"newOwner","type":"address","indexed":true,"internalType":"address"}],"anonymous":false},{"type":"event","name":"StaleStakesForbiddenUpdate","inputs":[{"name":"value","type":"bool","indexed":false,"internalType":"bool"}],"anonymous":false}],"bytecode":{"object":"0x6101606040523480156200001257600080fd5b5060405162004284380380620042848339810160408190526200003591620002da565b6001600160a01b0380841660c052808316608052811660a052818381836200005c620001ff565b5050506001600160a01b03811660e081905260408051636830483560e01b815290516368304835916004808201926020929091908290030181865afa158015620000aa573d6000803e3d6000fd5b505050506040513d601f19601f82011682018060405250810190620000d091906200032e565b6001600160a01b0316610100816001600160a01b031681525050806001600160a01b0316635df459466040518163ffffffff1660e01b8152600401602060405180830381865afa15801562000129573d6000803e3d6000fd5b505050506040513d601f19601f820116820180604052508101906200014f91906200032e565b6001600160a01b0316610120816001600160a01b031681525050610100516001600160a01b031663df5cf7236040518163ffffffff1660e01b8152600401602060405180830381865afa158015620001ab573d6000803e3d6000fd5b505050506040513d601f19601f82011682018060405250810190620001d191906200032e565b6001600160a01b031661014052506097805460ff19166001179055620001f6620001ff565b50505062000355565b600054610100900460ff16156200026c5760405162461bcd60e51b815260206004820152602760248201527f496e697469616c697a61626c653a20636f6e747261637420697320696e697469604482015266616c697a696e6760c81b606482015260840160405180910390fd5b60005460ff9081161015620002bf576000805460ff191660ff9081179091556040519081527f7f26b83ff96e1f2b6a682f133852f6798a09c465da95921460cefb38474024989060200160405180910390a15b565b6001600160a01b0381168114620002d757600080fd5b50565b600080600060608486031215620002f057600080fd5b8351620002fd81620002c1565b60208501519093506200031081620002c1565b60408501519092506200032381620002c1565b809150509250925092565b6000602082840312156200034157600080fd5b81516200034e81620002c1565b9392505050565b60805160a05160c05160e051610100516101205161014051613e3a6200044a6000396000818161042001526115c201526000818161028c01526117d50152600081816102d8015281816119c20152611bb201526000818161033f01528181610c710152818161127e01528181611425015261167601526000818161030901528181611fd3015281816120a7015261212601526000818161099a01528181610af501528181610b8c01528181612223015281816123a601526124450152600081816107c501528181610854015281816108d401528181611f7f0152818161204b0152818161216101526123010152613e3a6000f3fe60806040526004361061012a5760003560e01c80636b3aa72e116100ab578063a364f4da1161006f578063a364f4da146103b4578063a98fb355146103d4578063b98d0908146103f4578063df5cf7231461040e578063e481af9d14610442578063f2fde38b1461045757600080fd5b80636b3aa72e146102fa5780636d14a9871461032d578063715018a6146103615780638da5cb5b146103765780639926ee7d1461039457600080fd5b8063485cc955116100f2578063485cc955146102195780634ae07c37146102395780635c008994146102675780635df459461461027a57806368304835146102c657600080fd5b8063171f1d5b1461012f5780631e8f3c951461016b5780632dd94eba146101aa57806333cfb7b7146101cc578063416c7e5e146101f9575b600080fd5b34801561013b57600080fd5b5061014f61014a3660046132eb565b610477565b6040805192151583529015156020830152015b60405180910390f35b34801561017757600080fd5b5061019a610186366004613351565b60c9546001600160a01b0390811691161490565b6040519015158152602001610162565b3480156101b657600080fd5b506101ca6101c5366004613624565b610601565b005b3480156101d857600080fd5b506101ec6101e7366004613351565b6107a0565b604051610162919061366a565b34801561020557600080fd5b506101ca6102143660046136b7565b610c6f565b34801561022557600080fd5b506101ca6102343660046136d9565b610de4565b34801561024557600080fd5b50610259610254366004613712565b610f13565b6040516101629291906137ac565b6101ca6102753660046137f5565b611e7c565b34801561028657600080fd5b506102ae7f000000000000000000000000000000000000000000000000000000000000000081565b6040516001600160a01b039091168152602001610162565b3480156102d257600080fd5b506102ae7f000000000000000000000000000000000000000000000000000000000000000081565b34801561030657600080fd5b507f00000000000000000000000000000000000000000000000000000000000000006102ae565b34801561033957600080fd5b506102ae7f000000000000000000000000000000000000000000000000000000000000000081565b34801561036d57600080fd5b506101ca611f60565b34801561038257600080fd5b506033546001600160a01b03166102ae565b3480156103a057600080fd5b506101ca6103af3660046138c7565b611f74565b3480156103c057600080fd5b506101ca6103cf366004613351565b612040565b3480156103e057600080fd5b506101ca6103ef366004613971565b612107565b34801561040057600080fd5b5060975461019a9060ff1681565b34801561041a57600080fd5b506102ae7f000000000000000000000000000000000000000000000000000000000000000081565b34801561044e57600080fd5b506101ec61215b565b34801561046357600080fd5b506101ca610472366004613351565b612524565b60008060007f30644e72e131a029b85045b68181585d2833e84879b9709143e1f593f0000001878760000151886020015188600001516000600281106104bf576104bf6139c1565b60200201518951600160200201518a602001516000600281106104e4576104e46139c1565b60200201518b60200151600160028110610500576105006139c1565b602090810291909101518c518d83015160405161055d9a99989796959401988952602089019790975260408801959095526060870193909352608086019190915260a085015260c084015260e08301526101008201526101200190565b6040516020818303038152906040528051906020012060001c61058091906139d7565b90506105f3610599610592888461259d565b8690612634565b6105a16126c8565b6105e96105da856105d4604080518082018252600080825260209182015281518083019092526001825260029082015290565b9061259d565b6105e38c612788565b90612634565b886201d4c0612818565b909890975095505050505050565b600082815260ca602052604090205463ffffffff1661065e5760405162461bcd60e51b8152602060048201526014602482015273426174636820646f65736e27742065786973747360601b60448201526064015b60405180910390fd5b600082815260ca6020526040812054819061068190859063ffffffff1685610f13565b91509150604360ff1682602001516000815181106106a1576106a16139c1565b60200260200101516106b39190613a0f565b6001600160601b0316606483600001516000815181106106d5576106d56139c1565b60200260200101516001600160601b03166106f09190613a3e565b1015610766576040805162461bcd60e51b81526020600482015260248101919091527f5369676e61746f7269657320646f206e6f74206f776e206174206c656173742060448201527f7468726573686f6c642070657263656e74616765206f6620612071756f72756d6064820152608401610655565b6040518481527f433ae0767fe95db70a0e30eda902926e41203b9eb97ec5175076fb9e2d35c13e906020015b60405180910390a150505050565b6040516309aa152760e11b81526001600160a01b0382811660048301526060916000917f000000000000000000000000000000000000000000000000000000000000000016906313542a4e90602401602060405180830381865afa15801561080c573d6000803e3d6000fd5b505050506040513d601f19601f820116820180604052508101906108309190613a5d565b60405163871ef04960e01b8152600481018290529091506000906001600160a01b037f0000000000000000000000000000000000000000000000000000000000000000169063871ef04990602401602060405180830381865afa15801561089b573d6000803e3d6000fd5b505050506040513d601f19601f820116820180604052508101906108bf9190613a76565b90506001600160c01b038116158061095957507f00000000000000000000000000000000000000000000000000000000000000006001600160a01b0316639aa1653d6040518163ffffffff1660e01b8152600401602060405180830381865afa158015610930573d6000803e3d6000fd5b505050506040513d601f19601f820116820180604052508101906109549190613a9f565b60ff16155b1561097557505060408051600081526020810190915292915050565b6000610989826001600160c01b0316612a3c565b90506000805b8251811015610a5f577f00000000000000000000000000000000000000000000000000000000000000006001600160a01b0316633ca5a5f58483815181106109d9576109d96139c1565b01602001516040516001600160e01b031960e084901b16815260f89190911c6004820152602401602060405180830381865afa158015610a1d573d6000803e3d6000fd5b505050506040513d601f19601f82011682018060405250810190610a419190613a5d565b610a4b9083613ac2565b915080610a5781613ada565b91505061098f565b506000816001600160401b03811115610a7a57610a7a613178565b604051908082528060200260200182016040528015610aa3578160200160208202803683370190505b5090506000805b8451811015610c62576000858281518110610ac757610ac76139c1565b0160200151604051633ca5a5f560e01b815260f89190911c6004820181905291506000906001600160a01b037f00000000000000000000000000000000000000000000000000000000000000001690633ca5a5f590602401602060405180830381865afa158015610b3c573d6000803e3d6000fd5b505050506040513d601f19601f82011682018060405250810190610b609190613a5d565b905060005b81811015610c4c576040516356e4026d60e11b815260ff84166004820152602481018290527f00000000000000000000000000000000000000000000000000000000000000006001600160a01b03169063adc804da906044016040805180830381865afa158015610bda573d6000803e3d6000fd5b505050506040513d601f19601f82011682018060405250810190610bfe9190613b0c565b60000151868681518110610c1457610c146139c1565b6001600160a01b039092166020928302919091019091015284610c3681613ada565b9550508080610c4490613ada565b915050610b65565b5050508080610c5a90613ada565b915050610aaa565b5090979650505050505050565b7f00000000000000000000000000000000000000000000000000000000000000006001600160a01b0316638da5cb5b6040518163ffffffff1660e01b8152600401602060405180830381865afa158015610ccd573d6000803e3d6000fd5b505050506040513d601f19601f82011682018060405250810190610cf19190613b4b565b6001600160a01b0316336001600160a01b031614610d9d5760405162461bcd60e51b815260206004820152605c60248201527f424c535369676e6174757265436865636b65722e6f6e6c79436f6f7264696e6160448201527f746f724f776e65723a2063616c6c6572206973206e6f7420746865206f776e6560648201527f72206f6620746865207265676973747279436f6f7264696e61746f7200000000608482015260a401610655565b6097805460ff19168215159081179091556040519081527f40e4ed880a29e0f6ddce307457fb75cddf4feef7d3ecb0301bfdf4976a0e2dfc9060200160405180910390a150565b600054610100900460ff1615808015610e045750600054600160ff909116105b80610e1e5750303b158015610e1e575060005460ff166001145b610e815760405162461bcd60e51b815260206004820152602e60248201527f496e697469616c697a61626c653a20636f6e747261637420697320616c72656160448201526d191e481a5b9a5d1a585b1a5e995960921b6064820152608401610655565b6000805460ff191660011790558015610ea4576000805461ff0019166101001790555b610ead83612afe565b60c980546001600160a01b0319166001600160a01b0384161790558015610f0e576000805461ff0019169055604051600181527f7f26b83ff96e1f2b6a682f133852f6798a09c465da95921460cefb38474024989060200160405180910390a15b505050565b6040805180820190915260608082526020820152604080518082019091526001815260006020909101819052826040015151604051806040016040528060018152602001600081525051148015610f8557508260a0015151604051806040016040528060018152602001600081525051145b8015610fac57508260c0015151604051806040016040528060018152602001600081525051145b8015610fd357508260e0015151604051806040016040528060018152602001600081525051145b61103d5760405162461bcd60e51b81526020600482015260416024820152600080516020613de583398151915260448201527f7265733a20696e7075742071756f72756d206c656e677468206d69736d6174636064820152600d60fb1b608482015260a401610655565b825151602084015151146110b55760405162461bcd60e51b815260206004820152604460248201819052600080516020613de5833981519152908201527f7265733a20696e707574206e6f6e7369676e6572206c656e677468206d69736d6064820152630c2e8c6d60e31b608482015260a401610655565b4363ffffffff168463ffffffff16106111245760405162461bcd60e51b815260206004820152603c6024820152600080516020613de583398151915260448201527f7265733a20696e76616c6964207265666572656e636520626c6f636b000000006064820152608401610655565b60408051808201825260008082526020808301829052835180850185526060808252818301528451808601865260018082529083019390935284518381528086019095529293919082810190803683370190505060208281019190915260408051808201825260018082526000919093015280518281528082019091529081602001602082028036833701905050815260408051808201909152606080825260208201528560200151516001600160401b038111156111e5576111e5613178565b60405190808252806020026020018201604052801561120e578160200160208202803683370190505b5081526020860151516001600160401b0381111561122e5761122e613178565b604051908082528060200260200182016040528015611257578160200160208202803683370190505b508160200181905250600061130360405180604001604052806001815260200160008152507f00000000000000000000000000000000000000000000000000000000000000006001600160a01b0316639aa1653d6040518163ffffffff1660e01b8152600401602060405180830381865afa1580156112da573d6000803e3d6000fd5b505050506040513d601f19601f820116820180604052508101906112fe9190613a9f565b612b50565b905060005b87602001515181101561159e5761134d8860200151828151811061132e5761132e6139c1565b6020026020010151805160009081526020918201519091526040902090565b83602001518281518110611363576113636139c1565b60209081029190910101528015611423576020830151611384600183613b68565b81518110611394576113946139c1565b602002602001015160001c836020015182815181106113b5576113b56139c1565b602002602001015160001c11611423576040805162461bcd60e51b8152602060048201526024810191909152600080516020613de583398151915260448201527f7265733a206e6f6e5369676e65725075626b657973206e6f7420736f727465646064820152608401610655565b7f00000000000000000000000000000000000000000000000000000000000000006001600160a01b03166304ec635184602001518381518110611468576114686139c1565b60200260200101518b8b600001518581518110611487576114876139c1565b60200260200101516040518463ffffffff1660e01b81526004016114c49392919092835263ffffffff918216602084015216604082015260600190565b602060405180830381865afa1580156114e1573d6000803e3d6000fd5b505050506040513d601f19601f820116820180604052508101906115059190613a76565b6001600160c01b031683600001518281518110611524576115246139c1565b60200260200101818152505061158a61059261155e8486600001518581518110611550576115506139c1565b602002602001015116612be3565b8a602001518481518110611574576115746139c1565b6020026020010151612c0e90919063ffffffff16565b94508061159681613ada565b915050611308565b50506115a983612cf2565b60975490935060ff166000816115c0576000611642565b7f00000000000000000000000000000000000000000000000000000000000000006001600160a01b031663c448feb86040518163ffffffff1660e01b8152600401602060405180830381865afa15801561161e573d6000803e3d6000fd5b505050506040513d601f19601f820116820180604052508101906116429190613a5d565b905060005b604051806040016040528060018152602001600081525051811015611d4d5782156117d3578963ffffffff16827f00000000000000000000000000000000000000000000000000000000000000006001600160a01b031663249a0c42604051806040016040528060018152602001600081525085815181106116cb576116cb6139c1565b01602001516040516001600160e01b031960e084901b16815260f89190911c6004820152602401602060405180830381865afa15801561170f573d6000803e3d6000fd5b505050506040513d601f19601f820116820180604052508101906117339190613a5d565b61173d9190613ac2565b116117d35760405162461bcd60e51b81526020600482015260666024820152600080516020613de583398151915260448201527f7265733a205374616b6552656769737472792075706461746573206d7573742060648201527f62652077697468696e207769746864726177616c44656c6179426c6f636b732060848201526577696e646f7760d01b60a482015260c401610655565b7f00000000000000000000000000000000000000000000000000000000000000006001600160a01b03166368bccaac6040518060400160405280600181526020016000815250838151811061182a5761182a6139c1565b602001015160f81c60f81b60f81c8c8c60a00151858151811061184f5761184f6139c1565b60209081029190910101516040516001600160e01b031960e086901b16815260ff909316600484015263ffffffff9182166024840152166044820152606401602060405180830381865afa1580156118ab573d6000803e3d6000fd5b505050506040513d601f19601f820116820180604052508101906118cf9190613b7f565b6001600160401b0319166118f28a60400151838151811061132e5761132e6139c1565b67ffffffffffffffff19161461198e5760405162461bcd60e51b81526020600482015260616024820152600080516020613de583398151915260448201527f7265733a2071756f72756d41706b206861736820696e2073746f72616765206460648201527f6f6573206e6f74206d617463682070726f76696465642071756f72756d2061706084820152606b60f81b60a482015260c401610655565b6119be896040015182815181106119a7576119a76139c1565b60200260200101518761263490919063ffffffff16565b95507f00000000000000000000000000000000000000000000000000000000000000006001600160a01b031663c8294c5660405180604001604052806001815260200160008152508381518110611a1757611a176139c1565b602001015160f81c60f81b60f81c8c8c60c001518581518110611a3c57611a3c6139c1565b60209081029190910101516040516001600160e01b031960e086901b16815260ff909316600484015263ffffffff9182166024840152166044820152606401602060405180830381865afa158015611a98573d6000803e3d6000fd5b505050506040513d601f19601f82011682018060405250810190611abc9190613baa565b85602001518281518110611ad257611ad26139c1565b6001600160601b03909216602092830291909101820152850151805182908110611afe57611afe6139c1565b602002602001015185600001518281518110611b1c57611b1c6139c1565b60200260200101906001600160601b031690816001600160601b0316815250506000805b8a6020015151811015611d3857611bab86600001518281518110611b6657611b666139c1565b602002602001015160405180604001604052806001815260200160008152508581518110611b9657611b966139c1565b016020015160f81c60ff161c60019081161490565b15611d26577f00000000000000000000000000000000000000000000000000000000000000006001600160a01b031663f2be94ae60405180604001604052806001815260200160008152508581518110611c0757611c076139c1565b602001015160f81c60f81b60f81c8e89602001518581518110611c2c57611c2c6139c1565b60200260200101518f60e001518881518110611c4a57611c4a6139c1565b60200260200101518781518110611c6357611c636139c1565b60209081029190910101516040516001600160e01b031960e087901b16815260ff909416600485015263ffffffff92831660248501526044840191909152166064820152608401602060405180830381865afa158015611cc7573d6000803e3d6000fd5b505050506040513d601f19601f82011682018060405250810190611ceb9190613baa565b8751805185908110611cff57611cff6139c1565b60200260200101818151611d139190613bcc565b6001600160601b03169052506001909101905b80611d3081613ada565b915050611b40565b50508080611d4590613ada565b915050611647565b505050600080611d678a868a606001518b60800151610477565b9150915081611dd85760405162461bcd60e51b81526020600482015260436024820152600080516020613de583398151915260448201527f7265733a2070616972696e6720707265636f6d70696c652063616c6c206661696064820152621b195960ea1b608482015260a401610655565b80611e395760405162461bcd60e51b81526020600482015260396024820152600080516020613de583398151915260448201527f7265733a207369676e617475726520697320696e76616c6964000000000000006064820152608401610655565b50506000878260200151604051602001611e54929190613bf4565b60408051808303601f1901815291905280516020909101209299929850919650505050505050565b600083815260ca602052604090205463ffffffff1615611ede5760405162461bcd60e51b815260206004820152601a60248201527f42617463682077617320616c72656164792076657269666965640000000000006044820152606401610655565b6040805180820182526000602080830182815263ffffffff43818116865289855260ca9093529285902084518154925115156401000000000264ffffffffff1990931694169390931717909155915190917f1871c33134a542e0ab9facf7013d27b9ed95e64d299e9919ee091c9cfcb19fa59161079291879187908790613c3c565b611f68612d8d565b611f726000612afe565b565b336001600160a01b037f00000000000000000000000000000000000000000000000000000000000000001614611fbc5760405162461bcd60e51b815260040161065590613c7f565b604051639926ee7d60e01b81526001600160a01b037f00000000000000000000000000000000000000000000000000000000000000001690639926ee7d9061200a9085908590600401613d44565b600060405180830381600087803b15801561202457600080fd5b505af1158015612038573d6000803e3d6000fd5b505050505050565b336001600160a01b037f000000000000000000000000000000000000000000000000000000000000000016146120885760405162461bcd60e51b815260040161065590613c7f565b6040516351b27a6d60e11b81526001600160a01b0382811660048301527f0000000000000000000000000000000000000000000000000000000000000000169063a364f4da906024015b600060405180830381600087803b1580156120ec57600080fd5b505af1158015612100573d6000803e3d6000fd5b5050505050565b61210f612d8d565b60405163a98fb35560e01b81526001600160a01b037f0000000000000000000000000000000000000000000000000000000000000000169063a98fb355906120d2908490600401613d8f565b606060007f00000000000000000000000000000000000000000000000000000000000000006001600160a01b0316639aa1653d6040518163ffffffff1660e01b8152600401602060405180830381865afa1580156121bd573d6000803e3d6000fd5b505050506040513d601f19601f820116820180604052508101906121e19190613a9f565b60ff169050806121ff57505060408051600081526020810190915290565b6000805b828110156122b457604051633ca5a5f560e01b815260ff821660048201527f00000000000000000000000000000000000000000000000000000000000000006001600160a01b031690633ca5a5f590602401602060405180830381865afa158015612272573d6000803e3d6000fd5b505050506040513d601f19601f820116820180604052508101906122969190613a5d565b6122a09083613ac2565b9150806122ac81613ada565b915050612203565b506000816001600160401b038111156122cf576122cf613178565b6040519080825280602002602001820160405280156122f8578160200160208202803683370190505b5090506000805b7f00000000000000000000000000000000000000000000000000000000000000006001600160a01b0316639aa1653d6040518163ffffffff1660e01b8152600401602060405180830381865afa15801561235d573d6000803e3d6000fd5b505050506040513d601f19601f820116820180604052508101906123819190613a9f565b60ff1681101561251a57604051633ca5a5f560e01b815260ff821660048201526000907f00000000000000000000000000000000000000000000000000000000000000006001600160a01b031690633ca5a5f590602401602060405180830381865afa1580156123f5573d6000803e3d6000fd5b505050506040513d601f19601f820116820180604052508101906124199190613a5d565b905060005b81811015612505576040516356e4026d60e11b815260ff84166004820152602481018290527f00000000000000000000000000000000000000000000000000000000000000006001600160a01b03169063adc804da906044016040805180830381865afa158015612493573d6000803e3d6000fd5b505050506040513d601f19601f820116820180604052508101906124b79190613b0c565b600001518585815181106124cd576124cd6139c1565b6001600160a01b0390921660209283029190910190910152836124ef81613ada565b94505080806124fd90613ada565b91505061241e565b5050808061251290613ada565b9150506122ff565b5090949350505050565b61252c612d8d565b6001600160a01b0381166125915760405162461bcd60e51b815260206004820152602660248201527f4f776e61626c653a206e6577206f776e657220697320746865207a65726f206160448201526564647265737360d01b6064820152608401610655565b61259a81612afe565b50565b60408051808201909152600080825260208201526125b961309e565b835181526020808501519082015260408082018490526000908360608460076107d05a03fa90508080156125ec576125ee565bfe5b508061262c5760405162461bcd60e51b815260206004820152600d60248201526c1958cb5b5d5b0b59985a5b1959609a1b6044820152606401610655565b505092915050565b60408051808201909152600080825260208201526126506130bc565b835181526020808501518183015283516040808401919091529084015160608301526000908360808460066107d05a03fa90508080156125ec57508061262c5760405162461bcd60e51b815260206004820152600d60248201526c1958cb5859190b59985a5b1959609a1b6044820152606401610655565b6126d06130da565b50604080516080810182527f198e9393920d483a7260bfb731fb5d25f1aa493335a9e71297e485b7aef312c28183019081527f1800deef121f1e76426a00665e5c4479674322d4f75edadd46debd5cd992f6ed6060830152815281518083019092527f275dc4a288d1afb3cbb1ac09187524c7db36395df7be3b99e673b13a075a65ec82527f1d9befcd05a5323e6da4d435f3b617cdb3af83285c2df711ef39c01571827f9d60208381019190915281019190915290565b6040805180820190915260008082526020820152600080806127b8600080516020613dc5833981519152866139d7565b90505b6127c481612de7565b9093509150600080516020613dc58339815191528283098314156127fe576040805180820190915290815260208101919091529392505050565b600080516020613dc58339815191526001820890506127bb565b60408051808201825286815260208082018690528251808401909352868352820184905260009182919061284a6130ff565b60005b6002811015612a0f576000612863826006613a3e565b9050848260028110612877576128776139c1565b60200201515183612889836000613ac2565b600c8110612899576128996139c1565b60200201528482600281106128b0576128b06139c1565b602002015160200151838260016128c79190613ac2565b600c81106128d7576128d76139c1565b60200201528382600281106128ee576128ee6139c1565b6020020151515183612901836002613ac2565b600c8110612911576129116139c1565b6020020152838260028110612928576129286139c1565b6020020151516001602002015183612941836003613ac2565b600c8110612951576129516139c1565b6020020152838260028110612968576129686139c1565b602002015160200151600060028110612983576129836139c1565b602002015183612994836004613ac2565b600c81106129a4576129a46139c1565b60200201528382600281106129bb576129bb6139c1565b6020020151602001516001600281106129d6576129d66139c1565b6020020151836129e7836005613ac2565b600c81106129f7576129f76139c1565b60200201525080612a0781613ada565b91505061284d565b50612a1861311e565b60006020826101808560088cfa9151919c9115159b50909950505050505050505050565b6060600080612a4a84612be3565b61ffff166001600160401b03811115612a6557612a65613178565b6040519080825280601f01601f191660200182016040528015612a8f576020820181803683370190505b5090506000805b825182108015612aa7575061010081105b1561251a576001811b935085841615612aee578060f81b838381518110612ad057612ad06139c1565b60200101906001600160f81b031916908160001a9053508160010191505b612af781613ada565b9050612a96565b603380546001600160a01b038381166001600160a01b0319831681179093556040519116919082907f8be0079c531659141344cd1fd0a4f28419497f9722a3daafe3b4186f6b6457e090600090a35050565b600080612b5c84612e69565b9050808360ff166001901b11612bda5760405162461bcd60e51b815260206004820152603f60248201527f4269746d61705574696c732e6f72646572656442797465734172726179546f4260448201527f69746d61703a206269746d61702065786365656473206d61782076616c7565006064820152608401610655565b90505b92915050565b6000805b8215612bdd57612bf8600184613b68565b9092169180612c0681613da2565b915050612be7565b60408051808201909152600080825260208201526102008261ffff1610612c6a5760405162461bcd60e51b815260206004820152601060248201526f7363616c61722d746f6f2d6c6172676560801b6044820152606401610655565b8161ffff1660011415612c7e575081612bdd565b6040805180820190915260008082526020820181905284906001905b8161ffff168661ffff1610612ce757600161ffff871660ff83161c81161415612cca57612cc78484612634565b93505b612cd48384612634565b92506201fffe600192831b169101612c9a565b509195945050505050565b60408051808201909152600080825260208201528151158015612d1757506020820151155b15612d35575050604080518082019091526000808252602082015290565b604051806040016040528083600001518152602001600080516020613dc58339815191528460200151612d6891906139d7565b612d8090600080516020613dc5833981519152613b68565b905292915050565b919050565b6033546001600160a01b03163314611f725760405162461bcd60e51b815260206004820181905260248201527f4f776e61626c653a2063616c6c6572206973206e6f7420746865206f776e65726044820152606401610655565b60008080600080516020613dc58339815191526003600080516020613dc583398151915286600080516020613dc5833981519152888909090890506000612e5d827f0c19139cb84c680a6e14116da060561765e05aa45a1c72a34f082305b61f3f52600080516020613dc5833981519152612ff6565b91959194509092505050565b600061010082511115612ef25760405162461bcd60e51b8152602060048201526044602482018190527f4269746d61705574696c732e6f72646572656442797465734172726179546f42908201527f69746d61703a206f7264657265644279746573417272617920697320746f6f206064820152636c6f6e6760e01b608482015260a401610655565b8151612f0057506000919050565b60008083600081518110612f1657612f166139c1565b0160200151600160f89190911c81901b92505b8451811015612fed57848181518110612f4457612f446139c1565b0160200151600160f89190911c1b9150828211612fd95760405162461bcd60e51b815260206004820152604760248201527f4269746d61705574696c732e6f72646572656442797465734172726179546f4260448201527f69746d61703a206f72646572656442797465734172726179206973206e6f74206064820152661bdc99195c995960ca1b608482015260a401610655565b91811791612fe681613ada565b9050612f29565b50909392505050565b60008061300161311e565b61300961313c565b602080825281810181905260408201819052606082018890526080820187905260a082018690528260c08360056107d05a03fa92508280156125ec5750826130935760405162461bcd60e51b815260206004820152601a60248201527f424e3235342e6578704d6f643a2063616c6c206661696c7572650000000000006044820152606401610655565b505195945050505050565b60405180606001604052806003906020820280368337509192915050565b60405180608001604052806004906020820280368337509192915050565b60405180604001604052806130ed61315a565b81526020016130fa61315a565b905290565b604051806101800160405280600c906020820280368337509192915050565b60405180602001604052806001906020820280368337509192915050565b6040518060c001604052806006906020820280368337509192915050565b60405180604001604052806002906020820280368337509192915050565b634e487b7160e01b600052604160045260246000fd5b604080519081016001600160401b03811182821017156131b0576131b0613178565b60405290565b60405161010081016001600160401b03811182821017156131b0576131b0613178565b604051606081016001600160401b03811182821017156131b0576131b0613178565b604051601f8201601f191681016001600160401b038111828210171561322357613223613178565b604052919050565b60006040828403121561323d57600080fd5b61324561318e565b9050813581526020820135602082015292915050565b600082601f83011261326c57600080fd5b61327461318e565b80604084018581111561328657600080fd5b845b818110156132a0578035845260209384019301613288565b509095945050505050565b6000608082840312156132bd57600080fd5b6132c561318e565b90506132d1838361325b565b81526132e0836040840161325b565b602082015292915050565b600080600080610120858703121561330257600080fd5b84359350613313866020870161322b565b925061332286606087016132ab565b91506133318660e0870161322b565b905092959194509250565b6001600160a01b038116811461259a57600080fd5b60006020828403121561336357600080fd5b8135612bda8161333c565b60006001600160401b0382111561338757613387613178565b5060051b60200190565b803563ffffffff81168114612d8857600080fd5b600082601f8301126133b657600080fd5b813560206133cb6133c68361336e565b6131fb565b82815260059290921b840181019181810190868411156133ea57600080fd5b8286015b8481101561340c576133ff81613391565b83529183019183016133ee565b509695505050505050565b600082601f83011261342857600080fd5b813560206134386133c68361336e565b82815260069290921b8401810191818101908684111561345757600080fd5b8286015b8481101561340c5761346d888261322b565b83529183019160400161345b565b600082601f83011261348c57600080fd5b8135602061349c6133c68361336e565b82815260059290921b840181019181810190868411156134bb57600080fd5b8286015b8481101561340c5780356001600160401b038111156134de5760008081fd5b6134ec8986838b01016133a5565b8452509183019183016134bf565b6000610180828403121561350d57600080fd5b6135156131b6565b905081356001600160401b038082111561352e57600080fd5b61353a858386016133a5565b8352602084013591508082111561355057600080fd5b61355c85838601613417565b6020840152604084013591508082111561357557600080fd5b61358185838601613417565b604084015261359385606086016132ab565b60608401526135a58560e0860161322b565b60808401526101208401359150808211156135bf57600080fd5b6135cb858386016133a5565b60a08401526101408401359150808211156135e557600080fd5b6135f1858386016133a5565b60c084015261016084013591508082111561360b57600080fd5b506136188482850161347b565b60e08301525092915050565b6000806040838503121561363757600080fd5b8235915060208301356001600160401b0381111561365457600080fd5b613660858286016134fa565b9150509250929050565b6020808252825182820181905260009190848201906040850190845b818110156136ab5783516001600160a01b031683529284019291840191600101613686565b50909695505050505050565b6000602082840312156136c957600080fd5b81358015158114612bda57600080fd5b600080604083850312156136ec57600080fd5b82356136f78161333c565b915060208301356137078161333c565b809150509250929050565b60008060006060848603121561372757600080fd5b8335925061373760208501613391565b915060408401356001600160401b0381111561375257600080fd5b61375e868287016134fa565b9150509250925092565b600081518084526020808501945080840160005b838110156137a15781516001600160601b03168752958201959082019060010161377c565b509495945050505050565b60408152600083516040808401526137c76080840182613768565b90506020850151603f198483030160608501526137e48282613768565b925050508260208301529392505050565b60008060006040848603121561380a57600080fd5b8335925060208401356001600160401b038082111561382857600080fd5b818601915086601f83011261383c57600080fd5b81358181111561384b57600080fd5b87602082850101111561385d57600080fd5b6020830194508093505050509250925092565b60006001600160401b0383111561388957613889613178565b61389c601f8401601f19166020016131fb565b90508281528383830111156138b057600080fd5b828260208301376000602084830101529392505050565b600080604083850312156138da57600080fd5b82356138e58161333c565b915060208301356001600160401b038082111561390157600080fd5b908401906060828703121561391557600080fd5b61391d6131d9565b82358281111561392c57600080fd5b83019150601f8201871361393f57600080fd5b61394e87833560208501613870565b815260208301356020820152604083013560408201528093505050509250929050565b60006020828403121561398357600080fd5b81356001600160401b0381111561399957600080fd5b8201601f810184136139aa57600080fd5b6139b984823560208401613870565b949350505050565b634e487b7160e01b600052603260045260246000fd5b6000826139f457634e487b7160e01b600052601260045260246000fd5b500690565b634e487b7160e01b600052601160045260246000fd5b60006001600160601b0380831681851681830481118215151615613a3557613a356139f9565b02949350505050565b6000816000190483118215151615613a5857613a586139f9565b500290565b600060208284031215613a6f57600080fd5b5051919050565b600060208284031215613a8857600080fd5b81516001600160c01b0381168114612bda57600080fd5b600060208284031215613ab157600080fd5b815160ff81168114612bda57600080fd5b60008219821115613ad557613ad56139f9565b500190565b6000600019821415613aee57613aee6139f9565b5060010190565b80516001600160601b0381168114612d8857600080fd5b600060408284031215613b1e57600080fd5b613b2661318e565b8251613b318161333c565b8152613b3f60208401613af5565b60208201529392505050565b600060208284031215613b5d57600080fd5b8151612bda8161333c565b600082821015613b7a57613b7a6139f9565b500390565b600060208284031215613b9157600080fd5b815167ffffffffffffffff1981168114612bda57600080fd5b600060208284031215613bbc57600080fd5b613bc582613af5565b9392505050565b60006001600160601b0383811690831681811015613bec57613bec6139f9565b039392505050565b63ffffffff60e01b8360e01b1681526000600482018351602080860160005b83811015613c2f57815185529382019390820190600101613c13565b5092979650505050505050565b84815263ffffffff8416602082015260606040820152816060820152818360808301376000818301608090810191909152601f909201601f191601019392505050565b60208082526052908201527f536572766963654d616e61676572426173652e6f6e6c7952656769737472794360408201527f6f6f7264696e61746f723a2063616c6c6572206973206e6f742074686520726560608201527133b4b9ba393c9031b7b7b93234b730ba37b960711b608082015260a00190565b6000815180845260005b81811015613d1d57602081850181015186830182015201613d01565b81811115613d2f576000602083870101525b50601f01601f19169290920160200192915050565b60018060a01b0383168152604060208201526000825160606040840152613d6e60a0840182613cf7565b90506020840151606084015260408401516080840152809150509392505050565b602081526000613bc56020830184613cf7565b600061ffff80831681811415613dba57613dba6139f9565b600101939250505056fe30644e72e131a029b85045b68181585d97816a916871ca8d3c208c16d87cfd47424c535369676e6174757265436865636b65722e636865636b5369676e617475a264697066735822122024b52eacf2206dd37860a386fe61d2d63b3fb7384f48661a8562bc0f2474585364736f6c634300080c0033","linkReferences":{}},"methodIdentifiers":{"avsDirectory()":"6b3aa72e","blsApkRegistry()":"5df45946","checkSignatures(bytes32,uint32,(uint32[],(uint256,uint256)[],(uint256,uint256)[],(uint256[2],uint256[2]),(uint256,uint256),uint32[],uint32[],uint32[][]))":"4ae07c37","createNewTask(bytes32,string)":"5c008994","delegation()":"df5cf723","deregisterOperatorFromAVS(address)":"a364f4da","getOperatorRestakedStrategies(address)":"33cfb7b7","getRestakeableStrategies()":"e481af9d","initialize(address,address)":"485cc955","isAggregator(address)":"1e8f3c95","owner()":"8da5cb5b","registerOperatorToAVS(address,(bytes,bytes32,uint256))":"9926ee7d","registryCoordinator()":"6d14a987","renounceOwnership()":"715018a6","respondToTask(bytes32,(uint32[],(uint256,uint256)[],(uint256,uint256)[],(uint256[2],uint256[2]),(uint256,uint256),uint32[],uint32[],uint32[][]))":"2dd94eba","setStaleStakesForbidden(bool)":"416c7e5e","stakeRegistry()":"68304835","staleStakesForbidden()":"b98d0908","transferOwnership(address)":"f2fde38b","trySignatureAndApkVerification(bytes32,(uint256,uint256),(uint256[2],uint256[2]),(uint256,uint256))":"171f1d5b","updateAVSMetadataURI(string)":"a98fb355"},"id":110}