{
    "abi": [
        {
            "type": "constructor",
            "inputs": [
                {
                    "name": "__avsDirectory",
                    "type": "address",
                    "internalType": "contract IAVSDirectory"
                },
                {
                    "name": "__registryCoordinator",
                    "type": "address",
                    "internalType": "contract IRegistryCoordinator"
                },
                {
                    "name": "__stakeRegistry",
                    "type": "address",
                    "internalType": "contract IStakeRegistry"
                }
            ],
            "stateMutability": "nonpayable"
        },
        {
            "type": "function",
            "name": "avsDirectory",
            "inputs": [],
            "outputs": [
                {
                    "name": "",
                    "type": "address",
                    "internalType": "address"
                }
            ],
            "stateMutability": "view"
        },
        {
            "type": "function",
            "name": "batchesState",
            "inputs": [
                {
                    "name": "",
                    "type": "bytes32",
                    "internalType": "bytes32"
                }
            ],
            "outputs": [
                {
                    "name": "taskCreatedBlock",
                    "type": "uint32",
                    "internalType": "uint32"
                },
                {
                    "name": "responded",
                    "type": "bool",
                    "internalType": "bool"
                }
            ],
            "stateMutability": "view"
        },
        {
            "type": "function",
            "name": "blsApkRegistry",
            "inputs": [],
            "outputs": [
                {
                    "name": "",
                    "type": "address",
                    "internalType": "contract IBLSApkRegistry"
                }
            ],
            "stateMutability": "view"
        },
        {
            "type": "function",
            "name": "checkSignatures",
            "inputs": [
                {
                    "name": "msgHash",
                    "type": "bytes32",
                    "internalType": "bytes32"
                },
                {
                    "name": "referenceBlockNumber",
                    "type": "uint32",
                    "internalType": "uint32"
                },
                {
                    "name": "params",
                    "type": "tuple",
                    "internalType": "struct IBLSSignatureChecker.NonSignerStakesAndSignature",
                    "components": [
                        {
                            "name": "nonSignerQuorumBitmapIndices",
                            "type": "uint32[]",
                            "internalType": "uint32[]"
                        },
                        {
                            "name": "nonSignerPubkeys",
                            "type": "tuple[]",
                            "internalType": "struct BN254.G1Point[]",
                            "components": [
                                {
                                    "name": "X",
                                    "type": "uint256",
                                    "internalType": "uint256"
                                },
                                {
                                    "name": "Y",
                                    "type": "uint256",
                                    "internalType": "uint256"
                                }
                            ]
                        },
                        {
                            "name": "quorumApks",
                            "type": "tuple[]",
                            "internalType": "struct BN254.G1Point[]",
                            "components": [
                                {
                                    "name": "X",
                                    "type": "uint256",
                                    "internalType": "uint256"
                                },
                                {
                                    "name": "Y",
                                    "type": "uint256",
                                    "internalType": "uint256"
                                }
                            ]
                        },
                        {
                            "name": "apkG2",
                            "type": "tuple",
                            "internalType": "struct BN254.G2Point",
                            "components": [
                                {
                                    "name": "X",
                                    "type": "uint256[2]",
                                    "internalType": "uint256[2]"
                                },
                                {
                                    "name": "Y",
                                    "type": "uint256[2]",
                                    "internalType": "uint256[2]"
                                }
                            ]
                        },
                        {
                            "name": "sigma",
                            "type": "tuple",
                            "internalType": "struct BN254.G1Point",
                            "components": [
                                {
                                    "name": "X",
                                    "type": "uint256",
                                    "internalType": "uint256"
                                },
                                {
                                    "name": "Y",
                                    "type": "uint256",
                                    "internalType": "uint256"
                                }
                            ]
                        },
                        {
                            "name": "quorumApkIndices",
                            "type": "uint32[]",
                            "internalType": "uint32[]"
                        },
                        {
                            "name": "totalStakeIndices",
                            "type": "uint32[]",
                            "internalType": "uint32[]"
                        },
                        {
                            "name": "nonSignerStakeIndices",
                            "type": "uint32[][]",
                            "internalType": "uint32[][]"
                        }
                    ]
                }
            ],
            "outputs": [
                {
                    "name": "",
                    "type": "tuple",
                    "internalType": "struct IBLSSignatureChecker.QuorumStakeTotals",
                    "components": [
                        {
                            "name": "signedStakeForQuorum",
                            "type": "uint96[]",
                            "internalType": "uint96[]"
                        },
                        {
                            "name": "totalStakeForQuorum",
                            "type": "uint96[]",
                            "internalType": "uint96[]"
                        }
                    ]
                },
                {
                    "name": "",
                    "type": "bytes32",
                    "internalType": "bytes32"
                }
            ],
            "stateMutability": "view"
        },
        {
            "type": "function",
            "name": "createNewTask",
            "inputs": [
                {
                    "name": "batchMerkleRoot",
                    "type": "bytes32",
                    "internalType": "bytes32"
                },
                {
                    "name": "batchDataPointer",
                    "type": "string",
                    "internalType": "string"
                }
            ],
            "outputs": [],
            "stateMutability": "payable"
        },
        {
            "type": "function",
            "name": "delegation",
            "inputs": [],
            "outputs": [
                {
                    "name": "",
                    "type": "address",
                    "internalType": "contract IDelegationManager"
                }
            ],
            "stateMutability": "view"
        },
        {
            "type": "function",
            "name": "deregisterOperatorFromAVS",
            "inputs": [
                {
                    "name": "operator",
                    "type": "address",
                    "internalType": "address"
                }
            ],
            "outputs": [],
            "stateMutability": "nonpayable"
        },
        {
            "type": "function",
            "name": "getOperatorRestakedStrategies",
            "inputs": [
                {
                    "name": "operator",
                    "type": "address",
                    "internalType": "address"
                }
            ],
            "outputs": [
                {
                    "name": "",
                    "type": "address[]",
                    "internalType": "address[]"
                }
            ],
            "stateMutability": "view"
        },
        {
            "type": "function",
            "name": "getRestakeableStrategies",
            "inputs": [],
            "outputs": [
                {
                    "name": "",
                    "type": "address[]",
                    "internalType": "address[]"
                }
            ],
            "stateMutability": "view"
        },
        {
            "type": "function",
            "name": "initialize",
            "inputs": [
                {
                    "name": "_initialOwner",
                    "type": "address",
                    "internalType": "address"
                },
                {
                    "name": "_aggregator",
                    "type": "address",
                    "internalType": "address"
                }
            ],
            "outputs": [],
            "stateMutability": "nonpayable"
        },
        {
            "type": "function",
            "name": "isAggregator",
            "inputs": [
                {
                    "name": "_aggregator",
                    "type": "address",
                    "internalType": "address"
                }
            ],
            "outputs": [
                {
                    "name": "",
                    "type": "bool",
                    "internalType": "bool"
                }
            ],
            "stateMutability": "view"
        },
        {
            "type": "function",
            "name": "owner",
            "inputs": [],
            "outputs": [
                {
                    "name": "",
                    "type": "address",
                    "internalType": "address"
                }
            ],
            "stateMutability": "view"
        },
        {
            "type": "function",
            "name": "registerOperatorToAVS",
            "inputs": [
                {
                    "name": "operator",
                    "type": "address",
                    "internalType": "address"
                },
                {
                    "name": "operatorSignature",
                    "type": "tuple",
                    "internalType": "struct ISignatureUtils.SignatureWithSaltAndExpiry",
                    "components": [
                        {
                            "name": "signature",
                            "type": "bytes",
                            "internalType": "bytes"
                        },
                        {
                            "name": "salt",
                            "type": "bytes32",
                            "internalType": "bytes32"
                        },
                        {
                            "name": "expiry",
                            "type": "uint256",
                            "internalType": "uint256"
                        }
                    ]
                }
            ],
            "outputs": [],
            "stateMutability": "nonpayable"
        },
        {
            "type": "function",
            "name": "registryCoordinator",
            "inputs": [],
            "outputs": [
                {
                    "name": "",
                    "type": "address",
                    "internalType": "contract IRegistryCoordinator"
                }
            ],
            "stateMutability": "view"
        },
        {
            "type": "function",
            "name": "renounceOwnership",
            "inputs": [],
            "outputs": [],
            "stateMutability": "nonpayable"
        },
        {
            "type": "function",
            "name": "respondToTask",
            "inputs": [
                {
                    "name": "batchMerkleRoot",
                    "type": "bytes32",
                    "internalType": "bytes32"
                },
                {
                    "name": "nonSignerStakesAndSignature",
                    "type": "tuple",
                    "internalType": "struct IBLSSignatureChecker.NonSignerStakesAndSignature",
                    "components": [
                        {
                            "name": "nonSignerQuorumBitmapIndices",
                            "type": "uint32[]",
                            "internalType": "uint32[]"
                        },
                        {
                            "name": "nonSignerPubkeys",
                            "type": "tuple[]",
                            "internalType": "struct BN254.G1Point[]",
                            "components": [
                                {
                                    "name": "X",
                                    "type": "uint256",
                                    "internalType": "uint256"
                                },
                                {
                                    "name": "Y",
                                    "type": "uint256",
                                    "internalType": "uint256"
                                }
                            ]
                        },
                        {
                            "name": "quorumApks",
                            "type": "tuple[]",
                            "internalType": "struct BN254.G1Point[]",
                            "components": [
                                {
                                    "name": "X",
                                    "type": "uint256",
                                    "internalType": "uint256"
                                },
                                {
                                    "name": "Y",
                                    "type": "uint256",
                                    "internalType": "uint256"
                                }
                            ]
                        },
                        {
                            "name": "apkG2",
                            "type": "tuple",
                            "internalType": "struct BN254.G2Point",
                            "components": [
                                {
                                    "name": "X",
                                    "type": "uint256[2]",
                                    "internalType": "uint256[2]"
                                },
                                {
                                    "name": "Y",
                                    "type": "uint256[2]",
                                    "internalType": "uint256[2]"
                                }
                            ]
                        },
                        {
                            "name": "sigma",
                            "type": "tuple",
                            "internalType": "struct BN254.G1Point",
                            "components": [
                                {
                                    "name": "X",
                                    "type": "uint256",
                                    "internalType": "uint256"
                                },
                                {
                                    "name": "Y",
                                    "type": "uint256",
                                    "internalType": "uint256"
                                }
                            ]
                        },
                        {
                            "name": "quorumApkIndices",
                            "type": "uint32[]",
                            "internalType": "uint32[]"
                        },
                        {
                            "name": "totalStakeIndices",
                            "type": "uint32[]",
                            "internalType": "uint32[]"
                        },
                        {
                            "name": "nonSignerStakeIndices",
                            "type": "uint32[][]",
                            "internalType": "uint32[][]"
                        }
                    ]
                }
            ],
            "outputs": [],
            "stateMutability": "nonpayable"
        },
        {
            "type": "function",
            "name": "setStaleStakesForbidden",
            "inputs": [
                {
                    "name": "value",
                    "type": "bool",
                    "internalType": "bool"
                }
            ],
            "outputs": [],
            "stateMutability": "nonpayable"
        },
        {
            "type": "function",
            "name": "stakeRegistry",
            "inputs": [],
            "outputs": [
                {
                    "name": "",
                    "type": "address",
                    "internalType": "contract IStakeRegistry"
                }
            ],
            "stateMutability": "view"
        },
        {
            "type": "function",
            "name": "staleStakesForbidden",
            "inputs": [],
            "outputs": [
                {
                    "name": "",
                    "type": "bool",
                    "internalType": "bool"
                }
            ],
            "stateMutability": "view"
        },
        {
            "type": "function",
            "name": "transferOwnership",
            "inputs": [
                {
                    "name": "newOwner",
                    "type": "address",
                    "internalType": "address"
                }
            ],
            "outputs": [],
            "stateMutability": "nonpayable"
        },
        {
            "type": "function",
            "name": "trySignatureAndApkVerification",
            "inputs": [
                {
                    "name": "msgHash",
                    "type": "bytes32",
                    "internalType": "bytes32"
                },
                {
                    "name": "apk",
                    "type": "tuple",
                    "internalType": "struct BN254.G1Point",
                    "components": [
                        {
                            "name": "X",
                            "type": "uint256",
                            "internalType": "uint256"
                        },
                        {
                            "name": "Y",
                            "type": "uint256",
                            "internalType": "uint256"
                        }
                    ]
                },
                {
                    "name": "apkG2",
                    "type": "tuple",
                    "internalType": "struct BN254.G2Point",
                    "components": [
                        {
                            "name": "X",
                            "type": "uint256[2]",
                            "internalType": "uint256[2]"
                        },
                        {
                            "name": "Y",
                            "type": "uint256[2]",
                            "internalType": "uint256[2]"
                        }
                    ]
                },
                {
                    "name": "sigma",
                    "type": "tuple",
                    "internalType": "struct BN254.G1Point",
                    "components": [
                        {
                            "name": "X",
                            "type": "uint256",
                            "internalType": "uint256"
                        },
                        {
                            "name": "Y",
                            "type": "uint256",
                            "internalType": "uint256"
                        }
                    ]
                }
            ],
            "outputs": [
                {
                    "name": "pairingSuccessful",
                    "type": "bool",
                    "internalType": "bool"
                },
                {
                    "name": "siganatureIsValid",
                    "type": "bool",
                    "internalType": "bool"
                }
            ],
            "stateMutability": "view"
        },
        {
            "type": "function",
            "name": "updateAVSMetadataURI",
            "inputs": [
                {
                    "name": "_metadataURI",
                    "type": "string",
                    "internalType": "string"
                }
            ],
            "outputs": [],
            "stateMutability": "nonpayable"
        },
        {
            "type": "event",
            "name": "BatchVerified",
            "inputs": [
                {
                    "name": "batchMerkleRoot",
                    "type": "bytes32",
                    "indexed": true,
                    "internalType": "bytes32"
                }
            ],
            "anonymous": false
        },
        {
            "type": "event",
            "name": "Initialized",
            "inputs": [
                {
                    "name": "version",
                    "type": "uint8",
                    "indexed": false,
                    "internalType": "uint8"
                }
            ],
            "anonymous": false
        },
        {
            "type": "event",
            "name": "NewBatch",
            "inputs": [
                {
                    "name": "batchMerkleRoot",
                    "type": "bytes32",
                    "indexed": true,
                    "internalType": "bytes32"
                },
                {
                    "name": "taskCreatedBlock",
                    "type": "uint32",
                    "indexed": false,
                    "internalType": "uint32"
                },
                {
                    "name": "batchDataPointer",
                    "type": "string",
                    "indexed": false,
                    "internalType": "string"
                }
            ],
            "anonymous": false
        },
        {
            "type": "event",
            "name": "OwnershipTransferred",
            "inputs": [
                {
                    "name": "previousOwner",
                    "type": "address",
                    "indexed": true,
                    "internalType": "address"
                },
                {
                    "name": "newOwner",
                    "type": "address",
                    "indexed": true,
                    "internalType": "address"
                }
            ],
            "anonymous": false
        },
        {
            "type": "event",
            "name": "StaleStakesForbiddenUpdate",
            "inputs": [
                {
                    "name": "value",
                    "type": "bool",
                    "indexed": false,
                    "internalType": "bool"
                }
            ],
            "anonymous": false
        }
    ],
    "bytecode": {
        "object": "0x6101606040523480156200001257600080fd5b50604051620042ef380380620042ef8339810160408190526200003591620002da565b6001600160a01b0380841660c052808316608052811660a052818381836200005c620001ff565b5050506001600160a01b03811660e081905260408051636830483560e01b815290516368304835916004808201926020929091908290030181865afa158015620000aa573d6000803e3d6000fd5b505050506040513d601f19601f82011682018060405250810190620000d091906200032e565b6001600160a01b0316610100816001600160a01b031681525050806001600160a01b0316635df459466040518163ffffffff1660e01b8152600401602060405180830381865afa15801562000129573d6000803e3d6000fd5b505050506040513d601f19601f820116820180604052508101906200014f91906200032e565b6001600160a01b0316610120816001600160a01b031681525050610100516001600160a01b031663df5cf7236040518163ffffffff1660e01b8152600401602060405180830381865afa158015620001ab573d6000803e3d6000fd5b505050506040513d601f19601f82011682018060405250810190620001d191906200032e565b6001600160a01b031661014052506097805460ff19166001179055620001f6620001ff565b50505062000355565b600054610100900460ff16156200026c5760405162461bcd60e51b815260206004820152602760248201527f496e697469616c697a61626c653a20636f6e747261637420697320696e697469604482015266616c697a696e6760c81b606482015260840160405180910390fd5b60005460ff9081161015620002bf576000805460ff191660ff9081179091556040519081527f7f26b83ff96e1f2b6a682f133852f6798a09c465da95921460cefb38474024989060200160405180910390a15b565b6001600160a01b0381168114620002d757600080fd5b50565b600080600060608486031215620002f057600080fd5b8351620002fd81620002c1565b60208501519093506200031081620002c1565b60408501519092506200032381620002c1565b809150509250925092565b6000602082840312156200034157600080fd5b81516200034e81620002c1565b9392505050565b60805160a05160c05160e051610100516101205161014051613ea56200044a60003960008181610487015261167301526000818161029701526118860152600081816102e301528181611a730152611c6301526000818161034a01528181610d2c01528181611339015281816114e001526117270152600081816103140152818161207d0152818161215101526121d0015260008181610a7501528181610bc601528181610c5d015281816122d00152818161244901526124e80152600081816108a00152818161092f015281816109af01528181612029015281816120f50152818161220b01526123a40152613ea56000f3fe6080604052600436106101355760003560e01c80636d14a987116100ab578063a98fb3551161006f578063a98fb355146103df578063b099627e146103ff578063b98d09081461045b578063df5cf72314610475578063e481af9d146104a9578063f2fde38b146104be57600080fd5b80636d14a98714610338578063715018a61461036c5780638da5cb5b146103815780639926ee7d1461039f578063a364f4da146103bf57600080fd5b8063485cc955116100fd578063485cc955146102245780634ae07c37146102445780635c008994146102725780635df459461461028557806368304835146102d15780636b3aa72e1461030557600080fd5b8063171f1d5b1461013a5780631e8f3c95146101765780632dd94eba146101b557806333cfb7b7146101d7578063416c7e5e14610204575b600080fd5b34801561014657600080fd5b5061015a610155366004613363565b6104de565b6040805192151583529015156020830152015b60405180910390f35b34801561018257600080fd5b506101a56101913660046133c9565b60c9546001600160a01b0390811691161490565b604051901515815260200161016d565b3480156101c157600080fd5b506101d56101d03660046136a4565b610668565b005b3480156101e357600080fd5b506101f76101f23660046133c9565b61087b565b60405161016d91906136ea565b34801561021057600080fd5b506101d561021f366004613737565b610d2a565b34801561023057600080fd5b506101d561023f366004613759565b610e9f565b34801561025057600080fd5b5061026461025f366004613792565b610fce565b60405161016d92919061382d565b6101d5610280366004613876565b611f18565b34801561029157600080fd5b506102b97f000000000000000000000000000000000000000000000000000000000000000081565b6040516001600160a01b03909116815260200161016d565b3480156102dd57600080fd5b506102b97f000000000000000000000000000000000000000000000000000000000000000081565b34801561031157600080fd5b507f00000000000000000000000000000000000000000000000000000000000000006102b9565b34801561034457600080fd5b506102b97f000000000000000000000000000000000000000000000000000000000000000081565b34801561037857600080fd5b506101d561200a565b34801561038d57600080fd5b506033546001600160a01b03166102b9565b3480156103ab57600080fd5b506101d56103ba366004613948565b61201e565b3480156103cb57600080fd5b506101d56103da3660046133c9565b6120ea565b3480156103eb57600080fd5b506101d56103fa3660046139f2565b6121b1565b34801561040b57600080fd5b5061043f61041a366004613a42565b60ca6020526000908152604090205463ffffffff811690640100000000900460ff1682565b6040805163ffffffff909316835290151560208301520161016d565b34801561046757600080fd5b506097546101a59060ff1681565b34801561048157600080fd5b506102b97f000000000000000000000000000000000000000000000000000000000000000081565b3480156104b557600080fd5b506101f7612205565b3480156104ca57600080fd5b506101d56104d93660046133c9565b6125b1565b60008060007f30644e72e131a029b85045b68181585d2833e84879b9709143e1f593f00000018787600001518860200151886000015160006002811061052657610526613a5b565b60200201518951600160200201518a6020015160006002811061054b5761054b613a5b565b60200201518b6020015160016002811061056757610567613a5b565b602090810291909101518c518d8301516040516105c49a99989796959401988952602089019790975260408801959095526060870193909352608086019190915260a085015260c084015260e08301526101008201526101200190565b6040516020818303038152906040528051906020012060001c6105e79190613a71565b905061065a6106006105f9888461262a565b86906126bb565b610608612750565b6106506106418561063b604080518082018252600080825260209182015281518083019092526001825260029082015290565b9061262a565b61064a8c612810565b906126bb565b886201d4c061289f565b909890975095505050505050565b600082815260ca602052604081205463ffffffff1690036106c75760405162461bcd60e51b8152602060048201526014602482015273426174636820646f65736e27742065786973747360601b60448201526064015b60405180910390fd5b600082815260ca6020526040902054640100000000900460ff161561072e5760405162461bcd60e51b815260206004820152601760248201527f426174636820616c726561647920726573706f6e64656400000000000000000060448201526064016106be565b600082815260ca60205260408120805464ff0000000019811664010000000017909155819061076590859063ffffffff1685610fce565b91509150604360ff16826020015160008151811061078557610785613a5b565b60200260200101516107979190613aa9565b6001600160601b0316606483600001516000815181106107b9576107b9613a5b565b60200260200101516001600160601b03166107d49190613acc565b101561084a576040805162461bcd60e51b81526020600482015260248101919091527f5369676e61746f7269657320646f206e6f74206f776e206174206c656173742060448201527f7468726573686f6c642070657263656e74616765206f6620612071756f72756d60648201526084016106be565b60405184907f433ae0767fe95db70a0e30eda902926e41203b9eb97ec5175076fb9e2d35c13e90600090a250505050565b6040516309aa152760e11b81526001600160a01b0382811660048301526060916000917f000000000000000000000000000000000000000000000000000000000000000016906313542a4e90602401602060405180830381865afa1580156108e7573d6000803e3d6000fd5b505050506040513d601f19601f8201168201806040525081019061090b9190613ae3565b60405163871ef04960e01b8152600481018290529091506000906001600160a01b037f0000000000000000000000000000000000000000000000000000000000000000169063871ef04990602401602060405180830381865afa158015610976573d6000803e3d6000fd5b505050506040513d601f19601f8201168201806040525081019061099a9190613afc565b90506001600160c01b0381161580610a3457507f00000000000000000000000000000000000000000000000000000000000000006001600160a01b0316639aa1653d6040518163ffffffff1660e01b8152600401602060405180830381865afa158015610a0b573d6000803e3d6000fd5b505050506040513d601f19601f82011682018060405250810190610a2f9190613b25565b60ff16155b15610a5057505060408051600081526020810190915292915050565b6000610a64826001600160c01b0316612ab9565b90506000805b8251811015610b30577f00000000000000000000000000000000000000000000000000000000000000006001600160a01b0316633ca5a5f5848381518110610ab457610ab4613a5b565b01602001516040516001600160e01b031960e084901b16815260f89190911c6004820152602401602060405180830381865afa158015610af8573d6000803e3d6000fd5b505050506040513d601f19601f82011682018060405250810190610b1c9190613ae3565b610b269083613b48565b9150600101610a6a565b506000816001600160401b03811115610b4b57610b4b6131f0565b604051908082528060200260200182016040528015610b74578160200160208202803683370190505b5090506000805b8451811015610d1d576000858281518110610b9857610b98613a5b565b0160200151604051633ca5a5f560e01b815260f89190911c6004820181905291506000906001600160a01b037f00000000000000000000000000000000000000000000000000000000000000001690633ca5a5f590602401602060405180830381865afa158015610c0d573d6000803e3d6000fd5b505050506040513d601f19601f82011682018060405250810190610c319190613ae3565b905060005b81811015610d12576040516356e4026d60e11b815260ff84166004820152602481018290527f00000000000000000000000000000000000000000000000000000000000000006001600160a01b03169063adc804da906044016040805180830381865afa158015610cab573d6000803e3d6000fd5b505050506040513d601f19601f82011682018060405250810190610ccf9190613b72565b60000151868681518110610ce557610ce5613a5b565b6001600160a01b039092166020928302919091019091015284610d0781613bb1565b955050600101610c36565b505050600101610b7b565b5090979650505050505050565b7f00000000000000000000000000000000000000000000000000000000000000006001600160a01b0316638da5cb5b6040518163ffffffff1660e01b8152600401602060405180830381865afa158015610d88573d6000803e3d6000fd5b505050506040513d601f19601f82011682018060405250810190610dac9190613bca565b6001600160a01b0316336001600160a01b031614610e585760405162461bcd60e51b815260206004820152605c60248201527f424c535369676e6174757265436865636b65722e6f6e6c79436f6f7264696e6160448201527f746f724f776e65723a2063616c6c6572206973206e6f7420746865206f776e6560648201527f72206f6620746865207265676973747279436f6f7264696e61746f7200000000608482015260a4016106be565b6097805460ff19168215159081179091556040519081527f40e4ed880a29e0f6ddce307457fb75cddf4feef7d3ecb0301bfdf4976a0e2dfc9060200160405180910390a150565b600054610100900460ff1615808015610ebf5750600054600160ff909116105b80610ed95750303b158015610ed9575060005460ff166001145b610f3c5760405162461bcd60e51b815260206004820152602e60248201527f496e697469616c697a61626c653a20636f6e747261637420697320616c72656160448201526d191e481a5b9a5d1a585b1a5e995960921b60648201526084016106be565b6000805460ff191660011790558015610f5f576000805461ff0019166101001790555b610f6883612b7b565b60c980546001600160a01b0319166001600160a01b0384161790558015610fc9576000805461ff0019169055604051600181527f7f26b83ff96e1f2b6a682f133852f6798a09c465da95921460cefb38474024989060200160405180910390a15b505050565b604080518082019091526060808252602082015260408051808201909152600181526000602090910181905282604001515160405180604001604052806001815260200160008152505114801561104057508260a0015151604051806040016040528060018152602001600081525051145b801561106757508260c0015151604051806040016040528060018152602001600081525051145b801561108e57508260e0015151604051806040016040528060018152602001600081525051145b6110f85760405162461bcd60e51b81526020600482015260416024820152600080516020613e5083398151915260448201527f7265733a20696e7075742071756f72756d206c656e677468206d69736d6174636064820152600d60fb1b608482015260a4016106be565b825151602084015151146111705760405162461bcd60e51b815260206004820152604460248201819052600080516020613e50833981519152908201527f7265733a20696e707574206e6f6e7369676e6572206c656e677468206d69736d6064820152630c2e8c6d60e31b608482015260a4016106be565b4363ffffffff168463ffffffff16106111df5760405162461bcd60e51b815260206004820152603c6024820152600080516020613e5083398151915260448201527f7265733a20696e76616c6964207265666572656e636520626c6f636b0000000060648201526084016106be565b60408051808201825260008082526020808301829052835180850185526060808252818301528451808601865260018082529083019390935284518381528086019095529293919082810190803683370190505060208281019190915260408051808201825260018082526000919093015280518281528082019091529081602001602082028036833701905050815260408051808201909152606080825260208201528560200151516001600160401b038111156112a0576112a06131f0565b6040519080825280602002602001820160405280156112c9578160200160208202803683370190505b5081526020860151516001600160401b038111156112e9576112e96131f0565b604051908082528060200260200182016040528015611312578160200160208202803683370190505b50816020018190525060006113be60405180604001604052806001815260200160008152507f00000000000000000000000000000000000000000000000000000000000000006001600160a01b0316639aa1653d6040518163ffffffff1660e01b8152600401602060405180830381865afa158015611395573d6000803e3d6000fd5b505050506040513d601f19601f820116820180604052508101906113b99190613b25565b612bcd565b905060005b87602001515181101561164f57611408886020015182815181106113e9576113e9613a5b565b6020026020010151805160009081526020918201519091526040902090565b8360200151828151811061141e5761141e613a5b565b602090810291909101015280156114de57602083015161143f600183613be7565b8151811061144f5761144f613a5b565b602002602001015160001c8360200151828151811061147057611470613a5b565b602002602001015160001c116114de576040805162461bcd60e51b8152602060048201526024810191909152600080516020613e5083398151915260448201527f7265733a206e6f6e5369676e65725075626b657973206e6f7420736f7274656460648201526084016106be565b7f00000000000000000000000000000000000000000000000000000000000000006001600160a01b03166304ec63518460200151838151811061152357611523613a5b565b60200260200101518b8b60000151858151811061154257611542613a5b565b60200260200101516040518463ffffffff1660e01b815260040161157f9392919092835263ffffffff918216602084015216604082015260600190565b602060405180830381865afa15801561159c573d6000803e3d6000fd5b505050506040513d601f19601f820116820180604052508101906115c09190613afc565b6001600160c01b0316836000015182815181106115df576115df613a5b565b6020026020010181815250506116456105f9611619848660000151858151811061160b5761160b613a5b565b602002602001015116612c60565b8a60200151848151811061162f5761162f613a5b565b6020026020010151612c8b90919063ffffffff16565b94506001016113c3565b505061165a83612d6e565b60975490935060ff166000816116715760006116f3565b7f00000000000000000000000000000000000000000000000000000000000000006001600160a01b031663c448feb86040518163ffffffff1660e01b8152600401602060405180830381865afa1580156116cf573d6000803e3d6000fd5b505050506040513d601f19601f820116820180604052508101906116f39190613ae3565b905060005b604051806040016040528060018152602001600081525051811015611de9578215611884578963ffffffff16827f00000000000000000000000000000000000000000000000000000000000000006001600160a01b031663249a0c426040518060400160405280600181526020016000815250858151811061177c5761177c613a5b565b01602001516040516001600160e01b031960e084901b16815260f89190911c6004820152602401602060405180830381865afa1580156117c0573d6000803e3d6000fd5b505050506040513d601f19601f820116820180604052508101906117e49190613ae3565b6117ee9190613b48565b116118845760405162461bcd60e51b81526020600482015260666024820152600080516020613e5083398151915260448201527f7265733a205374616b6552656769737472792075706461746573206d7573742060648201527f62652077697468696e207769746864726177616c44656c6179426c6f636b732060848201526577696e646f7760d01b60a482015260c4016106be565b7f00000000000000000000000000000000000000000000000000000000000000006001600160a01b03166368bccaac604051806040016040528060018152602001600081525083815181106118db576118db613a5b565b602001015160f81c60f81b60f81c8c8c60a00151858151811061190057611900613a5b565b60209081029190910101516040516001600160e01b031960e086901b16815260ff909316600484015263ffffffff9182166024840152166044820152606401602060405180830381865afa15801561195c573d6000803e3d6000fd5b505050506040513d601f19601f820116820180604052508101906119809190613bfa565b6001600160401b0319166119a38a6040015183815181106113e9576113e9613a5b565b67ffffffffffffffff191614611a3f5760405162461bcd60e51b81526020600482015260616024820152600080516020613e5083398151915260448201527f7265733a2071756f72756d41706b206861736820696e2073746f72616765206460648201527f6f6573206e6f74206d617463682070726f76696465642071756f72756d2061706084820152606b60f81b60a482015260c4016106be565b611a6f89604001518281518110611a5857611a58613a5b565b6020026020010151876126bb90919063ffffffff16565b95507f00000000000000000000000000000000000000000000000000000000000000006001600160a01b031663c8294c5660405180604001604052806001815260200160008152508381518110611ac857611ac8613a5b565b602001015160f81c60f81b60f81c8c8c60c001518581518110611aed57611aed613a5b565b60209081029190910101516040516001600160e01b031960e086901b16815260ff909316600484015263ffffffff9182166024840152166044820152606401602060405180830381865afa158015611b49573d6000803e3d6000fd5b505050506040513d601f19601f82011682018060405250810190611b6d9190613c25565b85602001518281518110611b8357611b83613a5b565b6001600160601b03909216602092830291909101820152850151805182908110611baf57611baf613a5b565b602002602001015185600001518281518110611bcd57611bcd613a5b565b60200260200101906001600160601b031690816001600160601b0316815250506000805b8a6020015151811015611ddf57611c5c86600001518281518110611c1757611c17613a5b565b602002602001015160405180604001604052806001815260200160008152508581518110611c4757611c47613a5b565b016020015160f81c60ff161c60019081161490565b15611dd7577f00000000000000000000000000000000000000000000000000000000000000006001600160a01b031663f2be94ae60405180604001604052806001815260200160008152508581518110611cb857611cb8613a5b565b602001015160f81c60f81b60f81c8e89602001518581518110611cdd57611cdd613a5b565b60200260200101518f60e001518881518110611cfb57611cfb613a5b565b60200260200101518781518110611d1457611d14613a5b565b60209081029190910101516040516001600160e01b031960e087901b16815260ff909416600485015263ffffffff92831660248501526044840191909152166064820152608401602060405180830381865afa158015611d78573d6000803e3d6000fd5b505050506040513d601f19601f82011682018060405250810190611d9c9190613c25565b8751805185908110611db057611db0613a5b565b60200260200101818151611dc49190613c47565b6001600160601b03169052506001909101905b600101611bf1565b50506001016116f8565b505050600080611e038a868a606001518b608001516104de565b9150915081611e745760405162461bcd60e51b81526020600482015260436024820152600080516020613e5083398151915260448201527f7265733a2070616972696e6720707265636f6d70696c652063616c6c206661696064820152621b195960ea1b608482015260a4016106be565b80611ed55760405162461bcd60e51b81526020600482015260396024820152600080516020613e5083398151915260448201527f7265733a207369676e617475726520697320696e76616c69640000000000000060648201526084016106be565b50506000878260200151604051602001611ef0929190613c6e565b60408051808303601f1901815291905280516020909101209299929850919650505050505050565b600083815260ca602052604090205463ffffffff1615611f7a5760405162461bcd60e51b815260206004820152601a60248201527f42617463682077617320616c726561647920766572696669656400000000000060448201526064016106be565b6040805180820182526000602080830182815263ffffffff43818116865289855260ca9093529285902084518154925115156401000000000264ffffffffff19909316941693909317179091559151909185917f1871c33134a542e0ab9facf7013d27b9ed95e64d299e9919ee091c9cfcb19fa591611ffc9187908790613cb6565b60405180910390a250505050565b612012612e09565b61201c6000612b7b565b565b336001600160a01b037f000000000000000000000000000000000000000000000000000000000000000016146120665760405162461bcd60e51b81526004016106be90613cf2565b604051639926ee7d60e01b81526001600160a01b037f00000000000000000000000000000000000000000000000000000000000000001690639926ee7d906120b49085908590600401613db0565b600060405180830381600087803b1580156120ce57600080fd5b505af11580156120e2573d6000803e3d6000fd5b505050505050565b336001600160a01b037f000000000000000000000000000000000000000000000000000000000000000016146121325760405162461bcd60e51b81526004016106be90613cf2565b6040516351b27a6d60e11b81526001600160a01b0382811660048301527f0000000000000000000000000000000000000000000000000000000000000000169063a364f4da906024015b600060405180830381600087803b15801561219657600080fd5b505af11580156121aa573d6000803e3d6000fd5b5050505050565b6121b9612e09565b60405163a98fb35560e01b81526001600160a01b037f0000000000000000000000000000000000000000000000000000000000000000169063a98fb3559061217c908490600401613dfb565b606060007f00000000000000000000000000000000000000000000000000000000000000006001600160a01b0316639aa1653d6040518163ffffffff1660e01b8152600401602060405180830381865afa158015612267573d6000803e3d6000fd5b505050506040513d601f19601f8201168201806040525081019061228b9190613b25565b60ff169050806000036122ac57505060408051600081526020810190915290565b6000805b8281101561235757604051633ca5a5f560e01b815260ff821660048201527f00000000000000000000000000000000000000000000000000000000000000006001600160a01b031690633ca5a5f590602401602060405180830381865afa15801561231f573d6000803e3d6000fd5b505050506040513d601f19601f820116820180604052508101906123439190613ae3565b61234d9083613b48565b91506001016122b0565b506000816001600160401b03811115612372576123726131f0565b60405190808252806020026020018201604052801561239b578160200160208202803683370190505b5090506000805b7f00000000000000000000000000000000000000000000000000000000000000006001600160a01b0316639aa1653d6040518163ffffffff1660e01b8152600401602060405180830381865afa158015612400573d6000803e3d6000fd5b505050506040513d601f19601f820116820180604052508101906124249190613b25565b60ff168110156125a757604051633ca5a5f560e01b815260ff821660048201526000907f00000000000000000000000000000000000000000000000000000000000000006001600160a01b031690633ca5a5f590602401602060405180830381865afa158015612498573d6000803e3d6000fd5b505050506040513d601f19601f820116820180604052508101906124bc9190613ae3565b905060005b8181101561259d576040516356e4026d60e11b815260ff84166004820152602481018290527f00000000000000000000000000000000000000000000000000000000000000006001600160a01b03169063adc804da906044016040805180830381865afa158015612536573d6000803e3d6000fd5b505050506040513d601f19601f8201168201806040525081019061255a9190613b72565b6000015185858151811061257057612570613a5b565b6001600160a01b03909216602092830291909101909101528361259281613bb1565b9450506001016124c1565b50506001016123a2565b5090949350505050565b6125b9612e09565b6001600160a01b03811661261e5760405162461bcd60e51b815260206004820152602660248201527f4f776e61626c653a206e6577206f776e657220697320746865207a65726f206160448201526564647265737360d01b60648201526084016106be565b61262781612b7b565b50565b6040805180820190915260008082526020820152612646613116565b835181526020808501519082015260408082018490526000908360608460076107d05a03fa9050808061267557fe5b50806126b35760405162461bcd60e51b815260206004820152600d60248201526c1958cb5b5d5b0b59985a5b1959609a1b60448201526064016106be565b505092915050565b60408051808201909152600080825260208201526126d7613134565b835181526020808501518183015283516040808401919091529084015160608301526000908360808460066107d05a03fa9050808061271257fe5b50806126b35760405162461bcd60e51b815260206004820152600d60248201526c1958cb5859190b59985a5b1959609a1b60448201526064016106be565b612758613152565b50604080516080810182527f198e9393920d483a7260bfb731fb5d25f1aa493335a9e71297e485b7aef312c28183019081527f1800deef121f1e76426a00665e5c4479674322d4f75edadd46debd5cd992f6ed6060830152815281518083019092527f275dc4a288d1afb3cbb1ac09187524c7db36395df7be3b99e673b13a075a65ec82527f1d9befcd05a5323e6da4d435f3b617cdb3af83285c2df711ef39c01571827f9d60208381019190915281019190915290565b604080518082019091526000808252602082015260008080612840600080516020613e3083398151915286613a71565b90505b61284c81612e63565b9093509150600080516020613e308339815191528283098303612885576040805180820190915290815260208101919091529392505050565b600080516020613e30833981519152600182089050612843565b6040805180820182528681526020808201869052825180840190935286835282018490526000918291906128d1613177565b60005b6002811015612a8c5760006128ea826006613acc565b90508482600281106128fe576128fe613a5b565b60200201515183612910836000613b48565b600c811061292057612920613a5b565b602002015284826002811061293757612937613a5b565b6020020151602001518382600161294e9190613b48565b600c811061295e5761295e613a5b565b602002015283826002811061297557612975613a5b565b6020020151515183612988836002613b48565b600c811061299857612998613a5b565b60200201528382600281106129af576129af613a5b565b60200201515160016020020151836129c8836003613b48565b600c81106129d8576129d8613a5b565b60200201528382600281106129ef576129ef613a5b565b602002015160200151600060028110612a0a57612a0a613a5b565b602002015183612a1b836004613b48565b600c8110612a2b57612a2b613a5b565b6020020152838260028110612a4257612a42613a5b565b602002015160200151600160028110612a5d57612a5d613a5b565b602002015183612a6e836005613b48565b600c8110612a7e57612a7e613a5b565b6020020152506001016128d4565b50612a95613196565b60006020826101808560088cfa9151919c9115159b50909950505050505050505050565b6060600080612ac784612c60565b61ffff166001600160401b03811115612ae257612ae26131f0565b6040519080825280601f01601f191660200182016040528015612b0c576020820181803683370190505b5090506000805b825182108015612b24575061010081105b156125a7576001811b935085841615612b6b578060f81b838381518110612b4d57612b4d613a5b565b60200101906001600160f81b031916908160001a9053508160010191505b612b7481613bb1565b9050612b13565b603380546001600160a01b038381166001600160a01b0319831681179093556040519116919082907f8be0079c531659141344cd1fd0a4f28419497f9722a3daafe3b4186f6b6457e090600090a35050565b600080612bd984612ee5565b9050808360ff166001901b11612c575760405162461bcd60e51b815260206004820152603f60248201527f4269746d61705574696c732e6f72646572656442797465734172726179546f4260448201527f69746d61703a206269746d61702065786365656473206d61782076616c75650060648201526084016106be565b90505b92915050565b6000805b8215612c5a57612c75600184613be7565b9092169180612c8381613e0e565b915050612c64565b60408051808201909152600080825260208201526102008261ffff1610612ce75760405162461bcd60e51b815260206004820152601060248201526f7363616c61722d746f6f2d6c6172676560801b60448201526064016106be565b8161ffff16600103612cfa575081612c5a565b6040805180820190915260008082526020820181905284906001905b8161ffff168661ffff1610612d6357600161ffff871660ff83161c81169003612d4657612d4384846126bb565b93505b612d5083846126bb565b92506201fffe600192831b169101612d16565b509195945050505050565b60408051808201909152600080825260208201528151158015612d9357506020820151155b15612db1575050604080518082019091526000808252602082015290565b604051806040016040528083600001518152602001600080516020613e308339815191528460200151612de49190613a71565b612dfc90600080516020613e30833981519152613be7565b905292915050565b919050565b6033546001600160a01b0316331461201c5760405162461bcd60e51b815260206004820181905260248201527f4f776e61626c653a2063616c6c6572206973206e6f7420746865206f776e657260448201526064016106be565b60008080600080516020613e308339815191526003600080516020613e3083398151915286600080516020613e30833981519152888909090890506000612ed9827f0c19139cb84c680a6e14116da060561765e05aa45a1c72a34f082305b61f3f52600080516020613e3083398151915261306d565b91959194509092505050565b600061010082511115612f6e5760405162461bcd60e51b8152602060048201526044602482018190527f4269746d61705574696c732e6f72646572656442797465734172726179546f42908201527f69746d61703a206f7264657265644279746573417272617920697320746f6f206064820152636c6f6e6760e01b608482015260a4016106be565b8151600003612f7f57506000919050565b60008083600081518110612f9557612f95613a5b565b0160200151600160f89190911c81901b92505b845181101561306457848181518110612fc357612fc3613a5b565b0160200151600160f89190911c1b91508282116130585760405162461bcd60e51b815260206004820152604760248201527f4269746d61705574696c732e6f72646572656442797465734172726179546f4260448201527f69746d61703a206f72646572656442797465734172726179206973206e6f74206064820152661bdc99195c995960ca1b608482015260a4016106be565b91811791600101612fa8565b50909392505050565b600080613078613196565b6130806131b4565b602080825281810181905260408201819052606082018890526080820187905260a082018690528260c08360056107d05a03fa925082806130bd57fe5b508261310b5760405162461bcd60e51b815260206004820152601a60248201527f424e3235342e6578704d6f643a2063616c6c206661696c75726500000000000060448201526064016106be565b505195945050505050565b60405180606001604052806003906020820280368337509192915050565b60405180608001604052806004906020820280368337509192915050565b60405180604001604052806131656131d2565b81526020016131726131d2565b905290565b604051806101800160405280600c906020820280368337509192915050565b60405180602001604052806001906020820280368337509192915050565b6040518060c001604052806006906020820280368337509192915050565b60405180604001604052806002906020820280368337509192915050565b634e487b7160e01b600052604160045260246000fd5b604080519081016001600160401b0381118282101715613228576132286131f0565b60405290565b60405161010081016001600160401b0381118282101715613228576132286131f0565b604051606081016001600160401b0381118282101715613228576132286131f0565b604051601f8201601f191681016001600160401b038111828210171561329b5761329b6131f0565b604052919050565b6000604082840312156132b557600080fd5b6132bd613206565b9050813581526020820135602082015292915050565b600082601f8301126132e457600080fd5b6132ec613206565b8060408401858111156132fe57600080fd5b845b81811015613318578035845260209384019301613300565b509095945050505050565b60006080828403121561333557600080fd5b61333d613206565b905061334983836132d3565b815261335883604084016132d3565b602082015292915050565b600080600080610120858703121561337a57600080fd5b8435935061338b86602087016132a3565b925061339a8660608701613323565b91506133a98660e087016132a3565b905092959194509250565b6001600160a01b038116811461262757600080fd5b6000602082840312156133db57600080fd5b8135612c57816133b4565b60006001600160401b038211156133ff576133ff6131f0565b5060051b60200190565b803563ffffffff81168114612e0457600080fd5b600082601f83011261342e57600080fd5b8135602061344361343e836133e6565b613273565b8083825260208201915060208460051b87010193508684111561346557600080fd5b602086015b848110156134885761347b81613409565b835291830191830161346a565b509695505050505050565b600082601f8301126134a457600080fd5b813560206134b461343e836133e6565b8083825260208201915060208460061b8701019350868411156134d657600080fd5b602086015b84811015613488576134ed88826132a3565b8352918301916040016134db565b600082601f83011261350c57600080fd5b8135602061351c61343e836133e6565b82815260059290921b8401810191818101908684111561353b57600080fd5b8286015b848110156134885780356001600160401b0381111561355e5760008081fd5b61356c8986838b010161341d565b84525091830191830161353f565b6000610180828403121561358d57600080fd5b61359561322e565b905081356001600160401b03808211156135ae57600080fd5b6135ba8583860161341d565b835260208401359150808211156135d057600080fd5b6135dc85838601613493565b602084015260408401359150808211156135f557600080fd5b61360185838601613493565b60408401526136138560608601613323565b60608401526136258560e086016132a3565b608084015261012084013591508082111561363f57600080fd5b61364b8583860161341d565b60a084015261014084013591508082111561366557600080fd5b6136718583860161341d565b60c084015261016084013591508082111561368b57600080fd5b50613698848285016134fb565b60e08301525092915050565b600080604083850312156136b757600080fd5b8235915060208301356001600160401b038111156136d457600080fd5b6136e08582860161357a565b9150509250929050565b6020808252825182820181905260009190848201906040850190845b8181101561372b5783516001600160a01b031683529284019291840191600101613706565b50909695505050505050565b60006020828403121561374957600080fd5b81358015158114612c5757600080fd5b6000806040838503121561376c57600080fd5b8235613777816133b4565b91506020830135613787816133b4565b809150509250929050565b6000806000606084860312156137a757600080fd5b833592506137b760208501613409565b915060408401356001600160401b038111156137d257600080fd5b6137de8682870161357a565b9150509250925092565b60008151808452602080850194506020840160005b838110156138225781516001600160601b0316875295820195908201906001016137fd565b509495945050505050565b604081526000835160408084015261384860808401826137e8565b90506020850151603f1984830301606085015261386582826137e8565b925050508260208301529392505050565b60008060006040848603121561388b57600080fd5b8335925060208401356001600160401b03808211156138a957600080fd5b818601915086601f8301126138bd57600080fd5b8135818111156138cc57600080fd5b8760208285010111156138de57600080fd5b6020830194508093505050509250925092565b60006001600160401b0383111561390a5761390a6131f0565b61391d601f8401601f1916602001613273565b905082815283838301111561393157600080fd5b828260208301376000602084830101529392505050565b6000806040838503121561395b57600080fd5b8235613966816133b4565b915060208301356001600160401b038082111561398257600080fd5b908401906060828703121561399657600080fd5b61399e613251565b8235828111156139ad57600080fd5b83019150601f820187136139c057600080fd5b6139cf878335602085016138f1565b815260208301356020820152604083013560408201528093505050509250929050565b600060208284031215613a0457600080fd5b81356001600160401b03811115613a1a57600080fd5b8201601f81018413613a2b57600080fd5b613a3a848235602084016138f1565b949350505050565b600060208284031215613a5457600080fd5b5035919050565b634e487b7160e01b600052603260045260246000fd5b600082613a8e57634e487b7160e01b600052601260045260246000fd5b500690565b634e487b7160e01b600052601160045260246000fd5b6001600160601b038181168382160280821691908281146126b3576126b3613a93565b8082028115828204841417612c5a57612c5a613a93565b600060208284031215613af557600080fd5b5051919050565b600060208284031215613b0e57600080fd5b81516001600160c01b0381168114612c5757600080fd5b600060208284031215613b3757600080fd5b815160ff81168114612c5757600080fd5b80820180821115612c5a57612c5a613a93565b80516001600160601b0381168114612e0457600080fd5b600060408284031215613b8457600080fd5b613b8c613206565b8251613b97816133b4565b8152613ba560208401613b5b565b60208201529392505050565b600060018201613bc357613bc3613a93565b5060010190565b600060208284031215613bdc57600080fd5b8151612c57816133b4565b81810381811115612c5a57612c5a613a93565b600060208284031215613c0c57600080fd5b815167ffffffffffffffff1981168114612c5757600080fd5b600060208284031215613c3757600080fd5b613c4082613b5b565b9392505050565b6001600160601b03828116828216039080821115613c6757613c67613a93565b5092915050565b63ffffffff60e01b8360e01b1681526000600482018351602080860160005b83811015613ca957815185529382019390820190600101613c8d565b5092979650505050505050565b63ffffffff8416815260406020820152816040820152818360608301376000818301606090810191909152601f909201601f1916010192915050565b60208082526052908201527f536572766963654d616e61676572426173652e6f6e6c7952656769737472794360408201527f6f6f7264696e61746f723a2063616c6c6572206973206e6f742074686520726560608201527133b4b9ba393c9031b7b7b93234b730ba37b960711b608082015260a00190565b6000815180845260005b81811015613d9057602081850181015186830182015201613d74565b506000602082860101526020601f19601f83011685010191505092915050565b60018060a01b0383168152604060208201526000825160606040840152613dda60a0840182613d6a565b90506020840151606084015260408401516080840152809150509392505050565b602081526000613c406020830184613d6a565b600061ffff808316818103613e2557613e25613a93565b600101939250505056fe30644e72e131a029b85045b68181585d97816a916871ca8d3c208c16d87cfd47424c535369676e6174757265436865636b65722e636865636b5369676e617475a264697066735822122004a73ac8e064b46a907d840e900daef02ae69b01d82e69d319ecf8fcf96015b764736f6c63430008180033",
        "linkReferences": {}
    },
    "methodIdentifiers": {
        "avsDirectory()": "6b3aa72e",
        "batchesState(bytes32)": "b099627e",
        "blsApkRegistry()": "5df45946",
        "checkSignatures(bytes32,uint32,(uint32[],(uint256,uint256)[],(uint256,uint256)[],(uint256[2],uint256[2]),(uint256,uint256),uint32[],uint32[],uint32[][]))": "4ae07c37",
        "createNewTask(bytes32,string)": "5c008994",
        "delegation()": "df5cf723",
        "deregisterOperatorFromAVS(address)": "a364f4da",
        "getOperatorRestakedStrategies(address)": "33cfb7b7",
        "getRestakeableStrategies()": "e481af9d",
        "initialize(address,address)": "485cc955",
        "isAggregator(address)": "1e8f3c95",
        "owner()": "8da5cb5b",
        "registerOperatorToAVS(address,(bytes,bytes32,uint256))": "9926ee7d",
        "registryCoordinator()": "6d14a987",
        "renounceOwnership()": "715018a6",
        "respondToTask(bytes32,(uint32[],(uint256,uint256)[],(uint256,uint256)[],(uint256[2],uint256[2]),(uint256,uint256),uint32[],uint32[],uint32[][]))": "2dd94eba",
        "setStaleStakesForbidden(bool)": "416c7e5e",
        "stakeRegistry()": "68304835",
        "staleStakesForbidden()": "b98d0908",
        "transferOwnership(address)": "f2fde38b",
        "trySignatureAndApkVerification(bytes32,(uint256,uint256),(uint256[2],uint256[2]),(uint256,uint256))": "171f1d5b",
        "updateAVSMetadataURI(string)": "a98fb355"
    },
    "id": 33
}