{"abi":[{"type":"constructor","inputs":[{"name":"__avsDirectory","type":"address","internalType":"contract IAVSDirectory"},{"name":"__rewardsCoordinator","type":"address","internalType":"contract IRewardsCoordinator"},{"name":"__registryCoordinator","type":"address","internalType":"contract IRegistryCoordinator"},{"name":"__stakeRegistry","type":"address","internalType":"contract IStakeRegistry"}],"stateMutability":"nonpayable"},{"type":"receive","stateMutability":"payable"},{"type":"function","name":"avsDirectory","inputs":[],"outputs":[{"name":"","type":"address","internalType":"address"}],"stateMutability":"view"},{"type":"function","name":"balanceOf","inputs":[{"name":"account","type":"address","internalType":"address"}],"outputs":[{"name":"","type":"uint256","internalType":"uint256"}],"stateMutability":"view"},{"type":"function","name":"batchesState","inputs":[{"name":"","type":"bytes32","internalType":"bytes32"}],"outputs":[{"name":"taskCreatedBlock","type":"uint32","internalType":"uint32"},{"name":"responded","type":"bool","internalType":"bool"},{"name":"maxFeeAllowedToRespond","type":"uint256","internalType":"uint256"}],"stateMutability":"view"},{"type":"function","name":"blsApkRegistry","inputs":[],"outputs":[{"name":"","type":"address","internalType":"contract IBLSApkRegistry"}],"stateMutability":"view"},{"type":"function","name":"checkPublicInput","inputs":[{"name":"publicInput","type":"bytes","internalType":"bytes"},{"name":"hash","type":"bytes32","internalType":"bytes32"}],"outputs":[{"name":"","type":"bool","internalType":"bool"}],"stateMutability":"pure"},{"type":"function","name":"checkSignatures","inputs":[{"name":"msgHash","type":"bytes32","internalType":"bytes32"},{"name":"referenceBlockNumber","type":"uint32","internalType":"uint32"},{"name":"params","type":"tuple","internalType":"struct IBLSSignatureChecker.NonSignerStakesAndSignature","components":[{"name":"nonSignerQuorumBitmapIndices","type":"uint32[]","internalType":"uint32[]"},{"name":"nonSignerPubkeys","type":"tuple[]","internalType":"struct BN254.G1Point[]","components":[{"name":"X","type":"uint256","internalType":"uint256"},{"name":"Y","type":"uint256","internalType":"uint256"}]},{"name":"quorumApks","type":"tuple[]","internalType":"struct BN254.G1Point[]","components":[{"name":"X","type":"uint256","internalType":"uint256"},{"name":"Y","type":"uint256","internalType":"uint256"}]},{"name":"apkG2","type":"tuple","internalType":"struct BN254.G2Point","components":[{"name":"X","type":"uint256[2]","internalType":"uint256[2]"},{"name":"Y","type":"uint256[2]","internalType":"uint256[2]"}]},{"name":"sigma","type":"tuple","internalType":"struct BN254.G1Point","components":[{"name":"X","type":"uint256","internalType":"uint256"},{"name":"Y","type":"uint256","internalType":"uint256"}]},{"name":"quorumApkIndices","type":"uint32[]","internalType":"uint32[]"},{"name":"totalStakeIndices","type":"uint32[]","internalType":"uint32[]"},{"name":"nonSignerStakeIndices","type":"uint32[][]","internalType":"uint32[][]"}]}],"outputs":[{"name":"","type":"tuple","internalType":"struct IBLSSignatureChecker.QuorumStakeTotals","components":[{"name":"signedStakeForQuorum","type":"uint96[]","internalType":"uint96[]"},{"name":"totalStakeForQuorum","type":"uint96[]","internalType":"uint96[]"}]},{"name":"","type":"bytes32","internalType":"bytes32"}],"stateMutability":"view"},{"type":"function","name":"createAVSRewardsSubmission","inputs":[{"name":"rewardsSubmissions","type":"tuple[]","internalType":"struct IRewardsCoordinator.RewardsSubmission[]","components":[{"name":"strategiesAndMultipliers","type":"tuple[]","internalType":"struct IRewardsCoordinator.StrategyAndMultiplier[]","components":[{"name":"strategy","type":"address","internalType":"contract IStrategy"},{"name":"multiplier","type":"uint96","internalType":"uint96"}]},{"name":"token","type":"address","internalType":"contract IERC20"},{"name":"amount","type":"uint256","internalType":"uint256"},{"name":"startTimestamp","type":"uint32","internalType":"uint32"},{"name":"duration","type":"uint32","internalType":"uint32"}]}],"outputs":[],"stateMutability":"nonpayable"},{"type":"function","name":"createNewTask","inputs":[{"name":"batchMerkleRoot","type":"bytes32","internalType":"bytes32"},{"name":"batchDataPointer","type":"string","internalType":"string"},{"name":"maxFeeAllowedToRespond","type":"uint256","internalType":"uint256"}],"outputs":[],"stateMutability":"payable"},{"type":"function","name":"delegation","inputs":[],"outputs":[{"name":"","type":"address","internalType":"contract IDelegationManager"}],"stateMutability":"view"},{"type":"function","name":"depositToBatcher","inputs":[{"name":"account","type":"address","internalType":"address"}],"outputs":[],"stateMutability":"payable"},{"type":"function","name":"deregisterOperatorFromAVS","inputs":[{"name":"operator","type":"address","internalType":"address"}],"outputs":[],"stateMutability":"nonpayable"},{"type":"function","name":"getOperatorRestakedStrategies","inputs":[{"name":"operator","type":"address","internalType":"address"}],"outputs":[{"name":"","type":"address[]","internalType":"address[]"}],"stateMutability":"view"},{"type":"function","name":"getRestakeableStrategies","inputs":[],"outputs":[{"name":"","type":"address[]","internalType":"address[]"}],"stateMutability":"view"},{"type":"function","name":"initialize","inputs":[{"name":"_initialOwner","type":"address","internalType":"address"},{"name":"_rewardsInitiator","type":"address","internalType":"address"}],"outputs":[],"stateMutability":"nonpayable"},{"type":"function","name":"owner","inputs":[],"outputs":[{"name":"","type":"address","internalType":"address"}],"stateMutability":"view"},{"type":"function","name":"registerOperatorToAVS","inputs":[{"name":"operator","type":"address","internalType":"address"},{"name":"operatorSignature","type":"tuple","internalType":"struct ISignatureUtils.SignatureWithSaltAndExpiry","components":[{"name":"signature","type":"bytes","internalType":"bytes"},{"name":"salt","type":"bytes32","internalType":"bytes32"},{"name":"expiry","type":"uint256","internalType":"uint256"}]}],"outputs":[],"stateMutability":"nonpayable"},{"type":"function","name":"registryCoordinator","inputs":[],"outputs":[{"name":"","type":"address","internalType":"contract IRegistryCoordinator"}],"stateMutability":"view"},{"type":"function","name":"renounceOwnership","inputs":[],"outputs":[],"stateMutability":"nonpayable"},{"type":"function","name":"respondToTask","inputs":[{"name":"batchMerkleRoot","type":"bytes32","internalType":"bytes32"},{"name":"senderAddress","type":"address","internalType":"address"},{"name":"nonSignerStakesAndSignature","type":"tuple","internalType":"struct IBLSSignatureChecker.NonSignerStakesAndSignature","components":[{"name":"nonSignerQuorumBitmapIndices","type":"uint32[]","internalType":"uint32[]"},{"name":"nonSignerPubkeys","type":"tuple[]","internalType":"struct BN254.G1Point[]","components":[{"name":"X","type":"uint256","internalType":"uint256"},{"name":"Y","type":"uint256","internalType":"uint256"}]},{"name":"quorumApks","type":"tuple[]","internalType":"struct BN254.G1Point[]","components":[{"name":"X","type":"uint256","internalType":"uint256"},{"name":"Y","type":"uint256","internalType":"uint256"}]},{"name":"apkG2","type":"tuple","internalType":"struct BN254.G2Point","components":[{"name":"X","type":"uint256[2]","internalType":"uint256[2]"},{"name":"Y","type":"uint256[2]","internalType":"uint256[2]"}]},{"name":"sigma","type":"tuple","internalType":"struct BN254.G1Point","components":[{"name":"X","type":"uint256","internalType":"uint256"},{"name":"Y","type":"uint256","internalType":"uint256"}]},{"name":"quorumApkIndices","type":"uint32[]","internalType":"uint32[]"},{"name":"totalStakeIndices","type":"uint32[]","internalType":"uint32[]"},{"name":"nonSignerStakeIndices","type":"uint32[][]","internalType":"uint32[][]"}]}],"outputs":[],"stateMutability":"nonpayable"},{"type":"function","name":"rewardsInitiator","inputs":[],"outputs":[{"name":"","type":"address","internalType":"address"}],"stateMutability":"view"},{"type":"function","name":"setRewardsInitiator","inputs":[{"name":"newRewardsInitiator","type":"address","internalType":"address"}],"outputs":[],"stateMutability":"nonpayable"},{"type":"function","name":"setStaleStakesForbidden","inputs":[{"name":"value","type":"bool","internalType":"bool"}],"outputs":[],"stateMutability":"nonpayable"},{"type":"function","name":"stakeRegistry","inputs":[],"outputs":[{"name":"","type":"address","internalType":"contract IStakeRegistry"}],"stateMutability":"view"},{"type":"function","name":"staleStakesForbidden","inputs":[],"outputs":[{"name":"","type":"bool","internalType":"bool"}],"stateMutability":"view"},{"type":"function","name":"transferOwnership","inputs":[{"name":"newOwner","type":"address","internalType":"address"}],"outputs":[],"stateMutability":"nonpayable"},{"type":"function","name":"trySignatureAndApkVerification","inputs":[{"name":"msgHash","type":"bytes32","internalType":"bytes32"},{"name":"apk","type":"tuple","internalType":"struct BN254.G1Point","components":[{"name":"X","type":"uint256","internalType":"uint256"},{"name":"Y","type":"uint256","internalType":"uint256"}]},{"name":"apkG2","type":"tuple","internalType":"struct BN254.G2Point","components":[{"name":"X","type":"uint256[2]","internalType":"uint256[2]"},{"name":"Y","type":"uint256[2]","internalType":"uint256[2]"}]},{"name":"sigma","type":"tuple","internalType":"struct BN254.G1Point","components":[{"name":"X","type":"uint256","internalType":"uint256"},{"name":"Y","type":"uint256","internalType":"uint256"}]}],"outputs":[{"name":"pairingSuccessful","type":"bool","internalType":"bool"},{"name":"siganatureIsValid","type":"bool","internalType":"bool"}],"stateMutability":"view"},{"type":"function","name":"updateAVSMetadataURI","inputs":[{"name":"_metadataURI","type":"string","internalType":"string"}],"outputs":[],"stateMutability":"nonpayable"},{"type":"function","name":"verifyBatchInclusion","inputs":[{"name":"proofCommitment","type":"bytes32","internalType":"bytes32"},{"name":"pubInputCommitment","type":"bytes32","internalType":"bytes32"},{"name":"provingSystemAuxDataCommitment","type":"bytes32","internalType":"bytes32"},{"name":"proofGeneratorAddr","type":"bytes20","internalType":"bytes20"},{"name":"batchMerkleRoot","type":"bytes32","internalType":"bytes32"},{"name":"merkleProof","type":"bytes","internalType":"bytes"},{"name":"verificationDataBatchIndex","type":"uint256","internalType":"uint256"},{"name":"senderAddress","type":"address","internalType":"address"}],"outputs":[{"name":"","type":"bool","internalType":"bool"}],"stateMutability":"view"},{"type":"function","name":"withdraw","inputs":[{"name":"amount","type":"uint256","internalType":"uint256"}],"outputs":[],"stateMutability":"nonpayable"},{"type":"event","name":"BatchVerified","inputs":[{"name":"batchMerkleRoot","type":"bytes32","indexed":true,"internalType":"bytes32"},{"name":"senderAddress","type":"address","indexed":false,"internalType":"address"}],"anonymous":false},{"type":"event","name":"BatcherBalanceUpdated","inputs":[{"name":"batcher","type":"address","indexed":true,"internalType":"address"},{"name":"newBalance","type":"uint256","indexed":false,"internalType":"uint256"}],"anonymous":false},{"type":"event","name":"Initialized","inputs":[{"name":"version","type":"uint8","indexed":false,"internalType":"uint8"}],"anonymous":false},{"type":"event","name":"NewBatch","inputs":[{"name":"batchMerkleRoot","type":"bytes32","indexed":true,"internalType":"bytes32"},{"name":"senderAddress","type":"address","indexed":false,"internalType":"address"},{"name":"taskCreatedBlock","type":"uint32","indexed":false,"internalType":"uint32"},{"name":"batchDataPointer","type":"string","indexed":false,"internalType":"string"},{"name":"maxFeeToRespond","type":"uint256","indexed":false,"internalType":"uint256"}],"anonymous":false},{"type":"event","name":"OwnershipTransferred","inputs":[{"name":"previousOwner","type":"address","indexed":true,"internalType":"address"},{"name":"newOwner","type":"address","indexed":true,"internalType":"address"}],"anonymous":false},{"type":"event","name":"RewardsInitiatorUpdated","inputs":[{"name":"prevRewardsInitiator","type":"address","indexed":false,"internalType":"address"},{"name":"newRewardsInitiator","type":"address","indexed":false,"internalType":"address"}],"anonymous":false},{"type":"event","name":"StaleStakesForbiddenUpdate","inputs":[{"name":"value","type":"bool","indexed":false,"internalType":"bool"}],"anonymous":false},{"type":"error","name":"BatchAlreadyResponded","inputs":[{"name":"batchIdentifierHash","type":"bytes32","internalType":"bytes32"}]},{"type":"error","name":"BatchAlreadySubmitted","inputs":[{"name":"batchIdentifierHash","type":"bytes32","internalType":"bytes32"}]},{"type":"error","name":"BatchDoesNotExist","inputs":[{"name":"batchIdentifierHash","type":"bytes32","internalType":"bytes32"}]},{"type":"error","name":"InsufficientFunds","inputs":[{"name":"batcher","type":"address","internalType":"address"},{"name":"required","type":"uint256","internalType":"uint256"},{"name":"available","type":"uint256","internalType":"uint256"}]},{"type":"error","name":"InvalidDepositAmount","inputs":[{"name":"amount","type":"uint256","internalType":"uint256"}]},{"type":"error","name":"InvalidQuorumThreshold","inputs":[{"name":"signedStake","type":"uint256","internalType":"uint256"},{"name":"requiredStake","type":"uint256","internalType":"uint256"}]}],"bytecode":{"object":"0x6101806040523480156200001257600080fd5b50604051620052f6380380620052f68339810160408190526200003591620002e5565b6001600160a01b0380851660805280841660a05280831660c052811660e0528184848284620000636200020a565b50505050806001600160a01b0316610100816001600160a01b031681525050806001600160a01b031663683048356040518163ffffffff1660e01b8152600401602060405180830381865afa158015620000c1573d6000803e3d6000fd5b505050506040513d601f19601f82011682018060405250810190620000e791906200034d565b6001600160a01b0316610120816001600160a01b031681525050806001600160a01b0316635df459466040518163ffffffff1660e01b8152600401602060405180830381865afa15801562000140573d6000803e3d6000fd5b505050506040513d601f19601f820116820180604052508101906200016691906200034d565b6001600160a01b0316610140816001600160a01b031681525050610120516001600160a01b031663df5cf7236040518163ffffffff1660e01b8152600401602060405180830381865afa158015620001c2573d6000803e3d6000fd5b505050506040513d601f19601f82011682018060405250810190620001e891906200034d565b6001600160a01b03166101605250620002006200020a565b5050505062000374565b600054610100900460ff1615620002775760405162461bcd60e51b815260206004820152602760248201527f496e697469616c697a61626c653a20636f6e747261637420697320696e697469604482015266616c697a696e6760c81b606482015260840160405180910390fd5b60005460ff9081161015620002ca576000805460ff191660ff9081179091556040519081527f7f26b83ff96e1f2b6a682f133852f6798a09c465da95921460cefb38474024989060200160405180910390a15b565b6001600160a01b0381168114620002e257600080fd5b50565b60008060008060808587031215620002fc57600080fd5b84516200030981620002cc565b60208601519094506200031c81620002cc565b60408601519093506200032f81620002cc565b60608601519092506200034281620002cc565b939692955090935050565b6000602082840312156200036057600080fd5b81516200036d81620002cc565b9392505050565b60805160a05160c05160e05161010051610120516101405161016051614e7462000482600039600081816105dd01526118110152600081816103480152611a2401526000818161039401528181611c110152611e010152600081816103fb01528181610f24015281816114cd0152818161167401526118c5015260008181610c3901528181610d9401528181610e2b015281816128b601528181612a390152612ad8015260008181610a6001528181610aef01528181610b6f0152818161210f015281816121db015281816127f40152612994015260008181612e0601528181612ec20152612fae0152600081816103c50152818161216301528181612237015261260c0152614e746000f3fe6080604052600436106101c65760003560e01c8063715018a6116100f7578063b099627e11610095578063e481af9d11610064578063e481af9d146105ff578063f2fde38b14610614578063fc299dee14610634578063fce36c7d1461065457600080fd5b8063b099627e14610534578063b98d09081461059e578063d66eaabd146105b8578063df5cf723146105cb57600080fd5b80639926ee7d116100d15780639926ee7d146104b4578063a364f4da146104d4578063a5a3fab1146104f4578063a98fb3551461051457600080fd5b8063715018a6146104615780638da5cb5b1461047657806395c6d6041461049457600080fd5b8063485cc95511610164578063683048351161013e57806368304835146103825780636b3aa72e146103b65780636d14a987146103e957806370a082311461041d57600080fd5b8063485cc955146102e85780634ae07c37146103085780635df459461461033657600080fd5b806333cfb7b7116101a057806333cfb7b7146102685780633bc28c8c14610295578063416c7e5e146102b55780634223d551146102d557600080fd5b806306045a91146101dc578063171f1d5b146102115780632e1a7d4d1461024857600080fd5b366101d7576101d53334610674565b005b600080fd5b3480156101e857600080fd5b506101fc6101f7366004613f23565b610706565b60405190151581526020015b60405180910390f35b34801561021d57600080fd5b5061023161022c366004614084565b6107e6565b604080519215158352901515602083015201610208565b34801561025457600080fd5b506101d56102633660046140d5565b610970565b34801561027457600080fd5b506102886102833660046140ee565b610a3b565b604051610208919061410b565b3480156102a157600080fd5b506101d56102b03660046140ee565b610f0e565b3480156102c157600080fd5b506101d56102d0366004614166565b610f22565b6101d56102e33660046140ee565b611059565b3480156102f457600080fd5b506101d5610303366004614183565b611063565b34801561031457600080fd5b50610328610323366004614472565b611178565b60405161020892919061450c565b34801561034257600080fd5b5061036a7f000000000000000000000000000000000000000000000000000000000000000081565b6040516001600160a01b039091168152602001610208565b34801561038e57600080fd5b5061036a7f000000000000000000000000000000000000000000000000000000000000000081565b3480156103c257600080fd5b507f000000000000000000000000000000000000000000000000000000000000000061036a565b3480156103f557600080fd5b5061036a7f000000000000000000000000000000000000000000000000000000000000000081565b34801561042957600080fd5b506104536104383660046140ee565b6001600160a01b0316600090815260ca602052604090205490565b604051908152602001610208565b34801561046d57600080fd5b506101d56120cb565b34801561048257600080fd5b506033546001600160a01b031661036a565b3480156104a057600080fd5b506101fc6104af36600461459d565b6120df565b3480156104c057600080fd5b506101d56104cf3660046145e8565b612104565b3480156104e057600080fd5b506101d56104ef3660046140ee565b6121d0565b34801561050057600080fd5b506101d561050f366004614693565b612297565b34801561052057600080fd5b506101d561052f3660046146ba565b6125ed565b34801561054057600080fd5b5061057c61054f3660046140d5565b60c9602052600090815260409020805460019091015463ffffffff821691640100000000900460ff169083565b6040805163ffffffff9094168452911515602084015290820152606001610208565b3480156105aa57600080fd5b506097546101fc9060ff1681565b6101d56105c636600461470a565b612641565b3480156105d757600080fd5b5061036a7f000000000000000000000000000000000000000000000000000000000000000081565b34801561060b57600080fd5b506102886127ee565b34801561062057600080fd5b506101d561062f3660046140ee565b612bb7565b34801561064057600080fd5b5060655461036a906001600160a01b031681565b34801561066057600080fd5b506101d561066f36600461475c565b612c2d565b8061069a57604051632097692160e11b8152600481018290526024015b60405180910390fd5b6001600160a01b038216600090815260ca6020526040812080548392906106c29084906147e6565b90915550506001600160a01b038216600081815260ca6020908152604091829020549151918252600080516020614dff833981519152910160405180910390a25050565b600080858360405160200161071c9291906147fe565b60408051601f198184030181529181528151602092830120600081815260c990935291205490915063ffffffff166107585760009150506107da565b600081815260c96020526040902054640100000000900460ff166107805760009150506107da565b60408051602081018c90529081018a9052606081018990526001600160601b03198816608082015260009060940160408051601f19818403018152919052805160208201209091506107d487848389612fe5565b93505050505b98975050505050505050565b60008060007f30644e72e131a029b85045b68181585d2833e84879b9709143e1f593f00000018787600001518860200151886000015160006002811061082e5761082e614819565b60200201518951600160200201518a6020015160006002811061085357610853614819565b60200201518b6020015160016002811061086f5761086f614819565b602090810291909101518c518d8301516040516108cc9a99989796959401988952602089019790975260408801959095526060870193909352608086019190915260a085015260c084015260e08301526101008201526101200190565b6040516020818303038152906040528051906020012060001c6108ef919061482f565b90506109626109086109018884612ffd565b8690613094565b610910613128565b61095861094985610943604080518082018252600080825260209182015281518083019092526001825260029082015290565b90612ffd565b6109528c6131e8565b90613094565b886201d4c0613278565b909890975095505050505050565b33600090815260ca60205260409020548111156109b45733600081815260ca602052604090819020549051632e2a182f60e11b815261069192918491600401614851565b33600090815260ca6020526040812080548392906109d3908490614872565b909155505033600081815260ca6020908152604091829020549151918252600080516020614dff833981519152910160405180910390a2604051339082156108fc029083906000818181858888f19350505050158015610a37573d6000803e3d6000fd5b5050565b6040516309aa152760e11b81526001600160a01b0382811660048301526060916000917f000000000000000000000000000000000000000000000000000000000000000016906313542a4e90602401602060405180830381865afa158015610aa7573d6000803e3d6000fd5b505050506040513d601f19601f82011682018060405250810190610acb9190614889565b60405163871ef04960e01b8152600481018290529091506000906001600160a01b037f0000000000000000000000000000000000000000000000000000000000000000169063871ef04990602401602060405180830381865afa158015610b36573d6000803e3d6000fd5b505050506040513d601f19601f82011682018060405250810190610b5a91906148a2565b90506001600160c01b0381161580610bf457507f00000000000000000000000000000000000000000000000000000000000000006001600160a01b0316639aa1653d6040518163ffffffff1660e01b8152600401602060405180830381865afa158015610bcb573d6000803e3d6000fd5b505050506040513d601f19601f82011682018060405250810190610bef91906148cb565b60ff16155b15610c145760408051600080825260208201909252905b50949350505050565b6000610c28826001600160c01b031661349c565b90506000805b8251811015610cfe577f00000000000000000000000000000000000000000000000000000000000000006001600160a01b0316633ca5a5f5848381518110610c7857610c78614819565b01602001516040516001600160e01b031960e084901b16815260f89190911c6004820152602401602060405180830381865afa158015610cbc573d6000803e3d6000fd5b505050506040513d601f19601f82011682018060405250810190610ce09190614889565b610cea90836147e6565b915080610cf6816148ee565b915050610c2e565b506000816001600160401b03811115610d1957610d19613dff565b604051908082528060200260200182016040528015610d42578160200160208202803683370190505b5090506000805b8451811015610f01576000858281518110610d6657610d66614819565b0160200151604051633ca5a5f560e01b815260f89190911c6004820181905291506000906001600160a01b037f00000000000000000000000000000000000000000000000000000000000000001690633ca5a5f590602401602060405180830381865afa158015610ddb573d6000803e3d6000fd5b505050506040513d601f19601f82011682018060405250810190610dff9190614889565b905060005b81811015610eeb576040516356e4026d60e11b815260ff84166004820152602481018290527f00000000000000000000000000000000000000000000000000000000000000006001600160a01b03169063adc804da906044016040805180830381865afa158015610e79573d6000803e3d6000fd5b505050506040513d601f19601f82011682018060405250810190610e9d919061491e565b60000151868681518110610eb357610eb3614819565b6001600160a01b039092166020928302919091019091015284610ed5816148ee565b9550508080610ee3906148ee565b915050610e04565b5050508080610ef9906148ee565b915050610d49565b5090979650505050505050565b610f1661355e565b610f1f816135b8565b50565b7f00000000000000000000000000000000000000000000000000000000000000006001600160a01b0316638da5cb5b6040518163ffffffff1660e01b8152600401602060405180830381865afa158015610f80573d6000803e3d6000fd5b505050506040513d601f19601f82011682018060405250810190610fa4919061495f565b6001600160a01b0316336001600160a01b0316146110505760405162461bcd60e51b815260206004820152605c60248201527f424c535369676e6174757265436865636b65722e6f6e6c79436f6f7264696e6160448201527f746f724f776e65723a2063616c6c6572206973206e6f7420746865206f776e6560648201527f72206f6620746865207265676973747279436f6f7264696e61746f7200000000608482015260a401610691565b610f1f81613621565b610f1f8134610674565b600054610100900460ff16158080156110835750600054600160ff909116105b8061109d5750303b15801561109d575060005460ff166001145b6111005760405162461bcd60e51b815260206004820152602e60248201527f496e697469616c697a61626c653a20636f6e747261637420697320616c72656160448201526d191e481a5b9a5d1a585b1a5e995960921b6064820152608401610691565b6000805460ff191660011790558015611123576000805461ff0019166101001790555b61112d8383613668565b8015611173576000805461ff0019169055604051600181527f7f26b83ff96e1f2b6a682f133852f6798a09c465da95921460cefb38474024989060200160405180910390a15b505050565b604080518082019091526060808252602082015260008260400151516040518060400160405280600181526020016000815250511480156111d457508260a0015151604051806040016040528060018152602001600081525051145b80156111fb57508260c0015151604051806040016040528060018152602001600081525051145b801561122257508260e0015151604051806040016040528060018152602001600081525051145b61128c5760405162461bcd60e51b81526020600482015260416024820152600080516020614e1f83398151915260448201527f7265733a20696e7075742071756f72756d206c656e677468206d69736d6174636064820152600d60fb1b608482015260a401610691565b825151602084015151146113045760405162461bcd60e51b815260206004820152604460248201819052600080516020614e1f833981519152908201527f7265733a20696e707574206e6f6e7369676e6572206c656e677468206d69736d6064820152630c2e8c6d60e31b608482015260a401610691565b4363ffffffff168463ffffffff16106113735760405162461bcd60e51b815260206004820152603c6024820152600080516020614e1f83398151915260448201527f7265733a20696e76616c6964207265666572656e636520626c6f636b000000006064820152608401610691565b60408051808201825260008082526020808301829052835180850185526060808252818301528451808601865260018082529083019390935284518381528086019095529293919082810190803683370190505060208281019190915260408051808201825260018082526000919093015280518281528082019091529081602001602082028036833701905050815260408051808201909152606080825260208201528560200151516001600160401b0381111561143457611434613dff565b60405190808252806020026020018201604052801561145d578160200160208202803683370190505b5081526020860151516001600160401b0381111561147d5761147d613dff565b6040519080825280602002602001820160405280156114a6578160200160208202803683370190505b508160200181905250600061155260405180604001604052806001815260200160008152507f00000000000000000000000000000000000000000000000000000000000000006001600160a01b0316639aa1653d6040518163ffffffff1660e01b8152600401602060405180830381865afa158015611529573d6000803e3d6000fd5b505050506040513d601f19601f8201168201806040525081019061154d91906148cb565b6136e5565b905060005b8760200151518110156117ed5761159c8860200151828151811061157d5761157d614819565b6020026020010151805160009081526020918201519091526040902090565b836020015182815181106115b2576115b2614819565b602090810291909101015280156116725760208301516115d3600183614872565b815181106115e3576115e3614819565b602002602001015160001c8360200151828151811061160457611604614819565b602002602001015160001c11611672576040805162461bcd60e51b8152602060048201526024810191909152600080516020614e1f83398151915260448201527f7265733a206e6f6e5369676e65725075626b657973206e6f7420736f727465646064820152608401610691565b7f00000000000000000000000000000000000000000000000000000000000000006001600160a01b03166304ec6351846020015183815181106116b7576116b7614819565b60200260200101518b8b6000015185815181106116d6576116d6614819565b60200260200101516040518463ffffffff1660e01b81526004016117139392919092835263ffffffff918216602084015216604082015260600190565b602060405180830381865afa158015611730573d6000803e3d6000fd5b505050506040513d601f19601f8201168201806040525081019061175491906148a2565b6001600160c01b03168360000151828151811061177357611773614819565b6020026020010181815250506117d96109016117ad848660000151858151811061179f5761179f614819565b602002602001015116613778565b8a6020015184815181106117c3576117c3614819565b60200260200101516137a390919063ffffffff16565b9450806117e5816148ee565b915050611557565b50506117f883613887565b60975490935060ff1660008161180f576000611891565b7f00000000000000000000000000000000000000000000000000000000000000006001600160a01b031663c448feb86040518163ffffffff1660e01b8152600401602060405180830381865afa15801561186d573d6000803e3d6000fd5b505050506040513d601f19601f820116820180604052508101906118919190614889565b905060005b604051806040016040528060018152602001600081525051811015611f9c578215611a22578963ffffffff16827f00000000000000000000000000000000000000000000000000000000000000006001600160a01b031663249a0c426040518060400160405280600181526020016000815250858151811061191a5761191a614819565b01602001516040516001600160e01b031960e084901b16815260f89190911c6004820152602401602060405180830381865afa15801561195e573d6000803e3d6000fd5b505050506040513d601f19601f820116820180604052508101906119829190614889565b61198c91906147e6565b11611a225760405162461bcd60e51b81526020600482015260666024820152600080516020614e1f83398151915260448201527f7265733a205374616b6552656769737472792075706461746573206d7573742060648201527f62652077697468696e207769746864726177616c44656c6179426c6f636b732060848201526577696e646f7760d01b60a482015260c401610691565b7f00000000000000000000000000000000000000000000000000000000000000006001600160a01b03166368bccaac60405180604001604052806001815260200160008152508381518110611a7957611a79614819565b602001015160f81c60f81b60f81c8c8c60a001518581518110611a9e57611a9e614819565b60209081029190910101516040516001600160e01b031960e086901b16815260ff909316600484015263ffffffff9182166024840152166044820152606401602060405180830381865afa158015611afa573d6000803e3d6000fd5b505050506040513d601f19601f82011682018060405250810190611b1e919061497c565b6001600160401b031916611b418a60400151838151811061157d5761157d614819565b67ffffffffffffffff191614611bdd5760405162461bcd60e51b81526020600482015260616024820152600080516020614e1f83398151915260448201527f7265733a2071756f72756d41706b206861736820696e2073746f72616765206460648201527f6f6573206e6f74206d617463682070726f76696465642071756f72756d2061706084820152606b60f81b60a482015260c401610691565b611c0d89604001518281518110611bf657611bf6614819565b60200260200101518761309490919063ffffffff16565b95507f00000000000000000000000000000000000000000000000000000000000000006001600160a01b031663c8294c5660405180604001604052806001815260200160008152508381518110611c6657611c66614819565b602001015160f81c60f81b60f81c8c8c60c001518581518110611c8b57611c8b614819565b60209081029190910101516040516001600160e01b031960e086901b16815260ff909316600484015263ffffffff9182166024840152166044820152606401602060405180830381865afa158015611ce7573d6000803e3d6000fd5b505050506040513d601f19601f82011682018060405250810190611d0b91906149a7565b85602001518281518110611d2157611d21614819565b6001600160601b03909216602092830291909101820152850151805182908110611d4d57611d4d614819565b602002602001015185600001518281518110611d6b57611d6b614819565b60200260200101906001600160601b031690816001600160601b0316815250506000805b8a6020015151811015611f8757611dfa86600001518281518110611db557611db5614819565b602002602001015160405180604001604052806001815260200160008152508581518110611de557611de5614819565b016020015160f81c60ff161c60019081161490565b15611f75577f00000000000000000000000000000000000000000000000000000000000000006001600160a01b031663f2be94ae60405180604001604052806001815260200160008152508581518110611e5657611e56614819565b602001015160f81c60f81b60f81c8e89602001518581518110611e7b57611e7b614819565b60200260200101518f60e001518881518110611e9957611e99614819565b60200260200101518781518110611eb257611eb2614819565b60209081029190910101516040516001600160e01b031960e087901b16815260ff909416600485015263ffffffff92831660248501526044840191909152166064820152608401602060405180830381865afa158015611f16573d6000803e3d6000fd5b505050506040513d601f19601f82011682018060405250810190611f3a91906149a7565b8751805185908110611f4e57611f4e614819565b60200260200101818151611f6291906149c4565b6001600160601b03169052506001909101905b80611f7f816148ee565b915050611d8f565b50508080611f94906148ee565b915050611896565b505050600080611fb68a868a606001518b608001516107e6565b91509150816120275760405162461bcd60e51b81526020600482015260436024820152600080516020614e1f83398151915260448201527f7265733a2070616972696e6720707265636f6d70696c652063616c6c206661696064820152621b195960ea1b608482015260a401610691565b806120885760405162461bcd60e51b81526020600482015260396024820152600080516020614e1f83398151915260448201527f7265733a207369676e617475726520697320696e76616c6964000000000000006064820152608401610691565b505060008782602001516040516020016120a39291906149ec565b60408051808303601f1901815291905280516020909101209299929850919650505050505050565b6120d361355e565b6120dd6000613922565b565b60008184846040516120f2929190614a34565b60405180910390201490509392505050565b336001600160a01b037f0000000000000000000000000000000000000000000000000000000000000000161461214c5760405162461bcd60e51b815260040161069190614a44565b604051639926ee7d60e01b81526001600160a01b037f00000000000000000000000000000000000000000000000000000000000000001690639926ee7d9061219a9085908590600401614b09565b600060405180830381600087803b1580156121b457600080fd5b505af11580156121c8573d6000803e3d6000fd5b505050505050565b336001600160a01b037f000000000000000000000000000000000000000000000000000000000000000016146122185760405162461bcd60e51b815260040161069190614a44565b6040516351b27a6d60e11b81526001600160a01b0382811660048301527f0000000000000000000000000000000000000000000000000000000000000000169063a364f4da906024015b600060405180830381600087803b15801561227c57600080fd5b505af1158015612290573d6000803e3d6000fd5b5050505050565b60005a9050600084846040516020016122b19291906147fe565b60408051601f198184030181529181528151602092830120600081815260c9909352912080549192509063ffffffff16612301576040516311cb69a760e11b815260048101839052602401610691565b8054640100000000900460ff161561232f57604051634e78d7f960e11b815260048101839052602401610691565b805464ff00000000191664010000000017815560018101546001600160a01b038616600090815260ca602052604090205410156123a25760018101546001600160a01b038616600090815260ca602052604090819020549051632e2a182f60e11b81526106919288929091600401614851565b80546000906123b990849063ffffffff1687611178565b509050604360ff1681602001516000815181106123d8576123d8614819565b60200260200101516123ea9190614b54565b6001600160601b03166064826000015160008151811061240c5761240c614819565b60200260200101516001600160601b03166124279190614b83565b10156124ba576064816000015160008151811061244657612446614819565b60200260200101516001600160601b03166124619190614b83565b604360ff16826020015160008151811061247d5761247d614819565b602002602001015161248f9190614b54565b60405163530f5c4560e11b815260048101929092526001600160601b03166024820152604401610691565b6040516001600160a01b038716815287907f8511746b73275e06971968773119b9601fc501d7bdf3824d8754042d148940e29060200160405180910390a260003a5a6125069087614872565b61251390620111706147e6565b61251d9190614b83565b9050826001015481111561254d576001830154604051632e2a182f60e11b81526106919189918490600401614851565b6001600160a01b038716600090815260ca602052604081208054839290612575908490614872565b90915550506001600160a01b038716600081815260ca6020908152604091829020549151918252600080516020614dff833981519152910160405180910390a2604051339082156108fc029083906000818181858888f193505050501580156125e2573d6000803e3d6000fd5b505050505050505050565b6125f561355e565b60405163a98fb35560e01b81526001600160a01b037f0000000000000000000000000000000000000000000000000000000000000000169063a98fb35590612262908490600401614ba2565b600084336040516020016126569291906147fe565b60408051601f198184030181529181528151602092830120600081815260c990935291205490915063ffffffff16156126a557604051630c40bc4360e21b815260048101829052602401610691565b34156127025733600090815260ca6020526040812080543492906126ca9084906147e6565b909155505033600081815260ca6020908152604091829020549151918252600080516020614dff833981519152910160405180910390a25b33600090815260ca60205260409020548211156127465733600081815260ca602052604090819020549051632e2a182f60e11b815261069192918591600401614851565b604080516060810182526000602080830182815263ffffffff43818116865285870189815288865260c99094529386902085518154935115156401000000000264ffffffffff1990941692169190911791909117815590516001909101559151909187917fc70047519419ed216ffe8f00f291d47420c75a4c30776a9e012e3f9231b89264916127de913391908a908a908a90614bb5565b60405180910390a2505050505050565b606060007f00000000000000000000000000000000000000000000000000000000000000006001600160a01b0316639aa1653d6040518163ffffffff1660e01b8152600401602060405180830381865afa158015612850573d6000803e3d6000fd5b505050506040513d601f19601f8201168201806040525081019061287491906148cb565b60ff1690508061289257505060408051600081526020810190915290565b6000805b8281101561294757604051633ca5a5f560e01b815260ff821660048201527f00000000000000000000000000000000000000000000000000000000000000006001600160a01b031690633ca5a5f590602401602060405180830381865afa158015612905573d6000803e3d6000fd5b505050506040513d601f19601f820116820180604052508101906129299190614889565b61293390836147e6565b91508061293f816148ee565b915050612896565b506000816001600160401b0381111561296257612962613dff565b60405190808252806020026020018201604052801561298b578160200160208202803683370190505b5090506000805b7f00000000000000000000000000000000000000000000000000000000000000006001600160a01b0316639aa1653d6040518163ffffffff1660e01b8152600401602060405180830381865afa1580156129f0573d6000803e3d6000fd5b505050506040513d601f19601f82011682018060405250810190612a1491906148cb565b60ff16811015612bad57604051633ca5a5f560e01b815260ff821660048201526000907f00000000000000000000000000000000000000000000000000000000000000006001600160a01b031690633ca5a5f590602401602060405180830381865afa158015612a88573d6000803e3d6000fd5b505050506040513d601f19601f82011682018060405250810190612aac9190614889565b905060005b81811015612b98576040516356e4026d60e11b815260ff84166004820152602481018290527f00000000000000000000000000000000000000000000000000000000000000006001600160a01b03169063adc804da906044016040805180830381865afa158015612b26573d6000803e3d6000fd5b505050506040513d601f19601f82011682018060405250810190612b4a919061491e565b60000151858581518110612b6057612b60614819565b6001600160a01b039092166020928302919091019091015283612b82816148ee565b9450508080612b90906148ee565b915050612ab1565b50508080612ba5906148ee565b915050612992565b5090949350505050565b612bbf61355e565b6001600160a01b038116612c245760405162461bcd60e51b815260206004820152602660248201527f4f776e61626c653a206e6577206f776e657220697320746865207a65726f206160448201526564647265737360d01b6064820152608401610691565b610f1f81613922565b6065546001600160a01b03163314612cc25760405162461bcd60e51b815260206004820152604c60248201527f536572766963654d616e61676572426173652e6f6e6c7952657761726473496e60448201527f69746961746f723a2063616c6c6572206973206e6f742074686520726577617260648201526b32399034b734ba34b0ba37b960a11b608482015260a401610691565b60005b81811015612f9657828282818110612cdf57612cdf614819565b9050602002810190612cf19190614c0c565b612d029060408101906020016140ee565b6001600160a01b03166323b872dd3330868686818110612d2457612d24614819565b9050602002810190612d369190614c0c565b604080516001600160e01b031960e087901b1681526001600160a01b039485166004820152939092166024840152013560448201526064016020604051808303816000875af1158015612d8d573d6000803e3d6000fd5b505050506040513d601f19601f82011682018060405250810190612db19190614c37565b506000838383818110612dc657612dc6614819565b9050602002810190612dd89190614c0c565b612de99060408101906020016140ee565b604051636eb1769f60e11b81523060048201526001600160a01b037f000000000000000000000000000000000000000000000000000000000000000081166024830152919091169063dd62ed3e90604401602060405180830381865afa158015612e57573d6000803e3d6000fd5b505050506040513d601f19601f82011682018060405250810190612e7b9190614889565b9050838383818110612e8f57612e8f614819565b9050602002810190612ea19190614c0c565b612eb29060408101906020016140ee565b6001600160a01b031663095ea7b37f000000000000000000000000000000000000000000000000000000000000000083878787818110612ef457612ef4614819565b9050602002810190612f069190614c0c565b60400135612f1491906147e6565b6040516001600160e01b031960e085901b1681526001600160a01b03909216600483015260248201526044016020604051808303816000875af1158015612f5f573d6000803e3d6000fd5b505050506040513d601f19601f82011682018060405250810190612f839190614c37565b505080612f8f906148ee565b9050612cc5565b5060405163fce36c7d60e01b81526001600160a01b037f0000000000000000000000000000000000000000000000000000000000000000169063fce36c7d9061219a9085908590600401614caf565b600083612ff3868585613974565b1495945050505050565b6040805180820190915260008082526020820152613019613d25565b835181526020808501519082015260408082018490526000908360608460076107d05a03fa905080801561304c5761304e565bfe5b508061308c5760405162461bcd60e51b815260206004820152600d60248201526c1958cb5b5d5b0b59985a5b1959609a1b6044820152606401610691565b505092915050565b60408051808201909152600080825260208201526130b0613d43565b835181526020808501518183015283516040808401919091529084015160608301526000908360808460066107d05a03fa905080801561304c57508061308c5760405162461bcd60e51b815260206004820152600d60248201526c1958cb5859190b59985a5b1959609a1b6044820152606401610691565b613130613d61565b50604080516080810182527f198e9393920d483a7260bfb731fb5d25f1aa493335a9e71297e485b7aef312c28183019081527f1800deef121f1e76426a00665e5c4479674322d4f75edadd46debd5cd992f6ed6060830152815281518083019092527f275dc4a288d1afb3cbb1ac09187524c7db36395df7be3b99e673b13a075a65ec82527f1d9befcd05a5323e6da4d435f3b617cdb3af83285c2df711ef39c01571827f9d60208381019190915281019190915290565b604080518082019091526000808252602082015260008080613218600080516020614ddf8339815191528661482f565b90505b61322481613a6e565b9093509150600080516020614ddf83398151915282830983141561325e576040805180820190915290815260208101919091529392505050565b600080516020614ddf83398151915260018208905061321b565b6040805180820182528681526020808201869052825180840190935286835282018490526000918291906132aa613d86565b60005b600281101561346f5760006132c3826006614b83565b90508482600281106132d7576132d7614819565b602002015151836132e98360006147e6565b600c81106132f9576132f9614819565b602002015284826002811061331057613310614819565b6020020151602001518382600161332791906147e6565b600c811061333757613337614819565b602002015283826002811061334e5761334e614819565b60200201515151836133618360026147e6565b600c811061337157613371614819565b602002015283826002811061338857613388614819565b60200201515160016020020151836133a18360036147e6565b600c81106133b1576133b1614819565b60200201528382600281106133c8576133c8614819565b6020020151602001516000600281106133e3576133e3614819565b6020020151836133f48360046147e6565b600c811061340457613404614819565b602002015283826002811061341b5761341b614819565b60200201516020015160016002811061343657613436614819565b6020020151836134478360056147e6565b600c811061345757613457614819565b60200201525080613467816148ee565b9150506132ad565b50613478613da5565b60006020826101808560088cfa9151919c9115159b50909950505050505050505050565b60606000806134aa84613778565b61ffff166001600160401b038111156134c5576134c5613dff565b6040519080825280601f01601f1916602001820160405280156134ef576020820181803683370190505b5090506000805b825182108015613507575061010081105b15612bad576001811b93508584161561354e578060f81b83838151811061353057613530614819565b60200101906001600160f81b031916908160001a9053508160010191505b613557816148ee565b90506134f6565b6033546001600160a01b031633146120dd5760405162461bcd60e51b815260206004820181905260248201527f4f776e61626c653a2063616c6c6572206973206e6f7420746865206f776e65726044820152606401610691565b606554604080516001600160a01b03928316815291831660208301527fe11cddf1816a43318ca175bbc52cd0185436e9cbead7c83acc54a73e461717e3910160405180910390a1606580546001600160a01b0319166001600160a01b0392909216919091179055565b6097805460ff19168215159081179091556040519081527f40e4ed880a29e0f6ddce307457fb75cddf4feef7d3ecb0301bfdf4976a0e2dfc9060200160405180910390a150565b600054610100900460ff166136d35760405162461bcd60e51b815260206004820152602b60248201527f496e697469616c697a61626c653a20636f6e7472616374206973206e6f74206960448201526a6e697469616c697a696e6760a81b6064820152608401610691565b6136dc82613922565b610a37816135b8565b6000806136f184613af0565b9050808360ff166001901b1161376f5760405162461bcd60e51b815260206004820152603f60248201527f4269746d61705574696c732e6f72646572656442797465734172726179546f4260448201527f69746d61703a206269746d61702065786365656473206d61782076616c7565006064820152608401610691565b90505b92915050565b6000805b82156137725761378d600184614872565b909216918061379b81614dbc565b91505061377c565b60408051808201909152600080825260208201526102008261ffff16106137ff5760405162461bcd60e51b815260206004820152601060248201526f7363616c61722d746f6f2d6c6172676560801b6044820152606401610691565b8161ffff1660011415613813575081613772565b6040805180820190915260008082526020820181905284906001905b8161ffff168661ffff161061387c57600161ffff871660ff83161c8116141561385f5761385c8484613094565b93505b6138698384613094565b92506201fffe600192831b16910161382f565b509195945050505050565b604080518082019091526000808252602082015281511580156138ac57506020820151155b156138ca575050604080518082019091526000808252602082015290565b604051806040016040528083600001518152602001600080516020614ddf83398151915284602001516138fd919061482f565b61391590600080516020614ddf833981519152614872565b905292915050565b919050565b603380546001600160a01b038381166001600160a01b0319831681179093556040519116919082907f8be0079c531659141344cd1fd0a4f28419497f9722a3daafe3b4186f6b6457e090600090a35050565b600060208451613984919061482f565b15613a0b5760405162461bcd60e51b815260206004820152604b60248201527f4d65726b6c652e70726f63657373496e636c7573696f6e50726f6f664b65636360448201527f616b3a2070726f6f66206c656e6774682073686f756c642062652061206d756c60648201526a3a34b836329037b310199960a91b608482015260a401610691565b8260205b85518111610c0b57613a2260028561482f565b613a4357816000528086015160205260406000209150600284049350613a5c565b8086015160005281602052604060002091506002840493505b613a676020826147e6565b9050613a0f565b60008080600080516020614ddf8339815191526003600080516020614ddf83398151915286600080516020614ddf833981519152888909090890506000613ae4827f0c19139cb84c680a6e14116da060561765e05aa45a1c72a34f082305b61f3f52600080516020614ddf833981519152613c7d565b91959194509092505050565b600061010082511115613b795760405162461bcd60e51b8152602060048201526044602482018190527f4269746d61705574696c732e6f72646572656442797465734172726179546f42908201527f69746d61703a206f7264657265644279746573417272617920697320746f6f206064820152636c6f6e6760e01b608482015260a401610691565b8151613b8757506000919050565b60008083600081518110613b9d57613b9d614819565b0160200151600160f89190911c81901b92505b8451811015613c7457848181518110613bcb57613bcb614819565b0160200151600160f89190911c1b9150828211613c605760405162461bcd60e51b815260206004820152604760248201527f4269746d61705574696c732e6f72646572656442797465734172726179546f4260448201527f69746d61703a206f72646572656442797465734172726179206973206e6f74206064820152661bdc99195c995960ca1b608482015260a401610691565b91811791613c6d816148ee565b9050613bb0565b50909392505050565b600080613c88613da5565b613c90613dc3565b602080825281810181905260408201819052606082018890526080820187905260a082018690528260c08360056107d05a03fa925082801561304c575082613d1a5760405162461bcd60e51b815260206004820152601a60248201527f424e3235342e6578704d6f643a2063616c6c206661696c7572650000000000006044820152606401610691565b505195945050505050565b60405180606001604052806003906020820280368337509192915050565b60405180608001604052806004906020820280368337509192915050565b6040518060400160405280613d74613de1565b8152602001613d81613de1565b905290565b604051806101800160405280600c906020820280368337509192915050565b60405180602001604052806001906020820280368337509192915050565b6040518060c001604052806006906020820280368337509192915050565b60405180604001604052806002906020820280368337509192915050565b634e487b7160e01b600052604160045260246000fd5b604080519081016001600160401b0381118282101715613e3757613e37613dff565b60405290565b60405161010081016001600160401b0381118282101715613e3757613e37613dff565b604051601f8201601f191681016001600160401b0381118282101715613e8857613e88613dff565b604052919050565b60006001600160401b03831115613ea957613ea9613dff565b613ebc601f8401601f1916602001613e60565b9050828152838383011115613ed057600080fd5b828260208301376000602084830101529392505050565b600082601f830112613ef857600080fd5b613f0783833560208501613e90565b9392505050565b6001600160a01b0381168114610f1f57600080fd5b600080600080600080600080610100898b031215613f4057600080fd5b88359750602089013596506040890135955060608901356001600160601b031981168114613f6d57600080fd5b94506080890135935060a08901356001600160401b03811115613f8f57600080fd5b613f9b8b828c01613ee7565b93505060c0890135915060e0890135613fb381613f0e565b809150509295985092959890939650565b600060408284031215613fd657600080fd5b613fde613e15565b9050813581526020820135602082015292915050565b600082601f83011261400557600080fd5b61400d613e15565b80604084018581111561401f57600080fd5b845b81811015614039578035845260209384019301614021565b509095945050505050565b60006080828403121561405657600080fd5b61405e613e15565b905061406a8383613ff4565b81526140798360408401613ff4565b602082015292915050565b600080600080610120858703121561409b57600080fd5b843593506140ac8660208701613fc4565b92506140bb8660608701614044565b91506140ca8660e08701613fc4565b905092959194509250565b6000602082840312156140e757600080fd5b5035919050565b60006020828403121561410057600080fd5b813561376f81613f0e565b6020808252825182820181905260009190848201906040850190845b8181101561414c5783516001600160a01b031683529284019291840191600101614127565b50909695505050505050565b8015158114610f1f57600080fd5b60006020828403121561417857600080fd5b813561376f81614158565b6000806040838503121561419657600080fd5b82356141a181613f0e565b915060208301356141b181613f0e565b809150509250929050565b803563ffffffff8116811461391d57600080fd5b60006001600160401b038211156141e9576141e9613dff565b5060051b60200190565b600082601f83011261420457600080fd5b81356020614219614214836141d0565b613e60565b82815260059290921b8401810191818101908684111561423857600080fd5b8286015b8481101561425a5761424d816141bc565b835291830191830161423c565b509695505050505050565b600082601f83011261427657600080fd5b81356020614286614214836141d0565b82815260069290921b840181019181810190868411156142a557600080fd5b8286015b8481101561425a576142bb8882613fc4565b8352918301916040016142a9565b600082601f8301126142da57600080fd5b813560206142ea614214836141d0565b82815260059290921b8401810191818101908684111561430957600080fd5b8286015b8481101561425a5780356001600160401b0381111561432c5760008081fd5b61433a8986838b01016141f3565b84525091830191830161430d565b6000610180828403121561435b57600080fd5b614363613e3d565b905081356001600160401b038082111561437c57600080fd5b614388858386016141f3565b8352602084013591508082111561439e57600080fd5b6143aa85838601614265565b602084015260408401359150808211156143c357600080fd5b6143cf85838601614265565b60408401526143e18560608601614044565b60608401526143f38560e08601613fc4565b608084015261012084013591508082111561440d57600080fd5b614419858386016141f3565b60a084015261014084013591508082111561443357600080fd5b61443f858386016141f3565b60c084015261016084013591508082111561445957600080fd5b50614466848285016142c9565b60e08301525092915050565b60008060006060848603121561448757600080fd5b83359250614497602085016141bc565b915060408401356001600160401b038111156144b257600080fd5b6144be86828701614348565b9150509250925092565b600081518084526020808501945080840160005b838110156145015781516001600160601b0316875295820195908201906001016144dc565b509495945050505050565b604081526000835160408084015261452760808401826144c8565b90506020850151603f1984830301606085015261454482826144c8565b925050508260208301529392505050565b60008083601f84011261456757600080fd5b5081356001600160401b0381111561457e57600080fd5b60208301915083602082850101111561459657600080fd5b9250929050565b6000806000604084860312156145b257600080fd5b83356001600160401b038111156145c857600080fd5b6145d486828701614555565b909790965060209590950135949350505050565b600080604083850312156145fb57600080fd5b823561460681613f0e565b915060208301356001600160401b038082111561462257600080fd5b908401906060828703121561463657600080fd5b60405160608101818110838211171561465157614651613dff565b60405282358281111561466357600080fd5b61466f88828601613ee7565b82525060208301356020820152604083013560408201528093505050509250929050565b6000806000606084860312156146a857600080fd5b83359250602084013561449781613f0e565b6000602082840312156146cc57600080fd5b81356001600160401b038111156146e257600080fd5b8201601f810184136146f357600080fd5b61470284823560208401613e90565b949350505050565b6000806000806060858703121561472057600080fd5b8435935060208501356001600160401b0381111561473d57600080fd5b61474987828801614555565b9598909750949560400135949350505050565b6000806020838503121561476f57600080fd5b82356001600160401b038082111561478657600080fd5b818501915085601f83011261479a57600080fd5b8135818111156147a957600080fd5b8660208260051b85010111156147be57600080fd5b60209290920196919550909350505050565b634e487b7160e01b600052601160045260246000fd5b600082198211156147f9576147f96147d0565b500190565b91825260601b6001600160601b031916602082015260340190565b634e487b7160e01b600052603260045260246000fd5b60008261484c57634e487b7160e01b600052601260045260246000fd5b500690565b6001600160a01b039390931683526020830191909152604082015260600190565b600082821015614884576148846147d0565b500390565b60006020828403121561489b57600080fd5b5051919050565b6000602082840312156148b457600080fd5b81516001600160c01b038116811461376f57600080fd5b6000602082840312156148dd57600080fd5b815160ff8116811461376f57600080fd5b6000600019821415614902576149026147d0565b5060010190565b6001600160601b0381168114610f1f57600080fd5b60006040828403121561493057600080fd5b614938613e15565b825161494381613f0e565b8152602083015161495381614909565b60208201529392505050565b60006020828403121561497157600080fd5b815161376f81613f0e565b60006020828403121561498e57600080fd5b815167ffffffffffffffff198116811461376f57600080fd5b6000602082840312156149b957600080fd5b815161376f81614909565b60006001600160601b03838116908316818110156149e4576149e46147d0565b039392505050565b63ffffffff60e01b8360e01b1681526000600482018351602080860160005b83811015614a2757815185529382019390820190600101614a0b565b5092979650505050505050565b8183823760009101908152919050565b60208082526052908201527f536572766963654d616e61676572426173652e6f6e6c7952656769737472794360408201527f6f6f7264696e61746f723a2063616c6c6572206973206e6f742074686520726560608201527133b4b9ba393c9031b7b7b93234b730ba37b960711b608082015260a00190565b6000815180845260005b81811015614ae257602081850181015186830182015201614ac6565b81811115614af4576000602083870101525b50601f01601f19169290920160200192915050565b60018060a01b0383168152604060208201526000825160606040840152614b3360a0840182614abc565b90506020840151606084015260408401516080840152809150509392505050565b60006001600160601b0380831681851681830481118215151615614b7a57614b7a6147d0565b02949350505050565b6000816000190483118215151615614b9d57614b9d6147d0565b500290565b602081526000613f076020830184614abc565b6001600160a01b038616815263ffffffff851660208201526080604082018190528101839052828460a0830137600060a08483010152600060a0601f19601f86011683010190508260608301529695505050505050565b60008235609e19833603018112614c2257600080fd5b9190910192915050565b803561391d81613f0e565b600060208284031215614c4957600080fd5b815161376f81614158565b8183526000602080850194508260005b85811015614501578135614c7781613f0e565b6001600160a01b0316875281830135614c8f81614909565b6001600160601b0316878401526040968701969190910190600101614c64565b60208082528181018390526000906040808401600586901b8501820187855b88811015614dae57878303603f190184528135368b9003609e19018112614cf457600080fd5b8a0160a0813536839003601e19018112614d0d57600080fd5b820180356001600160401b03811115614d2557600080fd5b8060061b3603841315614d3757600080fd5b828752614d49838801828c8501614c54565b92505050614d58888301614c2c565b6001600160a01b03168886015281870135878601526060614d7a8184016141bc565b63ffffffff16908601526080614d918382016141bc565b63ffffffff16950194909452509285019290850190600101614cce565b509098975050505050505050565b600061ffff80831681811415614dd457614dd46147d0565b600101939250505056fe30644e72e131a029b85045b68181585d97816a916871ca8d3c208c16d87cfd470ea46f246ccfc58f7a93aa09bc6245a6818e97b1a160d186afe78993a3b194a0424c535369676e6174757265436865636b65722e636865636b5369676e617475a2646970667358221220cc782e838c01784d2a9f2c0d159960af907c4740dffd00a46e1b020c4c3fa4d664736f6c634300080c0033","linkReferences":{}},"methodIdentifiers":{"avsDirectory()":"6b3aa72e","balanceOf(address)":"70a08231","batchesState(bytes32)":"b099627e","blsApkRegistry()":"5df45946","checkPublicInput(bytes,bytes32)":"95c6d604","checkSignatures(bytes32,uint32,(uint32[],(uint256,uint256)[],(uint256,uint256)[],(uint256[2],uint256[2]),(uint256,uint256),uint32[],uint32[],uint32[][]))":"4ae07c37","createAVSRewardsSubmission(((address,uint96)[],address,uint256,uint32,uint32)[])":"fce36c7d","createNewTask(bytes32,string,uint256)":"d66eaabd","delegation()":"df5cf723","depositToBatcher(address)":"4223d551","deregisterOperatorFromAVS(address)":"a364f4da","getOperatorRestakedStrategies(address)":"33cfb7b7","getRestakeableStrategies()":"e481af9d","initialize(address,address)":"485cc955","owner()":"8da5cb5b","registerOperatorToAVS(address,(bytes,bytes32,uint256))":"9926ee7d","registryCoordinator()":"6d14a987","renounceOwnership()":"715018a6","respondToTask(bytes32,address,(uint32[],(uint256,uint256)[],(uint256,uint256)[],(uint256[2],uint256[2]),(uint256,uint256),uint32[],uint32[],uint32[][]))":"a5a3fab1","rewardsInitiator()":"fc299dee","setRewardsInitiator(address)":"3bc28c8c","setStaleStakesForbidden(bool)":"416c7e5e","stakeRegistry()":"68304835","staleStakesForbidden()":"b98d0908","transferOwnership(address)":"f2fde38b","trySignatureAndApkVerification(bytes32,(uint256,uint256),(uint256[2],uint256[2]),(uint256,uint256))":"171f1d5b","updateAVSMetadataURI(string)":"a98fb355","verifyBatchInclusion(bytes32,bytes32,bytes32,bytes20,bytes32,bytes,uint256,address)":"06045a91","withdraw(uint256)":"2e1a7d4d"},"id":179}