{"abi":[{"type":"constructor","inputs":[{"name":"__avsDirectory","type":"address","internalType":"contract IAVSDirectory"},{"name":"__rewardsCoordinator","type":"address","internalType":"contract IRewardsCoordinator"},{"name":"__registryCoordinator","type":"address","internalType":"contract IRegistryCoordinator"},{"name":"__stakeRegistry","type":"address","internalType":"contract IStakeRegistry"}],"stateMutability":"nonpayable"},{"type":"receive","stateMutability":"payable"},{"type":"function","name":"avsDirectory","inputs":[],"outputs":[{"name":"","type":"address","internalType":"address"}],"stateMutability":"view"},{"type":"function","name":"balanceOf","inputs":[{"name":"account","type":"address","internalType":"address"}],"outputs":[{"name":"","type":"uint256","internalType":"uint256"}],"stateMutability":"view"},{"type":"function","name":"batchesState","inputs":[{"name":"","type":"bytes32","internalType":"bytes32"}],"outputs":[{"name":"taskCreatedBlock","type":"uint32","internalType":"uint32"},{"name":"responded","type":"bool","internalType":"bool"},{"name":"maxFeeToRespond","type":"uint256","internalType":"uint256"}],"stateMutability":"view"},{"type":"function","name":"blsApkRegistry","inputs":[],"outputs":[{"name":"","type":"address","internalType":"contract IBLSApkRegistry"}],"stateMutability":"view"},{"type":"function","name":"checkMaxFeeToRespond","inputs":[{"name":"batchIdentifierHash","type":"bytes32","internalType":"bytes32"}],"outputs":[{"name":"","type":"uint256","internalType":"uint256"}],"stateMutability":"view"},{"type":"function","name":"checkMaxFeeToRespond","inputs":[{"name":"merkleRoot","type":"bytes32","internalType":"bytes32"},{"name":"senderAddress","type":"address","internalType":"address"}],"outputs":[{"name":"","type":"uint256","internalType":"uint256"}],"stateMutability":"view"},{"type":"function","name":"checkPublicInput","inputs":[{"name":"publicInput","type":"bytes","internalType":"bytes"},{"name":"hash","type":"bytes32","internalType":"bytes32"}],"outputs":[{"name":"","type":"bool","internalType":"bool"}],"stateMutability":"pure"},{"type":"function","name":"checkSignatures","inputs":[{"name":"msgHash","type":"bytes32","internalType":"bytes32"},{"name":"referenceBlockNumber","type":"uint32","internalType":"uint32"},{"name":"params","type":"tuple","internalType":"struct IBLSSignatureChecker.NonSignerStakesAndSignature","components":[{"name":"nonSignerQuorumBitmapIndices","type":"uint32[]","internalType":"uint32[]"},{"name":"nonSignerPubkeys","type":"tuple[]","internalType":"struct BN254.G1Point[]","components":[{"name":"X","type":"uint256","internalType":"uint256"},{"name":"Y","type":"uint256","internalType":"uint256"}]},{"name":"quorumApks","type":"tuple[]","internalType":"struct BN254.G1Point[]","components":[{"name":"X","type":"uint256","internalType":"uint256"},{"name":"Y","type":"uint256","internalType":"uint256"}]},{"name":"apkG2","type":"tuple","internalType":"struct BN254.G2Point","components":[{"name":"X","type":"uint256[2]","internalType":"uint256[2]"},{"name":"Y","type":"uint256[2]","internalType":"uint256[2]"}]},{"name":"sigma","type":"tuple","internalType":"struct BN254.G1Point","components":[{"name":"X","type":"uint256","internalType":"uint256"},{"name":"Y","type":"uint256","internalType":"uint256"}]},{"name":"quorumApkIndices","type":"uint32[]","internalType":"uint32[]"},{"name":"totalStakeIndices","type":"uint32[]","internalType":"uint32[]"},{"name":"nonSignerStakeIndices","type":"uint32[][]","internalType":"uint32[][]"}]}],"outputs":[{"name":"","type":"tuple","internalType":"struct IBLSSignatureChecker.QuorumStakeTotals","components":[{"name":"signedStakeForQuorum","type":"uint96[]","internalType":"uint96[]"},{"name":"totalStakeForQuorum","type":"uint96[]","internalType":"uint96[]"}]},{"name":"","type":"bytes32","internalType":"bytes32"}],"stateMutability":"view"},{"type":"function","name":"createAVSRewardsSubmission","inputs":[{"name":"rewardsSubmissions","type":"tuple[]","internalType":"struct IRewardsCoordinator.RewardsSubmission[]","components":[{"name":"strategiesAndMultipliers","type":"tuple[]","internalType":"struct IRewardsCoordinator.StrategyAndMultiplier[]","components":[{"name":"strategy","type":"address","internalType":"contract IStrategy"},{"name":"multiplier","type":"uint96","internalType":"uint96"}]},{"name":"token","type":"address","internalType":"contract IERC20"},{"name":"amount","type":"uint256","internalType":"uint256"},{"name":"startTimestamp","type":"uint32","internalType":"uint32"},{"name":"duration","type":"uint32","internalType":"uint32"}]}],"outputs":[],"stateMutability":"nonpayable"},{"type":"function","name":"createNewTask","inputs":[{"name":"batchMerkleRoot","type":"bytes32","internalType":"bytes32"},{"name":"batchDataPointer","type":"string","internalType":"string"},{"name":"maxFeeToRespond","type":"uint256","internalType":"uint256"}],"outputs":[],"stateMutability":"payable"},{"type":"function","name":"delegation","inputs":[],"outputs":[{"name":"","type":"address","internalType":"contract IDelegationManager"}],"stateMutability":"view"},{"type":"function","name":"depositToBatcher","inputs":[{"name":"account","type":"address","internalType":"address"}],"outputs":[],"stateMutability":"payable"},{"type":"function","name":"deregisterOperatorFromAVS","inputs":[{"name":"operator","type":"address","internalType":"address"}],"outputs":[],"stateMutability":"nonpayable"},{"type":"function","name":"getOperatorRestakedStrategies","inputs":[{"name":"operator","type":"address","internalType":"address"}],"outputs":[{"name":"","type":"address[]","internalType":"address[]"}],"stateMutability":"view"},{"type":"function","name":"getRestakeableStrategies","inputs":[],"outputs":[{"name":"","type":"address[]","internalType":"address[]"}],"stateMutability":"view"},{"type":"function","name":"initialize","inputs":[{"name":"_initialOwner","type":"address","internalType":"address"},{"name":"_rewardsInitiator","type":"address","internalType":"address"}],"outputs":[],"stateMutability":"nonpayable"},{"type":"function","name":"owner","inputs":[],"outputs":[{"name":"","type":"address","internalType":"address"}],"stateMutability":"view"},{"type":"function","name":"registerOperatorToAVS","inputs":[{"name":"operator","type":"address","internalType":"address"},{"name":"operatorSignature","type":"tuple","internalType":"struct ISignatureUtils.SignatureWithSaltAndExpiry","components":[{"name":"signature","type":"bytes","internalType":"bytes"},{"name":"salt","type":"bytes32","internalType":"bytes32"},{"name":"expiry","type":"uint256","internalType":"uint256"}]}],"outputs":[],"stateMutability":"nonpayable"},{"type":"function","name":"registryCoordinator","inputs":[],"outputs":[{"name":"","type":"address","internalType":"contract IRegistryCoordinator"}],"stateMutability":"view"},{"type":"function","name":"renounceOwnership","inputs":[],"outputs":[],"stateMutability":"nonpayable"},{"type":"function","name":"respondToTask","inputs":[{"name":"batchMerkleRoot","type":"bytes32","internalType":"bytes32"},{"name":"senderAddress","type":"address","internalType":"address"},{"name":"nonSignerStakesAndSignature","type":"tuple","internalType":"struct IBLSSignatureChecker.NonSignerStakesAndSignature","components":[{"name":"nonSignerQuorumBitmapIndices","type":"uint32[]","internalType":"uint32[]"},{"name":"nonSignerPubkeys","type":"tuple[]","internalType":"struct BN254.G1Point[]","components":[{"name":"X","type":"uint256","internalType":"uint256"},{"name":"Y","type":"uint256","internalType":"uint256"}]},{"name":"quorumApks","type":"tuple[]","internalType":"struct BN254.G1Point[]","components":[{"name":"X","type":"uint256","internalType":"uint256"},{"name":"Y","type":"uint256","internalType":"uint256"}]},{"name":"apkG2","type":"tuple","internalType":"struct BN254.G2Point","components":[{"name":"X","type":"uint256[2]","internalType":"uint256[2]"},{"name":"Y","type":"uint256[2]","internalType":"uint256[2]"}]},{"name":"sigma","type":"tuple","internalType":"struct BN254.G1Point","components":[{"name":"X","type":"uint256","internalType":"uint256"},{"name":"Y","type":"uint256","internalType":"uint256"}]},{"name":"quorumApkIndices","type":"uint32[]","internalType":"uint32[]"},{"name":"totalStakeIndices","type":"uint32[]","internalType":"uint32[]"},{"name":"nonSignerStakeIndices","type":"uint32[][]","internalType":"uint32[][]"}]}],"outputs":[],"stateMutability":"nonpayable"},{"type":"function","name":"rewardsInitiator","inputs":[],"outputs":[{"name":"","type":"address","internalType":"address"}],"stateMutability":"view"},{"type":"function","name":"setRewardsInitiator","inputs":[{"name":"newRewardsInitiator","type":"address","internalType":"address"}],"outputs":[],"stateMutability":"nonpayable"},{"type":"function","name":"setStaleStakesForbidden","inputs":[{"name":"value","type":"bool","internalType":"bool"}],"outputs":[],"stateMutability":"nonpayable"},{"type":"function","name":"stakeRegistry","inputs":[],"outputs":[{"name":"","type":"address","internalType":"contract IStakeRegistry"}],"stateMutability":"view"},{"type":"function","name":"staleStakesForbidden","inputs":[],"outputs":[{"name":"","type":"bool","internalType":"bool"}],"stateMutability":"view"},{"type":"function","name":"transferOwnership","inputs":[{"name":"newOwner","type":"address","internalType":"address"}],"outputs":[],"stateMutability":"nonpayable"},{"type":"function","name":"trySignatureAndApkVerification","inputs":[{"name":"msgHash","type":"bytes32","internalType":"bytes32"},{"name":"apk","type":"tuple","internalType":"struct BN254.G1Point","components":[{"name":"X","type":"uint256","internalType":"uint256"},{"name":"Y","type":"uint256","internalType":"uint256"}]},{"name":"apkG2","type":"tuple","internalType":"struct BN254.G2Point","components":[{"name":"X","type":"uint256[2]","internalType":"uint256[2]"},{"name":"Y","type":"uint256[2]","internalType":"uint256[2]"}]},{"name":"sigma","type":"tuple","internalType":"struct BN254.G1Point","components":[{"name":"X","type":"uint256","internalType":"uint256"},{"name":"Y","type":"uint256","internalType":"uint256"}]}],"outputs":[{"name":"pairingSuccessful","type":"bool","internalType":"bool"},{"name":"siganatureIsValid","type":"bool","internalType":"bool"}],"stateMutability":"view"},{"type":"function","name":"updateAVSMetadataURI","inputs":[{"name":"_metadataURI","type":"string","internalType":"string"}],"outputs":[],"stateMutability":"nonpayable"},{"type":"function","name":"verifyBatchInclusion","inputs":[{"name":"proofCommitment","type":"bytes32","internalType":"bytes32"},{"name":"pubInputCommitment","type":"bytes32","internalType":"bytes32"},{"name":"provingSystemAuxDataCommitment","type":"bytes32","internalType":"bytes32"},{"name":"proofGeneratorAddr","type":"bytes20","internalType":"bytes20"},{"name":"batchMerkleRoot","type":"bytes32","internalType":"bytes32"},{"name":"merkleProof","type":"bytes","internalType":"bytes"},{"name":"verificationDataBatchIndex","type":"uint256","internalType":"uint256"},{"name":"senderAddress","type":"address","internalType":"address"}],"outputs":[{"name":"","type":"bool","internalType":"bool"}],"stateMutability":"view"},{"type":"function","name":"withdraw","inputs":[{"name":"amount","type":"uint256","internalType":"uint256"}],"outputs":[],"stateMutability":"nonpayable"},{"type":"event","name":"BatchVerified","inputs":[{"name":"batchMerkleRoot","type":"bytes32","indexed":true,"internalType":"bytes32"},{"name":"senderAddress","type":"address","indexed":false,"internalType":"address"}],"anonymous":false},{"type":"event","name":"BatcherBalanceUpdated","inputs":[{"name":"batcher","type":"address","indexed":true,"internalType":"address"},{"name":"newBalance","type":"uint256","indexed":false,"internalType":"uint256"}],"anonymous":false},{"type":"event","name":"Initialized","inputs":[{"name":"version","type":"uint8","indexed":false,"internalType":"uint8"}],"anonymous":false},{"type":"event","name":"NewBatch","inputs":[{"name":"batchMerkleRoot","type":"bytes32","indexed":true,"internalType":"bytes32"},{"name":"senderAddress","type":"address","indexed":false,"internalType":"address"},{"name":"taskCreatedBlock","type":"uint32","indexed":false,"internalType":"uint32"},{"name":"batchDataPointer","type":"string","indexed":false,"internalType":"string"},{"name":"maxFeeToRespond","type":"uint256","indexed":false,"internalType":"uint256"}],"anonymous":false},{"type":"event","name":"OwnershipTransferred","inputs":[{"name":"previousOwner","type":"address","indexed":true,"internalType":"address"},{"name":"newOwner","type":"address","indexed":true,"internalType":"address"}],"anonymous":false},{"type":"event","name":"RewardsInitiatorUpdated","inputs":[{"name":"prevRewardsInitiator","type":"address","indexed":false,"internalType":"address"},{"name":"newRewardsInitiator","type":"address","indexed":false,"internalType":"address"}],"anonymous":false},{"type":"event","name":"StaleStakesForbiddenUpdate","inputs":[{"name":"value","type":"bool","indexed":false,"internalType":"bool"}],"anonymous":false},{"type":"error","name":"BatchAlreadyResponded","inputs":[{"name":"batchIdentifierHash","type":"bytes32","internalType":"bytes32"}]},{"type":"error","name":"BatchAlreadySubmitted","inputs":[{"name":"batchIdentifierHash","type":"bytes32","internalType":"bytes32"}]},{"type":"error","name":"BatchDoesNotExist","inputs":[{"name":"batchIdentifierHash","type":"bytes32","internalType":"bytes32"}]},{"type":"error","name":"InsufficientFunds","inputs":[{"name":"batcher","type":"address","internalType":"address"},{"name":"required","type":"uint256","internalType":"uint256"},{"name":"available","type":"uint256","internalType":"uint256"}]},{"type":"error","name":"InvalidDepositAmount","inputs":[{"name":"amount","type":"uint256","internalType":"uint256"}]},{"type":"error","name":"InvalidQuorumThreshold","inputs":[{"name":"signedStake","type":"uint256","internalType":"uint256"},{"name":"requiredStake","type":"uint256","internalType":"uint256"}]}],"bytecode":{"object":"0x6101806040523480156200001257600080fd5b506040516200534a3803806200534a8339810160408190526200003591620002e5565b6001600160a01b0380851660805280841660a05280831660c052811660e0528184848284620000636200020a565b50505050806001600160a01b0316610100816001600160a01b031681525050806001600160a01b031663683048356040518163ffffffff1660e01b8152600401602060405180830381865afa158015620000c1573d6000803e3d6000fd5b505050506040513d601f19601f82011682018060405250810190620000e791906200034d565b6001600160a01b0316610120816001600160a01b031681525050806001600160a01b0316635df459466040518163ffffffff1660e01b8152600401602060405180830381865afa15801562000140573d6000803e3d6000fd5b505050506040513d601f19601f820116820180604052508101906200016691906200034d565b6001600160a01b0316610140816001600160a01b031681525050610120516001600160a01b031663df5cf7236040518163ffffffff1660e01b8152600401602060405180830381865afa158015620001c2573d6000803e3d6000fd5b505050506040513d601f19601f82011682018060405250810190620001e891906200034d565b6001600160a01b03166101605250620002006200020a565b5050505062000374565b600054610100900460ff1615620002775760405162461bcd60e51b815260206004820152602760248201527f496e697469616c697a61626c653a20636f6e747261637420697320696e697469604482015266616c697a696e6760c81b606482015260840160405180910390fd5b60005460ff9081161015620002ca576000805460ff191660ff9081179091556040519081527f7f26b83ff96e1f2b6a682f133852f6798a09c465da95921460cefb38474024989060200160405180910390a15b565b6001600160a01b0381168114620002e257600080fd5b50565b60008060008060808587031215620002fc57600080fd5b84516200030981620002cc565b60208601519094506200031c81620002cc565b60408601519093506200032f81620002cc565b60608601519092506200034281620002cc565b939692955090935050565b6000602082840312156200036057600080fd5b81516200036d81620002cc565b9392505050565b60805160a05160c05160e05161010051610120516101405161016051614ec86200048260003960008181610623015261187a01526000818161035e0152611a8d0152600081816103aa01528181611c7a0152611e6a01526000818161041101528181610f8d01528181611536015281816116dd015261192e015260008181610ca201528181610dfd01528181610e94015281816128a401528181612a270152612ac6015260008181610ac901528181610b5801528181610bd80152818161217801528181612244015281816127e20152612982015260008181612e3e01528181612efa0152612fe60152600081816103db015281816121cc015281816122a0015261262e0152614ec86000f3fe6080604052600436106101dc5760003560e01c80638da5cb5b11610102578063b98d090811610095578063e85c7e7911610064578063e85c7e791461065a578063f2fde38b1461067a578063fc299dee1461069a578063fce36c7d146106ba57600080fd5b8063b98d0908146105e4578063d66eaabd146105fe578063df5cf72314610611578063e481af9d1461064557600080fd5b8063a5a3fab1116100d1578063a5a3fab11461050a578063a98fb3551461052a578063aa87240c1461054a578063b099627e1461057a57600080fd5b80638da5cb5b1461048c57806395c6d604146104aa5780639926ee7d146104ca578063a364f4da146104ea57600080fd5b8063485cc9551161017a5780636b3aa72e116101495780636b3aa72e146103cc5780636d14a987146103ff57806370a0823114610433578063715018a61461047757600080fd5b8063485cc955146102fe5780634ae07c371461031e5780635df459461461034c578063683048351461039857600080fd5b806333cfb7b7116101b657806333cfb7b71461027e5780633bc28c8c146102ab578063416c7e5e146102cb5780634223d551146102eb57600080fd5b806306045a91146101f2578063171f1d5b146102275780632e1a7d4d1461025e57600080fd5b366101ed576101eb33346106da565b005b600080fd5b3480156101fe57600080fd5b5061021261020d366004613f52565b61076f565b60405190151581526020015b60405180910390f35b34801561023357600080fd5b506102476102423660046140b3565b61084f565b60408051921515835290151560208301520161021e565b34801561026a57600080fd5b506101eb610279366004614104565b6109d9565b34801561028a57600080fd5b5061029e61029936600461411d565b610aa4565b60405161021e919061413a565b3480156102b757600080fd5b506101eb6102c636600461411d565b610f77565b3480156102d757600080fd5b506101eb6102e6366004614195565b610f8b565b6101eb6102f936600461411d565b6110c2565b34801561030a57600080fd5b506101eb6103193660046141b2565b6110cc565b34801561032a57600080fd5b5061033e6103393660046144a1565b6111e1565b60405161021e92919061453b565b34801561035857600080fd5b506103807f000000000000000000000000000000000000000000000000000000000000000081565b6040516001600160a01b03909116815260200161021e565b3480156103a457600080fd5b506103807f000000000000000000000000000000000000000000000000000000000000000081565b3480156103d857600080fd5b507f0000000000000000000000000000000000000000000000000000000000000000610380565b34801561040b57600080fd5b506103807f000000000000000000000000000000000000000000000000000000000000000081565b34801561043f57600080fd5b5061046961044e36600461411d565b6001600160a01b0316600090815260ca602052604090205490565b60405190815260200161021e565b34801561048357600080fd5b506101eb612134565b34801561049857600080fd5b506033546001600160a01b0316610380565b3480156104b657600080fd5b506102126104c53660046145cc565b612148565b3480156104d657600080fd5b506101eb6104e5366004614617565b61216d565b3480156104f657600080fd5b506101eb61050536600461411d565b612239565b34801561051657600080fd5b506101eb6105253660046146c2565b612300565b34801561053657600080fd5b506101eb6105453660046146e9565b61260f565b34801561055657600080fd5b50610469610565366004614104565b600090815260c9602052604090206001015490565b34801561058657600080fd5b506105c2610595366004614104565b60c9602052600090815260409020805460019091015463ffffffff821691640100000000900460ff169083565b6040805163ffffffff909416845291151560208401529082015260600161021e565b3480156105f057600080fd5b506097546102129060ff1681565b6101eb61060c366004614739565b612663565b34801561061d57600080fd5b506103807f000000000000000000000000000000000000000000000000000000000000000081565b34801561065157600080fd5b5061029e6127dc565b34801561066657600080fd5b5061046961067536600461478b565b612ba5565b34801561068657600080fd5b506101eb61069536600461411d565b612bef565b3480156106a657600080fd5b50606554610380906001600160a01b031681565b3480156106c657600080fd5b506101eb6106d53660046147b0565b612c65565b6000811161070357604051632097692160e11b8152600481018290526024015b60405180910390fd5b6001600160a01b038216600090815260ca60205260408120805483929061072b90849061483a565b90915550506001600160a01b038216600081815260ca6020908152604091829020549151918252600080516020614e53833981519152910160405180910390a25050565b6000808583604051602001610785929190614852565b60408051601f198184030181529181528151602092830120600081815260c990935291205490915063ffffffff166107c1576000915050610843565b600081815260c96020526040902054640100000000900460ff166107e9576000915050610843565b60408051602081018c90529081018a9052606081018990526001600160601b03198816608082015260009060940160408051601f198184030181529190528051602082012090915061083d8784838961301d565b93505050505b98975050505050505050565b60008060007f30644e72e131a029b85045b68181585d2833e84879b9709143e1f593f0000001878760000151886020015188600001516000600281106108975761089761486d565b60200201518951600160200201518a602001516000600281106108bc576108bc61486d565b60200201518b602001516001600281106108d8576108d861486d565b602090810291909101518c518d8301516040516109359a99989796959401988952602089019790975260408801959095526060870193909352608086019190915260a085015260c084015260e08301526101008201526101200190565b6040516020818303038152906040528051906020012060001c6109589190614883565b90506109cb61097161096a8884613035565b86906130cc565b610979613160565b6109c16109b2856109ac604080518082018252600080825260209182015281518083019092526001825260029082015290565b90613035565b6109bb8c613220565b906130cc565b886201d4c06132b0565b909890975095505050505050565b33600090815260ca6020526040902054811115610a1d5733600081815260ca602052604090819020549051632e2a182f60e11b81526106fa929184916004016148a5565b33600090815260ca602052604081208054839290610a3c9084906148c6565b909155505033600081815260ca6020908152604091829020549151918252600080516020614e53833981519152910160405180910390a2604051339082156108fc029083906000818181858888f19350505050158015610aa0573d6000803e3d6000fd5b5050565b6040516309aa152760e11b81526001600160a01b0382811660048301526060916000917f000000000000000000000000000000000000000000000000000000000000000016906313542a4e90602401602060405180830381865afa158015610b10573d6000803e3d6000fd5b505050506040513d601f19601f82011682018060405250810190610b3491906148dd565b60405163871ef04960e01b8152600481018290529091506000906001600160a01b037f0000000000000000000000000000000000000000000000000000000000000000169063871ef04990602401602060405180830381865afa158015610b9f573d6000803e3d6000fd5b505050506040513d601f19601f82011682018060405250810190610bc391906148f6565b90506001600160c01b0381161580610c5d57507f00000000000000000000000000000000000000000000000000000000000000006001600160a01b0316639aa1653d6040518163ffffffff1660e01b8152600401602060405180830381865afa158015610c34573d6000803e3d6000fd5b505050506040513d601f19601f82011682018060405250810190610c58919061491f565b60ff16155b15610c7d5760408051600080825260208201909252905b50949350505050565b6000610c91826001600160c01b03166134d4565b90506000805b8251811015610d67577f00000000000000000000000000000000000000000000000000000000000000006001600160a01b0316633ca5a5f5848381518110610ce157610ce161486d565b01602001516040516001600160e01b031960e084901b16815260f89190911c6004820152602401602060405180830381865afa158015610d25573d6000803e3d6000fd5b505050506040513d601f19601f82011682018060405250810190610d4991906148dd565b610d53908361483a565b915080610d5f81614942565b915050610c97565b506000816001600160401b03811115610d8257610d82613e35565b604051908082528060200260200182016040528015610dab578160200160208202803683370190505b5090506000805b8451811015610f6a576000858281518110610dcf57610dcf61486d565b0160200151604051633ca5a5f560e01b815260f89190911c6004820181905291506000906001600160a01b037f00000000000000000000000000000000000000000000000000000000000000001690633ca5a5f590602401602060405180830381865afa158015610e44573d6000803e3d6000fd5b505050506040513d601f19601f82011682018060405250810190610e6891906148dd565b905060005b81811015610f54576040516356e4026d60e11b815260ff84166004820152602481018290527f00000000000000000000000000000000000000000000000000000000000000006001600160a01b03169063adc804da906044016040805180830381865afa158015610ee2573d6000803e3d6000fd5b505050506040513d601f19601f82011682018060405250810190610f069190614972565b60000151868681518110610f1c57610f1c61486d565b6001600160a01b039092166020928302919091019091015284610f3e81614942565b9550508080610f4c90614942565b915050610e6d565b5050508080610f6290614942565b915050610db2565b5090979650505050505050565b610f7f613596565b610f88816135f0565b50565b7f00000000000000000000000000000000000000000000000000000000000000006001600160a01b0316638da5cb5b6040518163ffffffff1660e01b8152600401602060405180830381865afa158015610fe9573d6000803e3d6000fd5b505050506040513d601f19601f8201168201806040525081019061100d91906149b3565b6001600160a01b0316336001600160a01b0316146110b95760405162461bcd60e51b815260206004820152605c60248201527f424c535369676e6174757265436865636b65722e6f6e6c79436f6f7264696e6160448201527f746f724f776e65723a2063616c6c6572206973206e6f7420746865206f776e6560648201527f72206f6620746865207265676973747279436f6f7264696e61746f7200000000608482015260a4016106fa565b610f8881613659565b610f8881346106da565b600054610100900460ff16158080156110ec5750600054600160ff909116105b806111065750303b158015611106575060005460ff166001145b6111695760405162461bcd60e51b815260206004820152602e60248201527f496e697469616c697a61626c653a20636f6e747261637420697320616c72656160448201526d191e481a5b9a5d1a585b1a5e995960921b60648201526084016106fa565b6000805460ff19166001179055801561118c576000805461ff0019166101001790555b61119683836136a0565b80156111dc576000805461ff0019169055604051600181527f7f26b83ff96e1f2b6a682f133852f6798a09c465da95921460cefb38474024989060200160405180910390a15b505050565b6040805180820190915260608082526020820152600082604001515160405180604001604052806001815260200160008152505114801561123d57508260a0015151604051806040016040528060018152602001600081525051145b801561126457508260c0015151604051806040016040528060018152602001600081525051145b801561128b57508260e0015151604051806040016040528060018152602001600081525051145b6112f55760405162461bcd60e51b81526020600482015260416024820152600080516020614e7383398151915260448201527f7265733a20696e7075742071756f72756d206c656e677468206d69736d6174636064820152600d60fb1b608482015260a4016106fa565b8251516020840151511461136d5760405162461bcd60e51b815260206004820152604460248201819052600080516020614e73833981519152908201527f7265733a20696e707574206e6f6e7369676e6572206c656e677468206d69736d6064820152630c2e8c6d60e31b608482015260a4016106fa565b4363ffffffff168463ffffffff16106113dc5760405162461bcd60e51b815260206004820152603c6024820152600080516020614e7383398151915260448201527f7265733a20696e76616c6964207265666572656e636520626c6f636b0000000060648201526084016106fa565b60408051808201825260008082526020808301829052835180850185526060808252818301528451808601865260018082529083019390935284518381528086019095529293919082810190803683370190505060208281019190915260408051808201825260018082526000919093015280518281528082019091529081602001602082028036833701905050815260408051808201909152606080825260208201528560200151516001600160401b0381111561149d5761149d613e35565b6040519080825280602002602001820160405280156114c6578160200160208202803683370190505b5081526020860151516001600160401b038111156114e6576114e6613e35565b60405190808252806020026020018201604052801561150f578160200160208202803683370190505b50816020018190525060006115bb60405180604001604052806001815260200160008152507f00000000000000000000000000000000000000000000000000000000000000006001600160a01b0316639aa1653d6040518163ffffffff1660e01b8152600401602060405180830381865afa158015611592573d6000803e3d6000fd5b505050506040513d601f19601f820116820180604052508101906115b6919061491f565b61371d565b905060005b87602001515181101561185657611605886020015182815181106115e6576115e661486d565b6020026020010151805160009081526020918201519091526040902090565b8360200151828151811061161b5761161b61486d565b602090810291909101015280156116db57602083015161163c6001836148c6565b8151811061164c5761164c61486d565b602002602001015160001c8360200151828151811061166d5761166d61486d565b602002602001015160001c116116db576040805162461bcd60e51b8152602060048201526024810191909152600080516020614e7383398151915260448201527f7265733a206e6f6e5369676e65725075626b657973206e6f7420736f7274656460648201526084016106fa565b7f00000000000000000000000000000000000000000000000000000000000000006001600160a01b03166304ec6351846020015183815181106117205761172061486d565b60200260200101518b8b60000151858151811061173f5761173f61486d565b60200260200101516040518463ffffffff1660e01b815260040161177c9392919092835263ffffffff918216602084015216604082015260600190565b602060405180830381865afa158015611799573d6000803e3d6000fd5b505050506040513d601f19601f820116820180604052508101906117bd91906148f6565b6001600160c01b0316836000015182815181106117dc576117dc61486d565b60200260200101818152505061184261096a61181684866000015185815181106118085761180861486d565b6020026020010151166137ae565b8a60200151848151811061182c5761182c61486d565b60200260200101516137d990919063ffffffff16565b94508061184e81614942565b9150506115c0565b5050611861836138bd565b60975490935060ff166000816118785760006118fa565b7f00000000000000000000000000000000000000000000000000000000000000006001600160a01b031663c448feb86040518163ffffffff1660e01b8152600401602060405180830381865afa1580156118d6573d6000803e3d6000fd5b505050506040513d601f19601f820116820180604052508101906118fa91906148dd565b905060005b604051806040016040528060018152602001600081525051811015612005578215611a8b578963ffffffff16827f00000000000000000000000000000000000000000000000000000000000000006001600160a01b031663249a0c42604051806040016040528060018152602001600081525085815181106119835761198361486d565b01602001516040516001600160e01b031960e084901b16815260f89190911c6004820152602401602060405180830381865afa1580156119c7573d6000803e3d6000fd5b505050506040513d601f19601f820116820180604052508101906119eb91906148dd565b6119f5919061483a565b11611a8b5760405162461bcd60e51b81526020600482015260666024820152600080516020614e7383398151915260448201527f7265733a205374616b6552656769737472792075706461746573206d7573742060648201527f62652077697468696e207769746864726177616c44656c6179426c6f636b732060848201526577696e646f7760d01b60a482015260c4016106fa565b7f00000000000000000000000000000000000000000000000000000000000000006001600160a01b03166368bccaac60405180604001604052806001815260200160008152508381518110611ae257611ae261486d565b602001015160f81c60f81b60f81c8c8c60a001518581518110611b0757611b0761486d565b60209081029190910101516040516001600160e01b031960e086901b16815260ff909316600484015263ffffffff9182166024840152166044820152606401602060405180830381865afa158015611b63573d6000803e3d6000fd5b505050506040513d601f19601f82011682018060405250810190611b8791906149d0565b6001600160401b031916611baa8a6040015183815181106115e6576115e661486d565b67ffffffffffffffff191614611c465760405162461bcd60e51b81526020600482015260616024820152600080516020614e7383398151915260448201527f7265733a2071756f72756d41706b206861736820696e2073746f72616765206460648201527f6f6573206e6f74206d617463682070726f76696465642071756f72756d2061706084820152606b60f81b60a482015260c4016106fa565b611c7689604001518281518110611c5f57611c5f61486d565b6020026020010151876130cc90919063ffffffff16565b95507f00000000000000000000000000000000000000000000000000000000000000006001600160a01b031663c8294c5660405180604001604052806001815260200160008152508381518110611ccf57611ccf61486d565b602001015160f81c60f81b60f81c8c8c60c001518581518110611cf457611cf461486d565b60209081029190910101516040516001600160e01b031960e086901b16815260ff909316600484015263ffffffff9182166024840152166044820152606401602060405180830381865afa158015611d50573d6000803e3d6000fd5b505050506040513d601f19601f82011682018060405250810190611d7491906149fb565b85602001518281518110611d8a57611d8a61486d565b6001600160601b03909216602092830291909101820152850151805182908110611db657611db661486d565b602002602001015185600001518281518110611dd457611dd461486d565b60200260200101906001600160601b031690816001600160601b0316815250506000805b8a6020015151811015611ff057611e6386600001518281518110611e1e57611e1e61486d565b602002602001015160405180604001604052806001815260200160008152508581518110611e4e57611e4e61486d565b016020015160f81c60ff161c60019081161490565b15611fde577f00000000000000000000000000000000000000000000000000000000000000006001600160a01b031663f2be94ae60405180604001604052806001815260200160008152508581518110611ebf57611ebf61486d565b602001015160f81c60f81b60f81c8e89602001518581518110611ee457611ee461486d565b60200260200101518f60e001518881518110611f0257611f0261486d565b60200260200101518781518110611f1b57611f1b61486d565b60209081029190910101516040516001600160e01b031960e087901b16815260ff909416600485015263ffffffff92831660248501526044840191909152166064820152608401602060405180830381865afa158015611f7f573d6000803e3d6000fd5b505050506040513d601f19601f82011682018060405250810190611fa391906149fb565b8751805185908110611fb757611fb761486d565b60200260200101818151611fcb9190614a18565b6001600160601b03169052506001909101905b80611fe881614942565b915050611df8565b50508080611ffd90614942565b9150506118ff565b50505060008061201f8a868a606001518b6080015161084f565b91509150816120905760405162461bcd60e51b81526020600482015260436024820152600080516020614e7383398151915260448201527f7265733a2070616972696e6720707265636f6d70696c652063616c6c206661696064820152621b195960ea1b608482015260a4016106fa565b806120f15760405162461bcd60e51b81526020600482015260396024820152600080516020614e7383398151915260448201527f7265733a207369676e617475726520697320696e76616c69640000000000000060648201526084016106fa565b5050600087826020015160405160200161210c929190614a40565b60408051808303601f1901815291905280516020909101209299929850919650505050505050565b61213c613596565b6121466000613958565b565b600081848460405161215b929190614a88565b60405180910390201490509392505050565b336001600160a01b037f000000000000000000000000000000000000000000000000000000000000000016146121b55760405162461bcd60e51b81526004016106fa90614a98565b604051639926ee7d60e01b81526001600160a01b037f00000000000000000000000000000000000000000000000000000000000000001690639926ee7d906122039085908590600401614b5d565b600060405180830381600087803b15801561221d57600080fd5b505af1158015612231573d6000803e3d6000fd5b505050505050565b336001600160a01b037f000000000000000000000000000000000000000000000000000000000000000016146122815760405162461bcd60e51b81526004016106fa90614a98565b6040516351b27a6d60e11b81526001600160a01b0382811660048301527f0000000000000000000000000000000000000000000000000000000000000000169063a364f4da906024015b600060405180830381600087803b1580156122e557600080fd5b505af11580156122f9573d6000803e3d6000fd5b5050505050565b60005a90506000848460405160200161231a929190614852565b60408051601f198184030181529181528151602092830120600081815260c984528281206001600160a01b038916825260ca909452919091205482549193509063ffffffff16612380576040516311cb69a760e11b8152600481018490526024016106fa565b8154640100000000900460ff16156123ae57604051634e78d7f960e11b8152600481018490526024016106fa565b815464ff000000001916640100000000178255600182015481116123ee576001820154604051632e2a182f60e11b81526106fa91889184906004016148a5565b815460009061240590859063ffffffff16886111e1565b509050604360ff1681602001516000815181106124245761242461486d565b60200260200101516124369190614ba8565b6001600160601b0316606482600001516000815181106124585761245861486d565b60200260200101516001600160601b03166124739190614bd7565b101561250657606481600001516000815181106124925761249261486d565b60200260200101516001600160601b03166124ad9190614bd7565b604360ff1682602001516000815181106124c9576124c961486d565b60200260200101516124db9190614ba8565b60405163530f5c4560e11b815260048101929092526001600160601b031660248201526044016106fa565b6040516001600160a01b038816815288907f8511746b73275e06971968773119b9601fc501d7bdf3824d8754042d148940e29060200160405180910390a260003a5a61255290886148c6565b61255f906201117061483a565b6125699190614bd7565b90508360010154811115612599576001840154604051632e2a182f60e11b81526106fa918a9184906004016148a5565b6125a381846148c6565b9250876001600160a01b0316600080516020614e53833981519152846040516125ce91815260200190565b60405180910390a2604051339082156108fc029083906000818181858888f19350505050158015612603573d6000803e3d6000fd5b50505050505050505050565b612617613596565b60405163a98fb35560e01b81526001600160a01b037f0000000000000000000000000000000000000000000000000000000000000000169063a98fb355906122cb908490600401614bf6565b60008433604051602001612678929190614852565b60408051601f19818403018152918152815160209283012033600090815260ca84528281205482825260c9909452919091205490925063ffffffff16156126d557604051630c40bc4360e21b8152600481018390526024016106fa565b341561270c576126e5348261483a565b6040518181529091503390600080516020614e538339815191529060200160405180910390a25b8281101561273357338382604051632e2a182f60e11b81526004016106fa939291906148a5565b604080516060810182526000602080830182815263ffffffff4381811686528587018a815289865260c99094529386902085518154935115156401000000000264ffffffffff1990941692169190911791909117815590516001909101559151909188917fc70047519419ed216ffe8f00f291d47420c75a4c30776a9e012e3f9231b89264916127cb913391908b908b908b90614c09565b60405180910390a250505050505050565b606060007f00000000000000000000000000000000000000000000000000000000000000006001600160a01b0316639aa1653d6040518163ffffffff1660e01b8152600401602060405180830381865afa15801561283e573d6000803e3d6000fd5b505050506040513d601f19601f82011682018060405250810190612862919061491f565b60ff1690508061288057505060408051600081526020810190915290565b6000805b8281101561293557604051633ca5a5f560e01b815260ff821660048201527f00000000000000000000000000000000000000000000000000000000000000006001600160a01b031690633ca5a5f590602401602060405180830381865afa1580156128f3573d6000803e3d6000fd5b505050506040513d601f19601f8201168201806040525081019061291791906148dd565b612921908361483a565b91508061292d81614942565b915050612884565b506000816001600160401b0381111561295057612950613e35565b604051908082528060200260200182016040528015612979578160200160208202803683370190505b5090506000805b7f00000000000000000000000000000000000000000000000000000000000000006001600160a01b0316639aa1653d6040518163ffffffff1660e01b8152600401602060405180830381865afa1580156129de573d6000803e3d6000fd5b505050506040513d601f19601f82011682018060405250810190612a02919061491f565b60ff16811015612b9b57604051633ca5a5f560e01b815260ff821660048201526000907f00000000000000000000000000000000000000000000000000000000000000006001600160a01b031690633ca5a5f590602401602060405180830381865afa158015612a76573d6000803e3d6000fd5b505050506040513d601f19601f82011682018060405250810190612a9a91906148dd565b905060005b81811015612b86576040516356e4026d60e11b815260ff84166004820152602481018290527f00000000000000000000000000000000000000000000000000000000000000006001600160a01b03169063adc804da906044016040805180830381865afa158015612b14573d6000803e3d6000fd5b505050506040513d601f19601f82011682018060405250810190612b389190614972565b60000151858581518110612b4e57612b4e61486d565b6001600160a01b039092166020928302919091019091015283612b7081614942565b9450508080612b7e90614942565b915050612a9f565b50508080612b9390614942565b915050612980565b5090949350505050565b600060c960008484604051602001612bbe929190614852565b6040516020818303038152906040528051906020012081526020019081526020016000206001015490505b92915050565b612bf7613596565b6001600160a01b038116612c5c5760405162461bcd60e51b815260206004820152602660248201527f4f776e61626c653a206e6577206f776e657220697320746865207a65726f206160448201526564647265737360d01b60648201526084016106fa565b610f8881613958565b6065546001600160a01b03163314612cfa5760405162461bcd60e51b815260206004820152604c60248201527f536572766963654d616e61676572426173652e6f6e6c7952657761726473496e60448201527f69746961746f723a2063616c6c6572206973206e6f742074686520726577617260648201526b32399034b734ba34b0ba37b960a11b608482015260a4016106fa565b60005b81811015612fce57828282818110612d1757612d1761486d565b9050602002810190612d299190614c60565b612d3a90604081019060200161411d565b6001600160a01b03166323b872dd3330868686818110612d5c57612d5c61486d565b9050602002810190612d6e9190614c60565b604080516001600160e01b031960e087901b1681526001600160a01b039485166004820152939092166024840152013560448201526064016020604051808303816000875af1158015612dc5573d6000803e3d6000fd5b505050506040513d601f19601f82011682018060405250810190612de99190614c8b565b506000838383818110612dfe57612dfe61486d565b9050602002810190612e109190614c60565b612e2190604081019060200161411d565b604051636eb1769f60e11b81523060048201526001600160a01b037f000000000000000000000000000000000000000000000000000000000000000081166024830152919091169063dd62ed3e90604401602060405180830381865afa158015612e8f573d6000803e3d6000fd5b505050506040513d601f19601f82011682018060405250810190612eb391906148dd565b9050838383818110612ec757612ec761486d565b9050602002810190612ed99190614c60565b612eea90604081019060200161411d565b6001600160a01b031663095ea7b37f000000000000000000000000000000000000000000000000000000000000000083878787818110612f2c57612f2c61486d565b9050602002810190612f3e9190614c60565b60400135612f4c919061483a565b6040516001600160e01b031960e085901b1681526001600160a01b03909216600483015260248201526044016020604051808303816000875af1158015612f97573d6000803e3d6000fd5b505050506040513d601f19601f82011682018060405250810190612fbb9190614c8b565b505080612fc790614942565b9050612cfd565b5060405163fce36c7d60e01b81526001600160a01b037f0000000000000000000000000000000000000000000000000000000000000000169063fce36c7d906122039085908590600401614d03565b60008361302b8685856139aa565b1495945050505050565b6040805180820190915260008082526020820152613051613d5b565b835181526020808501519082015260408082018490526000908360608460076107d05a03fa905080801561308457613086565bfe5b50806130c45760405162461bcd60e51b815260206004820152600d60248201526c1958cb5b5d5b0b59985a5b1959609a1b60448201526064016106fa565b505092915050565b60408051808201909152600080825260208201526130e8613d79565b835181526020808501518183015283516040808401919091529084015160608301526000908360808460066107d05a03fa90508080156130845750806130c45760405162461bcd60e51b815260206004820152600d60248201526c1958cb5859190b59985a5b1959609a1b60448201526064016106fa565b613168613d97565b50604080516080810182527f198e9393920d483a7260bfb731fb5d25f1aa493335a9e71297e485b7aef312c28183019081527f1800deef121f1e76426a00665e5c4479674322d4f75edadd46debd5cd992f6ed6060830152815281518083019092527f275dc4a288d1afb3cbb1ac09187524c7db36395df7be3b99e673b13a075a65ec82527f1d9befcd05a5323e6da4d435f3b617cdb3af83285c2df711ef39c01571827f9d60208381019190915281019190915290565b604080518082019091526000808252602082015260008080613250600080516020614e3383398151915286614883565b90505b61325c81613aa4565b9093509150600080516020614e33833981519152828309831415613296576040805180820190915290815260208101919091529392505050565b600080516020614e33833981519152600182089050613253565b6040805180820182528681526020808201869052825180840190935286835282018490526000918291906132e2613dbc565b60005b60028110156134a75760006132fb826006614bd7565b905084826002811061330f5761330f61486d565b6020020151518361332183600061483a565b600c81106133315761333161486d565b60200201528482600281106133485761334861486d565b6020020151602001518382600161335f919061483a565b600c811061336f5761336f61486d565b60200201528382600281106133865761338661486d565b602002015151518361339983600261483a565b600c81106133a9576133a961486d565b60200201528382600281106133c0576133c061486d565b60200201515160016020020151836133d983600361483a565b600c81106133e9576133e961486d565b60200201528382600281106134005761340061486d565b60200201516020015160006002811061341b5761341b61486d565b60200201518361342c83600461483a565b600c811061343c5761343c61486d565b60200201528382600281106134535761345361486d565b60200201516020015160016002811061346e5761346e61486d565b60200201518361347f83600561483a565b600c811061348f5761348f61486d565b6020020152508061349f81614942565b9150506132e5565b506134b0613ddb565b60006020826101808560088cfa9151919c9115159b50909950505050505050505050565b60606000806134e2846137ae565b61ffff166001600160401b038111156134fd576134fd613e35565b6040519080825280601f01601f191660200182016040528015613527576020820181803683370190505b5090506000805b82518210801561353f575061010081105b15612b9b576001811b935085841615613586578060f81b8383815181106135685761356861486d565b60200101906001600160f81b031916908160001a9053508160010191505b61358f81614942565b905061352e565b6033546001600160a01b031633146121465760405162461bcd60e51b815260206004820181905260248201527f4f776e61626c653a2063616c6c6572206973206e6f7420746865206f776e657260448201526064016106fa565b606554604080516001600160a01b03928316815291831660208301527fe11cddf1816a43318ca175bbc52cd0185436e9cbead7c83acc54a73e461717e3910160405180910390a1606580546001600160a01b0319166001600160a01b0392909216919091179055565b6097805460ff19168215159081179091556040519081527f40e4ed880a29e0f6ddce307457fb75cddf4feef7d3ecb0301bfdf4976a0e2dfc9060200160405180910390a150565b600054610100900460ff1661370b5760405162461bcd60e51b815260206004820152602b60248201527f496e697469616c697a61626c653a20636f6e7472616374206973206e6f74206960448201526a6e697469616c697a696e6760a81b60648201526084016106fa565b61371482613958565b610aa0816135f0565b60008061372984613b26565b9050808360ff166001901b116137a75760405162461bcd60e51b815260206004820152603f60248201527f4269746d61705574696c732e6f72646572656442797465734172726179546f4260448201527f69746d61703a206269746d61702065786365656473206d61782076616c75650060648201526084016106fa565b9392505050565b6000805b8215612be9576137c36001846148c6565b90921691806137d181614e10565b9150506137b2565b60408051808201909152600080825260208201526102008261ffff16106138355760405162461bcd60e51b815260206004820152601060248201526f7363616c61722d746f6f2d6c6172676560801b60448201526064016106fa565b8161ffff1660011415613849575081612be9565b6040805180820190915260008082526020820181905284906001905b8161ffff168661ffff16106138b257600161ffff871660ff83161c811614156138955761389284846130cc565b93505b61389f83846130cc565b92506201fffe600192831b169101613865565b509195945050505050565b604080518082019091526000808252602082015281511580156138e257506020820151155b15613900575050604080518082019091526000808252602082015290565b604051806040016040528083600001518152602001600080516020614e3383398151915284602001516139339190614883565b61394b90600080516020614e338339815191526148c6565b905292915050565b919050565b603380546001600160a01b038381166001600160a01b0319831681179093556040519116919082907f8be0079c531659141344cd1fd0a4f28419497f9722a3daafe3b4186f6b6457e090600090a35050565b6000602084516139ba9190614883565b15613a415760405162461bcd60e51b815260206004820152604b60248201527f4d65726b6c652e70726f63657373496e636c7573696f6e50726f6f664b65636360448201527f616b3a2070726f6f66206c656e6774682073686f756c642062652061206d756c60648201526a3a34b836329037b310199960a91b608482015260a4016106fa565b8260205b85518111610c7457613a58600285614883565b613a7957816000528086015160205260406000209150600284049350613a92565b8086015160005281602052604060002091506002840493505b613a9d60208261483a565b9050613a45565b60008080600080516020614e338339815191526003600080516020614e3383398151915286600080516020614e33833981519152888909090890506000613b1a827f0c19139cb84c680a6e14116da060561765e05aa45a1c72a34f082305b61f3f52600080516020614e33833981519152613cb3565b91959194509092505050565b600061010082511115613baf5760405162461bcd60e51b8152602060048201526044602482018190527f4269746d61705574696c732e6f72646572656442797465734172726179546f42908201527f69746d61703a206f7264657265644279746573417272617920697320746f6f206064820152636c6f6e6760e01b608482015260a4016106fa565b8151613bbd57506000919050565b60008083600081518110613bd357613bd361486d565b0160200151600160f89190911c81901b92505b8451811015613caa57848181518110613c0157613c0161486d565b0160200151600160f89190911c1b9150828211613c965760405162461bcd60e51b815260206004820152604760248201527f4269746d61705574696c732e6f72646572656442797465734172726179546f4260448201527f69746d61703a206f72646572656442797465734172726179206973206e6f74206064820152661bdc99195c995960ca1b608482015260a4016106fa565b91811791613ca381614942565b9050613be6565b50909392505050565b600080613cbe613ddb565b613cc6613df9565b602080825281810181905260408201819052606082018890526080820187905260a082018690528260c08360056107d05a03fa9250828015613084575082613d505760405162461bcd60e51b815260206004820152601a60248201527f424e3235342e6578704d6f643a2063616c6c206661696c75726500000000000060448201526064016106fa565b505195945050505050565b60405180606001604052806003906020820280368337509192915050565b60405180608001604052806004906020820280368337509192915050565b6040518060400160405280613daa613e17565b8152602001613db7613e17565b905290565b604051806101800160405280600c906020820280368337509192915050565b60405180602001604052806001906020820280368337509192915050565b6040518060c001604052806006906020820280368337509192915050565b60405180604001604052806002906020820280368337509192915050565b634e487b7160e01b600052604160045260246000fd5b604080519081016001600160401b0381118282101715613e6d57613e6d613e35565b60405290565b60405161010081016001600160401b0381118282101715613e6d57613e6d613e35565b604051601f8201601f191681016001600160401b0381118282101715613ebe57613ebe613e35565b604052919050565b60006001600160401b03831115613edf57613edf613e35565b613ef2601f8401601f1916602001613e96565b9050828152838383011115613f0657600080fd5b828260208301376000602084830101529392505050565b600082601f830112613f2e57600080fd5b6137a783833560208501613ec6565b6001600160a01b0381168114610f8857600080fd5b600080600080600080600080610100898b031215613f6f57600080fd5b88359750602089013596506040890135955060608901356001600160601b031981168114613f9c57600080fd5b94506080890135935060a08901356001600160401b03811115613fbe57600080fd5b613fca8b828c01613f1d565b93505060c0890135915060e0890135613fe281613f3d565b809150509295985092959890939650565b60006040828403121561400557600080fd5b61400d613e4b565b9050813581526020820135602082015292915050565b600082601f83011261403457600080fd5b61403c613e4b565b80604084018581111561404e57600080fd5b845b81811015614068578035845260209384019301614050565b509095945050505050565b60006080828403121561408557600080fd5b61408d613e4b565b90506140998383614023565b81526140a88360408401614023565b602082015292915050565b60008060008061012085870312156140ca57600080fd5b843593506140db8660208701613ff3565b92506140ea8660608701614073565b91506140f98660e08701613ff3565b905092959194509250565b60006020828403121561411657600080fd5b5035919050565b60006020828403121561412f57600080fd5b81356137a781613f3d565b6020808252825182820181905260009190848201906040850190845b8181101561417b5783516001600160a01b031683529284019291840191600101614156565b50909695505050505050565b8015158114610f8857600080fd5b6000602082840312156141a757600080fd5b81356137a781614187565b600080604083850312156141c557600080fd5b82356141d081613f3d565b915060208301356141e081613f3d565b809150509250929050565b803563ffffffff8116811461395357600080fd5b60006001600160401b0382111561421857614218613e35565b5060051b60200190565b600082601f83011261423357600080fd5b81356020614248614243836141ff565b613e96565b82815260059290921b8401810191818101908684111561426757600080fd5b8286015b848110156142895761427c816141eb565b835291830191830161426b565b509695505050505050565b600082601f8301126142a557600080fd5b813560206142b5614243836141ff565b82815260069290921b840181019181810190868411156142d457600080fd5b8286015b84811015614289576142ea8882613ff3565b8352918301916040016142d8565b600082601f83011261430957600080fd5b81356020614319614243836141ff565b82815260059290921b8401810191818101908684111561433857600080fd5b8286015b848110156142895780356001600160401b0381111561435b5760008081fd5b6143698986838b0101614222565b84525091830191830161433c565b6000610180828403121561438a57600080fd5b614392613e73565b905081356001600160401b03808211156143ab57600080fd5b6143b785838601614222565b835260208401359150808211156143cd57600080fd5b6143d985838601614294565b602084015260408401359150808211156143f257600080fd5b6143fe85838601614294565b60408401526144108560608601614073565b60608401526144228560e08601613ff3565b608084015261012084013591508082111561443c57600080fd5b61444885838601614222565b60a084015261014084013591508082111561446257600080fd5b61446e85838601614222565b60c084015261016084013591508082111561448857600080fd5b50614495848285016142f8565b60e08301525092915050565b6000806000606084860312156144b657600080fd5b833592506144c6602085016141eb565b915060408401356001600160401b038111156144e157600080fd5b6144ed86828701614377565b9150509250925092565b600081518084526020808501945080840160005b838110156145305781516001600160601b03168752958201959082019060010161450b565b509495945050505050565b604081526000835160408084015261455660808401826144f7565b90506020850151603f1984830301606085015261457382826144f7565b925050508260208301529392505050565b60008083601f84011261459657600080fd5b5081356001600160401b038111156145ad57600080fd5b6020830191508360208285010111156145c557600080fd5b9250929050565b6000806000604084860312156145e157600080fd5b83356001600160401b038111156145f757600080fd5b61460386828701614584565b909790965060209590950135949350505050565b6000806040838503121561462a57600080fd5b823561463581613f3d565b915060208301356001600160401b038082111561465157600080fd5b908401906060828703121561466557600080fd5b60405160608101818110838211171561468057614680613e35565b60405282358281111561469257600080fd5b61469e88828601613f1d565b82525060208301356020820152604083013560408201528093505050509250929050565b6000806000606084860312156146d757600080fd5b8335925060208401356144c681613f3d565b6000602082840312156146fb57600080fd5b81356001600160401b0381111561471157600080fd5b8201601f8101841361472257600080fd5b61473184823560208401613ec6565b949350505050565b6000806000806060858703121561474f57600080fd5b8435935060208501356001600160401b0381111561476c57600080fd5b61477887828801614584565b9598909750949560400135949350505050565b6000806040838503121561479e57600080fd5b8235915060208301356141e081613f3d565b600080602083850312156147c357600080fd5b82356001600160401b03808211156147da57600080fd5b818501915085601f8301126147ee57600080fd5b8135818111156147fd57600080fd5b8660208260051b850101111561481257600080fd5b60209290920196919550909350505050565b634e487b7160e01b600052601160045260246000fd5b6000821982111561484d5761484d614824565b500190565b91825260601b6001600160601b031916602082015260340190565b634e487b7160e01b600052603260045260246000fd5b6000826148a057634e487b7160e01b600052601260045260246000fd5b500690565b6001600160a01b039390931683526020830191909152604082015260600190565b6000828210156148d8576148d8614824565b500390565b6000602082840312156148ef57600080fd5b5051919050565b60006020828403121561490857600080fd5b81516001600160c01b03811681146137a757600080fd5b60006020828403121561493157600080fd5b815160ff811681146137a757600080fd5b600060001982141561495657614956614824565b5060010190565b6001600160601b0381168114610f8857600080fd5b60006040828403121561498457600080fd5b61498c613e4b565b825161499781613f3d565b815260208301516149a78161495d565b60208201529392505050565b6000602082840312156149c557600080fd5b81516137a781613f3d565b6000602082840312156149e257600080fd5b815167ffffffffffffffff19811681146137a757600080fd5b600060208284031215614a0d57600080fd5b81516137a78161495d565b60006001600160601b0383811690831681811015614a3857614a38614824565b039392505050565b63ffffffff60e01b8360e01b1681526000600482018351602080860160005b83811015614a7b57815185529382019390820190600101614a5f565b5092979650505050505050565b8183823760009101908152919050565b60208082526052908201527f536572766963654d616e61676572426173652e6f6e6c7952656769737472794360408201527f6f6f7264696e61746f723a2063616c6c6572206973206e6f742074686520726560608201527133b4b9ba393c9031b7b7b93234b730ba37b960711b608082015260a00190565b6000815180845260005b81811015614b3657602081850181015186830182015201614b1a565b81811115614b48576000602083870101525b50601f01601f19169290920160200192915050565b60018060a01b0383168152604060208201526000825160606040840152614b8760a0840182614b10565b90506020840151606084015260408401516080840152809150509392505050565b60006001600160601b0380831681851681830481118215151615614bce57614bce614824565b02949350505050565b6000816000190483118215151615614bf157614bf1614824565b500290565b6020815260006137a76020830184614b10565b6001600160a01b038616815263ffffffff851660208201526080604082018190528101839052828460a0830137600060a08483010152600060a0601f19601f86011683010190508260608301529695505050505050565b60008235609e19833603018112614c7657600080fd5b9190910192915050565b803561395381613f3d565b600060208284031215614c9d57600080fd5b81516137a781614187565b8183526000602080850194508260005b85811015614530578135614ccb81613f3d565b6001600160a01b0316875281830135614ce38161495d565b6001600160601b0316878401526040968701969190910190600101614cb8565b60208082528181018390526000906040808401600586901b8501820187855b88811015614e0257878303603f190184528135368b9003609e19018112614d4857600080fd5b8a0160a0813536839003601e19018112614d6157600080fd5b820180356001600160401b03811115614d7957600080fd5b8060061b3603841315614d8b57600080fd5b828752614d9d838801828c8501614ca8565b92505050614dac888301614c80565b6001600160a01b03168886015281870135878601526060614dce8184016141eb565b63ffffffff16908601526080614de58382016141eb565b63ffffffff16950194909452509285019290850190600101614d22565b509098975050505050505050565b600061ffff80831681811415614e2857614e28614824565b600101939250505056fe30644e72e131a029b85045b68181585d97816a916871ca8d3c208c16d87cfd470ea46f246ccfc58f7a93aa09bc6245a6818e97b1a160d186afe78993a3b194a0424c535369676e6174757265436865636b65722e636865636b5369676e617475a264697066735822122006053ae8704d63dc5c058cc71a34703d78d2b061c37e0f8864a23068ff7a52e264736f6c634300080c0033","linkReferences":{}},"methodIdentifiers":{"avsDirectory()":"6b3aa72e","balanceOf(address)":"70a08231","batchesState(bytes32)":"b099627e","blsApkRegistry()":"5df45946","checkMaxFeeToRespond(bytes32)":"aa87240c","checkMaxFeeToRespond(bytes32,address)":"e85c7e79","checkPublicInput(bytes,bytes32)":"95c6d604","checkSignatures(bytes32,uint32,(uint32[],(uint256,uint256)[],(uint256,uint256)[],(uint256[2],uint256[2]),(uint256,uint256),uint32[],uint32[],uint32[][]))":"4ae07c37","createAVSRewardsSubmission(((address,uint96)[],address,uint256,uint32,uint32)[])":"fce36c7d","createNewTask(bytes32,string,uint256)":"d66eaabd","delegation()":"df5cf723","depositToBatcher(address)":"4223d551","deregisterOperatorFromAVS(address)":"a364f4da","getOperatorRestakedStrategies(address)":"33cfb7b7","getRestakeableStrategies()":"e481af9d","initialize(address,address)":"485cc955","owner()":"8da5cb5b","registerOperatorToAVS(address,(bytes,bytes32,uint256))":"9926ee7d","registryCoordinator()":"6d14a987","renounceOwnership()":"715018a6","respondToTask(bytes32,address,(uint32[],(uint256,uint256)[],(uint256,uint256)[],(uint256[2],uint256[2]),(uint256,uint256),uint32[],uint32[],uint32[][]))":"a5a3fab1","rewardsInitiator()":"fc299dee","setRewardsInitiator(address)":"3bc28c8c","setStaleStakesForbidden(bool)":"416c7e5e","stakeRegistry()":"68304835","staleStakesForbidden()":"b98d0908","transferOwnership(address)":"f2fde38b","trySignatureAndApkVerification(bytes32,(uint256,uint256),(uint256[2],uint256[2]),(uint256,uint256))":"171f1d5b","updateAVSMetadataURI(string)":"a98fb355","verifyBatchInclusion(bytes32,bytes32,bytes32,bytes20,bytes32,bytes,uint256,address)":"06045a91","withdraw(uint256)":"2e1a7d4d"},"id":116}