{"abi":[{"type":"constructor","inputs":[{"name":"__avsDirectory","type":"address","internalType":"contract IAVSDirectory"},{"name":"__rewardsCoordinator","type":"address","internalType":"contract IRewardsCoordinator"},{"name":"__registryCoordinator","type":"address","internalType":"contract IRegistryCoordinator"},{"name":"__stakeRegistry","type":"address","internalType":"contract IStakeRegistry"}],"stateMutability":"nonpayable"},{"type":"receive","stateMutability":"payable"},{"type":"function","name":"avsDirectory","inputs":[],"outputs":[{"name":"","type":"address","internalType":"address"}],"stateMutability":"view"},{"type":"function","name":"balanceOf","inputs":[{"name":"account","type":"address","internalType":"address"}],"outputs":[{"name":"","type":"uint256","internalType":"uint256"}],"stateMutability":"view"},{"type":"function","name":"batchesState","inputs":[{"name":"","type":"bytes32","internalType":"bytes32"}],"outputs":[{"name":"taskCreatedBlock","type":"uint32","internalType":"uint32"},{"name":"responded","type":"bool","internalType":"bool"}],"stateMutability":"view"},{"type":"function","name":"blsApkRegistry","inputs":[],"outputs":[{"name":"","type":"address","internalType":"contract IBLSApkRegistry"}],"stateMutability":"view"},{"type":"function","name":"checkPublicInput","inputs":[{"name":"publicInput","type":"bytes","internalType":"bytes"},{"name":"hash","type":"bytes32","internalType":"bytes32"}],"outputs":[{"name":"","type":"bool","internalType":"bool"}],"stateMutability":"pure"},{"type":"function","name":"checkSignatures","inputs":[{"name":"msgHash","type":"bytes32","internalType":"bytes32"},{"name":"referenceBlockNumber","type":"uint32","internalType":"uint32"},{"name":"params","type":"tuple","internalType":"struct IBLSSignatureChecker.NonSignerStakesAndSignature","components":[{"name":"nonSignerQuorumBitmapIndices","type":"uint32[]","internalType":"uint32[]"},{"name":"nonSignerPubkeys","type":"tuple[]","internalType":"struct BN254.G1Point[]","components":[{"name":"X","type":"uint256","internalType":"uint256"},{"name":"Y","type":"uint256","internalType":"uint256"}]},{"name":"quorumApks","type":"tuple[]","internalType":"struct BN254.G1Point[]","components":[{"name":"X","type":"uint256","internalType":"uint256"},{"name":"Y","type":"uint256","internalType":"uint256"}]},{"name":"apkG2","type":"tuple","internalType":"struct BN254.G2Point","components":[{"name":"X","type":"uint256[2]","internalType":"uint256[2]"},{"name":"Y","type":"uint256[2]","internalType":"uint256[2]"}]},{"name":"sigma","type":"tuple","internalType":"struct BN254.G1Point","components":[{"name":"X","type":"uint256","internalType":"uint256"},{"name":"Y","type":"uint256","internalType":"uint256"}]},{"name":"quorumApkIndices","type":"uint32[]","internalType":"uint32[]"},{"name":"totalStakeIndices","type":"uint32[]","internalType":"uint32[]"},{"name":"nonSignerStakeIndices","type":"uint32[][]","internalType":"uint32[][]"}]}],"outputs":[{"name":"","type":"tuple","internalType":"struct IBLSSignatureChecker.QuorumStakeTotals","components":[{"name":"signedStakeForQuorum","type":"uint96[]","internalType":"uint96[]"},{"name":"totalStakeForQuorum","type":"uint96[]","internalType":"uint96[]"}]},{"name":"","type":"bytes32","internalType":"bytes32"}],"stateMutability":"view"},{"type":"function","name":"createAVSRewardsSubmission","inputs":[{"name":"rewardsSubmissions","type":"tuple[]","internalType":"struct IRewardsCoordinator.RewardsSubmission[]","components":[{"name":"strategiesAndMultipliers","type":"tuple[]","internalType":"struct IRewardsCoordinator.StrategyAndMultiplier[]","components":[{"name":"strategy","type":"address","internalType":"contract IStrategy"},{"name":"multiplier","type":"uint96","internalType":"uint96"}]},{"name":"token","type":"address","internalType":"contract IERC20"},{"name":"amount","type":"uint256","internalType":"uint256"},{"name":"startTimestamp","type":"uint32","internalType":"uint32"},{"name":"duration","type":"uint32","internalType":"uint32"}]}],"outputs":[],"stateMutability":"nonpayable"},{"type":"function","name":"createNewTask","inputs":[{"name":"batchMerkleRoot","type":"bytes32","internalType":"bytes32"},{"name":"batchDataPointer","type":"string","internalType":"string"}],"outputs":[],"stateMutability":"payable"},{"type":"function","name":"delegation","inputs":[],"outputs":[{"name":"","type":"address","internalType":"contract IDelegationManager"}],"stateMutability":"view"},{"type":"function","name":"deregisterOperatorFromAVS","inputs":[{"name":"operator","type":"address","internalType":"address"}],"outputs":[],"stateMutability":"nonpayable"},{"type":"function","name":"getOperatorRestakedStrategies","inputs":[{"name":"operator","type":"address","internalType":"address"}],"outputs":[{"name":"","type":"address[]","internalType":"address[]"}],"stateMutability":"view"},{"type":"function","name":"getRestakeableStrategies","inputs":[],"outputs":[{"name":"","type":"address[]","internalType":"address[]"}],"stateMutability":"view"},{"type":"function","name":"initialize","inputs":[{"name":"_initialOwner","type":"address","internalType":"address"}],"outputs":[],"stateMutability":"nonpayable"},{"type":"function","name":"owner","inputs":[],"outputs":[{"name":"","type":"address","internalType":"address"}],"stateMutability":"view"},{"type":"function","name":"registerOperatorToAVS","inputs":[{"name":"operator","type":"address","internalType":"address"},{"name":"operatorSignature","type":"tuple","internalType":"struct ISignatureUtils.SignatureWithSaltAndExpiry","components":[{"name":"signature","type":"bytes","internalType":"bytes"},{"name":"salt","type":"bytes32","internalType":"bytes32"},{"name":"expiry","type":"uint256","internalType":"uint256"}]}],"outputs":[],"stateMutability":"nonpayable"},{"type":"function","name":"registryCoordinator","inputs":[],"outputs":[{"name":"","type":"address","internalType":"contract IRegistryCoordinator"}],"stateMutability":"view"},{"type":"function","name":"renounceOwnership","inputs":[],"outputs":[],"stateMutability":"nonpayable"},{"type":"function","name":"respondToTask","inputs":[{"name":"batchMerkleRoot","type":"bytes32","internalType":"bytes32"},{"name":"senderAddress","type":"address","internalType":"address"},{"name":"nonSignerStakesAndSignature","type":"tuple","internalType":"struct IBLSSignatureChecker.NonSignerStakesAndSignature","components":[{"name":"nonSignerQuorumBitmapIndices","type":"uint32[]","internalType":"uint32[]"},{"name":"nonSignerPubkeys","type":"tuple[]","internalType":"struct BN254.G1Point[]","components":[{"name":"X","type":"uint256","internalType":"uint256"},{"name":"Y","type":"uint256","internalType":"uint256"}]},{"name":"quorumApks","type":"tuple[]","internalType":"struct BN254.G1Point[]","components":[{"name":"X","type":"uint256","internalType":"uint256"},{"name":"Y","type":"uint256","internalType":"uint256"}]},{"name":"apkG2","type":"tuple","internalType":"struct BN254.G2Point","components":[{"name":"X","type":"uint256[2]","internalType":"uint256[2]"},{"name":"Y","type":"uint256[2]","internalType":"uint256[2]"}]},{"name":"sigma","type":"tuple","internalType":"struct BN254.G1Point","components":[{"name":"X","type":"uint256","internalType":"uint256"},{"name":"Y","type":"uint256","internalType":"uint256"}]},{"name":"quorumApkIndices","type":"uint32[]","internalType":"uint32[]"},{"name":"totalStakeIndices","type":"uint32[]","internalType":"uint32[]"},{"name":"nonSignerStakeIndices","type":"uint32[][]","internalType":"uint32[][]"}]}],"outputs":[],"stateMutability":"nonpayable"},{"type":"function","name":"rewardsInitiator","inputs":[],"outputs":[{"name":"","type":"address","internalType":"address"}],"stateMutability":"view"},{"type":"function","name":"setRewardsInitiator","inputs":[{"name":"newRewardsInitiator","type":"address","internalType":"address"}],"outputs":[],"stateMutability":"nonpayable"},{"type":"function","name":"setStaleStakesForbidden","inputs":[{"name":"value","type":"bool","internalType":"bool"}],"outputs":[],"stateMutability":"nonpayable"},{"type":"function","name":"stakeRegistry","inputs":[],"outputs":[{"name":"","type":"address","internalType":"contract IStakeRegistry"}],"stateMutability":"view"},{"type":"function","name":"staleStakesForbidden","inputs":[],"outputs":[{"name":"","type":"bool","internalType":"bool"}],"stateMutability":"view"},{"type":"function","name":"transferOwnership","inputs":[{"name":"newOwner","type":"address","internalType":"address"}],"outputs":[],"stateMutability":"nonpayable"},{"type":"function","name":"trySignatureAndApkVerification","inputs":[{"name":"msgHash","type":"bytes32","internalType":"bytes32"},{"name":"apk","type":"tuple","internalType":"struct BN254.G1Point","components":[{"name":"X","type":"uint256","internalType":"uint256"},{"name":"Y","type":"uint256","internalType":"uint256"}]},{"name":"apkG2","type":"tuple","internalType":"struct BN254.G2Point","components":[{"name":"X","type":"uint256[2]","internalType":"uint256[2]"},{"name":"Y","type":"uint256[2]","internalType":"uint256[2]"}]},{"name":"sigma","type":"tuple","internalType":"struct BN254.G1Point","components":[{"name":"X","type":"uint256","internalType":"uint256"},{"name":"Y","type":"uint256","internalType":"uint256"}]}],"outputs":[{"name":"pairingSuccessful","type":"bool","internalType":"bool"},{"name":"siganatureIsValid","type":"bool","internalType":"bool"}],"stateMutability":"view"},{"type":"function","name":"updateAVSMetadataURI","inputs":[{"name":"_metadataURI","type":"string","internalType":"string"}],"outputs":[],"stateMutability":"nonpayable"},{"type":"function","name":"verifyBatchInclusion","inputs":[{"name":"proofCommitment","type":"bytes32","internalType":"bytes32"},{"name":"pubInputCommitment","type":"bytes32","internalType":"bytes32"},{"name":"provingSystemAuxDataCommitment","type":"bytes32","internalType":"bytes32"},{"name":"proofGeneratorAddr","type":"bytes20","internalType":"bytes20"},{"name":"batchMerkleRoot","type":"bytes32","internalType":"bytes32"},{"name":"merkleProof","type":"bytes","internalType":"bytes"},{"name":"verificationDataBatchIndex","type":"uint256","internalType":"uint256"},{"name":"senderAddress","type":"address","internalType":"address"}],"outputs":[{"name":"","type":"bool","internalType":"bool"}],"stateMutability":"view"},{"type":"event","name":"BatchVerified","inputs":[{"name":"batchMerkleRoot","type":"bytes32","indexed":true,"internalType":"bytes32"}],"anonymous":false},{"type":"event","name":"Initialized","inputs":[{"name":"version","type":"uint8","indexed":false,"internalType":"uint8"}],"anonymous":false},{"type":"event","name":"NewBatch","inputs":[{"name":"batchMerkleRoot","type":"bytes32","indexed":true,"internalType":"bytes32"},{"name":"senderAddress","type":"address","indexed":false,"internalType":"address"},{"name":"taskCreatedBlock","type":"uint32","indexed":false,"internalType":"uint32"},{"name":"batchDataPointer","type":"string","indexed":false,"internalType":"string"}],"anonymous":false},{"type":"event","name":"OwnershipTransferred","inputs":[{"name":"previousOwner","type":"address","indexed":true,"internalType":"address"},{"name":"newOwner","type":"address","indexed":true,"internalType":"address"}],"anonymous":false},{"type":"event","name":"RewardsInitiatorUpdated","inputs":[{"name":"prevRewardsInitiator","type":"address","indexed":false,"internalType":"address"},{"name":"newRewardsInitiator","type":"address","indexed":false,"internalType":"address"}],"anonymous":false},{"type":"event","name":"StaleStakesForbiddenUpdate","inputs":[{"name":"value","type":"bool","indexed":false,"internalType":"bool"}],"anonymous":false}],"bytecode":{"object":"0x6101806040523480156200001257600080fd5b50604051620050f0380380620050f08339810160408190526200003591620002e5565b6001600160a01b0380851660805280841660a05280831660c052811660e0528184848284620000636200020a565b50505050806001600160a01b0316610100816001600160a01b031681525050806001600160a01b031663683048356040518163ffffffff1660e01b8152600401602060405180830381865afa158015620000c1573d6000803e3d6000fd5b505050506040513d601f19601f82011682018060405250810190620000e791906200034d565b6001600160a01b0316610120816001600160a01b031681525050806001600160a01b0316635df459466040518163ffffffff1660e01b8152600401602060405180830381865afa15801562000140573d6000803e3d6000fd5b505050506040513d601f19601f820116820180604052508101906200016691906200034d565b6001600160a01b0316610140816001600160a01b031681525050610120516001600160a01b031663df5cf7236040518163ffffffff1660e01b8152600401602060405180830381865afa158015620001c2573d6000803e3d6000fd5b505050506040513d601f19601f82011682018060405250810190620001e891906200034d565b6001600160a01b03166101605250620002006200020a565b5050505062000374565b600054610100900460ff1615620002775760405162461bcd60e51b815260206004820152602760248201527f496e697469616c697a61626c653a20636f6e747261637420697320696e697469604482015266616c697a696e6760c81b606482015260840160405180910390fd5b60005460ff9081161015620002ca576000805460ff191660ff9081179091556040519081527f7f26b83ff96e1f2b6a682f133852f6798a09c465da95921460cefb38474024989060200160405180910390a15b565b6001600160a01b0381168114620002e257600080fd5b50565b60008060008060808587031215620002fc57600080fd5b84516200030981620002cc565b60208601519094506200031c81620002cc565b60408601519093506200032f81620002cc565b60608601519092506200034281620002cc565b939692955090935050565b6000602082840312156200036057600080fd5b81516200036d81620002cc565b9392505050565b60805160a05160c05160e05161010051610120516101405161016051614c6e620004826000396000818161059201526115830152600081816102fe015261179601526000818161034a015281816119830152611b730152600081816103b101528181610d9a0152818161123f015281816113e60152611637015260008181610aaf01528181610c0a01528181610ca1015281816127c60152818161294901526129e80152600081816108d601528181610965015281816109e50152818161203f0152818161210b0152818161270401526128a4015260008181612c8901528181612d450152612e3101526000818161037b015281816120930152818161216701526125b60152614c6e6000f3fe6080604052600436106101a05760003560e01c80638da5cb5b116100ec578063b98d09081161008a578063e481af9d11610064578063e481af9d146105b4578063f2fde38b146105c9578063fc299dee146105e9578063fce36c7d1461060957600080fd5b8063b98d090814610546578063c4d66de814610560578063df5cf7231461058057600080fd5b8063a364f4da116100c6578063a364f4da1461048a578063a5a3fab1146104aa578063a98fb355146104ca578063b099627e146104ea57600080fd5b80638da5cb5b1461042c57806395c6d6041461044a5780639926ee7d1461046a57600080fd5b80635c008994116101595780636b3aa72e116101335780636b3aa72e1461036c5780636d14a9871461039f57806370a08231146103d3578063715018a61461041757600080fd5b80635c008994146102d95780635df45946146102ec578063683048351461033857600080fd5b806306045a91146101d0578063171f1d5b1461020557806333cfb7b71461023c5780633bc28c8c14610269578063416c7e5e1461028b5780634ae07c37146102ab57600080fd5b366101cb5733600090815260ca6020526040812080543492906101c4908490613cb0565b9091555050005b600080fd5b3480156101dc57600080fd5b506101f06101eb366004613dec565b610629565b60405190151581526020015b60405180910390f35b34801561021157600080fd5b50610225610220366004613f52565b610727565b6040805192151583529015156020830152016101fc565b34801561024857600080fd5b5061025c610257366004613fa3565b6108b1565b6040516101fc9190613fc0565b34801561027557600080fd5b50610289610284366004613fa3565b610d84565b005b34801561029757600080fd5b506102896102a636600461401b565b610d98565b3480156102b757600080fd5b506102cb6102c63660046142ee565b610ed4565b6040516101fc929190614388565b6102896102e7366004614419565b611e3d565b3480156102f857600080fd5b506103207f000000000000000000000000000000000000000000000000000000000000000081565b6040516001600160a01b0390911681526020016101fc565b34801561034457600080fd5b506103207f000000000000000000000000000000000000000000000000000000000000000081565b34801561037857600080fd5b507f0000000000000000000000000000000000000000000000000000000000000000610320565b3480156103ab57600080fd5b506103207f000000000000000000000000000000000000000000000000000000000000000081565b3480156103df57600080fd5b506104096103ee366004613fa3565b6001600160a01b0316600090815260ca602052604090205490565b6040519081526020016101fc565b34801561042357600080fd5b50610289611ffb565b34801561043857600080fd5b506033546001600160a01b0316610320565b34801561045657600080fd5b506101f0610465366004614464565b61200f565b34801561047657600080fd5b506102896104853660046144af565b612034565b34801561049657600080fd5b506102896104a5366004613fa3565b612100565b3480156104b657600080fd5b506102896104c536600461455a565b6121c7565b3480156104d657600080fd5b506102896104e5366004614581565b612597565b3480156104f657600080fd5b5061052a6105053660046145d1565b60c96020526000908152604090205463ffffffff811690640100000000900460ff1682565b6040805163ffffffff90931683529015156020830152016101fc565b34801561055257600080fd5b506097546101f09060ff1681565b34801561056c57600080fd5b5061028961057b366004613fa3565b6125eb565b34801561058c57600080fd5b506103207f000000000000000000000000000000000000000000000000000000000000000081565b3480156105c057600080fd5b5061025c6126fe565b3480156105d557600080fd5b506102896105e4366004613fa3565b612ac7565b3480156105f557600080fd5b50606554610320906001600160a01b031681565b34801561061557600080fd5b506102896106243660046145ea565b612b3d565b6040805180820182528581526001600160a01b038381166020928301908152835180840189905290519091168184015282518082038401815260609091018352805190820120600081815260c99092529181205490919063ffffffff1661069457600091505061071b565b600081815260c96020526040902054640100000000900460ff166106bc57600091505061071b565b60408051602081018c90529081018a9052606081018990526bffffffffffffffffffffffff198816608082015260009060940160408051601f198184030181529190528051602082012090915061071587848389612e68565b93505050505b98975050505050505050565b60008060007f30644e72e131a029b85045b68181585d2833e84879b9709143e1f593f00000018787600001518860200151886000015160006002811061076f5761076f61465e565b60200201518951600160200201518a602001516000600281106107945761079461465e565b60200201518b602001516001600281106107b0576107b061465e565b602090810291909101518c518d83015160405161080d9a99989796959401988952602089019790975260408801959095526060870193909352608086019190915260a085015260c084015260e08301526101008201526101200190565b6040516020818303038152906040528051906020012060001c6108309190614674565b90506108a36108496108428884612e80565b8690612f17565b610851612fab565b61089961088a85610884604080518082018252600080825260209182015281518083019092526001825260029082015290565b90612e80565b6108938c61306b565b90612f17565b886201d4c06130fb565b909890975095505050505050565b6040516309aa152760e11b81526001600160a01b0382811660048301526060916000917f000000000000000000000000000000000000000000000000000000000000000016906313542a4e90602401602060405180830381865afa15801561091d573d6000803e3d6000fd5b505050506040513d601f19601f820116820180604052508101906109419190614696565b60405163871ef04960e01b8152600481018290529091506000906001600160a01b037f0000000000000000000000000000000000000000000000000000000000000000169063871ef04990602401602060405180830381865afa1580156109ac573d6000803e3d6000fd5b505050506040513d601f19601f820116820180604052508101906109d091906146af565b90506001600160c01b0381161580610a6a57507f00000000000000000000000000000000000000000000000000000000000000006001600160a01b0316639aa1653d6040518163ffffffff1660e01b8152600401602060405180830381865afa158015610a41573d6000803e3d6000fd5b505050506040513d601f19601f82011682018060405250810190610a6591906146d8565b60ff16155b15610a8a5760408051600080825260208201909252905b50949350505050565b6000610a9e826001600160c01b031661331f565b90506000805b8251811015610b74577f00000000000000000000000000000000000000000000000000000000000000006001600160a01b0316633ca5a5f5848381518110610aee57610aee61465e565b01602001516040516001600160e01b031960e084901b16815260f89190911c6004820152602401602060405180830381865afa158015610b32573d6000803e3d6000fd5b505050506040513d601f19601f82011682018060405250810190610b569190614696565b610b609083613cb0565b915080610b6c816146fb565b915050610aa4565b506000816001600160401b03811115610b8f57610b8f613cc8565b604051908082528060200260200182016040528015610bb8578160200160208202803683370190505b5090506000805b8451811015610d77576000858281518110610bdc57610bdc61465e565b0160200151604051633ca5a5f560e01b815260f89190911c6004820181905291506000906001600160a01b037f00000000000000000000000000000000000000000000000000000000000000001690633ca5a5f590602401602060405180830381865afa158015610c51573d6000803e3d6000fd5b505050506040513d601f19601f82011682018060405250810190610c759190614696565b905060005b81811015610d61576040516356e4026d60e11b815260ff84166004820152602481018290527f00000000000000000000000000000000000000000000000000000000000000006001600160a01b03169063adc804da906044016040805180830381865afa158015610cef573d6000803e3d6000fd5b505050506040513d601f19601f82011682018060405250810190610d13919061472b565b60000151868681518110610d2957610d2961465e565b6001600160a01b039092166020928302919091019091015284610d4b816146fb565b9550508080610d59906146fb565b915050610c7a565b5050508080610d6f906146fb565b915050610bbf565b5090979650505050505050565b610d8c6133e1565b610d958161343b565b50565b7f00000000000000000000000000000000000000000000000000000000000000006001600160a01b0316638da5cb5b6040518163ffffffff1660e01b8152600401602060405180830381865afa158015610df6573d6000803e3d6000fd5b505050506040513d601f19601f82011682018060405250810190610e1a919061476c565b6001600160a01b0316336001600160a01b031614610ecb5760405162461bcd60e51b815260206004820152605c60248201527f424c535369676e6174757265436865636b65722e6f6e6c79436f6f7264696e6160448201527f746f724f776e65723a2063616c6c6572206973206e6f7420746865206f776e6560648201527f72206f6620746865207265676973747279436f6f7264696e61746f7200000000608482015260a4015b60405180910390fd5b610d95816134a4565b6040805180820190915260608082526020820152604080518082019091526001815260006020909101819052826040015151604051806040016040528060018152602001600081525051148015610f4657508260a0015151604051806040016040528060018152602001600081525051145b8015610f6d57508260c0015151604051806040016040528060018152602001600081525051145b8015610f9457508260e0015151604051806040016040528060018152602001600081525051145b610ffe5760405162461bcd60e51b81526020600482015260416024820152600080516020614c1983398151915260448201527f7265733a20696e7075742071756f72756d206c656e677468206d69736d6174636064820152600d60fb1b608482015260a401610ec2565b825151602084015151146110765760405162461bcd60e51b815260206004820152604460248201819052600080516020614c19833981519152908201527f7265733a20696e707574206e6f6e7369676e6572206c656e677468206d69736d6064820152630c2e8c6d60e31b608482015260a401610ec2565b4363ffffffff168463ffffffff16106110e55760405162461bcd60e51b815260206004820152603c6024820152600080516020614c1983398151915260448201527f7265733a20696e76616c6964207265666572656e636520626c6f636b000000006064820152608401610ec2565b60408051808201825260008082526020808301829052835180850185526060808252818301528451808601865260018082529083019390935284518381528086019095529293919082810190803683370190505060208281019190915260408051808201825260018082526000919093015280518281528082019091529081602001602082028036833701905050815260408051808201909152606080825260208201528560200151516001600160401b038111156111a6576111a6613cc8565b6040519080825280602002602001820160405280156111cf578160200160208202803683370190505b5081526020860151516001600160401b038111156111ef576111ef613cc8565b604051908082528060200260200182016040528015611218578160200160208202803683370190505b50816020018190525060006112c460405180604001604052806001815260200160008152507f00000000000000000000000000000000000000000000000000000000000000006001600160a01b0316639aa1653d6040518163ffffffff1660e01b8152600401602060405180830381865afa15801561129b573d6000803e3d6000fd5b505050506040513d601f19601f820116820180604052508101906112bf91906146d8565b6134eb565b905060005b87602001515181101561155f5761130e886020015182815181106112ef576112ef61465e565b6020026020010151805160009081526020918201519091526040902090565b836020015182815181106113245761132461465e565b602090810291909101015280156113e4576020830151611345600183614789565b815181106113555761135561465e565b602002602001015160001c836020015182815181106113765761137661465e565b602002602001015160001c116113e4576040805162461bcd60e51b8152602060048201526024810191909152600080516020614c1983398151915260448201527f7265733a206e6f6e5369676e65725075626b657973206e6f7420736f727465646064820152608401610ec2565b7f00000000000000000000000000000000000000000000000000000000000000006001600160a01b03166304ec6351846020015183815181106114295761142961465e565b60200260200101518b8b6000015185815181106114485761144861465e565b60200260200101516040518463ffffffff1660e01b81526004016114859392919092835263ffffffff918216602084015216604082015260600190565b602060405180830381865afa1580156114a2573d6000803e3d6000fd5b505050506040513d601f19601f820116820180604052508101906114c691906146af565b6001600160c01b0316836000015182815181106114e5576114e561465e565b60200260200101818152505061154b61084261151f84866000015185815181106115115761151161465e565b60200260200101511661357e565b8a6020015184815181106115355761153561465e565b60200260200101516135a990919063ffffffff16565b945080611557816146fb565b9150506112c9565b505061156a8361368d565b60975490935060ff16600081611581576000611603565b7f00000000000000000000000000000000000000000000000000000000000000006001600160a01b031663c448feb86040518163ffffffff1660e01b8152600401602060405180830381865afa1580156115df573d6000803e3d6000fd5b505050506040513d601f19601f820116820180604052508101906116039190614696565b905060005b604051806040016040528060018152602001600081525051811015611d0e578215611794578963ffffffff16827f00000000000000000000000000000000000000000000000000000000000000006001600160a01b031663249a0c426040518060400160405280600181526020016000815250858151811061168c5761168c61465e565b01602001516040516001600160e01b031960e084901b16815260f89190911c6004820152602401602060405180830381865afa1580156116d0573d6000803e3d6000fd5b505050506040513d601f19601f820116820180604052508101906116f49190614696565b6116fe9190613cb0565b116117945760405162461bcd60e51b81526020600482015260666024820152600080516020614c1983398151915260448201527f7265733a205374616b6552656769737472792075706461746573206d7573742060648201527f62652077697468696e207769746864726177616c44656c6179426c6f636b732060848201526577696e646f7760d01b60a482015260c401610ec2565b7f00000000000000000000000000000000000000000000000000000000000000006001600160a01b03166368bccaac604051806040016040528060018152602001600081525083815181106117eb576117eb61465e565b602001015160f81c60f81b60f81c8c8c60a0015185815181106118105761181061465e565b60209081029190910101516040516001600160e01b031960e086901b16815260ff909316600484015263ffffffff9182166024840152166044820152606401602060405180830381865afa15801561186c573d6000803e3d6000fd5b505050506040513d601f19601f8201168201806040525081019061189091906147a0565b6001600160401b0319166118b38a6040015183815181106112ef576112ef61465e565b67ffffffffffffffff19161461194f5760405162461bcd60e51b81526020600482015260616024820152600080516020614c1983398151915260448201527f7265733a2071756f72756d41706b206861736820696e2073746f72616765206460648201527f6f6573206e6f74206d617463682070726f76696465642071756f72756d2061706084820152606b60f81b60a482015260c401610ec2565b61197f896040015182815181106119685761196861465e565b602002602001015187612f1790919063ffffffff16565b95507f00000000000000000000000000000000000000000000000000000000000000006001600160a01b031663c8294c56604051806040016040528060018152602001600081525083815181106119d8576119d861465e565b602001015160f81c60f81b60f81c8c8c60c0015185815181106119fd576119fd61465e565b60209081029190910101516040516001600160e01b031960e086901b16815260ff909316600484015263ffffffff9182166024840152166044820152606401602060405180830381865afa158015611a59573d6000803e3d6000fd5b505050506040513d601f19601f82011682018060405250810190611a7d91906147cb565b85602001518281518110611a9357611a9361465e565b6001600160601b03909216602092830291909101820152850151805182908110611abf57611abf61465e565b602002602001015185600001518281518110611add57611add61465e565b60200260200101906001600160601b031690816001600160601b0316815250506000805b8a6020015151811015611cf957611b6c86600001518281518110611b2757611b2761465e565b602002602001015160405180604001604052806001815260200160008152508581518110611b5757611b5761465e565b016020015160f81c60ff161c60019081161490565b15611ce7577f00000000000000000000000000000000000000000000000000000000000000006001600160a01b031663f2be94ae60405180604001604052806001815260200160008152508581518110611bc857611bc861465e565b602001015160f81c60f81b60f81c8e89602001518581518110611bed57611bed61465e565b60200260200101518f60e001518881518110611c0b57611c0b61465e565b60200260200101518781518110611c2457611c2461465e565b60209081029190910101516040516001600160e01b031960e087901b16815260ff909416600485015263ffffffff92831660248501526044840191909152166064820152608401602060405180830381865afa158015611c88573d6000803e3d6000fd5b505050506040513d601f19601f82011682018060405250810190611cac91906147cb565b8751805185908110611cc057611cc061465e565b60200260200101818151611cd491906147e8565b6001600160601b03169052506001909101905b80611cf1816146fb565b915050611b01565b50508080611d06906146fb565b915050611608565b505050600080611d288a868a606001518b60800151610727565b9150915081611d995760405162461bcd60e51b81526020600482015260436024820152600080516020614c1983398151915260448201527f7265733a2070616972696e6720707265636f6d70696c652063616c6c206661696064820152621b195960ea1b608482015260a401610ec2565b80611dfa5760405162461bcd60e51b81526020600482015260396024820152600080516020614c1983398151915260448201527f7265733a207369676e617475726520697320696e76616c6964000000000000006064820152608401610ec2565b50506000878260200151604051602001611e15929190614810565b60408051808303601f1901815291905280516020909101209299929850919650505050505050565b604080518082018252848152336020918201908152825180830187905290516001600160a01b03168184015282518082038401815260609091018352805190820120600081815260c99092529190205463ffffffff1615611ee05760405162461bcd60e51b815260206004820152601b60248201527f42617463682077617320616c7265616479207375626d697474656400000000006044820152606401610ec2565b3415611f0b5733600090815260ca602052604081208054349290611f05908490613cb0565b90915550505b33600090815260ca6020526040902054611f675760405162461bcd60e51b815260206004820152601860248201527f426174636865722062616c616e636520697320656d70747900000000000000006044820152606401610ec2565b6040805180820182526000602080830182815263ffffffff43818116865287855260c99093529285902084518154925115156401000000000264ffffffffff19909316941693909317179091559151909186917fb6e138aac002b2914d032511acfdde1f6b38615cd3520c18ea5b8a89fd80327a91611fec9133919089908990614858565b60405180910390a25050505050565b6120036133e1565b61200d6000613728565b565b60008184846040516120229291906148a5565b60405180910390201490509392505050565b336001600160a01b037f0000000000000000000000000000000000000000000000000000000000000000161461207c5760405162461bcd60e51b8152600401610ec2906148b5565b604051639926ee7d60e01b81526001600160a01b037f00000000000000000000000000000000000000000000000000000000000000001690639926ee7d906120ca908590859060040161497a565b600060405180830381600087803b1580156120e457600080fd5b505af11580156120f8573d6000803e3d6000fd5b505050505050565b336001600160a01b037f000000000000000000000000000000000000000000000000000000000000000016146121485760405162461bcd60e51b8152600401610ec2906148b5565b6040516351b27a6d60e11b81526001600160a01b0382811660048301527f0000000000000000000000000000000000000000000000000000000000000000169063a364f4da906024015b600060405180830381600087803b1580156121ac57600080fd5b505af11580156121c0573d6000803e3d6000fd5b5050505050565b60005a6040805180820182528681526001600160a01b03868116602092830190815283518084018a905290519091168184015282518082038401815260609091018352805190820120600081815260c9909252919020549192509063ffffffff1661226b5760405162461bcd60e51b8152602060048201526014602482015273426174636820646f65736e27742065786973747360601b6044820152606401610ec2565b600081815260c96020526040902054640100000000900460ff16156122d25760405162461bcd60e51b815260206004820152601760248201527f426174636820616c726561647920726573706f6e6465640000000000000000006044820152606401610ec2565b6001600160a01b038416600090815260ca60205260409020546123305760405162461bcd60e51b81526020600482015260166024820152754261746368657220686173206e6f2062616c616e636560501b6044820152606401610ec2565b600081815260c960205260408120805464ff0000000019811664010000000017909155819061236790849063ffffffff1687610ed4565b91509150604360ff1682602001516000815181106123875761238761465e565b602002602001015161239991906149c5565b6001600160601b0316606483600001516000815181106123bb576123bb61465e565b60200260200101516001600160601b03166123d691906149f4565b101561244c576040805162461bcd60e51b81526020600482015260248101919091527f5369676e61746f7269657320646f206e6f74206f776e206174206c656173742060448201527f7468726573686f6c642070657263656e74616765206f6620612071756f72756d6064820152608401610ec2565b60405187907f433ae0767fe95db70a0e30eda902926e41203b9eb97ec5175076fb9e2d35c13e90600090a260005a905060003a6124898388614789565b6124969062011170613cb0565b6124a091906149f4565b6001600160a01b038916600090815260ca60205260409020549091508111156125315760405162461bcd60e51b815260206004820152603c60248201527f4261746368657220686173206e6f742073756666696369656e742066756e647360448201527f20666f7220706179696e672074686973207472616e73616374696f6e000000006064820152608401610ec2565b6001600160a01b038816600090815260ca602052604081208054839290612559908490614789565b9091555050604051339082156108fc029083906000818181858888f1935050505015801561258b573d6000803e3d6000fd5b50505050505050505050565b61259f6133e1565b60405163a98fb35560e01b81526001600160a01b037f0000000000000000000000000000000000000000000000000000000000000000169063a98fb35590612192908490600401614a13565b600054610100900460ff161580801561260b5750600054600160ff909116105b806126255750303b158015612625575060005460ff166001145b6126885760405162461bcd60e51b815260206004820152602e60248201527f496e697469616c697a61626c653a20636f6e747261637420697320616c72656160448201526d191e481a5b9a5d1a585b1a5e995960921b6064820152608401610ec2565b6000805460ff1916600117905580156126ab576000805461ff0019166101001790555b6126b482613728565b80156126fa576000805461ff0019169055604051600181527f7f26b83ff96e1f2b6a682f133852f6798a09c465da95921460cefb38474024989060200160405180910390a15b5050565b606060007f00000000000000000000000000000000000000000000000000000000000000006001600160a01b0316639aa1653d6040518163ffffffff1660e01b8152600401602060405180830381865afa158015612760573d6000803e3d6000fd5b505050506040513d601f19601f8201168201806040525081019061278491906146d8565b60ff169050806127a257505060408051600081526020810190915290565b6000805b8281101561285757604051633ca5a5f560e01b815260ff821660048201527f00000000000000000000000000000000000000000000000000000000000000006001600160a01b031690633ca5a5f590602401602060405180830381865afa158015612815573d6000803e3d6000fd5b505050506040513d601f19601f820116820180604052508101906128399190614696565b6128439083613cb0565b91508061284f816146fb565b9150506127a6565b506000816001600160401b0381111561287257612872613cc8565b60405190808252806020026020018201604052801561289b578160200160208202803683370190505b5090506000805b7f00000000000000000000000000000000000000000000000000000000000000006001600160a01b0316639aa1653d6040518163ffffffff1660e01b8152600401602060405180830381865afa158015612900573d6000803e3d6000fd5b505050506040513d601f19601f8201168201806040525081019061292491906146d8565b60ff16811015612abd57604051633ca5a5f560e01b815260ff821660048201526000907f00000000000000000000000000000000000000000000000000000000000000006001600160a01b031690633ca5a5f590602401602060405180830381865afa158015612998573d6000803e3d6000fd5b505050506040513d601f19601f820116820180604052508101906129bc9190614696565b905060005b81811015612aa8576040516356e4026d60e11b815260ff84166004820152602481018290527f00000000000000000000000000000000000000000000000000000000000000006001600160a01b03169063adc804da906044016040805180830381865afa158015612a36573d6000803e3d6000fd5b505050506040513d601f19601f82011682018060405250810190612a5a919061472b565b60000151858581518110612a7057612a7061465e565b6001600160a01b039092166020928302919091019091015283612a92816146fb565b9450508080612aa0906146fb565b9150506129c1565b50508080612ab5906146fb565b9150506128a2565b5090949350505050565b612acf6133e1565b6001600160a01b038116612b345760405162461bcd60e51b815260206004820152602660248201527f4f776e61626c653a206e6577206f776e657220697320746865207a65726f206160448201526564647265737360d01b6064820152608401610ec2565b610d9581613728565b612b4561377a565b60005b81811015612e1957828282818110612b6257612b6261465e565b9050602002810190612b749190614a26565b612b85906040810190602001613fa3565b6001600160a01b03166323b872dd3330868686818110612ba757612ba761465e565b9050602002810190612bb99190614a26565b604080516001600160e01b031960e087901b1681526001600160a01b039485166004820152939092166024840152013560448201526064016020604051808303816000875af1158015612c10573d6000803e3d6000fd5b505050506040513d601f19601f82011682018060405250810190612c349190614a51565b506000838383818110612c4957612c4961465e565b9050602002810190612c5b9190614a26565b612c6c906040810190602001613fa3565b604051636eb1769f60e11b81523060048201526001600160a01b037f000000000000000000000000000000000000000000000000000000000000000081166024830152919091169063dd62ed3e90604401602060405180830381865afa158015612cda573d6000803e3d6000fd5b505050506040513d601f19601f82011682018060405250810190612cfe9190614696565b9050838383818110612d1257612d1261465e565b9050602002810190612d249190614a26565b612d35906040810190602001613fa3565b6001600160a01b031663095ea7b37f000000000000000000000000000000000000000000000000000000000000000083878787818110612d7757612d7761465e565b9050602002810190612d899190614a26565b60400135612d979190613cb0565b6040516001600160e01b031960e085901b1681526001600160a01b03909216600483015260248201526044016020604051808303816000875af1158015612de2573d6000803e3d6000fd5b505050506040513d601f19601f82011682018060405250810190612e069190614a51565b505080612e12906146fb565b9050612b48565b5060405163fce36c7d60e01b81526001600160a01b037f0000000000000000000000000000000000000000000000000000000000000000169063fce36c7d906120ca9085908590600401614ac9565b600083612e7686858561380f565b1495945050505050565b6040805180820190915260008082526020820152612e9c613bc0565b835181526020808501519082015260408082018490526000908360608460076107d05a03fa9050808015612ecf57612ed1565bfe5b5080612f0f5760405162461bcd60e51b815260206004820152600d60248201526c1958cb5b5d5b0b59985a5b1959609a1b6044820152606401610ec2565b505092915050565b6040805180820190915260008082526020820152612f33613bde565b835181526020808501518183015283516040808401919091529084015160608301526000908360808460066107d05a03fa9050808015612ecf575080612f0f5760405162461bcd60e51b815260206004820152600d60248201526c1958cb5859190b59985a5b1959609a1b6044820152606401610ec2565b612fb3613bfc565b50604080516080810182527f198e9393920d483a7260bfb731fb5d25f1aa493335a9e71297e485b7aef312c28183019081527f1800deef121f1e76426a00665e5c4479674322d4f75edadd46debd5cd992f6ed6060830152815281518083019092527f275dc4a288d1afb3cbb1ac09187524c7db36395df7be3b99e673b13a075a65ec82527f1d9befcd05a5323e6da4d435f3b617cdb3af83285c2df711ef39c01571827f9d60208381019190915281019190915290565b60408051808201909152600080825260208201526000808061309b600080516020614bf983398151915286614674565b90505b6130a781613909565b9093509150600080516020614bf98339815191528283098314156130e1576040805180820190915290815260208101919091529392505050565b600080516020614bf983398151915260018208905061309e565b60408051808201825286815260208082018690528251808401909352868352820184905260009182919061312d613c21565b60005b60028110156132f25760006131468260066149f4565b905084826002811061315a5761315a61465e565b6020020151518361316c836000613cb0565b600c811061317c5761317c61465e565b60200201528482600281106131935761319361465e565b602002015160200151838260016131aa9190613cb0565b600c81106131ba576131ba61465e565b60200201528382600281106131d1576131d161465e565b60200201515151836131e4836002613cb0565b600c81106131f4576131f461465e565b602002015283826002811061320b5761320b61465e565b6020020151516001602002015183613224836003613cb0565b600c81106132345761323461465e565b602002015283826002811061324b5761324b61465e565b6020020151602001516000600281106132665761326661465e565b602002015183613277836004613cb0565b600c81106132875761328761465e565b602002015283826002811061329e5761329e61465e565b6020020151602001516001600281106132b9576132b961465e565b6020020151836132ca836005613cb0565b600c81106132da576132da61465e565b602002015250806132ea816146fb565b915050613130565b506132fb613c40565b60006020826101808560088cfa9151919c9115159b50909950505050505050505050565b606060008061332d8461357e565b61ffff166001600160401b0381111561334857613348613cc8565b6040519080825280601f01601f191660200182016040528015613372576020820181803683370190505b5090506000805b82518210801561338a575061010081105b15612abd576001811b9350858416156133d1578060f81b8383815181106133b3576133b361465e565b60200101906001600160f81b031916908160001a9053508160010191505b6133da816146fb565b9050613379565b6033546001600160a01b0316331461200d5760405162461bcd60e51b815260206004820181905260248201527f4f776e61626c653a2063616c6c6572206973206e6f7420746865206f776e65726044820152606401610ec2565b606554604080516001600160a01b03928316815291831660208301527fe11cddf1816a43318ca175bbc52cd0185436e9cbead7c83acc54a73e461717e3910160405180910390a1606580546001600160a01b0319166001600160a01b0392909216919091179055565b6097805460ff19168215159081179091556040519081527f40e4ed880a29e0f6ddce307457fb75cddf4feef7d3ecb0301bfdf4976a0e2dfc9060200160405180910390a150565b6000806134f78461398b565b9050808360ff166001901b116135755760405162461bcd60e51b815260206004820152603f60248201527f4269746d61705574696c732e6f72646572656442797465734172726179546f4260448201527f69746d61703a206269746d61702065786365656473206d61782076616c7565006064820152608401610ec2565b90505b92915050565b6000805b821561357857613593600184614789565b90921691806135a181614bd6565b915050613582565b60408051808201909152600080825260208201526102008261ffff16106136055760405162461bcd60e51b815260206004820152601060248201526f7363616c61722d746f6f2d6c6172676560801b6044820152606401610ec2565b8161ffff1660011415613619575081613578565b6040805180820190915260008082526020820181905284906001905b8161ffff168661ffff161061368257600161ffff871660ff83161c81161415613665576136628484612f17565b93505b61366f8384612f17565b92506201fffe600192831b169101613635565b509195945050505050565b604080518082019091526000808252602082015281511580156136b257506020820151155b156136d0575050604080518082019091526000808252602082015290565b604051806040016040528083600001518152602001600080516020614bf983398151915284602001516137039190614674565b61371b90600080516020614bf9833981519152614789565b905292915050565b919050565b603380546001600160a01b038381166001600160a01b0319831681179093556040519116919082907f8be0079c531659141344cd1fd0a4f28419497f9722a3daafe3b4186f6b6457e090600090a35050565b6065546001600160a01b0316331461200d5760405162461bcd60e51b815260206004820152604c60248201527f536572766963654d616e61676572426173652e6f6e6c7952657761726473496e60448201527f69746961746f723a2063616c6c6572206973206e6f742074686520726577617260648201526b32399034b734ba34b0ba37b960a11b608482015260a401610ec2565b60006020845161381f9190614674565b156138a65760405162461bcd60e51b815260206004820152604b60248201527f4d65726b6c652e70726f63657373496e636c7573696f6e50726f6f664b65636360448201527f616b3a2070726f6f66206c656e6774682073686f756c642062652061206d756c60648201526a3a34b836329037b310199960a91b608482015260a401610ec2565b8260205b85518111610a81576138bd600285614674565b6138de578160005280860151602052604060002091506002840493506138f7565b8086015160005281602052604060002091506002840493505b613902602082613cb0565b90506138aa565b60008080600080516020614bf98339815191526003600080516020614bf983398151915286600080516020614bf983398151915288890909089050600061397f827f0c19139cb84c680a6e14116da060561765e05aa45a1c72a34f082305b61f3f52600080516020614bf9833981519152613b18565b91959194509092505050565b600061010082511115613a145760405162461bcd60e51b8152602060048201526044602482018190527f4269746d61705574696c732e6f72646572656442797465734172726179546f42908201527f69746d61703a206f7264657265644279746573417272617920697320746f6f206064820152636c6f6e6760e01b608482015260a401610ec2565b8151613a2257506000919050565b60008083600081518110613a3857613a3861465e565b0160200151600160f89190911c81901b92505b8451811015613b0f57848181518110613a6657613a6661465e565b0160200151600160f89190911c1b9150828211613afb5760405162461bcd60e51b815260206004820152604760248201527f4269746d61705574696c732e6f72646572656442797465734172726179546f4260448201527f69746d61703a206f72646572656442797465734172726179206973206e6f74206064820152661bdc99195c995960ca1b608482015260a401610ec2565b91811791613b08816146fb565b9050613a4b565b50909392505050565b600080613b23613c40565b613b2b613c5e565b602080825281810181905260408201819052606082018890526080820187905260a082018690528260c08360056107d05a03fa9250828015612ecf575082613bb55760405162461bcd60e51b815260206004820152601a60248201527f424e3235342e6578704d6f643a2063616c6c206661696c7572650000000000006044820152606401610ec2565b505195945050505050565b60405180606001604052806003906020820280368337509192915050565b60405180608001604052806004906020820280368337509192915050565b6040518060400160405280613c0f613c7c565b8152602001613c1c613c7c565b905290565b604051806101800160405280600c906020820280368337509192915050565b60405180602001604052806001906020820280368337509192915050565b6040518060c001604052806006906020820280368337509192915050565b60405180604001604052806002906020820280368337509192915050565b634e487b7160e01b600052601160045260246000fd5b60008219821115613cc357613cc3613c9a565b500190565b634e487b7160e01b600052604160045260246000fd5b604080519081016001600160401b0381118282101715613d0057613d00613cc8565b60405290565b60405161010081016001600160401b0381118282101715613d0057613d00613cc8565b604051601f8201601f191681016001600160401b0381118282101715613d5157613d51613cc8565b604052919050565b60006001600160401b03831115613d7257613d72613cc8565b613d85601f8401601f1916602001613d29565b9050828152838383011115613d9957600080fd5b828260208301376000602084830101529392505050565b600082601f830112613dc157600080fd5b613dd083833560208501613d59565b9392505050565b6001600160a01b0381168114610d9557600080fd5b600080600080600080600080610100898b031215613e0957600080fd5b88359750602089013596506040890135955060608901356bffffffffffffffffffffffff1981168114613e3b57600080fd5b94506080890135935060a08901356001600160401b03811115613e5d57600080fd5b613e698b828c01613db0565b93505060c0890135915060e0890135613e8181613dd7565b809150509295985092959890939650565b600060408284031215613ea457600080fd5b613eac613cde565b9050813581526020820135602082015292915050565b600082601f830112613ed357600080fd5b613edb613cde565b806040840185811115613eed57600080fd5b845b81811015613f07578035845260209384019301613eef565b509095945050505050565b600060808284031215613f2457600080fd5b613f2c613cde565b9050613f388383613ec2565b8152613f478360408401613ec2565b602082015292915050565b6000806000806101208587031215613f6957600080fd5b84359350613f7a8660208701613e92565b9250613f898660608701613f12565b9150613f988660e08701613e92565b905092959194509250565b600060208284031215613fb557600080fd5b813561357581613dd7565b6020808252825182820181905260009190848201906040850190845b818110156140015783516001600160a01b031683529284019291840191600101613fdc565b50909695505050505050565b8015158114610d9557600080fd5b60006020828403121561402d57600080fd5b81356135758161400d565b803563ffffffff8116811461372357600080fd5b60006001600160401b0382111561406557614065613cc8565b5060051b60200190565b600082601f83011261408057600080fd5b813560206140956140908361404c565b613d29565b82815260059290921b840181019181810190868411156140b457600080fd5b8286015b848110156140d6576140c981614038565b83529183019183016140b8565b509695505050505050565b600082601f8301126140f257600080fd5b813560206141026140908361404c565b82815260069290921b8401810191818101908684111561412157600080fd5b8286015b848110156140d6576141378882613e92565b835291830191604001614125565b600082601f83011261415657600080fd5b813560206141666140908361404c565b82815260059290921b8401810191818101908684111561418557600080fd5b8286015b848110156140d65780356001600160401b038111156141a85760008081fd5b6141b68986838b010161406f565b845250918301918301614189565b600061018082840312156141d757600080fd5b6141df613d06565b905081356001600160401b03808211156141f857600080fd5b6142048583860161406f565b8352602084013591508082111561421a57600080fd5b614226858386016140e1565b6020840152604084013591508082111561423f57600080fd5b61424b858386016140e1565b604084015261425d8560608601613f12565b606084015261426f8560e08601613e92565b608084015261012084013591508082111561428957600080fd5b6142958583860161406f565b60a08401526101408401359150808211156142af57600080fd5b6142bb8583860161406f565b60c08401526101608401359150808211156142d557600080fd5b506142e284828501614145565b60e08301525092915050565b60008060006060848603121561430357600080fd5b8335925061431360208501614038565b915060408401356001600160401b0381111561432e57600080fd5b61433a868287016141c4565b9150509250925092565b600081518084526020808501945080840160005b8381101561437d5781516001600160601b031687529582019590820190600101614358565b509495945050505050565b60408152600083516040808401526143a36080840182614344565b90506020850151603f198483030160608501526143c08282614344565b925050508260208301529392505050565b60008083601f8401126143e357600080fd5b5081356001600160401b038111156143fa57600080fd5b60208301915083602082850101111561441257600080fd5b9250929050565b60008060006040848603121561442e57600080fd5b8335925060208401356001600160401b0381111561444b57600080fd5b614457868287016143d1565b9497909650939450505050565b60008060006040848603121561447957600080fd5b83356001600160401b0381111561448f57600080fd5b61449b868287016143d1565b909790965060209590950135949350505050565b600080604083850312156144c257600080fd5b82356144cd81613dd7565b915060208301356001600160401b03808211156144e957600080fd5b90840190606082870312156144fd57600080fd5b60405160608101818110838211171561451857614518613cc8565b60405282358281111561452a57600080fd5b61453688828601613db0565b82525060208301356020820152604083013560408201528093505050509250929050565b60008060006060848603121561456f57600080fd5b83359250602084013561431381613dd7565b60006020828403121561459357600080fd5b81356001600160401b038111156145a957600080fd5b8201601f810184136145ba57600080fd5b6145c984823560208401613d59565b949350505050565b6000602082840312156145e357600080fd5b5035919050565b600080602083850312156145fd57600080fd5b82356001600160401b038082111561461457600080fd5b818501915085601f83011261462857600080fd5b81358181111561463757600080fd5b8660208260051b850101111561464c57600080fd5b60209290920196919550909350505050565b634e487b7160e01b600052603260045260246000fd5b60008261469157634e487b7160e01b600052601260045260246000fd5b500690565b6000602082840312156146a857600080fd5b5051919050565b6000602082840312156146c157600080fd5b81516001600160c01b038116811461357557600080fd5b6000602082840312156146ea57600080fd5b815160ff8116811461357557600080fd5b600060001982141561470f5761470f613c9a565b5060010190565b6001600160601b0381168114610d9557600080fd5b60006040828403121561473d57600080fd5b614745613cde565b825161475081613dd7565b8152602083015161476081614716565b60208201529392505050565b60006020828403121561477e57600080fd5b815161357581613dd7565b60008282101561479b5761479b613c9a565b500390565b6000602082840312156147b257600080fd5b815167ffffffffffffffff198116811461357557600080fd5b6000602082840312156147dd57600080fd5b815161357581614716565b60006001600160601b038381169083168181101561480857614808613c9a565b039392505050565b63ffffffff60e01b8360e01b1681526000600482018351602080860160005b8381101561484b5781518552938201939082019060010161482f565b5092979650505050505050565b6001600160a01b038516815263ffffffff841660208201526060604082018190528101829052818360808301376000818301608090810191909152601f909201601f191601019392505050565b8183823760009101908152919050565b60208082526052908201527f536572766963654d616e61676572426173652e6f6e6c7952656769737472794360408201527f6f6f7264696e61746f723a2063616c6c6572206973206e6f742074686520726560608201527133b4b9ba393c9031b7b7b93234b730ba37b960711b608082015260a00190565b6000815180845260005b8181101561495357602081850181015186830182015201614937565b81811115614965576000602083870101525b50601f01601f19169290920160200192915050565b60018060a01b03831681526040602082015260008251606060408401526149a460a084018261492d565b90506020840151606084015260408401516080840152809150509392505050565b60006001600160601b03808316818516818304811182151516156149eb576149eb613c9a565b02949350505050565b6000816000190483118215151615614a0e57614a0e613c9a565b500290565b602081526000613dd0602083018461492d565b60008235609e19833603018112614a3c57600080fd5b9190910192915050565b803561372381613dd7565b600060208284031215614a6357600080fd5b81516135758161400d565b8183526000602080850194508260005b8581101561437d578135614a9181613dd7565b6001600160a01b0316875281830135614aa981614716565b6001600160601b0316878401526040968701969190910190600101614a7e565b60208082528181018390526000906040808401600586901b8501820187855b88811015614bc857878303603f190184528135368b9003609e19018112614b0e57600080fd5b8a0160a0813536839003601e19018112614b2757600080fd5b820180356001600160401b03811115614b3f57600080fd5b8060061b3603841315614b5157600080fd5b828752614b63838801828c8501614a6e565b92505050614b72888301614a46565b6001600160a01b03168886015281870135878601526060614b94818401614038565b63ffffffff16908601526080614bab838201614038565b63ffffffff16950194909452509285019290850190600101614ae8565b509098975050505050505050565b600061ffff80831681811415614bee57614bee613c9a565b600101939250505056fe30644e72e131a029b85045b68181585d97816a916871ca8d3c208c16d87cfd47424c535369676e6174757265436865636b65722e636865636b5369676e617475a264697066735822122097b8dcaa446137a6efbce710ce69664eb60d9beeea15c9011cb85d335ade5e8264736f6c634300080c0033","linkReferences":{}},"methodIdentifiers":{"avsDirectory()":"6b3aa72e","balanceOf(address)":"70a08231","batchesState(bytes32)":"b099627e","blsApkRegistry()":"5df45946","checkPublicInput(bytes,bytes32)":"95c6d604","checkSignatures(bytes32,uint32,(uint32[],(uint256,uint256)[],(uint256,uint256)[],(uint256[2],uint256[2]),(uint256,uint256),uint32[],uint32[],uint32[][]))":"4ae07c37","createAVSRewardsSubmission(((address,uint96)[],address,uint256,uint32,uint32)[])":"fce36c7d","createNewTask(bytes32,string)":"5c008994","delegation()":"df5cf723","deregisterOperatorFromAVS(address)":"a364f4da","getOperatorRestakedStrategies(address)":"33cfb7b7","getRestakeableStrategies()":"e481af9d","initialize(address)":"c4d66de8","owner()":"8da5cb5b","registerOperatorToAVS(address,(bytes,bytes32,uint256))":"9926ee7d","registryCoordinator()":"6d14a987","renounceOwnership()":"715018a6","respondToTask(bytes32,address,(uint32[],(uint256,uint256)[],(uint256,uint256)[],(uint256[2],uint256[2]),(uint256,uint256),uint32[],uint32[],uint32[][]))":"a5a3fab1","rewardsInitiator()":"fc299dee","setRewardsInitiator(address)":"3bc28c8c","setStaleStakesForbidden(bool)":"416c7e5e","stakeRegistry()":"68304835","staleStakesForbidden()":"b98d0908","transferOwnership(address)":"f2fde38b","trySignatureAndApkVerification(bytes32,(uint256,uint256),(uint256[2],uint256[2]),(uint256,uint256))":"171f1d5b","updateAVSMetadataURI(string)":"a98fb355","verifyBatchInclusion(bytes32,bytes32,bytes32,bytes20,bytes32,bytes,uint256,address)":"06045a91"},"id":179}