{"abi":[{"type":"constructor","inputs":[{"name":"__avsDirectory","type":"address","internalType":"contract IAVSDirectory"},{"name":"__rewardsCoordinator","type":"address","internalType":"contract IRewardsCoordinator"},{"name":"__registryCoordinator","type":"address","internalType":"contract IRegistryCoordinator"},{"name":"__stakeRegistry","type":"address","internalType":"contract IStakeRegistry"}],"stateMutability":"nonpayable"},{"type":"receive","stateMutability":"payable"},{"type":"function","name":"avsDirectory","inputs":[],"outputs":[{"name":"","type":"address","internalType":"address"}],"stateMutability":"view"},{"type":"function","name":"balanceOf","inputs":[{"name":"account","type":"address","internalType":"address"}],"outputs":[{"name":"","type":"uint256","internalType":"uint256"}],"stateMutability":"view"},{"type":"function","name":"batchesState","inputs":[{"name":"","type":"bytes32","internalType":"bytes32"}],"outputs":[{"name":"taskCreatedBlock","type":"uint32","internalType":"uint32"},{"name":"responded","type":"bool","internalType":"bool"}],"stateMutability":"view"},{"type":"function","name":"blsApkRegistry","inputs":[],"outputs":[{"name":"","type":"address","internalType":"contract IBLSApkRegistry"}],"stateMutability":"view"},{"type":"function","name":"checkPublicInput","inputs":[{"name":"publicInput","type":"bytes","internalType":"bytes"},{"name":"hash","type":"bytes32","internalType":"bytes32"}],"outputs":[{"name":"","type":"bool","internalType":"bool"}],"stateMutability":"pure"},{"type":"function","name":"checkSignatures","inputs":[{"name":"msgHash","type":"bytes32","internalType":"bytes32"},{"name":"referenceBlockNumber","type":"uint32","internalType":"uint32"},{"name":"params","type":"tuple","internalType":"struct IBLSSignatureChecker.NonSignerStakesAndSignature","components":[{"name":"nonSignerQuorumBitmapIndices","type":"uint32[]","internalType":"uint32[]"},{"name":"nonSignerPubkeys","type":"tuple[]","internalType":"struct BN254.G1Point[]","components":[{"name":"X","type":"uint256","internalType":"uint256"},{"name":"Y","type":"uint256","internalType":"uint256"}]},{"name":"quorumApks","type":"tuple[]","internalType":"struct BN254.G1Point[]","components":[{"name":"X","type":"uint256","internalType":"uint256"},{"name":"Y","type":"uint256","internalType":"uint256"}]},{"name":"apkG2","type":"tuple","internalType":"struct BN254.G2Point","components":[{"name":"X","type":"uint256[2]","internalType":"uint256[2]"},{"name":"Y","type":"uint256[2]","internalType":"uint256[2]"}]},{"name":"sigma","type":"tuple","internalType":"struct BN254.G1Point","components":[{"name":"X","type":"uint256","internalType":"uint256"},{"name":"Y","type":"uint256","internalType":"uint256"}]},{"name":"quorumApkIndices","type":"uint32[]","internalType":"uint32[]"},{"name":"totalStakeIndices","type":"uint32[]","internalType":"uint32[]"},{"name":"nonSignerStakeIndices","type":"uint32[][]","internalType":"uint32[][]"}]}],"outputs":[{"name":"","type":"tuple","internalType":"struct IBLSSignatureChecker.QuorumStakeTotals","components":[{"name":"signedStakeForQuorum","type":"uint96[]","internalType":"uint96[]"},{"name":"totalStakeForQuorum","type":"uint96[]","internalType":"uint96[]"}]},{"name":"","type":"bytes32","internalType":"bytes32"}],"stateMutability":"view"},{"type":"function","name":"createAVSRewardsSubmission","inputs":[{"name":"rewardsSubmissions","type":"tuple[]","internalType":"struct IRewardsCoordinator.RewardsSubmission[]","components":[{"name":"strategiesAndMultipliers","type":"tuple[]","internalType":"struct IRewardsCoordinator.StrategyAndMultiplier[]","components":[{"name":"strategy","type":"address","internalType":"contract IStrategy"},{"name":"multiplier","type":"uint96","internalType":"uint96"}]},{"name":"token","type":"address","internalType":"contract IERC20"},{"name":"amount","type":"uint256","internalType":"uint256"},{"name":"startTimestamp","type":"uint32","internalType":"uint32"},{"name":"duration","type":"uint32","internalType":"uint32"}]}],"outputs":[],"stateMutability":"nonpayable"},{"type":"function","name":"createNewTask","inputs":[{"name":"batchMerkleRoot","type":"bytes32","internalType":"bytes32"},{"name":"batchDataPointer","type":"string","internalType":"string"}],"outputs":[],"stateMutability":"payable"},{"type":"function","name":"delegation","inputs":[],"outputs":[{"name":"","type":"address","internalType":"contract IDelegationManager"}],"stateMutability":"view"},{"type":"function","name":"deregisterOperatorFromAVS","inputs":[{"name":"operator","type":"address","internalType":"address"}],"outputs":[],"stateMutability":"nonpayable"},{"type":"function","name":"getOperatorRestakedStrategies","inputs":[{"name":"operator","type":"address","internalType":"address"}],"outputs":[{"name":"","type":"address[]","internalType":"address[]"}],"stateMutability":"view"},{"type":"function","name":"getRestakeableStrategies","inputs":[],"outputs":[{"name":"","type":"address[]","internalType":"address[]"}],"stateMutability":"view"},{"type":"function","name":"initialize","inputs":[{"name":"_initialOwner","type":"address","internalType":"address"}],"outputs":[],"stateMutability":"nonpayable"},{"type":"function","name":"owner","inputs":[],"outputs":[{"name":"","type":"address","internalType":"address"}],"stateMutability":"view"},{"type":"function","name":"registerOperatorToAVS","inputs":[{"name":"operator","type":"address","internalType":"address"},{"name":"operatorSignature","type":"tuple","internalType":"struct ISignatureUtils.SignatureWithSaltAndExpiry","components":[{"name":"signature","type":"bytes","internalType":"bytes"},{"name":"salt","type":"bytes32","internalType":"bytes32"},{"name":"expiry","type":"uint256","internalType":"uint256"}]}],"outputs":[],"stateMutability":"nonpayable"},{"type":"function","name":"registryCoordinator","inputs":[],"outputs":[{"name":"","type":"address","internalType":"contract IRegistryCoordinator"}],"stateMutability":"view"},{"type":"function","name":"renounceOwnership","inputs":[],"outputs":[],"stateMutability":"nonpayable"},{"type":"function","name":"respondToTask","inputs":[{"name":"batchMerkleRoot","type":"bytes32","internalType":"bytes32"},{"name":"senderAddress","type":"address","internalType":"address"},{"name":"nonSignerStakesAndSignature","type":"tuple","internalType":"struct IBLSSignatureChecker.NonSignerStakesAndSignature","components":[{"name":"nonSignerQuorumBitmapIndices","type":"uint32[]","internalType":"uint32[]"},{"name":"nonSignerPubkeys","type":"tuple[]","internalType":"struct BN254.G1Point[]","components":[{"name":"X","type":"uint256","internalType":"uint256"},{"name":"Y","type":"uint256","internalType":"uint256"}]},{"name":"quorumApks","type":"tuple[]","internalType":"struct BN254.G1Point[]","components":[{"name":"X","type":"uint256","internalType":"uint256"},{"name":"Y","type":"uint256","internalType":"uint256"}]},{"name":"apkG2","type":"tuple","internalType":"struct BN254.G2Point","components":[{"name":"X","type":"uint256[2]","internalType":"uint256[2]"},{"name":"Y","type":"uint256[2]","internalType":"uint256[2]"}]},{"name":"sigma","type":"tuple","internalType":"struct BN254.G1Point","components":[{"name":"X","type":"uint256","internalType":"uint256"},{"name":"Y","type":"uint256","internalType":"uint256"}]},{"name":"quorumApkIndices","type":"uint32[]","internalType":"uint32[]"},{"name":"totalStakeIndices","type":"uint32[]","internalType":"uint32[]"},{"name":"nonSignerStakeIndices","type":"uint32[][]","internalType":"uint32[][]"}]}],"outputs":[],"stateMutability":"nonpayable"},{"type":"function","name":"rewardsInitiator","inputs":[],"outputs":[{"name":"","type":"address","internalType":"address"}],"stateMutability":"view"},{"type":"function","name":"setRewardsInitiator","inputs":[{"name":"newRewardsInitiator","type":"address","internalType":"address"}],"outputs":[],"stateMutability":"nonpayable"},{"type":"function","name":"setStaleStakesForbidden","inputs":[{"name":"value","type":"bool","internalType":"bool"}],"outputs":[],"stateMutability":"nonpayable"},{"type":"function","name":"stakeRegistry","inputs":[],"outputs":[{"name":"","type":"address","internalType":"contract IStakeRegistry"}],"stateMutability":"view"},{"type":"function","name":"staleStakesForbidden","inputs":[],"outputs":[{"name":"","type":"bool","internalType":"bool"}],"stateMutability":"view"},{"type":"function","name":"transferOwnership","inputs":[{"name":"newOwner","type":"address","internalType":"address"}],"outputs":[],"stateMutability":"nonpayable"},{"type":"function","name":"trySignatureAndApkVerification","inputs":[{"name":"msgHash","type":"bytes32","internalType":"bytes32"},{"name":"apk","type":"tuple","internalType":"struct BN254.G1Point","components":[{"name":"X","type":"uint256","internalType":"uint256"},{"name":"Y","type":"uint256","internalType":"uint256"}]},{"name":"apkG2","type":"tuple","internalType":"struct BN254.G2Point","components":[{"name":"X","type":"uint256[2]","internalType":"uint256[2]"},{"name":"Y","type":"uint256[2]","internalType":"uint256[2]"}]},{"name":"sigma","type":"tuple","internalType":"struct BN254.G1Point","components":[{"name":"X","type":"uint256","internalType":"uint256"},{"name":"Y","type":"uint256","internalType":"uint256"}]}],"outputs":[{"name":"pairingSuccessful","type":"bool","internalType":"bool"},{"name":"siganatureIsValid","type":"bool","internalType":"bool"}],"stateMutability":"view"},{"type":"function","name":"updateAVSMetadataURI","inputs":[{"name":"_metadataURI","type":"string","internalType":"string"}],"outputs":[],"stateMutability":"nonpayable"},{"type":"function","name":"verifyBatchInclusion","inputs":[{"name":"proofCommitment","type":"bytes32","internalType":"bytes32"},{"name":"pubInputCommitment","type":"bytes32","internalType":"bytes32"},{"name":"provingSystemAuxDataCommitment","type":"bytes32","internalType":"bytes32"},{"name":"proofGeneratorAddr","type":"bytes20","internalType":"bytes20"},{"name":"batchMerkleRoot","type":"bytes32","internalType":"bytes32"},{"name":"merkleProof","type":"bytes","internalType":"bytes"},{"name":"verificationDataBatchIndex","type":"uint256","internalType":"uint256"},{"name":"senderAddress","type":"address","internalType":"address"}],"outputs":[{"name":"","type":"bool","internalType":"bool"}],"stateMutability":"view"},{"type":"event","name":"BatchVerified","inputs":[{"name":"batchMerkleRoot","type":"bytes32","indexed":true,"internalType":"bytes32"},{"name":"senderAddress","type":"address","indexed":false,"internalType":"address"}],"anonymous":false},{"type":"event","name":"Initialized","inputs":[{"name":"version","type":"uint8","indexed":false,"internalType":"uint8"}],"anonymous":false},{"type":"event","name":"NewBatch","inputs":[{"name":"batchMerkleRoot","type":"bytes32","indexed":true,"internalType":"bytes32"},{"name":"senderAddress","type":"address","indexed":false,"internalType":"address"},{"name":"taskCreatedBlock","type":"uint32","indexed":false,"internalType":"uint32"},{"name":"batchDataPointer","type":"string","indexed":false,"internalType":"string"}],"anonymous":false},{"type":"event","name":"OwnershipTransferred","inputs":[{"name":"previousOwner","type":"address","indexed":true,"internalType":"address"},{"name":"newOwner","type":"address","indexed":true,"internalType":"address"}],"anonymous":false},{"type":"event","name":"RewardsInitiatorUpdated","inputs":[{"name":"prevRewardsInitiator","type":"address","indexed":false,"internalType":"address"},{"name":"newRewardsInitiator","type":"address","indexed":false,"internalType":"address"}],"anonymous":false},{"type":"event","name":"StaleStakesForbiddenUpdate","inputs":[{"name":"value","type":"bool","indexed":false,"internalType":"bool"}],"anonymous":false}],"bytecode":{"object":"0x6101806040523480156200001257600080fd5b50604051620050cf380380620050cf8339810160408190526200003591620002e5565b6001600160a01b0380851660805280841660a05280831660c052811660e0528184848284620000636200020a565b50505050806001600160a01b0316610100816001600160a01b031681525050806001600160a01b031663683048356040518163ffffffff1660e01b8152600401602060405180830381865afa158015620000c1573d6000803e3d6000fd5b505050506040513d601f19601f82011682018060405250810190620000e791906200034d565b6001600160a01b0316610120816001600160a01b031681525050806001600160a01b0316635df459466040518163ffffffff1660e01b8152600401602060405180830381865afa15801562000140573d6000803e3d6000fd5b505050506040513d601f19601f820116820180604052508101906200016691906200034d565b6001600160a01b0316610140816001600160a01b031681525050610120516001600160a01b031663df5cf7236040518163ffffffff1660e01b8152600401602060405180830381865afa158015620001c2573d6000803e3d6000fd5b505050506040513d601f19601f82011682018060405250810190620001e891906200034d565b6001600160a01b03166101605250620002006200020a565b5050505062000374565b600054610100900460ff1615620002775760405162461bcd60e51b815260206004820152602760248201527f496e697469616c697a61626c653a20636f6e747261637420697320696e697469604482015266616c697a696e6760c81b606482015260840160405180910390fd5b60005460ff9081161015620002ca576000805460ff191660ff9081179091556040519081527f7f26b83ff96e1f2b6a682f133852f6798a09c465da95921460cefb38474024989060200160405180910390a15b565b6001600160a01b0381168114620002e257600080fd5b50565b60008060008060808587031215620002fc57600080fd5b84516200030981620002cc565b60208601519094506200031c81620002cc565b60408601519093506200032f81620002cc565b60608601519092506200034281620002cc565b939692955090935050565b6000602082840312156200036057600080fd5b81516200036d81620002cc565b9392505050565b60805160a05160c05160e05161010051610120516101405161016051614c4d620004826000396000818161059201526115650152600081816102fe015261177801526000818161034a015281816119650152611b550152600081816103b101528181610d7c01528181611221015281816113c80152611619015260008181610a9101528181610bec01528181610c830152818161278f0152818161291201526129b10152600081816108b801528181610947015281816109c70152818161200e015281816120da015281816126cd015261286d015260008181612c5201528181612d0e0152612dfa01526000818161037b0152818161206201528181612136015261257f0152614c4d6000f3fe6080604052600436106101a05760003560e01c80638da5cb5b116100ec578063b98d09081161008a578063e481af9d11610064578063e481af9d146105b4578063f2fde38b146105c9578063fc299dee146105e9578063fce36c7d1461060957600080fd5b8063b98d090814610546578063c4d66de814610560578063df5cf7231461058057600080fd5b8063a364f4da116100c6578063a364f4da1461048a578063a5a3fab1146104aa578063a98fb355146104ca578063b099627e146104ea57600080fd5b80638da5cb5b1461042c57806395c6d6041461044a5780639926ee7d1461046a57600080fd5b80635c008994116101595780636b3aa72e116101335780636b3aa72e1461036c5780636d14a9871461039f57806370a08231146103d3578063715018a61461041757600080fd5b80635c008994146102d95780635df45946146102ec578063683048351461033857600080fd5b806306045a91146101d0578063171f1d5b1461020557806333cfb7b71461023c5780633bc28c8c14610269578063416c7e5e1461028b5780634ae07c37146102ab57600080fd5b366101cb5733600090815260ca6020526040812080543492906101c4908490613c79565b9091555050005b600080fd5b3480156101dc57600080fd5b506101f06101eb366004613db5565b610629565b60405190151581526020015b60405180910390f35b34801561021157600080fd5b50610225610220366004613f16565b610709565b6040805192151583529015156020830152016101fc565b34801561024857600080fd5b5061025c610257366004613f67565b610893565b6040516101fc9190613f84565b34801561027557600080fd5b50610289610284366004613f67565b610d66565b005b34801561029757600080fd5b506102896102a6366004613fdf565b610d7a565b3480156102b757600080fd5b506102cb6102c63660046142b2565b610eb6565b6040516101fc92919061434c565b6102896102e73660046143dd565b611e1f565b3480156102f857600080fd5b506103207f000000000000000000000000000000000000000000000000000000000000000081565b6040516001600160a01b0390911681526020016101fc565b34801561034457600080fd5b506103207f000000000000000000000000000000000000000000000000000000000000000081565b34801561037857600080fd5b507f0000000000000000000000000000000000000000000000000000000000000000610320565b3480156103ab57600080fd5b506103207f000000000000000000000000000000000000000000000000000000000000000081565b3480156103df57600080fd5b506104096103ee366004613f67565b6001600160a01b0316600090815260ca602052604090205490565b6040519081526020016101fc565b34801561042357600080fd5b50610289611fca565b34801561043857600080fd5b506033546001600160a01b0316610320565b34801561045657600080fd5b506101f0610465366004614428565b611fde565b34801561047657600080fd5b50610289610485366004614473565b612003565b34801561049657600080fd5b506102896104a5366004613f67565b6120cf565b3480156104b657600080fd5b506102896104c536600461451e565b612196565b3480156104d657600080fd5b506102896104e5366004614545565b612560565b3480156104f657600080fd5b5061052a610505366004614595565b60c96020526000908152604090205463ffffffff811690640100000000900460ff1682565b6040805163ffffffff90931683529015156020830152016101fc565b34801561055257600080fd5b506097546101f09060ff1681565b34801561056c57600080fd5b5061028961057b366004613f67565b6125b4565b34801561058c57600080fd5b506103207f000000000000000000000000000000000000000000000000000000000000000081565b3480156105c057600080fd5b5061025c6126c7565b3480156105d557600080fd5b506102896105e4366004613f67565b612a90565b3480156105f557600080fd5b50606554610320906001600160a01b031681565b34801561061557600080fd5b506102896106243660046145ae565b612b06565b600080858360405160200161063f929190614622565b60408051601f198184030181529181528151602092830120600081815260c990935291205490915063ffffffff1661067b5760009150506106fd565b600081815260c96020526040902054640100000000900460ff166106a35760009150506106fd565b60408051602081018c90529081018a9052606081018990526001600160601b03198816608082015260009060940160408051601f19818403018152919052805160208201209091506106f787848389612e31565b93505050505b98975050505050505050565b60008060007f30644e72e131a029b85045b68181585d2833e84879b9709143e1f593f0000001878760000151886020015188600001516000600281106107515761075161463d565b60200201518951600160200201518a602001516000600281106107765761077661463d565b60200201518b602001516001600281106107925761079261463d565b602090810291909101518c518d8301516040516107ef9a99989796959401988952602089019790975260408801959095526060870193909352608086019190915260a085015260c084015260e08301526101008201526101200190565b6040516020818303038152906040528051906020012060001c6108129190614653565b905061088561082b6108248884612e49565b8690612ee0565b610833612f74565b61087b61086c85610866604080518082018252600080825260209182015281518083019092526001825260029082015290565b90612e49565b6108758c613034565b90612ee0565b886201d4c06130c4565b909890975095505050505050565b6040516309aa152760e11b81526001600160a01b0382811660048301526060916000917f000000000000000000000000000000000000000000000000000000000000000016906313542a4e90602401602060405180830381865afa1580156108ff573d6000803e3d6000fd5b505050506040513d601f19601f820116820180604052508101906109239190614675565b60405163871ef04960e01b8152600481018290529091506000906001600160a01b037f0000000000000000000000000000000000000000000000000000000000000000169063871ef04990602401602060405180830381865afa15801561098e573d6000803e3d6000fd5b505050506040513d601f19601f820116820180604052508101906109b2919061468e565b90506001600160c01b0381161580610a4c57507f00000000000000000000000000000000000000000000000000000000000000006001600160a01b0316639aa1653d6040518163ffffffff1660e01b8152600401602060405180830381865afa158015610a23573d6000803e3d6000fd5b505050506040513d601f19601f82011682018060405250810190610a4791906146b7565b60ff16155b15610a6c5760408051600080825260208201909252905b50949350505050565b6000610a80826001600160c01b03166132e8565b90506000805b8251811015610b56577f00000000000000000000000000000000000000000000000000000000000000006001600160a01b0316633ca5a5f5848381518110610ad057610ad061463d565b01602001516040516001600160e01b031960e084901b16815260f89190911c6004820152602401602060405180830381865afa158015610b14573d6000803e3d6000fd5b505050506040513d601f19601f82011682018060405250810190610b389190614675565b610b429083613c79565b915080610b4e816146da565b915050610a86565b506000816001600160401b03811115610b7157610b71613c91565b604051908082528060200260200182016040528015610b9a578160200160208202803683370190505b5090506000805b8451811015610d59576000858281518110610bbe57610bbe61463d565b0160200151604051633ca5a5f560e01b815260f89190911c6004820181905291506000906001600160a01b037f00000000000000000000000000000000000000000000000000000000000000001690633ca5a5f590602401602060405180830381865afa158015610c33573d6000803e3d6000fd5b505050506040513d601f19601f82011682018060405250810190610c579190614675565b905060005b81811015610d43576040516356e4026d60e11b815260ff84166004820152602481018290527f00000000000000000000000000000000000000000000000000000000000000006001600160a01b03169063adc804da906044016040805180830381865afa158015610cd1573d6000803e3d6000fd5b505050506040513d601f19601f82011682018060405250810190610cf5919061470a565b60000151868681518110610d0b57610d0b61463d565b6001600160a01b039092166020928302919091019091015284610d2d816146da565b9550508080610d3b906146da565b915050610c5c565b5050508080610d51906146da565b915050610ba1565b5090979650505050505050565b610d6e6133aa565b610d7781613404565b50565b7f00000000000000000000000000000000000000000000000000000000000000006001600160a01b0316638da5cb5b6040518163ffffffff1660e01b8152600401602060405180830381865afa158015610dd8573d6000803e3d6000fd5b505050506040513d601f19601f82011682018060405250810190610dfc919061474b565b6001600160a01b0316336001600160a01b031614610ead5760405162461bcd60e51b815260206004820152605c60248201527f424c535369676e6174757265436865636b65722e6f6e6c79436f6f7264696e6160448201527f746f724f776e65723a2063616c6c6572206973206e6f7420746865206f776e6560648201527f72206f6620746865207265676973747279436f6f7264696e61746f7200000000608482015260a4015b60405180910390fd5b610d778161346d565b6040805180820190915260608082526020820152604080518082019091526001815260006020909101819052826040015151604051806040016040528060018152602001600081525051148015610f2857508260a0015151604051806040016040528060018152602001600081525051145b8015610f4f57508260c0015151604051806040016040528060018152602001600081525051145b8015610f7657508260e0015151604051806040016040528060018152602001600081525051145b610fe05760405162461bcd60e51b81526020600482015260416024820152600080516020614bf883398151915260448201527f7265733a20696e7075742071756f72756d206c656e677468206d69736d6174636064820152600d60fb1b608482015260a401610ea4565b825151602084015151146110585760405162461bcd60e51b815260206004820152604460248201819052600080516020614bf8833981519152908201527f7265733a20696e707574206e6f6e7369676e6572206c656e677468206d69736d6064820152630c2e8c6d60e31b608482015260a401610ea4565b4363ffffffff168463ffffffff16106110c75760405162461bcd60e51b815260206004820152603c6024820152600080516020614bf883398151915260448201527f7265733a20696e76616c6964207265666572656e636520626c6f636b000000006064820152608401610ea4565b60408051808201825260008082526020808301829052835180850185526060808252818301528451808601865260018082529083019390935284518381528086019095529293919082810190803683370190505060208281019190915260408051808201825260018082526000919093015280518281528082019091529081602001602082028036833701905050815260408051808201909152606080825260208201528560200151516001600160401b0381111561118857611188613c91565b6040519080825280602002602001820160405280156111b1578160200160208202803683370190505b5081526020860151516001600160401b038111156111d1576111d1613c91565b6040519080825280602002602001820160405280156111fa578160200160208202803683370190505b50816020018190525060006112a660405180604001604052806001815260200160008152507f00000000000000000000000000000000000000000000000000000000000000006001600160a01b0316639aa1653d6040518163ffffffff1660e01b8152600401602060405180830381865afa15801561127d573d6000803e3d6000fd5b505050506040513d601f19601f820116820180604052508101906112a191906146b7565b6134b4565b905060005b876020015151811015611541576112f0886020015182815181106112d1576112d161463d565b6020026020010151805160009081526020918201519091526040902090565b836020015182815181106113065761130661463d565b602090810291909101015280156113c6576020830151611327600183614768565b815181106113375761133761463d565b602002602001015160001c836020015182815181106113585761135861463d565b602002602001015160001c116113c6576040805162461bcd60e51b8152602060048201526024810191909152600080516020614bf883398151915260448201527f7265733a206e6f6e5369676e65725075626b657973206e6f7420736f727465646064820152608401610ea4565b7f00000000000000000000000000000000000000000000000000000000000000006001600160a01b03166304ec63518460200151838151811061140b5761140b61463d565b60200260200101518b8b60000151858151811061142a5761142a61463d565b60200260200101516040518463ffffffff1660e01b81526004016114679392919092835263ffffffff918216602084015216604082015260600190565b602060405180830381865afa158015611484573d6000803e3d6000fd5b505050506040513d601f19601f820116820180604052508101906114a8919061468e565b6001600160c01b0316836000015182815181106114c7576114c761463d565b60200260200101818152505061152d61082461150184866000015185815181106114f3576114f361463d565b602002602001015116613547565b8a6020015184815181106115175761151761463d565b602002602001015161357290919063ffffffff16565b945080611539816146da565b9150506112ab565b505061154c83613656565b60975490935060ff166000816115635760006115e5565b7f00000000000000000000000000000000000000000000000000000000000000006001600160a01b031663c448feb86040518163ffffffff1660e01b8152600401602060405180830381865afa1580156115c1573d6000803e3d6000fd5b505050506040513d601f19601f820116820180604052508101906115e59190614675565b905060005b604051806040016040528060018152602001600081525051811015611cf0578215611776578963ffffffff16827f00000000000000000000000000000000000000000000000000000000000000006001600160a01b031663249a0c426040518060400160405280600181526020016000815250858151811061166e5761166e61463d565b01602001516040516001600160e01b031960e084901b16815260f89190911c6004820152602401602060405180830381865afa1580156116b2573d6000803e3d6000fd5b505050506040513d601f19601f820116820180604052508101906116d69190614675565b6116e09190613c79565b116117765760405162461bcd60e51b81526020600482015260666024820152600080516020614bf883398151915260448201527f7265733a205374616b6552656769737472792075706461746573206d7573742060648201527f62652077697468696e207769746864726177616c44656c6179426c6f636b732060848201526577696e646f7760d01b60a482015260c401610ea4565b7f00000000000000000000000000000000000000000000000000000000000000006001600160a01b03166368bccaac604051806040016040528060018152602001600081525083815181106117cd576117cd61463d565b602001015160f81c60f81b60f81c8c8c60a0015185815181106117f2576117f261463d565b60209081029190910101516040516001600160e01b031960e086901b16815260ff909316600484015263ffffffff9182166024840152166044820152606401602060405180830381865afa15801561184e573d6000803e3d6000fd5b505050506040513d601f19601f82011682018060405250810190611872919061477f565b6001600160401b0319166118958a6040015183815181106112d1576112d161463d565b67ffffffffffffffff1916146119315760405162461bcd60e51b81526020600482015260616024820152600080516020614bf883398151915260448201527f7265733a2071756f72756d41706b206861736820696e2073746f72616765206460648201527f6f6573206e6f74206d617463682070726f76696465642071756f72756d2061706084820152606b60f81b60a482015260c401610ea4565b6119618960400151828151811061194a5761194a61463d565b602002602001015187612ee090919063ffffffff16565b95507f00000000000000000000000000000000000000000000000000000000000000006001600160a01b031663c8294c56604051806040016040528060018152602001600081525083815181106119ba576119ba61463d565b602001015160f81c60f81b60f81c8c8c60c0015185815181106119df576119df61463d565b60209081029190910101516040516001600160e01b031960e086901b16815260ff909316600484015263ffffffff9182166024840152166044820152606401602060405180830381865afa158015611a3b573d6000803e3d6000fd5b505050506040513d601f19601f82011682018060405250810190611a5f91906147aa565b85602001518281518110611a7557611a7561463d565b6001600160601b03909216602092830291909101820152850151805182908110611aa157611aa161463d565b602002602001015185600001518281518110611abf57611abf61463d565b60200260200101906001600160601b031690816001600160601b0316815250506000805b8a6020015151811015611cdb57611b4e86600001518281518110611b0957611b0961463d565b602002602001015160405180604001604052806001815260200160008152508581518110611b3957611b3961463d565b016020015160f81c60ff161c60019081161490565b15611cc9577f00000000000000000000000000000000000000000000000000000000000000006001600160a01b031663f2be94ae60405180604001604052806001815260200160008152508581518110611baa57611baa61463d565b602001015160f81c60f81b60f81c8e89602001518581518110611bcf57611bcf61463d565b60200260200101518f60e001518881518110611bed57611bed61463d565b60200260200101518781518110611c0657611c0661463d565b60209081029190910101516040516001600160e01b031960e087901b16815260ff909416600485015263ffffffff92831660248501526044840191909152166064820152608401602060405180830381865afa158015611c6a573d6000803e3d6000fd5b505050506040513d601f19601f82011682018060405250810190611c8e91906147aa565b8751805185908110611ca257611ca261463d565b60200260200101818151611cb691906147c7565b6001600160601b03169052506001909101905b80611cd3816146da565b915050611ae3565b50508080611ce8906146da565b9150506115ea565b505050600080611d0a8a868a606001518b60800151610709565b9150915081611d7b5760405162461bcd60e51b81526020600482015260436024820152600080516020614bf883398151915260448201527f7265733a2070616972696e6720707265636f6d70696c652063616c6c206661696064820152621b195960ea1b608482015260a401610ea4565b80611ddc5760405162461bcd60e51b81526020600482015260396024820152600080516020614bf883398151915260448201527f7265733a207369676e617475726520697320696e76616c6964000000000000006064820152608401610ea4565b50506000878260200151604051602001611df79291906147ef565b60408051808303601f1901815291905280516020909101209299929850919650505050505050565b60008333604051602001611e34929190614622565b60408051601f198184030181529181528151602092830120600081815260c990935291205490915063ffffffff1615611eaf5760405162461bcd60e51b815260206004820152601b60248201527f42617463682077617320616c7265616479207375626d697474656400000000006044820152606401610ea4565b3415611eda5733600090815260ca602052604081208054349290611ed4908490613c79565b90915550505b33600090815260ca6020526040902054611f365760405162461bcd60e51b815260206004820152601860248201527f426174636865722062616c616e636520697320656d70747900000000000000006044820152606401610ea4565b6040805180820182526000602080830182815263ffffffff43818116865287855260c99093529285902084518154925115156401000000000264ffffffffff19909316941693909317179091559151909186917fb6e138aac002b2914d032511acfdde1f6b38615cd3520c18ea5b8a89fd80327a91611fbb9133919089908990614837565b60405180910390a25050505050565b611fd26133aa565b611fdc60006136f1565b565b6000818484604051611ff1929190614884565b60405180910390201490509392505050565b336001600160a01b037f0000000000000000000000000000000000000000000000000000000000000000161461204b5760405162461bcd60e51b8152600401610ea490614894565b604051639926ee7d60e01b81526001600160a01b037f00000000000000000000000000000000000000000000000000000000000000001690639926ee7d906120999085908590600401614959565b600060405180830381600087803b1580156120b357600080fd5b505af11580156120c7573d6000803e3d6000fd5b505050505050565b336001600160a01b037f000000000000000000000000000000000000000000000000000000000000000016146121175760405162461bcd60e51b8152600401610ea490614894565b6040516351b27a6d60e11b81526001600160a01b0382811660048301527f0000000000000000000000000000000000000000000000000000000000000000169063a364f4da906024015b600060405180830381600087803b15801561217b57600080fd5b505af115801561218f573d6000803e3d6000fd5b5050505050565b60005a9050600084846040516020016121b0929190614622565b60408051601f198184030181529181528151602092830120600081815260c990935291205490915063ffffffff166122215760405162461bcd60e51b8152602060048201526014602482015273426174636820646f65736e27742065786973747360601b6044820152606401610ea4565b600081815260c96020526040902054640100000000900460ff16156122885760405162461bcd60e51b815260206004820152601760248201527f426174636820616c726561647920726573706f6e6465640000000000000000006044820152606401610ea4565b6001600160a01b038416600090815260ca60205260409020546122e65760405162461bcd60e51b81526020600482015260166024820152754261746368657220686173206e6f2062616c616e636560501b6044820152606401610ea4565b600081815260c960205260408120805464ff0000000019811664010000000017909155819061231d90849063ffffffff1687610eb6565b91509150604360ff16826020015160008151811061233d5761233d61463d565b602002602001015161234f91906149a4565b6001600160601b0316606483600001516000815181106123715761237161463d565b60200260200101516001600160601b031661238c91906149d3565b1015612402576040805162461bcd60e51b81526020600482015260248101919091527f5369676e61746f7269657320646f206e6f74206f776e206174206c656173742060448201527f7468726573686f6c642070657263656e74616765206f6620612071756f72756d6064820152608401610ea4565b6040516001600160a01b038716815287907f8511746b73275e06971968773119b9601fc501d7bdf3824d8754042d148940e29060200160405180910390a260005a905060003a6124528388614768565b61245f9062011170613c79565b61246991906149d3565b6001600160a01b038916600090815260ca60205260409020549091508111156124fa5760405162461bcd60e51b815260206004820152603c60248201527f4261746368657220686173206e6f742073756666696369656e742066756e647360448201527f20666f7220706179696e672074686973207472616e73616374696f6e000000006064820152608401610ea4565b6001600160a01b038816600090815260ca602052604081208054839290612522908490614768565b9091555050604051339082156108fc029083906000818181858888f19350505050158015612554573d6000803e3d6000fd5b50505050505050505050565b6125686133aa565b60405163a98fb35560e01b81526001600160a01b037f0000000000000000000000000000000000000000000000000000000000000000169063a98fb355906121619084906004016149f2565b600054610100900460ff16158080156125d45750600054600160ff909116105b806125ee5750303b1580156125ee575060005460ff166001145b6126515760405162461bcd60e51b815260206004820152602e60248201527f496e697469616c697a61626c653a20636f6e747261637420697320616c72656160448201526d191e481a5b9a5d1a585b1a5e995960921b6064820152608401610ea4565b6000805460ff191660011790558015612674576000805461ff0019166101001790555b61267d826136f1565b80156126c3576000805461ff0019169055604051600181527f7f26b83ff96e1f2b6a682f133852f6798a09c465da95921460cefb38474024989060200160405180910390a15b5050565b606060007f00000000000000000000000000000000000000000000000000000000000000006001600160a01b0316639aa1653d6040518163ffffffff1660e01b8152600401602060405180830381865afa158015612729573d6000803e3d6000fd5b505050506040513d601f19601f8201168201806040525081019061274d91906146b7565b60ff1690508061276b57505060408051600081526020810190915290565b6000805b8281101561282057604051633ca5a5f560e01b815260ff821660048201527f00000000000000000000000000000000000000000000000000000000000000006001600160a01b031690633ca5a5f590602401602060405180830381865afa1580156127de573d6000803e3d6000fd5b505050506040513d601f19601f820116820180604052508101906128029190614675565b61280c9083613c79565b915080612818816146da565b91505061276f565b506000816001600160401b0381111561283b5761283b613c91565b604051908082528060200260200182016040528015612864578160200160208202803683370190505b5090506000805b7f00000000000000000000000000000000000000000000000000000000000000006001600160a01b0316639aa1653d6040518163ffffffff1660e01b8152600401602060405180830381865afa1580156128c9573d6000803e3d6000fd5b505050506040513d601f19601f820116820180604052508101906128ed91906146b7565b60ff16811015612a8657604051633ca5a5f560e01b815260ff821660048201526000907f00000000000000000000000000000000000000000000000000000000000000006001600160a01b031690633ca5a5f590602401602060405180830381865afa158015612961573d6000803e3d6000fd5b505050506040513d601f19601f820116820180604052508101906129859190614675565b905060005b81811015612a71576040516356e4026d60e11b815260ff84166004820152602481018290527f00000000000000000000000000000000000000000000000000000000000000006001600160a01b03169063adc804da906044016040805180830381865afa1580156129ff573d6000803e3d6000fd5b505050506040513d601f19601f82011682018060405250810190612a23919061470a565b60000151858581518110612a3957612a3961463d565b6001600160a01b039092166020928302919091019091015283612a5b816146da565b9450508080612a69906146da565b91505061298a565b50508080612a7e906146da565b91505061286b565b5090949350505050565b612a986133aa565b6001600160a01b038116612afd5760405162461bcd60e51b815260206004820152602660248201527f4f776e61626c653a206e6577206f776e657220697320746865207a65726f206160448201526564647265737360d01b6064820152608401610ea4565b610d77816136f1565b612b0e613743565b60005b81811015612de257828282818110612b2b57612b2b61463d565b9050602002810190612b3d9190614a05565b612b4e906040810190602001613f67565b6001600160a01b03166323b872dd3330868686818110612b7057612b7061463d565b9050602002810190612b829190614a05565b604080516001600160e01b031960e087901b1681526001600160a01b039485166004820152939092166024840152013560448201526064016020604051808303816000875af1158015612bd9573d6000803e3d6000fd5b505050506040513d601f19601f82011682018060405250810190612bfd9190614a30565b506000838383818110612c1257612c1261463d565b9050602002810190612c249190614a05565b612c35906040810190602001613f67565b604051636eb1769f60e11b81523060048201526001600160a01b037f000000000000000000000000000000000000000000000000000000000000000081166024830152919091169063dd62ed3e90604401602060405180830381865afa158015612ca3573d6000803e3d6000fd5b505050506040513d601f19601f82011682018060405250810190612cc79190614675565b9050838383818110612cdb57612cdb61463d565b9050602002810190612ced9190614a05565b612cfe906040810190602001613f67565b6001600160a01b031663095ea7b37f000000000000000000000000000000000000000000000000000000000000000083878787818110612d4057612d4061463d565b9050602002810190612d529190614a05565b60400135612d609190613c79565b6040516001600160e01b031960e085901b1681526001600160a01b03909216600483015260248201526044016020604051808303816000875af1158015612dab573d6000803e3d6000fd5b505050506040513d601f19601f82011682018060405250810190612dcf9190614a30565b505080612ddb906146da565b9050612b11565b5060405163fce36c7d60e01b81526001600160a01b037f0000000000000000000000000000000000000000000000000000000000000000169063fce36c7d906120999085908590600401614aa8565b600083612e3f8685856137d8565b1495945050505050565b6040805180820190915260008082526020820152612e65613b89565b835181526020808501519082015260408082018490526000908360608460076107d05a03fa9050808015612e9857612e9a565bfe5b5080612ed85760405162461bcd60e51b815260206004820152600d60248201526c1958cb5b5d5b0b59985a5b1959609a1b6044820152606401610ea4565b505092915050565b6040805180820190915260008082526020820152612efc613ba7565b835181526020808501518183015283516040808401919091529084015160608301526000908360808460066107d05a03fa9050808015612e98575080612ed85760405162461bcd60e51b815260206004820152600d60248201526c1958cb5859190b59985a5b1959609a1b6044820152606401610ea4565b612f7c613bc5565b50604080516080810182527f198e9393920d483a7260bfb731fb5d25f1aa493335a9e71297e485b7aef312c28183019081527f1800deef121f1e76426a00665e5c4479674322d4f75edadd46debd5cd992f6ed6060830152815281518083019092527f275dc4a288d1afb3cbb1ac09187524c7db36395df7be3b99e673b13a075a65ec82527f1d9befcd05a5323e6da4d435f3b617cdb3af83285c2df711ef39c01571827f9d60208381019190915281019190915290565b604080518082019091526000808252602082015260008080613064600080516020614bd883398151915286614653565b90505b613070816138d2565b9093509150600080516020614bd88339815191528283098314156130aa576040805180820190915290815260208101919091529392505050565b600080516020614bd8833981519152600182089050613067565b6040805180820182528681526020808201869052825180840190935286835282018490526000918291906130f6613bea565b60005b60028110156132bb57600061310f8260066149d3565b90508482600281106131235761312361463d565b60200201515183613135836000613c79565b600c81106131455761314561463d565b602002015284826002811061315c5761315c61463d565b602002015160200151838260016131739190613c79565b600c81106131835761318361463d565b602002015283826002811061319a5761319a61463d565b60200201515151836131ad836002613c79565b600c81106131bd576131bd61463d565b60200201528382600281106131d4576131d461463d565b60200201515160016020020151836131ed836003613c79565b600c81106131fd576131fd61463d565b60200201528382600281106132145761321461463d565b60200201516020015160006002811061322f5761322f61463d565b602002015183613240836004613c79565b600c81106132505761325061463d565b60200201528382600281106132675761326761463d565b6020020151602001516001600281106132825761328261463d565b602002015183613293836005613c79565b600c81106132a3576132a361463d565b602002015250806132b3816146da565b9150506130f9565b506132c4613c09565b60006020826101808560088cfa9151919c9115159b50909950505050505050505050565b60606000806132f684613547565b61ffff166001600160401b0381111561331157613311613c91565b6040519080825280601f01601f19166020018201604052801561333b576020820181803683370190505b5090506000805b825182108015613353575061010081105b15612a86576001811b93508584161561339a578060f81b83838151811061337c5761337c61463d565b60200101906001600160f81b031916908160001a9053508160010191505b6133a3816146da565b9050613342565b6033546001600160a01b03163314611fdc5760405162461bcd60e51b815260206004820181905260248201527f4f776e61626c653a2063616c6c6572206973206e6f7420746865206f776e65726044820152606401610ea4565b606554604080516001600160a01b03928316815291831660208301527fe11cddf1816a43318ca175bbc52cd0185436e9cbead7c83acc54a73e461717e3910160405180910390a1606580546001600160a01b0319166001600160a01b0392909216919091179055565b6097805460ff19168215159081179091556040519081527f40e4ed880a29e0f6ddce307457fb75cddf4feef7d3ecb0301bfdf4976a0e2dfc9060200160405180910390a150565b6000806134c084613954565b9050808360ff166001901b1161353e5760405162461bcd60e51b815260206004820152603f60248201527f4269746d61705574696c732e6f72646572656442797465734172726179546f4260448201527f69746d61703a206269746d61702065786365656473206d61782076616c7565006064820152608401610ea4565b90505b92915050565b6000805b82156135415761355c600184614768565b909216918061356a81614bb5565b91505061354b565b60408051808201909152600080825260208201526102008261ffff16106135ce5760405162461bcd60e51b815260206004820152601060248201526f7363616c61722d746f6f2d6c6172676560801b6044820152606401610ea4565b8161ffff16600114156135e2575081613541565b6040805180820190915260008082526020820181905284906001905b8161ffff168661ffff161061364b57600161ffff871660ff83161c8116141561362e5761362b8484612ee0565b93505b6136388384612ee0565b92506201fffe600192831b1691016135fe565b509195945050505050565b6040805180820190915260008082526020820152815115801561367b57506020820151155b15613699575050604080518082019091526000808252602082015290565b604051806040016040528083600001518152602001600080516020614bd883398151915284602001516136cc9190614653565b6136e490600080516020614bd8833981519152614768565b905292915050565b919050565b603380546001600160a01b038381166001600160a01b0319831681179093556040519116919082907f8be0079c531659141344cd1fd0a4f28419497f9722a3daafe3b4186f6b6457e090600090a35050565b6065546001600160a01b03163314611fdc5760405162461bcd60e51b815260206004820152604c60248201527f536572766963654d616e61676572426173652e6f6e6c7952657761726473496e60448201527f69746961746f723a2063616c6c6572206973206e6f742074686520726577617260648201526b32399034b734ba34b0ba37b960a11b608482015260a401610ea4565b6000602084516137e89190614653565b1561386f5760405162461bcd60e51b815260206004820152604b60248201527f4d65726b6c652e70726f63657373496e636c7573696f6e50726f6f664b65636360448201527f616b3a2070726f6f66206c656e6774682073686f756c642062652061206d756c60648201526a3a34b836329037b310199960a91b608482015260a401610ea4565b8260205b85518111610a6357613886600285614653565b6138a7578160005280860151602052604060002091506002840493506138c0565b8086015160005281602052604060002091506002840493505b6138cb602082613c79565b9050613873565b60008080600080516020614bd88339815191526003600080516020614bd883398151915286600080516020614bd8833981519152888909090890506000613948827f0c19139cb84c680a6e14116da060561765e05aa45a1c72a34f082305b61f3f52600080516020614bd8833981519152613ae1565b91959194509092505050565b6000610100825111156139dd5760405162461bcd60e51b8152602060048201526044602482018190527f4269746d61705574696c732e6f72646572656442797465734172726179546f42908201527f69746d61703a206f7264657265644279746573417272617920697320746f6f206064820152636c6f6e6760e01b608482015260a401610ea4565b81516139eb57506000919050565b60008083600081518110613a0157613a0161463d565b0160200151600160f89190911c81901b92505b8451811015613ad857848181518110613a2f57613a2f61463d565b0160200151600160f89190911c1b9150828211613ac45760405162461bcd60e51b815260206004820152604760248201527f4269746d61705574696c732e6f72646572656442797465734172726179546f4260448201527f69746d61703a206f72646572656442797465734172726179206973206e6f74206064820152661bdc99195c995960ca1b608482015260a401610ea4565b91811791613ad1816146da565b9050613a14565b50909392505050565b600080613aec613c09565b613af4613c27565b602080825281810181905260408201819052606082018890526080820187905260a082018690528260c08360056107d05a03fa9250828015612e98575082613b7e5760405162461bcd60e51b815260206004820152601a60248201527f424e3235342e6578704d6f643a2063616c6c206661696c7572650000000000006044820152606401610ea4565b505195945050505050565b60405180606001604052806003906020820280368337509192915050565b60405180608001604052806004906020820280368337509192915050565b6040518060400160405280613bd8613c45565b8152602001613be5613c45565b905290565b604051806101800160405280600c906020820280368337509192915050565b60405180602001604052806001906020820280368337509192915050565b6040518060c001604052806006906020820280368337509192915050565b60405180604001604052806002906020820280368337509192915050565b634e487b7160e01b600052601160045260246000fd5b60008219821115613c8c57613c8c613c63565b500190565b634e487b7160e01b600052604160045260246000fd5b604080519081016001600160401b0381118282101715613cc957613cc9613c91565b60405290565b60405161010081016001600160401b0381118282101715613cc957613cc9613c91565b604051601f8201601f191681016001600160401b0381118282101715613d1a57613d1a613c91565b604052919050565b60006001600160401b03831115613d3b57613d3b613c91565b613d4e601f8401601f1916602001613cf2565b9050828152838383011115613d6257600080fd5b828260208301376000602084830101529392505050565b600082601f830112613d8a57600080fd5b613d9983833560208501613d22565b9392505050565b6001600160a01b0381168114610d7757600080fd5b600080600080600080600080610100898b031215613dd257600080fd5b88359750602089013596506040890135955060608901356001600160601b031981168114613dff57600080fd5b94506080890135935060a08901356001600160401b03811115613e2157600080fd5b613e2d8b828c01613d79565b93505060c0890135915060e0890135613e4581613da0565b809150509295985092959890939650565b600060408284031215613e6857600080fd5b613e70613ca7565b9050813581526020820135602082015292915050565b600082601f830112613e9757600080fd5b613e9f613ca7565b806040840185811115613eb157600080fd5b845b81811015613ecb578035845260209384019301613eb3565b509095945050505050565b600060808284031215613ee857600080fd5b613ef0613ca7565b9050613efc8383613e86565b8152613f0b8360408401613e86565b602082015292915050565b6000806000806101208587031215613f2d57600080fd5b84359350613f3e8660208701613e56565b9250613f4d8660608701613ed6565b9150613f5c8660e08701613e56565b905092959194509250565b600060208284031215613f7957600080fd5b813561353e81613da0565b6020808252825182820181905260009190848201906040850190845b81811015613fc55783516001600160a01b031683529284019291840191600101613fa0565b50909695505050505050565b8015158114610d7757600080fd5b600060208284031215613ff157600080fd5b813561353e81613fd1565b803563ffffffff811681146136ec57600080fd5b60006001600160401b0382111561402957614029613c91565b5060051b60200190565b600082601f83011261404457600080fd5b8135602061405961405483614010565b613cf2565b82815260059290921b8401810191818101908684111561407857600080fd5b8286015b8481101561409a5761408d81613ffc565b835291830191830161407c565b509695505050505050565b600082601f8301126140b657600080fd5b813560206140c661405483614010565b82815260069290921b840181019181810190868411156140e557600080fd5b8286015b8481101561409a576140fb8882613e56565b8352918301916040016140e9565b600082601f83011261411a57600080fd5b8135602061412a61405483614010565b82815260059290921b8401810191818101908684111561414957600080fd5b8286015b8481101561409a5780356001600160401b0381111561416c5760008081fd5b61417a8986838b0101614033565b84525091830191830161414d565b6000610180828403121561419b57600080fd5b6141a3613ccf565b905081356001600160401b03808211156141bc57600080fd5b6141c885838601614033565b835260208401359150808211156141de57600080fd5b6141ea858386016140a5565b6020840152604084013591508082111561420357600080fd5b61420f858386016140a5565b60408401526142218560608601613ed6565b60608401526142338560e08601613e56565b608084015261012084013591508082111561424d57600080fd5b61425985838601614033565b60a084015261014084013591508082111561427357600080fd5b61427f85838601614033565b60c084015261016084013591508082111561429957600080fd5b506142a684828501614109565b60e08301525092915050565b6000806000606084860312156142c757600080fd5b833592506142d760208501613ffc565b915060408401356001600160401b038111156142f257600080fd5b6142fe86828701614188565b9150509250925092565b600081518084526020808501945080840160005b838110156143415781516001600160601b03168752958201959082019060010161431c565b509495945050505050565b60408152600083516040808401526143676080840182614308565b90506020850151603f198483030160608501526143848282614308565b925050508260208301529392505050565b60008083601f8401126143a757600080fd5b5081356001600160401b038111156143be57600080fd5b6020830191508360208285010111156143d657600080fd5b9250929050565b6000806000604084860312156143f257600080fd5b8335925060208401356001600160401b0381111561440f57600080fd5b61441b86828701614395565b9497909650939450505050565b60008060006040848603121561443d57600080fd5b83356001600160401b0381111561445357600080fd5b61445f86828701614395565b909790965060209590950135949350505050565b6000806040838503121561448657600080fd5b823561449181613da0565b915060208301356001600160401b03808211156144ad57600080fd5b90840190606082870312156144c157600080fd5b6040516060810181811083821117156144dc576144dc613c91565b6040528235828111156144ee57600080fd5b6144fa88828601613d79565b82525060208301356020820152604083013560408201528093505050509250929050565b60008060006060848603121561453357600080fd5b8335925060208401356142d781613da0565b60006020828403121561455757600080fd5b81356001600160401b0381111561456d57600080fd5b8201601f8101841361457e57600080fd5b61458d84823560208401613d22565b949350505050565b6000602082840312156145a757600080fd5b5035919050565b600080602083850312156145c157600080fd5b82356001600160401b03808211156145d857600080fd5b818501915085601f8301126145ec57600080fd5b8135818111156145fb57600080fd5b8660208260051b850101111561461057600080fd5b60209290920196919550909350505050565b91825260601b6001600160601b031916602082015260340190565b634e487b7160e01b600052603260045260246000fd5b60008261467057634e487b7160e01b600052601260045260246000fd5b500690565b60006020828403121561468757600080fd5b5051919050565b6000602082840312156146a057600080fd5b81516001600160c01b038116811461353e57600080fd5b6000602082840312156146c957600080fd5b815160ff8116811461353e57600080fd5b60006000198214156146ee576146ee613c63565b5060010190565b6001600160601b0381168114610d7757600080fd5b60006040828403121561471c57600080fd5b614724613ca7565b825161472f81613da0565b8152602083015161473f816146f5565b60208201529392505050565b60006020828403121561475d57600080fd5b815161353e81613da0565b60008282101561477a5761477a613c63565b500390565b60006020828403121561479157600080fd5b815167ffffffffffffffff198116811461353e57600080fd5b6000602082840312156147bc57600080fd5b815161353e816146f5565b60006001600160601b03838116908316818110156147e7576147e7613c63565b039392505050565b63ffffffff60e01b8360e01b1681526000600482018351602080860160005b8381101561482a5781518552938201939082019060010161480e565b5092979650505050505050565b6001600160a01b038516815263ffffffff841660208201526060604082018190528101829052818360808301376000818301608090810191909152601f909201601f191601019392505050565b8183823760009101908152919050565b60208082526052908201527f536572766963654d616e61676572426173652e6f6e6c7952656769737472794360408201527f6f6f7264696e61746f723a2063616c6c6572206973206e6f742074686520726560608201527133b4b9ba393c9031b7b7b93234b730ba37b960711b608082015260a00190565b6000815180845260005b8181101561493257602081850181015186830182015201614916565b81811115614944576000602083870101525b50601f01601f19169290920160200192915050565b60018060a01b038316815260406020820152600082516060604084015261498360a084018261490c565b90506020840151606084015260408401516080840152809150509392505050565b60006001600160601b03808316818516818304811182151516156149ca576149ca613c63565b02949350505050565b60008160001904831182151516156149ed576149ed613c63565b500290565b602081526000613d99602083018461490c565b60008235609e19833603018112614a1b57600080fd5b9190910192915050565b80356136ec81613da0565b600060208284031215614a4257600080fd5b815161353e81613fd1565b8183526000602080850194508260005b85811015614341578135614a7081613da0565b6001600160a01b0316875281830135614a88816146f5565b6001600160601b0316878401526040968701969190910190600101614a5d565b60208082528181018390526000906040808401600586901b8501820187855b88811015614ba757878303603f190184528135368b9003609e19018112614aed57600080fd5b8a0160a0813536839003601e19018112614b0657600080fd5b820180356001600160401b03811115614b1e57600080fd5b8060061b3603841315614b3057600080fd5b828752614b42838801828c8501614a4d565b92505050614b51888301614a25565b6001600160a01b03168886015281870135878601526060614b73818401613ffc565b63ffffffff16908601526080614b8a838201613ffc565b63ffffffff16950194909452509285019290850190600101614ac7565b509098975050505050505050565b600061ffff80831681811415614bcd57614bcd613c63565b600101939250505056fe30644e72e131a029b85045b68181585d97816a916871ca8d3c208c16d87cfd47424c535369676e6174757265436865636b65722e636865636b5369676e617475a2646970667358221220f6c254c4e308e8d301aff832e6a3e21ea4fdab457001323b733d8ddaf0035a8164736f6c634300080c0033","linkReferences":{}},"methodIdentifiers":{"avsDirectory()":"6b3aa72e","balanceOf(address)":"70a08231","batchesState(bytes32)":"b099627e","blsApkRegistry()":"5df45946","checkPublicInput(bytes,bytes32)":"95c6d604","checkSignatures(bytes32,uint32,(uint32[],(uint256,uint256)[],(uint256,uint256)[],(uint256[2],uint256[2]),(uint256,uint256),uint32[],uint32[],uint32[][]))":"4ae07c37","createAVSRewardsSubmission(((address,uint96)[],address,uint256,uint32,uint32)[])":"fce36c7d","createNewTask(bytes32,string)":"5c008994","delegation()":"df5cf723","deregisterOperatorFromAVS(address)":"a364f4da","getOperatorRestakedStrategies(address)":"33cfb7b7","getRestakeableStrategies()":"e481af9d","initialize(address)":"c4d66de8","owner()":"8da5cb5b","registerOperatorToAVS(address,(bytes,bytes32,uint256))":"9926ee7d","registryCoordinator()":"6d14a987","renounceOwnership()":"715018a6","respondToTask(bytes32,address,(uint32[],(uint256,uint256)[],(uint256,uint256)[],(uint256[2],uint256[2]),(uint256,uint256),uint32[],uint32[],uint32[][]))":"a5a3fab1","rewardsInitiator()":"fc299dee","setRewardsInitiator(address)":"3bc28c8c","setStaleStakesForbidden(bool)":"416c7e5e","stakeRegistry()":"68304835","staleStakesForbidden()":"b98d0908","transferOwnership(address)":"f2fde38b","trySignatureAndApkVerification(bytes32,(uint256,uint256),(uint256[2],uint256[2]),(uint256,uint256))":"171f1d5b","updateAVSMetadataURI(string)":"a98fb355","verifyBatchInclusion(bytes32,bytes32,bytes32,bytes20,bytes32,bytes,uint256,address)":"06045a91"},"id":116}