{"abi":[{"type":"constructor","inputs":[{"name":"__avsDirectory","type":"address","internalType":"contract IAVSDirectory"},{"name":"__rewardsCoordinator","type":"address","internalType":"contract IRewardsCoordinator"},{"name":"__registryCoordinator","type":"address","internalType":"contract IRegistryCoordinator"},{"name":"__stakeRegistry","type":"address","internalType":"contract IStakeRegistry"}],"stateMutability":"nonpayable"},{"type":"receive","stateMutability":"payable"},{"type":"function","name":"avsDirectory","inputs":[],"outputs":[{"name":"","type":"address","internalType":"address"}],"stateMutability":"view"},{"type":"function","name":"balanceOf","inputs":[{"name":"account","type":"address","internalType":"address"}],"outputs":[{"name":"","type":"uint256","internalType":"uint256"}],"stateMutability":"view"},{"type":"function","name":"batchesState","inputs":[{"name":"","type":"bytes32","internalType":"bytes32"}],"outputs":[{"name":"taskCreatedBlock","type":"uint32","internalType":"uint32"},{"name":"responded","type":"bool","internalType":"bool"},{"name":"maxFeeAllowedToRespond","type":"uint256","internalType":"uint256"}],"stateMutability":"view"},{"type":"function","name":"blsApkRegistry","inputs":[],"outputs":[{"name":"","type":"address","internalType":"contract IBLSApkRegistry"}],"stateMutability":"view"},{"type":"function","name":"checkPublicInput","inputs":[{"name":"publicInput","type":"bytes","internalType":"bytes"},{"name":"hash","type":"bytes32","internalType":"bytes32"}],"outputs":[{"name":"","type":"bool","internalType":"bool"}],"stateMutability":"pure"},{"type":"function","name":"checkSignatures","inputs":[{"name":"msgHash","type":"bytes32","internalType":"bytes32"},{"name":"referenceBlockNumber","type":"uint32","internalType":"uint32"},{"name":"params","type":"tuple","internalType":"struct IBLSSignatureChecker.NonSignerStakesAndSignature","components":[{"name":"nonSignerQuorumBitmapIndices","type":"uint32[]","internalType":"uint32[]"},{"name":"nonSignerPubkeys","type":"tuple[]","internalType":"struct BN254.G1Point[]","components":[{"name":"X","type":"uint256","internalType":"uint256"},{"name":"Y","type":"uint256","internalType":"uint256"}]},{"name":"quorumApks","type":"tuple[]","internalType":"struct BN254.G1Point[]","components":[{"name":"X","type":"uint256","internalType":"uint256"},{"name":"Y","type":"uint256","internalType":"uint256"}]},{"name":"apkG2","type":"tuple","internalType":"struct BN254.G2Point","components":[{"name":"X","type":"uint256[2]","internalType":"uint256[2]"},{"name":"Y","type":"uint256[2]","internalType":"uint256[2]"}]},{"name":"sigma","type":"tuple","internalType":"struct BN254.G1Point","components":[{"name":"X","type":"uint256","internalType":"uint256"},{"name":"Y","type":"uint256","internalType":"uint256"}]},{"name":"quorumApkIndices","type":"uint32[]","internalType":"uint32[]"},{"name":"totalStakeIndices","type":"uint32[]","internalType":"uint32[]"},{"name":"nonSignerStakeIndices","type":"uint32[][]","internalType":"uint32[][]"}]}],"outputs":[{"name":"","type":"tuple","internalType":"struct IBLSSignatureChecker.QuorumStakeTotals","components":[{"name":"signedStakeForQuorum","type":"uint96[]","internalType":"uint96[]"},{"name":"totalStakeForQuorum","type":"uint96[]","internalType":"uint96[]"}]},{"name":"","type":"bytes32","internalType":"bytes32"}],"stateMutability":"view"},{"type":"function","name":"createAVSRewardsSubmission","inputs":[{"name":"rewardsSubmissions","type":"tuple[]","internalType":"struct IRewardsCoordinator.RewardsSubmission[]","components":[{"name":"strategiesAndMultipliers","type":"tuple[]","internalType":"struct IRewardsCoordinator.StrategyAndMultiplier[]","components":[{"name":"strategy","type":"address","internalType":"contract IStrategy"},{"name":"multiplier","type":"uint96","internalType":"uint96"}]},{"name":"token","type":"address","internalType":"contract IERC20"},{"name":"amount","type":"uint256","internalType":"uint256"},{"name":"startTimestamp","type":"uint32","internalType":"uint32"},{"name":"duration","type":"uint32","internalType":"uint32"}]}],"outputs":[],"stateMutability":"nonpayable"},{"type":"function","name":"createNewTask","inputs":[{"name":"batchMerkleRoot","type":"bytes32","internalType":"bytes32"},{"name":"batchDataPointer","type":"string","internalType":"string"},{"name":"maxFeeAllowedToRespond","type":"uint256","internalType":"uint256"}],"outputs":[],"stateMutability":"payable"},{"type":"function","name":"delegation","inputs":[],"outputs":[{"name":"","type":"address","internalType":"contract IDelegationManager"}],"stateMutability":"view"},{"type":"function","name":"depositToBatcher","inputs":[{"name":"account","type":"address","internalType":"address"}],"outputs":[],"stateMutability":"payable"},{"type":"function","name":"deregisterOperatorFromAVS","inputs":[{"name":"operator","type":"address","internalType":"address"}],"outputs":[],"stateMutability":"nonpayable"},{"type":"function","name":"getOperatorRestakedStrategies","inputs":[{"name":"operator","type":"address","internalType":"address"}],"outputs":[{"name":"","type":"address[]","internalType":"address[]"}],"stateMutability":"view"},{"type":"function","name":"getRestakeableStrategies","inputs":[],"outputs":[{"name":"","type":"address[]","internalType":"address[]"}],"stateMutability":"view"},{"type":"function","name":"initialize","inputs":[{"name":"_initialOwner","type":"address","internalType":"address"},{"name":"_rewardsInitiator","type":"address","internalType":"address"}],"outputs":[],"stateMutability":"nonpayable"},{"type":"function","name":"owner","inputs":[],"outputs":[{"name":"","type":"address","internalType":"address"}],"stateMutability":"view"},{"type":"function","name":"registerOperatorToAVS","inputs":[{"name":"operator","type":"address","internalType":"address"},{"name":"operatorSignature","type":"tuple","internalType":"struct ISignatureUtils.SignatureWithSaltAndExpiry","components":[{"name":"signature","type":"bytes","internalType":"bytes"},{"name":"salt","type":"bytes32","internalType":"bytes32"},{"name":"expiry","type":"uint256","internalType":"uint256"}]}],"outputs":[],"stateMutability":"nonpayable"},{"type":"function","name":"registryCoordinator","inputs":[],"outputs":[{"name":"","type":"address","internalType":"contract IRegistryCoordinator"}],"stateMutability":"view"},{"type":"function","name":"renounceOwnership","inputs":[],"outputs":[],"stateMutability":"nonpayable"},{"type":"function","name":"respondToTaskV2","inputs":[{"name":"batchMerkleRoot","type":"bytes32","internalType":"bytes32"},{"name":"senderAddress","type":"address","internalType":"address"},{"name":"nonSignerStakesAndSignature","type":"tuple","internalType":"struct IBLSSignatureChecker.NonSignerStakesAndSignature","components":[{"name":"nonSignerQuorumBitmapIndices","type":"uint32[]","internalType":"uint32[]"},{"name":"nonSignerPubkeys","type":"tuple[]","internalType":"struct BN254.G1Point[]","components":[{"name":"X","type":"uint256","internalType":"uint256"},{"name":"Y","type":"uint256","internalType":"uint256"}]},{"name":"quorumApks","type":"tuple[]","internalType":"struct BN254.G1Point[]","components":[{"name":"X","type":"uint256","internalType":"uint256"},{"name":"Y","type":"uint256","internalType":"uint256"}]},{"name":"apkG2","type":"tuple","internalType":"struct BN254.G2Point","components":[{"name":"X","type":"uint256[2]","internalType":"uint256[2]"},{"name":"Y","type":"uint256[2]","internalType":"uint256[2]"}]},{"name":"sigma","type":"tuple","internalType":"struct BN254.G1Point","components":[{"name":"X","type":"uint256","internalType":"uint256"},{"name":"Y","type":"uint256","internalType":"uint256"}]},{"name":"quorumApkIndices","type":"uint32[]","internalType":"uint32[]"},{"name":"totalStakeIndices","type":"uint32[]","internalType":"uint32[]"},{"name":"nonSignerStakeIndices","type":"uint32[][]","internalType":"uint32[][]"}]}],"outputs":[],"stateMutability":"nonpayable"},{"type":"function","name":"rewardsInitiator","inputs":[],"outputs":[{"name":"","type":"address","internalType":"address"}],"stateMutability":"view"},{"type":"function","name":"setRewardsInitiator","inputs":[{"name":"newRewardsInitiator","type":"address","internalType":"address"}],"outputs":[],"stateMutability":"nonpayable"},{"type":"function","name":"setStaleStakesForbidden","inputs":[{"name":"value","type":"bool","internalType":"bool"}],"outputs":[],"stateMutability":"nonpayable"},{"type":"function","name":"stakeRegistry","inputs":[],"outputs":[{"name":"","type":"address","internalType":"contract IStakeRegistry"}],"stateMutability":"view"},{"type":"function","name":"staleStakesForbidden","inputs":[],"outputs":[{"name":"","type":"bool","internalType":"bool"}],"stateMutability":"view"},{"type":"function","name":"transferOwnership","inputs":[{"name":"newOwner","type":"address","internalType":"address"}],"outputs":[],"stateMutability":"nonpayable"},{"type":"function","name":"trySignatureAndApkVerification","inputs":[{"name":"msgHash","type":"bytes32","internalType":"bytes32"},{"name":"apk","type":"tuple","internalType":"struct BN254.G1Point","components":[{"name":"X","type":"uint256","internalType":"uint256"},{"name":"Y","type":"uint256","internalType":"uint256"}]},{"name":"apkG2","type":"tuple","internalType":"struct BN254.G2Point","components":[{"name":"X","type":"uint256[2]","internalType":"uint256[2]"},{"name":"Y","type":"uint256[2]","internalType":"uint256[2]"}]},{"name":"sigma","type":"tuple","internalType":"struct BN254.G1Point","components":[{"name":"X","type":"uint256","internalType":"uint256"},{"name":"Y","type":"uint256","internalType":"uint256"}]}],"outputs":[{"name":"pairingSuccessful","type":"bool","internalType":"bool"},{"name":"siganatureIsValid","type":"bool","internalType":"bool"}],"stateMutability":"view"},{"type":"function","name":"updateAVSMetadataURI","inputs":[{"name":"_metadataURI","type":"string","internalType":"string"}],"outputs":[],"stateMutability":"nonpayable"},{"type":"function","name":"verifyBatchInclusion","inputs":[{"name":"proofCommitment","type":"bytes32","internalType":"bytes32"},{"name":"pubInputCommitment","type":"bytes32","internalType":"bytes32"},{"name":"provingSystemAuxDataCommitment","type":"bytes32","internalType":"bytes32"},{"name":"proofGeneratorAddr","type":"bytes20","internalType":"bytes20"},{"name":"batchMerkleRoot","type":"bytes32","internalType":"bytes32"},{"name":"merkleProof","type":"bytes","internalType":"bytes"},{"name":"verificationDataBatchIndex","type":"uint256","internalType":"uint256"},{"name":"senderAddress","type":"address","internalType":"address"}],"outputs":[{"name":"","type":"bool","internalType":"bool"}],"stateMutability":"view"},{"type":"function","name":"verifyBatchInclusion","inputs":[{"name":"proofCommitment","type":"bytes32","internalType":"bytes32"},{"name":"pubInputCommitment","type":"bytes32","internalType":"bytes32"},{"name":"provingSystemAuxDataCommitment","type":"bytes32","internalType":"bytes32"},{"name":"proofGeneratorAddr","type":"bytes20","internalType":"bytes20"},{"name":"batchMerkleRoot","type":"bytes32","internalType":"bytes32"},{"name":"merkleProof","type":"bytes","internalType":"bytes"},{"name":"verificationDataBatchIndex","type":"uint256","internalType":"uint256"}],"outputs":[{"name":"","type":"bool","internalType":"bool"}],"stateMutability":"view"},{"type":"function","name":"withdraw","inputs":[{"name":"amount","type":"uint256","internalType":"uint256"}],"outputs":[],"stateMutability":"nonpayable"},{"type":"event","name":"BatchVerified","inputs":[{"name":"batchMerkleRoot","type":"bytes32","indexed":true,"internalType":"bytes32"},{"name":"senderAddress","type":"address","indexed":false,"internalType":"address"}],"anonymous":false},{"type":"event","name":"BatcherBalanceUpdated","inputs":[{"name":"batcher","type":"address","indexed":true,"internalType":"address"},{"name":"newBalance","type":"uint256","indexed":false,"internalType":"uint256"}],"anonymous":false},{"type":"event","name":"Initialized","inputs":[{"name":"version","type":"uint8","indexed":false,"internalType":"uint8"}],"anonymous":false},{"type":"event","name":"NewBatchV2","inputs":[{"name":"batchMerkleRoot","type":"bytes32","indexed":true,"internalType":"bytes32"},{"name":"senderAddress","type":"address","indexed":false,"internalType":"address"},{"name":"taskCreatedBlock","type":"uint32","indexed":false,"internalType":"uint32"},{"name":"batchDataPointer","type":"string","indexed":false,"internalType":"string"},{"name":"maxFeeToRespond","type":"uint256","indexed":false,"internalType":"uint256"}],"anonymous":false},{"type":"event","name":"OwnershipTransferred","inputs":[{"name":"previousOwner","type":"address","indexed":true,"internalType":"address"},{"name":"newOwner","type":"address","indexed":true,"internalType":"address"}],"anonymous":false},{"type":"event","name":"RewardsInitiatorUpdated","inputs":[{"name":"prevRewardsInitiator","type":"address","indexed":false,"internalType":"address"},{"name":"newRewardsInitiator","type":"address","indexed":false,"internalType":"address"}],"anonymous":false},{"type":"event","name":"StaleStakesForbiddenUpdate","inputs":[{"name":"value","type":"bool","indexed":false,"internalType":"bool"}],"anonymous":false},{"type":"error","name":"BatchAlreadyResponded","inputs":[{"name":"batchIdentifierHash","type":"bytes32","internalType":"bytes32"}]},{"type":"error","name":"BatchAlreadySubmitted","inputs":[{"name":"batchIdentifierHash","type":"bytes32","internalType":"bytes32"}]},{"type":"error","name":"BatchDoesNotExist","inputs":[{"name":"batchIdentifierHash","type":"bytes32","internalType":"bytes32"}]},{"type":"error","name":"ExceededMaxRespondFee","inputs":[{"name":"maxFeeAllowedToRespond","type":"uint256","internalType":"uint256"},{"name":"txCost","type":"uint256","internalType":"uint256"}]},{"type":"error","name":"InsufficientFunds","inputs":[{"name":"batcher","type":"address","internalType":"address"},{"name":"required","type":"uint256","internalType":"uint256"},{"name":"available","type":"uint256","internalType":"uint256"}]},{"type":"error","name":"InvalidDepositAmount","inputs":[{"name":"amount","type":"uint256","internalType":"uint256"}]},{"type":"error","name":"InvalidQuorumThreshold","inputs":[{"name":"signedStake","type":"uint256","internalType":"uint256"},{"name":"requiredStake","type":"uint256","internalType":"uint256"}]}],"bytecode":{"object":"0x6101806040523480156200001257600080fd5b50604051620054a3380380620054a38339810160408190526200003591620002e5565b6001600160a01b0380851660805280841660a05280831660c052811660e0528184848284620000636200020a565b50505050806001600160a01b0316610100816001600160a01b031681525050806001600160a01b031663683048356040518163ffffffff1660e01b8152600401602060405180830381865afa158015620000c1573d6000803e3d6000fd5b505050506040513d601f19601f82011682018060405250810190620000e791906200034d565b6001600160a01b0316610120816001600160a01b031681525050806001600160a01b0316635df459466040518163ffffffff1660e01b8152600401602060405180830381865afa15801562000140573d6000803e3d6000fd5b505050506040513d601f19601f820116820180604052508101906200016691906200034d565b6001600160a01b0316610140816001600160a01b031681525050610120516001600160a01b031663df5cf7236040518163ffffffff1660e01b8152600401602060405180830381865afa158015620001c2573d6000803e3d6000fd5b505050506040513d601f19601f82011682018060405250810190620001e891906200034d565b6001600160a01b03166101605250620002006200020a565b5050505062000374565b600054610100900460ff1615620002775760405162461bcd60e51b815260206004820152602760248201527f496e697469616c697a61626c653a20636f6e747261637420697320696e697469604482015266616c697a696e6760c81b606482015260840160405180910390fd5b60005460ff9081161015620002ca576000805460ff191660ff9081179091556040519081527f7f26b83ff96e1f2b6a682f133852f6798a09c465da95921460cefb38474024989060200160405180910390a15b565b6001600160a01b0381168114620002e257600080fd5b50565b60008060008060808587031215620002fc57600080fd5b84516200030981620002cc565b60208601519094506200031c81620002cc565b60408601519093506200032f81620002cc565b60608601519092506200034281620002cc565b939692955090935050565b6000602082840312156200036057600080fd5b81516200036d81620002cc565b9392505050565b60805160a05160c05160e0516101005161012051610140516101605161502162000482600039600081816105e8015261185e0152600081816103530152611a7101526000818161039f01528181611c5e0152611e4e01526000818161040601528181610f710152818161151a015281816116c10152611912015260008181610c8601528181610de101528181610e780152818161292701528181612aaa0152612b49015260008181610aad01528181610b3c01528181610bbc0152818161215c01528181612228015281816128650152612a05015260008181612eec01528181612fa801526130940152600081816103d0015281816121b001528181612284015261230301526150216000f3fe6080604052600436106101d15760003560e01c80638da5cb5b116100f7578063b98d090811610095578063f2fde38b11610064578063f2fde38b1461061f578063fa534dc01461063f578063fc299dee1461065f578063fce36c7d1461067f57600080fd5b8063b98d0908146105a9578063d66eaabd146105c3578063df5cf723146105d6578063e481af9d1461060a57600080fd5b8063a364f4da116100d1578063a364f4da146104df578063a98fb355146104ff578063ab21739a1461051f578063b099627e1461053f57600080fd5b80638da5cb5b1461048157806395c6d6041461049f5780639926ee7d146104bf57600080fd5b8063485cc9551161016f5780636b3aa72e1161013e5780636b3aa72e146103c15780636d14a987146103f457806370a0823114610428578063715018a61461046c57600080fd5b8063485cc955146102f35780634ae07c37146103135780635df4594614610341578063683048351461038d57600080fd5b806333cfb7b7116101ab57806333cfb7b7146102735780633bc28c8c146102a0578063416c7e5e146102c05780634223d551146102e057600080fd5b806306045a91146101e7578063171f1d5b1461021c5780632e1a7d4d1461025357600080fd5b366101e2576101e0333461069f565b005b600080fd5b3480156101f357600080fd5b50610207610202366004614021565b610731565b60405190151581526020015b60405180910390f35b34801561022857600080fd5b5061023c610237366004614173565b610826565b604080519215158352901515602083015201610213565b34801561025f57600080fd5b506101e061026e3660046141c4565b6109b0565b34801561027f57600080fd5b5061029361028e3660046141dd565b610a88565b60405161021391906141fa565b3480156102ac57600080fd5b506101e06102bb3660046141dd565b610f5b565b3480156102cc57600080fd5b506101e06102db366004614255565b610f6f565b6101e06102ee3660046141dd565b6110a6565b3480156102ff57600080fd5b506101e061030e366004614272565b6110b0565b34801561031f57600080fd5b5061033361032e366004614561565b6111c5565b6040516102139291906145fb565b34801561034d57600080fd5b506103757f000000000000000000000000000000000000000000000000000000000000000081565b6040516001600160a01b039091168152602001610213565b34801561039957600080fd5b506103757f000000000000000000000000000000000000000000000000000000000000000081565b3480156103cd57600080fd5b507f0000000000000000000000000000000000000000000000000000000000000000610375565b34801561040057600080fd5b506103757f000000000000000000000000000000000000000000000000000000000000000081565b34801561043457600080fd5b5061045e6104433660046141dd565b6001600160a01b0316600090815260ca602052604090205490565b604051908152602001610213565b34801561047857600080fd5b506101e0612118565b34801561048d57600080fd5b506033546001600160a01b0316610375565b3480156104ab57600080fd5b506102076104ba36600461468c565b61212c565b3480156104cb57600080fd5b506101e06104da3660046146d7565b612151565b3480156104eb57600080fd5b506101e06104fa3660046141dd565b61221d565b34801561050b57600080fd5b506101e061051a366004614782565b6122e4565b34801561052b57600080fd5b506101e061053a3660046147d2565b612338565b34801561054b57600080fd5b5061058761055a3660046141c4565b60c9602052600090815260409020805460019091015463ffffffff821691640100000000900460ff169083565b6040805163ffffffff9094168452911515602084015290820152606001610213565b3480156105b557600080fd5b506097546102079060ff1681565b6101e06105d13660046147f9565b6126a5565b3480156105e257600080fd5b506103757f000000000000000000000000000000000000000000000000000000000000000081565b34801561061657600080fd5b5061029361285f565b34801561062b57600080fd5b506101e061063a3660046141dd565b612c28565b34801561064b57600080fd5b5061020761065a36600461484b565b612c9e565b34801561066b57600080fd5b50606554610375906001600160a01b031681565b34801561068b57600080fd5b506101e061069a3660046148c8565b612d13565b806106c557604051632097692160e11b8152600481018290526024015b60405180910390fd5b6001600160a01b038216600090815260ca6020526040812080548392906106ed908490614952565b90915550506001600160a01b038216600081815260ca6020908152604091829020549151918252600080516020614fac833981519152910160405180910390a25050565b6000806001600160a01b038316610749575084610775565b858360405160200161075c92919061496a565b6040516020818303038152906040528051906020012090505b600081815260c9602052604090205463ffffffff1661079857600091505061081a565b600081815260c96020526040902054640100000000900460ff166107c057600091505061081a565b60408051602081018c90529081018a9052606081018990526001600160601b03198816608082015260009060940160408051601f1981840301815291905280516020820120909150610814878983896130cb565b93505050505b98975050505050505050565b60008060007f30644e72e131a029b85045b68181585d2833e84879b9709143e1f593f00000018787600001518860200151886000015160006002811061086e5761086e614985565b60200201518951600160200201518a6020015160006002811061089357610893614985565b60200201518b602001516001600281106108af576108af614985565b602090810291909101518c518d83015160405161090c9a99989796959401988952602089019790975260408801959095526060870193909352608086019190915260a085015260c084015260e08301526101008201526101200190565b6040516020818303038152906040528051906020012060001c61092f919061499b565b90506109a261094861094188846130e3565b869061317a565b61095061320e565b61099861098985610983604080518082018252600080825260209182015281518083019092526001825260029082015290565b906130e3565b6109928c6132ce565b9061317a565b886201d4c061335e565b909890975095505050505050565b33600090815260ca6020526040902054811115610a015733600081815260ca602052604090819020549051632e2a182f60e11b815260048101929092526024820183905260448201526064016106bc565b33600090815260ca602052604081208054839290610a209084906149bd565b909155505033600081815260ca6020908152604091829020549151918252600080516020614fac833981519152910160405180910390a2604051339082156108fc029083906000818181858888f19350505050158015610a84573d6000803e3d6000fd5b5050565b6040516309aa152760e11b81526001600160a01b0382811660048301526060916000917f000000000000000000000000000000000000000000000000000000000000000016906313542a4e90602401602060405180830381865afa158015610af4573d6000803e3d6000fd5b505050506040513d601f19601f82011682018060405250810190610b1891906149d4565b60405163871ef04960e01b8152600481018290529091506000906001600160a01b037f0000000000000000000000000000000000000000000000000000000000000000169063871ef04990602401602060405180830381865afa158015610b83573d6000803e3d6000fd5b505050506040513d601f19601f82011682018060405250810190610ba791906149ed565b90506001600160c01b0381161580610c4157507f00000000000000000000000000000000000000000000000000000000000000006001600160a01b0316639aa1653d6040518163ffffffff1660e01b8152600401602060405180830381865afa158015610c18573d6000803e3d6000fd5b505050506040513d601f19601f82011682018060405250810190610c3c9190614a16565b60ff16155b15610c615760408051600080825260208201909252905b50949350505050565b6000610c75826001600160c01b0316613582565b90506000805b8251811015610d4b577f00000000000000000000000000000000000000000000000000000000000000006001600160a01b0316633ca5a5f5848381518110610cc557610cc5614985565b01602001516040516001600160e01b031960e084901b16815260f89190911c6004820152602401602060405180830381865afa158015610d09573d6000803e3d6000fd5b505050506040513d601f19601f82011682018060405250810190610d2d91906149d4565b610d379083614952565b915080610d4381614a39565b915050610c7b565b506000816001600160401b03811115610d6657610d66613efd565b604051908082528060200260200182016040528015610d8f578160200160208202803683370190505b5090506000805b8451811015610f4e576000858281518110610db357610db3614985565b0160200151604051633ca5a5f560e01b815260f89190911c6004820181905291506000906001600160a01b037f00000000000000000000000000000000000000000000000000000000000000001690633ca5a5f590602401602060405180830381865afa158015610e28573d6000803e3d6000fd5b505050506040513d601f19601f82011682018060405250810190610e4c91906149d4565b905060005b81811015610f38576040516356e4026d60e11b815260ff84166004820152602481018290527f00000000000000000000000000000000000000000000000000000000000000006001600160a01b03169063adc804da906044016040805180830381865afa158015610ec6573d6000803e3d6000fd5b505050506040513d601f19601f82011682018060405250810190610eea9190614a69565b60000151868681518110610f0057610f00614985565b6001600160a01b039092166020928302919091019091015284610f2281614a39565b9550508080610f3090614a39565b915050610e51565b5050508080610f4690614a39565b915050610d96565b5090979650505050505050565b610f63613644565b610f6c8161369e565b50565b7f00000000000000000000000000000000000000000000000000000000000000006001600160a01b0316638da5cb5b6040518163ffffffff1660e01b8152600401602060405180830381865afa158015610fcd573d6000803e3d6000fd5b505050506040513d601f19601f82011682018060405250810190610ff19190614aaa565b6001600160a01b0316336001600160a01b03161461109d5760405162461bcd60e51b815260206004820152605c60248201527f424c535369676e6174757265436865636b65722e6f6e6c79436f6f7264696e6160448201527f746f724f776e65723a2063616c6c6572206973206e6f7420746865206f776e6560648201527f72206f6620746865207265676973747279436f6f7264696e61746f7200000000608482015260a4016106bc565b610f6c81613707565b610f6c813461069f565b600054610100900460ff16158080156110d05750600054600160ff909116105b806110ea5750303b1580156110ea575060005460ff166001145b61114d5760405162461bcd60e51b815260206004820152602e60248201527f496e697469616c697a61626c653a20636f6e747261637420697320616c72656160448201526d191e481a5b9a5d1a585b1a5e995960921b60648201526084016106bc565b6000805460ff191660011790558015611170576000805461ff0019166101001790555b61117a838361374e565b80156111c0576000805461ff0019169055604051600181527f7f26b83ff96e1f2b6a682f133852f6798a09c465da95921460cefb38474024989060200160405180910390a15b505050565b6040805180820190915260608082526020820152600082604001515160405180604001604052806001815260200160008152505114801561122157508260a0015151604051806040016040528060018152602001600081525051145b801561124857508260c0015151604051806040016040528060018152602001600081525051145b801561126f57508260e0015151604051806040016040528060018152602001600081525051145b6112d95760405162461bcd60e51b81526020600482015260416024820152600080516020614fcc83398151915260448201527f7265733a20696e7075742071756f72756d206c656e677468206d69736d6174636064820152600d60fb1b608482015260a4016106bc565b825151602084015151146113515760405162461bcd60e51b815260206004820152604460248201819052600080516020614fcc833981519152908201527f7265733a20696e707574206e6f6e7369676e6572206c656e677468206d69736d6064820152630c2e8c6d60e31b608482015260a4016106bc565b4363ffffffff168463ffffffff16106113c05760405162461bcd60e51b815260206004820152603c6024820152600080516020614fcc83398151915260448201527f7265733a20696e76616c6964207265666572656e636520626c6f636b0000000060648201526084016106bc565b60408051808201825260008082526020808301829052835180850185526060808252818301528451808601865260018082529083019390935284518381528086019095529293919082810190803683370190505060208281019190915260408051808201825260018082526000919093015280518281528082019091529081602001602082028036833701905050815260408051808201909152606080825260208201528560200151516001600160401b0381111561148157611481613efd565b6040519080825280602002602001820160405280156114aa578160200160208202803683370190505b5081526020860151516001600160401b038111156114ca576114ca613efd565b6040519080825280602002602001820160405280156114f3578160200160208202803683370190505b508160200181905250600061159f60405180604001604052806001815260200160008152507f00000000000000000000000000000000000000000000000000000000000000006001600160a01b0316639aa1653d6040518163ffffffff1660e01b8152600401602060405180830381865afa158015611576573d6000803e3d6000fd5b505050506040513d601f19601f8201168201806040525081019061159a9190614a16565b6137cb565b905060005b87602001515181101561183a576115e9886020015182815181106115ca576115ca614985565b6020026020010151805160009081526020918201519091526040902090565b836020015182815181106115ff576115ff614985565b602090810291909101015280156116bf5760208301516116206001836149bd565b8151811061163057611630614985565b602002602001015160001c8360200151828151811061165157611651614985565b602002602001015160001c116116bf576040805162461bcd60e51b8152602060048201526024810191909152600080516020614fcc83398151915260448201527f7265733a206e6f6e5369676e65725075626b657973206e6f7420736f7274656460648201526084016106bc565b7f00000000000000000000000000000000000000000000000000000000000000006001600160a01b03166304ec63518460200151838151811061170457611704614985565b60200260200101518b8b60000151858151811061172357611723614985565b60200260200101516040518463ffffffff1660e01b81526004016117609392919092835263ffffffff918216602084015216604082015260600190565b602060405180830381865afa15801561177d573d6000803e3d6000fd5b505050506040513d601f19601f820116820180604052508101906117a191906149ed565b6001600160c01b0316836000015182815181106117c0576117c0614985565b6020026020010181815250506118266109416117fa84866000015185815181106117ec576117ec614985565b60200260200101511661385e565b8a60200151848151811061181057611810614985565b602002602001015161388990919063ffffffff16565b94508061183281614a39565b9150506115a4565b50506118458361396d565b60975490935060ff1660008161185c5760006118de565b7f00000000000000000000000000000000000000000000000000000000000000006001600160a01b031663c448feb86040518163ffffffff1660e01b8152600401602060405180830381865afa1580156118ba573d6000803e3d6000fd5b505050506040513d601f19601f820116820180604052508101906118de91906149d4565b905060005b604051806040016040528060018152602001600081525051811015611fe9578215611a6f578963ffffffff16827f00000000000000000000000000000000000000000000000000000000000000006001600160a01b031663249a0c426040518060400160405280600181526020016000815250858151811061196757611967614985565b01602001516040516001600160e01b031960e084901b16815260f89190911c6004820152602401602060405180830381865afa1580156119ab573d6000803e3d6000fd5b505050506040513d601f19601f820116820180604052508101906119cf91906149d4565b6119d99190614952565b11611a6f5760405162461bcd60e51b81526020600482015260666024820152600080516020614fcc83398151915260448201527f7265733a205374616b6552656769737472792075706461746573206d7573742060648201527f62652077697468696e207769746864726177616c44656c6179426c6f636b732060848201526577696e646f7760d01b60a482015260c4016106bc565b7f00000000000000000000000000000000000000000000000000000000000000006001600160a01b03166368bccaac60405180604001604052806001815260200160008152508381518110611ac657611ac6614985565b602001015160f81c60f81b60f81c8c8c60a001518581518110611aeb57611aeb614985565b60209081029190910101516040516001600160e01b031960e086901b16815260ff909316600484015263ffffffff9182166024840152166044820152606401602060405180830381865afa158015611b47573d6000803e3d6000fd5b505050506040513d601f19601f82011682018060405250810190611b6b9190614ac7565b6001600160401b031916611b8e8a6040015183815181106115ca576115ca614985565b67ffffffffffffffff191614611c2a5760405162461bcd60e51b81526020600482015260616024820152600080516020614fcc83398151915260448201527f7265733a2071756f72756d41706b206861736820696e2073746f72616765206460648201527f6f6573206e6f74206d617463682070726f76696465642071756f72756d2061706084820152606b60f81b60a482015260c4016106bc565b611c5a89604001518281518110611c4357611c43614985565b60200260200101518761317a90919063ffffffff16565b95507f00000000000000000000000000000000000000000000000000000000000000006001600160a01b031663c8294c5660405180604001604052806001815260200160008152508381518110611cb357611cb3614985565b602001015160f81c60f81b60f81c8c8c60c001518581518110611cd857611cd8614985565b60209081029190910101516040516001600160e01b031960e086901b16815260ff909316600484015263ffffffff9182166024840152166044820152606401602060405180830381865afa158015611d34573d6000803e3d6000fd5b505050506040513d601f19601f82011682018060405250810190611d589190614af2565b85602001518281518110611d6e57611d6e614985565b6001600160601b03909216602092830291909101820152850151805182908110611d9a57611d9a614985565b602002602001015185600001518281518110611db857611db8614985565b60200260200101906001600160601b031690816001600160601b0316815250506000805b8a6020015151811015611fd457611e4786600001518281518110611e0257611e02614985565b602002602001015160405180604001604052806001815260200160008152508581518110611e3257611e32614985565b016020015160f81c60ff161c60019081161490565b15611fc2577f00000000000000000000000000000000000000000000000000000000000000006001600160a01b031663f2be94ae60405180604001604052806001815260200160008152508581518110611ea357611ea3614985565b602001015160f81c60f81b60f81c8e89602001518581518110611ec857611ec8614985565b60200260200101518f60e001518881518110611ee657611ee6614985565b60200260200101518781518110611eff57611eff614985565b60209081029190910101516040516001600160e01b031960e087901b16815260ff909416600485015263ffffffff92831660248501526044840191909152166064820152608401602060405180830381865afa158015611f63573d6000803e3d6000fd5b505050506040513d601f19601f82011682018060405250810190611f879190614af2565b8751805185908110611f9b57611f9b614985565b60200260200101818151611faf9190614b0f565b6001600160601b03169052506001909101905b80611fcc81614a39565b915050611ddc565b50508080611fe190614a39565b9150506118e3565b5050506000806120038a868a606001518b60800151610826565b91509150816120745760405162461bcd60e51b81526020600482015260436024820152600080516020614fcc83398151915260448201527f7265733a2070616972696e6720707265636f6d70696c652063616c6c206661696064820152621b195960ea1b608482015260a4016106bc565b806120d55760405162461bcd60e51b81526020600482015260396024820152600080516020614fcc83398151915260448201527f7265733a207369676e617475726520697320696e76616c69640000000000000060648201526084016106bc565b505060008782602001516040516020016120f0929190614b37565b60408051808303601f1901815291905280516020909101209299929850919650505050505050565b612120613644565b61212a6000613a08565b565b600081848460405161213f929190614b7f565b60405180910390201490509392505050565b336001600160a01b037f000000000000000000000000000000000000000000000000000000000000000016146121995760405162461bcd60e51b81526004016106bc90614b8f565b604051639926ee7d60e01b81526001600160a01b037f00000000000000000000000000000000000000000000000000000000000000001690639926ee7d906121e79085908590600401614c54565b600060405180830381600087803b15801561220157600080fd5b505af1158015612215573d6000803e3d6000fd5b505050505050565b336001600160a01b037f000000000000000000000000000000000000000000000000000000000000000016146122655760405162461bcd60e51b81526004016106bc90614b8f565b6040516351b27a6d60e11b81526001600160a01b0382811660048301527f0000000000000000000000000000000000000000000000000000000000000000169063a364f4da906024015b600060405180830381600087803b1580156122c957600080fd5b505af11580156122dd573d6000803e3d6000fd5b5050505050565b6122ec613644565b60405163a98fb35560e01b81526001600160a01b037f0000000000000000000000000000000000000000000000000000000000000000169063a98fb355906122af908490600401614c9f565b60005a90506000848460405160200161235292919061496a565b60408051601f198184030181529181528151602092830120600081815260c9909352912080549192509063ffffffff166123a2576040516311cb69a760e11b8152600481018390526024016106bc565b8054640100000000900460ff16156123d057604051634e78d7f960e11b8152600481018390526024016106bc565b805464ff00000000191664010000000017815560018101546001600160a01b038616600090815260ca602052604090205410156124535760018101546001600160a01b038616600081815260ca602052604090819020549051632e2a182f60e11b81526004810192909252602482019290925260448101919091526064016106bc565b805460009061246a90849063ffffffff16876111c5565b509050604360ff16816020015160008151811061248957612489614985565b602002602001015161249b9190614cb2565b6001600160601b0316606482600001516000815181106124bd576124bd614985565b60200260200101516001600160601b03166124d89190614ce1565b101561256b57606481600001516000815181106124f7576124f7614985565b60200260200101516001600160601b03166125129190614ce1565b604360ff16826020015160008151811061252e5761252e614985565b60200260200101516125409190614cb2565b60405163530f5c4560e11b815260048101929092526001600160601b031660248201526044016106bc565b6040516001600160a01b038716815287907f8511746b73275e06971968773119b9601fc501d7bdf3824d8754042d148940e29060200160405180910390a260003a5a6125b790876149bd565b6125c49062011170614952565b6125ce9190614ce1565b9050826001015481111561260557600183015460405163437e283f60e11b81526004810191909152602481018290526044016106bc565b6001600160a01b038716600090815260ca60205260408120805483929061262d9084906149bd565b90915550506001600160a01b038716600081815260ca6020908152604091829020549151918252600080516020614fac833981519152910160405180910390a2604051339082156108fc029083906000818181858888f1935050505015801561269a573d6000803e3d6000fd5b505050505050505050565b600084336040516020016126ba92919061496a565b60408051601f198184030181529181528151602092830120600081815260c990935291205490915063ffffffff161561270957604051630c40bc4360e21b8152600481018290526024016106bc565b34156127665733600090815260ca60205260408120805434929061272e908490614952565b909155505033600081815260ca6020908152604091829020549151918252600080516020614fac833981519152910160405180910390a25b33600090815260ca60205260409020548211156127b75733600081815260ca602052604090819020549051632e2a182f60e11b815260048101929092526024820184905260448201526064016106bc565b604080516060810182526000602080830182815263ffffffff43818116865285870189815288865260c99094529386902085518154935115156401000000000264ffffffffff1990941692169190911791909117815590516001909101559151909187917f58894ec2d1b3c48909217b396c08128a0e6a8f385a897f1853f406ca926069609161284f913391908a908a908a90614d00565b60405180910390a2505050505050565b606060007f00000000000000000000000000000000000000000000000000000000000000006001600160a01b0316639aa1653d6040518163ffffffff1660e01b8152600401602060405180830381865afa1580156128c1573d6000803e3d6000fd5b505050506040513d601f19601f820116820180604052508101906128e59190614a16565b60ff1690508061290357505060408051600081526020810190915290565b6000805b828110156129b857604051633ca5a5f560e01b815260ff821660048201527f00000000000000000000000000000000000000000000000000000000000000006001600160a01b031690633ca5a5f590602401602060405180830381865afa158015612976573d6000803e3d6000fd5b505050506040513d601f19601f8201168201806040525081019061299a91906149d4565b6129a49083614952565b9150806129b081614a39565b915050612907565b506000816001600160401b038111156129d3576129d3613efd565b6040519080825280602002602001820160405280156129fc578160200160208202803683370190505b5090506000805b7f00000000000000000000000000000000000000000000000000000000000000006001600160a01b0316639aa1653d6040518163ffffffff1660e01b8152600401602060405180830381865afa158015612a61573d6000803e3d6000fd5b505050506040513d601f19601f82011682018060405250810190612a859190614a16565b60ff16811015612c1e57604051633ca5a5f560e01b815260ff821660048201526000907f00000000000000000000000000000000000000000000000000000000000000006001600160a01b031690633ca5a5f590602401602060405180830381865afa158015612af9573d6000803e3d6000fd5b505050506040513d601f19601f82011682018060405250810190612b1d91906149d4565b905060005b81811015612c09576040516356e4026d60e11b815260ff84166004820152602481018290527f00000000000000000000000000000000000000000000000000000000000000006001600160a01b03169063adc804da906044016040805180830381865afa158015612b97573d6000803e3d6000fd5b505050506040513d601f19601f82011682018060405250810190612bbb9190614a69565b60000151858581518110612bd157612bd1614985565b6001600160a01b039092166020928302919091019091015283612bf381614a39565b9450508080612c0190614a39565b915050612b22565b50508080612c1690614a39565b915050612a03565b5090949350505050565b612c30613644565b6001600160a01b038116612c955760405162461bcd60e51b815260206004820152602660248201527f4f776e61626c653a206e6577206f776e657220697320746865207a65726f206160448201526564647265737360d01b60648201526084016106bc565b610f6c81613a08565b6040516306045a9160e01b815260009030906306045a9190612cd2908b908b908b908b908b908b908b908b90600401614d57565b602060405180830381865afa158015612cef573d6000803e3d6000fd5b505050506040513d601f19601f8201168201806040525081019061081a9190614db9565b6065546001600160a01b03163314612da85760405162461bcd60e51b815260206004820152604c60248201527f536572766963654d616e61676572426173652e6f6e6c7952657761726473496e60448201527f69746961746f723a2063616c6c6572206973206e6f742074686520726577617260648201526b32399034b734ba34b0ba37b960a11b608482015260a4016106bc565b60005b8181101561307c57828282818110612dc557612dc5614985565b9050602002810190612dd79190614dd6565b612de89060408101906020016141dd565b6001600160a01b03166323b872dd3330868686818110612e0a57612e0a614985565b9050602002810190612e1c9190614dd6565b604080516001600160e01b031960e087901b1681526001600160a01b039485166004820152939092166024840152013560448201526064016020604051808303816000875af1158015612e73573d6000803e3d6000fd5b505050506040513d601f19601f82011682018060405250810190612e979190614db9565b506000838383818110612eac57612eac614985565b9050602002810190612ebe9190614dd6565b612ecf9060408101906020016141dd565b604051636eb1769f60e11b81523060048201526001600160a01b037f000000000000000000000000000000000000000000000000000000000000000081166024830152919091169063dd62ed3e90604401602060405180830381865afa158015612f3d573d6000803e3d6000fd5b505050506040513d601f19601f82011682018060405250810190612f6191906149d4565b9050838383818110612f7557612f75614985565b9050602002810190612f879190614dd6565b612f989060408101906020016141dd565b6001600160a01b031663095ea7b37f000000000000000000000000000000000000000000000000000000000000000083878787818110612fda57612fda614985565b9050602002810190612fec9190614dd6565b60400135612ffa9190614952565b6040516001600160e01b031960e085901b1681526001600160a01b03909216600483015260248201526044016020604051808303816000875af1158015613045573d6000803e3d6000fd5b505050506040513d601f19601f820116820180604052508101906130699190614db9565b50508061307590614a39565b9050612dab565b5060405163fce36c7d60e01b81526001600160a01b037f0000000000000000000000000000000000000000000000000000000000000000169063fce36c7d906121e79085908590600401614e5c565b6000836130d9868585613a5a565b1495945050505050565b60408051808201909152600080825260208201526130ff613e0b565b835181526020808501519082015260408082018490526000908360608460076107d05a03fa905080801561313257613134565bfe5b50806131725760405162461bcd60e51b815260206004820152600d60248201526c1958cb5b5d5b0b59985a5b1959609a1b60448201526064016106bc565b505092915050565b6040805180820190915260008082526020820152613196613e29565b835181526020808501518183015283516040808401919091529084015160608301526000908360808460066107d05a03fa90508080156131325750806131725760405162461bcd60e51b815260206004820152600d60248201526c1958cb5859190b59985a5b1959609a1b60448201526064016106bc565b613216613e47565b50604080516080810182527f198e9393920d483a7260bfb731fb5d25f1aa493335a9e71297e485b7aef312c28183019081527f1800deef121f1e76426a00665e5c4479674322d4f75edadd46debd5cd992f6ed6060830152815281518083019092527f275dc4a288d1afb3cbb1ac09187524c7db36395df7be3b99e673b13a075a65ec82527f1d9befcd05a5323e6da4d435f3b617cdb3af83285c2df711ef39c01571827f9d60208381019190915281019190915290565b6040805180820190915260008082526020820152600080806132fe600080516020614f8c8339815191528661499b565b90505b61330a81613b54565b9093509150600080516020614f8c833981519152828309831415613344576040805180820190915290815260208101919091529392505050565b600080516020614f8c833981519152600182089050613301565b604080518082018252868152602080820186905282518084019093528683528201849052600091829190613390613e6c565b60005b60028110156135555760006133a9826006614ce1565b90508482600281106133bd576133bd614985565b602002015151836133cf836000614952565b600c81106133df576133df614985565b60200201528482600281106133f6576133f6614985565b6020020151602001518382600161340d9190614952565b600c811061341d5761341d614985565b602002015283826002811061343457613434614985565b6020020151515183613447836002614952565b600c811061345757613457614985565b602002015283826002811061346e5761346e614985565b6020020151516001602002015183613487836003614952565b600c811061349757613497614985565b60200201528382600281106134ae576134ae614985565b6020020151602001516000600281106134c9576134c9614985565b6020020151836134da836004614952565b600c81106134ea576134ea614985565b602002015283826002811061350157613501614985565b60200201516020015160016002811061351c5761351c614985565b60200201518361352d836005614952565b600c811061353d5761353d614985565b6020020152508061354d81614a39565b915050613393565b5061355e613e8b565b60006020826101808560088cfa9151919c9115159b50909950505050505050505050565b60606000806135908461385e565b61ffff166001600160401b038111156135ab576135ab613efd565b6040519080825280601f01601f1916602001820160405280156135d5576020820181803683370190505b5090506000805b8251821080156135ed575061010081105b15612c1e576001811b935085841615613634578060f81b83838151811061361657613616614985565b60200101906001600160f81b031916908160001a9053508160010191505b61363d81614a39565b90506135dc565b6033546001600160a01b0316331461212a5760405162461bcd60e51b815260206004820181905260248201527f4f776e61626c653a2063616c6c6572206973206e6f7420746865206f776e657260448201526064016106bc565b606554604080516001600160a01b03928316815291831660208301527fe11cddf1816a43318ca175bbc52cd0185436e9cbead7c83acc54a73e461717e3910160405180910390a1606580546001600160a01b0319166001600160a01b0392909216919091179055565b6097805460ff19168215159081179091556040519081527f40e4ed880a29e0f6ddce307457fb75cddf4feef7d3ecb0301bfdf4976a0e2dfc9060200160405180910390a150565b600054610100900460ff166137b95760405162461bcd60e51b815260206004820152602b60248201527f496e697469616c697a61626c653a20636f6e7472616374206973206e6f74206960448201526a6e697469616c697a696e6760a81b60648201526084016106bc565b6137c282613a08565b610a848161369e565b6000806137d784613bd6565b9050808360ff166001901b116138555760405162461bcd60e51b815260206004820152603f60248201527f4269746d61705574696c732e6f72646572656442797465734172726179546f4260448201527f69746d61703a206269746d61702065786365656473206d61782076616c75650060648201526084016106bc565b90505b92915050565b6000805b8215613858576138736001846149bd565b909216918061388181614f69565b915050613862565b60408051808201909152600080825260208201526102008261ffff16106138e55760405162461bcd60e51b815260206004820152601060248201526f7363616c61722d746f6f2d6c6172676560801b60448201526064016106bc565b8161ffff16600114156138f9575081613858565b6040805180820190915260008082526020820181905284906001905b8161ffff168661ffff161061396257600161ffff871660ff83161c8116141561394557613942848461317a565b93505b61394f838461317a565b92506201fffe600192831b169101613915565b509195945050505050565b6040805180820190915260008082526020820152815115801561399257506020820151155b156139b0575050604080518082019091526000808252602082015290565b604051806040016040528083600001518152602001600080516020614f8c83398151915284602001516139e3919061499b565b6139fb90600080516020614f8c8339815191526149bd565b905292915050565b919050565b603380546001600160a01b038381166001600160a01b0319831681179093556040519116919082907f8be0079c531659141344cd1fd0a4f28419497f9722a3daafe3b4186f6b6457e090600090a35050565b600060208451613a6a919061499b565b15613af15760405162461bcd60e51b815260206004820152604b60248201527f4d65726b6c652e70726f63657373496e636c7573696f6e50726f6f664b65636360448201527f616b3a2070726f6f66206c656e6774682073686f756c642062652061206d756c60648201526a3a34b836329037b310199960a91b608482015260a4016106bc565b8260205b85518111610c5857613b0860028561499b565b613b2957816000528086015160205260406000209150600284049350613b42565b8086015160005281602052604060002091506002840493505b613b4d602082614952565b9050613af5565b60008080600080516020614f8c8339815191526003600080516020614f8c83398151915286600080516020614f8c833981519152888909090890506000613bca827f0c19139cb84c680a6e14116da060561765e05aa45a1c72a34f082305b61f3f52600080516020614f8c833981519152613d63565b91959194509092505050565b600061010082511115613c5f5760405162461bcd60e51b8152602060048201526044602482018190527f4269746d61705574696c732e6f72646572656442797465734172726179546f42908201527f69746d61703a206f7264657265644279746573417272617920697320746f6f206064820152636c6f6e6760e01b608482015260a4016106bc565b8151613c6d57506000919050565b60008083600081518110613c8357613c83614985565b0160200151600160f89190911c81901b92505b8451811015613d5a57848181518110613cb157613cb1614985565b0160200151600160f89190911c1b9150828211613d465760405162461bcd60e51b815260206004820152604760248201527f4269746d61705574696c732e6f72646572656442797465734172726179546f4260448201527f69746d61703a206f72646572656442797465734172726179206973206e6f74206064820152661bdc99195c995960ca1b608482015260a4016106bc565b91811791613d5381614a39565b9050613c96565b50909392505050565b600080613d6e613e8b565b613d76613ea9565b602080825281810181905260408201819052606082018890526080820187905260a082018690528260c08360056107d05a03fa9250828015613132575082613e005760405162461bcd60e51b815260206004820152601a60248201527f424e3235342e6578704d6f643a2063616c6c206661696c75726500000000000060448201526064016106bc565b505195945050505050565b60405180606001604052806003906020820280368337509192915050565b60405180608001604052806004906020820280368337509192915050565b6040518060400160405280613e5a613ec7565b8152602001613e67613ec7565b905290565b604051806101800160405280600c906020820280368337509192915050565b60405180602001604052806001906020820280368337509192915050565b6040518060c001604052806006906020820280368337509192915050565b60405180604001604052806002906020820280368337509192915050565b80356001600160601b031981168114613a0357600080fd5b634e487b7160e01b600052604160045260246000fd5b604080519081016001600160401b0381118282101715613f3557613f35613efd565b60405290565b60405161010081016001600160401b0381118282101715613f3557613f35613efd565b604051601f8201601f191681016001600160401b0381118282101715613f8657613f86613efd565b604052919050565b60006001600160401b03831115613fa757613fa7613efd565b613fba601f8401601f1916602001613f5e565b9050828152838383011115613fce57600080fd5b828260208301376000602084830101529392505050565b600082601f830112613ff657600080fd5b61400583833560208501613f8e565b9392505050565b6001600160a01b0381168114610f6c57600080fd5b600080600080600080600080610100898b03121561403e57600080fd5b88359750602089013596506040890135955061405c60608a01613ee5565b94506080890135935060a08901356001600160401b0381111561407e57600080fd5b61408a8b828c01613fe5565b93505060c0890135915060e08901356140a28161400c565b809150509295985092959890939650565b6000604082840312156140c557600080fd5b6140cd613f13565b9050813581526020820135602082015292915050565b600082601f8301126140f457600080fd5b6140fc613f13565b80604084018581111561410e57600080fd5b845b81811015614128578035845260209384019301614110565b509095945050505050565b60006080828403121561414557600080fd5b61414d613f13565b905061415983836140e3565b815261416883604084016140e3565b602082015292915050565b600080600080610120858703121561418a57600080fd5b8435935061419b86602087016140b3565b92506141aa8660608701614133565b91506141b98660e087016140b3565b905092959194509250565b6000602082840312156141d657600080fd5b5035919050565b6000602082840312156141ef57600080fd5b81356138558161400c565b6020808252825182820181905260009190848201906040850190845b8181101561423b5783516001600160a01b031683529284019291840191600101614216565b50909695505050505050565b8015158114610f6c57600080fd5b60006020828403121561426757600080fd5b813561385581614247565b6000806040838503121561428557600080fd5b82356142908161400c565b915060208301356142a08161400c565b809150509250929050565b803563ffffffff81168114613a0357600080fd5b60006001600160401b038211156142d8576142d8613efd565b5060051b60200190565b600082601f8301126142f357600080fd5b81356020614308614303836142bf565b613f5e565b82815260059290921b8401810191818101908684111561432757600080fd5b8286015b848110156143495761433c816142ab565b835291830191830161432b565b509695505050505050565b600082601f83011261436557600080fd5b81356020614375614303836142bf565b82815260069290921b8401810191818101908684111561439457600080fd5b8286015b84811015614349576143aa88826140b3565b835291830191604001614398565b600082601f8301126143c957600080fd5b813560206143d9614303836142bf565b82815260059290921b840181019181810190868411156143f857600080fd5b8286015b848110156143495780356001600160401b0381111561441b5760008081fd5b6144298986838b01016142e2565b8452509183019183016143fc565b6000610180828403121561444a57600080fd5b614452613f3b565b905081356001600160401b038082111561446b57600080fd5b614477858386016142e2565b8352602084013591508082111561448d57600080fd5b61449985838601614354565b602084015260408401359150808211156144b257600080fd5b6144be85838601614354565b60408401526144d08560608601614133565b60608401526144e28560e086016140b3565b60808401526101208401359150808211156144fc57600080fd5b614508858386016142e2565b60a084015261014084013591508082111561452257600080fd5b61452e858386016142e2565b60c084015261016084013591508082111561454857600080fd5b50614555848285016143b8565b60e08301525092915050565b60008060006060848603121561457657600080fd5b83359250614586602085016142ab565b915060408401356001600160401b038111156145a157600080fd5b6145ad86828701614437565b9150509250925092565b600081518084526020808501945080840160005b838110156145f05781516001600160601b0316875295820195908201906001016145cb565b509495945050505050565b604081526000835160408084015261461660808401826145b7565b90506020850151603f1984830301606085015261463382826145b7565b925050508260208301529392505050565b60008083601f84011261465657600080fd5b5081356001600160401b0381111561466d57600080fd5b60208301915083602082850101111561468557600080fd5b9250929050565b6000806000604084860312156146a157600080fd5b83356001600160401b038111156146b757600080fd5b6146c386828701614644565b909790965060209590950135949350505050565b600080604083850312156146ea57600080fd5b82356146f58161400c565b915060208301356001600160401b038082111561471157600080fd5b908401906060828703121561472557600080fd5b60405160608101818110838211171561474057614740613efd565b60405282358281111561475257600080fd5b61475e88828601613fe5565b82525060208301356020820152604083013560408201528093505050509250929050565b60006020828403121561479457600080fd5b81356001600160401b038111156147aa57600080fd5b8201601f810184136147bb57600080fd5b6147ca84823560208401613f8e565b949350505050565b6000806000606084860312156147e757600080fd5b8335925060208401356145868161400c565b6000806000806060858703121561480f57600080fd5b8435935060208501356001600160401b0381111561482c57600080fd5b61483887828801614644565b9598909750949560400135949350505050565b600080600080600080600060e0888a03121561486657600080fd5b87359650602088013595506040880135945061488460608901613ee5565b93506080880135925060a08801356001600160401b038111156148a657600080fd5b6148b28a828b01613fe5565b92505060c0880135905092959891949750929550565b600080602083850312156148db57600080fd5b82356001600160401b03808211156148f257600080fd5b818501915085601f83011261490657600080fd5b81358181111561491557600080fd5b8660208260051b850101111561492a57600080fd5b60209290920196919550909350505050565b634e487b7160e01b600052601160045260246000fd5b600082198211156149655761496561493c565b500190565b91825260601b6001600160601b031916602082015260340190565b634e487b7160e01b600052603260045260246000fd5b6000826149b857634e487b7160e01b600052601260045260246000fd5b500690565b6000828210156149cf576149cf61493c565b500390565b6000602082840312156149e657600080fd5b5051919050565b6000602082840312156149ff57600080fd5b81516001600160c01b038116811461385557600080fd5b600060208284031215614a2857600080fd5b815160ff8116811461385557600080fd5b6000600019821415614a4d57614a4d61493c565b5060010190565b6001600160601b0381168114610f6c57600080fd5b600060408284031215614a7b57600080fd5b614a83613f13565b8251614a8e8161400c565b81526020830151614a9e81614a54565b60208201529392505050565b600060208284031215614abc57600080fd5b81516138558161400c565b600060208284031215614ad957600080fd5b815167ffffffffffffffff198116811461385557600080fd5b600060208284031215614b0457600080fd5b815161385581614a54565b60006001600160601b0383811690831681811015614b2f57614b2f61493c565b039392505050565b63ffffffff60e01b8360e01b1681526000600482018351602080860160005b83811015614b7257815185529382019390820190600101614b56565b5092979650505050505050565b8183823760009101908152919050565b60208082526052908201527f536572766963654d616e61676572426173652e6f6e6c7952656769737472794360408201527f6f6f7264696e61746f723a2063616c6c6572206973206e6f742074686520726560608201527133b4b9ba393c9031b7b7b93234b730ba37b960711b608082015260a00190565b6000815180845260005b81811015614c2d57602081850181015186830182015201614c11565b81811115614c3f576000602083870101525b50601f01601f19169290920160200192915050565b60018060a01b0383168152604060208201526000825160606040840152614c7e60a0840182614c07565b90506020840151606084015260408401516080840152809150509392505050565b6020815260006140056020830184614c07565b60006001600160601b0380831681851681830481118215151615614cd857614cd861493c565b02949350505050565b6000816000190483118215151615614cfb57614cfb61493c565b500290565b6001600160a01b038616815263ffffffff851660208201526080604082018190528101839052828460a0830137600060a08483010152600060a0601f19601f86011683010190508260608301529695505050505050565b60006101008a83528960208401528860408401526001600160601b0319881660608401528660808401528060a0840152614d9381840187614c07565b60c084019590955250506001600160a01b039190911660e0909101529695505050505050565b600060208284031215614dcb57600080fd5b815161385581614247565b60008235609e19833603018112614dec57600080fd5b9190910192915050565b8035613a038161400c565b8183526000602080850194508260005b858110156145f0578135614e248161400c565b6001600160a01b0316875281830135614e3c81614a54565b6001600160601b0316878401526040968701969190910190600101614e11565b60208082528181018390526000906040808401600586901b8501820187855b88811015614f5b57878303603f190184528135368b9003609e19018112614ea157600080fd5b8a0160a0813536839003601e19018112614eba57600080fd5b820180356001600160401b03811115614ed257600080fd5b8060061b3603841315614ee457600080fd5b828752614ef6838801828c8501614e01565b92505050614f05888301614df6565b6001600160a01b03168886015281870135878601526060614f278184016142ab565b63ffffffff16908601526080614f3e8382016142ab565b63ffffffff16950194909452509285019290850190600101614e7b565b509098975050505050505050565b600061ffff80831681811415614f8157614f8161493c565b600101939250505056fe30644e72e131a029b85045b68181585d97816a916871ca8d3c208c16d87cfd470ea46f246ccfc58f7a93aa09bc6245a6818e97b1a160d186afe78993a3b194a0424c535369676e6174757265436865636b65722e636865636b5369676e617475a2646970667358221220a12fcf8e3216487b4e4e1392e4ae87b05ed0dde4aec3beddf64f45b5f14bf6d864736f6c634300080c0033","linkReferences":{}},"methodIdentifiers":{"avsDirectory()":"6b3aa72e","balanceOf(address)":"70a08231","batchesState(bytes32)":"b099627e","blsApkRegistry()":"5df45946","checkPublicInput(bytes,bytes32)":"95c6d604","checkSignatures(bytes32,uint32,(uint32[],(uint256,uint256)[],(uint256,uint256)[],(uint256[2],uint256[2]),(uint256,uint256),uint32[],uint32[],uint32[][]))":"4ae07c37","createAVSRewardsSubmission(((address,uint96)[],address,uint256,uint32,uint32)[])":"fce36c7d","createNewTask(bytes32,string,uint256)":"d66eaabd","delegation()":"df5cf723","depositToBatcher(address)":"4223d551","deregisterOperatorFromAVS(address)":"a364f4da","getOperatorRestakedStrategies(address)":"33cfb7b7","getRestakeableStrategies()":"e481af9d","initialize(address,address)":"485cc955","owner()":"8da5cb5b","registerOperatorToAVS(address,(bytes,bytes32,uint256))":"9926ee7d","registryCoordinator()":"6d14a987","renounceOwnership()":"715018a6","respondToTaskV2(bytes32,address,(uint32[],(uint256,uint256)[],(uint256,uint256)[],(uint256[2],uint256[2]),(uint256,uint256),uint32[],uint32[],uint32[][]))":"ab21739a","rewardsInitiator()":"fc299dee","setRewardsInitiator(address)":"3bc28c8c","setStaleStakesForbidden(bool)":"416c7e5e","stakeRegistry()":"68304835","staleStakesForbidden()":"b98d0908","transferOwnership(address)":"f2fde38b","trySignatureAndApkVerification(bytes32,(uint256,uint256),(uint256[2],uint256[2]),(uint256,uint256))":"171f1d5b","updateAVSMetadataURI(string)":"a98fb355","verifyBatchInclusion(bytes32,bytes32,bytes32,bytes20,bytes32,bytes,uint256)":"fa534dc0","verifyBatchInclusion(bytes32,bytes32,bytes32,bytes20,bytes32,bytes,uint256,address)":"06045a91","withdraw(uint256)":"2e1a7d4d"},"id":179}