{"abi":[{"type":"constructor","inputs":[{"name":"__avsDirectory","type":"address","internalType":"contract IAVSDirectory"},{"name":"__rewardsCoordinator","type":"address","internalType":"contract IRewardsCoordinator"},{"name":"__registryCoordinator","type":"address","internalType":"contract IRegistryCoordinator"},{"name":"__stakeRegistry","type":"address","internalType":"contract IStakeRegistry"}],"stateMutability":"nonpayable"},{"type":"receive","stateMutability":"payable"},{"type":"function","name":"alignedAggregator","inputs":[],"outputs":[{"name":"","type":"address","internalType":"address"}],"stateMutability":"view"},{"type":"function","name":"avsDirectory","inputs":[],"outputs":[{"name":"","type":"address","internalType":"address"}],"stateMutability":"view"},{"type":"function","name":"balanceOf","inputs":[{"name":"account","type":"address","internalType":"address"}],"outputs":[{"name":"","type":"uint256","internalType":"uint256"}],"stateMutability":"view"},{"type":"function","name":"batchersBalances","inputs":[{"name":"","type":"address","internalType":"address"}],"outputs":[{"name":"","type":"uint256","internalType":"uint256"}],"stateMutability":"view"},{"type":"function","name":"batchesState","inputs":[{"name":"","type":"bytes32","internalType":"bytes32"}],"outputs":[{"name":"taskCreatedBlock","type":"uint32","internalType":"uint32"},{"name":"responded","type":"bool","internalType":"bool"},{"name":"respondToTaskFeeLimit","type":"uint256","internalType":"uint256"}],"stateMutability":"view"},{"type":"function","name":"blsApkRegistry","inputs":[],"outputs":[{"name":"","type":"address","internalType":"contract IBLSApkRegistry"}],"stateMutability":"view"},{"type":"function","name":"checkPublicInput","inputs":[{"name":"publicInput","type":"bytes","internalType":"bytes"},{"name":"hash","type":"bytes32","internalType":"bytes32"}],"outputs":[{"name":"","type":"bool","internalType":"bool"}],"stateMutability":"pure"},{"type":"function","name":"checkSignatures","inputs":[{"name":"msgHash","type":"bytes32","internalType":"bytes32"},{"name":"referenceBlockNumber","type":"uint32","internalType":"uint32"},{"name":"params","type":"tuple","internalType":"struct IBLSSignatureChecker.NonSignerStakesAndSignature","components":[{"name":"nonSignerQuorumBitmapIndices","type":"uint32[]","internalType":"uint32[]"},{"name":"nonSignerPubkeys","type":"tuple[]","internalType":"struct BN254.G1Point[]","components":[{"name":"X","type":"uint256","internalType":"uint256"},{"name":"Y","type":"uint256","internalType":"uint256"}]},{"name":"quorumApks","type":"tuple[]","internalType":"struct BN254.G1Point[]","components":[{"name":"X","type":"uint256","internalType":"uint256"},{"name":"Y","type":"uint256","internalType":"uint256"}]},{"name":"apkG2","type":"tuple","internalType":"struct BN254.G2Point","components":[{"name":"X","type":"uint256[2]","internalType":"uint256[2]"},{"name":"Y","type":"uint256[2]","internalType":"uint256[2]"}]},{"name":"sigma","type":"tuple","internalType":"struct BN254.G1Point","components":[{"name":"X","type":"uint256","internalType":"uint256"},{"name":"Y","type":"uint256","internalType":"uint256"}]},{"name":"quorumApkIndices","type":"uint32[]","internalType":"uint32[]"},{"name":"totalStakeIndices","type":"uint32[]","internalType":"uint32[]"},{"name":"nonSignerStakeIndices","type":"uint32[][]","internalType":"uint32[][]"}]}],"outputs":[{"name":"","type":"tuple","internalType":"struct IBLSSignatureChecker.QuorumStakeTotals","components":[{"name":"signedStakeForQuorum","type":"uint96[]","internalType":"uint96[]"},{"name":"totalStakeForQuorum","type":"uint96[]","internalType":"uint96[]"}]},{"name":"","type":"bytes32","internalType":"bytes32"}],"stateMutability":"view"},{"type":"function","name":"createAVSRewardsSubmission","inputs":[{"name":"rewardsSubmissions","type":"tuple[]","internalType":"struct IRewardsCoordinator.RewardsSubmission[]","components":[{"name":"strategiesAndMultipliers","type":"tuple[]","internalType":"struct IRewardsCoordinator.StrategyAndMultiplier[]","components":[{"name":"strategy","type":"address","internalType":"contract IStrategy"},{"name":"multiplier","type":"uint96","internalType":"uint96"}]},{"name":"token","type":"address","internalType":"contract IERC20"},{"name":"amount","type":"uint256","internalType":"uint256"},{"name":"startTimestamp","type":"uint32","internalType":"uint32"},{"name":"duration","type":"uint32","internalType":"uint32"}]}],"outputs":[],"stateMutability":"nonpayable"},{"type":"function","name":"createNewTask","inputs":[{"name":"batchMerkleRoot","type":"bytes32","internalType":"bytes32"},{"name":"batchDataPointer","type":"string","internalType":"string"},{"name":"respondToTaskFeeLimit","type":"uint256","internalType":"uint256"}],"outputs":[],"stateMutability":"payable"},{"type":"function","name":"delegation","inputs":[],"outputs":[{"name":"","type":"address","internalType":"contract IDelegationManager"}],"stateMutability":"view"},{"type":"function","name":"depositToBatcher","inputs":[{"name":"account","type":"address","internalType":"address"}],"outputs":[],"stateMutability":"payable"},{"type":"function","name":"deregisterOperatorFromAVS","inputs":[{"name":"operator","type":"address","internalType":"address"}],"outputs":[],"stateMutability":"nonpayable"},{"type":"function","name":"getOperatorRestakedStrategies","inputs":[{"name":"operator","type":"address","internalType":"address"}],"outputs":[{"name":"","type":"address[]","internalType":"address[]"}],"stateMutability":"view"},{"type":"function","name":"getRestakeableStrategies","inputs":[],"outputs":[{"name":"","type":"address[]","internalType":"address[]"}],"stateMutability":"view"},{"type":"function","name":"initialize","inputs":[{"name":"_initialOwner","type":"address","internalType":"address"},{"name":"_rewardsInitiator","type":"address","internalType":"address"},{"name":"_alignedAggregator","type":"address","internalType":"address"}],"outputs":[],"stateMutability":"nonpayable"},{"type":"function","name":"initializeAggregator","inputs":[{"name":"_alignedAggregator","type":"address","internalType":"address"}],"outputs":[],"stateMutability":"nonpayable"},{"type":"function","name":"owner","inputs":[],"outputs":[{"name":"","type":"address","internalType":"address"}],"stateMutability":"view"},{"type":"function","name":"registerOperatorToAVS","inputs":[{"name":"operator","type":"address","internalType":"address"},{"name":"operatorSignature","type":"tuple","internalType":"struct ISignatureUtils.SignatureWithSaltAndExpiry","components":[{"name":"signature","type":"bytes","internalType":"bytes"},{"name":"salt","type":"bytes32","internalType":"bytes32"},{"name":"expiry","type":"uint256","internalType":"uint256"}]}],"outputs":[],"stateMutability":"nonpayable"},{"type":"function","name":"registryCoordinator","inputs":[],"outputs":[{"name":"","type":"address","internalType":"contract IRegistryCoordinator"}],"stateMutability":"view"},{"type":"function","name":"renounceOwnership","inputs":[],"outputs":[],"stateMutability":"nonpayable"},{"type":"function","name":"respondToTaskV2","inputs":[{"name":"batchMerkleRoot","type":"bytes32","internalType":"bytes32"},{"name":"senderAddress","type":"address","internalType":"address"},{"name":"nonSignerStakesAndSignature","type":"tuple","internalType":"struct IBLSSignatureChecker.NonSignerStakesAndSignature","components":[{"name":"nonSignerQuorumBitmapIndices","type":"uint32[]","internalType":"uint32[]"},{"name":"nonSignerPubkeys","type":"tuple[]","internalType":"struct BN254.G1Point[]","components":[{"name":"X","type":"uint256","internalType":"uint256"},{"name":"Y","type":"uint256","internalType":"uint256"}]},{"name":"quorumApks","type":"tuple[]","internalType":"struct BN254.G1Point[]","components":[{"name":"X","type":"uint256","internalType":"uint256"},{"name":"Y","type":"uint256","internalType":"uint256"}]},{"name":"apkG2","type":"tuple","internalType":"struct BN254.G2Point","components":[{"name":"X","type":"uint256[2]","internalType":"uint256[2]"},{"name":"Y","type":"uint256[2]","internalType":"uint256[2]"}]},{"name":"sigma","type":"tuple","internalType":"struct BN254.G1Point","components":[{"name":"X","type":"uint256","internalType":"uint256"},{"name":"Y","type":"uint256","internalType":"uint256"}]},{"name":"quorumApkIndices","type":"uint32[]","internalType":"uint32[]"},{"name":"totalStakeIndices","type":"uint32[]","internalType":"uint32[]"},{"name":"nonSignerStakeIndices","type":"uint32[][]","internalType":"uint32[][]"}]}],"outputs":[],"stateMutability":"nonpayable"},{"type":"function","name":"rewardsInitiator","inputs":[],"outputs":[{"name":"","type":"address","internalType":"address"}],"stateMutability":"view"},{"type":"function","name":"setAggregator","inputs":[{"name":"_alignedAggregator","type":"address","internalType":"address"}],"outputs":[],"stateMutability":"nonpayable"},{"type":"function","name":"setRewardsInitiator","inputs":[{"name":"newRewardsInitiator","type":"address","internalType":"address"}],"outputs":[],"stateMutability":"nonpayable"},{"type":"function","name":"setStaleStakesForbidden","inputs":[{"name":"value","type":"bool","internalType":"bool"}],"outputs":[],"stateMutability":"nonpayable"},{"type":"function","name":"stakeRegistry","inputs":[],"outputs":[{"name":"","type":"address","internalType":"contract IStakeRegistry"}],"stateMutability":"view"},{"type":"function","name":"staleStakesForbidden","inputs":[],"outputs":[{"name":"","type":"bool","internalType":"bool"}],"stateMutability":"view"},{"type":"function","name":"transferOwnership","inputs":[{"name":"newOwner","type":"address","internalType":"address"}],"outputs":[],"stateMutability":"nonpayable"},{"type":"function","name":"trySignatureAndApkVerification","inputs":[{"name":"msgHash","type":"bytes32","internalType":"bytes32"},{"name":"apk","type":"tuple","internalType":"struct BN254.G1Point","components":[{"name":"X","type":"uint256","internalType":"uint256"},{"name":"Y","type":"uint256","internalType":"uint256"}]},{"name":"apkG2","type":"tuple","internalType":"struct BN254.G2Point","components":[{"name":"X","type":"uint256[2]","internalType":"uint256[2]"},{"name":"Y","type":"uint256[2]","internalType":"uint256[2]"}]},{"name":"sigma","type":"tuple","internalType":"struct BN254.G1Point","components":[{"name":"X","type":"uint256","internalType":"uint256"},{"name":"Y","type":"uint256","internalType":"uint256"}]}],"outputs":[{"name":"pairingSuccessful","type":"bool","internalType":"bool"},{"name":"siganatureIsValid","type":"bool","internalType":"bool"}],"stateMutability":"view"},{"type":"function","name":"updateAVSMetadataURI","inputs":[{"name":"_metadataURI","type":"string","internalType":"string"}],"outputs":[],"stateMutability":"nonpayable"},{"type":"function","name":"verifyBatchInclusion","inputs":[{"name":"proofCommitment","type":"bytes32","internalType":"bytes32"},{"name":"pubInputCommitment","type":"bytes32","internalType":"bytes32"},{"name":"provingSystemAuxDataCommitment","type":"bytes32","internalType":"bytes32"},{"name":"proofGeneratorAddr","type":"bytes20","internalType":"bytes20"},{"name":"batchMerkleRoot","type":"bytes32","internalType":"bytes32"},{"name":"merkleProof","type":"bytes","internalType":"bytes"},{"name":"verificationDataBatchIndex","type":"uint256","internalType":"uint256"},{"name":"senderAddress","type":"address","internalType":"address"}],"outputs":[{"name":"","type":"bool","internalType":"bool"}],"stateMutability":"view"},{"type":"function","name":"verifyBatchInclusion","inputs":[{"name":"proofCommitment","type":"bytes32","internalType":"bytes32"},{"name":"pubInputCommitment","type":"bytes32","internalType":"bytes32"},{"name":"provingSystemAuxDataCommitment","type":"bytes32","internalType":"bytes32"},{"name":"proofGeneratorAddr","type":"bytes20","internalType":"bytes20"},{"name":"batchMerkleRoot","type":"bytes32","internalType":"bytes32"},{"name":"merkleProof","type":"bytes","internalType":"bytes"},{"name":"verificationDataBatchIndex","type":"uint256","internalType":"uint256"}],"outputs":[{"name":"","type":"bool","internalType":"bool"}],"stateMutability":"view"},{"type":"function","name":"withdraw","inputs":[{"name":"amount","type":"uint256","internalType":"uint256"}],"outputs":[],"stateMutability":"nonpayable"},{"type":"event","name":"BatchVerified","inputs":[{"name":"batchMerkleRoot","type":"bytes32","indexed":true,"internalType":"bytes32"},{"name":"senderAddress","type":"address","indexed":false,"internalType":"address"}],"anonymous":false},{"type":"event","name":"BatcherBalanceUpdated","inputs":[{"name":"batcher","type":"address","indexed":true,"internalType":"address"},{"name":"newBalance","type":"uint256","indexed":false,"internalType":"uint256"}],"anonymous":false},{"type":"event","name":"Initialized","inputs":[{"name":"version","type":"uint8","indexed":false,"internalType":"uint8"}],"anonymous":false},{"type":"event","name":"NewBatchV2","inputs":[{"name":"batchMerkleRoot","type":"bytes32","indexed":true,"internalType":"bytes32"},{"name":"senderAddress","type":"address","indexed":false,"internalType":"address"},{"name":"taskCreatedBlock","type":"uint32","indexed":false,"internalType":"uint32"},{"name":"batchDataPointer","type":"string","indexed":false,"internalType":"string"}],"anonymous":false},{"type":"event","name":"NewBatchV3","inputs":[{"name":"batchMerkleRoot","type":"bytes32","indexed":true,"internalType":"bytes32"},{"name":"senderAddress","type":"address","indexed":false,"internalType":"address"},{"name":"taskCreatedBlock","type":"uint32","indexed":false,"internalType":"uint32"},{"name":"batchDataPointer","type":"string","indexed":false,"internalType":"string"},{"name":"respondToTaskFeeLimit","type":"uint256","indexed":false,"internalType":"uint256"}],"anonymous":false},{"type":"event","name":"OwnershipTransferred","inputs":[{"name":"previousOwner","type":"address","indexed":true,"internalType":"address"},{"name":"newOwner","type":"address","indexed":true,"internalType":"address"}],"anonymous":false},{"type":"event","name":"RewardsInitiatorUpdated","inputs":[{"name":"prevRewardsInitiator","type":"address","indexed":false,"internalType":"address"},{"name":"newRewardsInitiator","type":"address","indexed":false,"internalType":"address"}],"anonymous":false},{"type":"event","name":"StaleStakesForbiddenUpdate","inputs":[{"name":"value","type":"bool","indexed":false,"internalType":"bool"}],"anonymous":false},{"type":"error","name":"BatchAlreadyResponded","inputs":[{"name":"batchIdentifierHash","type":"bytes32","internalType":"bytes32"}]},{"type":"error","name":"BatchAlreadySubmitted","inputs":[{"name":"batchIdentifierHash","type":"bytes32","internalType":"bytes32"}]},{"type":"error","name":"BatchDoesNotExist","inputs":[{"name":"batchIdentifierHash","type":"bytes32","internalType":"bytes32"}]},{"type":"error","name":"ExceededMaxRespondFee","inputs":[{"name":"respondToTaskFeeLimit","type":"uint256","internalType":"uint256"},{"name":"txCost","type":"uint256","internalType":"uint256"}]},{"type":"error","name":"InsufficientFunds","inputs":[{"name":"batcher","type":"address","internalType":"address"},{"name":"required","type":"uint256","internalType":"uint256"},{"name":"available","type":"uint256","internalType":"uint256"}]},{"type":"error","name":"InvalidDepositAmount","inputs":[{"name":"amount","type":"uint256","internalType":"uint256"}]},{"type":"error","name":"InvalidQuorumThreshold","inputs":[{"name":"signedStake","type":"uint256","internalType":"uint256"},{"name":"requiredStake","type":"uint256","internalType":"uint256"}]},{"type":"error","name":"SenderIsNotAggregator","inputs":[{"name":"sender","type":"address","internalType":"address"},{"name":"alignedAggregator","type":"address","internalType":"address"}]}],"bytecode":{"object":"0x6101806040523480156200001257600080fd5b5060405162005736380380620057368339810160408190526200003591620002e5565b6001600160a01b0380851660805280841660a05280831660c052811660e0528184848284620000636200020a565b50505050806001600160a01b0316610100816001600160a01b031681525050806001600160a01b031663683048356040518163ffffffff1660e01b8152600401602060405180830381865afa158015620000c1573d6000803e3d6000fd5b505050506040513d601f19601f82011682018060405250810190620000e791906200034d565b6001600160a01b0316610120816001600160a01b031681525050806001600160a01b0316635df459466040518163ffffffff1660e01b8152600401602060405180830381865afa15801562000140573d6000803e3d6000fd5b505050506040513d601f19601f820116820180604052508101906200016691906200034d565b6001600160a01b0316610140816001600160a01b031681525050610120516001600160a01b031663df5cf7236040518163ffffffff1660e01b8152600401602060405180830381865afa158015620001c2573d6000803e3d6000fd5b505050506040513d601f19601f82011682018060405250810190620001e891906200034d565b6001600160a01b03166101605250620002006200020a565b5050505062000374565b600054610100900460ff1615620002775760405162461bcd60e51b815260206004820152602760248201527f496e697469616c697a61626c653a20636f6e747261637420697320696e697469604482015266616c697a696e6760c81b606482015260840160405180910390fd5b60005460ff9081161015620002ca576000805460ff191660ff9081179091556040519081527f7f26b83ff96e1f2b6a682f133852f6798a09c465da95921460cefb38474024989060200160405180910390a15b565b6001600160a01b0381168114620002e257600080fd5b50565b60008060008060808587031215620002fc57600080fd5b84516200030981620002cc565b60208601519094506200031c81620002cc565b60408601519093506200032f81620002cc565b60608601519092506200034281620002cc565b939692955090935050565b6000602082840312156200036057600080fd5b81516200036d81620002cc565b9392505050565b60805160a05160c05160e051610100516101205161014051610160516152b4620004826000396000818161065401526118020152600081816103970152611a150152600081816103cb01528181611c020152611df20152600081816104320152818161102a015281816114be0152818161166501526118b6015260008181610d3f01528181610e9a01528181610f3101528181612ae001528181612c630152612d02015260008181610b6601528181610bf501528181610c75015281816121a00152818161226c01528181612a1e0152612bbe0152600081816130cf0152818161318b01526132770152600081816103fc015281816121f4015281816122c8015261234701526152b46000f3fe6080604052600436106101fd5760003560e01c806395c6d6041161010d578063d66eaabd116100a0578063f474b5201161006f578063f474b520146106ab578063f9120af6146106d8578063fa534dc0146106f8578063fc299dee14610718578063fce36c7d1461073857600080fd5b8063d66eaabd1461062f578063df5cf72314610642578063e481af9d14610676578063f2fde38b1461068b57600080fd5b8063ab21739a116100dc578063ab21739a1461056b578063b099627e1461058b578063b98d0908146105f5578063c0c53b8b1461060f57600080fd5b806395c6d604146104eb5780639926ee7d1461050b578063a364f4da1461052b578063a98fb3551461054b57600080fd5b80634ae07c37116101905780636d14a9871161015f5780636d14a9871461042057806370a0823114610454578063715018a614610498578063800fb61f146104ad5780638da5cb5b146104cd57600080fd5b80634ae07c37146103575780635df459461461038557806368304835146103b95780636b3aa72e146103ed57600080fd5b80633bc28c8c116101cc5780633bc28c8c146102cc578063416c7e5e146102ec5780634223d5511461030c5780634a5bf6321461031f57600080fd5b806306045a9114610213578063171f1d5b146102485780632e1a7d4d1461027f57806333cfb7b71461029f57600080fd5b3661020e5761020c3334610758565b005b600080fd5b34801561021f57600080fd5b5061023361022e366004614204565b6107ea565b60405190151581526020015b60405180910390f35b34801561025457600080fd5b50610268610263366004614356565b6108df565b60408051921515835290151560208301520161023f565b34801561028b57600080fd5b5061020c61029a3660046143a7565b610a69565b3480156102ab57600080fd5b506102bf6102ba3660046143c0565b610b41565b60405161023f91906143dd565b3480156102d857600080fd5b5061020c6102e73660046143c0565b611014565b3480156102f857600080fd5b5061020c610307366004614438565b611028565b61020c61031a3660046143c0565b61115f565b34801561032b57600080fd5b5060cb5461033f906001600160a01b031681565b6040516001600160a01b03909116815260200161023f565b34801561036357600080fd5b5061037761037236600461470b565b611169565b60405161023f9291906147a5565b34801561039157600080fd5b5061033f7f000000000000000000000000000000000000000000000000000000000000000081565b3480156103c557600080fd5b5061033f7f000000000000000000000000000000000000000000000000000000000000000081565b3480156103f957600080fd5b507f000000000000000000000000000000000000000000000000000000000000000061033f565b34801561042c57600080fd5b5061033f7f000000000000000000000000000000000000000000000000000000000000000081565b34801561046057600080fd5b5061048a61046f3660046143c0565b6001600160a01b0316600090815260ca602052604090205490565b60405190815260200161023f565b3480156104a457600080fd5b5061020c6120bc565b3480156104b957600080fd5b5061020c6104c83660046143c0565b6120d0565b3480156104d957600080fd5b506033546001600160a01b031661033f565b3480156104f757600080fd5b50610233610506366004614836565b612170565b34801561051757600080fd5b5061020c610526366004614881565b612195565b34801561053757600080fd5b5061020c6105463660046143c0565b612261565b34801561055757600080fd5b5061020c61056636600461492c565b612328565b34801561057757600080fd5b5061020c61058636600461497c565b61237c565b34801561059757600080fd5b506105d36105a63660046143a7565b60c9602052600090815260409020805460019091015463ffffffff821691640100000000900460ff169083565b6040805163ffffffff909416845291151560208401529082015260600161023f565b34801561060157600080fd5b506097546102339060ff1681565b34801561061b57600080fd5b5061020c61062a3660046149a3565b612736565b61020c61063d3660046149ee565b612820565b34801561064e57600080fd5b5061033f7f000000000000000000000000000000000000000000000000000000000000000081565b34801561068257600080fd5b506102bf612a18565b34801561069757600080fd5b5061020c6106a63660046143c0565b612de1565b3480156106b757600080fd5b5061048a6106c63660046143c0565b60ca6020526000908152604090205481565b3480156106e457600080fd5b5061020c6106f33660046143c0565b612e57565b34801561070457600080fd5b50610233610713366004614a40565b612e81565b34801561072457600080fd5b5060655461033f906001600160a01b031681565b34801561074457600080fd5b5061020c610753366004614abd565b612ef6565b8061077e57604051632097692160e11b8152600481018290526024015b60405180910390fd5b6001600160a01b038216600090815260ca6020526040812080548392906107a6908490614b47565b90915550506001600160a01b038216600081815260ca602090815260409182902054915191825260008051602061523f833981519152910160405180910390a25050565b6000806001600160a01b03831661080257508461082e565b8583604051602001610815929190614b5f565b6040516020818303038152906040528051906020012090505b600081815260c9602052604090205463ffffffff166108515760009150506108d3565b600081815260c96020526040902054640100000000900460ff166108795760009150506108d3565b60408051602081018c90529081018a9052606081018990526001600160601b03198816608082015260009060940160408051601f19818403018152919052805160208201209091506108cd878983896132ae565b93505050505b98975050505050505050565b60008060007f30644e72e131a029b85045b68181585d2833e84879b9709143e1f593f00000018787600001518860200151886000015160006002811061092757610927614b7a565b60200201518951600160200201518a6020015160006002811061094c5761094c614b7a565b60200201518b6020015160016002811061096857610968614b7a565b602090810291909101518c518d8301516040516109c59a99989796959401988952602089019790975260408801959095526060870193909352608086019190915260a085015260c084015260e08301526101008201526101200190565b6040516020818303038152906040528051906020012060001c6109e89190614b90565b9050610a5b610a016109fa88846132c6565b869061335d565b610a096133f1565b610a51610a4285610a3c604080518082018252600080825260209182015281518083019092526001825260029082015290565b906132c6565b610a4b8c6134b1565b9061335d565b886201d4c0613541565b909890975095505050505050565b33600090815260ca6020526040902054811115610aba5733600081815260ca602052604090819020549051632e2a182f60e11b81526004810192909252602482018390526044820152606401610775565b33600090815260ca602052604081208054839290610ad9908490614bb2565b909155505033600081815260ca602090815260409182902054915191825260008051602061523f833981519152910160405180910390a2604051339082156108fc029083906000818181858888f19350505050158015610b3d573d6000803e3d6000fd5b5050565b6040516309aa152760e11b81526001600160a01b0382811660048301526060916000917f000000000000000000000000000000000000000000000000000000000000000016906313542a4e90602401602060405180830381865afa158015610bad573d6000803e3d6000fd5b505050506040513d601f19601f82011682018060405250810190610bd19190614bc9565b60405163871ef04960e01b8152600481018290529091506000906001600160a01b037f0000000000000000000000000000000000000000000000000000000000000000169063871ef04990602401602060405180830381865afa158015610c3c573d6000803e3d6000fd5b505050506040513d601f19601f82011682018060405250810190610c609190614be2565b90506001600160c01b0381161580610cfa57507f00000000000000000000000000000000000000000000000000000000000000006001600160a01b0316639aa1653d6040518163ffffffff1660e01b8152600401602060405180830381865afa158015610cd1573d6000803e3d6000fd5b505050506040513d601f19601f82011682018060405250810190610cf59190614c0b565b60ff16155b15610d1a5760408051600080825260208201909252905b50949350505050565b6000610d2e826001600160c01b0316613765565b90506000805b8251811015610e04577f00000000000000000000000000000000000000000000000000000000000000006001600160a01b0316633ca5a5f5848381518110610d7e57610d7e614b7a565b01602001516040516001600160e01b031960e084901b16815260f89190911c6004820152602401602060405180830381865afa158015610dc2573d6000803e3d6000fd5b505050506040513d601f19601f82011682018060405250810190610de69190614bc9565b610df09083614b47565b915080610dfc81614c2e565b915050610d34565b506000816001600160401b03811115610e1f57610e1f6140e0565b604051908082528060200260200182016040528015610e48578160200160208202803683370190505b5090506000805b8451811015611007576000858281518110610e6c57610e6c614b7a565b0160200151604051633ca5a5f560e01b815260f89190911c6004820181905291506000906001600160a01b037f00000000000000000000000000000000000000000000000000000000000000001690633ca5a5f590602401602060405180830381865afa158015610ee1573d6000803e3d6000fd5b505050506040513d601f19601f82011682018060405250810190610f059190614bc9565b905060005b81811015610ff1576040516356e4026d60e11b815260ff84166004820152602481018290527f00000000000000000000000000000000000000000000000000000000000000006001600160a01b03169063adc804da906044016040805180830381865afa158015610f7f573d6000803e3d6000fd5b505050506040513d601f19601f82011682018060405250810190610fa39190614c5e565b60000151868681518110610fb957610fb9614b7a565b6001600160a01b039092166020928302919091019091015284610fdb81614c2e565b9550508080610fe990614c2e565b915050610f0a565b5050508080610fff90614c2e565b915050610e4f565b5090979650505050505050565b61101c613827565b61102581613881565b50565b7f00000000000000000000000000000000000000000000000000000000000000006001600160a01b0316638da5cb5b6040518163ffffffff1660e01b8152600401602060405180830381865afa158015611086573d6000803e3d6000fd5b505050506040513d601f19601f820116820180604052508101906110aa9190614c9f565b6001600160a01b0316336001600160a01b0316146111565760405162461bcd60e51b815260206004820152605c60248201527f424c535369676e6174757265436865636b65722e6f6e6c79436f6f7264696e6160448201527f746f724f776e65723a2063616c6c6572206973206e6f7420746865206f776e6560648201527f72206f6620746865207265676973747279436f6f7264696e61746f7200000000608482015260a401610775565b611025816138ea565b6110258134610758565b604080518082019091526060808252602082015260008260400151516040518060400160405280600181526020016000815250511480156111c557508260a0015151604051806040016040528060018152602001600081525051145b80156111ec57508260c0015151604051806040016040528060018152602001600081525051145b801561121357508260e0015151604051806040016040528060018152602001600081525051145b61127d5760405162461bcd60e51b8152602060048201526041602482015260008051602061525f83398151915260448201527f7265733a20696e7075742071756f72756d206c656e677468206d69736d6174636064820152600d60fb1b608482015260a401610775565b825151602084015151146112f55760405162461bcd60e51b81526020600482015260446024820181905260008051602061525f833981519152908201527f7265733a20696e707574206e6f6e7369676e6572206c656e677468206d69736d6064820152630c2e8c6d60e31b608482015260a401610775565b4363ffffffff168463ffffffff16106113645760405162461bcd60e51b815260206004820152603c602482015260008051602061525f83398151915260448201527f7265733a20696e76616c6964207265666572656e636520626c6f636b000000006064820152608401610775565b60408051808201825260008082526020808301829052835180850185526060808252818301528451808601865260018082529083019390935284518381528086019095529293919082810190803683370190505060208281019190915260408051808201825260018082526000919093015280518281528082019091529081602001602082028036833701905050815260408051808201909152606080825260208201528560200151516001600160401b03811115611425576114256140e0565b60405190808252806020026020018201604052801561144e578160200160208202803683370190505b5081526020860151516001600160401b0381111561146e5761146e6140e0565b604051908082528060200260200182016040528015611497578160200160208202803683370190505b508160200181905250600061154360405180604001604052806001815260200160008152507f00000000000000000000000000000000000000000000000000000000000000006001600160a01b0316639aa1653d6040518163ffffffff1660e01b8152600401602060405180830381865afa15801561151a573d6000803e3d6000fd5b505050506040513d601f19601f8201168201806040525081019061153e9190614c0b565b613931565b905060005b8760200151518110156117de5761158d8860200151828151811061156e5761156e614b7a565b6020026020010151805160009081526020918201519091526040902090565b836020015182815181106115a3576115a3614b7a565b602090810291909101015280156116635760208301516115c4600183614bb2565b815181106115d4576115d4614b7a565b602002602001015160001c836020015182815181106115f5576115f5614b7a565b602002602001015160001c11611663576040805162461bcd60e51b815260206004820152602481019190915260008051602061525f83398151915260448201527f7265733a206e6f6e5369676e65725075626b657973206e6f7420736f727465646064820152608401610775565b7f00000000000000000000000000000000000000000000000000000000000000006001600160a01b03166304ec6351846020015183815181106116a8576116a8614b7a565b60200260200101518b8b6000015185815181106116c7576116c7614b7a565b60200260200101516040518463ffffffff1660e01b81526004016117049392919092835263ffffffff918216602084015216604082015260600190565b602060405180830381865afa158015611721573d6000803e3d6000fd5b505050506040513d601f19601f820116820180604052508101906117459190614be2565b6001600160c01b03168360000151828151811061176457611764614b7a565b6020026020010181815250506117ca6109fa61179e848660000151858151811061179057611790614b7a565b6020026020010151166139c4565b8a6020015184815181106117b4576117b4614b7a565b60200260200101516139ef90919063ffffffff16565b9450806117d681614c2e565b915050611548565b50506117e983613ad3565b60975490935060ff16600081611800576000611882565b7f00000000000000000000000000000000000000000000000000000000000000006001600160a01b031663c448feb86040518163ffffffff1660e01b8152600401602060405180830381865afa15801561185e573d6000803e3d6000fd5b505050506040513d601f19601f820116820180604052508101906118829190614bc9565b905060005b604051806040016040528060018152602001600081525051811015611f8d578215611a13578963ffffffff16827f00000000000000000000000000000000000000000000000000000000000000006001600160a01b031663249a0c426040518060400160405280600181526020016000815250858151811061190b5761190b614b7a565b01602001516040516001600160e01b031960e084901b16815260f89190911c6004820152602401602060405180830381865afa15801561194f573d6000803e3d6000fd5b505050506040513d601f19601f820116820180604052508101906119739190614bc9565b61197d9190614b47565b11611a135760405162461bcd60e51b8152602060048201526066602482015260008051602061525f83398151915260448201527f7265733a205374616b6552656769737472792075706461746573206d7573742060648201527f62652077697468696e207769746864726177616c44656c6179426c6f636b732060848201526577696e646f7760d01b60a482015260c401610775565b7f00000000000000000000000000000000000000000000000000000000000000006001600160a01b03166368bccaac60405180604001604052806001815260200160008152508381518110611a6a57611a6a614b7a565b602001015160f81c60f81b60f81c8c8c60a001518581518110611a8f57611a8f614b7a565b60209081029190910101516040516001600160e01b031960e086901b16815260ff909316600484015263ffffffff9182166024840152166044820152606401602060405180830381865afa158015611aeb573d6000803e3d6000fd5b505050506040513d601f19601f82011682018060405250810190611b0f9190614cbc565b6001600160401b031916611b328a60400151838151811061156e5761156e614b7a565b67ffffffffffffffff191614611bce5760405162461bcd60e51b8152602060048201526061602482015260008051602061525f83398151915260448201527f7265733a2071756f72756d41706b206861736820696e2073746f72616765206460648201527f6f6573206e6f74206d617463682070726f76696465642071756f72756d2061706084820152606b60f81b60a482015260c401610775565b611bfe89604001518281518110611be757611be7614b7a565b60200260200101518761335d90919063ffffffff16565b95507f00000000000000000000000000000000000000000000000000000000000000006001600160a01b031663c8294c5660405180604001604052806001815260200160008152508381518110611c5757611c57614b7a565b602001015160f81c60f81b60f81c8c8c60c001518581518110611c7c57611c7c614b7a565b60209081029190910101516040516001600160e01b031960e086901b16815260ff909316600484015263ffffffff9182166024840152166044820152606401602060405180830381865afa158015611cd8573d6000803e3d6000fd5b505050506040513d601f19601f82011682018060405250810190611cfc9190614ce7565b85602001518281518110611d1257611d12614b7a565b6001600160601b03909216602092830291909101820152850151805182908110611d3e57611d3e614b7a565b602002602001015185600001518281518110611d5c57611d5c614b7a565b60200260200101906001600160601b031690816001600160601b0316815250506000805b8a6020015151811015611f7857611deb86600001518281518110611da657611da6614b7a565b602002602001015160405180604001604052806001815260200160008152508581518110611dd657611dd6614b7a565b016020015160f81c60ff161c60019081161490565b15611f66577f00000000000000000000000000000000000000000000000000000000000000006001600160a01b031663f2be94ae60405180604001604052806001815260200160008152508581518110611e4757611e47614b7a565b602001015160f81c60f81b60f81c8e89602001518581518110611e6c57611e6c614b7a565b60200260200101518f60e001518881518110611e8a57611e8a614b7a565b60200260200101518781518110611ea357611ea3614b7a565b60209081029190910101516040516001600160e01b031960e087901b16815260ff909416600485015263ffffffff92831660248501526044840191909152166064820152608401602060405180830381865afa158015611f07573d6000803e3d6000fd5b505050506040513d601f19601f82011682018060405250810190611f2b9190614ce7565b8751805185908110611f3f57611f3f614b7a565b60200260200101818151611f539190614d04565b6001600160601b03169052506001909101905b80611f7081614c2e565b915050611d80565b50508080611f8590614c2e565b915050611887565b505050600080611fa78a868a606001518b608001516108df565b91509150816120185760405162461bcd60e51b8152602060048201526043602482015260008051602061525f83398151915260448201527f7265733a2070616972696e6720707265636f6d70696c652063616c6c206661696064820152621b195960ea1b608482015260a401610775565b806120795760405162461bcd60e51b8152602060048201526039602482015260008051602061525f83398151915260448201527f7265733a207369676e617475726520697320696e76616c6964000000000000006064820152608401610775565b50506000878260200151604051602001612094929190614d2c565b60408051808303601f1901815291905280516020909101209299929850919650505050505050565b6120c4613827565b6120ce6000613b6e565b565b600054600290610100900460ff161580156120f2575060005460ff8083169116105b61210e5760405162461bcd60e51b815260040161077590614d74565b6000805461ffff191660ff83161761010017905561212b82612e57565b6000805461ff001916905560405160ff821681527f7f26b83ff96e1f2b6a682f133852f6798a09c465da95921460cefb38474024989060200160405180910390a15050565b6000818484604051612183929190614dc2565b60405180910390201490509392505050565b336001600160a01b037f000000000000000000000000000000000000000000000000000000000000000016146121dd5760405162461bcd60e51b815260040161077590614dd2565b604051639926ee7d60e01b81526001600160a01b037f00000000000000000000000000000000000000000000000000000000000000001690639926ee7d9061222b9085908590600401614e97565b600060405180830381600087803b15801561224557600080fd5b505af1158015612259573d6000803e3d6000fd5b505050505050565b336001600160a01b037f000000000000000000000000000000000000000000000000000000000000000016146122a95760405162461bcd60e51b815260040161077590614dd2565b6040516351b27a6d60e11b81526001600160a01b0382811660048301527f0000000000000000000000000000000000000000000000000000000000000000169063a364f4da906024015b600060405180830381600087803b15801561230d57600080fd5b505af1158015612321573d6000803e3d6000fd5b5050505050565b612330613827565b60405163a98fb35560e01b81526001600160a01b037f0000000000000000000000000000000000000000000000000000000000000000169063a98fb355906122f3908490600401614ee2565b60cb546001600160a01b031633146123bc5760cb54604051632cbe419560e01b81523360048201526001600160a01b039091166024820152604401610775565b60005a9050600084846040516020016123d6929190614b5f565b60408051601f198184030181529181528151602092830120600081815260c9909352912080549192509063ffffffff16612426576040516311cb69a760e11b815260048101839052602401610775565b8054640100000000900460ff161561245457604051634e78d7f960e11b815260048101839052602401610775565b805464ff00000000191664010000000017815560018101546001600160a01b038616600090815260ca602052604090205410156124d75760018101546001600160a01b038616600081815260ca602052604090819020549051632e2a182f60e11b8152600481019290925260248201929092526044810191909152606401610775565b80546000906124ee90849063ffffffff1687611169565b509050604360ff16816020015160008151811061250d5761250d614b7a565b602002602001015161251f9190614ef5565b6001600160601b03166064826000015160008151811061254157612541614b7a565b60200260200101516001600160601b031661255c9190614f24565b10156125ef576064816000015160008151811061257b5761257b614b7a565b60200260200101516001600160601b03166125969190614f24565b604360ff1682602001516000815181106125b2576125b2614b7a565b60200260200101516125c49190614ef5565b60405163530f5c4560e11b815260048101929092526001600160601b03166024820152604401610775565b6040516001600160a01b038716815287907f8511746b73275e06971968773119b9601fc501d7bdf3824d8754042d148940e29060200160405180910390a260003a5a61263b9087614bb2565b6126489062011170614b47565b6126529190614f24565b9050826001015481111561268957600183015460405163437e283f60e11b8152600481019190915260248101829052604401610775565b6001600160a01b038716600090815260ca6020526040812080548392906126b1908490614bb2565b90915550506001600160a01b038716600081815260ca602090815260409182902054915191825260008051602061523f833981519152910160405180910390a260cb546040516001600160a01b039091169082156108fc029083906000818181858888f1935050505015801561272b573d6000803e3d6000fd5b505050505050505050565b600054610100900460ff16158080156127565750600054600160ff909116105b806127705750303b158015612770575060005460ff166001145b61278c5760405162461bcd60e51b815260040161077590614d74565b6000805460ff1916600117905580156127af576000805461ff0019166101001790555b6127b98484613bc0565b60cb80546001600160a01b0319166001600160a01b038416179055801561281a576000805461ff0019169055604051600181527f7f26b83ff96e1f2b6a682f133852f6798a09c465da95921460cefb38474024989060200160405180910390a15b50505050565b60008433604051602001612835929190614b5f565b60408051601f198184030181529181528151602092830120600081815260c990935291205490915063ffffffff161561288457604051630c40bc4360e21b815260048101829052602401610775565b34156128e15733600090815260ca6020526040812080543492906128a9908490614b47565b909155505033600081815260ca602090815260409182902054915191825260008051602061523f833981519152910160405180910390a25b33600090815260ca60205260409020548211156129325733600081815260ca602052604090819020549051632e2a182f60e11b81526004810192909252602482018490526044820152606401610775565b604080516060810182526000602080830182815263ffffffff43818116865285870189815288865260c99094529386902085518154935115156401000000000264ffffffffff1990941692169190911791909117815590516001909101559151909187917f130d3e81af62e03ed6fff5e3bb343695ec513892cfad24d286486745dcc61437916129c8913391908a908a90614f6c565b60405180910390a2857f8801fc966deb2c8f563a103c35c9e80740585c292cd97518587e6e7927e6af553343888888604051612a08959493929190614fa7565b60405180910390a2505050505050565b606060007f00000000000000000000000000000000000000000000000000000000000000006001600160a01b0316639aa1653d6040518163ffffffff1660e01b8152600401602060405180830381865afa158015612a7a573d6000803e3d6000fd5b505050506040513d601f19601f82011682018060405250810190612a9e9190614c0b565b60ff16905080612abc57505060408051600081526020810190915290565b6000805b82811015612b7157604051633ca5a5f560e01b815260ff821660048201527f00000000000000000000000000000000000000000000000000000000000000006001600160a01b031690633ca5a5f590602401602060405180830381865afa158015612b2f573d6000803e3d6000fd5b505050506040513d601f19601f82011682018060405250810190612b539190614bc9565b612b5d9083614b47565b915080612b6981614c2e565b915050612ac0565b506000816001600160401b03811115612b8c57612b8c6140e0565b604051908082528060200260200182016040528015612bb5578160200160208202803683370190505b5090506000805b7f00000000000000000000000000000000000000000000000000000000000000006001600160a01b0316639aa1653d6040518163ffffffff1660e01b8152600401602060405180830381865afa158015612c1a573d6000803e3d6000fd5b505050506040513d601f19601f82011682018060405250810190612c3e9190614c0b565b60ff16811015612dd757604051633ca5a5f560e01b815260ff821660048201526000907f00000000000000000000000000000000000000000000000000000000000000006001600160a01b031690633ca5a5f590602401602060405180830381865afa158015612cb2573d6000803e3d6000fd5b505050506040513d601f19601f82011682018060405250810190612cd69190614bc9565b905060005b81811015612dc2576040516356e4026d60e11b815260ff84166004820152602481018290527f00000000000000000000000000000000000000000000000000000000000000006001600160a01b03169063adc804da906044016040805180830381865afa158015612d50573d6000803e3d6000fd5b505050506040513d601f19601f82011682018060405250810190612d749190614c5e565b60000151858581518110612d8a57612d8a614b7a565b6001600160a01b039092166020928302919091019091015283612dac81614c2e565b9450508080612dba90614c2e565b915050612cdb565b50508080612dcf90614c2e565b915050612bbc565b5090949350505050565b612de9613827565b6001600160a01b038116612e4e5760405162461bcd60e51b815260206004820152602660248201527f4f776e61626c653a206e6577206f776e657220697320746865207a65726f206160448201526564647265737360d01b6064820152608401610775565b61102581613b6e565b612e5f613827565b60cb80546001600160a01b0319166001600160a01b0392909216919091179055565b6040516306045a9160e01b815260009030906306045a9190612eb5908b908b908b908b908b908b908b908b90600401614fea565b602060405180830381865afa158015612ed2573d6000803e3d6000fd5b505050506040513d601f19601f820116820180604052508101906108d3919061504c565b6065546001600160a01b03163314612f8b5760405162461bcd60e51b815260206004820152604c60248201527f536572766963654d616e61676572426173652e6f6e6c7952657761726473496e60448201527f69746961746f723a2063616c6c6572206973206e6f742074686520726577617260648201526b32399034b734ba34b0ba37b960a11b608482015260a401610775565b60005b8181101561325f57828282818110612fa857612fa8614b7a565b9050602002810190612fba9190615069565b612fcb9060408101906020016143c0565b6001600160a01b03166323b872dd3330868686818110612fed57612fed614b7a565b9050602002810190612fff9190615069565b604080516001600160e01b031960e087901b1681526001600160a01b039485166004820152939092166024840152013560448201526064016020604051808303816000875af1158015613056573d6000803e3d6000fd5b505050506040513d601f19601f8201168201806040525081019061307a919061504c565b50600083838381811061308f5761308f614b7a565b90506020028101906130a19190615069565b6130b29060408101906020016143c0565b604051636eb1769f60e11b81523060048201526001600160a01b037f000000000000000000000000000000000000000000000000000000000000000081166024830152919091169063dd62ed3e90604401602060405180830381865afa158015613120573d6000803e3d6000fd5b505050506040513d601f19601f820116820180604052508101906131449190614bc9565b905083838381811061315857613158614b7a565b905060200281019061316a9190615069565b61317b9060408101906020016143c0565b6001600160a01b031663095ea7b37f0000000000000000000000000000000000000000000000000000000000000000838787878181106131bd576131bd614b7a565b90506020028101906131cf9190615069565b604001356131dd9190614b47565b6040516001600160e01b031960e085901b1681526001600160a01b03909216600483015260248201526044016020604051808303816000875af1158015613228573d6000803e3d6000fd5b505050506040513d601f19601f8201168201806040525081019061324c919061504c565b50508061325890614c2e565b9050612f8e565b5060405163fce36c7d60e01b81526001600160a01b037f0000000000000000000000000000000000000000000000000000000000000000169063fce36c7d9061222b90859085906004016150ef565b6000836132bc868585613c3d565b1495945050505050565b60408051808201909152600080825260208201526132e2613fee565b835181526020808501519082015260408082018490526000908360608460076107d05a03fa905080801561331557613317565bfe5b50806133555760405162461bcd60e51b815260206004820152600d60248201526c1958cb5b5d5b0b59985a5b1959609a1b6044820152606401610775565b505092915050565b604080518082019091526000808252602082015261337961400c565b835181526020808501518183015283516040808401919091529084015160608301526000908360808460066107d05a03fa90508080156133155750806133555760405162461bcd60e51b815260206004820152600d60248201526c1958cb5859190b59985a5b1959609a1b6044820152606401610775565b6133f961402a565b50604080516080810182527f198e9393920d483a7260bfb731fb5d25f1aa493335a9e71297e485b7aef312c28183019081527f1800deef121f1e76426a00665e5c4479674322d4f75edadd46debd5cd992f6ed6060830152815281518083019092527f275dc4a288d1afb3cbb1ac09187524c7db36395df7be3b99e673b13a075a65ec82527f1d9befcd05a5323e6da4d435f3b617cdb3af83285c2df711ef39c01571827f9d60208381019190915281019190915290565b6040805180820190915260008082526020820152600080806134e160008051602061521f83398151915286614b90565b90505b6134ed81613d37565b909350915060008051602061521f833981519152828309831415613527576040805180820190915290815260208101919091529392505050565b60008051602061521f8339815191526001820890506134e4565b60408051808201825286815260208082018690528251808401909352868352820184905260009182919061357361404f565b60005b600281101561373857600061358c826006614f24565b90508482600281106135a0576135a0614b7a565b602002015151836135b2836000614b47565b600c81106135c2576135c2614b7a565b60200201528482600281106135d9576135d9614b7a565b602002015160200151838260016135f09190614b47565b600c811061360057613600614b7a565b602002015283826002811061361757613617614b7a565b602002015151518361362a836002614b47565b600c811061363a5761363a614b7a565b602002015283826002811061365157613651614b7a565b602002015151600160200201518361366a836003614b47565b600c811061367a5761367a614b7a565b602002015283826002811061369157613691614b7a565b6020020151602001516000600281106136ac576136ac614b7a565b6020020151836136bd836004614b47565b600c81106136cd576136cd614b7a565b60200201528382600281106136e4576136e4614b7a565b6020020151602001516001600281106136ff576136ff614b7a565b602002015183613710836005614b47565b600c811061372057613720614b7a565b6020020152508061373081614c2e565b915050613576565b5061374161406e565b60006020826101808560088cfa9151919c9115159b50909950505050505050505050565b6060600080613773846139c4565b61ffff166001600160401b0381111561378e5761378e6140e0565b6040519080825280601f01601f1916602001820160405280156137b8576020820181803683370190505b5090506000805b8251821080156137d0575061010081105b15612dd7576001811b935085841615613817578060f81b8383815181106137f9576137f9614b7a565b60200101906001600160f81b031916908160001a9053508160010191505b61382081614c2e565b90506137bf565b6033546001600160a01b031633146120ce5760405162461bcd60e51b815260206004820181905260248201527f4f776e61626c653a2063616c6c6572206973206e6f7420746865206f776e65726044820152606401610775565b606554604080516001600160a01b03928316815291831660208301527fe11cddf1816a43318ca175bbc52cd0185436e9cbead7c83acc54a73e461717e3910160405180910390a1606580546001600160a01b0319166001600160a01b0392909216919091179055565b6097805460ff19168215159081179091556040519081527f40e4ed880a29e0f6ddce307457fb75cddf4feef7d3ecb0301bfdf4976a0e2dfc9060200160405180910390a150565b60008061393d84613db9565b9050808360ff166001901b116139bb5760405162461bcd60e51b815260206004820152603f60248201527f4269746d61705574696c732e6f72646572656442797465734172726179546f4260448201527f69746d61703a206269746d61702065786365656473206d61782076616c7565006064820152608401610775565b90505b92915050565b6000805b82156139be576139d9600184614bb2565b90921691806139e7816151fc565b9150506139c8565b60408051808201909152600080825260208201526102008261ffff1610613a4b5760405162461bcd60e51b815260206004820152601060248201526f7363616c61722d746f6f2d6c6172676560801b6044820152606401610775565b8161ffff1660011415613a5f5750816139be565b6040805180820190915260008082526020820181905284906001905b8161ffff168661ffff1610613ac857600161ffff871660ff83161c81161415613aab57613aa8848461335d565b93505b613ab5838461335d565b92506201fffe600192831b169101613a7b565b509195945050505050565b60408051808201909152600080825260208201528151158015613af857506020820151155b15613b16575050604080518082019091526000808252602082015290565b60405180604001604052808360000151815260200160008051602061521f8339815191528460200151613b499190614b90565b613b619060008051602061521f833981519152614bb2565b905292915050565b919050565b603380546001600160a01b038381166001600160a01b0319831681179093556040519116919082907f8be0079c531659141344cd1fd0a4f28419497f9722a3daafe3b4186f6b6457e090600090a35050565b600054610100900460ff16613c2b5760405162461bcd60e51b815260206004820152602b60248201527f496e697469616c697a61626c653a20636f6e7472616374206973206e6f74206960448201526a6e697469616c697a696e6760a81b6064820152608401610775565b613c3482613b6e565b610b3d81613881565b600060208451613c4d9190614b90565b15613cd45760405162461bcd60e51b815260206004820152604b60248201527f4d65726b6c652e70726f63657373496e636c7573696f6e50726f6f664b65636360448201527f616b3a2070726f6f66206c656e6774682073686f756c642062652061206d756c60648201526a3a34b836329037b310199960a91b608482015260a401610775565b8260205b85518111610d1157613ceb600285614b90565b613d0c57816000528086015160205260406000209150600284049350613d25565b8086015160005281602052604060002091506002840493505b613d30602082614b47565b9050613cd8565b6000808060008051602061521f833981519152600360008051602061521f8339815191528660008051602061521f833981519152888909090890506000613dad827f0c19139cb84c680a6e14116da060561765e05aa45a1c72a34f082305b61f3f5260008051602061521f833981519152613f46565b91959194509092505050565b600061010082511115613e425760405162461bcd60e51b8152602060048201526044602482018190527f4269746d61705574696c732e6f72646572656442797465734172726179546f42908201527f69746d61703a206f7264657265644279746573417272617920697320746f6f206064820152636c6f6e6760e01b608482015260a401610775565b8151613e5057506000919050565b60008083600081518110613e6657613e66614b7a565b0160200151600160f89190911c81901b92505b8451811015613f3d57848181518110613e9457613e94614b7a565b0160200151600160f89190911c1b9150828211613f295760405162461bcd60e51b815260206004820152604760248201527f4269746d61705574696c732e6f72646572656442797465734172726179546f4260448201527f69746d61703a206f72646572656442797465734172726179206973206e6f74206064820152661bdc99195c995960ca1b608482015260a401610775565b91811791613f3681614c2e565b9050613e79565b50909392505050565b600080613f5161406e565b613f5961408c565b602080825281810181905260408201819052606082018890526080820187905260a082018690528260c08360056107d05a03fa9250828015613315575082613fe35760405162461bcd60e51b815260206004820152601a60248201527f424e3235342e6578704d6f643a2063616c6c206661696c7572650000000000006044820152606401610775565b505195945050505050565b60405180606001604052806003906020820280368337509192915050565b60405180608001604052806004906020820280368337509192915050565b604051806040016040528061403d6140aa565b815260200161404a6140aa565b905290565b604051806101800160405280600c906020820280368337509192915050565b60405180602001604052806001906020820280368337509192915050565b6040518060c001604052806006906020820280368337509192915050565b60405180604001604052806002906020820280368337509192915050565b80356001600160601b031981168114613b6957600080fd5b634e487b7160e01b600052604160045260246000fd5b604080519081016001600160401b0381118282101715614118576141186140e0565b60405290565b60405161010081016001600160401b0381118282101715614118576141186140e0565b604051601f8201601f191681016001600160401b0381118282101715614169576141696140e0565b604052919050565b60006001600160401b0383111561418a5761418a6140e0565b61419d601f8401601f1916602001614141565b90508281528383830111156141b157600080fd5b828260208301376000602084830101529392505050565b600082601f8301126141d957600080fd5b6141e883833560208501614171565b9392505050565b6001600160a01b038116811461102557600080fd5b600080600080600080600080610100898b03121561422157600080fd5b88359750602089013596506040890135955061423f60608a016140c8565b94506080890135935060a08901356001600160401b0381111561426157600080fd5b61426d8b828c016141c8565b93505060c0890135915060e0890135614285816141ef565b809150509295985092959890939650565b6000604082840312156142a857600080fd5b6142b06140f6565b9050813581526020820135602082015292915050565b600082601f8301126142d757600080fd5b6142df6140f6565b8060408401858111156142f157600080fd5b845b8181101561430b5780358452602093840193016142f3565b509095945050505050565b60006080828403121561432857600080fd5b6143306140f6565b905061433c83836142c6565b815261434b83604084016142c6565b602082015292915050565b600080600080610120858703121561436d57600080fd5b8435935061437e8660208701614296565b925061438d8660608701614316565b915061439c8660e08701614296565b905092959194509250565b6000602082840312156143b957600080fd5b5035919050565b6000602082840312156143d257600080fd5b81356139bb816141ef565b6020808252825182820181905260009190848201906040850190845b8181101561441e5783516001600160a01b0316835292840192918401916001016143f9565b50909695505050505050565b801515811461102557600080fd5b60006020828403121561444a57600080fd5b81356139bb8161442a565b803563ffffffff81168114613b6957600080fd5b60006001600160401b03821115614482576144826140e0565b5060051b60200190565b600082601f83011261449d57600080fd5b813560206144b26144ad83614469565b614141565b82815260059290921b840181019181810190868411156144d157600080fd5b8286015b848110156144f3576144e681614455565b83529183019183016144d5565b509695505050505050565b600082601f83011261450f57600080fd5b8135602061451f6144ad83614469565b82815260069290921b8401810191818101908684111561453e57600080fd5b8286015b848110156144f3576145548882614296565b835291830191604001614542565b600082601f83011261457357600080fd5b813560206145836144ad83614469565b82815260059290921b840181019181810190868411156145a257600080fd5b8286015b848110156144f35780356001600160401b038111156145c55760008081fd5b6145d38986838b010161448c565b8452509183019183016145a6565b600061018082840312156145f457600080fd5b6145fc61411e565b905081356001600160401b038082111561461557600080fd5b6146218583860161448c565b8352602084013591508082111561463757600080fd5b614643858386016144fe565b6020840152604084013591508082111561465c57600080fd5b614668858386016144fe565b604084015261467a8560608601614316565b606084015261468c8560e08601614296565b60808401526101208401359150808211156146a657600080fd5b6146b28583860161448c565b60a08401526101408401359150808211156146cc57600080fd5b6146d88583860161448c565b60c08401526101608401359150808211156146f257600080fd5b506146ff84828501614562565b60e08301525092915050565b60008060006060848603121561472057600080fd5b8335925061473060208501614455565b915060408401356001600160401b0381111561474b57600080fd5b614757868287016145e1565b9150509250925092565b600081518084526020808501945080840160005b8381101561479a5781516001600160601b031687529582019590820190600101614775565b509495945050505050565b60408152600083516040808401526147c06080840182614761565b90506020850151603f198483030160608501526147dd8282614761565b925050508260208301529392505050565b60008083601f84011261480057600080fd5b5081356001600160401b0381111561481757600080fd5b60208301915083602082850101111561482f57600080fd5b9250929050565b60008060006040848603121561484b57600080fd5b83356001600160401b0381111561486157600080fd5b61486d868287016147ee565b909790965060209590950135949350505050565b6000806040838503121561489457600080fd5b823561489f816141ef565b915060208301356001600160401b03808211156148bb57600080fd5b90840190606082870312156148cf57600080fd5b6040516060810181811083821117156148ea576148ea6140e0565b6040528235828111156148fc57600080fd5b614908888286016141c8565b82525060208301356020820152604083013560408201528093505050509250929050565b60006020828403121561493e57600080fd5b81356001600160401b0381111561495457600080fd5b8201601f8101841361496557600080fd5b61497484823560208401614171565b949350505050565b60008060006060848603121561499157600080fd5b833592506020840135614730816141ef565b6000806000606084860312156149b857600080fd5b83356149c3816141ef565b925060208401356149d3816141ef565b915060408401356149e3816141ef565b809150509250925092565b60008060008060608587031215614a0457600080fd5b8435935060208501356001600160401b03811115614a2157600080fd5b614a2d878288016147ee565b9598909750949560400135949350505050565b600080600080600080600060e0888a031215614a5b57600080fd5b873596506020880135955060408801359450614a79606089016140c8565b93506080880135925060a08801356001600160401b03811115614a9b57600080fd5b614aa78a828b016141c8565b92505060c0880135905092959891949750929550565b60008060208385031215614ad057600080fd5b82356001600160401b0380821115614ae757600080fd5b818501915085601f830112614afb57600080fd5b813581811115614b0a57600080fd5b8660208260051b8501011115614b1f57600080fd5b60209290920196919550909350505050565b634e487b7160e01b600052601160045260246000fd5b60008219821115614b5a57614b5a614b31565b500190565b91825260601b6001600160601b031916602082015260340190565b634e487b7160e01b600052603260045260246000fd5b600082614bad57634e487b7160e01b600052601260045260246000fd5b500690565b600082821015614bc457614bc4614b31565b500390565b600060208284031215614bdb57600080fd5b5051919050565b600060208284031215614bf457600080fd5b81516001600160c01b03811681146139bb57600080fd5b600060208284031215614c1d57600080fd5b815160ff811681146139bb57600080fd5b6000600019821415614c4257614c42614b31565b5060010190565b6001600160601b038116811461102557600080fd5b600060408284031215614c7057600080fd5b614c786140f6565b8251614c83816141ef565b81526020830151614c9381614c49565b60208201529392505050565b600060208284031215614cb157600080fd5b81516139bb816141ef565b600060208284031215614cce57600080fd5b815167ffffffffffffffff19811681146139bb57600080fd5b600060208284031215614cf957600080fd5b81516139bb81614c49565b60006001600160601b0383811690831681811015614d2457614d24614b31565b039392505050565b63ffffffff60e01b8360e01b1681526000600482018351602080860160005b83811015614d6757815185529382019390820190600101614d4b565b5092979650505050505050565b6020808252602e908201527f496e697469616c697a61626c653a20636f6e747261637420697320616c72656160408201526d191e481a5b9a5d1a585b1a5e995960921b606082015260800190565b8183823760009101908152919050565b60208082526052908201527f536572766963654d616e61676572426173652e6f6e6c7952656769737472794360408201527f6f6f7264696e61746f723a2063616c6c6572206973206e6f742074686520726560608201527133b4b9ba393c9031b7b7b93234b730ba37b960711b608082015260a00190565b6000815180845260005b81811015614e7057602081850181015186830182015201614e54565b81811115614e82576000602083870101525b50601f01601f19169290920160200192915050565b60018060a01b0383168152604060208201526000825160606040840152614ec160a0840182614e4a565b90506020840151606084015260408401516080840152809150509392505050565b6020815260006141e86020830184614e4a565b60006001600160601b0380831681851681830481118215151615614f1b57614f1b614b31565b02949350505050565b6000816000190483118215151615614f3e57614f3e614b31565b500290565b81835281816020850137506000828201602090810191909152601f909101601f19169091010190565b6001600160a01b038516815263ffffffff84166020820152606060408201819052600090614f9d9083018486614f43565b9695505050505050565b6001600160a01b038616815263ffffffff85166020820152608060408201819052600090614fd89083018587614f43565b90508260608301529695505050505050565b60006101008a83528960208401528860408401526001600160601b0319881660608401528660808401528060a084015261502681840187614e4a565b60c084019590955250506001600160a01b039190911660e0909101529695505050505050565b60006020828403121561505e57600080fd5b81516139bb8161442a565b60008235609e1983360301811261507f57600080fd5b9190910192915050565b8035613b69816141ef565b8183526000602080850194508260005b8581101561479a5781356150b7816141ef565b6001600160a01b03168752818301356150cf81614c49565b6001600160601b03168784015260409687019691909101906001016150a4565b60208082528181018390526000906040808401600586901b8501820187855b888110156151ee57878303603f190184528135368b9003609e1901811261513457600080fd5b8a0160a0813536839003601e1901811261514d57600080fd5b820180356001600160401b0381111561516557600080fd5b8060061b360384131561517757600080fd5b828752615189838801828c8501615094565b92505050615198888301615089565b6001600160a01b031688860152818701358786015260606151ba818401614455565b63ffffffff169086015260806151d1838201614455565b63ffffffff1695019490945250928501929085019060010161510e565b509098975050505050505050565b600061ffff8083168181141561521457615214614b31565b600101939250505056fe30644e72e131a029b85045b68181585d97816a916871ca8d3c208c16d87cfd470ea46f246ccfc58f7a93aa09bc6245a6818e97b1a160d186afe78993a3b194a0424c535369676e6174757265436865636b65722e636865636b5369676e617475a26469706673582212202efcb31413dc3f66d83044217c98fb7d82a732e20b97647ce113e680e22f1f8d64736f6c634300080c0033","linkReferences":{}},"methodIdentifiers":{"alignedAggregator()":"4a5bf632","avsDirectory()":"6b3aa72e","balanceOf(address)":"70a08231","batchersBalances(address)":"f474b520","batchesState(bytes32)":"b099627e","blsApkRegistry()":"5df45946","checkPublicInput(bytes,bytes32)":"95c6d604","checkSignatures(bytes32,uint32,(uint32[],(uint256,uint256)[],(uint256,uint256)[],(uint256[2],uint256[2]),(uint256,uint256),uint32[],uint32[],uint32[][]))":"4ae07c37","createAVSRewardsSubmission(((address,uint96)[],address,uint256,uint32,uint32)[])":"fce36c7d","createNewTask(bytes32,string,uint256)":"d66eaabd","delegation()":"df5cf723","depositToBatcher(address)":"4223d551","deregisterOperatorFromAVS(address)":"a364f4da","getOperatorRestakedStrategies(address)":"33cfb7b7","getRestakeableStrategies()":"e481af9d","initialize(address,address,address)":"c0c53b8b","initializeAggregator(address)":"800fb61f","owner()":"8da5cb5b","registerOperatorToAVS(address,(bytes,bytes32,uint256))":"9926ee7d","registryCoordinator()":"6d14a987","renounceOwnership()":"715018a6","respondToTaskV2(bytes32,address,(uint32[],(uint256,uint256)[],(uint256,uint256)[],(uint256[2],uint256[2]),(uint256,uint256),uint32[],uint32[],uint32[][]))":"ab21739a","rewardsInitiator()":"fc299dee","setAggregator(address)":"f9120af6","setRewardsInitiator(address)":"3bc28c8c","setStaleStakesForbidden(bool)":"416c7e5e","stakeRegistry()":"68304835","staleStakesForbidden()":"b98d0908","transferOwnership(address)":"f2fde38b","trySignatureAndApkVerification(bytes32,(uint256,uint256),(uint256[2],uint256[2]),(uint256,uint256))":"171f1d5b","updateAVSMetadataURI(string)":"a98fb355","verifyBatchInclusion(bytes32,bytes32,bytes32,bytes20,bytes32,bytes,uint256)":"fa534dc0","verifyBatchInclusion(bytes32,bytes32,bytes32,bytes20,bytes32,bytes,uint256,address)":"06045a91","withdraw(uint256)":"2e1a7d4d"},"id":172}