{"abi":[{"type":"constructor","inputs":[],"stateMutability":"nonpayable"},{"type":"receive","stateMutability":"payable"},{"type":"function","name":"UNLOCK_BLOCK_COUNT","inputs":[],"outputs":[{"name":"","type":"uint256","internalType":"uint256"}],"stateMutability":"view"},{"type":"function","name":"alignedLayerServiceManager","inputs":[],"outputs":[{"name":"","type":"address","internalType":"contract IAlignedLayerServiceManager"}],"stateMutability":"view"},{"type":"function","name":"batcherWallet","inputs":[],"outputs":[{"name":"","type":"address","internalType":"address"}],"stateMutability":"view"},{"type":"function","name":"createNewTask","inputs":[{"name":"batchMerkleRoot","type":"bytes32","internalType":"bytes32"},{"name":"batchDataPointer","type":"string","internalType":"string"},{"name":"leaves","type":"bytes32[]","internalType":"bytes32[]"},{"name":"signatures","type":"tuple[]","internalType":"struct BatcherPaymentService.SignatureData[]","components":[{"name":"signature","type":"bytes","internalType":"bytes"},{"name":"nonce","type":"uint256","internalType":"uint256"}]},{"name":"gasForAggregator","type":"uint256","internalType":"uint256"},{"name":"gasPerProof","type":"uint256","internalType":"uint256"}],"outputs":[],"stateMutability":"nonpayable"},{"type":"function","name":"initialize","inputs":[{"name":"_alignedLayerServiceManager","type":"address","internalType":"contract IAlignedLayerServiceManager"},{"name":"_batcherPaymentServiceOwner","type":"address","internalType":"address"},{"name":"_batcherWallet","type":"address","internalType":"address"}],"outputs":[],"stateMutability":"nonpayable"},{"type":"function","name":"lock","inputs":[],"outputs":[],"stateMutability":"nonpayable"},{"type":"function","name":"owner","inputs":[],"outputs":[{"name":"","type":"address","internalType":"address"}],"stateMutability":"view"},{"type":"function","name":"pause","inputs":[],"outputs":[],"stateMutability":"nonpayable"},{"type":"function","name":"paused","inputs":[],"outputs":[{"name":"","type":"bool","internalType":"bool"}],"stateMutability":"view"},{"type":"function","name":"proxiableUUID","inputs":[],"outputs":[{"name":"","type":"bytes32","internalType":"bytes32"}],"stateMutability":"view"},{"type":"function","name":"renounceOwnership","inputs":[],"outputs":[],"stateMutability":"nonpayable"},{"type":"function","name":"transferOwnership","inputs":[{"name":"newOwner","type":"address","internalType":"address"}],"outputs":[],"stateMutability":"nonpayable"},{"type":"function","name":"unlock","inputs":[],"outputs":[],"stateMutability":"nonpayable"},{"type":"function","name":"unpause","inputs":[],"outputs":[],"stateMutability":"nonpayable"},{"type":"function","name":"upgradeTo","inputs":[{"name":"newImplementation","type":"address","internalType":"address"}],"outputs":[],"stateMutability":"nonpayable"},{"type":"function","name":"upgradeToAndCall","inputs":[{"name":"newImplementation","type":"address","internalType":"address"},{"name":"data","type":"bytes","internalType":"bytes"}],"outputs":[],"stateMutability":"payable"},{"type":"function","name":"userData","inputs":[{"name":"","type":"address","internalType":"address"}],"outputs":[{"name":"balance","type":"uint256","internalType":"uint256"},{"name":"unlockBlock","type":"uint256","internalType":"uint256"},{"name":"nonce","type":"uint256","internalType":"uint256"}],"stateMutability":"view"},{"type":"function","name":"user_balances","inputs":[{"name":"account","type":"address","internalType":"address"}],"outputs":[{"name":"","type":"uint256","internalType":"uint256"}],"stateMutability":"view"},{"type":"function","name":"user_nonces","inputs":[{"name":"account","type":"address","internalType":"address"}],"outputs":[{"name":"","type":"uint256","internalType":"uint256"}],"stateMutability":"view"},{"type":"function","name":"user_unlock_block","inputs":[{"name":"account","type":"address","internalType":"address"}],"outputs":[{"name":"","type":"uint256","internalType":"uint256"}],"stateMutability":"view"},{"type":"function","name":"withdraw","inputs":[{"name":"amount","type":"uint256","internalType":"uint256"}],"outputs":[],"stateMutability":"nonpayable"},{"type":"event","name":"AdminChanged","inputs":[{"name":"previousAdmin","type":"address","indexed":false,"internalType":"address"},{"name":"newAdmin","type":"address","indexed":false,"internalType":"address"}],"anonymous":false},{"type":"event","name":"BalanceLocked","inputs":[{"name":"user","type":"address","indexed":true,"internalType":"address"}],"anonymous":false},{"type":"event","name":"BalanceUnlocked","inputs":[{"name":"user","type":"address","indexed":true,"internalType":"address"},{"name":"unlockBlock","type":"uint256","indexed":false,"internalType":"uint256"}],"anonymous":false},{"type":"event","name":"BeaconUpgraded","inputs":[{"name":"beacon","type":"address","indexed":true,"internalType":"address"}],"anonymous":false},{"type":"event","name":"FundsWithdrawn","inputs":[{"name":"recipient","type":"address","indexed":true,"internalType":"address"},{"name":"amount","type":"uint256","indexed":false,"internalType":"uint256"}],"anonymous":false},{"type":"event","name":"Initialized","inputs":[{"name":"version","type":"uint8","indexed":false,"internalType":"uint8"}],"anonymous":false},{"type":"event","name":"OwnershipTransferred","inputs":[{"name":"previousOwner","type":"address","indexed":true,"internalType":"address"},{"name":"newOwner","type":"address","indexed":true,"internalType":"address"}],"anonymous":false},{"type":"event","name":"Paused","inputs":[{"name":"account","type":"address","indexed":false,"internalType":"address"}],"anonymous":false},{"type":"event","name":"PaymentReceived","inputs":[{"name":"sender","type":"address","indexed":true,"internalType":"address"},{"name":"amount","type":"uint256","indexed":false,"internalType":"uint256"}],"anonymous":false},{"type":"event","name":"TaskCreated","inputs":[{"name":"batchMerkleRoot","type":"bytes32","indexed":true,"internalType":"bytes32"},{"name":"feePerProof","type":"uint256","indexed":false,"internalType":"uint256"}],"anonymous":false},{"type":"event","name":"Unpaused","inputs":[{"name":"account","type":"address","indexed":false,"internalType":"address"}],"anonymous":false},{"type":"event","name":"Upgraded","inputs":[{"name":"implementation","type":"address","indexed":true,"internalType":"address"}],"anonymous":false},{"type":"error","name":"FundsLocked","inputs":[{"name":"unlockBlock","type":"uint256","internalType":"uint256"},{"name":"currentBlock","type":"uint256","internalType":"uint256"}]},{"type":"error","name":"InsufficientGasForAggregator","inputs":[{"name":"required","type":"uint256","internalType":"uint256"},{"name":"available","type":"uint256","internalType":"uint256"}]},{"type":"error","name":"InvalidMerkleRoot","inputs":[{"name":"expected","type":"bytes32","internalType":"bytes32"},{"name":"actual","type":"bytes32","internalType":"bytes32"}]},{"type":"error","name":"InvalidNonce","inputs":[{"name":"expected","type":"uint256","internalType":"uint256"},{"name":"actual","type":"uint256","internalType":"uint256"}]},{"type":"error","name":"InvalidSignature","inputs":[]},{"type":"error","name":"LeavesNotPowerOfTwo","inputs":[{"name":"leavesQty","type":"uint256","internalType":"uint256"}]},{"type":"error","name":"NoGasForAggregator","inputs":[]},{"type":"error","name":"NoGasPerProof","inputs":[]},{"type":"error","name":"NoLeavesSubmitted","inputs":[]},{"type":"error","name":"NoProofSubmitterSignatures","inputs":[]},{"type":"error","name":"NotEnoughLeaves","inputs":[{"name":"leavesQty","type":"uint256","internalType":"uint256"},{"name":"signaturesQty","type":"uint256","internalType":"uint256"}]},{"type":"error","name":"OnlyBatcherAllowed","inputs":[{"name":"caller","type":"address","internalType":"address"}]},{"type":"error","name":"PayerInsufficientBalance","inputs":[{"name":"balance","type":"uint256","internalType":"uint256"},{"name":"amount","type":"uint256","internalType":"uint256"}]},{"type":"error","name":"SignerInsufficientBalance","inputs":[{"name":"signer","type":"address","internalType":"address"},{"name":"balance","type":"uint256","internalType":"uint256"},{"name":"required","type":"uint256","internalType":"uint256"}]},{"type":"error","name":"UserHasNoFundsToLock","inputs":[{"name":"user","type":"address","internalType":"address"}]},{"type":"error","name":"UserHasNoFundsToUnlock","inputs":[{"name":"user","type":"address","internalType":"address"}]}],"bytecode":{"object":"0x60a06040523060805234801561001457600080fd5b5061001d610022565b6100e2565b600054610100900460ff161561008e5760405162461bcd60e51b815260206004820152602760248201527f496e697469616c697a61626c653a20636f6e747261637420697320696e697469604482015266616c697a696e6760c81b606482015260840160405180910390fd5b60005460ff90811610156100e0576000805460ff191660ff9081179091556040519081527f7f26b83ff96e1f2b6a682f133852f6798a09c465da95921460cefb38474024989060200160405180910390a15b565b6080516122a06200011a600039600081816105ce0152818161060e015281816106c001528181610700015261079301526122a06000f3fe60806040526004361061012e5760003560e01c80635c975abb116100ab578063a69df4b51161006f578063a69df4b5146103a5578063bf322658146103ba578063c0c53b8b146103da578063c8910913146103fa578063f2fde38b14610451578063f83d08ba1461047157600080fd5b80635c975abb1461031a578063715018a61461033d5780638456cb59146103525780638da5cb5b14610367578063953ef8071461038557600080fd5b80634d5431ea116100f25780634d5431ea1461026c5780634f1ef286146102a557806352d1902d146102b857806358b96e27146102cd5780635a3f631a1461030557600080fd5b806317d89c4e146101935780632df4e21e146101df5780632e1a7d4d146102155780633659cfe6146102375780633f4ba83a1461025757600080fd5b3661018e5733600090815260fd602052604081208054349290610152908490611c47565b909155505060405134815233907f6ef95f06320e7a25a04a175ca677b7052bdd97131872c2192525a629f51be7709060200160405180910390a2005b600080fd5b34801561019f57600080fd5b506101cc6101ae366004611c74565b6001600160a01b0316600090815260fd602052604090206002015490565b6040519081526020015b60405180910390f35b3480156101eb57600080fd5b506101cc6101fa366004611c74565b6001600160a01b0316600090815260fd602052604090205490565b34801561022157600080fd5b50610235610230366004611c91565b610486565b005b34801561024357600080fd5b50610235610252366004611c74565b6105c3565b34801561026357600080fd5b506102356106a3565b34801561027857600080fd5b506101cc610287366004611c74565b6001600160a01b0316600090815260fd602052604090206001015490565b6102356102b3366004611cc0565b6106b5565b3480156102c457600080fd5b506101cc610786565b3480156102d957600080fd5b5060fb546102ed906001600160a01b031681565b6040516001600160a01b0390911681526020016101d6565b34801561031157600080fd5b506101cc606481565b34801561032657600080fd5b5060655460ff1660405190151581526020016101d6565b34801561034957600080fd5b50610235610839565b34801561035e57600080fd5b5061023561084b565b34801561037357600080fd5b506033546001600160a01b03166102ed565b34801561039157600080fd5b5060fc546102ed906001600160a01b031681565b3480156103b157600080fd5b5061023561085b565b3480156103c657600080fd5b506102356103d5366004611dc9565b6108ef565b3480156103e657600080fd5b506102356103f5366004611ead565b610b7a565b34801561040657600080fd5b50610436610415366004611c74565b60fd6020526000908152604090208054600182015460029092015490919083565b604080519384526020840192909252908201526060016101d6565b34801561045d57600080fd5b5061023561046c366004611c74565b610ccf565b34801561047d57600080fd5b50610235610d45565b61048e610db9565b33600090815260fd6020526040902080548211156104d15780546040516321c3d50f60e01b81526004810191909152602481018390526044015b60405180910390fd5b600181015415806104e55750438160010154115b15610512576001810154604051635f6e272d60e11b815260048101919091524360248201526044016104c8565b818160000160008282546105269190611ef8565b909155505060006001820181905560405133917fc5f84593e7086c66a205abab7ee44e1a8e6db58e50bf18ca46cb8239118b5ecd91a2604051339083156108fc029084906000818181858888f19350505050158015610589573d6000803e3d6000fd5b5060405182815233907feaff4b37086828766ad3268786972c0cd24259d4c87a80f9d3963a3c3d999b0d9060200160405180910390a25050565b306001600160a01b037f000000000000000000000000000000000000000000000000000000000000000016141561060c5760405162461bcd60e51b81526004016104c890611f0f565b7f00000000000000000000000000000000000000000000000000000000000000006001600160a01b0316610655600080516020612224833981519152546001600160a01b031690565b6001600160a01b03161461067b5760405162461bcd60e51b81526004016104c890611f5b565b61068481610dff565b604080516000808252602082019092526106a091839190610e07565b50565b6106ab610f77565b6106b3610fd1565b565b306001600160a01b037f00000000000000000000000000000000000000000000000000000000000000001614156106fe5760405162461bcd60e51b81526004016104c890611f0f565b7f00000000000000000000000000000000000000000000000000000000000000006001600160a01b0316610747600080516020612224833981519152546001600160a01b031690565b6001600160a01b03161461076d5760405162461bcd60e51b81526004016104c890611f5b565b61077682610dff565b61078282826001610e07565b5050565b6000306001600160a01b037f000000000000000000000000000000000000000000000000000000000000000016146108265760405162461bcd60e51b815260206004820152603860248201527f555550535570677261646561626c653a206d757374206e6f742062652063616c60448201527f6c6564207468726f7567682064656c656761746563616c6c000000000000000060648201526084016104c8565b5060008051602061222483398151915290565b610841610f77565b6106b36000611023565b610853610f77565b6106b3611075565b610863610db9565b33600090815260fd60205260409020546108925760405163b38340cf60e01b81523360048201526024016104c8565b61089d606443611c47565b33600081815260fd6020526040908190206001018390555190917f43e8fb9d4f009c90c55a3fa108b177b794704d61af7af6f6512db7883f8ed843916108e591815260200190565b60405180910390a2565b60fb546001600160a01b0316331461091c576040516302a5785160e31b81523360048201526024016104c8565b610924610db9565b848360006109323a86611fa7565b905060006109403a86611fa7565b9050600084116109635760405163e5180e0360e01b815260040160405180910390fd5b6000831161098457604051630c9d0b0160e21b815260040160405180910390fd5b828410156109af5760405163320f0a1b60e01b815260048101859052602481018490526044016104c8565b6109ba600185611ef8565b8416156109dd57604051636b1651e160e01b8152600481018590526024016104c8565b600082116109fe57604051633a91b5a960e21b815260040160405180910390fd5b60008111610a1f5760405163459e386d60e01b815260040160405180910390fd5b81610a2a8483611fa7565b11610a5c5781610a3a8483611fa7565b60405163ca3b0e0f60e01b8152600481019290925260248201526044016104c8565b610a6a8a8a8f8b8b866110b2565b60fc60009054906101000a90046001600160a01b03166001600160a01b031663d66eaabd838f8f8f876040518663ffffffff1660e01b8152600401610ab29493929190611fc6565b6000604051808303818588803b158015610acb57600080fd5b505af1158015610adf573d6000803e3d6000fd5b50505050508c7f4f9439a5aed9cb470d2e0756e7d293accfe5223e719a9a1a256646378ec4375882604051610b1691815260200190565b60405180910390a260fb546001600160a01b03166108fc83610b388685611fa7565b610b429190611ef8565b6040518115909202916000818181858888f19350505050158015610b6a573d6000803e3d6000fd5b5050505050505050505050505050565b600054610100900460ff1615808015610b9a5750600054600160ff909116105b80610bb45750303b158015610bb4575060005460ff166001145b610c175760405162461bcd60e51b815260206004820152602e60248201527f496e697469616c697a61626c653a20636f6e747261637420697320616c72656160448201526d191e481a5b9a5d1a585b1a5e995960921b60648201526084016104c8565b6000805460ff191660011790558015610c3a576000805461ff0019166101001790555b610c42611442565b610c4a611471565b610c5383611023565b60fc80546001600160a01b038087166001600160a01b03199283161790925560fb8054928516929091169190911790558015610cc9576000805461ff0019169055604051600181527f7f26b83ff96e1f2b6a682f133852f6798a09c465da95921460cefb38474024989060200160405180910390a15b50505050565b610cd7610f77565b6001600160a01b038116610d3c5760405162461bcd60e51b815260206004820152602660248201527f4f776e61626c653a206e6577206f776e657220697320746865207a65726f206160448201526564647265737360d01b60648201526084016104c8565b6106a081611023565b610d4d610db9565b33600090815260fd6020526040902054610d7c5760405163366095e160e11b81523360048201526024016104c8565b33600081815260fd6020526040808220600101829055517fc5f84593e7086c66a205abab7ee44e1a8e6db58e50bf18ca46cb8239118b5ecd9190a2565b60655460ff16156106b35760405162461bcd60e51b815260206004820152601060248201526f14185d5cd8589b194e881c185d5cd95960821b60448201526064016104c8565b6106a0610f77565b7f4910fdfa16fed3260ed0e7147f7cc6da11a60208b5b9406d12a635614ffd91435460ff1615610e3f57610e3a83611498565b505050565b826001600160a01b03166352d1902d6040518163ffffffff1660e01b8152600401602060405180830381865afa925050508015610e99575060408051601f3d908101601f19168201909252610e9691810190612006565b60015b610efc5760405162461bcd60e51b815260206004820152602e60248201527f45524331393637557067726164653a206e657720696d706c656d656e7461746960448201526d6f6e206973206e6f74205555505360901b60648201526084016104c8565b6000805160206122248339815191528114610f6b5760405162461bcd60e51b815260206004820152602960248201527f45524331393637557067726164653a20756e737570706f727465642070726f786044820152681a58589b195555525160ba1b60648201526084016104c8565b50610e3a838383611534565b6033546001600160a01b031633146106b35760405162461bcd60e51b815260206004820181905260248201527f4f776e61626c653a2063616c6c6572206973206e6f7420746865206f776e657260448201526064016104c8565b610fd9611559565b6065805460ff191690557f5db9ee0a495bf2e6ff9c91a7834c1ba4fdd244a5e8aa4e537bd38aeae4b073aa335b6040516001600160a01b03909116815260200160405180910390a1565b603380546001600160a01b038381166001600160a01b0319831681179093556040519116919082907f8be0079c531659141344cd1fd0a4f28419497f9722a3daafe3b4186f6b6457e090600090a35050565b61107d610db9565b6065805460ff191660011790557f62e78cea01bee320cd4e420270b5ea74000d11b0c9f74754ebdbfc544b05a2586110063390565b60006110bf60028761201f565b905060008167ffffffffffffffff8111156110dc576110dc611caa565b604051908082528060200260200182016040528015611105578160200160208202803683370190505b50905060005b828163ffffffff161015611230578888611126836002612041565b63ffffffff1681811061113b5761113b61206d565b9050602002013589898360026111519190612041565b61115c906001612083565b63ffffffff168181106111715761117161206d565b90506020020135604051602001611192929190918252602082015260400190565b60405160208183030381529060405280519060200120828263ffffffff16815181106111c0576111c061206d565b60200260200101818152505061121e89898363ffffffff168181106111e7576111e761206d565b9050602002013587878463ffffffff168181106112065761120661206d565b905060200281019061121891906120ab565b866115a2565b80611228816120cb565b91505061110b565b63ffffffff811685111561126b5761125989898363ffffffff168181106111e7576111e761206d565b80611263816120cb565b915050611230565b61127660028461201f565b92505b8215611369575060005b828163ffffffff161015611357578161129d826002612041565b63ffffffff16815181106112b3576112b361206d565b6020026020010151828260026112c99190612041565b6112d4906001612083565b63ffffffff16815181106112ea576112ea61206d565b602002602001015160405160200161130c929190918252602082015260400190565b60405160208183030381529060405280519060200120828263ffffffff168151811061133a5761133a61206d565b60209081029190910101528061134f816120cb565b915050611283565b61136260028461201f565b9250611279565b60018814156113d65786898960008181106113865761138661206d565b90506020020135146113d15786898960008181106113a6576113a661206d565b905060200201356040516327c4ed9760e21b81526004016104c8929190918252602082015260400190565b611437565b86826000815181106113ea576113ea61206d565b60200260200101511461143757868260008151811061140b5761140b61206d565b60200260200101516040516327c4ed9760e21b81526004016104c8929190918252602082015260400190565b505050505050505050565b600054610100900460ff166114695760405162461bcd60e51b81526004016104c8906120ef565b6106b3611718565b600054610100900460ff166106b35760405162461bcd60e51b81526004016104c8906120ef565b6001600160a01b0381163b6115055760405162461bcd60e51b815260206004820152602d60248201527f455243313936373a206e657720696d706c656d656e746174696f6e206973206e60448201526c1bdd08184818dbdb9d1c9858dd609a1b60648201526084016104c8565b60008051602061222483398151915280546001600160a01b0319166001600160a01b0392909216919091179055565b61153d83611748565b60008251118061154a5750805b15610e3a57610cc98383611788565b60655460ff166106b35760405162461bcd60e51b815260206004820152601460248201527314185d5cd8589b194e881b9bdd081c185d5cd95960621b60448201526064016104c8565b604080516020808201869052848101358284015246606080840191909152835180840390910181526080909201909252805191012060006116236115e6858061213a565b8080601f016020809104026020016040519081016040528093929190818152602001838380828437600092019190915250869392505061187c9050565b90506001600160a01b03811661164c57604051638baa579f60e01b815260040160405180910390fd5b6001600160a01b038116600090815260fd6020908152604090912060028101549091860135146116a25760028101546040516306427aeb60e01b81526004810191909152602086013560248201526044016104c8565b6002810180549060006116b483612181565b909155505080548411156116f7578054604051632557019960e21b81526001600160a01b03841660048201526024810191909152604481018590526064016104c8565b8381600001600082825461170b9190611ef8565b9091555050505050505050565b600054610100900460ff1661173f5760405162461bcd60e51b81526004016104c8906120ef565b6106b333611023565b61175181611498565b6040516001600160a01b038216907fbc7cd75a20ee27fd9adebab32041f755214dbc6bffa90cc0225b39da2e5c2d3b90600090a250565b60606001600160a01b0383163b6117f05760405162461bcd60e51b815260206004820152602660248201527f416464726573733a2064656c65676174652063616c6c20746f206e6f6e2d636f6044820152651b9d1c9858dd60d21b60648201526084016104c8565b600080846001600160a01b03168460405161180b91906121c8565b600060405180830381855af49150503d8060008114611846576040519150601f19603f3d011682016040523d82523d6000602084013e61184b565b606091505b50915091506118738282604051806060016040528060278152602001612244602791396118a0565b95945050505050565b600080600061188b85856118e0565b9150915061189881611950565b509392505050565b606083156118af5750816118d9565b8251156118bf5782518084602001fd5b8160405162461bcd60e51b81526004016104c891906121da565b9392505050565b6000808251604114156119175760208301516040840151606085015160001a61190b87828585611b0b565b94509450505050611949565b8251604014156119415760208301516040840151611936868383611bf8565b935093505050611949565b506000905060025b9250929050565b60008160048111156119645761196461220d565b141561196d5750565b60018160048111156119815761198161220d565b14156119cf5760405162461bcd60e51b815260206004820152601860248201527f45434453413a20696e76616c6964207369676e6174757265000000000000000060448201526064016104c8565b60028160048111156119e3576119e361220d565b1415611a315760405162461bcd60e51b815260206004820152601f60248201527f45434453413a20696e76616c6964207369676e6174757265206c656e6774680060448201526064016104c8565b6003816004811115611a4557611a4561220d565b1415611a9e5760405162461bcd60e51b815260206004820152602260248201527f45434453413a20696e76616c6964207369676e6174757265202773272076616c604482015261756560f01b60648201526084016104c8565b6004816004811115611ab257611ab261220d565b14156106a05760405162461bcd60e51b815260206004820152602260248201527f45434453413a20696e76616c6964207369676e6174757265202776272076616c604482015261756560f01b60648201526084016104c8565b6000807f7fffffffffffffffffffffffffffffff5d576e7357a4501ddfe92f46681b20a0831115611b425750600090506003611bef565b8460ff16601b14158015611b5a57508460ff16601c14155b15611b6b5750600090506004611bef565b6040805160008082526020820180845289905260ff881692820192909252606081018690526080810185905260019060a0016020604051602081039080840390855afa158015611bbf573d6000803e3d6000fd5b5050604051601f1901519150506001600160a01b038116611be857600060019250925050611bef565b9150600090505b94509492505050565b6000806001600160ff1b03831681611c1560ff86901c601b611c47565b9050611c2387828885611b0b565b935093505050935093915050565b634e487b7160e01b600052601160045260246000fd5b60008219821115611c5a57611c5a611c31565b500190565b6001600160a01b03811681146106a057600080fd5b600060208284031215611c8657600080fd5b81356118d981611c5f565b600060208284031215611ca357600080fd5b5035919050565b634e487b7160e01b600052604160045260246000fd5b60008060408385031215611cd357600080fd5b8235611cde81611c5f565b9150602083013567ffffffffffffffff80821115611cfb57600080fd5b818501915085601f830112611d0f57600080fd5b813581811115611d2157611d21611caa565b604051601f8201601f19908116603f01168101908382118183101715611d4957611d49611caa565b81604052828152886020848701011115611d6257600080fd5b8260208601602083013760006020848301015280955050505050509250929050565b60008083601f840112611d9657600080fd5b50813567ffffffffffffffff811115611dae57600080fd5b6020830191508360208260051b850101111561194957600080fd5b600080600080600080600080600060c08a8c031215611de757600080fd5b8935985060208a013567ffffffffffffffff80821115611e0657600080fd5b818c0191508c601f830112611e1a57600080fd5b813581811115611e2957600080fd5b8d6020828501011115611e3b57600080fd5b602083019a508099505060408c0135915080821115611e5957600080fd5b611e658d838e01611d84565b909850965060608c0135915080821115611e7e57600080fd5b50611e8b8c828d01611d84565b9a9d999c50979a96999598959660808101359660a09091013595509350505050565b600080600060608486031215611ec257600080fd5b8335611ecd81611c5f565b92506020840135611edd81611c5f565b91506040840135611eed81611c5f565b809150509250925092565b600082821015611f0a57611f0a611c31565b500390565b6020808252602c908201527f46756e6374696f6e206d7573742062652063616c6c6564207468726f7567682060408201526b19195b1959d85d1958d85b1b60a21b606082015260800190565b6020808252602c908201527f46756e6374696f6e206d7573742062652063616c6c6564207468726f7567682060408201526b6163746976652070726f787960a01b606082015260800190565b6000816000190483118215151615611fc157611fc1611c31565b500290565b848152606060208201528260608201528284608083013760006080848301015260006080601f19601f860116830101905082604083015295945050505050565b60006020828403121561201857600080fd5b5051919050565b60008261203c57634e487b7160e01b600052601260045260246000fd5b500490565b600063ffffffff8083168185168183048111821515161561206457612064611c31565b02949350505050565b634e487b7160e01b600052603260045260246000fd5b600063ffffffff8083168185168083038211156120a2576120a2611c31565b01949350505050565b60008235603e198336030181126120c157600080fd5b9190910192915050565b600063ffffffff808316818114156120e5576120e5611c31565b6001019392505050565b6020808252602b908201527f496e697469616c697a61626c653a20636f6e7472616374206973206e6f74206960408201526a6e697469616c697a696e6760a81b606082015260800190565b6000808335601e1984360301811261215157600080fd5b83018035915067ffffffffffffffff82111561216c57600080fd5b60200191503681900382131561194957600080fd5b600060001982141561219557612195611c31565b5060010190565b60005b838110156121b757818101518382015260200161219f565b83811115610cc95750506000910152565b600082516120c181846020870161219c565b60208152600082518060208401526121f981604085016020870161219c565b601f01601f19169190910160400192915050565b634e487b7160e01b600052602160045260246000fdfe360894a13ba1a3210667c828492db98dca3e2076cc3735a920a3ca505d382bbc416464726573733a206c6f772d6c6576656c2064656c65676174652063616c6c206661696c6564a264697066735822122045edaae260f3bc7de979fb17fe92438b3edff530545fa931295c692bcd17261a64736f6c634300080c0033","linkReferences":{}},"methodIdentifiers":{"UNLOCK_BLOCK_COUNT()":"5a3f631a","alignedLayerServiceManager()":"953ef807","batcherWallet()":"58b96e27","createNewTask(bytes32,string,bytes32[],(bytes,uint256)[],uint256,uint256)":"bf322658","initialize(address,address,address)":"c0c53b8b","lock()":"f83d08ba","owner()":"8da5cb5b","pause()":"8456cb59","paused()":"5c975abb","proxiableUUID()":"52d1902d","renounceOwnership()":"715018a6","transferOwnership(address)":"f2fde38b","unlock()":"a69df4b5","unpause()":"3f4ba83a","upgradeTo(address)":"3659cfe6","upgradeToAndCall(address,bytes)":"4f1ef286","userData(address)":"c8910913","user_balances(address)":"2df4e21e","user_nonces(address)":"17d89c4e","user_unlock_block(address)":"4d5431ea","withdraw(uint256)":"2e1a7d4d"},"id":61}