{"abi":[{"type":"constructor","inputs":[{"name":"__avsDirectory","type":"address","internalType":"contract IAVSDirectory"},{"name":"__rewardsCoordinator","type":"address","internalType":"contract IRewardsCoordinator"},{"name":"__registryCoordinator","type":"address","internalType":"contract IRegistryCoordinator"},{"name":"__stakeRegistry","type":"address","internalType":"contract IStakeRegistry"}],"stateMutability":"nonpayable"},{"type":"receive","stateMutability":"payable"},{"type":"function","name":"avsDirectory","inputs":[],"outputs":[{"name":"","type":"address","internalType":"address"}],"stateMutability":"view"},{"type":"function","name":"balanceOf","inputs":[{"name":"account","type":"address","internalType":"address"}],"outputs":[{"name":"","type":"uint256","internalType":"uint256"}],"stateMutability":"view"},{"type":"function","name":"batchesState","inputs":[{"name":"","type":"bytes32","internalType":"bytes32"}],"outputs":[{"name":"taskCreatedBlock","type":"uint32","internalType":"uint32"},{"name":"responded","type":"bool","internalType":"bool"}],"stateMutability":"view"},{"type":"function","name":"blsApkRegistry","inputs":[],"outputs":[{"name":"","type":"address","internalType":"contract IBLSApkRegistry"}],"stateMutability":"view"},{"type":"function","name":"checkPublicInput","inputs":[{"name":"publicInput","type":"bytes","internalType":"bytes"},{"name":"hash","type":"bytes32","internalType":"bytes32"}],"outputs":[{"name":"","type":"bool","internalType":"bool"}],"stateMutability":"pure"},{"type":"function","name":"checkSignatures","inputs":[{"name":"msgHash","type":"bytes32","internalType":"bytes32"},{"name":"referenceBlockNumber","type":"uint32","internalType":"uint32"},{"name":"params","type":"tuple","internalType":"struct IBLSSignatureChecker.NonSignerStakesAndSignature","components":[{"name":"nonSignerQuorumBitmapIndices","type":"uint32[]","internalType":"uint32[]"},{"name":"nonSignerPubkeys","type":"tuple[]","internalType":"struct BN254.G1Point[]","components":[{"name":"X","type":"uint256","internalType":"uint256"},{"name":"Y","type":"uint256","internalType":"uint256"}]},{"name":"quorumApks","type":"tuple[]","internalType":"struct BN254.G1Point[]","components":[{"name":"X","type":"uint256","internalType":"uint256"},{"name":"Y","type":"uint256","internalType":"uint256"}]},{"name":"apkG2","type":"tuple","internalType":"struct BN254.G2Point","components":[{"name":"X","type":"uint256[2]","internalType":"uint256[2]"},{"name":"Y","type":"uint256[2]","internalType":"uint256[2]"}]},{"name":"sigma","type":"tuple","internalType":"struct BN254.G1Point","components":[{"name":"X","type":"uint256","internalType":"uint256"},{"name":"Y","type":"uint256","internalType":"uint256"}]},{"name":"quorumApkIndices","type":"uint32[]","internalType":"uint32[]"},{"name":"totalStakeIndices","type":"uint32[]","internalType":"uint32[]"},{"name":"nonSignerStakeIndices","type":"uint32[][]","internalType":"uint32[][]"}]}],"outputs":[{"name":"","type":"tuple","internalType":"struct IBLSSignatureChecker.QuorumStakeTotals","components":[{"name":"signedStakeForQuorum","type":"uint96[]","internalType":"uint96[]"},{"name":"totalStakeForQuorum","type":"uint96[]","internalType":"uint96[]"}]},{"name":"","type":"bytes32","internalType":"bytes32"}],"stateMutability":"view"},{"type":"function","name":"createAVSRewardsSubmission","inputs":[{"name":"rewardsSubmissions","type":"tuple[]","internalType":"struct IRewardsCoordinator.RewardsSubmission[]","components":[{"name":"strategiesAndMultipliers","type":"tuple[]","internalType":"struct IRewardsCoordinator.StrategyAndMultiplier[]","components":[{"name":"strategy","type":"address","internalType":"contract IStrategy"},{"name":"multiplier","type":"uint96","internalType":"uint96"}]},{"name":"token","type":"address","internalType":"contract IERC20"},{"name":"amount","type":"uint256","internalType":"uint256"},{"name":"startTimestamp","type":"uint32","internalType":"uint32"},{"name":"duration","type":"uint32","internalType":"uint32"}]}],"outputs":[],"stateMutability":"nonpayable"},{"type":"function","name":"createNewTask","inputs":[{"name":"batchMerkleRoot","type":"bytes32","internalType":"bytes32"},{"name":"batchDataPointer","type":"string","internalType":"string"}],"outputs":[],"stateMutability":"payable"},{"type":"function","name":"delegation","inputs":[],"outputs":[{"name":"","type":"address","internalType":"contract IDelegationManager"}],"stateMutability":"view"},{"type":"function","name":"depositToBatcher","inputs":[{"name":"account","type":"address","internalType":"address"}],"outputs":[],"stateMutability":"payable"},{"type":"function","name":"deregisterOperatorFromAVS","inputs":[{"name":"operator","type":"address","internalType":"address"}],"outputs":[],"stateMutability":"nonpayable"},{"type":"function","name":"getOperatorRestakedStrategies","inputs":[{"name":"operator","type":"address","internalType":"address"}],"outputs":[{"name":"","type":"address[]","internalType":"address[]"}],"stateMutability":"view"},{"type":"function","name":"getRestakeableStrategies","inputs":[],"outputs":[{"name":"","type":"address[]","internalType":"address[]"}],"stateMutability":"view"},{"type":"function","name":"initialize","inputs":[{"name":"_initialOwner","type":"address","internalType":"address"},{"name":"_rewardsInitiator","type":"address","internalType":"address"}],"outputs":[],"stateMutability":"nonpayable"},{"type":"function","name":"owner","inputs":[],"outputs":[{"name":"","type":"address","internalType":"address"}],"stateMutability":"view"},{"type":"function","name":"registerOperatorToAVS","inputs":[{"name":"operator","type":"address","internalType":"address"},{"name":"operatorSignature","type":"tuple","internalType":"struct ISignatureUtils.SignatureWithSaltAndExpiry","components":[{"name":"signature","type":"bytes","internalType":"bytes"},{"name":"salt","type":"bytes32","internalType":"bytes32"},{"name":"expiry","type":"uint256","internalType":"uint256"}]}],"outputs":[],"stateMutability":"nonpayable"},{"type":"function","name":"registryCoordinator","inputs":[],"outputs":[{"name":"","type":"address","internalType":"contract IRegistryCoordinator"}],"stateMutability":"view"},{"type":"function","name":"renounceOwnership","inputs":[],"outputs":[],"stateMutability":"nonpayable"},{"type":"function","name":"respondToTask","inputs":[{"name":"batchMerkleRoot","type":"bytes32","internalType":"bytes32"},{"name":"senderAddress","type":"address","internalType":"address"},{"name":"nonSignerStakesAndSignature","type":"tuple","internalType":"struct IBLSSignatureChecker.NonSignerStakesAndSignature","components":[{"name":"nonSignerQuorumBitmapIndices","type":"uint32[]","internalType":"uint32[]"},{"name":"nonSignerPubkeys","type":"tuple[]","internalType":"struct BN254.G1Point[]","components":[{"name":"X","type":"uint256","internalType":"uint256"},{"name":"Y","type":"uint256","internalType":"uint256"}]},{"name":"quorumApks","type":"tuple[]","internalType":"struct BN254.G1Point[]","components":[{"name":"X","type":"uint256","internalType":"uint256"},{"name":"Y","type":"uint256","internalType":"uint256"}]},{"name":"apkG2","type":"tuple","internalType":"struct BN254.G2Point","components":[{"name":"X","type":"uint256[2]","internalType":"uint256[2]"},{"name":"Y","type":"uint256[2]","internalType":"uint256[2]"}]},{"name":"sigma","type":"tuple","internalType":"struct BN254.G1Point","components":[{"name":"X","type":"uint256","internalType":"uint256"},{"name":"Y","type":"uint256","internalType":"uint256"}]},{"name":"quorumApkIndices","type":"uint32[]","internalType":"uint32[]"},{"name":"totalStakeIndices","type":"uint32[]","internalType":"uint32[]"},{"name":"nonSignerStakeIndices","type":"uint32[][]","internalType":"uint32[][]"}]}],"outputs":[],"stateMutability":"nonpayable"},{"type":"function","name":"rewardsInitiator","inputs":[],"outputs":[{"name":"","type":"address","internalType":"address"}],"stateMutability":"view"},{"type":"function","name":"setRewardsInitiator","inputs":[{"name":"newRewardsInitiator","type":"address","internalType":"address"}],"outputs":[],"stateMutability":"nonpayable"},{"type":"function","name":"setStaleStakesForbidden","inputs":[{"name":"value","type":"bool","internalType":"bool"}],"outputs":[],"stateMutability":"nonpayable"},{"type":"function","name":"stakeRegistry","inputs":[],"outputs":[{"name":"","type":"address","internalType":"contract IStakeRegistry"}],"stateMutability":"view"},{"type":"function","name":"staleStakesForbidden","inputs":[],"outputs":[{"name":"","type":"bool","internalType":"bool"}],"stateMutability":"view"},{"type":"function","name":"transferOwnership","inputs":[{"name":"newOwner","type":"address","internalType":"address"}],"outputs":[],"stateMutability":"nonpayable"},{"type":"function","name":"trySignatureAndApkVerification","inputs":[{"name":"msgHash","type":"bytes32","internalType":"bytes32"},{"name":"apk","type":"tuple","internalType":"struct BN254.G1Point","components":[{"name":"X","type":"uint256","internalType":"uint256"},{"name":"Y","type":"uint256","internalType":"uint256"}]},{"name":"apkG2","type":"tuple","internalType":"struct BN254.G2Point","components":[{"name":"X","type":"uint256[2]","internalType":"uint256[2]"},{"name":"Y","type":"uint256[2]","internalType":"uint256[2]"}]},{"name":"sigma","type":"tuple","internalType":"struct BN254.G1Point","components":[{"name":"X","type":"uint256","internalType":"uint256"},{"name":"Y","type":"uint256","internalType":"uint256"}]}],"outputs":[{"name":"pairingSuccessful","type":"bool","internalType":"bool"},{"name":"siganatureIsValid","type":"bool","internalType":"bool"}],"stateMutability":"view"},{"type":"function","name":"updateAVSMetadataURI","inputs":[{"name":"_metadataURI","type":"string","internalType":"string"}],"outputs":[],"stateMutability":"nonpayable"},{"type":"function","name":"verifyBatchInclusion","inputs":[{"name":"proofCommitment","type":"bytes32","internalType":"bytes32"},{"name":"pubInputCommitment","type":"bytes32","internalType":"bytes32"},{"name":"provingSystemAuxDataCommitment","type":"bytes32","internalType":"bytes32"},{"name":"proofGeneratorAddr","type":"bytes20","internalType":"bytes20"},{"name":"batchMerkleRoot","type":"bytes32","internalType":"bytes32"},{"name":"merkleProof","type":"bytes","internalType":"bytes"},{"name":"verificationDataBatchIndex","type":"uint256","internalType":"uint256"},{"name":"senderAddress","type":"address","internalType":"address"}],"outputs":[{"name":"","type":"bool","internalType":"bool"}],"stateMutability":"view"},{"type":"function","name":"withdraw","inputs":[{"name":"amount","type":"uint256","internalType":"uint256"}],"outputs":[],"stateMutability":"nonpayable"},{"type":"event","name":"BatchVerified","inputs":[{"name":"batchMerkleRoot","type":"bytes32","indexed":true,"internalType":"bytes32"},{"name":"senderAddress","type":"address","indexed":false,"internalType":"address"}],"anonymous":false},{"type":"event","name":"BatcherBalanceUpdated","inputs":[{"name":"batcher","type":"address","indexed":true,"internalType":"address"},{"name":"newBalance","type":"uint256","indexed":false,"internalType":"uint256"}],"anonymous":false},{"type":"event","name":"Initialized","inputs":[{"name":"version","type":"uint8","indexed":false,"internalType":"uint8"}],"anonymous":false},{"type":"event","name":"NewBatch","inputs":[{"name":"batchMerkleRoot","type":"bytes32","indexed":true,"internalType":"bytes32"},{"name":"senderAddress","type":"address","indexed":false,"internalType":"address"},{"name":"taskCreatedBlock","type":"uint32","indexed":false,"internalType":"uint32"},{"name":"batchDataPointer","type":"string","indexed":false,"internalType":"string"}],"anonymous":false},{"type":"event","name":"OwnershipTransferred","inputs":[{"name":"previousOwner","type":"address","indexed":true,"internalType":"address"},{"name":"newOwner","type":"address","indexed":true,"internalType":"address"}],"anonymous":false},{"type":"event","name":"RewardsInitiatorUpdated","inputs":[{"name":"prevRewardsInitiator","type":"address","indexed":false,"internalType":"address"},{"name":"newRewardsInitiator","type":"address","indexed":false,"internalType":"address"}],"anonymous":false},{"type":"event","name":"StaleStakesForbiddenUpdate","inputs":[{"name":"value","type":"bool","indexed":false,"internalType":"bool"}],"anonymous":false},{"type":"error","name":"BatchAlreadyResponded","inputs":[{"name":"batchIdentifierHash","type":"bytes32","internalType":"bytes32"}]},{"type":"error","name":"BatchAlreadySubmitted","inputs":[{"name":"batchIdentifierHash","type":"bytes32","internalType":"bytes32"}]},{"type":"error","name":"BatchDoesNotExist","inputs":[{"name":"batchIdentifierHash","type":"bytes32","internalType":"bytes32"}]},{"type":"error","name":"BatcherBalanceIsEmpty","inputs":[{"name":"batcher","type":"address","internalType":"address"}]},{"type":"error","name":"BatcherHasNoBalance","inputs":[{"name":"batcher","type":"address","internalType":"address"}]},{"type":"error","name":"InsufficientFunds","inputs":[{"name":"batcher","type":"address","internalType":"address"},{"name":"required","type":"uint256","internalType":"uint256"},{"name":"available","type":"uint256","internalType":"uint256"}]},{"type":"error","name":"InvalidDepositAmount","inputs":[{"name":"amount","type":"uint256","internalType":"uint256"}]},{"type":"error","name":"InvalidQuorumThreshold","inputs":[{"name":"signedStake","type":"uint256","internalType":"uint256"},{"name":"requiredStake","type":"uint256","internalType":"uint256"}]}],"bytecode":{"object":"0x6101806040523480156200001257600080fd5b50604051620052cb380380620052cb8339810160408190526200003591620002e5565b6001600160a01b0380851660805280841660a05280831660c052811660e0528184848284620000636200020a565b50505050806001600160a01b0316610100816001600160a01b031681525050806001600160a01b031663683048356040518163ffffffff1660e01b8152600401602060405180830381865afa158015620000c1573d6000803e3d6000fd5b505050506040513d601f19601f82011682018060405250810190620000e791906200034d565b6001600160a01b0316610120816001600160a01b031681525050806001600160a01b0316635df459466040518163ffffffff1660e01b8152600401602060405180830381865afa15801562000140573d6000803e3d6000fd5b505050506040513d601f19601f820116820180604052508101906200016691906200034d565b6001600160a01b0316610140816001600160a01b031681525050610120516001600160a01b031663df5cf7236040518163ffffffff1660e01b8152600401602060405180830381865afa158015620001c2573d6000803e3d6000fd5b505050506040513d601f19601f82011682018060405250810190620001e891906200034d565b6001600160a01b03166101605250620002006200020a565b5050505062000374565b600054610100900460ff1615620002775760405162461bcd60e51b815260206004820152602760248201527f496e697469616c697a61626c653a20636f6e747261637420697320696e697469604482015266616c697a696e6760c81b606482015260840160405180910390fd5b60005460ff9081161015620002ca576000805460ff191660ff9081179091556040519081527f7f26b83ff96e1f2b6a682f133852f6798a09c465da95921460cefb38474024989060200160405180910390a15b565b6001600160a01b0381168114620002e257600080fd5b50565b60008060008060808587031215620002fc57600080fd5b84516200030981620002cc565b60208601519094506200031c81620002cc565b60408601519093506200032f81620002cc565b60608601519092506200034281620002cc565b939692955090935050565b6000602082840312156200036057600080fd5b81516200036d81620002cc565b9392505050565b60805160a05160c05160e05161010051610120516101405161016051614e4962000482600039600081816105cf015261181001526000818161035b0152611a230152600081816103a701528181611c100152611e0001526000818161040e01528181610f23015281816114cc0152818161167301526118c4015260008181610c3801528181610d9301528181610e2a015281816128bd01528181612a400152612adf015260008181610a5f01528181610aee01528181610b6e015281816122920152818161235e015281816127fb015261299b015260008181612e0d01528181612ec90152612fb50152600081816103d8015281816122e6015281816123ba01526127c00152614e496000f3fe6080604052600436106101c65760003560e01c806370a08231116100f7578063a98fb35511610095578063e481af9d11610064578063e481af9d146105f1578063f2fde38b14610606578063fc299dee14610626578063fce36c7d1461064657600080fd5b8063a98fb35514610527578063b099627e14610547578063b98d0908146105a3578063df5cf723146105bd57600080fd5b806395c6d604116100d157806395c6d604146104a75780639926ee7d146104c7578063a364f4da146104e7578063a5a3fab11461050757600080fd5b806370a0823114610430578063715018a6146104745780638da5cb5b1461048957600080fd5b8063485cc955116101645780635df459461161013e5780635df459461461034957806368304835146103955780636b3aa72e146103c95780636d14a987146103fc57600080fd5b8063485cc955146102e85780634ae07c37146103085780635c0089941461033657600080fd5b806333cfb7b7116101a057806333cfb7b7146102685780633bc28c8c14610295578063416c7e5e146102b55780634223d551146102d557600080fd5b806306045a91146101dc578063171f1d5b146102115780632e1a7d4d1461024857600080fd5b366101d7576101d53334610666565b005b600080fd5b3480156101e857600080fd5b506101fc6101f7366004613f2a565b6106f8565b60405190151581526020015b60405180910390f35b34801561021d57600080fd5b5061023161022c36600461408b565b6107d8565b604080519215158352901515602083015201610208565b34801561025457600080fd5b506101d56102633660046140dc565b610962565b34801561027457600080fd5b506102886102833660046140f5565b610a3a565b6040516102089190614112565b3480156102a157600080fd5b506101d56102b03660046140f5565b610f0d565b3480156102c157600080fd5b506101d56102d036600461416d565b610f21565b6101d56102e33660046140f5565b611058565b3480156102f457600080fd5b506101d561030336600461418a565b611062565b34801561031457600080fd5b50610328610323366004614479565b611177565b604051610208929190614513565b6101d56103443660046145a4565b6120ca565b34801561035557600080fd5b5061037d7f000000000000000000000000000000000000000000000000000000000000000081565b6040516001600160a01b039091168152602001610208565b3480156103a157600080fd5b5061037d7f000000000000000000000000000000000000000000000000000000000000000081565b3480156103d557600080fd5b507f000000000000000000000000000000000000000000000000000000000000000061037d565b34801561040857600080fd5b5061037d7f000000000000000000000000000000000000000000000000000000000000000081565b34801561043c57600080fd5b5061046661044b3660046140f5565b6001600160a01b0316600090815260ca602052604090205490565b604051908152602001610208565b34801561048057600080fd5b506101d561224e565b34801561049557600080fd5b506033546001600160a01b031661037d565b3480156104b357600080fd5b506101fc6104c23660046145ef565b612262565b3480156104d357600080fd5b506101d56104e236600461463a565b612287565b3480156104f357600080fd5b506101d56105023660046140f5565b612353565b34801561051357600080fd5b506101d56105223660046146e5565b61241a565b34801561053357600080fd5b506101d561054236600461470c565b6127a1565b34801561055357600080fd5b506105876105623660046140dc565b60c96020526000908152604090205463ffffffff811690640100000000900460ff1682565b6040805163ffffffff9093168352901515602083015201610208565b3480156105af57600080fd5b506097546101fc9060ff1681565b3480156105c957600080fd5b5061037d7f000000000000000000000000000000000000000000000000000000000000000081565b3480156105fd57600080fd5b506102886127f5565b34801561061257600080fd5b506101d56106213660046140f5565b612bbe565b34801561063257600080fd5b5060655461037d906001600160a01b031681565b34801561065257600080fd5b506101d561066136600461475c565b612c34565b8061068c57604051632097692160e11b8152600481018290526024015b60405180910390fd5b6001600160a01b038216600090815260ca6020526040812080548392906106b49084906147e6565b90915550506001600160a01b038216600081815260ca6020908152604091829020549151918252600080516020614dd4833981519152910160405180910390a25050565b600080858360405160200161070e9291906147fe565b60408051601f198184030181529181528151602092830120600081815260c990935291205490915063ffffffff1661074a5760009150506107cc565b600081815260c96020526040902054640100000000900460ff166107725760009150506107cc565b60408051602081018c90529081018a9052606081018990526001600160601b03198816608082015260009060940160408051601f19818403018152919052805160208201209091506107c687848389612fec565b93505050505b98975050505050505050565b60008060007f30644e72e131a029b85045b68181585d2833e84879b9709143e1f593f00000018787600001518860200151886000015160006002811061082057610820614819565b60200201518951600160200201518a6020015160006002811061084557610845614819565b60200201518b6020015160016002811061086157610861614819565b602090810291909101518c518d8301516040516108be9a99989796959401988952602089019790975260408801959095526060870193909352608086019190915260a085015260c084015260e08301526101008201526101200190565b6040516020818303038152906040528051906020012060001c6108e1919061482f565b90506109546108fa6108f38884613004565b869061309b565b61090261312f565b61094a61093b85610935604080518082018252600080825260209182015281518083019092526001825260029082015290565b90613004565b6109448c6131ef565b9061309b565b886201d4c061327f565b909890975095505050505050565b33600090815260ca60205260409020548111156109b35733600081815260ca602052604090819020549051632e2a182f60e11b81526004810192909252602482018390526044820152606401610683565b33600090815260ca6020526040812080548392906109d2908490614851565b909155505033600081815260ca6020908152604091829020549151918252600080516020614dd4833981519152910160405180910390a2604051339082156108fc029083906000818181858888f19350505050158015610a36573d6000803e3d6000fd5b5050565b6040516309aa152760e11b81526001600160a01b0382811660048301526060916000917f000000000000000000000000000000000000000000000000000000000000000016906313542a4e90602401602060405180830381865afa158015610aa6573d6000803e3d6000fd5b505050506040513d601f19601f82011682018060405250810190610aca9190614868565b60405163871ef04960e01b8152600481018290529091506000906001600160a01b037f0000000000000000000000000000000000000000000000000000000000000000169063871ef04990602401602060405180830381865afa158015610b35573d6000803e3d6000fd5b505050506040513d601f19601f82011682018060405250810190610b599190614881565b90506001600160c01b0381161580610bf357507f00000000000000000000000000000000000000000000000000000000000000006001600160a01b0316639aa1653d6040518163ffffffff1660e01b8152600401602060405180830381865afa158015610bca573d6000803e3d6000fd5b505050506040513d601f19601f82011682018060405250810190610bee91906148aa565b60ff16155b15610c135760408051600080825260208201909252905b50949350505050565b6000610c27826001600160c01b03166134a3565b90506000805b8251811015610cfd577f00000000000000000000000000000000000000000000000000000000000000006001600160a01b0316633ca5a5f5848381518110610c7757610c77614819565b01602001516040516001600160e01b031960e084901b16815260f89190911c6004820152602401602060405180830381865afa158015610cbb573d6000803e3d6000fd5b505050506040513d601f19601f82011682018060405250810190610cdf9190614868565b610ce990836147e6565b915080610cf5816148cd565b915050610c2d565b506000816001600160401b03811115610d1857610d18613e06565b604051908082528060200260200182016040528015610d41578160200160208202803683370190505b5090506000805b8451811015610f00576000858281518110610d6557610d65614819565b0160200151604051633ca5a5f560e01b815260f89190911c6004820181905291506000906001600160a01b037f00000000000000000000000000000000000000000000000000000000000000001690633ca5a5f590602401602060405180830381865afa158015610dda573d6000803e3d6000fd5b505050506040513d601f19601f82011682018060405250810190610dfe9190614868565b905060005b81811015610eea576040516356e4026d60e11b815260ff84166004820152602481018290527f00000000000000000000000000000000000000000000000000000000000000006001600160a01b03169063adc804da906044016040805180830381865afa158015610e78573d6000803e3d6000fd5b505050506040513d601f19601f82011682018060405250810190610e9c91906148fd565b60000151868681518110610eb257610eb2614819565b6001600160a01b039092166020928302919091019091015284610ed4816148cd565b9550508080610ee2906148cd565b915050610e03565b5050508080610ef8906148cd565b915050610d48565b5090979650505050505050565b610f15613565565b610f1e816135bf565b50565b7f00000000000000000000000000000000000000000000000000000000000000006001600160a01b0316638da5cb5b6040518163ffffffff1660e01b8152600401602060405180830381865afa158015610f7f573d6000803e3d6000fd5b505050506040513d601f19601f82011682018060405250810190610fa3919061493e565b6001600160a01b0316336001600160a01b03161461104f5760405162461bcd60e51b815260206004820152605c60248201527f424c535369676e6174757265436865636b65722e6f6e6c79436f6f7264696e6160448201527f746f724f776e65723a2063616c6c6572206973206e6f7420746865206f776e6560648201527f72206f6620746865207265676973747279436f6f7264696e61746f7200000000608482015260a401610683565b610f1e81613628565b610f1e8134610666565b600054610100900460ff16158080156110825750600054600160ff909116105b8061109c5750303b15801561109c575060005460ff166001145b6110ff5760405162461bcd60e51b815260206004820152602e60248201527f496e697469616c697a61626c653a20636f6e747261637420697320616c72656160448201526d191e481a5b9a5d1a585b1a5e995960921b6064820152608401610683565b6000805460ff191660011790558015611122576000805461ff0019166101001790555b61112c838361366f565b8015611172576000805461ff0019169055604051600181527f7f26b83ff96e1f2b6a682f133852f6798a09c465da95921460cefb38474024989060200160405180910390a15b505050565b604080518082019091526060808252602082015260008260400151516040518060400160405280600181526020016000815250511480156111d357508260a0015151604051806040016040528060018152602001600081525051145b80156111fa57508260c0015151604051806040016040528060018152602001600081525051145b801561122157508260e0015151604051806040016040528060018152602001600081525051145b61128b5760405162461bcd60e51b81526020600482015260416024820152600080516020614df483398151915260448201527f7265733a20696e7075742071756f72756d206c656e677468206d69736d6174636064820152600d60fb1b608482015260a401610683565b825151602084015151146113035760405162461bcd60e51b815260206004820152604460248201819052600080516020614df4833981519152908201527f7265733a20696e707574206e6f6e7369676e6572206c656e677468206d69736d6064820152630c2e8c6d60e31b608482015260a401610683565b4363ffffffff168463ffffffff16106113725760405162461bcd60e51b815260206004820152603c6024820152600080516020614df483398151915260448201527f7265733a20696e76616c6964207265666572656e636520626c6f636b000000006064820152608401610683565b60408051808201825260008082526020808301829052835180850185526060808252818301528451808601865260018082529083019390935284518381528086019095529293919082810190803683370190505060208281019190915260408051808201825260018082526000919093015280518281528082019091529081602001602082028036833701905050815260408051808201909152606080825260208201528560200151516001600160401b0381111561143357611433613e06565b60405190808252806020026020018201604052801561145c578160200160208202803683370190505b5081526020860151516001600160401b0381111561147c5761147c613e06565b6040519080825280602002602001820160405280156114a5578160200160208202803683370190505b508160200181905250600061155160405180604001604052806001815260200160008152507f00000000000000000000000000000000000000000000000000000000000000006001600160a01b0316639aa1653d6040518163ffffffff1660e01b8152600401602060405180830381865afa158015611528573d6000803e3d6000fd5b505050506040513d601f19601f8201168201806040525081019061154c91906148aa565b6136ec565b905060005b8760200151518110156117ec5761159b8860200151828151811061157c5761157c614819565b6020026020010151805160009081526020918201519091526040902090565b836020015182815181106115b1576115b1614819565b602090810291909101015280156116715760208301516115d2600183614851565b815181106115e2576115e2614819565b602002602001015160001c8360200151828151811061160357611603614819565b602002602001015160001c11611671576040805162461bcd60e51b8152602060048201526024810191909152600080516020614df483398151915260448201527f7265733a206e6f6e5369676e65725075626b657973206e6f7420736f727465646064820152608401610683565b7f00000000000000000000000000000000000000000000000000000000000000006001600160a01b03166304ec6351846020015183815181106116b6576116b6614819565b60200260200101518b8b6000015185815181106116d5576116d5614819565b60200260200101516040518463ffffffff1660e01b81526004016117129392919092835263ffffffff918216602084015216604082015260600190565b602060405180830381865afa15801561172f573d6000803e3d6000fd5b505050506040513d601f19601f820116820180604052508101906117539190614881565b6001600160c01b03168360000151828151811061177257611772614819565b6020026020010181815250506117d86108f36117ac848660000151858151811061179e5761179e614819565b60200260200101511661377f565b8a6020015184815181106117c2576117c2614819565b60200260200101516137aa90919063ffffffff16565b9450806117e4816148cd565b915050611556565b50506117f78361388e565b60975490935060ff1660008161180e576000611890565b7f00000000000000000000000000000000000000000000000000000000000000006001600160a01b031663c448feb86040518163ffffffff1660e01b8152600401602060405180830381865afa15801561186c573d6000803e3d6000fd5b505050506040513d601f19601f820116820180604052508101906118909190614868565b905060005b604051806040016040528060018152602001600081525051811015611f9b578215611a21578963ffffffff16827f00000000000000000000000000000000000000000000000000000000000000006001600160a01b031663249a0c426040518060400160405280600181526020016000815250858151811061191957611919614819565b01602001516040516001600160e01b031960e084901b16815260f89190911c6004820152602401602060405180830381865afa15801561195d573d6000803e3d6000fd5b505050506040513d601f19601f820116820180604052508101906119819190614868565b61198b91906147e6565b11611a215760405162461bcd60e51b81526020600482015260666024820152600080516020614df483398151915260448201527f7265733a205374616b6552656769737472792075706461746573206d7573742060648201527f62652077697468696e207769746864726177616c44656c6179426c6f636b732060848201526577696e646f7760d01b60a482015260c401610683565b7f00000000000000000000000000000000000000000000000000000000000000006001600160a01b03166368bccaac60405180604001604052806001815260200160008152508381518110611a7857611a78614819565b602001015160f81c60f81b60f81c8c8c60a001518581518110611a9d57611a9d614819565b60209081029190910101516040516001600160e01b031960e086901b16815260ff909316600484015263ffffffff9182166024840152166044820152606401602060405180830381865afa158015611af9573d6000803e3d6000fd5b505050506040513d601f19601f82011682018060405250810190611b1d919061495b565b6001600160401b031916611b408a60400151838151811061157c5761157c614819565b67ffffffffffffffff191614611bdc5760405162461bcd60e51b81526020600482015260616024820152600080516020614df483398151915260448201527f7265733a2071756f72756d41706b206861736820696e2073746f72616765206460648201527f6f6573206e6f74206d617463682070726f76696465642071756f72756d2061706084820152606b60f81b60a482015260c401610683565b611c0c89604001518281518110611bf557611bf5614819565b60200260200101518761309b90919063ffffffff16565b95507f00000000000000000000000000000000000000000000000000000000000000006001600160a01b031663c8294c5660405180604001604052806001815260200160008152508381518110611c6557611c65614819565b602001015160f81c60f81b60f81c8c8c60c001518581518110611c8a57611c8a614819565b60209081029190910101516040516001600160e01b031960e086901b16815260ff909316600484015263ffffffff9182166024840152166044820152606401602060405180830381865afa158015611ce6573d6000803e3d6000fd5b505050506040513d601f19601f82011682018060405250810190611d0a9190614986565b85602001518281518110611d2057611d20614819565b6001600160601b03909216602092830291909101820152850151805182908110611d4c57611d4c614819565b602002602001015185600001518281518110611d6a57611d6a614819565b60200260200101906001600160601b031690816001600160601b0316815250506000805b8a6020015151811015611f8657611df986600001518281518110611db457611db4614819565b602002602001015160405180604001604052806001815260200160008152508581518110611de457611de4614819565b016020015160f81c60ff161c60019081161490565b15611f74577f00000000000000000000000000000000000000000000000000000000000000006001600160a01b031663f2be94ae60405180604001604052806001815260200160008152508581518110611e5557611e55614819565b602001015160f81c60f81b60f81c8e89602001518581518110611e7a57611e7a614819565b60200260200101518f60e001518881518110611e9857611e98614819565b60200260200101518781518110611eb157611eb1614819565b60209081029190910101516040516001600160e01b031960e087901b16815260ff909416600485015263ffffffff92831660248501526044840191909152166064820152608401602060405180830381865afa158015611f15573d6000803e3d6000fd5b505050506040513d601f19601f82011682018060405250810190611f399190614986565b8751805185908110611f4d57611f4d614819565b60200260200101818151611f6191906149a3565b6001600160601b03169052506001909101905b80611f7e816148cd565b915050611d8e565b50508080611f93906148cd565b915050611895565b505050600080611fb58a868a606001518b608001516107d8565b91509150816120265760405162461bcd60e51b81526020600482015260436024820152600080516020614df483398151915260448201527f7265733a2070616972696e6720707265636f6d70696c652063616c6c206661696064820152621b195960ea1b608482015260a401610683565b806120875760405162461bcd60e51b81526020600482015260396024820152600080516020614df483398151915260448201527f7265733a207369676e617475726520697320696e76616c6964000000000000006064820152608401610683565b505060008782602001516040516020016120a29291906149cb565b60408051808303601f1901815291905280516020909101209299929850919650505050505050565b600083336040516020016120df9291906147fe565b60408051601f198184030181529181528151602092830120600081815260c990935291205490915063ffffffff161561212e57604051630c40bc4360e21b815260048101829052602401610683565b341561218b5733600090815260ca6020526040812080543492906121539084906147e6565b909155505033600081815260ca6020908152604091829020549151918252600080516020614dd4833981519152910160405180910390a25b33600090815260ca60205260409020546121ba57604051632059498b60e11b8152336004820152602401610683565b6040805180820182526000602080830182815263ffffffff43818116865287855260c99093529285902084518154925115156401000000000264ffffffffff19909316941693909317179091559151909186917fb6e138aac002b2914d032511acfdde1f6b38615cd3520c18ea5b8a89fd80327a9161223f9133919089908990614a13565b60405180910390a25050505050565b612256613565565b6122606000613929565b565b6000818484604051612275929190614a60565b60405180910390201490509392505050565b336001600160a01b037f000000000000000000000000000000000000000000000000000000000000000016146122cf5760405162461bcd60e51b815260040161068390614a70565b604051639926ee7d60e01b81526001600160a01b037f00000000000000000000000000000000000000000000000000000000000000001690639926ee7d9061231d9085908590600401614b35565b600060405180830381600087803b15801561233757600080fd5b505af115801561234b573d6000803e3d6000fd5b505050505050565b336001600160a01b037f0000000000000000000000000000000000000000000000000000000000000000161461239b5760405162461bcd60e51b815260040161068390614a70565b6040516351b27a6d60e11b81526001600160a01b0382811660048301527f0000000000000000000000000000000000000000000000000000000000000000169063a364f4da906024015b600060405180830381600087803b1580156123ff57600080fd5b505af1158015612413573d6000803e3d6000fd5b5050505050565b60005a9050600084846040516020016124349291906147fe565b60408051601f198184030181529181528151602092830120600081815260c990935291205490915063ffffffff16612482576040516311cb69a760e11b815260048101829052602401610683565b600081815260c96020526040902054640100000000900460ff16156124bd57604051634e78d7f960e11b815260048101829052602401610683565b6001600160a01b038416600090815260ca60205260409020546124fe5760405163245bc73560e11b81526001600160a01b0385166004820152602401610683565b600081815260c960205260408120805464ff000000001981166401000000001790915561253390839063ffffffff1686611177565b509050604360ff16816020015160008151811061255257612552614819565b60200260200101516125649190614b80565b6001600160601b03166064826000015160008151811061258657612586614819565b60200260200101516001600160601b03166125a19190614baf565b101561263457606481600001516000815181106125c0576125c0614819565b60200260200101516001600160601b03166125db9190614baf565b604360ff1682602001516000815181106125f7576125f7614819565b60200260200101516126099190614b80565b60405163530f5c4560e11b815260048101929092526001600160601b03166024820152604401610683565b6040516001600160a01b038616815286907f8511746b73275e06971968773119b9601fc501d7bdf3824d8754042d148940e29060200160405180910390a260005a905060003a6126848387614851565b61269190620111706147e6565b61269b9190614baf565b6001600160a01b038816600090815260ca6020526040902054909150811115612701576001600160a01b038716600081815260ca602052604090819020549051632e2a182f60e11b81526004810192909252602482018390526044820152606401610683565b6001600160a01b038716600090815260ca602052604081208054839290612729908490614851565b90915550506001600160a01b038716600081815260ca6020908152604091829020549151918252600080516020614dd4833981519152910160405180910390a2604051339082156108fc029083906000818181858888f19350505050158015612796573d6000803e3d6000fd5b505050505050505050565b6127a9613565565b60405163a98fb35560e01b81526001600160a01b037f0000000000000000000000000000000000000000000000000000000000000000169063a98fb355906123e5908490600401614bce565b606060007f00000000000000000000000000000000000000000000000000000000000000006001600160a01b0316639aa1653d6040518163ffffffff1660e01b8152600401602060405180830381865afa158015612857573d6000803e3d6000fd5b505050506040513d601f19601f8201168201806040525081019061287b91906148aa565b60ff1690508061289957505060408051600081526020810190915290565b6000805b8281101561294e57604051633ca5a5f560e01b815260ff821660048201527f00000000000000000000000000000000000000000000000000000000000000006001600160a01b031690633ca5a5f590602401602060405180830381865afa15801561290c573d6000803e3d6000fd5b505050506040513d601f19601f820116820180604052508101906129309190614868565b61293a90836147e6565b915080612946816148cd565b91505061289d565b506000816001600160401b0381111561296957612969613e06565b604051908082528060200260200182016040528015612992578160200160208202803683370190505b5090506000805b7f00000000000000000000000000000000000000000000000000000000000000006001600160a01b0316639aa1653d6040518163ffffffff1660e01b8152600401602060405180830381865afa1580156129f7573d6000803e3d6000fd5b505050506040513d601f19601f82011682018060405250810190612a1b91906148aa565b60ff16811015612bb457604051633ca5a5f560e01b815260ff821660048201526000907f00000000000000000000000000000000000000000000000000000000000000006001600160a01b031690633ca5a5f590602401602060405180830381865afa158015612a8f573d6000803e3d6000fd5b505050506040513d601f19601f82011682018060405250810190612ab39190614868565b905060005b81811015612b9f576040516356e4026d60e11b815260ff84166004820152602481018290527f00000000000000000000000000000000000000000000000000000000000000006001600160a01b03169063adc804da906044016040805180830381865afa158015612b2d573d6000803e3d6000fd5b505050506040513d601f19601f82011682018060405250810190612b5191906148fd565b60000151858581518110612b6757612b67614819565b6001600160a01b039092166020928302919091019091015283612b89816148cd565b9450508080612b97906148cd565b915050612ab8565b50508080612bac906148cd565b915050612999565b5090949350505050565b612bc6613565565b6001600160a01b038116612c2b5760405162461bcd60e51b815260206004820152602660248201527f4f776e61626c653a206e6577206f776e657220697320746865207a65726f206160448201526564647265737360d01b6064820152608401610683565b610f1e81613929565b6065546001600160a01b03163314612cc95760405162461bcd60e51b815260206004820152604c60248201527f536572766963654d616e61676572426173652e6f6e6c7952657761726473496e60448201527f69746961746f723a2063616c6c6572206973206e6f742074686520726577617260648201526b32399034b734ba34b0ba37b960a11b608482015260a401610683565b60005b81811015612f9d57828282818110612ce657612ce6614819565b9050602002810190612cf89190614be1565b612d099060408101906020016140f5565b6001600160a01b03166323b872dd3330868686818110612d2b57612d2b614819565b9050602002810190612d3d9190614be1565b604080516001600160e01b031960e087901b1681526001600160a01b039485166004820152939092166024840152013560448201526064016020604051808303816000875af1158015612d94573d6000803e3d6000fd5b505050506040513d601f19601f82011682018060405250810190612db89190614c0c565b506000838383818110612dcd57612dcd614819565b9050602002810190612ddf9190614be1565b612df09060408101906020016140f5565b604051636eb1769f60e11b81523060048201526001600160a01b037f000000000000000000000000000000000000000000000000000000000000000081166024830152919091169063dd62ed3e90604401602060405180830381865afa158015612e5e573d6000803e3d6000fd5b505050506040513d601f19601f82011682018060405250810190612e829190614868565b9050838383818110612e9657612e96614819565b9050602002810190612ea89190614be1565b612eb99060408101906020016140f5565b6001600160a01b031663095ea7b37f000000000000000000000000000000000000000000000000000000000000000083878787818110612efb57612efb614819565b9050602002810190612f0d9190614be1565b60400135612f1b91906147e6565b6040516001600160e01b031960e085901b1681526001600160a01b03909216600483015260248201526044016020604051808303816000875af1158015612f66573d6000803e3d6000fd5b505050506040513d601f19601f82011682018060405250810190612f8a9190614c0c565b505080612f96906148cd565b9050612ccc565b5060405163fce36c7d60e01b81526001600160a01b037f0000000000000000000000000000000000000000000000000000000000000000169063fce36c7d9061231d9085908590600401614c84565b600083612ffa86858561397b565b1495945050505050565b6040805180820190915260008082526020820152613020613d2c565b835181526020808501519082015260408082018490526000908360608460076107d05a03fa905080801561305357613055565bfe5b50806130935760405162461bcd60e51b815260206004820152600d60248201526c1958cb5b5d5b0b59985a5b1959609a1b6044820152606401610683565b505092915050565b60408051808201909152600080825260208201526130b7613d4a565b835181526020808501518183015283516040808401919091529084015160608301526000908360808460066107d05a03fa90508080156130535750806130935760405162461bcd60e51b815260206004820152600d60248201526c1958cb5859190b59985a5b1959609a1b6044820152606401610683565b613137613d68565b50604080516080810182527f198e9393920d483a7260bfb731fb5d25f1aa493335a9e71297e485b7aef312c28183019081527f1800deef121f1e76426a00665e5c4479674322d4f75edadd46debd5cd992f6ed6060830152815281518083019092527f275dc4a288d1afb3cbb1ac09187524c7db36395df7be3b99e673b13a075a65ec82527f1d9befcd05a5323e6da4d435f3b617cdb3af83285c2df711ef39c01571827f9d60208381019190915281019190915290565b60408051808201909152600080825260208201526000808061321f600080516020614db48339815191528661482f565b90505b61322b81613a75565b9093509150600080516020614db4833981519152828309831415613265576040805180820190915290815260208101919091529392505050565b600080516020614db4833981519152600182089050613222565b6040805180820182528681526020808201869052825180840190935286835282018490526000918291906132b1613d8d565b60005b60028110156134765760006132ca826006614baf565b90508482600281106132de576132de614819565b602002015151836132f08360006147e6565b600c811061330057613300614819565b602002015284826002811061331757613317614819565b6020020151602001518382600161332e91906147e6565b600c811061333e5761333e614819565b602002015283826002811061335557613355614819565b60200201515151836133688360026147e6565b600c811061337857613378614819565b602002015283826002811061338f5761338f614819565b60200201515160016020020151836133a88360036147e6565b600c81106133b8576133b8614819565b60200201528382600281106133cf576133cf614819565b6020020151602001516000600281106133ea576133ea614819565b6020020151836133fb8360046147e6565b600c811061340b5761340b614819565b602002015283826002811061342257613422614819565b60200201516020015160016002811061343d5761343d614819565b60200201518361344e8360056147e6565b600c811061345e5761345e614819565b6020020152508061346e816148cd565b9150506132b4565b5061347f613dac565b60006020826101808560088cfa9151919c9115159b50909950505050505050505050565b60606000806134b18461377f565b61ffff166001600160401b038111156134cc576134cc613e06565b6040519080825280601f01601f1916602001820160405280156134f6576020820181803683370190505b5090506000805b82518210801561350e575061010081105b15612bb4576001811b935085841615613555578060f81b83838151811061353757613537614819565b60200101906001600160f81b031916908160001a9053508160010191505b61355e816148cd565b90506134fd565b6033546001600160a01b031633146122605760405162461bcd60e51b815260206004820181905260248201527f4f776e61626c653a2063616c6c6572206973206e6f7420746865206f776e65726044820152606401610683565b606554604080516001600160a01b03928316815291831660208301527fe11cddf1816a43318ca175bbc52cd0185436e9cbead7c83acc54a73e461717e3910160405180910390a1606580546001600160a01b0319166001600160a01b0392909216919091179055565b6097805460ff19168215159081179091556040519081527f40e4ed880a29e0f6ddce307457fb75cddf4feef7d3ecb0301bfdf4976a0e2dfc9060200160405180910390a150565b600054610100900460ff166136da5760405162461bcd60e51b815260206004820152602b60248201527f496e697469616c697a61626c653a20636f6e7472616374206973206e6f74206960448201526a6e697469616c697a696e6760a81b6064820152608401610683565b6136e382613929565b610a36816135bf565b6000806136f884613af7565b9050808360ff166001901b116137765760405162461bcd60e51b815260206004820152603f60248201527f4269746d61705574696c732e6f72646572656442797465734172726179546f4260448201527f69746d61703a206269746d61702065786365656473206d61782076616c7565006064820152608401610683565b90505b92915050565b6000805b821561377957613794600184614851565b90921691806137a281614d91565b915050613783565b60408051808201909152600080825260208201526102008261ffff16106138065760405162461bcd60e51b815260206004820152601060248201526f7363616c61722d746f6f2d6c6172676560801b6044820152606401610683565b8161ffff166001141561381a575081613779565b6040805180820190915260008082526020820181905284906001905b8161ffff168661ffff161061388357600161ffff871660ff83161c8116141561386657613863848461309b565b93505b613870838461309b565b92506201fffe600192831b169101613836565b509195945050505050565b604080518082019091526000808252602082015281511580156138b357506020820151155b156138d1575050604080518082019091526000808252602082015290565b604051806040016040528083600001518152602001600080516020614db48339815191528460200151613904919061482f565b61391c90600080516020614db4833981519152614851565b905292915050565b919050565b603380546001600160a01b038381166001600160a01b0319831681179093556040519116919082907f8be0079c531659141344cd1fd0a4f28419497f9722a3daafe3b4186f6b6457e090600090a35050565b60006020845161398b919061482f565b15613a125760405162461bcd60e51b815260206004820152604b60248201527f4d65726b6c652e70726f63657373496e636c7573696f6e50726f6f664b65636360448201527f616b3a2070726f6f66206c656e6774682073686f756c642062652061206d756c60648201526a3a34b836329037b310199960a91b608482015260a401610683565b8260205b85518111610c0a57613a2960028561482f565b613a4a57816000528086015160205260406000209150600284049350613a63565b8086015160005281602052604060002091506002840493505b613a6e6020826147e6565b9050613a16565b60008080600080516020614db48339815191526003600080516020614db483398151915286600080516020614db4833981519152888909090890506000613aeb827f0c19139cb84c680a6e14116da060561765e05aa45a1c72a34f082305b61f3f52600080516020614db4833981519152613c84565b91959194509092505050565b600061010082511115613b805760405162461bcd60e51b8152602060048201526044602482018190527f4269746d61705574696c732e6f72646572656442797465734172726179546f42908201527f69746d61703a206f7264657265644279746573417272617920697320746f6f206064820152636c6f6e6760e01b608482015260a401610683565b8151613b8e57506000919050565b60008083600081518110613ba457613ba4614819565b0160200151600160f89190911c81901b92505b8451811015613c7b57848181518110613bd257613bd2614819565b0160200151600160f89190911c1b9150828211613c675760405162461bcd60e51b815260206004820152604760248201527f4269746d61705574696c732e6f72646572656442797465734172726179546f4260448201527f69746d61703a206f72646572656442797465734172726179206973206e6f74206064820152661bdc99195c995960ca1b608482015260a401610683565b91811791613c74816148cd565b9050613bb7565b50909392505050565b600080613c8f613dac565b613c97613dca565b602080825281810181905260408201819052606082018890526080820187905260a082018690528260c08360056107d05a03fa9250828015613053575082613d215760405162461bcd60e51b815260206004820152601a60248201527f424e3235342e6578704d6f643a2063616c6c206661696c7572650000000000006044820152606401610683565b505195945050505050565b60405180606001604052806003906020820280368337509192915050565b60405180608001604052806004906020820280368337509192915050565b6040518060400160405280613d7b613de8565b8152602001613d88613de8565b905290565b604051806101800160405280600c906020820280368337509192915050565b60405180602001604052806001906020820280368337509192915050565b6040518060c001604052806006906020820280368337509192915050565b60405180604001604052806002906020820280368337509192915050565b634e487b7160e01b600052604160045260246000fd5b604080519081016001600160401b0381118282101715613e3e57613e3e613e06565b60405290565b60405161010081016001600160401b0381118282101715613e3e57613e3e613e06565b604051601f8201601f191681016001600160401b0381118282101715613e8f57613e8f613e06565b604052919050565b60006001600160401b03831115613eb057613eb0613e06565b613ec3601f8401601f1916602001613e67565b9050828152838383011115613ed757600080fd5b828260208301376000602084830101529392505050565b600082601f830112613eff57600080fd5b613f0e83833560208501613e97565b9392505050565b6001600160a01b0381168114610f1e57600080fd5b600080600080600080600080610100898b031215613f4757600080fd5b88359750602089013596506040890135955060608901356001600160601b031981168114613f7457600080fd5b94506080890135935060a08901356001600160401b03811115613f9657600080fd5b613fa28b828c01613eee565b93505060c0890135915060e0890135613fba81613f15565b809150509295985092959890939650565b600060408284031215613fdd57600080fd5b613fe5613e1c565b9050813581526020820135602082015292915050565b600082601f83011261400c57600080fd5b614014613e1c565b80604084018581111561402657600080fd5b845b81811015614040578035845260209384019301614028565b509095945050505050565b60006080828403121561405d57600080fd5b614065613e1c565b90506140718383613ffb565b81526140808360408401613ffb565b602082015292915050565b60008060008061012085870312156140a257600080fd5b843593506140b38660208701613fcb565b92506140c2866060870161404b565b91506140d18660e08701613fcb565b905092959194509250565b6000602082840312156140ee57600080fd5b5035919050565b60006020828403121561410757600080fd5b813561377681613f15565b6020808252825182820181905260009190848201906040850190845b818110156141535783516001600160a01b03168352928401929184019160010161412e565b50909695505050505050565b8015158114610f1e57600080fd5b60006020828403121561417f57600080fd5b81356137768161415f565b6000806040838503121561419d57600080fd5b82356141a881613f15565b915060208301356141b881613f15565b809150509250929050565b803563ffffffff8116811461392457600080fd5b60006001600160401b038211156141f0576141f0613e06565b5060051b60200190565b600082601f83011261420b57600080fd5b8135602061422061421b836141d7565b613e67565b82815260059290921b8401810191818101908684111561423f57600080fd5b8286015b8481101561426157614254816141c3565b8352918301918301614243565b509695505050505050565b600082601f83011261427d57600080fd5b8135602061428d61421b836141d7565b82815260069290921b840181019181810190868411156142ac57600080fd5b8286015b84811015614261576142c28882613fcb565b8352918301916040016142b0565b600082601f8301126142e157600080fd5b813560206142f161421b836141d7565b82815260059290921b8401810191818101908684111561431057600080fd5b8286015b848110156142615780356001600160401b038111156143335760008081fd5b6143418986838b01016141fa565b845250918301918301614314565b6000610180828403121561436257600080fd5b61436a613e44565b905081356001600160401b038082111561438357600080fd5b61438f858386016141fa565b835260208401359150808211156143a557600080fd5b6143b18583860161426c565b602084015260408401359150808211156143ca57600080fd5b6143d68583860161426c565b60408401526143e8856060860161404b565b60608401526143fa8560e08601613fcb565b608084015261012084013591508082111561441457600080fd5b614420858386016141fa565b60a084015261014084013591508082111561443a57600080fd5b614446858386016141fa565b60c084015261016084013591508082111561446057600080fd5b5061446d848285016142d0565b60e08301525092915050565b60008060006060848603121561448e57600080fd5b8335925061449e602085016141c3565b915060408401356001600160401b038111156144b957600080fd5b6144c58682870161434f565b9150509250925092565b600081518084526020808501945080840160005b838110156145085781516001600160601b0316875295820195908201906001016144e3565b509495945050505050565b604081526000835160408084015261452e60808401826144cf565b90506020850151603f1984830301606085015261454b82826144cf565b925050508260208301529392505050565b60008083601f84011261456e57600080fd5b5081356001600160401b0381111561458557600080fd5b60208301915083602082850101111561459d57600080fd5b9250929050565b6000806000604084860312156145b957600080fd5b8335925060208401356001600160401b038111156145d657600080fd5b6145e28682870161455c565b9497909650939450505050565b60008060006040848603121561460457600080fd5b83356001600160401b0381111561461a57600080fd5b6146268682870161455c565b909790965060209590950135949350505050565b6000806040838503121561464d57600080fd5b823561465881613f15565b915060208301356001600160401b038082111561467457600080fd5b908401906060828703121561468857600080fd5b6040516060810181811083821117156146a3576146a3613e06565b6040528235828111156146b557600080fd5b6146c188828601613eee565b82525060208301356020820152604083013560408201528093505050509250929050565b6000806000606084860312156146fa57600080fd5b83359250602084013561449e81613f15565b60006020828403121561471e57600080fd5b81356001600160401b0381111561473457600080fd5b8201601f8101841361474557600080fd5b61475484823560208401613e97565b949350505050565b6000806020838503121561476f57600080fd5b82356001600160401b038082111561478657600080fd5b818501915085601f83011261479a57600080fd5b8135818111156147a957600080fd5b8660208260051b85010111156147be57600080fd5b60209290920196919550909350505050565b634e487b7160e01b600052601160045260246000fd5b600082198211156147f9576147f96147d0565b500190565b91825260601b6001600160601b031916602082015260340190565b634e487b7160e01b600052603260045260246000fd5b60008261484c57634e487b7160e01b600052601260045260246000fd5b500690565b600082821015614863576148636147d0565b500390565b60006020828403121561487a57600080fd5b5051919050565b60006020828403121561489357600080fd5b81516001600160c01b038116811461377657600080fd5b6000602082840312156148bc57600080fd5b815160ff8116811461377657600080fd5b60006000198214156148e1576148e16147d0565b5060010190565b6001600160601b0381168114610f1e57600080fd5b60006040828403121561490f57600080fd5b614917613e1c565b825161492281613f15565b81526020830151614932816148e8565b60208201529392505050565b60006020828403121561495057600080fd5b815161377681613f15565b60006020828403121561496d57600080fd5b815167ffffffffffffffff198116811461377657600080fd5b60006020828403121561499857600080fd5b8151613776816148e8565b60006001600160601b03838116908316818110156149c3576149c36147d0565b039392505050565b63ffffffff60e01b8360e01b1681526000600482018351602080860160005b83811015614a06578151855293820193908201906001016149ea565b5092979650505050505050565b6001600160a01b038516815263ffffffff841660208201526060604082018190528101829052818360808301376000818301608090810191909152601f909201601f191601019392505050565b8183823760009101908152919050565b60208082526052908201527f536572766963654d616e61676572426173652e6f6e6c7952656769737472794360408201527f6f6f7264696e61746f723a2063616c6c6572206973206e6f742074686520726560608201527133b4b9ba393c9031b7b7b93234b730ba37b960711b608082015260a00190565b6000815180845260005b81811015614b0e57602081850181015186830182015201614af2565b81811115614b20576000602083870101525b50601f01601f19169290920160200192915050565b60018060a01b0383168152604060208201526000825160606040840152614b5f60a0840182614ae8565b90506020840151606084015260408401516080840152809150509392505050565b60006001600160601b0380831681851681830481118215151615614ba657614ba66147d0565b02949350505050565b6000816000190483118215151615614bc957614bc96147d0565b500290565b602081526000613f0e6020830184614ae8565b60008235609e19833603018112614bf757600080fd5b9190910192915050565b803561392481613f15565b600060208284031215614c1e57600080fd5b81516137768161415f565b8183526000602080850194508260005b85811015614508578135614c4c81613f15565b6001600160a01b0316875281830135614c64816148e8565b6001600160601b0316878401526040968701969190910190600101614c39565b60208082528181018390526000906040808401600586901b8501820187855b88811015614d8357878303603f190184528135368b9003609e19018112614cc957600080fd5b8a0160a0813536839003601e19018112614ce257600080fd5b820180356001600160401b03811115614cfa57600080fd5b8060061b3603841315614d0c57600080fd5b828752614d1e838801828c8501614c29565b92505050614d2d888301614c01565b6001600160a01b03168886015281870135878601526060614d4f8184016141c3565b63ffffffff16908601526080614d668382016141c3565b63ffffffff16950194909452509285019290850190600101614ca3565b509098975050505050505050565b600061ffff80831681811415614da957614da96147d0565b600101939250505056fe30644e72e131a029b85045b68181585d97816a916871ca8d3c208c16d87cfd470ea46f246ccfc58f7a93aa09bc6245a6818e97b1a160d186afe78993a3b194a0424c535369676e6174757265436865636b65722e636865636b5369676e617475a26469706673582212200fb96b59125efc5c549bfb80b80c31363d891b017d33df821fac39ba6da1264e64736f6c634300080c0033","linkReferences":{}},"methodIdentifiers":{"avsDirectory()":"6b3aa72e","balanceOf(address)":"70a08231","batchesState(bytes32)":"b099627e","blsApkRegistry()":"5df45946","checkPublicInput(bytes,bytes32)":"95c6d604","checkSignatures(bytes32,uint32,(uint32[],(uint256,uint256)[],(uint256,uint256)[],(uint256[2],uint256[2]),(uint256,uint256),uint32[],uint32[],uint32[][]))":"4ae07c37","createAVSRewardsSubmission(((address,uint96)[],address,uint256,uint32,uint32)[])":"fce36c7d","createNewTask(bytes32,string)":"5c008994","delegation()":"df5cf723","depositToBatcher(address)":"4223d551","deregisterOperatorFromAVS(address)":"a364f4da","getOperatorRestakedStrategies(address)":"33cfb7b7","getRestakeableStrategies()":"e481af9d","initialize(address,address)":"485cc955","owner()":"8da5cb5b","registerOperatorToAVS(address,(bytes,bytes32,uint256))":"9926ee7d","registryCoordinator()":"6d14a987","renounceOwnership()":"715018a6","respondToTask(bytes32,address,(uint32[],(uint256,uint256)[],(uint256,uint256)[],(uint256[2],uint256[2]),(uint256,uint256),uint32[],uint32[],uint32[][]))":"a5a3fab1","rewardsInitiator()":"fc299dee","setRewardsInitiator(address)":"3bc28c8c","setStaleStakesForbidden(bool)":"416c7e5e","stakeRegistry()":"68304835","staleStakesForbidden()":"b98d0908","transferOwnership(address)":"f2fde38b","trySignatureAndApkVerification(bytes32,(uint256,uint256),(uint256[2],uint256[2]),(uint256,uint256))":"171f1d5b","updateAVSMetadataURI(string)":"a98fb355","verifyBatchInclusion(bytes32,bytes32,bytes32,bytes20,bytes32,bytes,uint256,address)":"06045a91","withdraw(uint256)":"2e1a7d4d"},"id":122}