{"abi":[{"type":"constructor","inputs":[{"name":"__avsDirectory","type":"address","internalType":"contract IAVSDirectory"},{"name":"__rewardsCoordinator","type":"address","internalType":"contract IRewardsCoordinator"},{"name":"__registryCoordinator","type":"address","internalType":"contract IRegistryCoordinator"},{"name":"__stakeRegistry","type":"address","internalType":"contract IStakeRegistry"}],"stateMutability":"nonpayable"},{"type":"receive","stateMutability":"payable"},{"type":"function","name":"alignedAggregator","inputs":[],"outputs":[{"name":"","type":"address","internalType":"address"}],"stateMutability":"view"},{"type":"function","name":"avsDirectory","inputs":[],"outputs":[{"name":"","type":"address","internalType":"address"}],"stateMutability":"view"},{"type":"function","name":"balanceOf","inputs":[{"name":"account","type":"address","internalType":"address"}],"outputs":[{"name":"","type":"uint256","internalType":"uint256"}],"stateMutability":"view"},{"type":"function","name":"batchersBalances","inputs":[{"name":"","type":"address","internalType":"address"}],"outputs":[{"name":"","type":"uint256","internalType":"uint256"}],"stateMutability":"view"},{"type":"function","name":"batchesState","inputs":[{"name":"","type":"bytes32","internalType":"bytes32"}],"outputs":[{"name":"taskCreatedBlock","type":"uint32","internalType":"uint32"},{"name":"responded","type":"bool","internalType":"bool"},{"name":"respondToTaskFeeLimit","type":"uint256","internalType":"uint256"}],"stateMutability":"view"},{"type":"function","name":"blacklistVerifier","inputs":[{"name":"verifierIdx","type":"uint256","internalType":"uint256"}],"outputs":[],"stateMutability":"nonpayable"},{"type":"function","name":"blacklistedVerifiers","inputs":[],"outputs":[{"name":"","type":"uint256","internalType":"uint256"}],"stateMutability":"view"},{"type":"function","name":"blsApkRegistry","inputs":[],"outputs":[{"name":"","type":"address","internalType":"contract IBLSApkRegistry"}],"stateMutability":"view"},{"type":"function","name":"checkPublicInput","inputs":[{"name":"publicInput","type":"bytes","internalType":"bytes"},{"name":"hash","type":"bytes32","internalType":"bytes32"}],"outputs":[{"name":"","type":"bool","internalType":"bool"}],"stateMutability":"pure"},{"type":"function","name":"checkSignatures","inputs":[{"name":"msgHash","type":"bytes32","internalType":"bytes32"},{"name":"referenceBlockNumber","type":"uint32","internalType":"uint32"},{"name":"params","type":"tuple","internalType":"struct IBLSSignatureChecker.NonSignerStakesAndSignature","components":[{"name":"nonSignerQuorumBitmapIndices","type":"uint32[]","internalType":"uint32[]"},{"name":"nonSignerPubkeys","type":"tuple[]","internalType":"struct BN254.G1Point[]","components":[{"name":"X","type":"uint256","internalType":"uint256"},{"name":"Y","type":"uint256","internalType":"uint256"}]},{"name":"quorumApks","type":"tuple[]","internalType":"struct BN254.G1Point[]","components":[{"name":"X","type":"uint256","internalType":"uint256"},{"name":"Y","type":"uint256","internalType":"uint256"}]},{"name":"apkG2","type":"tuple","internalType":"struct BN254.G2Point","components":[{"name":"X","type":"uint256[2]","internalType":"uint256[2]"},{"name":"Y","type":"uint256[2]","internalType":"uint256[2]"}]},{"name":"sigma","type":"tuple","internalType":"struct BN254.G1Point","components":[{"name":"X","type":"uint256","internalType":"uint256"},{"name":"Y","type":"uint256","internalType":"uint256"}]},{"name":"quorumApkIndices","type":"uint32[]","internalType":"uint32[]"},{"name":"totalStakeIndices","type":"uint32[]","internalType":"uint32[]"},{"name":"nonSignerStakeIndices","type":"uint32[][]","internalType":"uint32[][]"}]}],"outputs":[{"name":"","type":"tuple","internalType":"struct IBLSSignatureChecker.QuorumStakeTotals","components":[{"name":"signedStakeForQuorum","type":"uint96[]","internalType":"uint96[]"},{"name":"totalStakeForQuorum","type":"uint96[]","internalType":"uint96[]"}]},{"name":"","type":"bytes32","internalType":"bytes32"}],"stateMutability":"view"},{"type":"function","name":"createAVSRewardsSubmission","inputs":[{"name":"rewardsSubmissions","type":"tuple[]","internalType":"struct IRewardsCoordinator.RewardsSubmission[]","components":[{"name":"strategiesAndMultipliers","type":"tuple[]","internalType":"struct IRewardsCoordinator.StrategyAndMultiplier[]","components":[{"name":"strategy","type":"address","internalType":"contract IStrategy"},{"name":"multiplier","type":"uint96","internalType":"uint96"}]},{"name":"token","type":"address","internalType":"contract IERC20"},{"name":"amount","type":"uint256","internalType":"uint256"},{"name":"startTimestamp","type":"uint32","internalType":"uint32"},{"name":"duration","type":"uint32","internalType":"uint32"}]}],"outputs":[],"stateMutability":"nonpayable"},{"type":"function","name":"createNewTask","inputs":[{"name":"batchMerkleRoot","type":"bytes32","internalType":"bytes32"},{"name":"batchDataPointer","type":"string","internalType":"string"},{"name":"respondToTaskFeeLimit","type":"uint256","internalType":"uint256"}],"outputs":[],"stateMutability":"payable"},{"type":"function","name":"delegation","inputs":[],"outputs":[{"name":"","type":"address","internalType":"contract IDelegationManager"}],"stateMutability":"view"},{"type":"function","name":"depositToBatcher","inputs":[{"name":"account","type":"address","internalType":"address"}],"outputs":[],"stateMutability":"payable"},{"type":"function","name":"deregisterOperatorFromAVS","inputs":[{"name":"operator","type":"address","internalType":"address"}],"outputs":[],"stateMutability":"nonpayable"},{"type":"function","name":"getOperatorRestakedStrategies","inputs":[{"name":"operator","type":"address","internalType":"address"}],"outputs":[{"name":"","type":"address[]","internalType":"address[]"}],"stateMutability":"view"},{"type":"function","name":"getRestakeableStrategies","inputs":[],"outputs":[{"name":"","type":"address[]","internalType":"address[]"}],"stateMutability":"view"},{"type":"function","name":"initialize","inputs":[{"name":"_initialOwner","type":"address","internalType":"address"},{"name":"_rewardsInitiator","type":"address","internalType":"address"},{"name":"_alignedAggregator","type":"address","internalType":"address"}],"outputs":[],"stateMutability":"nonpayable"},{"type":"function","name":"initializeAggregator","inputs":[{"name":"_alignedAggregator","type":"address","internalType":"address"}],"outputs":[],"stateMutability":"nonpayable"},{"type":"function","name":"isVerifierBlacklisted","inputs":[{"name":"verifierIdx","type":"uint256","internalType":"uint256"}],"outputs":[{"name":"","type":"bool","internalType":"bool"}],"stateMutability":"view"},{"type":"function","name":"owner","inputs":[],"outputs":[{"name":"","type":"address","internalType":"address"}],"stateMutability":"view"},{"type":"function","name":"registerOperatorToAVS","inputs":[{"name":"operator","type":"address","internalType":"address"},{"name":"operatorSignature","type":"tuple","internalType":"struct ISignatureUtils.SignatureWithSaltAndExpiry","components":[{"name":"signature","type":"bytes","internalType":"bytes"},{"name":"salt","type":"bytes32","internalType":"bytes32"},{"name":"expiry","type":"uint256","internalType":"uint256"}]}],"outputs":[],"stateMutability":"nonpayable"},{"type":"function","name":"registryCoordinator","inputs":[],"outputs":[{"name":"","type":"address","internalType":"contract IRegistryCoordinator"}],"stateMutability":"view"},{"type":"function","name":"renounceOwnership","inputs":[],"outputs":[],"stateMutability":"nonpayable"},{"type":"function","name":"respondToTaskV2","inputs":[{"name":"batchMerkleRoot","type":"bytes32","internalType":"bytes32"},{"name":"senderAddress","type":"address","internalType":"address"},{"name":"nonSignerStakesAndSignature","type":"tuple","internalType":"struct IBLSSignatureChecker.NonSignerStakesAndSignature","components":[{"name":"nonSignerQuorumBitmapIndices","type":"uint32[]","internalType":"uint32[]"},{"name":"nonSignerPubkeys","type":"tuple[]","internalType":"struct BN254.G1Point[]","components":[{"name":"X","type":"uint256","internalType":"uint256"},{"name":"Y","type":"uint256","internalType":"uint256"}]},{"name":"quorumApks","type":"tuple[]","internalType":"struct BN254.G1Point[]","components":[{"name":"X","type":"uint256","internalType":"uint256"},{"name":"Y","type":"uint256","internalType":"uint256"}]},{"name":"apkG2","type":"tuple","internalType":"struct BN254.G2Point","components":[{"name":"X","type":"uint256[2]","internalType":"uint256[2]"},{"name":"Y","type":"uint256[2]","internalType":"uint256[2]"}]},{"name":"sigma","type":"tuple","internalType":"struct BN254.G1Point","components":[{"name":"X","type":"uint256","internalType":"uint256"},{"name":"Y","type":"uint256","internalType":"uint256"}]},{"name":"quorumApkIndices","type":"uint32[]","internalType":"uint32[]"},{"name":"totalStakeIndices","type":"uint32[]","internalType":"uint32[]"},{"name":"nonSignerStakeIndices","type":"uint32[][]","internalType":"uint32[][]"}]}],"outputs":[],"stateMutability":"nonpayable"},{"type":"function","name":"rewardsInitiator","inputs":[],"outputs":[{"name":"","type":"address","internalType":"address"}],"stateMutability":"view"},{"type":"function","name":"setAggregator","inputs":[{"name":"_alignedAggregator","type":"address","internalType":"address"}],"outputs":[],"stateMutability":"nonpayable"},{"type":"function","name":"setRewardsInitiator","inputs":[{"name":"newRewardsInitiator","type":"address","internalType":"address"}],"outputs":[],"stateMutability":"nonpayable"},{"type":"function","name":"setStaleStakesForbidden","inputs":[{"name":"value","type":"bool","internalType":"bool"}],"outputs":[],"stateMutability":"nonpayable"},{"type":"function","name":"setVerifiersBlacklist","inputs":[{"name":"bitmap","type":"uint256","internalType":"uint256"}],"outputs":[],"stateMutability":"nonpayable"},{"type":"function","name":"stakeRegistry","inputs":[],"outputs":[{"name":"","type":"address","internalType":"contract IStakeRegistry"}],"stateMutability":"view"},{"type":"function","name":"staleStakesForbidden","inputs":[],"outputs":[{"name":"","type":"bool","internalType":"bool"}],"stateMutability":"view"},{"type":"function","name":"transferOwnership","inputs":[{"name":"newOwner","type":"address","internalType":"address"}],"outputs":[],"stateMutability":"nonpayable"},{"type":"function","name":"trySignatureAndApkVerification","inputs":[{"name":"msgHash","type":"bytes32","internalType":"bytes32"},{"name":"apk","type":"tuple","internalType":"struct BN254.G1Point","components":[{"name":"X","type":"uint256","internalType":"uint256"},{"name":"Y","type":"uint256","internalType":"uint256"}]},{"name":"apkG2","type":"tuple","internalType":"struct BN254.G2Point","components":[{"name":"X","type":"uint256[2]","internalType":"uint256[2]"},{"name":"Y","type":"uint256[2]","internalType":"uint256[2]"}]},{"name":"sigma","type":"tuple","internalType":"struct BN254.G1Point","components":[{"name":"X","type":"uint256","internalType":"uint256"},{"name":"Y","type":"uint256","internalType":"uint256"}]}],"outputs":[{"name":"pairingSuccessful","type":"bool","internalType":"bool"},{"name":"siganatureIsValid","type":"bool","internalType":"bool"}],"stateMutability":"view"},{"type":"function","name":"updateAVSMetadataURI","inputs":[{"name":"_metadataURI","type":"string","internalType":"string"}],"outputs":[],"stateMutability":"nonpayable"},{"type":"function","name":"verifyBatchInclusion","inputs":[{"name":"proofCommitment","type":"bytes32","internalType":"bytes32"},{"name":"pubInputCommitment","type":"bytes32","internalType":"bytes32"},{"name":"provingSystemAuxDataCommitment","type":"bytes32","internalType":"bytes32"},{"name":"proofGeneratorAddr","type":"bytes20","internalType":"bytes20"},{"name":"batchMerkleRoot","type":"bytes32","internalType":"bytes32"},{"name":"merkleProof","type":"bytes","internalType":"bytes"},{"name":"verificationDataBatchIndex","type":"uint256","internalType":"uint256"},{"name":"senderAddress","type":"address","internalType":"address"}],"outputs":[{"name":"","type":"bool","internalType":"bool"}],"stateMutability":"view"},{"type":"function","name":"verifyBatchInclusion","inputs":[{"name":"proofCommitment","type":"bytes32","internalType":"bytes32"},{"name":"pubInputCommitment","type":"bytes32","internalType":"bytes32"},{"name":"provingSystemAuxDataCommitment","type":"bytes32","internalType":"bytes32"},{"name":"proofGeneratorAddr","type":"bytes20","internalType":"bytes20"},{"name":"batchMerkleRoot","type":"bytes32","internalType":"bytes32"},{"name":"merkleProof","type":"bytes","internalType":"bytes"},{"name":"verificationDataBatchIndex","type":"uint256","internalType":"uint256"}],"outputs":[{"name":"","type":"bool","internalType":"bool"}],"stateMutability":"view"},{"type":"function","name":"whitelistVerifier","inputs":[{"name":"verifierIdx","type":"uint256","internalType":"uint256"}],"outputs":[],"stateMutability":"nonpayable"},{"type":"function","name":"withdraw","inputs":[{"name":"amount","type":"uint256","internalType":"uint256"}],"outputs":[],"stateMutability":"nonpayable"},{"type":"event","name":"BatchVerified","inputs":[{"name":"batchMerkleRoot","type":"bytes32","indexed":true,"internalType":"bytes32"},{"name":"senderAddress","type":"address","indexed":false,"internalType":"address"}],"anonymous":false},{"type":"event","name":"BatcherBalanceUpdated","inputs":[{"name":"batcher","type":"address","indexed":true,"internalType":"address"},{"name":"newBalance","type":"uint256","indexed":false,"internalType":"uint256"}],"anonymous":false},{"type":"event","name":"Initialized","inputs":[{"name":"version","type":"uint8","indexed":false,"internalType":"uint8"}],"anonymous":false},{"type":"event","name":"NewBatchV2","inputs":[{"name":"batchMerkleRoot","type":"bytes32","indexed":true,"internalType":"bytes32"},{"name":"senderAddress","type":"address","indexed":false,"internalType":"address"},{"name":"taskCreatedBlock","type":"uint32","indexed":false,"internalType":"uint32"},{"name":"batchDataPointer","type":"string","indexed":false,"internalType":"string"}],"anonymous":false},{"type":"event","name":"NewBatchV3","inputs":[{"name":"batchMerkleRoot","type":"bytes32","indexed":true,"internalType":"bytes32"},{"name":"senderAddress","type":"address","indexed":false,"internalType":"address"},{"name":"taskCreatedBlock","type":"uint32","indexed":false,"internalType":"uint32"},{"name":"batchDataPointer","type":"string","indexed":false,"internalType":"string"},{"name":"respondToTaskFeeLimit","type":"uint256","indexed":false,"internalType":"uint256"}],"anonymous":false},{"type":"event","name":"OwnershipTransferred","inputs":[{"name":"previousOwner","type":"address","indexed":true,"internalType":"address"},{"name":"newOwner","type":"address","indexed":true,"internalType":"address"}],"anonymous":false},{"type":"event","name":"RewardsInitiatorUpdated","inputs":[{"name":"prevRewardsInitiator","type":"address","indexed":false,"internalType":"address"},{"name":"newRewardsInitiator","type":"address","indexed":false,"internalType":"address"}],"anonymous":false},{"type":"event","name":"StaleStakesForbiddenUpdate","inputs":[{"name":"value","type":"bool","indexed":false,"internalType":"bool"}],"anonymous":false},{"type":"event","name":"VerifierBlacklisted","inputs":[{"name":"verifierIdx","type":"uint256","indexed":true,"internalType":"uint256"}],"anonymous":false},{"type":"event","name":"VerifierWhitelisted","inputs":[{"name":"verifierIdx","type":"uint256","indexed":true,"internalType":"uint256"}],"anonymous":false},{"type":"error","name":"BatchAlreadyResponded","inputs":[{"name":"batchIdentifierHash","type":"bytes32","internalType":"bytes32"}]},{"type":"error","name":"BatchAlreadySubmitted","inputs":[{"name":"batchIdentifierHash","type":"bytes32","internalType":"bytes32"}]},{"type":"error","name":"BatchDoesNotExist","inputs":[{"name":"batchIdentifierHash","type":"bytes32","internalType":"bytes32"}]},{"type":"error","name":"ExceededMaxRespondFee","inputs":[{"name":"respondToTaskFeeLimit","type":"uint256","internalType":"uint256"},{"name":"txCost","type":"uint256","internalType":"uint256"}]},{"type":"error","name":"InsufficientFunds","inputs":[{"name":"batcher","type":"address","internalType":"address"},{"name":"required","type":"uint256","internalType":"uint256"},{"name":"available","type":"uint256","internalType":"uint256"}]},{"type":"error","name":"InvalidAddress","inputs":[{"name":"param","type":"string","internalType":"string"}]},{"type":"error","name":"InvalidDepositAmount","inputs":[{"name":"amount","type":"uint256","internalType":"uint256"}]},{"type":"error","name":"InvalidQuorumThreshold","inputs":[{"name":"signedStake","type":"uint256","internalType":"uint256"},{"name":"requiredStake","type":"uint256","internalType":"uint256"}]},{"type":"error","name":"SenderIsNotAggregator","inputs":[{"name":"sender","type":"address","internalType":"address"},{"name":"alignedAggregator","type":"address","internalType":"address"}]},{"type":"error","name":"VerifierIdxOutOfBounds","inputs":[]}],"bytecode":{"object":"0x61018060405234801561001157600080fd5b50604051615a0b380380615a0b833981016040819052610030916103fb565b6001600160a01b0380851660805280841660a05280831660c052811660e052818484828461005c610327565b50505050806001600160a01b0316610100816001600160a01b031681525050806001600160a01b031663683048356040518163ffffffff1660e01b8152600401602060405180830381865afa1580156100b9573d6000803e3d6000fd5b505050506040513d601f19601f820116820180604052508101906100dd919061045a565b6001600160a01b0316610120816001600160a01b031681525050806001600160a01b0316635df459466040518163ffffffff1660e01b8152600401602060405180830381865afa158015610135573d6000803e3d6000fd5b505050506040513d601f19601f82011682018060405250810190610159919061045a565b6001600160a01b0316610140816001600160a01b031681525050610120516001600160a01b031663df5cf7236040518163ffffffff1660e01b8152600401602060405180830381865afa1580156101b4573d6000803e3d6000fd5b505050506040513d601f19601f820116820180604052508101906101d8919061045a565b6001600160a01b03908116610160528516905061022c57604051630b0f5aa160e11b815260206004820152600c60248201526b6176734469726563746f727960a01b60448201526064015b60405180910390fd5b6001600160a01b03831661027857604051630b0f5aa160e11b81526020600482015260126024820152713932bbb0b93239a1b7b7b93234b730ba37b960711b6044820152606401610223565b6001600160a01b0382166102cf57604051630b0f5aa160e11b815260206004820152601360248201527f7265676973747279436f6f7264696e61746f72000000000000000000000000006044820152606401610223565b6001600160a01b03811661031657604051630b0f5aa160e11b815260206004820152600d60248201526c7374616b65526567697374727960981b6044820152606401610223565b61031e610327565b5050505061047e565b600054610100900460ff161561038f5760405162461bcd60e51b815260206004820152602760248201527f496e697469616c697a61626c653a20636f6e747261637420697320696e697469604482015266616c697a696e6760c81b6064820152608401610223565b60005460ff90811610156103e1576000805460ff191660ff9081179091556040519081527f7f26b83ff96e1f2b6a682f133852f6798a09c465da95921460cefb38474024989060200160405180910390a15b565b6001600160a01b03811681146103f857600080fd5b50565b6000806000806080858703121561041157600080fd5b845161041c816103e3565b602086015190945061042d816103e3565b604086015190935061043e816103e3565b606086015190925061044f816103e3565b939692955090935050565b60006020828403121561046c57600080fd5b8151610477816103e3565b9392505050565b60805160a05160c05160e0516101005161012051610140516101605161548061058b60003960008181610721015261190e0152600081816103ee0152611b2101526000818161042201528181611d0e0152611efe01526000818161048901528181611140015281816115d40152818161177b01526119c2015260008181610e7501528181610fc60152818161105d01528181612d2201528181612e9b0152612f3a015260008181610c9c01528181610d2b01528181610dab015281816122fc015281816123c801528181612c5d0152612df60152600081816132f1015281816133ad0152613490015260008181610453015281816123500152818161242401526124d701526154806000f3fe6080604052600436106102345760003560e01c806395c6d6041161012e578063d66eaabd116100ab578063f474b5201161006f578063f474b52014610778578063f9120af6146107a5578063fa534dc0146107c5578063fc299dee146107e5578063fce36c7d1461080557600080fd5b8063d66eaabd146106dc578063db45b1bf146106ef578063df5cf7231461070f578063e481af9d14610743578063f2fde38b1461075857600080fd5b8063ab21739a116100f2578063ab21739a14610602578063b099627e14610622578063b98d09081461068c578063bd11c55a146106a6578063c0c53b8b146106bc57600080fd5b806395c6d604146105625780639926ee7d14610582578063a364f4da146105a2578063a3a37ff9146105c2578063a98fb355146105e257600080fd5b80634ae07c37116101bc57806370a082311161018057806370a08231146104ab578063715018a6146104ef578063800fb61f1461050457806381fc7e94146105245780638da5cb5b1461054457600080fd5b80634ae07c37146103ae5780635df45946146103dc57806368304835146104105780636b3aa72e146104445780636d14a9871461047757600080fd5b806333cfb7b71161020357806333cfb7b7146102f65780633bc28c8c14610323578063416c7e5e146103435780634223d551146103635780634a5bf6321461037657600080fd5b806306045a911461024a5780630cb447631461027f578063171f1d5b1461029f5780632e1a7d4d146102d657600080fd5b36610245576102433334610825565b005b600080fd5b34801561025657600080fd5b5061026a61026536600461440f565b6108ba565b60405190151581526020015b60405180910390f35b34801561028b57600080fd5b5061024361029a3660046144a1565b6109b1565b3480156102ab57600080fd5b506102bf6102ba36600461457b565b610a15565b604080519215158352901515602083015201610276565b3480156102e257600080fd5b506102436102f13660046144a1565b610b9f565b34801561030257600080fd5b506103166103113660046145cc565b610c77565b60405161027691906145e9565b34801561032f57600080fd5b5061024361033e3660046145cc565b61112a565b34801561034f57600080fd5b5061024361035e366004614638565b61113e565b6102436103713660046145cc565b611275565b34801561038257600080fd5b5060cc54610396906001600160a01b031681565b6040516001600160a01b039091168152602001610276565b3480156103ba57600080fd5b506103ce6103c9366004614930565b61127f565b6040516102769291906149cb565b3480156103e857600080fd5b506103967f000000000000000000000000000000000000000000000000000000000000000081565b34801561041c57600080fd5b506103967f000000000000000000000000000000000000000000000000000000000000000081565b34801561045057600080fd5b507f0000000000000000000000000000000000000000000000000000000000000000610396565b34801561048357600080fd5b506103967f000000000000000000000000000000000000000000000000000000000000000081565b3480156104b757600080fd5b506104e16104c63660046145cc565b6001600160a01b0316600090815260cb602052604090205490565b604051908152602001610276565b3480156104fb57600080fd5b506102436121b3565b34801561051057600080fd5b5061024361051f3660046145cc565b6121c7565b34801561053057600080fd5b5061024361053f3660046144a1565b612267565b34801561055057600080fd5b506033546001600160a01b0316610396565b34801561056e57600080fd5b5061026a61057d366004614a5c565b6122cc565b34801561058e57600080fd5b5061024361059d366004614aa7565b6122f1565b3480156105ae57600080fd5b506102436105bd3660046145cc565b6123bd565b3480156105ce57600080fd5b5061026a6105dd3660046144a1565b612484565b3480156105ee57600080fd5b506102436105fd366004614b5e565b6124b8565b34801561060e57600080fd5b5061024361061d366004614bae565b61250c565b34801561062e57600080fd5b5061066a61063d3660046144a1565b60c9602052600090815260409020805460019091015463ffffffff821691640100000000900460ff169083565b6040805163ffffffff9094168452911515602084015290820152606001610276565b34801561069857600080fd5b5060975461026a9060ff1681565b3480156106b257600080fd5b506104e160ca5481565b3480156106c857600080fd5b506102436106d7366004614bd5565b6128cb565b6102436106ea366004614c20565b612a90565b3480156106fb57600080fd5b5061024361070a3660046144a1565b612c4a565b34801561071b57600080fd5b506103967f000000000000000000000000000000000000000000000000000000000000000081565b34801561074f57600080fd5b50610316612c57565b34801561076457600080fd5b506102436107733660046145cc565b613003565b34801561078457600080fd5b506104e16107933660046145cc565b60cb6020526000908152604090205481565b3480156107b157600080fd5b506102436107c03660046145cc565b613079565b3480156107d157600080fd5b5061026a6107e0366004614c72565b6130a3565b3480156107f157600080fd5b50606554610396906001600160a01b031681565b34801561081157600080fd5b50610243610820366004614cf2565b613118565b8060000361084e57604051632097692160e11b8152600481018290526024015b60405180910390fd5b6001600160a01b038216600090815260cb602052604081208054839290610876908490614d7d565b90915550506001600160a01b038216600081815260cb602090815260409182902054915191825260008051602061540b833981519152910160405180910390a25050565b6000806001600160a01b0383166108d25750846108fe565b85836040516020016108e5929190614d90565b6040516020818303038152906040528051906020012090505b600081815260c9602052604081205463ffffffff1690036109235760009150506109a5565b600081815260c96020526040902054640100000000900460ff1661094b5760009150506109a5565b60408051602081018c90529081018a9052606081018990526001600160601b03198816608082015260009060940160408051601f198184030181529190528051602082012090915061099f878983896134c7565b93505050505b98975050505050505050565b80604081106109d35760405163044b147760e11b815260040160405180910390fd5b6109db6134df565b60ca80546001841b17905560405182907f1a64b4fd79811233a75bc33765b44fb3db08c6d41b727be66b1911bf0e6499e990600090a25050565b60008060007f30644e72e131a029b85045b68181585d2833e84879b9709143e1f593f000000187876000015188602001518860000151600060028110610a5d57610a5d614dab565b60200201518951600160200201518a60200151600060028110610a8257610a82614dab565b60200201518b60200151600160028110610a9e57610a9e614dab565b602090810291909101518c518d830151604051610afb9a99989796959401988952602089019790975260408801959095526060870193909352608086019190915260a085015260c084015260e08301526101008201526101200190565b6040516020818303038152906040528051906020012060001c610b1e9190614dc1565b9050610b91610b37610b308884613539565b86906135ca565b610b3f61365f565b610b87610b7885610b72604080518082018252600080825260209182015281518083019092526001825260029082015290565b90613539565b610b818c61371f565b906135ca565b886201d4c06137ae565b909890975095505050505050565b33600090815260cb6020526040902054811115610bf05733600081815260cb602052604090819020549051632e2a182f60e11b81526004810192909252602482018390526044820152606401610845565b33600090815260cb602052604081208054839290610c0f908490614de3565b909155505033600081815260cb602090815260409182902054915191825260008051602061540b833981519152910160405180910390a2604051339082156108fc029083906000818181858888f19350505050158015610c73573d6000803e3d6000fd5b5050565b6040516309aa152760e11b81526001600160a01b0382811660048301526060916000917f000000000000000000000000000000000000000000000000000000000000000016906313542a4e90602401602060405180830381865afa158015610ce3573d6000803e3d6000fd5b505050506040513d601f19601f82011682018060405250810190610d079190614df6565b60405163871ef04960e01b8152600481018290529091506000906001600160a01b037f0000000000000000000000000000000000000000000000000000000000000000169063871ef04990602401602060405180830381865afa158015610d72573d6000803e3d6000fd5b505050506040513d601f19601f82011682018060405250810190610d969190614e0f565b90506001600160c01b0381161580610e3057507f00000000000000000000000000000000000000000000000000000000000000006001600160a01b0316639aa1653d6040518163ffffffff1660e01b8152600401602060405180830381865afa158015610e07573d6000803e3d6000fd5b505050506040513d601f19601f82011682018060405250810190610e2b9190614e38565b60ff16155b15610e505760408051600080825260208201909252905b50949350505050565b6000610e64826001600160c01b03166139c8565b90506000805b8251811015610f30577f00000000000000000000000000000000000000000000000000000000000000006001600160a01b0316633ca5a5f5848381518110610eb457610eb4614dab565b01602001516040516001600160e01b031960e084901b16815260f89190911c6004820152602401602060405180830381865afa158015610ef8573d6000803e3d6000fd5b505050506040513d601f19601f82011682018060405250810190610f1c9190614df6565b610f269083614d7d565b9150600101610e6a565b506000816001600160401b03811115610f4b57610f4b6142e7565b604051908082528060200260200182016040528015610f74578160200160208202803683370190505b5090506000805b845181101561111d576000858281518110610f9857610f98614dab565b0160200151604051633ca5a5f560e01b815260f89190911c6004820181905291506000906001600160a01b037f00000000000000000000000000000000000000000000000000000000000000001690633ca5a5f590602401602060405180830381865afa15801561100d573d6000803e3d6000fd5b505050506040513d601f19601f820116820180604052508101906110319190614df6565b905060005b81811015611112576040516356e4026d60e11b815260ff84166004820152602481018290527f00000000000000000000000000000000000000000000000000000000000000006001600160a01b03169063adc804da906044016040805180830381865afa1580156110ab573d6000803e3d6000fd5b505050506040513d601f19601f820116820180604052508101906110cf9190614e70565b600001518686815181106110e5576110e5614dab565b6001600160a01b03909216602092830291909101909101528461110781614eb3565b955050600101611036565b505050600101610f7b565b5090979650505050505050565b6111326134df565b61113b81613a8a565b50565b7f00000000000000000000000000000000000000000000000000000000000000006001600160a01b0316638da5cb5b6040518163ffffffff1660e01b8152600401602060405180830381865afa15801561119c573d6000803e3d6000fd5b505050506040513d601f19601f820116820180604052508101906111c09190614ecc565b6001600160a01b0316336001600160a01b03161461126c5760405162461bcd60e51b815260206004820152605c60248201527f424c535369676e6174757265436865636b65722e6f6e6c79436f6f7264696e6160448201527f746f724f776e65723a2063616c6c6572206973206e6f7420746865206f776e6560648201527f72206f6620746865207265676973747279436f6f7264696e61746f7200000000608482015260a401610845565b61113b81613af3565b61113b8134610825565b604080518082019091526060808252602082015260008260400151516040518060400160405280600181526020016000815250511480156112db57508260a0015151604051806040016040528060018152602001600081525051145b801561130257508260c0015151604051806040016040528060018152602001600081525051145b801561132957508260e0015151604051806040016040528060018152602001600081525051145b6113935760405162461bcd60e51b8152602060048201526041602482015260008051602061542b83398151915260448201527f7265733a20696e7075742071756f72756d206c656e677468206d69736d6174636064820152600d60fb1b608482015260a401610845565b8251516020840151511461140b5760405162461bcd60e51b81526020600482015260446024820181905260008051602061542b833981519152908201527f7265733a20696e707574206e6f6e7369676e6572206c656e677468206d69736d6064820152630c2e8c6d60e31b608482015260a401610845565b4363ffffffff168463ffffffff161061147a5760405162461bcd60e51b815260206004820152603c602482015260008051602061542b83398151915260448201527f7265733a20696e76616c6964207265666572656e636520626c6f636b000000006064820152608401610845565b60408051808201825260008082526020808301829052835180850185526060808252818301528451808601865260018082529083019390935284518381528086019095529293919082810190803683370190505060208281019190915260408051808201825260018082526000919093015280518281528082019091529081602001602082028036833701905050815260408051808201909152606080825260208201528560200151516001600160401b0381111561153b5761153b6142e7565b604051908082528060200260200182016040528015611564578160200160208202803683370190505b5081526020860151516001600160401b03811115611584576115846142e7565b6040519080825280602002602001820160405280156115ad578160200160208202803683370190505b508160200181905250600061165960405180604001604052806001815260200160008152507f00000000000000000000000000000000000000000000000000000000000000006001600160a01b0316639aa1653d6040518163ffffffff1660e01b8152600401602060405180830381865afa158015611630573d6000803e3d6000fd5b505050506040513d601f19601f820116820180604052508101906116549190614e38565b613b3a565b905060005b8760200151518110156118ea576116a38860200151828151811061168457611684614dab565b6020026020010151805160009081526020918201519091526040902090565b836020015182815181106116b9576116b9614dab565b602090810291909101015280156117795760208301516116da600183614de3565b815181106116ea576116ea614dab565b602002602001015160001c8360200151828151811061170b5761170b614dab565b602002602001015160001c11611779576040805162461bcd60e51b815260206004820152602481019190915260008051602061542b83398151915260448201527f7265733a206e6f6e5369676e65725075626b657973206e6f7420736f727465646064820152608401610845565b7f00000000000000000000000000000000000000000000000000000000000000006001600160a01b03166304ec6351846020015183815181106117be576117be614dab565b60200260200101518b8b6000015185815181106117dd576117dd614dab565b60200260200101516040518463ffffffff1660e01b815260040161181a9392919092835263ffffffff918216602084015216604082015260600190565b602060405180830381865afa158015611837573d6000803e3d6000fd5b505050506040513d601f19601f8201168201806040525081019061185b9190614e0f565b6001600160c01b03168360000151828151811061187a5761187a614dab565b6020026020010181815250506118e0610b306118b484866000015185815181106118a6576118a6614dab565b602002602001015116613bcd565b8a6020015184815181106118ca576118ca614dab565b6020026020010151613bf890919063ffffffff16565b945060010161165e565b50506118f583613cdb565b60975490935060ff1660008161190c57600061198e565b7f00000000000000000000000000000000000000000000000000000000000000006001600160a01b031663c448feb86040518163ffffffff1660e01b8152600401602060405180830381865afa15801561196a573d6000803e3d6000fd5b505050506040513d601f19601f8201168201806040525081019061198e9190614df6565b905060005b604051806040016040528060018152602001600081525051811015612084578215611b1f578963ffffffff16827f00000000000000000000000000000000000000000000000000000000000000006001600160a01b031663249a0c4260405180604001604052806001815260200160008152508581518110611a1757611a17614dab565b01602001516040516001600160e01b031960e084901b16815260f89190911c6004820152602401602060405180830381865afa158015611a5b573d6000803e3d6000fd5b505050506040513d601f19601f82011682018060405250810190611a7f9190614df6565b611a899190614d7d565b11611b1f5760405162461bcd60e51b8152602060048201526066602482015260008051602061542b83398151915260448201527f7265733a205374616b6552656769737472792075706461746573206d7573742060648201527f62652077697468696e207769746864726177616c44656c6179426c6f636b732060848201526577696e646f7760d01b60a482015260c401610845565b7f00000000000000000000000000000000000000000000000000000000000000006001600160a01b03166368bccaac60405180604001604052806001815260200160008152508381518110611b7657611b76614dab565b602001015160f81c60f81b60f81c8c8c60a001518581518110611b9b57611b9b614dab565b60209081029190910101516040516001600160e01b031960e086901b16815260ff909316600484015263ffffffff9182166024840152166044820152606401602060405180830381865afa158015611bf7573d6000803e3d6000fd5b505050506040513d601f19601f82011682018060405250810190611c1b9190614ee9565b6001600160401b031916611c3e8a60400151838151811061168457611684614dab565b67ffffffffffffffff191614611cda5760405162461bcd60e51b8152602060048201526061602482015260008051602061542b83398151915260448201527f7265733a2071756f72756d41706b206861736820696e2073746f72616765206460648201527f6f6573206e6f74206d617463682070726f76696465642071756f72756d2061706084820152606b60f81b60a482015260c401610845565b611d0a89604001518281518110611cf357611cf3614dab565b6020026020010151876135ca90919063ffffffff16565b95507f00000000000000000000000000000000000000000000000000000000000000006001600160a01b031663c8294c5660405180604001604052806001815260200160008152508381518110611d6357611d63614dab565b602001015160f81c60f81b60f81c8c8c60c001518581518110611d8857611d88614dab565b60209081029190910101516040516001600160e01b031960e086901b16815260ff909316600484015263ffffffff9182166024840152166044820152606401602060405180830381865afa158015611de4573d6000803e3d6000fd5b505050506040513d601f19601f82011682018060405250810190611e089190614f14565b85602001518281518110611e1e57611e1e614dab565b6001600160601b03909216602092830291909101820152850151805182908110611e4a57611e4a614dab565b602002602001015185600001518281518110611e6857611e68614dab565b60200260200101906001600160601b031690816001600160601b0316815250506000805b8a602001515181101561207a57611ef786600001518281518110611eb257611eb2614dab565b602002602001015160405180604001604052806001815260200160008152508581518110611ee257611ee2614dab565b016020015160f81c60ff161c60019081161490565b15612072577f00000000000000000000000000000000000000000000000000000000000000006001600160a01b031663f2be94ae60405180604001604052806001815260200160008152508581518110611f5357611f53614dab565b602001015160f81c60f81b60f81c8e89602001518581518110611f7857611f78614dab565b60200260200101518f60e001518881518110611f9657611f96614dab565b60200260200101518781518110611faf57611faf614dab565b60209081029190910101516040516001600160e01b031960e087901b16815260ff909416600485015263ffffffff92831660248501526044840191909152166064820152608401602060405180830381865afa158015612013573d6000803e3d6000fd5b505050506040513d601f19601f820116820180604052508101906120379190614f14565b875180518590811061204b5761204b614dab565b6020026020010181815161205f9190614f31565b6001600160601b03169052506001909101905b600101611e8c565b5050600101611993565b50505060008061209e8a868a606001518b60800151610a15565b915091508161210f5760405162461bcd60e51b8152602060048201526043602482015260008051602061542b83398151915260448201527f7265733a2070616972696e6720707265636f6d70696c652063616c6c206661696064820152621b195960ea1b608482015260a401610845565b806121705760405162461bcd60e51b8152602060048201526039602482015260008051602061542b83398151915260448201527f7265733a207369676e617475726520697320696e76616c6964000000000000006064820152608401610845565b5050600087826020015160405160200161218b929190614f50565b60408051808303601f1901815291905280516020909101209299929850919650505050505050565b6121bb6134df565b6121c56000613d76565b565b600054600290610100900460ff161580156121e9575060005460ff8083169116105b6122055760405162461bcd60e51b815260040161084590614f98565b6000805461ffff191660ff83161761010017905561222282613079565b6000805461ff001916905560405160ff821681527f7f26b83ff96e1f2b6a682f133852f6798a09c465da95921460cefb38474024989060200160405180910390a15050565b80604081106122895760405163044b147760e11b815260040160405180910390fd5b6122916134df565b60ca80546001841b1916905560405182907f1bf253d8b4d0c69b3ed3aa869fe0e1e4006a10469cfb308fe96f7041dd49a0e390600090a25050565b60008184846040516122df929190614fe6565b60405180910390201490509392505050565b336001600160a01b037f000000000000000000000000000000000000000000000000000000000000000016146123395760405162461bcd60e51b815260040161084590614ff6565b604051639926ee7d60e01b81526001600160a01b037f00000000000000000000000000000000000000000000000000000000000000001690639926ee7d9061238790859085906004016150b4565b600060405180830381600087803b1580156123a157600080fd5b505af11580156123b5573d6000803e3d6000fd5b505050505050565b336001600160a01b037f000000000000000000000000000000000000000000000000000000000000000016146124055760405162461bcd60e51b815260040161084590614ff6565b6040516351b27a6d60e11b81526001600160a01b0382811660048301527f0000000000000000000000000000000000000000000000000000000000000000169063a364f4da906024015b600060405180830381600087803b15801561246957600080fd5b505af115801561247d573d6000803e3d6000fd5b5050505050565b600081604081106124a85760405163044b147760e11b815260040160405180910390fd5b505060ca54600190911b16151590565b6124c06134df565b60405163a98fb35560e01b81526001600160a01b037f0000000000000000000000000000000000000000000000000000000000000000169063a98fb3559061244f9084906004016150ff565b60cc546001600160a01b0316331461254c5760cc54604051632cbe419560e01b81523360048201526001600160a01b039091166024820152604401610845565b60005a905060008484604051602001612566929190614d90565b60408051601f198184030181529181528151602092830120600081815260c990935290822080549193509163ffffffff90911690036125bb576040516311cb69a760e11b815260048101839052602401610845565b8054640100000000900460ff16156125e957604051634e78d7f960e11b815260048101839052602401610845565b805464ff00000000191664010000000017815560018101546001600160a01b038616600090815260cb6020526040902054101561266c5760018101546001600160a01b038616600081815260cb602052604090819020549051632e2a182f60e11b8152600481019290925260248201929092526044810191909152606401610845565b805460009061268390849063ffffffff168761127f565b509050604360ff1681602001516000815181106126a2576126a2614dab565b60200260200101516126b49190615112565b6001600160601b0316606482600001516000815181106126d6576126d6614dab565b60200260200101516001600160601b03166126f1919061513b565b1015612784576064816000015160008151811061271057612710614dab565b60200260200101516001600160601b031661272b919061513b565b604360ff16826020015160008151811061274757612747614dab565b60200260200101516127599190615112565b60405163530f5c4560e11b815260048101929092526001600160601b03166024820152604401610845565b6040516001600160a01b038716815287907f8511746b73275e06971968773119b9601fc501d7bdf3824d8754042d148940e29060200160405180910390a260003a5a6127d09087614de3565b6127dd9062011170614d7d565b6127e7919061513b565b9050826001015481111561281e57600183015460405163437e283f60e11b8152600481019190915260248101829052604401610845565b6001600160a01b038716600090815260cb602052604081208054839290612846908490614de3565b90915550506001600160a01b038716600081815260cb602090815260409182902054915191825260008051602061540b833981519152910160405180910390a260cc546040516001600160a01b039091169082156108fc029083906000818181858888f193505050501580156128c0573d6000803e3d6000fd5b505050505050505050565b600054610100900460ff16158080156128eb5750600054600160ff909116105b806129055750303b158015612905575060005460ff166001145b6129215760405162461bcd60e51b815260040161084590614f98565b6000805460ff191660011790558015612944576000805461ff0019166101001790555b6001600160a01b03841661298a57604051630b0f5aa160e11b815260206004820152600c60248201526b34b734ba34b0b627bbb732b960a11b6044820152606401610845565b6001600160a01b0383166129d457604051630b0f5aa160e11b815260206004820152601060248201526f3932bbb0b93239a4b734ba34b0ba37b960811b6044820152606401610845565b6001600160a01b038216612a1f57604051630b0f5aa160e11b815260206004820152601160248201527030b634b3b732b220b3b3b932b3b0ba37b960791b6044820152606401610845565b612a298484613dc8565b60cc80546001600160a01b0319166001600160a01b0384161790558015612a8a576000805461ff0019169055604051600181527f7f26b83ff96e1f2b6a682f133852f6798a09c465da95921460cefb38474024989060200160405180910390a15b50505050565b60008433604051602001612aa5929190614d90565b60408051601f198184030181529181528151602092830120600081815260c990935291205490915063ffffffff1615612af457604051630c40bc4360e21b815260048101829052602401610845565b3415612b515733600090815260cb602052604081208054349290612b19908490614d7d565b909155505033600081815260cb602090815260409182902054915191825260008051602061540b833981519152910160405180910390a25b33600090815260cb6020526040902054821115612ba25733600081815260cb602052604090819020549051632e2a182f60e11b81526004810192909252602482018490526044820152606401610845565b604080516060810182526000602080830182815263ffffffff43818116865285870189815288865260c99094529386902085518154935115156401000000000264ffffffffff1990941692169190911791909117815590516001909101559151909187917f8801fc966deb2c8f563a103c35c9e80740585c292cd97518587e6e7927e6af5591612c3a913391908a908a908a90615152565b60405180910390a2505050505050565b612c526134df565b60ca55565b606060007f00000000000000000000000000000000000000000000000000000000000000006001600160a01b0316639aa1653d6040518163ffffffff1660e01b8152600401602060405180830381865afa158015612cb9573d6000803e3d6000fd5b505050506040513d601f19601f82011682018060405250810190612cdd9190614e38565b60ff16905080600003612cfe57505060408051600081526020810190915290565b6000805b82811015612da957604051633ca5a5f560e01b815260ff821660048201527f00000000000000000000000000000000000000000000000000000000000000006001600160a01b031690633ca5a5f590602401602060405180830381865afa158015612d71573d6000803e3d6000fd5b505050506040513d601f19601f82011682018060405250810190612d959190614df6565b612d9f9083614d7d565b9150600101612d02565b506000816001600160401b03811115612dc457612dc46142e7565b604051908082528060200260200182016040528015612ded578160200160208202803683370190505b5090506000805b7f00000000000000000000000000000000000000000000000000000000000000006001600160a01b0316639aa1653d6040518163ffffffff1660e01b8152600401602060405180830381865afa158015612e52573d6000803e3d6000fd5b505050506040513d601f19601f82011682018060405250810190612e769190614e38565b60ff16811015612ff957604051633ca5a5f560e01b815260ff821660048201526000907f00000000000000000000000000000000000000000000000000000000000000006001600160a01b031690633ca5a5f590602401602060405180830381865afa158015612eea573d6000803e3d6000fd5b505050506040513d601f19601f82011682018060405250810190612f0e9190614df6565b905060005b81811015612fef576040516356e4026d60e11b815260ff84166004820152602481018290527f00000000000000000000000000000000000000000000000000000000000000006001600160a01b03169063adc804da906044016040805180830381865afa158015612f88573d6000803e3d6000fd5b505050506040513d601f19601f82011682018060405250810190612fac9190614e70565b60000151858581518110612fc257612fc2614dab565b6001600160a01b039092166020928302919091019091015283612fe481614eb3565b945050600101612f13565b5050600101612df4565b5090949350505050565b61300b6134df565b6001600160a01b0381166130705760405162461bcd60e51b815260206004820152602660248201527f4f776e61626c653a206e6577206f776e657220697320746865207a65726f206160448201526564647265737360d01b6064820152608401610845565b61113b81613d76565b6130816134df565b60cc80546001600160a01b0319166001600160a01b0392909216919091179055565b6040516306045a9160e01b815260009030906306045a91906130d7908b908b908b908b908b908b908b908b906004016151a9565b602060405180830381865afa1580156130f4573d6000803e3d6000fd5b505050506040513d601f19601f820116820180604052508101906109a5919061520b565b6065546001600160a01b031633146131ad5760405162461bcd60e51b815260206004820152604c60248201527f536572766963654d616e61676572426173652e6f6e6c7952657761726473496e60448201527f69746961746f723a2063616c6c6572206973206e6f742074686520726577617260648201526b32399034b734ba34b0ba37b960a11b608482015260a401610845565b60005b81811015613478578282828181106131ca576131ca614dab565b90506020028101906131dc9190615228565b6131ed9060408101906020016145cc565b6001600160a01b03166323b872dd333086868681811061320f5761320f614dab565b90506020028101906132219190615228565b604080516001600160e01b031960e087901b1681526001600160a01b039485166004820152939092166024840152013560448201526064016020604051808303816000875af1158015613278573d6000803e3d6000fd5b505050506040513d601f19601f8201168201806040525081019061329c919061520b565b5060008383838181106132b1576132b1614dab565b90506020028101906132c39190615228565b6132d49060408101906020016145cc565b604051636eb1769f60e11b81523060048201526001600160a01b037f000000000000000000000000000000000000000000000000000000000000000081166024830152919091169063dd62ed3e90604401602060405180830381865afa158015613342573d6000803e3d6000fd5b505050506040513d601f19601f820116820180604052508101906133669190614df6565b905083838381811061337a5761337a614dab565b905060200281019061338c9190615228565b61339d9060408101906020016145cc565b6001600160a01b031663095ea7b37f0000000000000000000000000000000000000000000000000000000000000000838787878181106133df576133df614dab565b90506020028101906133f19190615228565b604001356133ff9190614d7d565b6040516001600160e01b031960e085901b1681526001600160a01b03909216600483015260248201526044016020604051808303816000875af115801561344a573d6000803e3d6000fd5b505050506040513d601f19601f8201168201806040525081019061346e919061520b565b50506001016131b0565b5060405163fce36c7d60e01b81526001600160a01b037f0000000000000000000000000000000000000000000000000000000000000000169063fce36c7d9061238790859085906004016152af565b6000836134d5868585613e45565b1495945050505050565b6033546001600160a01b031633146121c55760405162461bcd60e51b815260206004820181905260248201527f4f776e61626c653a2063616c6c6572206973206e6f7420746865206f776e65726044820152606401610845565b60408051808201909152600080825260208201526135556141f5565b835181526020808501519082015260408082018490526000908360608460076107d05a03fa9050808061358457fe5b50806135c25760405162461bcd60e51b815260206004820152600d60248201526c1958cb5b5d5b0b59985a5b1959609a1b6044820152606401610845565b505092915050565b60408051808201909152600080825260208201526135e6614213565b835181526020808501518183015283516040808401919091529084015160608301526000908360808460066107d05a03fa9050808061362157fe5b50806135c25760405162461bcd60e51b815260206004820152600d60248201526c1958cb5859190b59985a5b1959609a1b6044820152606401610845565b613667614231565b50604080516080810182527f198e9393920d483a7260bfb731fb5d25f1aa493335a9e71297e485b7aef312c28183019081527f1800deef121f1e76426a00665e5c4479674322d4f75edadd46debd5cd992f6ed6060830152815281518083019092527f275dc4a288d1afb3cbb1ac09187524c7db36395df7be3b99e673b13a075a65ec82527f1d9befcd05a5323e6da4d435f3b617cdb3af83285c2df711ef39c01571827f9d60208381019190915281019190915290565b60408051808201909152600080825260208201526000808061374f6000805160206153eb83398151915286614dc1565b90505b61375b81613f42565b90935091506000805160206153eb8339815191528283098303613794576040805180820190915290815260208101919091529392505050565b6000805160206153eb833981519152600182089050613752565b6040805180820182528681526020808201869052825180840190935286835282018490526000918291906137e0614256565b60005b600281101561399b5760006137f982600661513b565b905084826002811061380d5761380d614dab565b6020020151518361381f836000614d7d565b600c811061382f5761382f614dab565b602002015284826002811061384657613846614dab565b6020020151602001518382600161385d9190614d7d565b600c811061386d5761386d614dab565b602002015283826002811061388457613884614dab565b6020020151515183613897836002614d7d565b600c81106138a7576138a7614dab565b60200201528382600281106138be576138be614dab565b60200201515160016020020151836138d7836003614d7d565b600c81106138e7576138e7614dab565b60200201528382600281106138fe576138fe614dab565b60200201516020015160006002811061391957613919614dab565b60200201518361392a836004614d7d565b600c811061393a5761393a614dab565b602002015283826002811061395157613951614dab565b60200201516020015160016002811061396c5761396c614dab565b60200201518361397d836005614d7d565b600c811061398d5761398d614dab565b6020020152506001016137e3565b506139a4614275565b60006020826101808560088cfa9151919c9115159b50909950505050505050505050565b60606000806139d684613bcd565b61ffff166001600160401b038111156139f1576139f16142e7565b6040519080825280601f01601f191660200182016040528015613a1b576020820181803683370190505b5090506000805b825182108015613a33575061010081105b15612ff9576001811b935085841615613a7a578060f81b838381518110613a5c57613a5c614dab565b60200101906001600160f81b031916908160001a9053508160010191505b613a8381614eb3565b9050613a22565b606554604080516001600160a01b03928316815291831660208301527fe11cddf1816a43318ca175bbc52cd0185436e9cbead7c83acc54a73e461717e3910160405180910390a1606580546001600160a01b0319166001600160a01b0392909216919091179055565b6097805460ff19168215159081179091556040519081527f40e4ed880a29e0f6ddce307457fb75cddf4feef7d3ecb0301bfdf4976a0e2dfc9060200160405180910390a150565b600080613b4684613fc4565b9050808360ff166001901b11613bc45760405162461bcd60e51b815260206004820152603f60248201527f4269746d61705574696c732e6f72646572656442797465734172726179546f4260448201527f69746d61703a206269746d61702065786365656473206d61782076616c7565006064820152608401610845565b90505b92915050565b6000805b8215613bc757613be2600184614de3565b9092169180613bf0816153c9565b915050613bd1565b60408051808201909152600080825260208201526102008261ffff1610613c545760405162461bcd60e51b815260206004820152601060248201526f7363616c61722d746f6f2d6c6172676560801b6044820152606401610845565b8161ffff16600103613c67575081613bc7565b6040805180820190915260008082526020820181905284906001905b8161ffff168661ffff1610613cd057600161ffff871660ff83161c81169003613cb357613cb084846135ca565b93505b613cbd83846135ca565b92506201fffe600192831b169101613c83565b509195945050505050565b60408051808201909152600080825260208201528151158015613d0057506020820151155b15613d1e575050604080518082019091526000808252602082015290565b6040518060400160405280836000015181526020016000805160206153eb8339815191528460200151613d519190614dc1565b613d69906000805160206153eb833981519152614de3565b905292915050565b919050565b603380546001600160a01b038381166001600160a01b0319831681179093556040519116919082907f8be0079c531659141344cd1fd0a4f28419497f9722a3daafe3b4186f6b6457e090600090a35050565b600054610100900460ff16613e335760405162461bcd60e51b815260206004820152602b60248201527f496e697469616c697a61626c653a20636f6e7472616374206973206e6f74206960448201526a6e697469616c697a696e6760a81b6064820152608401610845565b613e3c82613d76565b610c7381613a8a565b600060208451613e559190614dc1565b15613edc5760405162461bcd60e51b815260206004820152604b60248201527f4d65726b6c652e70726f63657373496e636c7573696f6e50726f6f664b65636360448201527f616b3a2070726f6f66206c656e6774682073686f756c642062652061206d756c60648201526a3a34b836329037b310199960a91b608482015260a401610845565b8260205b85518111610e4757613ef3600285614dc1565b600003613f1757816000528086015160205260406000209150600284049350613f30565b8086015160005281602052604060002091506002840493505b613f3b602082614d7d565b9050613ee0565b600080806000805160206153eb83398151915260036000805160206153eb833981519152866000805160206153eb833981519152888909090890506000613fb8827f0c19139cb84c680a6e14116da060561765e05aa45a1c72a34f082305b61f3f526000805160206153eb83398151915261414c565b91959194509092505050565b60006101008251111561404d5760405162461bcd60e51b8152602060048201526044602482018190527f4269746d61705574696c732e6f72646572656442797465734172726179546f42908201527f69746d61703a206f7264657265644279746573417272617920697320746f6f206064820152636c6f6e6760e01b608482015260a401610845565b815160000361405e57506000919050565b6000808360008151811061407457614074614dab565b0160200151600160f89190911c81901b92505b8451811015614143578481815181106140a2576140a2614dab565b0160200151600160f89190911c1b91508282116141375760405162461bcd60e51b815260206004820152604760248201527f4269746d61705574696c732e6f72646572656442797465734172726179546f4260448201527f69746d61703a206f72646572656442797465734172726179206973206e6f74206064820152661bdc99195c995960ca1b608482015260a401610845565b91811791600101614087565b50909392505050565b600080614157614275565b61415f614293565b602080825281810181905260408201819052606082018890526080820187905260a082018690528260c08360056107d05a03fa9250828061419c57fe5b50826141ea5760405162461bcd60e51b815260206004820152601a60248201527f424e3235342e6578704d6f643a2063616c6c206661696c7572650000000000006044820152606401610845565b505195945050505050565b60405180606001604052806003906020820280368337509192915050565b60405180608001604052806004906020820280368337509192915050565b60405180604001604052806142446142b1565b81526020016142516142b1565b905290565b604051806101800160405280600c906020820280368337509192915050565b60405180602001604052806001906020820280368337509192915050565b6040518060c001604052806006906020820280368337509192915050565b60405180604001604052806002906020820280368337509192915050565b80356001600160601b031981168114613d7157600080fd5b634e487b7160e01b600052604160045260246000fd5b604080519081016001600160401b038111828210171561431f5761431f6142e7565b60405290565b60405161010081016001600160401b038111828210171561431f5761431f6142e7565b604051601f8201601f191681016001600160401b0381118282101715614370576143706142e7565b604052919050565b6000806001600160401b03841115614392576143926142e7565b50601f8301601f19166020016143a781614348565b9150508281528383830111156143bc57600080fd5b828260208301376000602084830101529392505050565b600082601f8301126143e457600080fd5b6143f383833560208501614378565b9392505050565b6001600160a01b038116811461113b57600080fd5b600080600080600080600080610100898b03121561442c57600080fd5b88359750602089013596506040890135955061444a60608a016142cf565b94506080890135935060a08901356001600160401b0381111561446c57600080fd5b6144788b828c016143d3565b93505060c0890135915060e0890135614490816143fa565b809150509295985092959890939650565b6000602082840312156144b357600080fd5b5035919050565b6000604082840312156144cc57600080fd5b6144d46142fd565b823581526020928301359281019290925250919050565b600082601f8301126144fc57600080fd5b6145046142fd565b80604084018581111561451657600080fd5b845b81811015614530578035845260209384019301614518565b509095945050505050565b60006080828403121561454d57600080fd5b6145556142fd565b905061456183836144eb565b815261457083604084016144eb565b602082015292915050565b600080600080610120858703121561459257600080fd5b843593506145a386602087016144ba565b92506145b2866060870161453b565b91506145c18660e087016144ba565b905092959194509250565b6000602082840312156145de57600080fd5b8135613bc4816143fa565b602080825282518282018190526000918401906040840190835b818110156145305783516001600160a01b0316835260209384019390920191600101614603565b801515811461113b57600080fd5b60006020828403121561464a57600080fd5b8135613bc48161462a565b803563ffffffff81168114613d7157600080fd5b60006001600160401b03821115614682576146826142e7565b5060051b60200190565b600082601f83011261469d57600080fd5b81356146b06146ab82614669565b614348565b8082825260208201915060208360051b8601019250858311156146d257600080fd5b602085015b838110156146f6576146e881614655565b8352602092830192016146d7565b5095945050505050565b600082601f83011261471157600080fd5b813561471f6146ab82614669565b8082825260208201915060208360061b86010192508583111561474157600080fd5b602085015b838110156146f65761475887826144ba565b8352602090920191604001614746565b600082601f83011261477957600080fd5b81356147876146ab82614669565b8082825260208201915060208360051b8601019250858311156147a957600080fd5b602085015b838110156146f65780356001600160401b038111156147cc57600080fd5b6147db886020838a010161468c565b845250602092830192016147ae565b600061018082840312156147fd57600080fd5b614805614325565b905081356001600160401b0381111561481d57600080fd5b6148298482850161468c565b82525060208201356001600160401b0381111561484557600080fd5b61485184828501614700565b60208301525060408201356001600160401b0381111561487057600080fd5b61487c84828501614700565b60408301525061488f836060840161453b565b60608201526148a18360e084016144ba565b60808201526101208201356001600160401b038111156148c057600080fd5b6148cc8482850161468c565b60a0830152506101408201356001600160401b038111156148ec57600080fd5b6148f88482850161468c565b60c0830152506101608201356001600160401b0381111561491857600080fd5b61492484828501614768565b60e08301525092915050565b60008060006060848603121561494557600080fd5b8335925061495560208501614655565b915060408401356001600160401b0381111561497057600080fd5b61497c868287016147ea565b9150509250925092565b600081518084526020840193506020830160005b828110156149c15781516001600160601b031686526020958601959091019060010161499a565b5093949350505050565b60408152600083516040808401526149e66080840182614986565b90506020850151603f19848303016060850152614a038282614986565b925050508260208301529392505050565b60008083601f840112614a2657600080fd5b5081356001600160401b03811115614a3d57600080fd5b602083019150836020828501011115614a5557600080fd5b9250929050565b600080600060408486031215614a7157600080fd5b83356001600160401b03811115614a8757600080fd5b614a9386828701614a14565b909790965060209590950135949350505050565b60008060408385031215614aba57600080fd5b8235614ac5816143fa565b915060208301356001600160401b03811115614ae057600080fd5b830160608186031215614af257600080fd5b604051606081016001600160401b0381118282101715614b1457614b146142e7565b60405281356001600160401b03811115614b2d57600080fd5b614b39878285016143d3565b8252506020828101359082015260409182013591810191909152919491935090915050565b600060208284031215614b7057600080fd5b81356001600160401b03811115614b8657600080fd5b8201601f81018413614b9757600080fd5b614ba684823560208401614378565b949350505050565b600080600060608486031215614bc357600080fd5b833592506020840135614955816143fa565b600080600060608486031215614bea57600080fd5b8335614bf5816143fa565b92506020840135614c05816143fa565b91506040840135614c15816143fa565b809150509250925092565b60008060008060608587031215614c3657600080fd5b8435935060208501356001600160401b03811115614c5357600080fd5b614c5f87828801614a14565b9598909750949560400135949350505050565b600080600080600080600060e0888a031215614c8d57600080fd5b873596506020880135955060408801359450614cab606089016142cf565b93506080880135925060a08801356001600160401b03811115614ccd57600080fd5b614cd98a828b016143d3565b979a969950949793969295929450505060c09091013590565b60008060208385031215614d0557600080fd5b82356001600160401b03811115614d1b57600080fd5b8301601f81018513614d2c57600080fd5b80356001600160401b03811115614d4257600080fd5b8560208260051b8401011115614d5757600080fd5b6020919091019590945092505050565b634e487b7160e01b600052601160045260246000fd5b80820180821115613bc757613bc7614d67565b91825260601b6001600160601b031916602082015260340190565b634e487b7160e01b600052603260045260246000fd5b600082614dde57634e487b7160e01b600052601260045260246000fd5b500690565b81810381811115613bc757613bc7614d67565b600060208284031215614e0857600080fd5b5051919050565b600060208284031215614e2157600080fd5b81516001600160c01b0381168114613bc457600080fd5b600060208284031215614e4a57600080fd5b815160ff81168114613bc457600080fd5b6001600160601b038116811461113b57600080fd5b60006040828403128015614e8357600080fd5b50614e8c6142fd565b8251614e97816143fa565b81526020830151614ea781614e5b565b60208201529392505050565b600060018201614ec557614ec5614d67565b5060010190565b600060208284031215614ede57600080fd5b8151613bc4816143fa565b600060208284031215614efb57600080fd5b815167ffffffffffffffff1981168114613bc457600080fd5b600060208284031215614f2657600080fd5b8151613bc481614e5b565b6001600160601b038281168282160390811115613bc757613bc7614d67565b63ffffffff60e01b8360e01b16815260006004820183516020850160005b82811015614f8c578151845260209384019390910190600101614f6e565b50919695505050505050565b6020808252602e908201527f496e697469616c697a61626c653a20636f6e747261637420697320616c72656160408201526d191e481a5b9a5d1a585b1a5e995960921b606082015260800190565b8183823760009101908152919050565b60208082526052908201527f536572766963654d616e61676572426173652e6f6e6c7952656769737472794360408201527f6f6f7264696e61746f723a2063616c6c6572206973206e6f742074686520726560608201527133b4b9ba393c9031b7b7b93234b730ba37b960711b608082015260a00190565b6000815180845260005b8181101561509457602081850181015186830182015201615078565b506000602082860101526020601f19601f83011685010191505092915050565b60018060a01b03831681526040602082015260008251606060408401526150de60a084018261506e565b90506020840151606084015260408401516080840152809150509392505050565b6020815260006143f3602083018461506e565b6001600160601b03818116838216029081169081811461513457615134614d67565b5092915050565b8082028115828204841417613bc757613bc7614d67565b6001600160a01b038616815263ffffffff851660208201526080604082018190528101839052828460a0830137600060a08483010152600060a0601f19601f86011683010190508260608301529695505050505050565b8881528760208201528660408201526001600160601b03198616606082015284608082015261010060a082015260006151e661010083018661506e565b60c0830194909452506001600160a01b039190911660e0909101529695505050505050565b60006020828403121561521d57600080fd5b8151613bc48161462a565b60008235609e1983360301811261523e57600080fd5b9190910192915050565b8035613d71816143fa565b81835260208301925060008160005b848110156149c1578135615275816143fa565b6001600160a01b03168652602082013561528e81614e5b565b6001600160601b031660208701526040958601959190910190600101615262565b6020808252810182905260006040600584901b830181019083018583609e1936839003015b878210156153bc57868503603f1901845282358181126152f357600080fd5b8901803536829003601e1901811261530a57600080fd5b81016020810190356001600160401b0381111561532657600080fd5b8060061b360382131561533857600080fd5b60a0885261534a60a089018284615253565b91505061535960208301615248565b6001600160a01b031660208801526040828101359088015261537d60608301614655565b63ffffffff16606088015261539460808301614655565b63ffffffff8116608089015291509550506020938401939290920191600191909101906152d4565b5092979650505050505050565b600061ffff821661ffff81036153e1576153e1614d67565b6001019291505056fe30644e72e131a029b85045b68181585d97816a916871ca8d3c208c16d87cfd470ea46f246ccfc58f7a93aa09bc6245a6818e97b1a160d186afe78993a3b194a0424c535369676e6174757265436865636b65722e636865636b5369676e617475a2646970667358221220944e4ae8e6563f308cfb4eda1304afff6af54f61a9dff69f4ba977256157e35264736f6c634300081a0033","linkReferences":{}},"methodIdentifiers":{"alignedAggregator()":"4a5bf632","avsDirectory()":"6b3aa72e","balanceOf(address)":"70a08231","batchersBalances(address)":"f474b520","batchesState(bytes32)":"b099627e","blacklistVerifier(uint256)":"0cb44763","blacklistedVerifiers()":"bd11c55a","blsApkRegistry()":"5df45946","checkPublicInput(bytes,bytes32)":"95c6d604","checkSignatures(bytes32,uint32,(uint32[],(uint256,uint256)[],(uint256,uint256)[],(uint256[2],uint256[2]),(uint256,uint256),uint32[],uint32[],uint32[][]))":"4ae07c37","createAVSRewardsSubmission(((address,uint96)[],address,uint256,uint32,uint32)[])":"fce36c7d","createNewTask(bytes32,string,uint256)":"d66eaabd","delegation()":"df5cf723","depositToBatcher(address)":"4223d551","deregisterOperatorFromAVS(address)":"a364f4da","getOperatorRestakedStrategies(address)":"33cfb7b7","getRestakeableStrategies()":"e481af9d","initialize(address,address,address)":"c0c53b8b","initializeAggregator(address)":"800fb61f","isVerifierBlacklisted(uint256)":"a3a37ff9","owner()":"8da5cb5b","registerOperatorToAVS(address,(bytes,bytes32,uint256))":"9926ee7d","registryCoordinator()":"6d14a987","renounceOwnership()":"715018a6","respondToTaskV2(bytes32,address,(uint32[],(uint256,uint256)[],(uint256,uint256)[],(uint256[2],uint256[2]),(uint256,uint256),uint32[],uint32[],uint32[][]))":"ab21739a","rewardsInitiator()":"fc299dee","setAggregator(address)":"f9120af6","setRewardsInitiator(address)":"3bc28c8c","setStaleStakesForbidden(bool)":"416c7e5e","setVerifiersBlacklist(uint256)":"db45b1bf","stakeRegistry()":"68304835","staleStakesForbidden()":"b98d0908","transferOwnership(address)":"f2fde38b","trySignatureAndApkVerification(bytes32,(uint256,uint256),(uint256[2],uint256[2]),(uint256,uint256))":"171f1d5b","updateAVSMetadataURI(string)":"a98fb355","verifyBatchInclusion(bytes32,bytes32,bytes32,bytes20,bytes32,bytes,uint256)":"fa534dc0","verifyBatchInclusion(bytes32,bytes32,bytes32,bytes20,bytes32,bytes,uint256,address)":"06045a91","whitelistVerifier(uint256)":"81fc7e94","withdraw(uint256)":"2e1a7d4d"},"id":190}