{"abi":[{"type":"constructor","inputs":[{"name":"__avsDirectory","type":"address","internalType":"contract IAVSDirectory"},{"name":"__rewardsCoordinator","type":"address","internalType":"contract IRewardsCoordinator"},{"name":"__registryCoordinator","type":"address","internalType":"contract IRegistryCoordinator"},{"name":"__stakeRegistry","type":"address","internalType":"contract IStakeRegistry"}],"stateMutability":"nonpayable"},{"type":"receive","stateMutability":"payable"},{"type":"function","name":"avsDirectory","inputs":[],"outputs":[{"name":"","type":"address","internalType":"address"}],"stateMutability":"view"},{"type":"function","name":"balanceOf","inputs":[{"name":"account","type":"address","internalType":"address"}],"outputs":[{"name":"","type":"uint256","internalType":"uint256"}],"stateMutability":"view"},{"type":"function","name":"batchesState","inputs":[{"name":"","type":"bytes32","internalType":"bytes32"}],"outputs":[{"name":"taskCreatedBlock","type":"uint32","internalType":"uint32"},{"name":"responded","type":"bool","internalType":"bool"}],"stateMutability":"view"},{"type":"function","name":"blsApkRegistry","inputs":[],"outputs":[{"name":"","type":"address","internalType":"contract IBLSApkRegistry"}],"stateMutability":"view"},{"type":"function","name":"checkPublicInput","inputs":[{"name":"publicInput","type":"bytes","internalType":"bytes"},{"name":"hash","type":"bytes32","internalType":"bytes32"}],"outputs":[{"name":"","type":"bool","internalType":"bool"}],"stateMutability":"pure"},{"type":"function","name":"checkSignatures","inputs":[{"name":"msgHash","type":"bytes32","internalType":"bytes32"},{"name":"referenceBlockNumber","type":"uint32","internalType":"uint32"},{"name":"params","type":"tuple","internalType":"struct IBLSSignatureChecker.NonSignerStakesAndSignature","components":[{"name":"nonSignerQuorumBitmapIndices","type":"uint32[]","internalType":"uint32[]"},{"name":"nonSignerPubkeys","type":"tuple[]","internalType":"struct BN254.G1Point[]","components":[{"name":"X","type":"uint256","internalType":"uint256"},{"name":"Y","type":"uint256","internalType":"uint256"}]},{"name":"quorumApks","type":"tuple[]","internalType":"struct BN254.G1Point[]","components":[{"name":"X","type":"uint256","internalType":"uint256"},{"name":"Y","type":"uint256","internalType":"uint256"}]},{"name":"apkG2","type":"tuple","internalType":"struct BN254.G2Point","components":[{"name":"X","type":"uint256[2]","internalType":"uint256[2]"},{"name":"Y","type":"uint256[2]","internalType":"uint256[2]"}]},{"name":"sigma","type":"tuple","internalType":"struct BN254.G1Point","components":[{"name":"X","type":"uint256","internalType":"uint256"},{"name":"Y","type":"uint256","internalType":"uint256"}]},{"name":"quorumApkIndices","type":"uint32[]","internalType":"uint32[]"},{"name":"totalStakeIndices","type":"uint32[]","internalType":"uint32[]"},{"name":"nonSignerStakeIndices","type":"uint32[][]","internalType":"uint32[][]"}]}],"outputs":[{"name":"","type":"tuple","internalType":"struct IBLSSignatureChecker.QuorumStakeTotals","components":[{"name":"signedStakeForQuorum","type":"uint96[]","internalType":"uint96[]"},{"name":"totalStakeForQuorum","type":"uint96[]","internalType":"uint96[]"}]},{"name":"","type":"bytes32","internalType":"bytes32"}],"stateMutability":"view"},{"type":"function","name":"createAVSRewardsSubmission","inputs":[{"name":"rewardsSubmissions","type":"tuple[]","internalType":"struct IRewardsCoordinator.RewardsSubmission[]","components":[{"name":"strategiesAndMultipliers","type":"tuple[]","internalType":"struct IRewardsCoordinator.StrategyAndMultiplier[]","components":[{"name":"strategy","type":"address","internalType":"contract IStrategy"},{"name":"multiplier","type":"uint96","internalType":"uint96"}]},{"name":"token","type":"address","internalType":"contract IERC20"},{"name":"amount","type":"uint256","internalType":"uint256"},{"name":"startTimestamp","type":"uint32","internalType":"uint32"},{"name":"duration","type":"uint32","internalType":"uint32"}]}],"outputs":[],"stateMutability":"nonpayable"},{"type":"function","name":"createNewTask","inputs":[{"name":"batchMerkleRoot","type":"bytes32","internalType":"bytes32"},{"name":"batchDataPointer","type":"string","internalType":"string"}],"outputs":[],"stateMutability":"payable"},{"type":"function","name":"delegation","inputs":[],"outputs":[{"name":"","type":"address","internalType":"contract IDelegationManager"}],"stateMutability":"view"},{"type":"function","name":"deregisterOperatorFromAVS","inputs":[{"name":"operator","type":"address","internalType":"address"}],"outputs":[],"stateMutability":"nonpayable"},{"type":"function","name":"getOperatorRestakedStrategies","inputs":[{"name":"operator","type":"address","internalType":"address"}],"outputs":[{"name":"","type":"address[]","internalType":"address[]"}],"stateMutability":"view"},{"type":"function","name":"getRestakeableStrategies","inputs":[],"outputs":[{"name":"","type":"address[]","internalType":"address[]"}],"stateMutability":"view"},{"type":"function","name":"initialize","inputs":[{"name":"_initialOwner","type":"address","internalType":"address"},{"name":"_rewardsInitiator","type":"address","internalType":"address"}],"outputs":[],"stateMutability":"nonpayable"},{"type":"function","name":"owner","inputs":[],"outputs":[{"name":"","type":"address","internalType":"address"}],"stateMutability":"view"},{"type":"function","name":"registerOperatorToAVS","inputs":[{"name":"operator","type":"address","internalType":"address"},{"name":"operatorSignature","type":"tuple","internalType":"struct ISignatureUtils.SignatureWithSaltAndExpiry","components":[{"name":"signature","type":"bytes","internalType":"bytes"},{"name":"salt","type":"bytes32","internalType":"bytes32"},{"name":"expiry","type":"uint256","internalType":"uint256"}]}],"outputs":[],"stateMutability":"nonpayable"},{"type":"function","name":"registryCoordinator","inputs":[],"outputs":[{"name":"","type":"address","internalType":"contract IRegistryCoordinator"}],"stateMutability":"view"},{"type":"function","name":"renounceOwnership","inputs":[],"outputs":[],"stateMutability":"nonpayable"},{"type":"function","name":"respondToTask","inputs":[{"name":"batchMerkleRoot","type":"bytes32","internalType":"bytes32"},{"name":"nonSignerStakesAndSignature","type":"tuple","internalType":"struct IBLSSignatureChecker.NonSignerStakesAndSignature","components":[{"name":"nonSignerQuorumBitmapIndices","type":"uint32[]","internalType":"uint32[]"},{"name":"nonSignerPubkeys","type":"tuple[]","internalType":"struct BN254.G1Point[]","components":[{"name":"X","type":"uint256","internalType":"uint256"},{"name":"Y","type":"uint256","internalType":"uint256"}]},{"name":"quorumApks","type":"tuple[]","internalType":"struct BN254.G1Point[]","components":[{"name":"X","type":"uint256","internalType":"uint256"},{"name":"Y","type":"uint256","internalType":"uint256"}]},{"name":"apkG2","type":"tuple","internalType":"struct BN254.G2Point","components":[{"name":"X","type":"uint256[2]","internalType":"uint256[2]"},{"name":"Y","type":"uint256[2]","internalType":"uint256[2]"}]},{"name":"sigma","type":"tuple","internalType":"struct BN254.G1Point","components":[{"name":"X","type":"uint256","internalType":"uint256"},{"name":"Y","type":"uint256","internalType":"uint256"}]},{"name":"quorumApkIndices","type":"uint32[]","internalType":"uint32[]"},{"name":"totalStakeIndices","type":"uint32[]","internalType":"uint32[]"},{"name":"nonSignerStakeIndices","type":"uint32[][]","internalType":"uint32[][]"}]}],"outputs":[],"stateMutability":"nonpayable"},{"type":"function","name":"respondToTaskV2","inputs":[{"name":"batchMerkleRoot","type":"bytes32","internalType":"bytes32"},{"name":"senderAddress","type":"address","internalType":"address"},{"name":"nonSignerStakesAndSignature","type":"tuple","internalType":"struct IBLSSignatureChecker.NonSignerStakesAndSignature","components":[{"name":"nonSignerQuorumBitmapIndices","type":"uint32[]","internalType":"uint32[]"},{"name":"nonSignerPubkeys","type":"tuple[]","internalType":"struct BN254.G1Point[]","components":[{"name":"X","type":"uint256","internalType":"uint256"},{"name":"Y","type":"uint256","internalType":"uint256"}]},{"name":"quorumApks","type":"tuple[]","internalType":"struct BN254.G1Point[]","components":[{"name":"X","type":"uint256","internalType":"uint256"},{"name":"Y","type":"uint256","internalType":"uint256"}]},{"name":"apkG2","type":"tuple","internalType":"struct BN254.G2Point","components":[{"name":"X","type":"uint256[2]","internalType":"uint256[2]"},{"name":"Y","type":"uint256[2]","internalType":"uint256[2]"}]},{"name":"sigma","type":"tuple","internalType":"struct BN254.G1Point","components":[{"name":"X","type":"uint256","internalType":"uint256"},{"name":"Y","type":"uint256","internalType":"uint256"}]},{"name":"quorumApkIndices","type":"uint32[]","internalType":"uint32[]"},{"name":"totalStakeIndices","type":"uint32[]","internalType":"uint32[]"},{"name":"nonSignerStakeIndices","type":"uint32[][]","internalType":"uint32[][]"}]}],"outputs":[],"stateMutability":"nonpayable"},{"type":"function","name":"rewardsInitiator","inputs":[],"outputs":[{"name":"","type":"address","internalType":"address"}],"stateMutability":"view"},{"type":"function","name":"setRewardsInitiator","inputs":[{"name":"newRewardsInitiator","type":"address","internalType":"address"}],"outputs":[],"stateMutability":"nonpayable"},{"type":"function","name":"setStaleStakesForbidden","inputs":[{"name":"value","type":"bool","internalType":"bool"}],"outputs":[],"stateMutability":"nonpayable"},{"type":"function","name":"stakeRegistry","inputs":[],"outputs":[{"name":"","type":"address","internalType":"contract IStakeRegistry"}],"stateMutability":"view"},{"type":"function","name":"staleStakesForbidden","inputs":[],"outputs":[{"name":"","type":"bool","internalType":"bool"}],"stateMutability":"view"},{"type":"function","name":"transferOwnership","inputs":[{"name":"newOwner","type":"address","internalType":"address"}],"outputs":[],"stateMutability":"nonpayable"},{"type":"function","name":"trySignatureAndApkVerification","inputs":[{"name":"msgHash","type":"bytes32","internalType":"bytes32"},{"name":"apk","type":"tuple","internalType":"struct BN254.G1Point","components":[{"name":"X","type":"uint256","internalType":"uint256"},{"name":"Y","type":"uint256","internalType":"uint256"}]},{"name":"apkG2","type":"tuple","internalType":"struct BN254.G2Point","components":[{"name":"X","type":"uint256[2]","internalType":"uint256[2]"},{"name":"Y","type":"uint256[2]","internalType":"uint256[2]"}]},{"name":"sigma","type":"tuple","internalType":"struct BN254.G1Point","components":[{"name":"X","type":"uint256","internalType":"uint256"},{"name":"Y","type":"uint256","internalType":"uint256"}]}],"outputs":[{"name":"pairingSuccessful","type":"bool","internalType":"bool"},{"name":"siganatureIsValid","type":"bool","internalType":"bool"}],"stateMutability":"view"},{"type":"function","name":"updateAVSMetadataURI","inputs":[{"name":"_metadataURI","type":"string","internalType":"string"}],"outputs":[],"stateMutability":"nonpayable"},{"type":"function","name":"verifyBatchInclusion","inputs":[{"name":"proofCommitment","type":"bytes32","internalType":"bytes32"},{"name":"pubInputCommitment","type":"bytes32","internalType":"bytes32"},{"name":"provingSystemAuxDataCommitment","type":"bytes32","internalType":"bytes32"},{"name":"proofGeneratorAddr","type":"bytes20","internalType":"bytes20"},{"name":"batchMerkleRoot","type":"bytes32","internalType":"bytes32"},{"name":"merkleProof","type":"bytes","internalType":"bytes"},{"name":"verificationDataBatchIndex","type":"uint256","internalType":"uint256"},{"name":"senderAddress","type":"address","internalType":"address"}],"outputs":[{"name":"","type":"bool","internalType":"bool"}],"stateMutability":"view"},{"type":"event","name":"BatchVerified","inputs":[{"name":"batchMerkleRoot","type":"bytes32","indexed":true,"internalType":"bytes32"},{"name":"senderAddress","type":"address","indexed":false,"internalType":"address"}],"anonymous":false},{"type":"event","name":"BatcherBalanceUpdated","inputs":[{"name":"batcher","type":"address","indexed":true,"internalType":"address"},{"name":"newBalance","type":"uint256","indexed":false,"internalType":"uint256"}],"anonymous":false},{"type":"event","name":"Initialized","inputs":[{"name":"version","type":"uint8","indexed":false,"internalType":"uint8"}],"anonymous":false},{"type":"event","name":"NewBatch","inputs":[{"name":"batchMerkleRoot","type":"bytes32","indexed":true,"internalType":"bytes32"},{"name":"taskCreatedBlock","type":"uint32","indexed":false,"internalType":"uint32"},{"name":"batchDataPointer","type":"string","indexed":false,"internalType":"string"}],"anonymous":false},{"type":"event","name":"NewBatchV2","inputs":[{"name":"batchMerkleRoot","type":"bytes32","indexed":true,"internalType":"bytes32"},{"name":"senderAddress","type":"address","indexed":false,"internalType":"address"},{"name":"taskCreatedBlock","type":"uint32","indexed":false,"internalType":"uint32"},{"name":"batchDataPointer","type":"string","indexed":false,"internalType":"string"}],"anonymous":false},{"type":"event","name":"OwnershipTransferred","inputs":[{"name":"previousOwner","type":"address","indexed":true,"internalType":"address"},{"name":"newOwner","type":"address","indexed":true,"internalType":"address"}],"anonymous":false},{"type":"event","name":"RewardsInitiatorUpdated","inputs":[{"name":"prevRewardsInitiator","type":"address","indexed":false,"internalType":"address"},{"name":"newRewardsInitiator","type":"address","indexed":false,"internalType":"address"}],"anonymous":false},{"type":"event","name":"StaleStakesForbiddenUpdate","inputs":[{"name":"value","type":"bool","indexed":false,"internalType":"bool"}],"anonymous":false}],"bytecode":{"object":"0x6101806040523480156200001257600080fd5b506040516200564d3803806200564d8339810160408190526200003591620002e5565b6001600160a01b0380851660805280841660a05280831660c052811660e0528184848284620000636200020a565b50505050806001600160a01b0316610100816001600160a01b031681525050806001600160a01b031663683048356040518163ffffffff1660e01b8152600401602060405180830381865afa158015620000c1573d6000803e3d6000fd5b505050506040513d601f19601f82011682018060405250810190620000e791906200034d565b6001600160a01b0316610120816001600160a01b031681525050806001600160a01b0316635df459466040518163ffffffff1660e01b8152600401602060405180830381865afa15801562000140573d6000803e3d6000fd5b505050506040513d601f19601f820116820180604052508101906200016691906200034d565b6001600160a01b0316610140816001600160a01b031681525050610120516001600160a01b031663df5cf7236040518163ffffffff1660e01b8152600401602060405180830381865afa158015620001c2573d6000803e3d6000fd5b505050506040513d601f19601f82011682018060405250810190620001e891906200034d565b6001600160a01b03166101605250620002006200020a565b5050505062000374565b600054610100900460ff1615620002775760405162461bcd60e51b815260206004820152602760248201527f496e697469616c697a61626c653a20636f6e747261637420697320696e697469604482015266616c697a696e6760c81b606482015260840160405180910390fd5b60005460ff9081161015620002ca576000805460ff191660ff9081179091556040519081527f7f26b83ff96e1f2b6a682f133852f6798a09c465da95921460cefb38474024989060200160405180910390a15b565b6001600160a01b0381168114620002e257600080fd5b50565b60008060008060808587031215620002fc57600080fd5b84516200030981620002cc565b60208601519094506200031c81620002cc565b60408601519093506200032f81620002cc565b60608601519092506200034281620002cc565b939692955090935050565b6000602082840312156200036057600080fd5b81516200036d81620002cc565b9392505050565b60805160a05160c05160e051610100516101205161014051610160516151cb620004826000396000818161061001526119dc01526000818161039d0152611bef0152600081816103e901528181611ddc0152611fcc015260008181610450015281816110f9015281816116980152818161183f0152611a90015260008181610e0e01528181610f690152818161100001528181612b1a01528181612c9d0152612d3c015260008181610c3501528181610cc401528181610d4401528181612515015281816125e101528181612a580152612bf801526000818161306a01528181613126015261321201526000818161041a015281816125690152818161263d01526126bc01526151cb6000f3fe6080604052600436106101bb5760003560e01c8063715018a6116100ec578063b099627e1161008a578063e481af9d11610064578063e481af9d14610632578063f2fde38b14610647578063fc299dee14610667578063fce36c7d1461068757600080fd5b8063b099627e14610589578063b98d0908146105e4578063df5cf723146105fe57600080fd5b80639926ee7d116100c65780639926ee7d14610509578063a364f4da14610529578063a98fb35514610549578063ab21739a1461056957600080fd5b8063715018a6146104b65780638da5cb5b146104cb57806395c6d604146104e957600080fd5b80634ae07c3711610159578063683048351161013357806368304835146103d75780636b3aa72e1461040b5780636d14a9871461043e57806370a082311461047257600080fd5b80634ae07c371461034a5780635c008994146103785780635df459461461038b57600080fd5b806333cfb7b71161019557806333cfb7b7146102bd5780633bc28c8c146102ea578063416c7e5e1461030a578063485cc9551461032a57600080fd5b806306045a911461022f578063171f1d5b146102645780632dd94eba1461029b57600080fd5b3661022a5733600090815260ca6020526040812080543492906101df90849061407d565b909155505033600081815260ca60209081526040918290205491519182527f0ea46f246ccfc58f7a93aa09bc6245a6818e97b1a160d186afe78993a3b194a0910160405180910390a2005b600080fd5b34801561023b57600080fd5b5061024f61024a3660046141b9565b6106a7565b60405190151581526020015b60405180910390f35b34801561027057600080fd5b5061028461027f36600461431a565b610786565b60408051921515835290151560208301520161025b565b3480156102a757600080fd5b506102bb6102b6366004614621565b610910565b005b3480156102c957600080fd5b506102dd6102d8366004614667565b610c10565b60405161025b9190614684565b3480156102f657600080fd5b506102bb610305366004614667565b6110e3565b34801561031657600080fd5b506102bb6103253660046146df565b6110f7565b34801561033657600080fd5b506102bb6103453660046146fc565b61122e565b34801561035657600080fd5b5061036a610365366004614735565b611343565b60405161025b9291906147cf565b6102bb610386366004614860565b612296565b34801561039757600080fd5b506103bf7f000000000000000000000000000000000000000000000000000000000000000081565b6040516001600160a01b03909116815260200161025b565b3480156103e357600080fd5b506103bf7f000000000000000000000000000000000000000000000000000000000000000081565b34801561041757600080fd5b507f00000000000000000000000000000000000000000000000000000000000000006103bf565b34801561044a57600080fd5b506103bf7f000000000000000000000000000000000000000000000000000000000000000081565b34801561047e57600080fd5b506104a861048d366004614667565b6001600160a01b0316600090815260ca602052604090205490565b60405190815260200161025b565b3480156104c257600080fd5b506102bb6124d1565b3480156104d757600080fd5b506033546001600160a01b03166103bf565b3480156104f557600080fd5b5061024f6105043660046148ab565b6124e5565b34801561051557600080fd5b506102bb6105243660046148f6565b61250a565b34801561053557600080fd5b506102bb610544366004614667565b6125d6565b34801561055557600080fd5b506102bb6105643660046149a1565b61269d565b34801561057557600080fd5b506102bb6105843660046149f1565b6126f1565b34801561059557600080fd5b506105c86105a4366004614a18565b60c96020526000908152604090205463ffffffff811690600160201b900460ff1682565b6040805163ffffffff909316835290151560208301520161025b565b3480156105f057600080fd5b5060975461024f9060ff1681565b34801561060a57600080fd5b506103bf7f000000000000000000000000000000000000000000000000000000000000000081565b34801561063e57600080fd5b506102dd612a52565b34801561065357600080fd5b506102bb610662366004614667565b612e1b565b34801561067357600080fd5b506065546103bf906001600160a01b031681565b34801561069357600080fd5b506102bb6106a2366004614a31565b612e91565b60008085836040516020016106bd929190614aa5565b60408051601f198184030181529181528151602092830120600081815260c990935291205490915063ffffffff166106f957600091505061077a565b600081815260c96020526040902054600160201b900460ff1661072057600091505061077a565b60408051602081018c90529081018a9052606081018990526001600160601b03198816608082015260009060940160408051601f198184030181529190528051602082012090915061077487848389613249565b93505050505b98975050505050505050565b60008060007f30644e72e131a029b85045b68181585d2833e84879b9709143e1f593f0000001878760000151886020015188600001516000600281106107ce576107ce614ac0565b60200201518951600160200201518a602001516000600281106107f3576107f3614ac0565b60200201518b6020015160016002811061080f5761080f614ac0565b602090810291909101518c518d83015160405161086c9a99989796959401988952602089019790975260408801959095526060870193909352608086019190915260a085015260c084015260e08301526101008201526101200190565b6040516020818303038152906040528051906020012060001c61088f9190614ad6565b90506109026108a86108a18884613261565b86906132f8565b6108b061338c565b6108f86108e9856108e3604080518082018252600080825260209182015281518083019092526001825260029082015290565b90613261565b6108f28c61344c565b906132f8565b886201d4c06134dc565b909890975095505050505050565b737969c5ed335650692bc04293b07f5bf2e7a673c060005a600085815260c9602052604090205490915063ffffffff166109885760405162461bcd60e51b8152602060048201526014602482015273426174636820646f65736e27742065786973747360601b60448201526064015b60405180910390fd5b600084815260c96020526040902054600160201b900460ff16156109e85760405162461bcd60e51b815260206004820152601760248201527610985d18da08185b1c9958591e481c995cdc1bdb991959604a1b604482015260640161097f565b6001600160a01b038216600090815260ca6020526040902054610a465760405162461bcd60e51b81526020600482015260166024820152754261746368657220686173206e6f2062616c616e636560501b604482015260640161097f565b600084815260c960205260408120805464ff00000000198116600160201b179091558190610a7c90879063ffffffff1687611343565b91509150604360ff168260200151600081518110610a9c57610a9c614ac0565b6020026020010151610aae9190614af8565b6001600160601b031660648360000151600081518110610ad057610ad0614ac0565b60200260200101516001600160601b0316610aeb9190614b27565b1015610b095760405162461bcd60e51b815260040161097f90614b46565b6040516001600160a01b038516815286907f8511746b73275e06971968773119b9601fc501d7bdf3824d8754042d148940e29060200160405180910390a260005a905060003a610b598387614ba4565b610b66906201117061407d565b610b709190614b27565b6001600160a01b038716600090815260ca6020526040902054909150811115610bab5760405162461bcd60e51b815260040161097f90614bbb565b6001600160a01b038616600090815260ca602052604081208054839290610bd3908490614ba4565b9091555050604051339082156108fc029083906000818181858888f19350505050158015610c05573d6000803e3d6000fd5b505050505050505050565b6040516309aa152760e11b81526001600160a01b0382811660048301526060916000917f000000000000000000000000000000000000000000000000000000000000000016906313542a4e90602401602060405180830381865afa158015610c7c573d6000803e3d6000fd5b505050506040513d601f19601f82011682018060405250810190610ca09190614c18565b60405163871ef04960e01b8152600481018290529091506000906001600160a01b037f0000000000000000000000000000000000000000000000000000000000000000169063871ef04990602401602060405180830381865afa158015610d0b573d6000803e3d6000fd5b505050506040513d601f19601f82011682018060405250810190610d2f9190614c31565b90506001600160c01b0381161580610dc957507f00000000000000000000000000000000000000000000000000000000000000006001600160a01b0316639aa1653d6040518163ffffffff1660e01b8152600401602060405180830381865afa158015610da0573d6000803e3d6000fd5b505050506040513d601f19601f82011682018060405250810190610dc49190614c5a565b60ff16155b15610de95760408051600080825260208201909252905b50949350505050565b6000610dfd826001600160c01b0316613700565b90506000805b8251811015610ed3577f00000000000000000000000000000000000000000000000000000000000000006001600160a01b0316633ca5a5f5848381518110610e4d57610e4d614ac0565b01602001516040516001600160e01b031960e084901b16815260f89190911c6004820152602401602060405180830381865afa158015610e91573d6000803e3d6000fd5b505050506040513d601f19601f82011682018060405250810190610eb59190614c18565b610ebf908361407d565b915080610ecb81614c7d565b915050610e03565b506000816001600160401b03811115610eee57610eee614095565b604051908082528060200260200182016040528015610f17578160200160208202803683370190505b5090506000805b84518110156110d6576000858281518110610f3b57610f3b614ac0565b0160200151604051633ca5a5f560e01b815260f89190911c6004820181905291506000906001600160a01b037f00000000000000000000000000000000000000000000000000000000000000001690633ca5a5f590602401602060405180830381865afa158015610fb0573d6000803e3d6000fd5b505050506040513d601f19601f82011682018060405250810190610fd49190614c18565b905060005b818110156110c0576040516356e4026d60e11b815260ff84166004820152602481018290527f00000000000000000000000000000000000000000000000000000000000000006001600160a01b03169063adc804da906044016040805180830381865afa15801561104e573d6000803e3d6000fd5b505050506040513d601f19601f820116820180604052508101906110729190614cad565b6000015186868151811061108857611088614ac0565b6001600160a01b0390921660209283029190910190910152846110aa81614c7d565b95505080806110b890614c7d565b915050610fd9565b50505080806110ce90614c7d565b915050610f1e565b5090979650505050505050565b6110eb6137c2565b6110f48161381c565b50565b7f00000000000000000000000000000000000000000000000000000000000000006001600160a01b0316638da5cb5b6040518163ffffffff1660e01b8152600401602060405180830381865afa158015611155573d6000803e3d6000fd5b505050506040513d601f19601f820116820180604052508101906111799190614cee565b6001600160a01b0316336001600160a01b0316146112255760405162461bcd60e51b815260206004820152605c60248201527f424c535369676e6174757265436865636b65722e6f6e6c79436f6f7264696e6160448201527f746f724f776e65723a2063616c6c6572206973206e6f7420746865206f776e6560648201527f72206f6620746865207265676973747279436f6f7264696e61746f7200000000608482015260a40161097f565b6110f481613885565b600054610100900460ff161580801561124e5750600054600160ff909116105b806112685750303b158015611268575060005460ff166001145b6112cb5760405162461bcd60e51b815260206004820152602e60248201527f496e697469616c697a61626c653a20636f6e747261637420697320616c72656160448201526d191e481a5b9a5d1a585b1a5e995960921b606482015260840161097f565b6000805460ff1916600117905580156112ee576000805461ff0019166101001790555b6112f883836138cc565b801561133e576000805461ff0019169055604051600181527f7f26b83ff96e1f2b6a682f133852f6798a09c465da95921460cefb38474024989060200160405180910390a15b505050565b6040805180820190915260608082526020820152600082604001515160405180604001604052806001815260200160008152505114801561139f57508260a0015151604051806040016040528060018152602001600081525051145b80156113c657508260c0015151604051806040016040528060018152602001600081525051145b80156113ed57508260e0015151604051806040016040528060018152602001600081525051145b6114575760405162461bcd60e51b8152602060048201526041602482015260008051602061517683398151915260448201527f7265733a20696e7075742071756f72756d206c656e677468206d69736d6174636064820152600d60fb1b608482015260a40161097f565b825151602084015151146114cf5760405162461bcd60e51b815260206004820152604460248201819052600080516020615176833981519152908201527f7265733a20696e707574206e6f6e7369676e6572206c656e677468206d69736d6064820152630c2e8c6d60e31b608482015260a40161097f565b4363ffffffff168463ffffffff161061153e5760405162461bcd60e51b815260206004820152603c602482015260008051602061517683398151915260448201527f7265733a20696e76616c6964207265666572656e636520626c6f636b00000000606482015260840161097f565b60408051808201825260008082526020808301829052835180850185526060808252818301528451808601865260018082529083019390935284518381528086019095529293919082810190803683370190505060208281019190915260408051808201825260018082526000919093015280518281528082019091529081602001602082028036833701905050815260408051808201909152606080825260208201528560200151516001600160401b038111156115ff576115ff614095565b604051908082528060200260200182016040528015611628578160200160208202803683370190505b5081526020860151516001600160401b0381111561164857611648614095565b604051908082528060200260200182016040528015611671578160200160208202803683370190505b508160200181905250600061171d60405180604001604052806001815260200160008152507f00000000000000000000000000000000000000000000000000000000000000006001600160a01b0316639aa1653d6040518163ffffffff1660e01b8152600401602060405180830381865afa1580156116f4573d6000803e3d6000fd5b505050506040513d601f19601f820116820180604052508101906117189190614c5a565b61394d565b905060005b8760200151518110156119b8576117678860200151828151811061174857611748614ac0565b6020026020010151805160009081526020918201519091526040902090565b8360200151828151811061177d5761177d614ac0565b6020908102919091010152801561183d57602083015161179e600183614ba4565b815181106117ae576117ae614ac0565b602002602001015160001c836020015182815181106117cf576117cf614ac0565b602002602001015160001c1161183d576040805162461bcd60e51b815260206004820152602481019190915260008051602061517683398151915260448201527f7265733a206e6f6e5369676e65725075626b657973206e6f7420736f72746564606482015260840161097f565b7f00000000000000000000000000000000000000000000000000000000000000006001600160a01b03166304ec63518460200151838151811061188257611882614ac0565b60200260200101518b8b6000015185815181106118a1576118a1614ac0565b60200260200101516040518463ffffffff1660e01b81526004016118de9392919092835263ffffffff918216602084015216604082015260600190565b602060405180830381865afa1580156118fb573d6000803e3d6000fd5b505050506040513d601f19601f8201168201806040525081019061191f9190614c31565b6001600160c01b03168360000151828151811061193e5761193e614ac0565b6020026020010181815250506119a46108a1611978848660000151858151811061196a5761196a614ac0565b6020026020010151166139e0565b8a60200151848151811061198e5761198e614ac0565b6020026020010151613a0b90919063ffffffff16565b9450806119b081614c7d565b915050611722565b50506119c383613aef565b60975490935060ff166000816119da576000611a5c565b7f00000000000000000000000000000000000000000000000000000000000000006001600160a01b031663c448feb86040518163ffffffff1660e01b8152600401602060405180830381865afa158015611a38573d6000803e3d6000fd5b505050506040513d601f19601f82011682018060405250810190611a5c9190614c18565b905060005b604051806040016040528060018152602001600081525051811015612167578215611bed578963ffffffff16827f00000000000000000000000000000000000000000000000000000000000000006001600160a01b031663249a0c4260405180604001604052806001815260200160008152508581518110611ae557611ae5614ac0565b01602001516040516001600160e01b031960e084901b16815260f89190911c6004820152602401602060405180830381865afa158015611b29573d6000803e3d6000fd5b505050506040513d601f19601f82011682018060405250810190611b4d9190614c18565b611b57919061407d565b11611bed5760405162461bcd60e51b8152602060048201526066602482015260008051602061517683398151915260448201527f7265733a205374616b6552656769737472792075706461746573206d7573742060648201527f62652077697468696e207769746864726177616c44656c6179426c6f636b732060848201526577696e646f7760d01b60a482015260c40161097f565b7f00000000000000000000000000000000000000000000000000000000000000006001600160a01b03166368bccaac60405180604001604052806001815260200160008152508381518110611c4457611c44614ac0565b602001015160f81c60f81b60f81c8c8c60a001518581518110611c6957611c69614ac0565b60209081029190910101516040516001600160e01b031960e086901b16815260ff909316600484015263ffffffff9182166024840152166044820152606401602060405180830381865afa158015611cc5573d6000803e3d6000fd5b505050506040513d601f19601f82011682018060405250810190611ce99190614d0b565b6001600160401b031916611d0c8a60400151838151811061174857611748614ac0565b67ffffffffffffffff191614611da85760405162461bcd60e51b8152602060048201526061602482015260008051602061517683398151915260448201527f7265733a2071756f72756d41706b206861736820696e2073746f72616765206460648201527f6f6573206e6f74206d617463682070726f76696465642071756f72756d2061706084820152606b60f81b60a482015260c40161097f565b611dd889604001518281518110611dc157611dc1614ac0565b6020026020010151876132f890919063ffffffff16565b95507f00000000000000000000000000000000000000000000000000000000000000006001600160a01b031663c8294c5660405180604001604052806001815260200160008152508381518110611e3157611e31614ac0565b602001015160f81c60f81b60f81c8c8c60c001518581518110611e5657611e56614ac0565b60209081029190910101516040516001600160e01b031960e086901b16815260ff909316600484015263ffffffff9182166024840152166044820152606401602060405180830381865afa158015611eb2573d6000803e3d6000fd5b505050506040513d601f19601f82011682018060405250810190611ed69190614d36565b85602001518281518110611eec57611eec614ac0565b6001600160601b03909216602092830291909101820152850151805182908110611f1857611f18614ac0565b602002602001015185600001518281518110611f3657611f36614ac0565b60200260200101906001600160601b031690816001600160601b0316815250506000805b8a602001515181101561215257611fc586600001518281518110611f8057611f80614ac0565b602002602001015160405180604001604052806001815260200160008152508581518110611fb057611fb0614ac0565b016020015160f81c60ff161c60019081161490565b15612140577f00000000000000000000000000000000000000000000000000000000000000006001600160a01b031663f2be94ae6040518060400160405280600181526020016000815250858151811061202157612021614ac0565b602001015160f81c60f81b60f81c8e8960200151858151811061204657612046614ac0565b60200260200101518f60e00151888151811061206457612064614ac0565b6020026020010151878151811061207d5761207d614ac0565b60209081029190910101516040516001600160e01b031960e087901b16815260ff909416600485015263ffffffff92831660248501526044840191909152166064820152608401602060405180830381865afa1580156120e1573d6000803e3d6000fd5b505050506040513d601f19601f820116820180604052508101906121059190614d36565b875180518590811061211957612119614ac0565b6020026020010181815161212d9190614d53565b6001600160601b03169052506001909101905b8061214a81614c7d565b915050611f5a565b5050808061215f90614c7d565b915050611a61565b5050506000806121818a868a606001518b60800151610786565b91509150816121f25760405162461bcd60e51b8152602060048201526043602482015260008051602061517683398151915260448201527f7265733a2070616972696e6720707265636f6d70696c652063616c6c206661696064820152621b195960ea1b608482015260a40161097f565b806122535760405162461bcd60e51b8152602060048201526039602482015260008051602061517683398151915260448201527f7265733a207369676e617475726520697320696e76616c696400000000000000606482015260840161097f565b5050600087826020015160405160200161226e929190614d7b565b60408051808303601f1901815291905280516020909101209299929850919650505050505050565b600062229cd74310156122aa5750826122d6565b83336040516020016122bd929190614aa5565b6040516020818303038152906040528051906020012090505b600081815260c9602052604090205463ffffffff16156123385760405162461bcd60e51b815260206004820152601b60248201527f42617463682077617320616c7265616479207375626d69747465640000000000604482015260640161097f565b34156123a75733600090815260ca60205260408120805434929061235d90849061407d565b909155505033600081815260ca60209081526040918290205491519182527f0ea46f246ccfc58f7a93aa09bc6245a6818e97b1a160d186afe78993a3b194a0910160405180910390a25b33600090815260ca60205260409020546124035760405162461bcd60e51b815260206004820152601860248201527f426174636865722062616c616e636520697320656d7074790000000000000000604482015260640161097f565b6040805180820182526000602080830182815263ffffffff43818116865287855260c9909352928590208451815492511515600160201b0264ffffffffff19909316941693909317179091559151909186917f1871c33134a542e0ab9facf7013d27b9ed95e64d299e9919ee091c9cfcb19fa5916124849188908890614dec565b60405180910390a2847f130d3e81af62e03ed6fff5e3bb343695ec513892cfad24d286486745dcc61437334387876040516124c29493929190614e15565b60405180910390a25050505050565b6124d96137c2565b6124e36000613b8a565b565b60008184846040516124f8929190614e50565b60405180910390201490509392505050565b336001600160a01b037f000000000000000000000000000000000000000000000000000000000000000016146125525760405162461bcd60e51b815260040161097f90614e60565b604051639926ee7d60e01b81526001600160a01b037f00000000000000000000000000000000000000000000000000000000000000001690639926ee7d906125a09085908590600401614f25565b600060405180830381600087803b1580156125ba57600080fd5b505af11580156125ce573d6000803e3d6000fd5b505050505050565b336001600160a01b037f0000000000000000000000000000000000000000000000000000000000000000161461261e5760405162461bcd60e51b815260040161097f90614e60565b6040516351b27a6d60e11b81526001600160a01b0382811660048301527f0000000000000000000000000000000000000000000000000000000000000000169063a364f4da906024015b600060405180830381600087803b15801561268257600080fd5b505af1158015612696573d6000803e3d6000fd5b5050505050565b6126a56137c2565b60405163a98fb35560e01b81526001600160a01b037f0000000000000000000000000000000000000000000000000000000000000000169063a98fb35590612668908490600401614f70565b60005a90506000848460405160200161270b929190614aa5565b60408051601f198184030181529181528151602092830120600081815260c990935291205490915063ffffffff1661277c5760405162461bcd60e51b8152602060048201526014602482015273426174636820646f65736e27742065786973747360601b604482015260640161097f565b600081815260c96020526040902054600160201b900460ff16156127dc5760405162461bcd60e51b815260206004820152601760248201527610985d18da08185b1c9958591e481c995cdc1bdb991959604a1b604482015260640161097f565b6001600160a01b038416600090815260ca602052604090205461283a5760405162461bcd60e51b81526020600482015260166024820152754261746368657220686173206e6f2062616c616e636560501b604482015260640161097f565b600081815260c960205260408120805464ff00000000198116600160201b17909155819061287090849063ffffffff1687611343565b91509150604360ff16826020015160008151811061289057612890614ac0565b60200260200101516128a29190614af8565b6001600160601b0316606483600001516000815181106128c4576128c4614ac0565b60200260200101516001600160601b03166128df9190614b27565b10156128fd5760405162461bcd60e51b815260040161097f90614b46565b6040516001600160a01b038716815287907f8511746b73275e06971968773119b9601fc501d7bdf3824d8754042d148940e29060200160405180910390a260005a905060003a61294d8388614ba4565b61295a906201117061407d565b6129649190614b27565b6001600160a01b038916600090815260ca602052604090205490915081111561299f5760405162461bcd60e51b815260040161097f90614bbb565b6001600160a01b038816600090815260ca6020526040812080548392906129c7908490614ba4565b90915550506001600160a01b038816600081815260ca60209081526040918290205491519182527f0ea46f246ccfc58f7a93aa09bc6245a6818e97b1a160d186afe78993a3b194a0910160405180910390a2604051339082156108fc029083906000818181858888f19350505050158015612a46573d6000803e3d6000fd5b50505050505050505050565b606060007f00000000000000000000000000000000000000000000000000000000000000006001600160a01b0316639aa1653d6040518163ffffffff1660e01b8152600401602060405180830381865afa158015612ab4573d6000803e3d6000fd5b505050506040513d601f19601f82011682018060405250810190612ad89190614c5a565b60ff16905080612af657505060408051600081526020810190915290565b6000805b82811015612bab57604051633ca5a5f560e01b815260ff821660048201527f00000000000000000000000000000000000000000000000000000000000000006001600160a01b031690633ca5a5f590602401602060405180830381865afa158015612b69573d6000803e3d6000fd5b505050506040513d601f19601f82011682018060405250810190612b8d9190614c18565b612b97908361407d565b915080612ba381614c7d565b915050612afa565b506000816001600160401b03811115612bc657612bc6614095565b604051908082528060200260200182016040528015612bef578160200160208202803683370190505b5090506000805b7f00000000000000000000000000000000000000000000000000000000000000006001600160a01b0316639aa1653d6040518163ffffffff1660e01b8152600401602060405180830381865afa158015612c54573d6000803e3d6000fd5b505050506040513d601f19601f82011682018060405250810190612c789190614c5a565b60ff16811015612e1157604051633ca5a5f560e01b815260ff821660048201526000907f00000000000000000000000000000000000000000000000000000000000000006001600160a01b031690633ca5a5f590602401602060405180830381865afa158015612cec573d6000803e3d6000fd5b505050506040513d601f19601f82011682018060405250810190612d109190614c18565b905060005b81811015612dfc576040516356e4026d60e11b815260ff84166004820152602481018290527f00000000000000000000000000000000000000000000000000000000000000006001600160a01b03169063adc804da906044016040805180830381865afa158015612d8a573d6000803e3d6000fd5b505050506040513d601f19601f82011682018060405250810190612dae9190614cad565b60000151858581518110612dc457612dc4614ac0565b6001600160a01b039092166020928302919091019091015283612de681614c7d565b9450508080612df490614c7d565b915050612d15565b50508080612e0990614c7d565b915050612bf6565b5090949350505050565b612e236137c2565b6001600160a01b038116612e885760405162461bcd60e51b815260206004820152602660248201527f4f776e61626c653a206e6577206f776e657220697320746865207a65726f206160448201526564647265737360d01b606482015260840161097f565b6110f481613b8a565b6065546001600160a01b03163314612f265760405162461bcd60e51b815260206004820152604c60248201527f536572766963654d616e61676572426173652e6f6e6c7952657761726473496e60448201527f69746961746f723a2063616c6c6572206973206e6f742074686520726577617260648201526b32399034b734ba34b0ba37b960a11b608482015260a40161097f565b60005b818110156131fa57828282818110612f4357612f43614ac0565b9050602002810190612f559190614f83565b612f66906040810190602001614667565b6001600160a01b03166323b872dd3330868686818110612f8857612f88614ac0565b9050602002810190612f9a9190614f83565b604080516001600160e01b031960e087901b1681526001600160a01b039485166004820152939092166024840152013560448201526064016020604051808303816000875af1158015612ff1573d6000803e3d6000fd5b505050506040513d601f19601f820116820180604052508101906130159190614fae565b50600083838381811061302a5761302a614ac0565b905060200281019061303c9190614f83565b61304d906040810190602001614667565b604051636eb1769f60e11b81523060048201526001600160a01b037f000000000000000000000000000000000000000000000000000000000000000081166024830152919091169063dd62ed3e90604401602060405180830381865afa1580156130bb573d6000803e3d6000fd5b505050506040513d601f19601f820116820180604052508101906130df9190614c18565b90508383838181106130f3576130f3614ac0565b90506020028101906131059190614f83565b613116906040810190602001614667565b6001600160a01b031663095ea7b37f00000000000000000000000000000000000000000000000000000000000000008387878781811061315857613158614ac0565b905060200281019061316a9190614f83565b60400135613178919061407d565b6040516001600160e01b031960e085901b1681526001600160a01b03909216600483015260248201526044016020604051808303816000875af11580156131c3573d6000803e3d6000fd5b505050506040513d601f19601f820116820180604052508101906131e79190614fae565b5050806131f390614c7d565b9050612f29565b5060405163fce36c7d60e01b81526001600160a01b037f0000000000000000000000000000000000000000000000000000000000000000169063fce36c7d906125a09085908590600401615026565b600083613257868585613bdc565b1495945050505050565b604080518082019091526000808252602082015261327d613f8d565b835181526020808501519082015260408082018490526000908360608460076107d05a03fa90508080156132b0576132b2565bfe5b50806132f05760405162461bcd60e51b815260206004820152600d60248201526c1958cb5b5d5b0b59985a5b1959609a1b604482015260640161097f565b505092915050565b6040805180820190915260008082526020820152613314613fab565b835181526020808501518183015283516040808401919091529084015160608301526000908360808460066107d05a03fa90508080156132b05750806132f05760405162461bcd60e51b815260206004820152600d60248201526c1958cb5859190b59985a5b1959609a1b604482015260640161097f565b613394613fc9565b50604080516080810182527f198e9393920d483a7260bfb731fb5d25f1aa493335a9e71297e485b7aef312c28183019081527f1800deef121f1e76426a00665e5c4479674322d4f75edadd46debd5cd992f6ed6060830152815281518083019092527f275dc4a288d1afb3cbb1ac09187524c7db36395df7be3b99e673b13a075a65ec82527f1d9befcd05a5323e6da4d435f3b617cdb3af83285c2df711ef39c01571827f9d60208381019190915281019190915290565b60408051808201909152600080825260208201526000808061347c60008051602061515683398151915286614ad6565b90505b61348881613cd6565b90935091506000805160206151568339815191528283098314156134c2576040805180820190915290815260208101919091529392505050565b60008051602061515683398151915260018208905061347f565b60408051808201825286815260208082018690528251808401909352868352820184905260009182919061350e613fee565b60005b60028110156136d3576000613527826006614b27565b905084826002811061353b5761353b614ac0565b6020020151518361354d83600061407d565b600c811061355d5761355d614ac0565b602002015284826002811061357457613574614ac0565b6020020151602001518382600161358b919061407d565b600c811061359b5761359b614ac0565b60200201528382600281106135b2576135b2614ac0565b60200201515151836135c583600261407d565b600c81106135d5576135d5614ac0565b60200201528382600281106135ec576135ec614ac0565b602002015151600160200201518361360583600361407d565b600c811061361557613615614ac0565b602002015283826002811061362c5761362c614ac0565b60200201516020015160006002811061364757613647614ac0565b60200201518361365883600461407d565b600c811061366857613668614ac0565b602002015283826002811061367f5761367f614ac0565b60200201516020015160016002811061369a5761369a614ac0565b6020020151836136ab83600561407d565b600c81106136bb576136bb614ac0565b602002015250806136cb81614c7d565b915050613511565b506136dc61400d565b60006020826101808560088cfa9151919c9115159b50909950505050505050505050565b606060008061370e846139e0565b61ffff166001600160401b0381111561372957613729614095565b6040519080825280601f01601f191660200182016040528015613753576020820181803683370190505b5090506000805b82518210801561376b575061010081105b15612e11576001811b9350858416156137b2578060f81b83838151811061379457613794614ac0565b60200101906001600160f81b031916908160001a9053508160010191505b6137bb81614c7d565b905061375a565b6033546001600160a01b031633146124e35760405162461bcd60e51b815260206004820181905260248201527f4f776e61626c653a2063616c6c6572206973206e6f7420746865206f776e6572604482015260640161097f565b606554604080516001600160a01b03928316815291831660208301527fe11cddf1816a43318ca175bbc52cd0185436e9cbead7c83acc54a73e461717e3910160405180910390a1606580546001600160a01b0319166001600160a01b0392909216919091179055565b6097805460ff19168215159081179091556040519081527f40e4ed880a29e0f6ddce307457fb75cddf4feef7d3ecb0301bfdf4976a0e2dfc9060200160405180910390a150565b600054610100900460ff166139375760405162461bcd60e51b815260206004820152602b60248201527f496e697469616c697a61626c653a20636f6e7472616374206973206e6f74206960448201526a6e697469616c697a696e6760a81b606482015260840161097f565b61394082613b8a565b6139498161381c565b5050565b60008061395984613d58565b9050808360ff166001901b116139d75760405162461bcd60e51b815260206004820152603f60248201527f4269746d61705574696c732e6f72646572656442797465734172726179546f4260448201527f69746d61703a206269746d61702065786365656473206d61782076616c756500606482015260840161097f565b90505b92915050565b6000805b82156139da576139f5600184614ba4565b9092169180613a0381615133565b9150506139e4565b60408051808201909152600080825260208201526102008261ffff1610613a675760405162461bcd60e51b815260206004820152601060248201526f7363616c61722d746f6f2d6c6172676560801b604482015260640161097f565b8161ffff1660011415613a7b5750816139da565b6040805180820190915260008082526020820181905284906001905b8161ffff168661ffff1610613ae457600161ffff871660ff83161c81161415613ac757613ac484846132f8565b93505b613ad183846132f8565b92506201fffe600192831b169101613a97565b509195945050505050565b60408051808201909152600080825260208201528151158015613b1457506020820151155b15613b32575050604080518082019091526000808252602082015290565b6040518060400160405280836000015181526020016000805160206151568339815191528460200151613b659190614ad6565b613b7d90600080516020615156833981519152614ba4565b905292915050565b919050565b603380546001600160a01b038381166001600160a01b0319831681179093556040519116919082907f8be0079c531659141344cd1fd0a4f28419497f9722a3daafe3b4186f6b6457e090600090a35050565b600060208451613bec9190614ad6565b15613c735760405162461bcd60e51b815260206004820152604b60248201527f4d65726b6c652e70726f63657373496e636c7573696f6e50726f6f664b65636360448201527f616b3a2070726f6f66206c656e6774682073686f756c642062652061206d756c60648201526a3a34b836329037b310199960a91b608482015260a40161097f565b8260205b85518111610de057613c8a600285614ad6565b613cab57816000528086015160205260406000209150600284049350613cc4565b8086015160005281602052604060002091506002840493505b613ccf60208261407d565b9050613c77565b60008080600080516020615156833981519152600360008051602061515683398151915286600080516020615156833981519152888909090890506000613d4c827f0c19139cb84c680a6e14116da060561765e05aa45a1c72a34f082305b61f3f52600080516020615156833981519152613ee5565b91959194509092505050565b600061010082511115613de15760405162461bcd60e51b8152602060048201526044602482018190527f4269746d61705574696c732e6f72646572656442797465734172726179546f42908201527f69746d61703a206f7264657265644279746573417272617920697320746f6f206064820152636c6f6e6760e01b608482015260a40161097f565b8151613def57506000919050565b60008083600081518110613e0557613e05614ac0565b0160200151600160f89190911c81901b92505b8451811015613edc57848181518110613e3357613e33614ac0565b0160200151600160f89190911c1b9150828211613ec85760405162461bcd60e51b815260206004820152604760248201527f4269746d61705574696c732e6f72646572656442797465734172726179546f4260448201527f69746d61703a206f72646572656442797465734172726179206973206e6f74206064820152661bdc99195c995960ca1b608482015260a40161097f565b91811791613ed581614c7d565b9050613e18565b50909392505050565b600080613ef061400d565b613ef861402b565b602080825281810181905260408201819052606082018890526080820187905260a082018690528260c08360056107d05a03fa92508280156132b0575082613f825760405162461bcd60e51b815260206004820152601a60248201527f424e3235342e6578704d6f643a2063616c6c206661696c757265000000000000604482015260640161097f565b505195945050505050565b60405180606001604052806003906020820280368337509192915050565b60405180608001604052806004906020820280368337509192915050565b6040518060400160405280613fdc614049565b8152602001613fe9614049565b905290565b604051806101800160405280600c906020820280368337509192915050565b60405180602001604052806001906020820280368337509192915050565b6040518060c001604052806006906020820280368337509192915050565b60405180604001604052806002906020820280368337509192915050565b634e487b7160e01b600052601160045260246000fd5b6000821982111561409057614090614067565b500190565b634e487b7160e01b600052604160045260246000fd5b604080519081016001600160401b03811182821017156140cd576140cd614095565b60405290565b60405161010081016001600160401b03811182821017156140cd576140cd614095565b604051601f8201601f191681016001600160401b038111828210171561411e5761411e614095565b604052919050565b60006001600160401b0383111561413f5761413f614095565b614152601f8401601f19166020016140f6565b905082815283838301111561416657600080fd5b828260208301376000602084830101529392505050565b600082601f83011261418e57600080fd5b61419d83833560208501614126565b9392505050565b6001600160a01b03811681146110f457600080fd5b600080600080600080600080610100898b0312156141d657600080fd5b88359750602089013596506040890135955060608901356001600160601b03198116811461420357600080fd5b94506080890135935060a08901356001600160401b0381111561422557600080fd5b6142318b828c0161417d565b93505060c0890135915060e0890135614249816141a4565b809150509295985092959890939650565b60006040828403121561426c57600080fd5b6142746140ab565b9050813581526020820135602082015292915050565b600082601f83011261429b57600080fd5b6142a36140ab565b8060408401858111156142b557600080fd5b845b818110156142cf5780358452602093840193016142b7565b509095945050505050565b6000608082840312156142ec57600080fd5b6142f46140ab565b9050614300838361428a565b815261430f836040840161428a565b602082015292915050565b600080600080610120858703121561433157600080fd5b84359350614342866020870161425a565b925061435186606087016142da565b91506143608660e0870161425a565b905092959194509250565b60006001600160401b0382111561438457614384614095565b5060051b60200190565b803563ffffffff81168114613b8557600080fd5b600082601f8301126143b357600080fd5b813560206143c86143c38361436b565b6140f6565b82815260059290921b840181019181810190868411156143e757600080fd5b8286015b84811015614409576143fc8161438e565b83529183019183016143eb565b509695505050505050565b600082601f83011261442557600080fd5b813560206144356143c38361436b565b82815260069290921b8401810191818101908684111561445457600080fd5b8286015b848110156144095761446a888261425a565b835291830191604001614458565b600082601f83011261448957600080fd5b813560206144996143c38361436b565b82815260059290921b840181019181810190868411156144b857600080fd5b8286015b848110156144095780356001600160401b038111156144db5760008081fd5b6144e98986838b01016143a2565b8452509183019183016144bc565b6000610180828403121561450a57600080fd5b6145126140d3565b905081356001600160401b038082111561452b57600080fd5b614537858386016143a2565b8352602084013591508082111561454d57600080fd5b61455985838601614414565b6020840152604084013591508082111561457257600080fd5b61457e85838601614414565b604084015261459085606086016142da565b60608401526145a28560e0860161425a565b60808401526101208401359150808211156145bc57600080fd5b6145c8858386016143a2565b60a08401526101408401359150808211156145e257600080fd5b6145ee858386016143a2565b60c084015261016084013591508082111561460857600080fd5b5061461584828501614478565b60e08301525092915050565b6000806040838503121561463457600080fd5b8235915060208301356001600160401b0381111561465157600080fd5b61465d858286016144f7565b9150509250929050565b60006020828403121561467957600080fd5b81356139d7816141a4565b6020808252825182820181905260009190848201906040850190845b818110156146c55783516001600160a01b0316835292840192918401916001016146a0565b50909695505050505050565b80151581146110f457600080fd5b6000602082840312156146f157600080fd5b81356139d7816146d1565b6000806040838503121561470f57600080fd5b823561471a816141a4565b9150602083013561472a816141a4565b809150509250929050565b60008060006060848603121561474a57600080fd5b8335925061475a6020850161438e565b915060408401356001600160401b0381111561477557600080fd5b614781868287016144f7565b9150509250925092565b600081518084526020808501945080840160005b838110156147c45781516001600160601b03168752958201959082019060010161479f565b509495945050505050565b60408152600083516040808401526147ea608084018261478b565b90506020850151603f19848303016060850152614807828261478b565b925050508260208301529392505050565b60008083601f84011261482a57600080fd5b5081356001600160401b0381111561484157600080fd5b60208301915083602082850101111561485957600080fd5b9250929050565b60008060006040848603121561487557600080fd5b8335925060208401356001600160401b0381111561489257600080fd5b61489e86828701614818565b9497909650939450505050565b6000806000604084860312156148c057600080fd5b83356001600160401b038111156148d657600080fd5b6148e286828701614818565b909790965060209590950135949350505050565b6000806040838503121561490957600080fd5b8235614914816141a4565b915060208301356001600160401b038082111561493057600080fd5b908401906060828703121561494457600080fd5b60405160608101818110838211171561495f5761495f614095565b60405282358281111561497157600080fd5b61497d8882860161417d565b82525060208301356020820152604083013560408201528093505050509250929050565b6000602082840312156149b357600080fd5b81356001600160401b038111156149c957600080fd5b8201601f810184136149da57600080fd5b6149e984823560208401614126565b949350505050565b600080600060608486031215614a0657600080fd5b83359250602084013561475a816141a4565b600060208284031215614a2a57600080fd5b5035919050565b60008060208385031215614a4457600080fd5b82356001600160401b0380821115614a5b57600080fd5b818501915085601f830112614a6f57600080fd5b813581811115614a7e57600080fd5b8660208260051b8501011115614a9357600080fd5b60209290920196919550909350505050565b91825260601b6001600160601b031916602082015260340190565b634e487b7160e01b600052603260045260246000fd5b600082614af357634e487b7160e01b600052601260045260246000fd5b500690565b60006001600160601b0380831681851681830481118215151615614b1e57614b1e614067565b02949350505050565b6000816000190483118215151615614b4157614b41614067565b500290565b602080825260409082018190527f5369676e61746f7269657320646f206e6f74206f776e206174206c6561737420908201527f7468726573686f6c642070657263656e74616765206f6620612071756f72756d606082015260800190565b600082821015614bb657614bb6614067565b500390565b6020808252603c908201527f4261746368657220686173206e6f742073756666696369656e742066756e647360408201527f20666f7220706179696e672074686973207472616e73616374696f6e00000000606082015260800190565b600060208284031215614c2a57600080fd5b5051919050565b600060208284031215614c4357600080fd5b81516001600160c01b03811681146139d757600080fd5b600060208284031215614c6c57600080fd5b815160ff811681146139d757600080fd5b6000600019821415614c9157614c91614067565b5060010190565b6001600160601b03811681146110f457600080fd5b600060408284031215614cbf57600080fd5b614cc76140ab565b8251614cd2816141a4565b81526020830151614ce281614c98565b60208201529392505050565b600060208284031215614d0057600080fd5b81516139d7816141a4565b600060208284031215614d1d57600080fd5b815167ffffffffffffffff19811681146139d757600080fd5b600060208284031215614d4857600080fd5b81516139d781614c98565b60006001600160601b0383811690831681811015614d7357614d73614067565b039392505050565b63ffffffff60e01b8360e01b1681526000600482018351602080860160005b83811015614db657815185529382019390820190600101614d9a565b5092979650505050505050565b81835281816020850137506000828201602090810191909152601f909101601f19169091010190565b63ffffffff84168152604060208201526000614e0c604083018486614dc3565b95945050505050565b6001600160a01b038516815263ffffffff84166020820152606060408201819052600090614e469083018486614dc3565b9695505050505050565b8183823760009101908152919050565b60208082526052908201527f536572766963654d616e61676572426173652e6f6e6c7952656769737472794360408201527f6f6f7264696e61746f723a2063616c6c6572206973206e6f742074686520726560608201527133b4b9ba393c9031b7b7b93234b730ba37b960711b608082015260a00190565b6000815180845260005b81811015614efe57602081850181015186830182015201614ee2565b81811115614f10576000602083870101525b50601f01601f19169290920160200192915050565b60018060a01b0383168152604060208201526000825160606040840152614f4f60a0840182614ed8565b90506020840151606084015260408401516080840152809150509392505050565b60208152600061419d6020830184614ed8565b60008235609e19833603018112614f9957600080fd5b9190910192915050565b8035613b85816141a4565b600060208284031215614fc057600080fd5b81516139d7816146d1565b8183526000602080850194508260005b858110156147c4578135614fee816141a4565b6001600160a01b031687528183013561500681614c98565b6001600160601b0316878401526040968701969190910190600101614fdb565b60208082528181018390526000906040808401600586901b8501820187855b8881101561512557878303603f190184528135368b9003609e1901811261506b57600080fd5b8a0160a0813536839003601e1901811261508457600080fd5b820180356001600160401b0381111561509c57600080fd5b8060061b36038413156150ae57600080fd5b8287526150c0838801828c8501614fcb565b925050506150cf888301614fa3565b6001600160a01b031688860152818701358786015260606150f181840161438e565b63ffffffff1690860152608061510883820161438e565b63ffffffff16950194909452509285019290850190600101615045565b509098975050505050505050565b600061ffff8083168181141561514b5761514b614067565b600101939250505056fe30644e72e131a029b85045b68181585d97816a916871ca8d3c208c16d87cfd47424c535369676e6174757265436865636b65722e636865636b5369676e617475a264697066735822122015291e7c0ca7fb3106e540fb13a51d69bcee5541091c650c9b3526c6fcc77b4964736f6c634300080c0033","linkReferences":{}},"methodIdentifiers":{"avsDirectory()":"6b3aa72e","balanceOf(address)":"70a08231","batchesState(bytes32)":"b099627e","blsApkRegistry()":"5df45946","checkPublicInput(bytes,bytes32)":"95c6d604","checkSignatures(bytes32,uint32,(uint32[],(uint256,uint256)[],(uint256,uint256)[],(uint256[2],uint256[2]),(uint256,uint256),uint32[],uint32[],uint32[][]))":"4ae07c37","createAVSRewardsSubmission(((address,uint96)[],address,uint256,uint32,uint32)[])":"fce36c7d","createNewTask(bytes32,string)":"5c008994","delegation()":"df5cf723","deregisterOperatorFromAVS(address)":"a364f4da","getOperatorRestakedStrategies(address)":"33cfb7b7","getRestakeableStrategies()":"e481af9d","initialize(address,address)":"485cc955","owner()":"8da5cb5b","registerOperatorToAVS(address,(bytes,bytes32,uint256))":"9926ee7d","registryCoordinator()":"6d14a987","renounceOwnership()":"715018a6","respondToTask(bytes32,(uint32[],(uint256,uint256)[],(uint256,uint256)[],(uint256[2],uint256[2]),(uint256,uint256),uint32[],uint32[],uint32[][]))":"2dd94eba","respondToTaskV2(bytes32,address,(uint32[],(uint256,uint256)[],(uint256,uint256)[],(uint256[2],uint256[2]),(uint256,uint256),uint32[],uint32[],uint32[][]))":"ab21739a","rewardsInitiator()":"fc299dee","setRewardsInitiator(address)":"3bc28c8c","setStaleStakesForbidden(bool)":"416c7e5e","stakeRegistry()":"68304835","staleStakesForbidden()":"b98d0908","transferOwnership(address)":"f2fde38b","trySignatureAndApkVerification(bytes32,(uint256,uint256),(uint256[2],uint256[2]),(uint256,uint256))":"171f1d5b","updateAVSMetadataURI(string)":"a98fb355","verifyBatchInclusion(bytes32,bytes32,bytes32,bytes20,bytes32,bytes,uint256,address)":"06045a91"},"id":171}