{"abi":[{"type":"constructor","inputs":[{"name":"__avsDirectory","type":"address","internalType":"contract IAVSDirectory"},{"name":"__rewardsCoordinator","type":"address","internalType":"contract IRewardsCoordinator"},{"name":"__registryCoordinator","type":"address","internalType":"contract IRegistryCoordinator"},{"name":"__stakeRegistry","type":"address","internalType":"contract IStakeRegistry"}],"stateMutability":"nonpayable"},{"type":"receive","stateMutability":"payable"},{"type":"function","name":"alignedAggregator","inputs":[],"outputs":[{"name":"","type":"address","internalType":"address"}],"stateMutability":"view"},{"type":"function","name":"avsDirectory","inputs":[],"outputs":[{"name":"","type":"address","internalType":"address"}],"stateMutability":"view"},{"type":"function","name":"balanceOf","inputs":[{"name":"account","type":"address","internalType":"address"}],"outputs":[{"name":"","type":"uint256","internalType":"uint256"}],"stateMutability":"view"},{"type":"function","name":"batchersBalances","inputs":[{"name":"","type":"address","internalType":"address"}],"outputs":[{"name":"","type":"uint256","internalType":"uint256"}],"stateMutability":"view"},{"type":"function","name":"batchesState","inputs":[{"name":"","type":"bytes32","internalType":"bytes32"}],"outputs":[{"name":"taskCreatedBlock","type":"uint32","internalType":"uint32"},{"name":"responded","type":"bool","internalType":"bool"},{"name":"respondToTaskFeeLimit","type":"uint256","internalType":"uint256"}],"stateMutability":"view"},{"type":"function","name":"blsApkRegistry","inputs":[],"outputs":[{"name":"","type":"address","internalType":"contract IBLSApkRegistry"}],"stateMutability":"view"},{"type":"function","name":"checkPublicInput","inputs":[{"name":"publicInput","type":"bytes","internalType":"bytes"},{"name":"hash","type":"bytes32","internalType":"bytes32"}],"outputs":[{"name":"","type":"bool","internalType":"bool"}],"stateMutability":"pure"},{"type":"function","name":"checkSignatures","inputs":[{"name":"msgHash","type":"bytes32","internalType":"bytes32"},{"name":"referenceBlockNumber","type":"uint32","internalType":"uint32"},{"name":"params","type":"tuple","internalType":"struct IBLSSignatureChecker.NonSignerStakesAndSignature","components":[{"name":"nonSignerQuorumBitmapIndices","type":"uint32[]","internalType":"uint32[]"},{"name":"nonSignerPubkeys","type":"tuple[]","internalType":"struct BN254.G1Point[]","components":[{"name":"X","type":"uint256","internalType":"uint256"},{"name":"Y","type":"uint256","internalType":"uint256"}]},{"name":"quorumApks","type":"tuple[]","internalType":"struct BN254.G1Point[]","components":[{"name":"X","type":"uint256","internalType":"uint256"},{"name":"Y","type":"uint256","internalType":"uint256"}]},{"name":"apkG2","type":"tuple","internalType":"struct BN254.G2Point","components":[{"name":"X","type":"uint256[2]","internalType":"uint256[2]"},{"name":"Y","type":"uint256[2]","internalType":"uint256[2]"}]},{"name":"sigma","type":"tuple","internalType":"struct BN254.G1Point","components":[{"name":"X","type":"uint256","internalType":"uint256"},{"name":"Y","type":"uint256","internalType":"uint256"}]},{"name":"quorumApkIndices","type":"uint32[]","internalType":"uint32[]"},{"name":"totalStakeIndices","type":"uint32[]","internalType":"uint32[]"},{"name":"nonSignerStakeIndices","type":"uint32[][]","internalType":"uint32[][]"}]}],"outputs":[{"name":"","type":"tuple","internalType":"struct IBLSSignatureChecker.QuorumStakeTotals","components":[{"name":"signedStakeForQuorum","type":"uint96[]","internalType":"uint96[]"},{"name":"totalStakeForQuorum","type":"uint96[]","internalType":"uint96[]"}]},{"name":"","type":"bytes32","internalType":"bytes32"}],"stateMutability":"view"},{"type":"function","name":"createAVSRewardsSubmission","inputs":[{"name":"rewardsSubmissions","type":"tuple[]","internalType":"struct IRewardsCoordinator.RewardsSubmission[]","components":[{"name":"strategiesAndMultipliers","type":"tuple[]","internalType":"struct IRewardsCoordinator.StrategyAndMultiplier[]","components":[{"name":"strategy","type":"address","internalType":"contract IStrategy"},{"name":"multiplier","type":"uint96","internalType":"uint96"}]},{"name":"token","type":"address","internalType":"contract IERC20"},{"name":"amount","type":"uint256","internalType":"uint256"},{"name":"startTimestamp","type":"uint32","internalType":"uint32"},{"name":"duration","type":"uint32","internalType":"uint32"}]}],"outputs":[],"stateMutability":"nonpayable"},{"type":"function","name":"createNewTask","inputs":[{"name":"batchMerkleRoot","type":"bytes32","internalType":"bytes32"},{"name":"batchDataPointer","type":"string","internalType":"string"},{"name":"respondToTaskFeeLimit","type":"uint256","internalType":"uint256"}],"outputs":[],"stateMutability":"payable"},{"type":"function","name":"delegation","inputs":[],"outputs":[{"name":"","type":"address","internalType":"contract IDelegationManager"}],"stateMutability":"view"},{"type":"function","name":"depositToBatcher","inputs":[{"name":"account","type":"address","internalType":"address"}],"outputs":[],"stateMutability":"payable"},{"type":"function","name":"deregisterOperatorFromAVS","inputs":[{"name":"operator","type":"address","internalType":"address"}],"outputs":[],"stateMutability":"nonpayable"},{"type":"function","name":"getOperatorRestakedStrategies","inputs":[{"name":"operator","type":"address","internalType":"address"}],"outputs":[{"name":"","type":"address[]","internalType":"address[]"}],"stateMutability":"view"},{"type":"function","name":"getRestakeableStrategies","inputs":[],"outputs":[{"name":"","type":"address[]","internalType":"address[]"}],"stateMutability":"view"},{"type":"function","name":"initialize","inputs":[{"name":"_initialOwner","type":"address","internalType":"address"},{"name":"_rewardsInitiator","type":"address","internalType":"address"},{"name":"_alignedAggregator","type":"address","internalType":"address"}],"outputs":[],"stateMutability":"nonpayable"},{"type":"function","name":"initializeAggregator","inputs":[{"name":"_alignedAggregator","type":"address","internalType":"address"}],"outputs":[],"stateMutability":"nonpayable"},{"type":"function","name":"owner","inputs":[],"outputs":[{"name":"","type":"address","internalType":"address"}],"stateMutability":"view"},{"type":"function","name":"registerOperatorToAVS","inputs":[{"name":"operator","type":"address","internalType":"address"},{"name":"operatorSignature","type":"tuple","internalType":"struct ISignatureUtils.SignatureWithSaltAndExpiry","components":[{"name":"signature","type":"bytes","internalType":"bytes"},{"name":"salt","type":"bytes32","internalType":"bytes32"},{"name":"expiry","type":"uint256","internalType":"uint256"}]}],"outputs":[],"stateMutability":"nonpayable"},{"type":"function","name":"registryCoordinator","inputs":[],"outputs":[{"name":"","type":"address","internalType":"contract IRegistryCoordinator"}],"stateMutability":"view"},{"type":"function","name":"renounceOwnership","inputs":[],"outputs":[],"stateMutability":"nonpayable"},{"type":"function","name":"respondToTaskV2","inputs":[{"name":"batchMerkleRoot","type":"bytes32","internalType":"bytes32"},{"name":"senderAddress","type":"address","internalType":"address"},{"name":"nonSignerStakesAndSignature","type":"tuple","internalType":"struct IBLSSignatureChecker.NonSignerStakesAndSignature","components":[{"name":"nonSignerQuorumBitmapIndices","type":"uint32[]","internalType":"uint32[]"},{"name":"nonSignerPubkeys","type":"tuple[]","internalType":"struct BN254.G1Point[]","components":[{"name":"X","type":"uint256","internalType":"uint256"},{"name":"Y","type":"uint256","internalType":"uint256"}]},{"name":"quorumApks","type":"tuple[]","internalType":"struct BN254.G1Point[]","components":[{"name":"X","type":"uint256","internalType":"uint256"},{"name":"Y","type":"uint256","internalType":"uint256"}]},{"name":"apkG2","type":"tuple","internalType":"struct BN254.G2Point","components":[{"name":"X","type":"uint256[2]","internalType":"uint256[2]"},{"name":"Y","type":"uint256[2]","internalType":"uint256[2]"}]},{"name":"sigma","type":"tuple","internalType":"struct BN254.G1Point","components":[{"name":"X","type":"uint256","internalType":"uint256"},{"name":"Y","type":"uint256","internalType":"uint256"}]},{"name":"quorumApkIndices","type":"uint32[]","internalType":"uint32[]"},{"name":"totalStakeIndices","type":"uint32[]","internalType":"uint32[]"},{"name":"nonSignerStakeIndices","type":"uint32[][]","internalType":"uint32[][]"}]}],"outputs":[],"stateMutability":"nonpayable"},{"type":"function","name":"rewardsInitiator","inputs":[],"outputs":[{"name":"","type":"address","internalType":"address"}],"stateMutability":"view"},{"type":"function","name":"setAggregator","inputs":[{"name":"_alignedAggregator","type":"address","internalType":"address"}],"outputs":[],"stateMutability":"nonpayable"},{"type":"function","name":"setRewardsInitiator","inputs":[{"name":"newRewardsInitiator","type":"address","internalType":"address"}],"outputs":[],"stateMutability":"nonpayable"},{"type":"function","name":"setStaleStakesForbidden","inputs":[{"name":"value","type":"bool","internalType":"bool"}],"outputs":[],"stateMutability":"nonpayable"},{"type":"function","name":"stakeRegistry","inputs":[],"outputs":[{"name":"","type":"address","internalType":"contract IStakeRegistry"}],"stateMutability":"view"},{"type":"function","name":"staleStakesForbidden","inputs":[],"outputs":[{"name":"","type":"bool","internalType":"bool"}],"stateMutability":"view"},{"type":"function","name":"transferOwnership","inputs":[{"name":"newOwner","type":"address","internalType":"address"}],"outputs":[],"stateMutability":"nonpayable"},{"type":"function","name":"trySignatureAndApkVerification","inputs":[{"name":"msgHash","type":"bytes32","internalType":"bytes32"},{"name":"apk","type":"tuple","internalType":"struct BN254.G1Point","components":[{"name":"X","type":"uint256","internalType":"uint256"},{"name":"Y","type":"uint256","internalType":"uint256"}]},{"name":"apkG2","type":"tuple","internalType":"struct BN254.G2Point","components":[{"name":"X","type":"uint256[2]","internalType":"uint256[2]"},{"name":"Y","type":"uint256[2]","internalType":"uint256[2]"}]},{"name":"sigma","type":"tuple","internalType":"struct BN254.G1Point","components":[{"name":"X","type":"uint256","internalType":"uint256"},{"name":"Y","type":"uint256","internalType":"uint256"}]}],"outputs":[{"name":"pairingSuccessful","type":"bool","internalType":"bool"},{"name":"siganatureIsValid","type":"bool","internalType":"bool"}],"stateMutability":"view"},{"type":"function","name":"updateAVSMetadataURI","inputs":[{"name":"_metadataURI","type":"string","internalType":"string"}],"outputs":[],"stateMutability":"nonpayable"},{"type":"function","name":"verifyBatchInclusion","inputs":[{"name":"proofCommitment","type":"bytes32","internalType":"bytes32"},{"name":"pubInputCommitment","type":"bytes32","internalType":"bytes32"},{"name":"provingSystemAuxDataCommitment","type":"bytes32","internalType":"bytes32"},{"name":"proofGeneratorAddr","type":"bytes20","internalType":"bytes20"},{"name":"batchMerkleRoot","type":"bytes32","internalType":"bytes32"},{"name":"merkleProof","type":"bytes","internalType":"bytes"},{"name":"verificationDataBatchIndex","type":"uint256","internalType":"uint256"},{"name":"senderAddress","type":"address","internalType":"address"}],"outputs":[{"name":"","type":"bool","internalType":"bool"}],"stateMutability":"view"},{"type":"function","name":"verifyBatchInclusion","inputs":[{"name":"proofCommitment","type":"bytes32","internalType":"bytes32"},{"name":"pubInputCommitment","type":"bytes32","internalType":"bytes32"},{"name":"provingSystemAuxDataCommitment","type":"bytes32","internalType":"bytes32"},{"name":"proofGeneratorAddr","type":"bytes20","internalType":"bytes20"},{"name":"batchMerkleRoot","type":"bytes32","internalType":"bytes32"},{"name":"merkleProof","type":"bytes","internalType":"bytes"},{"name":"verificationDataBatchIndex","type":"uint256","internalType":"uint256"}],"outputs":[{"name":"","type":"bool","internalType":"bool"}],"stateMutability":"view"},{"type":"function","name":"withdraw","inputs":[{"name":"amount","type":"uint256","internalType":"uint256"}],"outputs":[],"stateMutability":"nonpayable"},{"type":"event","name":"BatchVerified","inputs":[{"name":"batchMerkleRoot","type":"bytes32","indexed":true,"internalType":"bytes32"},{"name":"senderAddress","type":"address","indexed":false,"internalType":"address"}],"anonymous":false},{"type":"event","name":"BatcherBalanceUpdated","inputs":[{"name":"batcher","type":"address","indexed":true,"internalType":"address"},{"name":"newBalance","type":"uint256","indexed":false,"internalType":"uint256"}],"anonymous":false},{"type":"event","name":"Initialized","inputs":[{"name":"version","type":"uint8","indexed":false,"internalType":"uint8"}],"anonymous":false},{"type":"event","name":"NewBatchV2","inputs":[{"name":"batchMerkleRoot","type":"bytes32","indexed":true,"internalType":"bytes32"},{"name":"senderAddress","type":"address","indexed":false,"internalType":"address"},{"name":"taskCreatedBlock","type":"uint32","indexed":false,"internalType":"uint32"},{"name":"batchDataPointer","type":"string","indexed":false,"internalType":"string"}],"anonymous":false},{"type":"event","name":"NewBatchV3","inputs":[{"name":"batchMerkleRoot","type":"bytes32","indexed":true,"internalType":"bytes32"},{"name":"senderAddress","type":"address","indexed":false,"internalType":"address"},{"name":"taskCreatedBlock","type":"uint32","indexed":false,"internalType":"uint32"},{"name":"batchDataPointer","type":"string","indexed":false,"internalType":"string"},{"name":"respondToTaskFeeLimit","type":"uint256","indexed":false,"internalType":"uint256"}],"anonymous":false},{"type":"event","name":"OwnershipTransferred","inputs":[{"name":"previousOwner","type":"address","indexed":true,"internalType":"address"},{"name":"newOwner","type":"address","indexed":true,"internalType":"address"}],"anonymous":false},{"type":"event","name":"RewardsInitiatorUpdated","inputs":[{"name":"prevRewardsInitiator","type":"address","indexed":false,"internalType":"address"},{"name":"newRewardsInitiator","type":"address","indexed":false,"internalType":"address"}],"anonymous":false},{"type":"event","name":"StaleStakesForbiddenUpdate","inputs":[{"name":"value","type":"bool","indexed":false,"internalType":"bool"}],"anonymous":false},{"type":"error","name":"BatchAlreadyResponded","inputs":[{"name":"batchIdentifierHash","type":"bytes32","internalType":"bytes32"}]},{"type":"error","name":"BatchAlreadySubmitted","inputs":[{"name":"batchIdentifierHash","type":"bytes32","internalType":"bytes32"}]},{"type":"error","name":"BatchDoesNotExist","inputs":[{"name":"batchIdentifierHash","type":"bytes32","internalType":"bytes32"}]},{"type":"error","name":"ExceededMaxRespondFee","inputs":[{"name":"respondToTaskFeeLimit","type":"uint256","internalType":"uint256"},{"name":"txCost","type":"uint256","internalType":"uint256"}]},{"type":"error","name":"InsufficientFunds","inputs":[{"name":"batcher","type":"address","internalType":"address"},{"name":"required","type":"uint256","internalType":"uint256"},{"name":"available","type":"uint256","internalType":"uint256"}]},{"type":"error","name":"InvalidDepositAmount","inputs":[{"name":"amount","type":"uint256","internalType":"uint256"}]},{"type":"error","name":"InvalidQuorumThreshold","inputs":[{"name":"signedStake","type":"uint256","internalType":"uint256"},{"name":"requiredStake","type":"uint256","internalType":"uint256"}]},{"type":"error","name":"SenderIsNotAggregator","inputs":[{"name":"sender","type":"address","internalType":"address"},{"name":"alignedAggregator","type":"address","internalType":"address"}]}],"bytecode":{"object":"0x6101806040523480156200001257600080fd5b50604051620056ab380380620056ab8339810160408190526200003591620002e5565b6001600160a01b0380851660805280841660a05280831660c052811660e0528184848284620000636200020a565b50505050806001600160a01b0316610100816001600160a01b031681525050806001600160a01b031663683048356040518163ffffffff1660e01b8152600401602060405180830381865afa158015620000c1573d6000803e3d6000fd5b505050506040513d601f19601f82011682018060405250810190620000e791906200034d565b6001600160a01b0316610120816001600160a01b031681525050806001600160a01b0316635df459466040518163ffffffff1660e01b8152600401602060405180830381865afa15801562000140573d6000803e3d6000fd5b505050506040513d601f19601f820116820180604052508101906200016691906200034d565b6001600160a01b0316610140816001600160a01b031681525050610120516001600160a01b031663df5cf7236040518163ffffffff1660e01b8152600401602060405180830381865afa158015620001c2573d6000803e3d6000fd5b505050506040513d601f19601f82011682018060405250810190620001e891906200034d565b6001600160a01b03166101605250620002006200020a565b5050505062000374565b600054610100900460ff1615620002775760405162461bcd60e51b815260206004820152602760248201527f496e697469616c697a61626c653a20636f6e747261637420697320696e697469604482015266616c697a696e6760c81b606482015260840160405180910390fd5b60005460ff9081161015620002ca576000805460ff191660ff9081179091556040519081527f7f26b83ff96e1f2b6a682f133852f6798a09c465da95921460cefb38474024989060200160405180910390a15b565b6001600160a01b0381168114620002e257600080fd5b50565b60008060008060808587031215620002fc57600080fd5b84516200030981620002cc565b60208601519094506200031c81620002cc565b60408601519093506200032f81620002cc565b60608601519092506200034281620002cc565b939692955090935050565b6000602082840312156200036057600080fd5b81516200036d81620002cc565b9392505050565b60805160a05160c05160e05161010051610120516101405161016051615229620004826000396000818161065401526117dd01526000818161039701526119f00152600081816103cb01528181611bdd0152611dcd0152600081816104320152818161100f015281816114a30152818161164a0152611891015260008181610d4401528181610e9501528181610f2c01528181612aae01528181612c270152612cc6015260008181610b6b01528181610bfa01528181610c7a0152818161216601528181612232015281816129e90152612b8201526000818161307d01528181613139015261321c0152600081816103fc015281816121ba0152818161228e015261230d01526152296000f3fe6080604052600436106101fd5760003560e01c806395c6d6041161010d578063d66eaabd116100a0578063f474b5201161006f578063f474b520146106ab578063f9120af6146106d8578063fa534dc0146106f8578063fc299dee14610718578063fce36c7d1461073857600080fd5b8063d66eaabd1461062f578063df5cf72314610642578063e481af9d14610676578063f2fde38b1461068b57600080fd5b8063ab21739a116100dc578063ab21739a1461056b578063b099627e1461058b578063b98d0908146105f5578063c0c53b8b1461060f57600080fd5b806395c6d604146104eb5780639926ee7d1461050b578063a364f4da1461052b578063a98fb3551461054b57600080fd5b80634ae07c37116101905780636d14a9871161015f5780636d14a9871461042057806370a0823114610454578063715018a614610498578063800fb61f146104ad5780638da5cb5b146104cd57600080fd5b80634ae07c37146103575780635df459461461038557806368304835146103b95780636b3aa72e146103ed57600080fd5b80633bc28c8c116101cc5780633bc28c8c146102cc578063416c7e5e146102ec5780634223d5511461030c5780634a5bf6321461031f57600080fd5b806306045a9114610213578063171f1d5b146102485780632e1a7d4d1461027f57806333cfb7b71461029f57600080fd5b3661020e5761020c3334610758565b005b600080fd5b34801561021f57600080fd5b5061023361022e366004614197565b6107ed565b60405190151581526020015b60405180910390f35b34801561025457600080fd5b506102686102633660046142e9565b6108e4565b60408051921515835290151560208301520161023f565b34801561028b57600080fd5b5061020c61029a36600461433a565b610a6e565b3480156102ab57600080fd5b506102bf6102ba366004614353565b610b46565b60405161023f9190614370565b3480156102d857600080fd5b5061020c6102e7366004614353565b610ff9565b3480156102f857600080fd5b5061020c6103073660046143cb565b61100d565b61020c61031a366004614353565b611144565b34801561032b57600080fd5b5060cb5461033f906001600160a01b031681565b6040516001600160a01b03909116815260200161023f565b34801561036357600080fd5b506103776103723660046146a6565b61114e565b60405161023f929190614741565b34801561039157600080fd5b5061033f7f000000000000000000000000000000000000000000000000000000000000000081565b3480156103c557600080fd5b5061033f7f000000000000000000000000000000000000000000000000000000000000000081565b3480156103f957600080fd5b507f000000000000000000000000000000000000000000000000000000000000000061033f565b34801561042c57600080fd5b5061033f7f000000000000000000000000000000000000000000000000000000000000000081565b34801561046057600080fd5b5061048a61046f366004614353565b6001600160a01b0316600090815260ca602052604090205490565b60405190815260200161023f565b3480156104a457600080fd5b5061020c612082565b3480156104b957600080fd5b5061020c6104c8366004614353565b612096565b3480156104d957600080fd5b506033546001600160a01b031661033f565b3480156104f757600080fd5b506102336105063660046147d2565b612136565b34801561051757600080fd5b5061020c61052636600461481d565b61215b565b34801561053757600080fd5b5061020c610546366004614353565b612227565b34801561055757600080fd5b5061020c6105663660046148c8565b6122ee565b34801561057757600080fd5b5061020c610586366004614918565b612342565b34801561059757600080fd5b506105d36105a636600461433a565b60c9602052600090815260409020805460019091015463ffffffff821691640100000000900460ff169083565b6040805163ffffffff909416845291151560208401529082015260600161023f565b34801561060157600080fd5b506097546102339060ff1681565b34801561061b57600080fd5b5061020c61062a36600461493f565b612701565b61020c61063d36600461498a565b6127eb565b34801561064e57600080fd5b5061033f7f000000000000000000000000000000000000000000000000000000000000000081565b34801561068257600080fd5b506102bf6129e3565b34801561069757600080fd5b5061020c6106a6366004614353565b612d8f565b3480156106b757600080fd5b5061048a6106c6366004614353565b60ca6020526000908152604090205481565b3480156106e457600080fd5b5061020c6106f3366004614353565b612e05565b34801561070457600080fd5b506102336107133660046149dc565b612e2f565b34801561072457600080fd5b5060655461033f906001600160a01b031681565b34801561074457600080fd5b5061020c610753366004614a59565b612ea4565b8060000361078157604051632097692160e11b8152600481018290526024015b60405180910390fd5b6001600160a01b038216600090815260ca6020526040812080548392906107a9908490614ae3565b90915550506001600160a01b038216600081815260ca60209081526040918290205491519182526000805160206151b4833981519152910160405180910390a25050565b6000806001600160a01b038316610805575084610831565b8583604051602001610818929190614af6565b6040516020818303038152906040528051906020012090505b600081815260c9602052604081205463ffffffff1690036108565760009150506108d8565b600081815260c96020526040902054640100000000900460ff1661087e5760009150506108d8565b60408051602081018c90529081018a9052606081018990526001600160601b03198816608082015260009060940160408051601f19818403018152919052805160208201209091506108d287898389613253565b93505050505b98975050505050505050565b60008060007f30644e72e131a029b85045b68181585d2833e84879b9709143e1f593f00000018787600001518860200151886000015160006002811061092c5761092c614b11565b60200201518951600160200201518a6020015160006002811061095157610951614b11565b60200201518b6020015160016002811061096d5761096d614b11565b602090810291909101518c518d8301516040516109ca9a99989796959401988952602089019790975260408801959095526060870193909352608086019190915260a085015260c084015260e08301526101008201526101200190565b6040516020818303038152906040528051906020012060001c6109ed9190614b27565b9050610a60610a066109ff888461326b565b86906132fc565b610a0e613391565b610a56610a4785610a41604080518082018252600080825260209182015281518083019092526001825260029082015290565b9061326b565b610a508c613451565b906132fc565b886201d4c06134e0565b909890975095505050505050565b33600090815260ca6020526040902054811115610abf5733600081815260ca602052604090819020549051632e2a182f60e11b81526004810192909252602482018390526044820152606401610778565b33600090815260ca602052604081208054839290610ade908490614b49565b909155505033600081815260ca60209081526040918290205491519182526000805160206151b4833981519152910160405180910390a2604051339082156108fc029083906000818181858888f19350505050158015610b42573d6000803e3d6000fd5b5050565b6040516309aa152760e11b81526001600160a01b0382811660048301526060916000917f000000000000000000000000000000000000000000000000000000000000000016906313542a4e90602401602060405180830381865afa158015610bb2573d6000803e3d6000fd5b505050506040513d601f19601f82011682018060405250810190610bd69190614b5c565b60405163871ef04960e01b8152600481018290529091506000906001600160a01b037f0000000000000000000000000000000000000000000000000000000000000000169063871ef04990602401602060405180830381865afa158015610c41573d6000803e3d6000fd5b505050506040513d601f19601f82011682018060405250810190610c659190614b75565b90506001600160c01b0381161580610cff57507f00000000000000000000000000000000000000000000000000000000000000006001600160a01b0316639aa1653d6040518163ffffffff1660e01b8152600401602060405180830381865afa158015610cd6573d6000803e3d6000fd5b505050506040513d601f19601f82011682018060405250810190610cfa9190614b9e565b60ff16155b15610d1f5760408051600080825260208201909252905b50949350505050565b6000610d33826001600160c01b03166136fa565b90506000805b8251811015610dff577f00000000000000000000000000000000000000000000000000000000000000006001600160a01b0316633ca5a5f5848381518110610d8357610d83614b11565b01602001516040516001600160e01b031960e084901b16815260f89190911c6004820152602401602060405180830381865afa158015610dc7573d6000803e3d6000fd5b505050506040513d601f19601f82011682018060405250810190610deb9190614b5c565b610df59083614ae3565b9150600101610d39565b506000816001600160401b03811115610e1a57610e1a614073565b604051908082528060200260200182016040528015610e43578160200160208202803683370190505b5090506000805b8451811015610fec576000858281518110610e6757610e67614b11565b0160200151604051633ca5a5f560e01b815260f89190911c6004820181905291506000906001600160a01b037f00000000000000000000000000000000000000000000000000000000000000001690633ca5a5f590602401602060405180830381865afa158015610edc573d6000803e3d6000fd5b505050506040513d601f19601f82011682018060405250810190610f009190614b5c565b905060005b81811015610fe1576040516356e4026d60e11b815260ff84166004820152602481018290527f00000000000000000000000000000000000000000000000000000000000000006001600160a01b03169063adc804da906044016040805180830381865afa158015610f7a573d6000803e3d6000fd5b505050506040513d601f19601f82011682018060405250810190610f9e9190614bd6565b60000151868681518110610fb457610fb4614b11565b6001600160a01b039092166020928302919091019091015284610fd681614c17565b955050600101610f05565b505050600101610e4a565b5090979650505050505050565b6110016137bc565b61100a81613816565b50565b7f00000000000000000000000000000000000000000000000000000000000000006001600160a01b0316638da5cb5b6040518163ffffffff1660e01b8152600401602060405180830381865afa15801561106b573d6000803e3d6000fd5b505050506040513d601f19601f8201168201806040525081019061108f9190614c30565b6001600160a01b0316336001600160a01b03161461113b5760405162461bcd60e51b815260206004820152605c60248201527f424c535369676e6174757265436865636b65722e6f6e6c79436f6f7264696e6160448201527f746f724f776e65723a2063616c6c6572206973206e6f7420746865206f776e6560648201527f72206f6620746865207265676973747279436f6f7264696e61746f7200000000608482015260a401610778565b61100a8161387f565b61100a8134610758565b604080518082019091526060808252602082015260008260400151516040518060400160405280600181526020016000815250511480156111aa57508260a0015151604051806040016040528060018152602001600081525051145b80156111d157508260c0015151604051806040016040528060018152602001600081525051145b80156111f857508260e0015151604051806040016040528060018152602001600081525051145b6112625760405162461bcd60e51b815260206004820152604160248201526000805160206151d483398151915260448201527f7265733a20696e7075742071756f72756d206c656e677468206d69736d6174636064820152600d60fb1b608482015260a401610778565b825151602084015151146112da5760405162461bcd60e51b8152602060048201526044602482018190526000805160206151d4833981519152908201527f7265733a20696e707574206e6f6e7369676e6572206c656e677468206d69736d6064820152630c2e8c6d60e31b608482015260a401610778565b4363ffffffff168463ffffffff16106113495760405162461bcd60e51b815260206004820152603c60248201526000805160206151d483398151915260448201527f7265733a20696e76616c6964207265666572656e636520626c6f636b000000006064820152608401610778565b60408051808201825260008082526020808301829052835180850185526060808252818301528451808601865260018082529083019390935284518381528086019095529293919082810190803683370190505060208281019190915260408051808201825260018082526000919093015280518281528082019091529081602001602082028036833701905050815260408051808201909152606080825260208201528560200151516001600160401b0381111561140a5761140a614073565b604051908082528060200260200182016040528015611433578160200160208202803683370190505b5081526020860151516001600160401b0381111561145357611453614073565b60405190808252806020026020018201604052801561147c578160200160208202803683370190505b508160200181905250600061152860405180604001604052806001815260200160008152507f00000000000000000000000000000000000000000000000000000000000000006001600160a01b0316639aa1653d6040518163ffffffff1660e01b8152600401602060405180830381865afa1580156114ff573d6000803e3d6000fd5b505050506040513d601f19601f820116820180604052508101906115239190614b9e565b6138c6565b905060005b8760200151518110156117b9576115728860200151828151811061155357611553614b11565b6020026020010151805160009081526020918201519091526040902090565b8360200151828151811061158857611588614b11565b602090810291909101015280156116485760208301516115a9600183614b49565b815181106115b9576115b9614b11565b602002602001015160001c836020015182815181106115da576115da614b11565b602002602001015160001c11611648576040805162461bcd60e51b81526020600482015260248101919091526000805160206151d483398151915260448201527f7265733a206e6f6e5369676e65725075626b657973206e6f7420736f727465646064820152608401610778565b7f00000000000000000000000000000000000000000000000000000000000000006001600160a01b03166304ec63518460200151838151811061168d5761168d614b11565b60200260200101518b8b6000015185815181106116ac576116ac614b11565b60200260200101516040518463ffffffff1660e01b81526004016116e99392919092835263ffffffff918216602084015216604082015260600190565b602060405180830381865afa158015611706573d6000803e3d6000fd5b505050506040513d601f19601f8201168201806040525081019061172a9190614b75565b6001600160c01b03168360000151828151811061174957611749614b11565b6020026020010181815250506117af6109ff611783848660000151858151811061177557611775614b11565b602002602001015116613959565b8a60200151848151811061179957611799614b11565b602002602001015161398490919063ffffffff16565b945060010161152d565b50506117c483613a67565b60975490935060ff166000816117db57600061185d565b7f00000000000000000000000000000000000000000000000000000000000000006001600160a01b031663c448feb86040518163ffffffff1660e01b8152600401602060405180830381865afa158015611839573d6000803e3d6000fd5b505050506040513d601f19601f8201168201806040525081019061185d9190614b5c565b905060005b604051806040016040528060018152602001600081525051811015611f535782156119ee578963ffffffff16827f00000000000000000000000000000000000000000000000000000000000000006001600160a01b031663249a0c42604051806040016040528060018152602001600081525085815181106118e6576118e6614b11565b01602001516040516001600160e01b031960e084901b16815260f89190911c6004820152602401602060405180830381865afa15801561192a573d6000803e3d6000fd5b505050506040513d601f19601f8201168201806040525081019061194e9190614b5c565b6119589190614ae3565b116119ee5760405162461bcd60e51b815260206004820152606660248201526000805160206151d483398151915260448201527f7265733a205374616b6552656769737472792075706461746573206d7573742060648201527f62652077697468696e207769746864726177616c44656c6179426c6f636b732060848201526577696e646f7760d01b60a482015260c401610778565b7f00000000000000000000000000000000000000000000000000000000000000006001600160a01b03166368bccaac60405180604001604052806001815260200160008152508381518110611a4557611a45614b11565b602001015160f81c60f81b60f81c8c8c60a001518581518110611a6a57611a6a614b11565b60209081029190910101516040516001600160e01b031960e086901b16815260ff909316600484015263ffffffff9182166024840152166044820152606401602060405180830381865afa158015611ac6573d6000803e3d6000fd5b505050506040513d601f19601f82011682018060405250810190611aea9190614c4d565b6001600160401b031916611b0d8a60400151838151811061155357611553614b11565b67ffffffffffffffff191614611ba95760405162461bcd60e51b815260206004820152606160248201526000805160206151d483398151915260448201527f7265733a2071756f72756d41706b206861736820696e2073746f72616765206460648201527f6f6573206e6f74206d617463682070726f76696465642071756f72756d2061706084820152606b60f81b60a482015260c401610778565b611bd989604001518281518110611bc257611bc2614b11565b6020026020010151876132fc90919063ffffffff16565b95507f00000000000000000000000000000000000000000000000000000000000000006001600160a01b031663c8294c5660405180604001604052806001815260200160008152508381518110611c3257611c32614b11565b602001015160f81c60f81b60f81c8c8c60c001518581518110611c5757611c57614b11565b60209081029190910101516040516001600160e01b031960e086901b16815260ff909316600484015263ffffffff9182166024840152166044820152606401602060405180830381865afa158015611cb3573d6000803e3d6000fd5b505050506040513d601f19601f82011682018060405250810190611cd79190614c78565b85602001518281518110611ced57611ced614b11565b6001600160601b03909216602092830291909101820152850151805182908110611d1957611d19614b11565b602002602001015185600001518281518110611d3757611d37614b11565b60200260200101906001600160601b031690816001600160601b0316815250506000805b8a6020015151811015611f4957611dc686600001518281518110611d8157611d81614b11565b602002602001015160405180604001604052806001815260200160008152508581518110611db157611db1614b11565b016020015160f81c60ff161c60019081161490565b15611f41577f00000000000000000000000000000000000000000000000000000000000000006001600160a01b031663f2be94ae60405180604001604052806001815260200160008152508581518110611e2257611e22614b11565b602001015160f81c60f81b60f81c8e89602001518581518110611e4757611e47614b11565b60200260200101518f60e001518881518110611e6557611e65614b11565b60200260200101518781518110611e7e57611e7e614b11565b60209081029190910101516040516001600160e01b031960e087901b16815260ff909416600485015263ffffffff92831660248501526044840191909152166064820152608401602060405180830381865afa158015611ee2573d6000803e3d6000fd5b505050506040513d601f19601f82011682018060405250810190611f069190614c78565b8751805185908110611f1a57611f1a614b11565b60200260200101818151611f2e9190614c95565b6001600160601b03169052506001909101905b600101611d5b565b5050600101611862565b505050600080611f6d8a868a606001518b608001516108e4565b9150915081611fde5760405162461bcd60e51b815260206004820152604360248201526000805160206151d483398151915260448201527f7265733a2070616972696e6720707265636f6d70696c652063616c6c206661696064820152621b195960ea1b608482015260a401610778565b8061203f5760405162461bcd60e51b815260206004820152603960248201526000805160206151d483398151915260448201527f7265733a207369676e617475726520697320696e76616c6964000000000000006064820152608401610778565b5050600087826020015160405160200161205a929190614cbc565b60408051808303601f1901815291905280516020909101209299929850919650505050505050565b61208a6137bc565b6120946000613b02565b565b600054600290610100900460ff161580156120b8575060005460ff8083169116105b6120d45760405162461bcd60e51b815260040161077890614d04565b6000805461ffff191660ff8316176101001790556120f182612e05565b6000805461ff001916905560405160ff821681527f7f26b83ff96e1f2b6a682f133852f6798a09c465da95921460cefb38474024989060200160405180910390a15050565b6000818484604051612149929190614d52565b60405180910390201490509392505050565b336001600160a01b037f000000000000000000000000000000000000000000000000000000000000000016146121a35760405162461bcd60e51b815260040161077890614d62565b604051639926ee7d60e01b81526001600160a01b037f00000000000000000000000000000000000000000000000000000000000000001690639926ee7d906121f19085908590600401614e20565b600060405180830381600087803b15801561220b57600080fd5b505af115801561221f573d6000803e3d6000fd5b505050505050565b336001600160a01b037f0000000000000000000000000000000000000000000000000000000000000000161461226f5760405162461bcd60e51b815260040161077890614d62565b6040516351b27a6d60e11b81526001600160a01b0382811660048301527f0000000000000000000000000000000000000000000000000000000000000000169063a364f4da906024015b600060405180830381600087803b1580156122d357600080fd5b505af11580156122e7573d6000803e3d6000fd5b5050505050565b6122f66137bc565b60405163a98fb35560e01b81526001600160a01b037f0000000000000000000000000000000000000000000000000000000000000000169063a98fb355906122b9908490600401614e6b565b60cb546001600160a01b031633146123825760cb54604051632cbe419560e01b81523360048201526001600160a01b039091166024820152604401610778565b60005a90506000848460405160200161239c929190614af6565b60408051601f198184030181529181528151602092830120600081815260c990935290822080549193509163ffffffff90911690036123f1576040516311cb69a760e11b815260048101839052602401610778565b8054640100000000900460ff161561241f57604051634e78d7f960e11b815260048101839052602401610778565b805464ff00000000191664010000000017815560018101546001600160a01b038616600090815260ca602052604090205410156124a25760018101546001600160a01b038616600081815260ca602052604090819020549051632e2a182f60e11b8152600481019290925260248201929092526044810191909152606401610778565b80546000906124b990849063ffffffff168761114e565b509050604360ff1681602001516000815181106124d8576124d8614b11565b60200260200101516124ea9190614e7e565b6001600160601b03166064826000015160008151811061250c5761250c614b11565b60200260200101516001600160601b03166125279190614ea1565b10156125ba576064816000015160008151811061254657612546614b11565b60200260200101516001600160601b03166125619190614ea1565b604360ff16826020015160008151811061257d5761257d614b11565b602002602001015161258f9190614e7e565b60405163530f5c4560e11b815260048101929092526001600160601b03166024820152604401610778565b6040516001600160a01b038716815287907f8511746b73275e06971968773119b9601fc501d7bdf3824d8754042d148940e29060200160405180910390a260003a5a6126069087614b49565b6126139062011170614ae3565b61261d9190614ea1565b9050826001015481111561265457600183015460405163437e283f60e11b8152600481019190915260248101829052604401610778565b6001600160a01b038716600090815260ca60205260408120805483929061267c908490614b49565b90915550506001600160a01b038716600081815260ca60209081526040918290205491519182526000805160206151b4833981519152910160405180910390a260cb546040516001600160a01b039091169082156108fc029083906000818181858888f193505050501580156126f6573d6000803e3d6000fd5b505050505050505050565b600054610100900460ff16158080156127215750600054600160ff909116105b8061273b5750303b15801561273b575060005460ff166001145b6127575760405162461bcd60e51b815260040161077890614d04565b6000805460ff19166001179055801561277a576000805461ff0019166101001790555b6127848484613b54565b60cb80546001600160a01b0319166001600160a01b03841617905580156127e5576000805461ff0019169055604051600181527f7f26b83ff96e1f2b6a682f133852f6798a09c465da95921460cefb38474024989060200160405180910390a15b50505050565b60008433604051602001612800929190614af6565b60408051601f198184030181529181528151602092830120600081815260c990935291205490915063ffffffff161561284f57604051630c40bc4360e21b815260048101829052602401610778565b34156128ac5733600090815260ca602052604081208054349290612874908490614ae3565b909155505033600081815260ca60209081526040918290205491519182526000805160206151b4833981519152910160405180910390a25b33600090815260ca60205260409020548211156128fd5733600081815260ca602052604090819020549051632e2a182f60e11b81526004810192909252602482018490526044820152606401610778565b604080516060810182526000602080830182815263ffffffff43818116865285870189815288865260c99094529386902085518154935115156401000000000264ffffffffff1990941692169190911791909117815590516001909101559151909187917f130d3e81af62e03ed6fff5e3bb343695ec513892cfad24d286486745dcc6143791612993913391908a908a90614ee1565b60405180910390a2857f8801fc966deb2c8f563a103c35c9e80740585c292cd97518587e6e7927e6af5533438888886040516129d3959493929190614f1c565b60405180910390a2505050505050565b606060007f00000000000000000000000000000000000000000000000000000000000000006001600160a01b0316639aa1653d6040518163ffffffff1660e01b8152600401602060405180830381865afa158015612a45573d6000803e3d6000fd5b505050506040513d601f19601f82011682018060405250810190612a699190614b9e565b60ff16905080600003612a8a57505060408051600081526020810190915290565b6000805b82811015612b3557604051633ca5a5f560e01b815260ff821660048201527f00000000000000000000000000000000000000000000000000000000000000006001600160a01b031690633ca5a5f590602401602060405180830381865afa158015612afd573d6000803e3d6000fd5b505050506040513d601f19601f82011682018060405250810190612b219190614b5c565b612b2b9083614ae3565b9150600101612a8e565b506000816001600160401b03811115612b5057612b50614073565b604051908082528060200260200182016040528015612b79578160200160208202803683370190505b5090506000805b7f00000000000000000000000000000000000000000000000000000000000000006001600160a01b0316639aa1653d6040518163ffffffff1660e01b8152600401602060405180830381865afa158015612bde573d6000803e3d6000fd5b505050506040513d601f19601f82011682018060405250810190612c029190614b9e565b60ff16811015612d8557604051633ca5a5f560e01b815260ff821660048201526000907f00000000000000000000000000000000000000000000000000000000000000006001600160a01b031690633ca5a5f590602401602060405180830381865afa158015612c76573d6000803e3d6000fd5b505050506040513d601f19601f82011682018060405250810190612c9a9190614b5c565b905060005b81811015612d7b576040516356e4026d60e11b815260ff84166004820152602481018290527f00000000000000000000000000000000000000000000000000000000000000006001600160a01b03169063adc804da906044016040805180830381865afa158015612d14573d6000803e3d6000fd5b505050506040513d601f19601f82011682018060405250810190612d389190614bd6565b60000151858581518110612d4e57612d4e614b11565b6001600160a01b039092166020928302919091019091015283612d7081614c17565b945050600101612c9f565b5050600101612b80565b5090949350505050565b612d976137bc565b6001600160a01b038116612dfc5760405162461bcd60e51b815260206004820152602660248201527f4f776e61626c653a206e6577206f776e657220697320746865207a65726f206160448201526564647265737360d01b6064820152608401610778565b61100a81613b02565b612e0d6137bc565b60cb80546001600160a01b0319166001600160a01b0392909216919091179055565b6040516306045a9160e01b815260009030906306045a9190612e63908b908b908b908b908b908b908b908b90600401614f5f565b602060405180830381865afa158015612e80573d6000803e3d6000fd5b505050506040513d601f19601f820116820180604052508101906108d89190614fc1565b6065546001600160a01b03163314612f395760405162461bcd60e51b815260206004820152604c60248201527f536572766963654d616e61676572426173652e6f6e6c7952657761726473496e60448201527f69746961746f723a2063616c6c6572206973206e6f742074686520726577617260648201526b32399034b734ba34b0ba37b960a11b608482015260a401610778565b60005b8181101561320457828282818110612f5657612f56614b11565b9050602002810190612f689190614fde565b612f79906040810190602001614353565b6001600160a01b03166323b872dd3330868686818110612f9b57612f9b614b11565b9050602002810190612fad9190614fde565b604080516001600160e01b031960e087901b1681526001600160a01b039485166004820152939092166024840152013560448201526064016020604051808303816000875af1158015613004573d6000803e3d6000fd5b505050506040513d601f19601f820116820180604052508101906130289190614fc1565b50600083838381811061303d5761303d614b11565b905060200281019061304f9190614fde565b613060906040810190602001614353565b604051636eb1769f60e11b81523060048201526001600160a01b037f000000000000000000000000000000000000000000000000000000000000000081166024830152919091169063dd62ed3e90604401602060405180830381865afa1580156130ce573d6000803e3d6000fd5b505050506040513d601f19601f820116820180604052508101906130f29190614b5c565b905083838381811061310657613106614b11565b90506020028101906131189190614fde565b613129906040810190602001614353565b6001600160a01b031663095ea7b37f00000000000000000000000000000000000000000000000000000000000000008387878781811061316b5761316b614b11565b905060200281019061317d9190614fde565b6040013561318b9190614ae3565b6040516001600160e01b031960e085901b1681526001600160a01b03909216600483015260248201526044016020604051808303816000875af11580156131d6573d6000803e3d6000fd5b505050506040513d601f19601f820116820180604052508101906131fa9190614fc1565b5050600101612f3c565b5060405163fce36c7d60e01b81526001600160a01b037f0000000000000000000000000000000000000000000000000000000000000000169063fce36c7d906121f19085908590600401615064565b600083613261868585613bd1565b1495945050505050565b6040805180820190915260008082526020820152613287613f81565b835181526020808501519082015260408082018490526000908360608460076107d05a03fa905080806132b657fe5b50806132f45760405162461bcd60e51b815260206004820152600d60248201526c1958cb5b5d5b0b59985a5b1959609a1b6044820152606401610778565b505092915050565b6040805180820190915260008082526020820152613318613f9f565b835181526020808501518183015283516040808401919091529084015160608301526000908360808460066107d05a03fa9050808061335357fe5b50806132f45760405162461bcd60e51b815260206004820152600d60248201526c1958cb5859190b59985a5b1959609a1b6044820152606401610778565b613399613fbd565b50604080516080810182527f198e9393920d483a7260bfb731fb5d25f1aa493335a9e71297e485b7aef312c28183019081527f1800deef121f1e76426a00665e5c4479674322d4f75edadd46debd5cd992f6ed6060830152815281518083019092527f275dc4a288d1afb3cbb1ac09187524c7db36395df7be3b99e673b13a075a65ec82527f1d9befcd05a5323e6da4d435f3b617cdb3af83285c2df711ef39c01571827f9d60208381019190915281019190915290565b60408051808201909152600080825260208201526000808061348160008051602061519483398151915286614b27565b90505b61348d81613cce565b909350915060008051602061519483398151915282830983036134c6576040805180820190915290815260208101919091529392505050565b600080516020615194833981519152600182089050613484565b604080518082018252868152602080820186905282518084019093528683528201849052600091829190613512613fe2565b60005b60028110156136cd57600061352b826006614ea1565b905084826002811061353f5761353f614b11565b60200201515183613551836000614ae3565b600c811061356157613561614b11565b602002015284826002811061357857613578614b11565b6020020151602001518382600161358f9190614ae3565b600c811061359f5761359f614b11565b60200201528382600281106135b6576135b6614b11565b60200201515151836135c9836002614ae3565b600c81106135d9576135d9614b11565b60200201528382600281106135f0576135f0614b11565b6020020151516001602002015183613609836003614ae3565b600c811061361957613619614b11565b602002015283826002811061363057613630614b11565b60200201516020015160006002811061364b5761364b614b11565b60200201518361365c836004614ae3565b600c811061366c5761366c614b11565b602002015283826002811061368357613683614b11565b60200201516020015160016002811061369e5761369e614b11565b6020020151836136af836005614ae3565b600c81106136bf576136bf614b11565b602002015250600101613515565b506136d6614001565b60006020826101808560088cfa9151919c9115159b50909950505050505050505050565b606060008061370884613959565b61ffff166001600160401b0381111561372357613723614073565b6040519080825280601f01601f19166020018201604052801561374d576020820181803683370190505b5090506000805b825182108015613765575061010081105b15612d85576001811b9350858416156137ac578060f81b83838151811061378e5761378e614b11565b60200101906001600160f81b031916908160001a9053508160010191505b6137b581614c17565b9050613754565b6033546001600160a01b031633146120945760405162461bcd60e51b815260206004820181905260248201527f4f776e61626c653a2063616c6c6572206973206e6f7420746865206f776e65726044820152606401610778565b606554604080516001600160a01b03928316815291831660208301527fe11cddf1816a43318ca175bbc52cd0185436e9cbead7c83acc54a73e461717e3910160405180910390a1606580546001600160a01b0319166001600160a01b0392909216919091179055565b6097805460ff19168215159081179091556040519081527f40e4ed880a29e0f6ddce307457fb75cddf4feef7d3ecb0301bfdf4976a0e2dfc9060200160405180910390a150565b6000806138d284613d50565b9050808360ff166001901b116139505760405162461bcd60e51b815260206004820152603f60248201527f4269746d61705574696c732e6f72646572656442797465734172726179546f4260448201527f69746d61703a206269746d61702065786365656473206d61782076616c7565006064820152608401610778565b90505b92915050565b6000805b82156139535761396e600184614b49565b909216918061397c81615172565b91505061395d565b60408051808201909152600080825260208201526102008261ffff16106139e05760405162461bcd60e51b815260206004820152601060248201526f7363616c61722d746f6f2d6c6172676560801b6044820152606401610778565b8161ffff166001036139f3575081613953565b6040805180820190915260008082526020820181905284906001905b8161ffff168661ffff1610613a5c57600161ffff871660ff83161c81169003613a3f57613a3c84846132fc565b93505b613a4983846132fc565b92506201fffe600192831b169101613a0f565b509195945050505050565b60408051808201909152600080825260208201528151158015613a8c57506020820151155b15613aaa575050604080518082019091526000808252602082015290565b6040518060400160405280836000015181526020016000805160206151948339815191528460200151613add9190614b27565b613af590600080516020615194833981519152614b49565b905292915050565b919050565b603380546001600160a01b038381166001600160a01b0319831681179093556040519116919082907f8be0079c531659141344cd1fd0a4f28419497f9722a3daafe3b4186f6b6457e090600090a35050565b600054610100900460ff16613bbf5760405162461bcd60e51b815260206004820152602b60248201527f496e697469616c697a61626c653a20636f6e7472616374206973206e6f74206960448201526a6e697469616c697a696e6760a81b6064820152608401610778565b613bc882613b02565b610b4281613816565b600060208451613be19190614b27565b15613c685760405162461bcd60e51b815260206004820152604b60248201527f4d65726b6c652e70726f63657373496e636c7573696f6e50726f6f664b65636360448201527f616b3a2070726f6f66206c656e6774682073686f756c642062652061206d756c60648201526a3a34b836329037b310199960a91b608482015260a401610778565b8260205b85518111610d1657613c7f600285614b27565b600003613ca357816000528086015160205260406000209150600284049350613cbc565b8086015160005281602052604060002091506002840493505b613cc7602082614ae3565b9050613c6c565b60008080600080516020615194833981519152600360008051602061519483398151915286600080516020615194833981519152888909090890506000613d44827f0c19139cb84c680a6e14116da060561765e05aa45a1c72a34f082305b61f3f52600080516020615194833981519152613ed8565b91959194509092505050565b600061010082511115613dd95760405162461bcd60e51b8152602060048201526044602482018190527f4269746d61705574696c732e6f72646572656442797465734172726179546f42908201527f69746d61703a206f7264657265644279746573417272617920697320746f6f206064820152636c6f6e6760e01b608482015260a401610778565b8151600003613dea57506000919050565b60008083600081518110613e0057613e00614b11565b0160200151600160f89190911c81901b92505b8451811015613ecf57848181518110613e2e57613e2e614b11565b0160200151600160f89190911c1b9150828211613ec35760405162461bcd60e51b815260206004820152604760248201527f4269746d61705574696c732e6f72646572656442797465734172726179546f4260448201527f69746d61703a206f72646572656442797465734172726179206973206e6f74206064820152661bdc99195c995960ca1b608482015260a401610778565b91811791600101613e13565b50909392505050565b600080613ee3614001565b613eeb61401f565b602080825281810181905260408201819052606082018890526080820187905260a082018690528260c08360056107d05a03fa92508280613f2857fe5b5082613f765760405162461bcd60e51b815260206004820152601a60248201527f424e3235342e6578704d6f643a2063616c6c206661696c7572650000000000006044820152606401610778565b505195945050505050565b60405180606001604052806003906020820280368337509192915050565b60405180608001604052806004906020820280368337509192915050565b6040518060400160405280613fd061403d565b8152602001613fdd61403d565b905290565b604051806101800160405280600c906020820280368337509192915050565b60405180602001604052806001906020820280368337509192915050565b6040518060c001604052806006906020820280368337509192915050565b60405180604001604052806002906020820280368337509192915050565b80356001600160601b031981168114613afd57600080fd5b634e487b7160e01b600052604160045260246000fd5b604080519081016001600160401b03811182821017156140ab576140ab614073565b60405290565b60405161010081016001600160401b03811182821017156140ab576140ab614073565b604051601f8201601f191681016001600160401b03811182821017156140fc576140fc614073565b604052919050565b60006001600160401b0383111561411d5761411d614073565b614130601f8401601f19166020016140d4565b905082815283838301111561414457600080fd5b828260208301376000602084830101529392505050565b600082601f83011261416c57600080fd5b61417b83833560208501614104565b9392505050565b6001600160a01b038116811461100a57600080fd5b600080600080600080600080610100898b0312156141b457600080fd5b8835975060208901359650604089013595506141d260608a0161405b565b94506080890135935060a08901356001600160401b038111156141f457600080fd5b6142008b828c0161415b565b93505060c0890135915060e089013561421881614182565b809150509295985092959890939650565b60006040828403121561423b57600080fd5b614243614089565b9050813581526020820135602082015292915050565b600082601f83011261426a57600080fd5b614272614089565b80604084018581111561428457600080fd5b845b8181101561429e578035845260209384019301614286565b509095945050505050565b6000608082840312156142bb57600080fd5b6142c3614089565b90506142cf8383614259565b81526142de8360408401614259565b602082015292915050565b600080600080610120858703121561430057600080fd5b843593506143118660208701614229565b925061432086606087016142a9565b915061432f8660e08701614229565b905092959194509250565b60006020828403121561434c57600080fd5b5035919050565b60006020828403121561436557600080fd5b813561395081614182565b6020808252825182820181905260009190848201906040850190845b818110156143b15783516001600160a01b03168352928401929184019160010161438c565b50909695505050505050565b801515811461100a57600080fd5b6000602082840312156143dd57600080fd5b8135613950816143bd565b803563ffffffff81168114613afd57600080fd5b60006001600160401b0382111561441557614415614073565b5060051b60200190565b600082601f83011261443057600080fd5b81356020614445614440836143fc565b6140d4565b8083825260208201915060208460051b87010193508684111561446757600080fd5b602086015b8481101561448a5761447d816143e8565b835291830191830161446c565b509695505050505050565b600082601f8301126144a657600080fd5b813560206144b6614440836143fc565b8083825260208201915060208460061b8701019350868411156144d857600080fd5b602086015b8481101561448a576144ef8882614229565b8352918301916040016144dd565b600082601f83011261450e57600080fd5b8135602061451e614440836143fc565b82815260059290921b8401810191818101908684111561453d57600080fd5b8286015b8481101561448a5780356001600160401b038111156145605760008081fd5b61456e8986838b010161441f565b845250918301918301614541565b6000610180828403121561458f57600080fd5b6145976140b1565b905081356001600160401b03808211156145b057600080fd5b6145bc8583860161441f565b835260208401359150808211156145d257600080fd5b6145de85838601614495565b602084015260408401359150808211156145f757600080fd5b61460385838601614495565b604084015261461585606086016142a9565b60608401526146278560e08601614229565b608084015261012084013591508082111561464157600080fd5b61464d8583860161441f565b60a084015261014084013591508082111561466757600080fd5b6146738583860161441f565b60c084015261016084013591508082111561468d57600080fd5b5061469a848285016144fd565b60e08301525092915050565b6000806000606084860312156146bb57600080fd5b833592506146cb602085016143e8565b915060408401356001600160401b038111156146e657600080fd5b6146f28682870161457c565b9150509250925092565b60008151808452602080850194506020840160005b838110156147365781516001600160601b031687529582019590820190600101614711565b509495945050505050565b604081526000835160408084015261475c60808401826146fc565b90506020850151603f1984830301606085015261477982826146fc565b925050508260208301529392505050565b60008083601f84011261479c57600080fd5b5081356001600160401b038111156147b357600080fd5b6020830191508360208285010111156147cb57600080fd5b9250929050565b6000806000604084860312156147e757600080fd5b83356001600160401b038111156147fd57600080fd5b6148098682870161478a565b909790965060209590950135949350505050565b6000806040838503121561483057600080fd5b823561483b81614182565b915060208301356001600160401b038082111561485757600080fd5b908401906060828703121561486b57600080fd5b60405160608101818110838211171561488657614886614073565b60405282358281111561489857600080fd5b6148a48882860161415b565b82525060208301356020820152604083013560408201528093505050509250929050565b6000602082840312156148da57600080fd5b81356001600160401b038111156148f057600080fd5b8201601f8101841361490157600080fd5b61491084823560208401614104565b949350505050565b60008060006060848603121561492d57600080fd5b8335925060208401356146cb81614182565b60008060006060848603121561495457600080fd5b833561495f81614182565b9250602084013561496f81614182565b9150604084013561497f81614182565b809150509250925092565b600080600080606085870312156149a057600080fd5b8435935060208501356001600160401b038111156149bd57600080fd5b6149c98782880161478a565b9598909750949560400135949350505050565b600080600080600080600060e0888a0312156149f757600080fd5b873596506020880135955060408801359450614a156060890161405b565b93506080880135925060a08801356001600160401b03811115614a3757600080fd5b614a438a828b0161415b565b92505060c0880135905092959891949750929550565b60008060208385031215614a6c57600080fd5b82356001600160401b0380821115614a8357600080fd5b818501915085601f830112614a9757600080fd5b813581811115614aa657600080fd5b8660208260051b8501011115614abb57600080fd5b60209290920196919550909350505050565b634e487b7160e01b600052601160045260246000fd5b8082018082111561395357613953614acd565b91825260601b6001600160601b031916602082015260340190565b634e487b7160e01b600052603260045260246000fd5b600082614b4457634e487b7160e01b600052601260045260246000fd5b500690565b8181038181111561395357613953614acd565b600060208284031215614b6e57600080fd5b5051919050565b600060208284031215614b8757600080fd5b81516001600160c01b038116811461395057600080fd5b600060208284031215614bb057600080fd5b815160ff8116811461395057600080fd5b6001600160601b038116811461100a57600080fd5b600060408284031215614be857600080fd5b614bf0614089565b8251614bfb81614182565b81526020830151614c0b81614bc1565b60208201529392505050565b600060018201614c2957614c29614acd565b5060010190565b600060208284031215614c4257600080fd5b815161395081614182565b600060208284031215614c5f57600080fd5b815167ffffffffffffffff198116811461395057600080fd5b600060208284031215614c8a57600080fd5b815161395081614bc1565b6001600160601b03828116828216039080821115614cb557614cb5614acd565b5092915050565b63ffffffff60e01b8360e01b1681526000600482018351602080860160005b83811015614cf757815185529382019390820190600101614cdb565b5092979650505050505050565b6020808252602e908201527f496e697469616c697a61626c653a20636f6e747261637420697320616c72656160408201526d191e481a5b9a5d1a585b1a5e995960921b606082015260800190565b8183823760009101908152919050565b60208082526052908201527f536572766963654d616e61676572426173652e6f6e6c7952656769737472794360408201527f6f6f7264696e61746f723a2063616c6c6572206973206e6f742074686520726560608201527133b4b9ba393c9031b7b7b93234b730ba37b960711b608082015260a00190565b6000815180845260005b81811015614e0057602081850181015186830182015201614de4565b506000602082860101526020601f19601f83011685010191505092915050565b60018060a01b0383168152604060208201526000825160606040840152614e4a60a0840182614dda565b90506020840151606084015260408401516080840152809150509392505050565b60208152600061417b6020830184614dda565b6001600160601b038181168382160280821691908281146132f4576132f4614acd565b808202811582820484141761395357613953614acd565b81835281816020850137506000828201602090810191909152601f909101601f19169091010190565b6001600160a01b038516815263ffffffff84166020820152606060408201819052600090614f129083018486614eb8565b9695505050505050565b6001600160a01b038616815263ffffffff85166020820152608060408201819052600090614f4d9083018587614eb8565b90508260608301529695505050505050565b60006101008a83528960208401528860408401526001600160601b0319881660608401528660808401528060a0840152614f9b81840187614dda565b60c084019590955250506001600160a01b039190911660e0909101529695505050505050565b600060208284031215614fd357600080fd5b8151613950816143bd565b60008235609e19833603018112614ff457600080fd5b9190910192915050565b8035613afd81614182565b8183526000602080850194508260005b8581101561473657813561502c81614182565b6001600160a01b031687528183013561504481614bc1565b6001600160601b0316878401526040968701969190910190600101615019565b60208082528181018390526000906040808401600586901b8501820187855b8881101561516457878303603f190184528135368b9003609e190181126150a957600080fd5b8a0160a0813536839003601e190181126150c257600080fd5b820188810190356001600160401b038111156150dd57600080fd5b8060061b36038213156150ef57600080fd5b8287526150ff8388018284615009565b9250505061510e888301614ffe565b6001600160a01b031688860152818701358786015260606151308184016143e8565b63ffffffff169086015260806151478382016143e8565b63ffffffff16950194909452509285019290850190600101615083565b509098975050505050505050565b600061ffff80831681810361518957615189614acd565b600101939250505056fe30644e72e131a029b85045b68181585d97816a916871ca8d3c208c16d87cfd470ea46f246ccfc58f7a93aa09bc6245a6818e97b1a160d186afe78993a3b194a0424c535369676e6174757265436865636b65722e636865636b5369676e617475a26469706673582212207bebe605db37bc08c9e9e45bfd6ec5d1c229f929c7f0eec3285c426ff557481a64736f6c63430008180033","linkReferences":{}},"methodIdentifiers":{"alignedAggregator()":"4a5bf632","avsDirectory()":"6b3aa72e","balanceOf(address)":"70a08231","batchersBalances(address)":"f474b520","batchesState(bytes32)":"b099627e","blsApkRegistry()":"5df45946","checkPublicInput(bytes,bytes32)":"95c6d604","checkSignatures(bytes32,uint32,(uint32[],(uint256,uint256)[],(uint256,uint256)[],(uint256[2],uint256[2]),(uint256,uint256),uint32[],uint32[],uint32[][]))":"4ae07c37","createAVSRewardsSubmission(((address,uint96)[],address,uint256,uint32,uint32)[])":"fce36c7d","createNewTask(bytes32,string,uint256)":"d66eaabd","delegation()":"df5cf723","depositToBatcher(address)":"4223d551","deregisterOperatorFromAVS(address)":"a364f4da","getOperatorRestakedStrategies(address)":"33cfb7b7","getRestakeableStrategies()":"e481af9d","initialize(address,address,address)":"c0c53b8b","initializeAggregator(address)":"800fb61f","owner()":"8da5cb5b","registerOperatorToAVS(address,(bytes,bytes32,uint256))":"9926ee7d","registryCoordinator()":"6d14a987","renounceOwnership()":"715018a6","respondToTaskV2(bytes32,address,(uint32[],(uint256,uint256)[],(uint256,uint256)[],(uint256[2],uint256[2]),(uint256,uint256),uint32[],uint32[],uint32[][]))":"ab21739a","rewardsInitiator()":"fc299dee","setAggregator(address)":"f9120af6","setRewardsInitiator(address)":"3bc28c8c","setStaleStakesForbidden(bool)":"416c7e5e","stakeRegistry()":"68304835","staleStakesForbidden()":"b98d0908","transferOwnership(address)":"f2fde38b","trySignatureAndApkVerification(bytes32,(uint256,uint256),(uint256[2],uint256[2]),(uint256,uint256))":"171f1d5b","updateAVSMetadataURI(string)":"a98fb355","verifyBatchInclusion(bytes32,bytes32,bytes32,bytes20,bytes32,bytes,uint256)":"fa534dc0","verifyBatchInclusion(bytes32,bytes32,bytes32,bytes20,bytes32,bytes,uint256,address)":"06045a91","withdraw(uint256)":"2e1a7d4d"},"id":116}