{"abi":[{"type":"constructor","inputs":[{"name":"__avsDirectory","type":"address","internalType":"contract IAVSDirectory"},{"name":"__rewardsCoordinator","type":"address","internalType":"contract IRewardsCoordinator"},{"name":"__registryCoordinator","type":"address","internalType":"contract IRegistryCoordinator"},{"name":"__stakeRegistry","type":"address","internalType":"contract IStakeRegistry"}],"stateMutability":"nonpayable"},{"type":"receive","stateMutability":"payable"},{"type":"function","name":"alignedAggregator","inputs":[],"outputs":[{"name":"","type":"address","internalType":"address"}],"stateMutability":"view"},{"type":"function","name":"avsDirectory","inputs":[],"outputs":[{"name":"","type":"address","internalType":"address"}],"stateMutability":"view"},{"type":"function","name":"balanceOf","inputs":[{"name":"account","type":"address","internalType":"address"}],"outputs":[{"name":"","type":"uint256","internalType":"uint256"}],"stateMutability":"view"},{"type":"function","name":"batchersBalances","inputs":[{"name":"","type":"address","internalType":"address"}],"outputs":[{"name":"","type":"uint256","internalType":"uint256"}],"stateMutability":"view"},{"type":"function","name":"batchesState","inputs":[{"name":"","type":"bytes32","internalType":"bytes32"}],"outputs":[{"name":"taskCreatedBlock","type":"uint32","internalType":"uint32"},{"name":"responded","type":"bool","internalType":"bool"},{"name":"respondToTaskFeeLimit","type":"uint256","internalType":"uint256"}],"stateMutability":"view"},{"type":"function","name":"blacklistVerifier","inputs":[{"name":"verifierIdx","type":"uint64","internalType":"uint64"}],"outputs":[],"stateMutability":"nonpayable"},{"type":"function","name":"blacklistedVerifiers","inputs":[],"outputs":[{"name":"","type":"uint64","internalType":"uint64"}],"stateMutability":"view"},{"type":"function","name":"blsApkRegistry","inputs":[],"outputs":[{"name":"","type":"address","internalType":"contract IBLSApkRegistry"}],"stateMutability":"view"},{"type":"function","name":"checkPublicInput","inputs":[{"name":"publicInput","type":"bytes","internalType":"bytes"},{"name":"hash","type":"bytes32","internalType":"bytes32"}],"outputs":[{"name":"","type":"bool","internalType":"bool"}],"stateMutability":"pure"},{"type":"function","name":"checkSignatures","inputs":[{"name":"msgHash","type":"bytes32","internalType":"bytes32"},{"name":"referenceBlockNumber","type":"uint32","internalType":"uint32"},{"name":"params","type":"tuple","internalType":"struct IBLSSignatureChecker.NonSignerStakesAndSignature","components":[{"name":"nonSignerQuorumBitmapIndices","type":"uint32[]","internalType":"uint32[]"},{"name":"nonSignerPubkeys","type":"tuple[]","internalType":"struct BN254.G1Point[]","components":[{"name":"X","type":"uint256","internalType":"uint256"},{"name":"Y","type":"uint256","internalType":"uint256"}]},{"name":"quorumApks","type":"tuple[]","internalType":"struct BN254.G1Point[]","components":[{"name":"X","type":"uint256","internalType":"uint256"},{"name":"Y","type":"uint256","internalType":"uint256"}]},{"name":"apkG2","type":"tuple","internalType":"struct BN254.G2Point","components":[{"name":"X","type":"uint256[2]","internalType":"uint256[2]"},{"name":"Y","type":"uint256[2]","internalType":"uint256[2]"}]},{"name":"sigma","type":"tuple","internalType":"struct BN254.G1Point","components":[{"name":"X","type":"uint256","internalType":"uint256"},{"name":"Y","type":"uint256","internalType":"uint256"}]},{"name":"quorumApkIndices","type":"uint32[]","internalType":"uint32[]"},{"name":"totalStakeIndices","type":"uint32[]","internalType":"uint32[]"},{"name":"nonSignerStakeIndices","type":"uint32[][]","internalType":"uint32[][]"}]}],"outputs":[{"name":"","type":"tuple","internalType":"struct IBLSSignatureChecker.QuorumStakeTotals","components":[{"name":"signedStakeForQuorum","type":"uint96[]","internalType":"uint96[]"},{"name":"totalStakeForQuorum","type":"uint96[]","internalType":"uint96[]"}]},{"name":"","type":"bytes32","internalType":"bytes32"}],"stateMutability":"view"},{"type":"function","name":"createAVSRewardsSubmission","inputs":[{"name":"rewardsSubmissions","type":"tuple[]","internalType":"struct IRewardsCoordinator.RewardsSubmission[]","components":[{"name":"strategiesAndMultipliers","type":"tuple[]","internalType":"struct IRewardsCoordinator.StrategyAndMultiplier[]","components":[{"name":"strategy","type":"address","internalType":"contract IStrategy"},{"name":"multiplier","type":"uint96","internalType":"uint96"}]},{"name":"token","type":"address","internalType":"contract IERC20"},{"name":"amount","type":"uint256","internalType":"uint256"},{"name":"startTimestamp","type":"uint32","internalType":"uint32"},{"name":"duration","type":"uint32","internalType":"uint32"}]}],"outputs":[],"stateMutability":"nonpayable"},{"type":"function","name":"createNewTask","inputs":[{"name":"batchMerkleRoot","type":"bytes32","internalType":"bytes32"},{"name":"batchDataPointer","type":"string","internalType":"string"},{"name":"respondToTaskFeeLimit","type":"uint256","internalType":"uint256"}],"outputs":[],"stateMutability":"payable"},{"type":"function","name":"delegation","inputs":[],"outputs":[{"name":"","type":"address","internalType":"contract IDelegationManager"}],"stateMutability":"view"},{"type":"function","name":"depositToBatcher","inputs":[{"name":"account","type":"address","internalType":"address"}],"outputs":[],"stateMutability":"payable"},{"type":"function","name":"deregisterOperatorFromAVS","inputs":[{"name":"operator","type":"address","internalType":"address"}],"outputs":[],"stateMutability":"nonpayable"},{"type":"function","name":"getBlacklistedVerifiers","inputs":[],"outputs":[{"name":"","type":"uint64","internalType":"uint64"}],"stateMutability":"view"},{"type":"function","name":"getOperatorRestakedStrategies","inputs":[{"name":"operator","type":"address","internalType":"address"}],"outputs":[{"name":"","type":"address[]","internalType":"address[]"}],"stateMutability":"view"},{"type":"function","name":"getRestakeableStrategies","inputs":[],"outputs":[{"name":"","type":"address[]","internalType":"address[]"}],"stateMutability":"view"},{"type":"function","name":"initialize","inputs":[{"name":"_initialOwner","type":"address","internalType":"address"},{"name":"_rewardsInitiator","type":"address","internalType":"address"},{"name":"_alignedAggregator","type":"address","internalType":"address"}],"outputs":[],"stateMutability":"nonpayable"},{"type":"function","name":"initializeAggregator","inputs":[{"name":"_alignedAggregator","type":"address","internalType":"address"}],"outputs":[],"stateMutability":"nonpayable"},{"type":"function","name":"isVerifierBlacklisted","inputs":[{"name":"verifierIdx","type":"uint64","internalType":"uint64"}],"outputs":[{"name":"","type":"bool","internalType":"bool"}],"stateMutability":"view"},{"type":"function","name":"owner","inputs":[],"outputs":[{"name":"","type":"address","internalType":"address"}],"stateMutability":"view"},{"type":"function","name":"registerOperatorToAVS","inputs":[{"name":"operator","type":"address","internalType":"address"},{"name":"operatorSignature","type":"tuple","internalType":"struct ISignatureUtils.SignatureWithSaltAndExpiry","components":[{"name":"signature","type":"bytes","internalType":"bytes"},{"name":"salt","type":"bytes32","internalType":"bytes32"},{"name":"expiry","type":"uint256","internalType":"uint256"}]}],"outputs":[],"stateMutability":"nonpayable"},{"type":"function","name":"registryCoordinator","inputs":[],"outputs":[{"name":"","type":"address","internalType":"contract IRegistryCoordinator"}],"stateMutability":"view"},{"type":"function","name":"renounceOwnership","inputs":[],"outputs":[],"stateMutability":"nonpayable"},{"type":"function","name":"respondToTaskV2","inputs":[{"name":"batchMerkleRoot","type":"bytes32","internalType":"bytes32"},{"name":"senderAddress","type":"address","internalType":"address"},{"name":"nonSignerStakesAndSignature","type":"tuple","internalType":"struct IBLSSignatureChecker.NonSignerStakesAndSignature","components":[{"name":"nonSignerQuorumBitmapIndices","type":"uint32[]","internalType":"uint32[]"},{"name":"nonSignerPubkeys","type":"tuple[]","internalType":"struct BN254.G1Point[]","components":[{"name":"X","type":"uint256","internalType":"uint256"},{"name":"Y","type":"uint256","internalType":"uint256"}]},{"name":"quorumApks","type":"tuple[]","internalType":"struct BN254.G1Point[]","components":[{"name":"X","type":"uint256","internalType":"uint256"},{"name":"Y","type":"uint256","internalType":"uint256"}]},{"name":"apkG2","type":"tuple","internalType":"struct BN254.G2Point","components":[{"name":"X","type":"uint256[2]","internalType":"uint256[2]"},{"name":"Y","type":"uint256[2]","internalType":"uint256[2]"}]},{"name":"sigma","type":"tuple","internalType":"struct BN254.G1Point","components":[{"name":"X","type":"uint256","internalType":"uint256"},{"name":"Y","type":"uint256","internalType":"uint256"}]},{"name":"quorumApkIndices","type":"uint32[]","internalType":"uint32[]"},{"name":"totalStakeIndices","type":"uint32[]","internalType":"uint32[]"},{"name":"nonSignerStakeIndices","type":"uint32[][]","internalType":"uint32[][]"}]}],"outputs":[],"stateMutability":"nonpayable"},{"type":"function","name":"rewardsInitiator","inputs":[],"outputs":[{"name":"","type":"address","internalType":"address"}],"stateMutability":"view"},{"type":"function","name":"setAggregator","inputs":[{"name":"_alignedAggregator","type":"address","internalType":"address"}],"outputs":[],"stateMutability":"nonpayable"},{"type":"function","name":"setRewardsInitiator","inputs":[{"name":"newRewardsInitiator","type":"address","internalType":"address"}],"outputs":[],"stateMutability":"nonpayable"},{"type":"function","name":"setStaleStakesForbidden","inputs":[{"name":"value","type":"bool","internalType":"bool"}],"outputs":[],"stateMutability":"nonpayable"},{"type":"function","name":"setVerifiersBlacklist","inputs":[{"name":"bitmap","type":"uint64","internalType":"uint64"}],"outputs":[],"stateMutability":"nonpayable"},{"type":"function","name":"stakeRegistry","inputs":[],"outputs":[{"name":"","type":"address","internalType":"contract IStakeRegistry"}],"stateMutability":"view"},{"type":"function","name":"staleStakesForbidden","inputs":[],"outputs":[{"name":"","type":"bool","internalType":"bool"}],"stateMutability":"view"},{"type":"function","name":"transferOwnership","inputs":[{"name":"newOwner","type":"address","internalType":"address"}],"outputs":[],"stateMutability":"nonpayable"},{"type":"function","name":"trySignatureAndApkVerification","inputs":[{"name":"msgHash","type":"bytes32","internalType":"bytes32"},{"name":"apk","type":"tuple","internalType":"struct BN254.G1Point","components":[{"name":"X","type":"uint256","internalType":"uint256"},{"name":"Y","type":"uint256","internalType":"uint256"}]},{"name":"apkG2","type":"tuple","internalType":"struct BN254.G2Point","components":[{"name":"X","type":"uint256[2]","internalType":"uint256[2]"},{"name":"Y","type":"uint256[2]","internalType":"uint256[2]"}]},{"name":"sigma","type":"tuple","internalType":"struct BN254.G1Point","components":[{"name":"X","type":"uint256","internalType":"uint256"},{"name":"Y","type":"uint256","internalType":"uint256"}]}],"outputs":[{"name":"pairingSuccessful","type":"bool","internalType":"bool"},{"name":"siganatureIsValid","type":"bool","internalType":"bool"}],"stateMutability":"view"},{"type":"function","name":"updateAVSMetadataURI","inputs":[{"name":"_metadataURI","type":"string","internalType":"string"}],"outputs":[],"stateMutability":"nonpayable"},{"type":"function","name":"verifyBatchInclusion","inputs":[{"name":"proofCommitment","type":"bytes32","internalType":"bytes32"},{"name":"pubInputCommitment","type":"bytes32","internalType":"bytes32"},{"name":"provingSystemAuxDataCommitment","type":"bytes32","internalType":"bytes32"},{"name":"proofGeneratorAddr","type":"bytes20","internalType":"bytes20"},{"name":"batchMerkleRoot","type":"bytes32","internalType":"bytes32"},{"name":"merkleProof","type":"bytes","internalType":"bytes"},{"name":"verificationDataBatchIndex","type":"uint256","internalType":"uint256"},{"name":"senderAddress","type":"address","internalType":"address"}],"outputs":[{"name":"","type":"bool","internalType":"bool"}],"stateMutability":"view"},{"type":"function","name":"verifyBatchInclusion","inputs":[{"name":"proofCommitment","type":"bytes32","internalType":"bytes32"},{"name":"pubInputCommitment","type":"bytes32","internalType":"bytes32"},{"name":"provingSystemAuxDataCommitment","type":"bytes32","internalType":"bytes32"},{"name":"proofGeneratorAddr","type":"bytes20","internalType":"bytes20"},{"name":"batchMerkleRoot","type":"bytes32","internalType":"bytes32"},{"name":"merkleProof","type":"bytes","internalType":"bytes"},{"name":"verificationDataBatchIndex","type":"uint256","internalType":"uint256"}],"outputs":[{"name":"","type":"bool","internalType":"bool"}],"stateMutability":"view"},{"type":"function","name":"whitelistVerifier","inputs":[{"name":"verifierIdx","type":"uint64","internalType":"uint64"}],"outputs":[],"stateMutability":"nonpayable"},{"type":"function","name":"withdraw","inputs":[{"name":"amount","type":"uint256","internalType":"uint256"}],"outputs":[],"stateMutability":"nonpayable"},{"type":"event","name":"BatchVerified","inputs":[{"name":"batchMerkleRoot","type":"bytes32","indexed":true,"internalType":"bytes32"},{"name":"senderAddress","type":"address","indexed":false,"internalType":"address"}],"anonymous":false},{"type":"event","name":"BatcherBalanceUpdated","inputs":[{"name":"batcher","type":"address","indexed":true,"internalType":"address"},{"name":"newBalance","type":"uint256","indexed":false,"internalType":"uint256"}],"anonymous":false},{"type":"event","name":"Initialized","inputs":[{"name":"version","type":"uint8","indexed":false,"internalType":"uint8"}],"anonymous":false},{"type":"event","name":"NewBatchV2","inputs":[{"name":"batchMerkleRoot","type":"bytes32","indexed":true,"internalType":"bytes32"},{"name":"senderAddress","type":"address","indexed":false,"internalType":"address"},{"name":"taskCreatedBlock","type":"uint32","indexed":false,"internalType":"uint32"},{"name":"batchDataPointer","type":"string","indexed":false,"internalType":"string"}],"anonymous":false},{"type":"event","name":"NewBatchV3","inputs":[{"name":"batchMerkleRoot","type":"bytes32","indexed":true,"internalType":"bytes32"},{"name":"senderAddress","type":"address","indexed":false,"internalType":"address"},{"name":"taskCreatedBlock","type":"uint32","indexed":false,"internalType":"uint32"},{"name":"batchDataPointer","type":"string","indexed":false,"internalType":"string"},{"name":"respondToTaskFeeLimit","type":"uint256","indexed":false,"internalType":"uint256"}],"anonymous":false},{"type":"event","name":"OwnershipTransferred","inputs":[{"name":"previousOwner","type":"address","indexed":true,"internalType":"address"},{"name":"newOwner","type":"address","indexed":true,"internalType":"address"}],"anonymous":false},{"type":"event","name":"RewardsInitiatorUpdated","inputs":[{"name":"prevRewardsInitiator","type":"address","indexed":false,"internalType":"address"},{"name":"newRewardsInitiator","type":"address","indexed":false,"internalType":"address"}],"anonymous":false},{"type":"event","name":"StaleStakesForbiddenUpdate","inputs":[{"name":"value","type":"bool","indexed":false,"internalType":"bool"}],"anonymous":false},{"type":"event","name":"VerifierBlacklisted","inputs":[{"name":"verifierIdx","type":"uint256","indexed":true,"internalType":"uint256"}],"anonymous":false},{"type":"event","name":"VerifierWhitelisted","inputs":[{"name":"verifierIdx","type":"uint256","indexed":true,"internalType":"uint256"}],"anonymous":false},{"type":"error","name":"BatchAlreadyResponded","inputs":[{"name":"batchIdentifierHash","type":"bytes32","internalType":"bytes32"}]},{"type":"error","name":"BatchAlreadySubmitted","inputs":[{"name":"batchIdentifierHash","type":"bytes32","internalType":"bytes32"}]},{"type":"error","name":"BatchDoesNotExist","inputs":[{"name":"batchIdentifierHash","type":"bytes32","internalType":"bytes32"}]},{"type":"error","name":"ExceededMaxRespondFee","inputs":[{"name":"respondToTaskFeeLimit","type":"uint256","internalType":"uint256"},{"name":"txCost","type":"uint256","internalType":"uint256"}]},{"type":"error","name":"InsufficientFunds","inputs":[{"name":"batcher","type":"address","internalType":"address"},{"name":"required","type":"uint256","internalType":"uint256"},{"name":"available","type":"uint256","internalType":"uint256"}]},{"type":"error","name":"InvalidDepositAmount","inputs":[{"name":"amount","type":"uint256","internalType":"uint256"}]},{"type":"error","name":"InvalidQuorumThreshold","inputs":[{"name":"signedStake","type":"uint256","internalType":"uint256"},{"name":"requiredStake","type":"uint256","internalType":"uint256"}]},{"type":"error","name":"SenderIsNotAggregator","inputs":[{"name":"sender","type":"address","internalType":"address"},{"name":"alignedAggregator","type":"address","internalType":"address"}]},{"type":"error","name":"VerifierIdxOutOfBounds","inputs":[]}],"bytecode":{"object":"0x61018060405234801561001157600080fd5b5060405161590c38038061590c833981016040819052610030916102cf565b6001600160a01b0380851660805280841660a05280831660c052811660e052818484828461005c6101f7565b50505050806001600160a01b0316610100816001600160a01b031681525050806001600160a01b031663683048356040518163ffffffff1660e01b8152600401602060405180830381865afa1580156100b9573d6000803e3d6000fd5b505050506040513d601f19601f820116820180604052508101906100dd919061032e565b6001600160a01b0316610120816001600160a01b031681525050806001600160a01b0316635df459466040518163ffffffff1660e01b8152600401602060405180830381865afa158015610135573d6000803e3d6000fd5b505050506040513d601f19601f82011682018060405250810190610159919061032e565b6001600160a01b0316610140816001600160a01b031681525050610120516001600160a01b031663df5cf7236040518163ffffffff1660e01b8152600401602060405180830381865afa1580156101b4573d6000803e3d6000fd5b505050506040513d601f19601f820116820180604052508101906101d8919061032e565b6001600160a01b031661016052506101ee6101f7565b50505050610352565b600054610100900460ff16156102635760405162461bcd60e51b815260206004820152602760248201527f496e697469616c697a61626c653a20636f6e747261637420697320696e697469604482015266616c697a696e6760c81b606482015260840160405180910390fd5b60005460ff90811610156102b5576000805460ff191660ff9081179091556040519081527f7f26b83ff96e1f2b6a682f133852f6798a09c465da95921460cefb38474024989060200160405180910390a15b565b6001600160a01b03811681146102cc57600080fd5b50565b600080600080608085870312156102e557600080fd5b84516102f0816102b7565b6020860151909450610301816102b7565b6040860151909350610312816102b7565b6060860151909250610323816102b7565b939692955090935050565b60006020828403121561034057600080fd5b815161034b816102b7565b9392505050565b60805160a05160c05160e051610100516101205161014051610160516154ad61045f6000396000818161074c01526118f50152600081816103f90152611b0801526000818161042d01528181611cf50152611ee501526000818161049401528181611127015281816115bb0152818161176201526119a9015260008181610e5c01528181610fad0152818161104401528181612d2601528181612e9f0152612f3e015260008181610c8301528181610d1201528181610d9201528181612309015281816123d501528181612c610152612dfa0152600081816132f5015281816133b1015261349401526000818161045e0152818161235d0152818161243101526124b001526154ad6000f3fe60806040526004361061023f5760003560e01c8063a364f4da1161012e578063d66eaabd116100ab578063f474b5201161006f578063f474b520146107c3578063f9120af6146107f0578063fa534dc014610810578063fc299dee14610830578063fce36c7d1461085057600080fd5b8063d66eaabd14610727578063df5cf7231461073a578063e28ca33d1461076e578063e481af9d1461078e578063f2fde38b146107a357600080fd5b8063b98d0908116100f2578063b98d090814610677578063bd11c55a14610691578063c0c53b8b146106c9578063c20a0603146106e9578063d5851e1b1461070957600080fd5b8063a364f4da1461058d578063a98fb355146105ad578063ab21739a146105cd578063b099627e146105ed578063b86776891461065757600080fd5b80635df45946116101bc578063715018a611610180578063715018a6146104fa578063800fb61f1461050f5780638da5cb5b1461052f57806395c6d6041461054d5780639926ee7d1461056d57600080fd5b80635df45946146103e7578063683048351461041b5780636b3aa72e1461044f5780636d14a9871461048257806370a08231146104b657600080fd5b8063416c7e5e11610203578063416c7e5e1461032e5780634223d5511461034e5780634a5bf632146103615780634ae07c37146103995780635c35e282146103c757600080fd5b806306045a9114610255578063171f1d5b1461028a5780632e1a7d4d146102c157806333cfb7b7146102e15780633bc28c8c1461030e57600080fd5b366102505761024e3334610870565b005b600080fd5b34801561026157600080fd5b50610275610270366004614413565b610905565b60405190151581526020015b60405180910390f35b34801561029657600080fd5b506102aa6102a5366004614566565b6109fc565b604080519215158352901515602083015201610281565b3480156102cd57600080fd5b5061024e6102dc3660046145b7565b610b86565b3480156102ed57600080fd5b506103016102fc3660046145d0565b610c5e565b60405161028191906145ed565b34801561031a57600080fd5b5061024e6103293660046145d0565b611111565b34801561033a57600080fd5b5061024e61034936600461463c565b611125565b61024e61035c3660046145d0565b61125c565b34801561036d57600080fd5b5060cc54610381906001600160a01b031681565b6040516001600160a01b039091168152602001610281565b3480156103a557600080fd5b506103b96103b4366004614934565b611266565b6040516102819291906149cf565b3480156103d357600080fd5b5061024e6103e2366004614a18565b61219a565b3480156103f357600080fd5b506103817f000000000000000000000000000000000000000000000000000000000000000081565b34801561042757600080fd5b506103817f000000000000000000000000000000000000000000000000000000000000000081565b34801561045b57600080fd5b507f0000000000000000000000000000000000000000000000000000000000000000610381565b34801561048e57600080fd5b506103817f000000000000000000000000000000000000000000000000000000000000000081565b3480156104c257600080fd5b506104ec6104d13660046145d0565b6001600160a01b0316600090815260cb602052604090205490565b604051908152602001610281565b34801561050657600080fd5b5061024e612225565b34801561051b57600080fd5b5061024e61052a3660046145d0565b612239565b34801561053b57600080fd5b506033546001600160a01b0316610381565b34801561055957600080fd5b50610275610568366004614a89565b6122d9565b34801561057957600080fd5b5061024e610588366004614ad4565b6122fe565b34801561059957600080fd5b5061024e6105a83660046145d0565b6123ca565b3480156105b957600080fd5b5061024e6105c8366004614b8b565b612491565b3480156105d957600080fd5b5061024e6105e8366004614bdb565b6124e5565b3480156105f957600080fd5b506106356106083660046145b7565b60c9602052600090815260409020805460019091015463ffffffff821691640100000000900460ff169083565b6040805163ffffffff9094168452911515602084015290820152606001610281565b34801561066357600080fd5b5061024e610672366004614a18565b6128a4565b34801561068357600080fd5b506097546102759060ff1681565b34801561069d57600080fd5b5060ca546106b1906001600160401b031681565b6040516001600160401b039091168152602001610281565b3480156106d557600080fd5b5061024e6106e4366004614c02565b612930565b3480156106f557600080fd5b50610275610704366004614a18565b612a1a565b34801561071557600080fd5b5060ca546001600160401b03166106b1565b61024e610735366004614c4d565b612a61565b34801561074657600080fd5b506103817f000000000000000000000000000000000000000000000000000000000000000081565b34801561077a57600080fd5b5061024e610789366004614a18565b612c30565b34801561079a57600080fd5b50610301612c5b565b3480156107af57600080fd5b5061024e6107be3660046145d0565b613007565b3480156107cf57600080fd5b506104ec6107de3660046145d0565b60cb6020526000908152604090205481565b3480156107fc57600080fd5b5061024e61080b3660046145d0565b61307d565b34801561081c57600080fd5b5061027561082b366004614c9f565b6130a7565b34801561083c57600080fd5b50606554610381906001600160a01b031681565b34801561085c57600080fd5b5061024e61086b366004614d1f565b61311c565b8060000361089957604051632097692160e11b8152600481018290526024015b60405180910390fd5b6001600160a01b038216600090815260cb6020526040812080548392906108c1908490614daa565b90915550506001600160a01b038216600081815260cb6020908152604091829020549151918252600080516020615438833981519152910160405180910390a25050565b6000806001600160a01b03831661091d575084610949565b8583604051602001610930929190614dbd565b6040516020818303038152906040528051906020012090505b600081815260c9602052604081205463ffffffff16900361096e5760009150506109f0565b600081815260c96020526040902054640100000000900460ff166109965760009150506109f0565b60408051602081018c90529081018a9052606081018990526001600160601b03198816608082015260009060940160408051601f19818403018152919052805160208201209091506109ea878983896134cb565b93505050505b98975050505050505050565b60008060007f30644e72e131a029b85045b68181585d2833e84879b9709143e1f593f000000187876000015188602001518860000151600060028110610a4457610a44614dd8565b60200201518951600160200201518a60200151600060028110610a6957610a69614dd8565b60200201518b60200151600160028110610a8557610a85614dd8565b602090810291909101518c518d830151604051610ae29a99989796959401988952602089019790975260408801959095526060870193909352608086019190915260a085015260c084015260e08301526101008201526101200190565b6040516020818303038152906040528051906020012060001c610b059190614dee565b9050610b78610b1e610b1788846134e3565b8690613574565b610b26613609565b610b6e610b5f85610b59604080518082018252600080825260209182015281518083019092526001825260029082015290565b906134e3565b610b688c6136c9565b90613574565b886201d4c0613758565b909890975095505050505050565b33600090815260cb6020526040902054811115610bd75733600081815260cb602052604090819020549051632e2a182f60e11b81526004810192909252602482018390526044820152606401610890565b33600090815260cb602052604081208054839290610bf6908490614e10565b909155505033600081815260cb6020908152604091829020549151918252600080516020615438833981519152910160405180910390a2604051339082156108fc029083906000818181858888f19350505050158015610c5a573d6000803e3d6000fd5b5050565b6040516309aa152760e11b81526001600160a01b0382811660048301526060916000917f000000000000000000000000000000000000000000000000000000000000000016906313542a4e90602401602060405180830381865afa158015610cca573d6000803e3d6000fd5b505050506040513d601f19601f82011682018060405250810190610cee9190614e23565b60405163871ef04960e01b8152600481018290529091506000906001600160a01b037f0000000000000000000000000000000000000000000000000000000000000000169063871ef04990602401602060405180830381865afa158015610d59573d6000803e3d6000fd5b505050506040513d601f19601f82011682018060405250810190610d7d9190614e3c565b90506001600160c01b0381161580610e1757507f00000000000000000000000000000000000000000000000000000000000000006001600160a01b0316639aa1653d6040518163ffffffff1660e01b8152600401602060405180830381865afa158015610dee573d6000803e3d6000fd5b505050506040513d601f19601f82011682018060405250810190610e129190614e65565b60ff16155b15610e375760408051600080825260208201909252905b50949350505050565b6000610e4b826001600160c01b0316613972565b90506000805b8251811015610f17577f00000000000000000000000000000000000000000000000000000000000000006001600160a01b0316633ca5a5f5848381518110610e9b57610e9b614dd8565b01602001516040516001600160e01b031960e084901b16815260f89190911c6004820152602401602060405180830381865afa158015610edf573d6000803e3d6000fd5b505050506040513d601f19601f82011682018060405250810190610f039190614e23565b610f0d9083614daa565b9150600101610e51565b506000816001600160401b03811115610f3257610f326142eb565b604051908082528060200260200182016040528015610f5b578160200160208202803683370190505b5090506000805b8451811015611104576000858281518110610f7f57610f7f614dd8565b0160200151604051633ca5a5f560e01b815260f89190911c6004820181905291506000906001600160a01b037f00000000000000000000000000000000000000000000000000000000000000001690633ca5a5f590602401602060405180830381865afa158015610ff4573d6000803e3d6000fd5b505050506040513d601f19601f820116820180604052508101906110189190614e23565b905060005b818110156110f9576040516356e4026d60e11b815260ff84166004820152602481018290527f00000000000000000000000000000000000000000000000000000000000000006001600160a01b03169063adc804da906044016040805180830381865afa158015611092573d6000803e3d6000fd5b505050506040513d601f19601f820116820180604052508101906110b69190614e9d565b600001518686815181106110cc576110cc614dd8565b6001600160a01b0390921660209283029190910190910152846110ee81614ee0565b95505060010161101d565b505050600101610f62565b5090979650505050505050565b611119613a34565b61112281613a8e565b50565b7f00000000000000000000000000000000000000000000000000000000000000006001600160a01b0316638da5cb5b6040518163ffffffff1660e01b8152600401602060405180830381865afa158015611183573d6000803e3d6000fd5b505050506040513d601f19601f820116820180604052508101906111a79190614ef9565b6001600160a01b0316336001600160a01b0316146112535760405162461bcd60e51b815260206004820152605c60248201527f424c535369676e6174757265436865636b65722e6f6e6c79436f6f7264696e6160448201527f746f724f776e65723a2063616c6c6572206973206e6f7420746865206f776e6560648201527f72206f6620746865207265676973747279436f6f7264696e61746f7200000000608482015260a401610890565b61112281613af7565b6111228134610870565b604080518082019091526060808252602082015260008260400151516040518060400160405280600181526020016000815250511480156112c257508260a0015151604051806040016040528060018152602001600081525051145b80156112e957508260c0015151604051806040016040528060018152602001600081525051145b801561131057508260e0015151604051806040016040528060018152602001600081525051145b61137a5760405162461bcd60e51b8152602060048201526041602482015260008051602061545883398151915260448201527f7265733a20696e7075742071756f72756d206c656e677468206d69736d6174636064820152600d60fb1b608482015260a401610890565b825151602084015151146113f25760405162461bcd60e51b815260206004820152604460248201819052600080516020615458833981519152908201527f7265733a20696e707574206e6f6e7369676e6572206c656e677468206d69736d6064820152630c2e8c6d60e31b608482015260a401610890565b4363ffffffff168463ffffffff16106114615760405162461bcd60e51b815260206004820152603c602482015260008051602061545883398151915260448201527f7265733a20696e76616c6964207265666572656e636520626c6f636b000000006064820152608401610890565b60408051808201825260008082526020808301829052835180850185526060808252818301528451808601865260018082529083019390935284518381528086019095529293919082810190803683370190505060208281019190915260408051808201825260018082526000919093015280518281528082019091529081602001602082028036833701905050815260408051808201909152606080825260208201528560200151516001600160401b03811115611522576115226142eb565b60405190808252806020026020018201604052801561154b578160200160208202803683370190505b5081526020860151516001600160401b0381111561156b5761156b6142eb565b604051908082528060200260200182016040528015611594578160200160208202803683370190505b508160200181905250600061164060405180604001604052806001815260200160008152507f00000000000000000000000000000000000000000000000000000000000000006001600160a01b0316639aa1653d6040518163ffffffff1660e01b8152600401602060405180830381865afa158015611617573d6000803e3d6000fd5b505050506040513d601f19601f8201168201806040525081019061163b9190614e65565b613b3e565b905060005b8760200151518110156118d15761168a8860200151828151811061166b5761166b614dd8565b6020026020010151805160009081526020918201519091526040902090565b836020015182815181106116a0576116a0614dd8565b602090810291909101015280156117605760208301516116c1600183614e10565b815181106116d1576116d1614dd8565b602002602001015160001c836020015182815181106116f2576116f2614dd8565b602002602001015160001c11611760576040805162461bcd60e51b815260206004820152602481019190915260008051602061545883398151915260448201527f7265733a206e6f6e5369676e65725075626b657973206e6f7420736f727465646064820152608401610890565b7f00000000000000000000000000000000000000000000000000000000000000006001600160a01b03166304ec6351846020015183815181106117a5576117a5614dd8565b60200260200101518b8b6000015185815181106117c4576117c4614dd8565b60200260200101516040518463ffffffff1660e01b81526004016118019392919092835263ffffffff918216602084015216604082015260600190565b602060405180830381865afa15801561181e573d6000803e3d6000fd5b505050506040513d601f19601f820116820180604052508101906118429190614e3c565b6001600160c01b03168360000151828151811061186157611861614dd8565b6020026020010181815250506118c7610b1761189b848660000151858151811061188d5761188d614dd8565b602002602001015116613bd1565b8a6020015184815181106118b1576118b1614dd8565b6020026020010151613bfc90919063ffffffff16565b9450600101611645565b50506118dc83613cdf565b60975490935060ff166000816118f3576000611975565b7f00000000000000000000000000000000000000000000000000000000000000006001600160a01b031663c448feb86040518163ffffffff1660e01b8152600401602060405180830381865afa158015611951573d6000803e3d6000fd5b505050506040513d601f19601f820116820180604052508101906119759190614e23565b905060005b60405180604001604052806001815260200160008152505181101561206b578215611b06578963ffffffff16827f00000000000000000000000000000000000000000000000000000000000000006001600160a01b031663249a0c42604051806040016040528060018152602001600081525085815181106119fe576119fe614dd8565b01602001516040516001600160e01b031960e084901b16815260f89190911c6004820152602401602060405180830381865afa158015611a42573d6000803e3d6000fd5b505050506040513d601f19601f82011682018060405250810190611a669190614e23565b611a709190614daa565b11611b065760405162461bcd60e51b8152602060048201526066602482015260008051602061545883398151915260448201527f7265733a205374616b6552656769737472792075706461746573206d7573742060648201527f62652077697468696e207769746864726177616c44656c6179426c6f636b732060848201526577696e646f7760d01b60a482015260c401610890565b7f00000000000000000000000000000000000000000000000000000000000000006001600160a01b03166368bccaac60405180604001604052806001815260200160008152508381518110611b5d57611b5d614dd8565b602001015160f81c60f81b60f81c8c8c60a001518581518110611b8257611b82614dd8565b60209081029190910101516040516001600160e01b031960e086901b16815260ff909316600484015263ffffffff9182166024840152166044820152606401602060405180830381865afa158015611bde573d6000803e3d6000fd5b505050506040513d601f19601f82011682018060405250810190611c029190614f16565b6001600160401b031916611c258a60400151838151811061166b5761166b614dd8565b67ffffffffffffffff191614611cc15760405162461bcd60e51b8152602060048201526061602482015260008051602061545883398151915260448201527f7265733a2071756f72756d41706b206861736820696e2073746f72616765206460648201527f6f6573206e6f74206d617463682070726f76696465642071756f72756d2061706084820152606b60f81b60a482015260c401610890565b611cf189604001518281518110611cda57611cda614dd8565b60200260200101518761357490919063ffffffff16565b95507f00000000000000000000000000000000000000000000000000000000000000006001600160a01b031663c8294c5660405180604001604052806001815260200160008152508381518110611d4a57611d4a614dd8565b602001015160f81c60f81b60f81c8c8c60c001518581518110611d6f57611d6f614dd8565b60209081029190910101516040516001600160e01b031960e086901b16815260ff909316600484015263ffffffff9182166024840152166044820152606401602060405180830381865afa158015611dcb573d6000803e3d6000fd5b505050506040513d601f19601f82011682018060405250810190611def9190614f41565b85602001518281518110611e0557611e05614dd8565b6001600160601b03909216602092830291909101820152850151805182908110611e3157611e31614dd8565b602002602001015185600001518281518110611e4f57611e4f614dd8565b60200260200101906001600160601b031690816001600160601b0316815250506000805b8a602001515181101561206157611ede86600001518281518110611e9957611e99614dd8565b602002602001015160405180604001604052806001815260200160008152508581518110611ec957611ec9614dd8565b016020015160f81c60ff161c60019081161490565b15612059577f00000000000000000000000000000000000000000000000000000000000000006001600160a01b031663f2be94ae60405180604001604052806001815260200160008152508581518110611f3a57611f3a614dd8565b602001015160f81c60f81b60f81c8e89602001518581518110611f5f57611f5f614dd8565b60200260200101518f60e001518881518110611f7d57611f7d614dd8565b60200260200101518781518110611f9657611f96614dd8565b60209081029190910101516040516001600160e01b031960e087901b16815260ff909416600485015263ffffffff92831660248501526044840191909152166064820152608401602060405180830381865afa158015611ffa573d6000803e3d6000fd5b505050506040513d601f19601f8201168201806040525081019061201e9190614f41565b875180518590811061203257612032614dd8565b602002602001018181516120469190614f5e565b6001600160601b03169052506001909101905b600101611e73565b505060010161197a565b5050506000806120858a868a606001518b608001516109fc565b91509150816120f65760405162461bcd60e51b8152602060048201526043602482015260008051602061545883398151915260448201527f7265733a2070616972696e6720707265636f6d70696c652063616c6c206661696064820152621b195960ea1b608482015260a401610890565b806121575760405162461bcd60e51b8152602060048201526039602482015260008051602061545883398151915260448201527f7265733a207369676e617475726520697320696e76616c6964000000000000006064820152608401610890565b50506000878260200151604051602001612172929190614f7d565b60408051808303601f1901815291905280516020909101209299929850919650505050505050565b806040816001600160401b0316106121c55760405163044b147760e11b815260040160405180910390fd5b6121cd613a34565b60ca805467ffffffffffffffff1981166001600160401b03918216600186841690811b90931617179091556040517f1a64b4fd79811233a75bc33765b44fb3db08c6d41b727be66b1911bf0e6499e990600090a25050565b61222d613a34565b6122376000613d7a565b565b600054600290610100900460ff1615801561225b575060005460ff8083169116105b6122775760405162461bcd60e51b815260040161089090614fc5565b6000805461ffff191660ff8316176101001790556122948261307d565b6000805461ff001916905560405160ff821681527f7f26b83ff96e1f2b6a682f133852f6798a09c465da95921460cefb38474024989060200160405180910390a15050565b60008184846040516122ec929190615013565b60405180910390201490509392505050565b336001600160a01b037f000000000000000000000000000000000000000000000000000000000000000016146123465760405162461bcd60e51b815260040161089090615023565b604051639926ee7d60e01b81526001600160a01b037f00000000000000000000000000000000000000000000000000000000000000001690639926ee7d9061239490859085906004016150e1565b600060405180830381600087803b1580156123ae57600080fd5b505af11580156123c2573d6000803e3d6000fd5b505050505050565b336001600160a01b037f000000000000000000000000000000000000000000000000000000000000000016146124125760405162461bcd60e51b815260040161089090615023565b6040516351b27a6d60e11b81526001600160a01b0382811660048301527f0000000000000000000000000000000000000000000000000000000000000000169063a364f4da906024015b600060405180830381600087803b15801561247657600080fd5b505af115801561248a573d6000803e3d6000fd5b5050505050565b612499613a34565b60405163a98fb35560e01b81526001600160a01b037f0000000000000000000000000000000000000000000000000000000000000000169063a98fb3559061245c90849060040161512c565b60cc546001600160a01b031633146125255760cc54604051632cbe419560e01b81523360048201526001600160a01b039091166024820152604401610890565b60005a90506000848460405160200161253f929190614dbd565b60408051601f198184030181529181528151602092830120600081815260c990935290822080549193509163ffffffff9091169003612594576040516311cb69a760e11b815260048101839052602401610890565b8054640100000000900460ff16156125c257604051634e78d7f960e11b815260048101839052602401610890565b805464ff00000000191664010000000017815560018101546001600160a01b038616600090815260cb602052604090205410156126455760018101546001600160a01b038616600081815260cb602052604090819020549051632e2a182f60e11b8152600481019290925260248201929092526044810191909152606401610890565b805460009061265c90849063ffffffff1687611266565b509050604360ff16816020015160008151811061267b5761267b614dd8565b602002602001015161268d919061513f565b6001600160601b0316606482600001516000815181106126af576126af614dd8565b60200260200101516001600160601b03166126ca9190615168565b101561275d57606481600001516000815181106126e9576126e9614dd8565b60200260200101516001600160601b03166127049190615168565b604360ff16826020015160008151811061272057612720614dd8565b6020026020010151612732919061513f565b60405163530f5c4560e11b815260048101929092526001600160601b03166024820152604401610890565b6040516001600160a01b038716815287907f8511746b73275e06971968773119b9601fc501d7bdf3824d8754042d148940e29060200160405180910390a260003a5a6127a99087614e10565b6127b69062011170614daa565b6127c09190615168565b905082600101548111156127f757600183015460405163437e283f60e11b8152600481019190915260248101829052604401610890565b6001600160a01b038716600090815260cb60205260408120805483929061281f908490614e10565b90915550506001600160a01b038716600081815260cb6020908152604091829020549151918252600080516020615438833981519152910160405180910390a260cc546040516001600160a01b039091169082156108fc029083906000818181858888f19350505050158015612899573d6000803e3d6000fd5b505050505050505050565b806040816001600160401b0316106128cf5760405163044b147760e11b815260040160405180910390fd5b6128d7613a34565b60ca805467ffffffffffffffff19811660016001600160401b0380871691821b1993909316909216179091556040517f1bf253d8b4d0c69b3ed3aa869fe0e1e4006a10469cfb308fe96f7041dd49a0e390600090a25050565b600054610100900460ff16158080156129505750600054600160ff909116105b8061296a5750303b15801561296a575060005460ff166001145b6129865760405162461bcd60e51b815260040161089090614fc5565b6000805460ff1916600117905580156129a9576000805461ff0019166101001790555b6129b38484613dcc565b60cc80546001600160a01b0319166001600160a01b0384161790558015612a14576000805461ff0019169055604051600181527f7f26b83ff96e1f2b6a682f133852f6798a09c465da95921460cefb38474024989060200160405180910390a15b50505050565b6000816040816001600160401b031610612a475760405163044b147760e11b815260040160405180910390fd5b505060ca5460016001600160401b039283161b1616151590565b60ca805467ffffffffffffffff19166008179055604051600090612a8b9086903390602001614dbd565b60408051601f198184030181529181528151602092830120600081815260c990935291205490915063ffffffff1615612ada57604051630c40bc4360e21b815260048101829052602401610890565b3415612b375733600090815260cb602052604081208054349290612aff908490614daa565b909155505033600081815260cb6020908152604091829020549151918252600080516020615438833981519152910160405180910390a25b33600090815260cb6020526040902054821115612b885733600081815260cb602052604090819020549051632e2a182f60e11b81526004810192909252602482018490526044820152606401610890565b604080516060810182526000602080830182815263ffffffff43818116865285870189815288865260c99094529386902085518154935115156401000000000264ffffffffff1990941692169190911791909117815590516001909101559151909187917f8801fc966deb2c8f563a103c35c9e80740585c292cd97518587e6e7927e6af5591612c20913391908a908a908a9061517f565b60405180910390a2505050505050565b612c38613a34565b60ca805467ffffffffffffffff19166001600160401b0392909216919091179055565b606060007f00000000000000000000000000000000000000000000000000000000000000006001600160a01b0316639aa1653d6040518163ffffffff1660e01b8152600401602060405180830381865afa158015612cbd573d6000803e3d6000fd5b505050506040513d601f19601f82011682018060405250810190612ce19190614e65565b60ff16905080600003612d0257505060408051600081526020810190915290565b6000805b82811015612dad57604051633ca5a5f560e01b815260ff821660048201527f00000000000000000000000000000000000000000000000000000000000000006001600160a01b031690633ca5a5f590602401602060405180830381865afa158015612d75573d6000803e3d6000fd5b505050506040513d601f19601f82011682018060405250810190612d999190614e23565b612da39083614daa565b9150600101612d06565b506000816001600160401b03811115612dc857612dc86142eb565b604051908082528060200260200182016040528015612df1578160200160208202803683370190505b5090506000805b7f00000000000000000000000000000000000000000000000000000000000000006001600160a01b0316639aa1653d6040518163ffffffff1660e01b8152600401602060405180830381865afa158015612e56573d6000803e3d6000fd5b505050506040513d601f19601f82011682018060405250810190612e7a9190614e65565b60ff16811015612ffd57604051633ca5a5f560e01b815260ff821660048201526000907f00000000000000000000000000000000000000000000000000000000000000006001600160a01b031690633ca5a5f590602401602060405180830381865afa158015612eee573d6000803e3d6000fd5b505050506040513d601f19601f82011682018060405250810190612f129190614e23565b905060005b81811015612ff3576040516356e4026d60e11b815260ff84166004820152602481018290527f00000000000000000000000000000000000000000000000000000000000000006001600160a01b03169063adc804da906044016040805180830381865afa158015612f8c573d6000803e3d6000fd5b505050506040513d601f19601f82011682018060405250810190612fb09190614e9d565b60000151858581518110612fc657612fc6614dd8565b6001600160a01b039092166020928302919091019091015283612fe881614ee0565b945050600101612f17565b5050600101612df8565b5090949350505050565b61300f613a34565b6001600160a01b0381166130745760405162461bcd60e51b815260206004820152602660248201527f4f776e61626c653a206e6577206f776e657220697320746865207a65726f206160448201526564647265737360d01b6064820152608401610890565b61112281613d7a565b613085613a34565b60cc80546001600160a01b0319166001600160a01b0392909216919091179055565b6040516306045a9160e01b815260009030906306045a91906130db908b908b908b908b908b908b908b908b906004016151d6565b602060405180830381865afa1580156130f8573d6000803e3d6000fd5b505050506040513d601f19601f820116820180604052508101906109f09190615238565b6065546001600160a01b031633146131b15760405162461bcd60e51b815260206004820152604c60248201527f536572766963654d616e61676572426173652e6f6e6c7952657761726473496e60448201527f69746961746f723a2063616c6c6572206973206e6f742074686520726577617260648201526b32399034b734ba34b0ba37b960a11b608482015260a401610890565b60005b8181101561347c578282828181106131ce576131ce614dd8565b90506020028101906131e09190615255565b6131f19060408101906020016145d0565b6001600160a01b03166323b872dd333086868681811061321357613213614dd8565b90506020028101906132259190615255565b604080516001600160e01b031960e087901b1681526001600160a01b039485166004820152939092166024840152013560448201526064016020604051808303816000875af115801561327c573d6000803e3d6000fd5b505050506040513d601f19601f820116820180604052508101906132a09190615238565b5060008383838181106132b5576132b5614dd8565b90506020028101906132c79190615255565b6132d89060408101906020016145d0565b604051636eb1769f60e11b81523060048201526001600160a01b037f000000000000000000000000000000000000000000000000000000000000000081166024830152919091169063dd62ed3e90604401602060405180830381865afa158015613346573d6000803e3d6000fd5b505050506040513d601f19601f8201168201806040525081019061336a9190614e23565b905083838381811061337e5761337e614dd8565b90506020028101906133909190615255565b6133a19060408101906020016145d0565b6001600160a01b031663095ea7b37f0000000000000000000000000000000000000000000000000000000000000000838787878181106133e3576133e3614dd8565b90506020028101906133f59190615255565b604001356134039190614daa565b6040516001600160e01b031960e085901b1681526001600160a01b03909216600483015260248201526044016020604051808303816000875af115801561344e573d6000803e3d6000fd5b505050506040513d601f19601f820116820180604052508101906134729190615238565b50506001016131b4565b5060405163fce36c7d60e01b81526001600160a01b037f0000000000000000000000000000000000000000000000000000000000000000169063fce36c7d9061239490859085906004016152dc565b6000836134d9868585613e49565b1495945050505050565b60408051808201909152600080825260208201526134ff6141f9565b835181526020808501519082015260408082018490526000908360608460076107d05a03fa9050808061352e57fe5b508061356c5760405162461bcd60e51b815260206004820152600d60248201526c1958cb5b5d5b0b59985a5b1959609a1b6044820152606401610890565b505092915050565b6040805180820190915260008082526020820152613590614217565b835181526020808501518183015283516040808401919091529084015160608301526000908360808460066107d05a03fa905080806135cb57fe5b508061356c5760405162461bcd60e51b815260206004820152600d60248201526c1958cb5859190b59985a5b1959609a1b6044820152606401610890565b613611614235565b50604080516080810182527f198e9393920d483a7260bfb731fb5d25f1aa493335a9e71297e485b7aef312c28183019081527f1800deef121f1e76426a00665e5c4479674322d4f75edadd46debd5cd992f6ed6060830152815281518083019092527f275dc4a288d1afb3cbb1ac09187524c7db36395df7be3b99e673b13a075a65ec82527f1d9befcd05a5323e6da4d435f3b617cdb3af83285c2df711ef39c01571827f9d60208381019190915281019190915290565b6040805180820190915260008082526020820152600080806136f960008051602061541883398151915286614dee565b90505b61370581613f46565b9093509150600080516020615418833981519152828309830361373e576040805180820190915290815260208101919091529392505050565b6000805160206154188339815191526001820890506136fc565b60408051808201825286815260208082018690528251808401909352868352820184905260009182919061378a61425a565b60005b60028110156139455760006137a3826006615168565b90508482600281106137b7576137b7614dd8565b602002015151836137c9836000614daa565b600c81106137d9576137d9614dd8565b60200201528482600281106137f0576137f0614dd8565b602002015160200151838260016138079190614daa565b600c811061381757613817614dd8565b602002015283826002811061382e5761382e614dd8565b6020020151515183613841836002614daa565b600c811061385157613851614dd8565b602002015283826002811061386857613868614dd8565b6020020151516001602002015183613881836003614daa565b600c811061389157613891614dd8565b60200201528382600281106138a8576138a8614dd8565b6020020151602001516000600281106138c3576138c3614dd8565b6020020151836138d4836004614daa565b600c81106138e4576138e4614dd8565b60200201528382600281106138fb576138fb614dd8565b60200201516020015160016002811061391657613916614dd8565b602002015183613927836005614daa565b600c811061393757613937614dd8565b60200201525060010161378d565b5061394e614279565b60006020826101808560088cfa9151919c9115159b50909950505050505050505050565b606060008061398084613bd1565b61ffff166001600160401b0381111561399b5761399b6142eb565b6040519080825280601f01601f1916602001820160405280156139c5576020820181803683370190505b5090506000805b8251821080156139dd575061010081105b15612ffd576001811b935085841615613a24578060f81b838381518110613a0657613a06614dd8565b60200101906001600160f81b031916908160001a9053508160010191505b613a2d81614ee0565b90506139cc565b6033546001600160a01b031633146122375760405162461bcd60e51b815260206004820181905260248201527f4f776e61626c653a2063616c6c6572206973206e6f7420746865206f776e65726044820152606401610890565b606554604080516001600160a01b03928316815291831660208301527fe11cddf1816a43318ca175bbc52cd0185436e9cbead7c83acc54a73e461717e3910160405180910390a1606580546001600160a01b0319166001600160a01b0392909216919091179055565b6097805460ff19168215159081179091556040519081527f40e4ed880a29e0f6ddce307457fb75cddf4feef7d3ecb0301bfdf4976a0e2dfc9060200160405180910390a150565b600080613b4a84613fc8565b9050808360ff166001901b11613bc85760405162461bcd60e51b815260206004820152603f60248201527f4269746d61705574696c732e6f72646572656442797465734172726179546f4260448201527f69746d61703a206269746d61702065786365656473206d61782076616c7565006064820152608401610890565b90505b92915050565b6000805b8215613bcb57613be6600184614e10565b9092169180613bf4816153f6565b915050613bd5565b60408051808201909152600080825260208201526102008261ffff1610613c585760405162461bcd60e51b815260206004820152601060248201526f7363616c61722d746f6f2d6c6172676560801b6044820152606401610890565b8161ffff16600103613c6b575081613bcb565b6040805180820190915260008082526020820181905284906001905b8161ffff168661ffff1610613cd457600161ffff871660ff83161c81169003613cb757613cb48484613574565b93505b613cc18384613574565b92506201fffe600192831b169101613c87565b509195945050505050565b60408051808201909152600080825260208201528151158015613d0457506020820151155b15613d22575050604080518082019091526000808252602082015290565b6040518060400160405280836000015181526020016000805160206154188339815191528460200151613d559190614dee565b613d6d90600080516020615418833981519152614e10565b905292915050565b919050565b603380546001600160a01b038381166001600160a01b0319831681179093556040519116919082907f8be0079c531659141344cd1fd0a4f28419497f9722a3daafe3b4186f6b6457e090600090a35050565b600054610100900460ff16613e375760405162461bcd60e51b815260206004820152602b60248201527f496e697469616c697a61626c653a20636f6e7472616374206973206e6f74206960448201526a6e697469616c697a696e6760a81b6064820152608401610890565b613e4082613d7a565b610c5a81613a8e565b600060208451613e599190614dee565b15613ee05760405162461bcd60e51b815260206004820152604b60248201527f4d65726b6c652e70726f63657373496e636c7573696f6e50726f6f664b65636360448201527f616b3a2070726f6f66206c656e6774682073686f756c642062652061206d756c60648201526a3a34b836329037b310199960a91b608482015260a401610890565b8260205b85518111610e2e57613ef7600285614dee565b600003613f1b57816000528086015160205260406000209150600284049350613f34565b8086015160005281602052604060002091506002840493505b613f3f602082614daa565b9050613ee4565b60008080600080516020615418833981519152600360008051602061541883398151915286600080516020615418833981519152888909090890506000613fbc827f0c19139cb84c680a6e14116da060561765e05aa45a1c72a34f082305b61f3f52600080516020615418833981519152614150565b91959194509092505050565b6000610100825111156140515760405162461bcd60e51b8152602060048201526044602482018190527f4269746d61705574696c732e6f72646572656442797465734172726179546f42908201527f69746d61703a206f7264657265644279746573417272617920697320746f6f206064820152636c6f6e6760e01b608482015260a401610890565b815160000361406257506000919050565b6000808360008151811061407857614078614dd8565b0160200151600160f89190911c81901b92505b8451811015614147578481815181106140a6576140a6614dd8565b0160200151600160f89190911c1b915082821161413b5760405162461bcd60e51b815260206004820152604760248201527f4269746d61705574696c732e6f72646572656442797465734172726179546f4260448201527f69746d61703a206f72646572656442797465734172726179206973206e6f74206064820152661bdc99195c995960ca1b608482015260a401610890565b9181179160010161408b565b50909392505050565b60008061415b614279565b614163614297565b602080825281810181905260408201819052606082018890526080820187905260a082018690528260c08360056107d05a03fa925082806141a057fe5b50826141ee5760405162461bcd60e51b815260206004820152601a60248201527f424e3235342e6578704d6f643a2063616c6c206661696c7572650000000000006044820152606401610890565b505195945050505050565b60405180606001604052806003906020820280368337509192915050565b60405180608001604052806004906020820280368337509192915050565b60405180604001604052806142486142b5565b81526020016142556142b5565b905290565b604051806101800160405280600c906020820280368337509192915050565b60405180602001604052806001906020820280368337509192915050565b6040518060c001604052806006906020820280368337509192915050565b60405180604001604052806002906020820280368337509192915050565b80356001600160601b031981168114613d7557600080fd5b634e487b7160e01b600052604160045260246000fd5b604080519081016001600160401b0381118282101715614323576143236142eb565b60405290565b60405161010081016001600160401b0381118282101715614323576143236142eb565b604051601f8201601f191681016001600160401b0381118282101715614374576143746142eb565b604052919050565b6000806001600160401b03841115614396576143966142eb565b50601f8301601f19166020016143ab8161434c565b9150508281528383830111156143c057600080fd5b828260208301376000602084830101529392505050565b600082601f8301126143e857600080fd5b6143f78383356020850161437c565b9392505050565b6001600160a01b038116811461112257600080fd5b600080600080600080600080610100898b03121561443057600080fd5b88359750602089013596506040890135955061444e60608a016142d3565b94506080890135935060a08901356001600160401b0381111561447057600080fd5b61447c8b828c016143d7565b93505060c0890135915060e0890135614494816143fe565b809150509295985092959890939650565b6000604082840312156144b757600080fd5b6144bf614301565b823581526020928301359281019290925250919050565b600082601f8301126144e757600080fd5b6144ef614301565b80604084018581111561450157600080fd5b845b8181101561451b578035845260209384019301614503565b509095945050505050565b60006080828403121561453857600080fd5b614540614301565b905061454c83836144d6565b815261455b83604084016144d6565b602082015292915050565b600080600080610120858703121561457d57600080fd5b8435935061458e86602087016144a5565b925061459d8660608701614526565b91506145ac8660e087016144a5565b905092959194509250565b6000602082840312156145c957600080fd5b5035919050565b6000602082840312156145e257600080fd5b8135613bc8816143fe565b602080825282518282018190526000918401906040840190835b8181101561451b5783516001600160a01b0316835260209384019390920191600101614607565b801515811461112257600080fd5b60006020828403121561464e57600080fd5b8135613bc88161462e565b803563ffffffff81168114613d7557600080fd5b60006001600160401b03821115614686576146866142eb565b5060051b60200190565b600082601f8301126146a157600080fd5b81356146b46146af8261466d565b61434c565b8082825260208201915060208360051b8601019250858311156146d657600080fd5b602085015b838110156146fa576146ec81614659565b8352602092830192016146db565b5095945050505050565b600082601f83011261471557600080fd5b81356147236146af8261466d565b8082825260208201915060208360061b86010192508583111561474557600080fd5b602085015b838110156146fa5761475c87826144a5565b835260209092019160400161474a565b600082601f83011261477d57600080fd5b813561478b6146af8261466d565b8082825260208201915060208360051b8601019250858311156147ad57600080fd5b602085015b838110156146fa5780356001600160401b038111156147d057600080fd5b6147df886020838a0101614690565b845250602092830192016147b2565b6000610180828403121561480157600080fd5b614809614329565b905081356001600160401b0381111561482157600080fd5b61482d84828501614690565b82525060208201356001600160401b0381111561484957600080fd5b61485584828501614704565b60208301525060408201356001600160401b0381111561487457600080fd5b61488084828501614704565b6040830152506148938360608401614526565b60608201526148a58360e084016144a5565b60808201526101208201356001600160401b038111156148c457600080fd5b6148d084828501614690565b60a0830152506101408201356001600160401b038111156148f057600080fd5b6148fc84828501614690565b60c0830152506101608201356001600160401b0381111561491c57600080fd5b6149288482850161476c565b60e08301525092915050565b60008060006060848603121561494957600080fd5b8335925061495960208501614659565b915060408401356001600160401b0381111561497457600080fd5b614980868287016147ee565b9150509250925092565b600081518084526020840193506020830160005b828110156149c55781516001600160601b031686526020958601959091019060010161499e565b5093949350505050565b60408152600083516040808401526149ea608084018261498a565b90506020850151603f19848303016060850152614a07828261498a565b925050508260208301529392505050565b600060208284031215614a2a57600080fd5b81356001600160401b0381168114613bc857600080fd5b60008083601f840112614a5357600080fd5b5081356001600160401b03811115614a6a57600080fd5b602083019150836020828501011115614a8257600080fd5b9250929050565b600080600060408486031215614a9e57600080fd5b83356001600160401b03811115614ab457600080fd5b614ac086828701614a41565b909790965060209590950135949350505050565b60008060408385031215614ae757600080fd5b8235614af2816143fe565b915060208301356001600160401b03811115614b0d57600080fd5b830160608186031215614b1f57600080fd5b604051606081016001600160401b0381118282101715614b4157614b416142eb565b60405281356001600160401b03811115614b5a57600080fd5b614b66878285016143d7565b8252506020828101359082015260409182013591810191909152919491935090915050565b600060208284031215614b9d57600080fd5b81356001600160401b03811115614bb357600080fd5b8201601f81018413614bc457600080fd5b614bd38482356020840161437c565b949350505050565b600080600060608486031215614bf057600080fd5b833592506020840135614959816143fe565b600080600060608486031215614c1757600080fd5b8335614c22816143fe565b92506020840135614c32816143fe565b91506040840135614c42816143fe565b809150509250925092565b60008060008060608587031215614c6357600080fd5b8435935060208501356001600160401b03811115614c8057600080fd5b614c8c87828801614a41565b9598909750949560400135949350505050565b600080600080600080600060e0888a031215614cba57600080fd5b873596506020880135955060408801359450614cd8606089016142d3565b93506080880135925060a08801356001600160401b03811115614cfa57600080fd5b614d068a828b016143d7565b979a969950949793969295929450505060c09091013590565b60008060208385031215614d3257600080fd5b82356001600160401b03811115614d4857600080fd5b8301601f81018513614d5957600080fd5b80356001600160401b03811115614d6f57600080fd5b8560208260051b8401011115614d8457600080fd5b6020919091019590945092505050565b634e487b7160e01b600052601160045260246000fd5b80820180821115613bcb57613bcb614d94565b91825260601b6001600160601b031916602082015260340190565b634e487b7160e01b600052603260045260246000fd5b600082614e0b57634e487b7160e01b600052601260045260246000fd5b500690565b81810381811115613bcb57613bcb614d94565b600060208284031215614e3557600080fd5b5051919050565b600060208284031215614e4e57600080fd5b81516001600160c01b0381168114613bc857600080fd5b600060208284031215614e7757600080fd5b815160ff81168114613bc857600080fd5b6001600160601b038116811461112257600080fd5b60006040828403128015614eb057600080fd5b50614eb9614301565b8251614ec4816143fe565b81526020830151614ed481614e88565b60208201529392505050565b600060018201614ef257614ef2614d94565b5060010190565b600060208284031215614f0b57600080fd5b8151613bc8816143fe565b600060208284031215614f2857600080fd5b815167ffffffffffffffff1981168114613bc857600080fd5b600060208284031215614f5357600080fd5b8151613bc881614e88565b6001600160601b038281168282160390811115613bcb57613bcb614d94565b63ffffffff60e01b8360e01b16815260006004820183516020850160005b82811015614fb9578151845260209384019390910190600101614f9b565b50919695505050505050565b6020808252602e908201527f496e697469616c697a61626c653a20636f6e747261637420697320616c72656160408201526d191e481a5b9a5d1a585b1a5e995960921b606082015260800190565b8183823760009101908152919050565b60208082526052908201527f536572766963654d616e61676572426173652e6f6e6c7952656769737472794360408201527f6f6f7264696e61746f723a2063616c6c6572206973206e6f742074686520726560608201527133b4b9ba393c9031b7b7b93234b730ba37b960711b608082015260a00190565b6000815180845260005b818110156150c1576020818501810151868301820152016150a5565b506000602082860101526020601f19601f83011685010191505092915050565b60018060a01b038316815260406020820152600082516060604084015261510b60a084018261509b565b90506020840151606084015260408401516080840152809150509392505050565b6020815260006143f7602083018461509b565b6001600160601b03818116838216029081169081811461516157615161614d94565b5092915050565b8082028115828204841417613bcb57613bcb614d94565b6001600160a01b038616815263ffffffff851660208201526080604082018190528101839052828460a0830137600060a08483010152600060a0601f19601f86011683010190508260608301529695505050505050565b8881528760208201528660408201526001600160601b03198616606082015284608082015261010060a0820152600061521361010083018661509b565b60c0830194909452506001600160a01b039190911660e0909101529695505050505050565b60006020828403121561524a57600080fd5b8151613bc88161462e565b60008235609e1983360301811261526b57600080fd5b9190910192915050565b8035613d75816143fe565b81835260208301925060008160005b848110156149c55781356152a2816143fe565b6001600160a01b0316865260208201356152bb81614e88565b6001600160601b03166020870152604095860195919091019060010161528f565b6020808252810182905260006040600584901b830181019083018583609e1936839003015b878210156153e957868503603f19018452823581811261532057600080fd5b8901803536829003601e1901811261533757600080fd5b81016020810190356001600160401b0381111561535357600080fd5b8060061b360382131561536557600080fd5b60a0885261537760a089018284615280565b91505061538660208301615275565b6001600160a01b03166020880152604082810135908801526153aa60608301614659565b63ffffffff1660608801526153c160808301614659565b63ffffffff811660808901529150955050602093840193929092019160019190910190615301565b5092979650505050505050565b600061ffff821661ffff810361540e5761540e614d94565b6001019291505056fe30644e72e131a029b85045b68181585d97816a916871ca8d3c208c16d87cfd470ea46f246ccfc58f7a93aa09bc6245a6818e97b1a160d186afe78993a3b194a0424c535369676e6174757265436865636b65722e636865636b5369676e617475a26469706673582212207133e2b184d7c9d336e5a169849708553136f5ddb06931382aad168da244ab4464736f6c634300081a0033","linkReferences":{}},"methodIdentifiers":{"alignedAggregator()":"4a5bf632","avsDirectory()":"6b3aa72e","balanceOf(address)":"70a08231","batchersBalances(address)":"f474b520","batchesState(bytes32)":"b099627e","blacklistVerifier(uint64)":"5c35e282","blacklistedVerifiers()":"bd11c55a","blsApkRegistry()":"5df45946","checkPublicInput(bytes,bytes32)":"95c6d604","checkSignatures(bytes32,uint32,(uint32[],(uint256,uint256)[],(uint256,uint256)[],(uint256[2],uint256[2]),(uint256,uint256),uint32[],uint32[],uint32[][]))":"4ae07c37","createAVSRewardsSubmission(((address,uint96)[],address,uint256,uint32,uint32)[])":"fce36c7d","createNewTask(bytes32,string,uint256)":"d66eaabd","delegation()":"df5cf723","depositToBatcher(address)":"4223d551","deregisterOperatorFromAVS(address)":"a364f4da","getBlacklistedVerifiers()":"d5851e1b","getOperatorRestakedStrategies(address)":"33cfb7b7","getRestakeableStrategies()":"e481af9d","initialize(address,address,address)":"c0c53b8b","initializeAggregator(address)":"800fb61f","isVerifierBlacklisted(uint64)":"c20a0603","owner()":"8da5cb5b","registerOperatorToAVS(address,(bytes,bytes32,uint256))":"9926ee7d","registryCoordinator()":"6d14a987","renounceOwnership()":"715018a6","respondToTaskV2(bytes32,address,(uint32[],(uint256,uint256)[],(uint256,uint256)[],(uint256[2],uint256[2]),(uint256,uint256),uint32[],uint32[],uint32[][]))":"ab21739a","rewardsInitiator()":"fc299dee","setAggregator(address)":"f9120af6","setRewardsInitiator(address)":"3bc28c8c","setStaleStakesForbidden(bool)":"416c7e5e","setVerifiersBlacklist(uint64)":"e28ca33d","stakeRegistry()":"68304835","staleStakesForbidden()":"b98d0908","transferOwnership(address)":"f2fde38b","trySignatureAndApkVerification(bytes32,(uint256,uint256),(uint256[2],uint256[2]),(uint256,uint256))":"171f1d5b","updateAVSMetadataURI(string)":"a98fb355","verifyBatchInclusion(bytes32,bytes32,bytes32,bytes20,bytes32,bytes,uint256)":"fa534dc0","verifyBatchInclusion(bytes32,bytes32,bytes32,bytes20,bytes32,bytes,uint256,address)":"06045a91","whitelistVerifier(uint64)":"b8677689","withdraw(uint256)":"2e1a7d4d"},"id":94}