{"abi":[{"type":"constructor","inputs":[],"stateMutability":"nonpayable"},{"type":"receive","stateMutability":"payable"},{"type":"function","name":"UNLOCK_BLOCK_COUNT","inputs":[],"outputs":[{"name":"","type":"uint256","internalType":"uint256"}],"stateMutability":"view"},{"type":"function","name":"alignedLayerServiceManager","inputs":[],"outputs":[{"name":"","type":"address","internalType":"contract IAlignedLayerServiceManager"}],"stateMutability":"view"},{"type":"function","name":"batcherWallet","inputs":[],"outputs":[{"name":"","type":"address","internalType":"address"}],"stateMutability":"view"},{"type":"function","name":"createNewTask","inputs":[{"name":"batchMerkleRoot","type":"bytes32","internalType":"bytes32"},{"name":"batchDataPointer","type":"string","internalType":"string"},{"name":"leaves","type":"bytes32[]","internalType":"bytes32[]"},{"name":"signatures","type":"tuple[]","internalType":"struct BatcherPaymentService.SignatureData[]","components":[{"name":"signature","type":"bytes","internalType":"bytes"},{"name":"nonce","type":"uint256","internalType":"uint256"},{"name":"maxFee","type":"uint256","internalType":"uint256"}]},{"name":"feeForAggregator","type":"uint256","internalType":"uint256"},{"name":"feePerProof","type":"uint256","internalType":"uint256"},{"name":"maxFeeAllowedToRespond","type":"uint256","internalType":"uint256"}],"outputs":[],"stateMutability":"nonpayable"},{"type":"function","name":"initialize","inputs":[{"name":"_alignedLayerServiceManager","type":"address","internalType":"contract IAlignedLayerServiceManager"},{"name":"_batcherPaymentServiceOwner","type":"address","internalType":"address"},{"name":"_batcherWallet","type":"address","internalType":"address"}],"outputs":[],"stateMutability":"nonpayable"},{"type":"function","name":"lock","inputs":[],"outputs":[],"stateMutability":"nonpayable"},{"type":"function","name":"owner","inputs":[],"outputs":[{"name":"","type":"address","internalType":"address"}],"stateMutability":"view"},{"type":"function","name":"pause","inputs":[],"outputs":[],"stateMutability":"nonpayable"},{"type":"function","name":"paused","inputs":[],"outputs":[{"name":"","type":"bool","internalType":"bool"}],"stateMutability":"view"},{"type":"function","name":"proxiableUUID","inputs":[],"outputs":[{"name":"","type":"bytes32","internalType":"bytes32"}],"stateMutability":"view"},{"type":"function","name":"renounceOwnership","inputs":[],"outputs":[],"stateMutability":"nonpayable"},{"type":"function","name":"transferOwnership","inputs":[{"name":"newOwner","type":"address","internalType":"address"}],"outputs":[],"stateMutability":"nonpayable"},{"type":"function","name":"unlock","inputs":[],"outputs":[],"stateMutability":"nonpayable"},{"type":"function","name":"unpause","inputs":[],"outputs":[],"stateMutability":"nonpayable"},{"type":"function","name":"upgradeTo","inputs":[{"name":"newImplementation","type":"address","internalType":"address"}],"outputs":[],"stateMutability":"nonpayable"},{"type":"function","name":"upgradeToAndCall","inputs":[{"name":"newImplementation","type":"address","internalType":"address"},{"name":"data","type":"bytes","internalType":"bytes"}],"outputs":[],"stateMutability":"payable"},{"type":"function","name":"userData","inputs":[{"name":"","type":"address","internalType":"address"}],"outputs":[{"name":"balance","type":"uint256","internalType":"uint256"},{"name":"unlockBlock","type":"uint256","internalType":"uint256"},{"name":"nonce","type":"uint256","internalType":"uint256"}],"stateMutability":"view"},{"type":"function","name":"user_balances","inputs":[{"name":"account","type":"address","internalType":"address"}],"outputs":[{"name":"","type":"uint256","internalType":"uint256"}],"stateMutability":"view"},{"type":"function","name":"user_nonces","inputs":[{"name":"account","type":"address","internalType":"address"}],"outputs":[{"name":"","type":"uint256","internalType":"uint256"}],"stateMutability":"view"},{"type":"function","name":"user_unlock_block","inputs":[{"name":"account","type":"address","internalType":"address"}],"outputs":[{"name":"","type":"uint256","internalType":"uint256"}],"stateMutability":"view"},{"type":"function","name":"withdraw","inputs":[{"name":"amount","type":"uint256","internalType":"uint256"}],"outputs":[],"stateMutability":"nonpayable"},{"type":"event","name":"AdminChanged","inputs":[{"name":"previousAdmin","type":"address","indexed":false,"internalType":"address"},{"name":"newAdmin","type":"address","indexed":false,"internalType":"address"}],"anonymous":false},{"type":"event","name":"BalanceLocked","inputs":[{"name":"user","type":"address","indexed":true,"internalType":"address"}],"anonymous":false},{"type":"event","name":"BalanceUnlocked","inputs":[{"name":"user","type":"address","indexed":true,"internalType":"address"},{"name":"unlockBlock","type":"uint256","indexed":false,"internalType":"uint256"}],"anonymous":false},{"type":"event","name":"BeaconUpgraded","inputs":[{"name":"beacon","type":"address","indexed":true,"internalType":"address"}],"anonymous":false},{"type":"event","name":"FundsWithdrawn","inputs":[{"name":"recipient","type":"address","indexed":true,"internalType":"address"},{"name":"amount","type":"uint256","indexed":false,"internalType":"uint256"}],"anonymous":false},{"type":"event","name":"Initialized","inputs":[{"name":"version","type":"uint8","indexed":false,"internalType":"uint8"}],"anonymous":false},{"type":"event","name":"OwnershipTransferred","inputs":[{"name":"previousOwner","type":"address","indexed":true,"internalType":"address"},{"name":"newOwner","type":"address","indexed":true,"internalType":"address"}],"anonymous":false},{"type":"event","name":"Paused","inputs":[{"name":"account","type":"address","indexed":false,"internalType":"address"}],"anonymous":false},{"type":"event","name":"PaymentReceived","inputs":[{"name":"sender","type":"address","indexed":true,"internalType":"address"},{"name":"amount","type":"uint256","indexed":false,"internalType":"uint256"}],"anonymous":false},{"type":"event","name":"TaskCreated","inputs":[{"name":"batchMerkleRoot","type":"bytes32","indexed":true,"internalType":"bytes32"},{"name":"feePerProof","type":"uint256","indexed":false,"internalType":"uint256"}],"anonymous":false},{"type":"event","name":"Unpaused","inputs":[{"name":"account","type":"address","indexed":false,"internalType":"address"}],"anonymous":false},{"type":"event","name":"Upgraded","inputs":[{"name":"implementation","type":"address","indexed":true,"internalType":"address"}],"anonymous":false},{"type":"error","name":"FundsLocked","inputs":[{"name":"unlockBlock","type":"uint256","internalType":"uint256"},{"name":"currentBlock","type":"uint256","internalType":"uint256"}]},{"type":"error","name":"InsufficientFeeForAggregator","inputs":[{"name":"required","type":"uint256","internalType":"uint256"},{"name":"available","type":"uint256","internalType":"uint256"}]},{"type":"error","name":"InvalidMaxFee","inputs":[{"name":"maxFee","type":"uint256","internalType":"uint256"},{"name":"actualFee","type":"uint256","internalType":"uint256"}]},{"type":"error","name":"InvalidMerkleRoot","inputs":[{"name":"expected","type":"bytes32","internalType":"bytes32"},{"name":"actual","type":"bytes32","internalType":"bytes32"}]},{"type":"error","name":"InvalidNonce","inputs":[{"name":"expected","type":"uint256","internalType":"uint256"},{"name":"actual","type":"uint256","internalType":"uint256"}]},{"type":"error","name":"InvalidSignature","inputs":[]},{"type":"error","name":"LeavesNotPowerOfTwo","inputs":[{"name":"leavesQty","type":"uint256","internalType":"uint256"}]},{"type":"error","name":"NoFeePerProof","inputs":[]},{"type":"error","name":"NoLeavesSubmitted","inputs":[]},{"type":"error","name":"NoProofSubmitterSignatures","inputs":[]},{"type":"error","name":"NotEnoughLeaves","inputs":[{"name":"leavesQty","type":"uint256","internalType":"uint256"},{"name":"signaturesQty","type":"uint256","internalType":"uint256"}]},{"type":"error","name":"OnlyBatcherAllowed","inputs":[{"name":"caller","type":"address","internalType":"address"}]},{"type":"error","name":"PayerInsufficientBalance","inputs":[{"name":"balance","type":"uint256","internalType":"uint256"},{"name":"amount","type":"uint256","internalType":"uint256"}]},{"type":"error","name":"SignerInsufficientBalance","inputs":[{"name":"signer","type":"address","internalType":"address"},{"name":"balance","type":"uint256","internalType":"uint256"},{"name":"required","type":"uint256","internalType":"uint256"}]},{"type":"error","name":"UserHasNoFundsToLock","inputs":[{"name":"user","type":"address","internalType":"address"}]},{"type":"error","name":"UserHasNoFundsToUnlock","inputs":[{"name":"user","type":"address","internalType":"address"}]}],"bytecode":{"object":"0x60a06040523060805234801561001457600080fd5b5061001d610022565b6100e2565b600054610100900460ff161561008e5760405162461bcd60e51b815260206004820152602760248201527f496e697469616c697a61626c653a20636f6e747261637420697320696e697469604482015266616c697a696e6760c81b606482015260840160405180910390fd5b60005460ff90811610156100e0576000805460ff191660ff9081179091556040519081527f7f26b83ff96e1f2b6a682f133852f6798a09c465da95921460cefb38474024989060200160405180910390a15b565b6080516122a06200011a600039600081816105ce0152818161060e015281816106c001528181610700015261079301526122a06000f3fe60806040526004361061012e5760003560e01c80635c975abb116100ab578063a69df4b51161006f578063a69df4b5146103a5578063c0c53b8b146103ba578063c8910913146103da578063df5ffbc614610431578063f2fde38b14610451578063f83d08ba1461047157600080fd5b80635c975abb1461031a578063715018a61461033d5780638456cb59146103525780638da5cb5b14610367578063953ef8071461038557600080fd5b80634d5431ea116100f25780634d5431ea1461026c5780634f1ef286146102a557806352d1902d146102b857806358b96e27146102cd5780635a3f631a1461030557600080fd5b806317d89c4e146101935780632df4e21e146101df5780632e1a7d4d146102155780633659cfe6146102375780633f4ba83a1461025757600080fd5b3661018e5733600090815260fd602052604081208054349290610152908490611c3f565b909155505060405134815233907f6ef95f06320e7a25a04a175ca677b7052bdd97131872c2192525a629f51be7709060200160405180910390a2005b600080fd5b34801561019f57600080fd5b506101cc6101ae366004611c6c565b6001600160a01b0316600090815260fd602052604090206002015490565b6040519081526020015b60405180910390f35b3480156101eb57600080fd5b506101cc6101fa366004611c6c565b6001600160a01b0316600090815260fd602052604090205490565b34801561022157600080fd5b50610235610230366004611c89565b610486565b005b34801561024357600080fd5b50610235610252366004611c6c565b6105c3565b34801561026357600080fd5b506102356106a3565b34801561027857600080fd5b506101cc610287366004611c6c565b6001600160a01b0316600090815260fd602052604090206001015490565b6102356102b3366004611cb8565b6106b5565b3480156102c457600080fd5b506101cc610786565b3480156102d957600080fd5b5060fc546102ed906001600160a01b031681565b6040516001600160a01b0390911681526020016101d6565b34801561031157600080fd5b506101cc606481565b34801561032657600080fd5b5060655460ff1660405190151581526020016101d6565b34801561034957600080fd5b50610235610839565b34801561035e57600080fd5b5061023561084b565b34801561037357600080fd5b506033546001600160a01b03166102ed565b34801561039157600080fd5b5060fb546102ed906001600160a01b031681565b3480156103b157600080fd5b5061023561085b565b3480156103c657600080fd5b506102356103d5366004611d7c565b6108ef565b3480156103e657600080fd5b506104166103f5366004611c6c565b60fd6020526000908152604090208054600182015460029092015490919083565b604080519384526020840192909252908201526060016101d6565b34801561043d57600080fd5b5061023561044c366004611e0c565b610a44565b34801561045d57600080fd5b5061023561046c366004611c6c565b610c88565b34801561047d57600080fd5b50610235610cfe565b61048e610d72565b33600090815260fd6020526040902080548211156104d15780546040516321c3d50f60e01b81526004810191909152602481018390526044015b60405180910390fd5b600181015415806104e55750438160010154115b15610512576001810154604051635f6e272d60e11b815260048101919091524360248201526044016104c8565b818160000160008282546105269190611ef8565b909155505060006001820181905560405133917fc5f84593e7086c66a205abab7ee44e1a8e6db58e50bf18ca46cb8239118b5ecd91a2604051339083156108fc029084906000818181858888f19350505050158015610589573d6000803e3d6000fd5b5060405182815233907feaff4b37086828766ad3268786972c0cd24259d4c87a80f9d3963a3c3d999b0d9060200160405180910390a25050565b306001600160a01b037f000000000000000000000000000000000000000000000000000000000000000016141561060c5760405162461bcd60e51b81526004016104c890611f0f565b7f00000000000000000000000000000000000000000000000000000000000000006001600160a01b0316610655600080516020612224833981519152546001600160a01b031690565b6001600160a01b03161461067b5760405162461bcd60e51b81526004016104c890611f5b565b61068481610db8565b604080516000808252602082019092526106a091839190610dc0565b50565b6106ab610f30565b6106b3610f8a565b565b306001600160a01b037f00000000000000000000000000000000000000000000000000000000000000001614156106fe5760405162461bcd60e51b81526004016104c890611f0f565b7f00000000000000000000000000000000000000000000000000000000000000006001600160a01b0316610747600080516020612224833981519152546001600160a01b031690565b6001600160a01b03161461076d5760405162461bcd60e51b81526004016104c890611f5b565b61077682610db8565b61078282826001610dc0565b5050565b6000306001600160a01b037f000000000000000000000000000000000000000000000000000000000000000016146108265760405162461bcd60e51b815260206004820152603860248201527f555550535570677261646561626c653a206d757374206e6f742062652063616c60448201527f6c6564207468726f7567682064656c656761746563616c6c000000000000000060648201526084016104c8565b5060008051602061222483398151915290565b610841610f30565b6106b36000610fdc565b610853610f30565b6106b361102e565b610863610d72565b33600090815260fd60205260409020546108925760405163b38340cf60e01b81523360048201526024016104c8565b61089d606443611c3f565b33600081815260fd6020526040908190206001018390555190917f43e8fb9d4f009c90c55a3fa108b177b794704d61af7af6f6512db7883f8ed843916108e591815260200190565b60405180910390a2565b600054610100900460ff161580801561090f5750600054600160ff909116105b806109295750303b158015610929575060005460ff166001145b61098c5760405162461bcd60e51b815260206004820152602e60248201527f496e697469616c697a61626c653a20636f6e747261637420697320616c72656160448201526d191e481a5b9a5d1a585b1a5e995960921b60648201526084016104c8565b6000805460ff1916600117905580156109af576000805461ff0019166101001790555b6109b761106b565b6109bf61109a565b6109c883610fdc565b60fb80546001600160a01b038087166001600160a01b03199283161790925560fc8054928516929091169190911790558015610a3e576000805461ff0019169055604051600181527f7f26b83ff96e1f2b6a682f133852f6798a09c465da95921460cefb38474024989060200160405180910390a15b50505050565b60fc546001600160a01b03163314610a71576040516302a5785160e31b81523360048201526024016104c8565b610a79610d72565b858481610a995760405163e5180e0360e01b815260040160405180910390fd5b80610ab757604051630c9d0b0160e21b815260040160405180910390fd5b80821015610ae25760405163320f0a1b60e01b815260048101839052602481018290526044016104c8565b610aed600183611ef8565b821615610b1057604051636b1651e160e01b8152600481018390526024016104c8565b83610b2e576040516351d432c560e11b815260040160405180910390fd5b84610b398286611fa7565b11610b6b5784610b498286611fa7565b604051637899ec7160e01b8152600481019290925260248201526044016104c8565b610b7989898e8a8a896110c1565b60fb60009054906101000a90046001600160a01b03166001600160a01b031663d66eaabd868e8e8e886040518663ffffffff1660e01b8152600401610bc19493929190611fc6565b6000604051808303818588803b158015610bda57600080fd5b505af1158015610bee573d6000803e3d6000fd5b50505050508b7f4f9439a5aed9cb470d2e0756e7d293accfe5223e719a9a1a256646378ec4375885604051610c2591815260200190565b60405180910390a260fc546001600160a01b03166108fc86610c478488611fa7565b610c519190611ef8565b6040518115909202916000818181858888f19350505050158015610c79573d6000803e3d6000fd5b50505050505050505050505050565b610c90610f30565b6001600160a01b038116610cf55760405162461bcd60e51b815260206004820152602660248201527f4f776e61626c653a206e6577206f776e657220697320746865207a65726f206160448201526564647265737360d01b60648201526084016104c8565b6106a081610fdc565b610d06610d72565b33600090815260fd6020526040902054610d355760405163366095e160e11b81523360048201526024016104c8565b33600081815260fd6020526040808220600101829055517fc5f84593e7086c66a205abab7ee44e1a8e6db58e50bf18ca46cb8239118b5ecd9190a2565b60655460ff16156106b35760405162461bcd60e51b815260206004820152601060248201526f14185d5cd8589b194e881c185d5cd95960821b60448201526064016104c8565b6106a0610f30565b7f4910fdfa16fed3260ed0e7147f7cc6da11a60208b5b9406d12a635614ffd91435460ff1615610df857610df383611451565b505050565b826001600160a01b03166352d1902d6040518163ffffffff1660e01b8152600401602060405180830381865afa925050508015610e52575060408051601f3d908101601f19168201909252610e4f91810190612006565b60015b610eb55760405162461bcd60e51b815260206004820152602e60248201527f45524331393637557067726164653a206e657720696d706c656d656e7461746960448201526d6f6e206973206e6f74205555505360901b60648201526084016104c8565b6000805160206122248339815191528114610f245760405162461bcd60e51b815260206004820152602960248201527f45524331393637557067726164653a20756e737570706f727465642070726f786044820152681a58589b195555525160ba1b60648201526084016104c8565b50610df38383836114ed565b6033546001600160a01b031633146106b35760405162461bcd60e51b815260206004820181905260248201527f4f776e61626c653a2063616c6c6572206973206e6f7420746865206f776e657260448201526064016104c8565b610f92611512565b6065805460ff191690557f5db9ee0a495bf2e6ff9c91a7834c1ba4fdd244a5e8aa4e537bd38aeae4b073aa335b6040516001600160a01b03909116815260200160405180910390a1565b603380546001600160a01b038381166001600160a01b0319831681179093556040519116919082907f8be0079c531659141344cd1fd0a4f28419497f9722a3daafe3b4186f6b6457e090600090a35050565b611036610d72565b6065805460ff191660011790557f62e78cea01bee320cd4e420270b5ea74000d11b0c9f74754ebdbfc544b05a258610fbf3390565b600054610100900460ff166110925760405162461bcd60e51b81526004016104c89061201f565b6106b361155b565b600054610100900460ff166106b35760405162461bcd60e51b81526004016104c89061201f565b60006110ce60028761206a565b905060008167ffffffffffffffff8111156110eb576110eb611ca2565b604051908082528060200260200182016040528015611114578160200160208202803683370190505b50905060005b828163ffffffff16101561123f57888861113583600261208c565b63ffffffff1681811061114a5761114a6120b8565b905060200201358989836002611160919061208c565b61116b9060016120ce565b63ffffffff16818110611180576111806120b8565b905060200201356040516020016111a1929190918252602082015260400190565b60405160208183030381529060405280519060200120828263ffffffff16815181106111cf576111cf6120b8565b60200260200101818152505061122d89898363ffffffff168181106111f6576111f66120b8565b9050602002013587878463ffffffff16818110611215576112156120b8565b905060200281019061122791906120f6565b8661158b565b8061123781612116565b91505061111a565b63ffffffff811685111561127a5761126889898363ffffffff168181106111f6576111f66120b8565b8061127281612116565b91505061123f565b61128560028461206a565b92505b8215611378575060005b828163ffffffff16101561136657816112ac82600261208c565b63ffffffff16815181106112c2576112c26120b8565b6020026020010151828260026112d8919061208c565b6112e39060016120ce565b63ffffffff16815181106112f9576112f96120b8565b602002602001015160405160200161131b929190918252602082015260400190565b60405160208183030381529060405280519060200120828263ffffffff1681518110611349576113496120b8565b60209081029190910101528061135e81612116565b915050611292565b61137160028461206a565b9250611288565b60018814156113e5578689896000818110611395576113956120b8565b90506020020135146113e05786898960008181106113b5576113b56120b8565b905060200201356040516327c4ed9760e21b81526004016104c8929190918252602082015260400190565b611446565b86826000815181106113f9576113f96120b8565b60200260200101511461144657868260008151811061141a5761141a6120b8565b60200260200101516040516327c4ed9760e21b81526004016104c8929190918252602082015260400190565b505050505050505050565b6001600160a01b0381163b6114be5760405162461bcd60e51b815260206004820152602d60248201527f455243313936373a206e657720696d706c656d656e746174696f6e206973206e60448201526c1bdd08184818dbdb9d1c9858dd609a1b60648201526084016104c8565b60008051602061222483398151915280546001600160a01b0319166001600160a01b0392909216919091179055565b6114f683611740565b6000825111806115035750805b15610df357610a3e8383611780565b60655460ff166106b35760405162461bcd60e51b815260206004820152601460248201527314185d5cd8589b194e881b9bdd081c185d5cd95960621b60448201526064016104c8565b600054610100900460ff166115825760405162461bcd60e51b81526004016104c89061201f565b6106b333610fdc565b80826040013510156115bd5760408051637acd6fa560e11b8152908301356004820152602481018290526044016104c8565b6040805160208181018690528401358183015290830135606082015246608082015260009060a00160408051601f1981840301815291905280516020909101209050600061164b61160e858061213a565b8080601f01602080910402602001604051908101604052809392919081815260200183838082843760009201919091525086939250506118749050565b90506001600160a01b03811661167457604051638baa579f60e01b815260040160405180910390fd5b6001600160a01b038116600090815260fd6020908152604090912060028101549091860135146116ca5760028101546040516306427aeb60e01b81526004810191909152602086013560248201526044016104c8565b6002810180549060006116dc83612181565b9091555050805484111561171f578054604051632557019960e21b81526001600160a01b03841660048201526024810191909152604481018590526064016104c8565b838160000160008282546117339190611ef8565b9091555050505050505050565b61174981611451565b6040516001600160a01b038216907fbc7cd75a20ee27fd9adebab32041f755214dbc6bffa90cc0225b39da2e5c2d3b90600090a250565b60606001600160a01b0383163b6117e85760405162461bcd60e51b815260206004820152602660248201527f416464726573733a2064656c65676174652063616c6c20746f206e6f6e2d636f6044820152651b9d1c9858dd60d21b60648201526084016104c8565b600080846001600160a01b03168460405161180391906121c8565b600060405180830381855af49150503d806000811461183e576040519150601f19603f3d011682016040523d82523d6000602084013e611843565b606091505b509150915061186b828260405180606001604052806027815260200161224460279139611898565b95945050505050565b600080600061188385856118d8565b9150915061189081611948565b509392505050565b606083156118a75750816118d1565b8251156118b75782518084602001fd5b8160405162461bcd60e51b81526004016104c891906121da565b9392505050565b60008082516041141561190f5760208301516040840151606085015160001a61190387828585611b03565b94509450505050611941565b825160401415611939576020830151604084015161192e868383611bf0565b935093505050611941565b506000905060025b9250929050565b600081600481111561195c5761195c61220d565b14156119655750565b60018160048111156119795761197961220d565b14156119c75760405162461bcd60e51b815260206004820152601860248201527f45434453413a20696e76616c6964207369676e6174757265000000000000000060448201526064016104c8565b60028160048111156119db576119db61220d565b1415611a295760405162461bcd60e51b815260206004820152601f60248201527f45434453413a20696e76616c6964207369676e6174757265206c656e6774680060448201526064016104c8565b6003816004811115611a3d57611a3d61220d565b1415611a965760405162461bcd60e51b815260206004820152602260248201527f45434453413a20696e76616c6964207369676e6174757265202773272076616c604482015261756560f01b60648201526084016104c8565b6004816004811115611aaa57611aaa61220d565b14156106a05760405162461bcd60e51b815260206004820152602260248201527f45434453413a20696e76616c6964207369676e6174757265202776272076616c604482015261756560f01b60648201526084016104c8565b6000807f7fffffffffffffffffffffffffffffff5d576e7357a4501ddfe92f46681b20a0831115611b3a5750600090506003611be7565b8460ff16601b14158015611b5257508460ff16601c14155b15611b635750600090506004611be7565b6040805160008082526020820180845289905260ff881692820192909252606081018690526080810185905260019060a0016020604051602081039080840390855afa158015611bb7573d6000803e3d6000fd5b5050604051601f1901519150506001600160a01b038116611be057600060019250925050611be7565b9150600090505b94509492505050565b6000806001600160ff1b03831681611c0d60ff86901c601b611c3f565b9050611c1b87828885611b03565b935093505050935093915050565b634e487b7160e01b600052601160045260246000fd5b60008219821115611c5257611c52611c29565b500190565b6001600160a01b03811681146106a057600080fd5b600060208284031215611c7e57600080fd5b81356118d181611c57565b600060208284031215611c9b57600080fd5b5035919050565b634e487b7160e01b600052604160045260246000fd5b60008060408385031215611ccb57600080fd5b8235611cd681611c57565b9150602083013567ffffffffffffffff80821115611cf357600080fd5b818501915085601f830112611d0757600080fd5b813581811115611d1957611d19611ca2565b604051601f8201601f19908116603f01168101908382118183101715611d4157611d41611ca2565b81604052828152886020848701011115611d5a57600080fd5b8260208601602083013760006020848301015280955050505050509250929050565b600080600060608486031215611d9157600080fd5b8335611d9c81611c57565b92506020840135611dac81611c57565b91506040840135611dbc81611c57565b809150509250925092565b60008083601f840112611dd957600080fd5b50813567ffffffffffffffff811115611df157600080fd5b6020830191508360208260051b850101111561194157600080fd5b60008060008060008060008060008060e08b8d031215611e2b57600080fd5b8a35995060208b013567ffffffffffffffff80821115611e4a57600080fd5b818d0191508d601f830112611e5e57600080fd5b813581811115611e6d57600080fd5b8e6020828501011115611e7f57600080fd5b602083019b50809a505060408d0135915080821115611e9d57600080fd5b611ea98e838f01611dc7565b909950975060608d0135915080821115611ec257600080fd5b50611ecf8d828e01611dc7565b9b9e9a9d50989b979a9699969760808101359760a0820135975060c09091013595509350505050565b600082821015611f0a57611f0a611c29565b500390565b6020808252602c908201527f46756e6374696f6e206d7573742062652063616c6c6564207468726f7567682060408201526b19195b1959d85d1958d85b1b60a21b606082015260800190565b6020808252602c908201527f46756e6374696f6e206d7573742062652063616c6c6564207468726f7567682060408201526b6163746976652070726f787960a01b606082015260800190565b6000816000190483118215151615611fc157611fc1611c29565b500290565b848152606060208201528260608201528284608083013760006080848301015260006080601f19601f860116830101905082604083015295945050505050565b60006020828403121561201857600080fd5b5051919050565b6020808252602b908201527f496e697469616c697a61626c653a20636f6e7472616374206973206e6f74206960408201526a6e697469616c697a696e6760a81b606082015260800190565b60008261208757634e487b7160e01b600052601260045260246000fd5b500490565b600063ffffffff808316818516818304811182151516156120af576120af611c29565b02949350505050565b634e487b7160e01b600052603260045260246000fd5b600063ffffffff8083168185168083038211156120ed576120ed611c29565b01949350505050565b60008235605e1983360301811261210c57600080fd5b9190910192915050565b600063ffffffff8083168181141561213057612130611c29565b6001019392505050565b6000808335601e1984360301811261215157600080fd5b83018035915067ffffffffffffffff82111561216c57600080fd5b60200191503681900382131561194157600080fd5b600060001982141561219557612195611c29565b5060010190565b60005b838110156121b757818101518382015260200161219f565b83811115610a3e5750506000910152565b6000825161210c81846020870161219c565b60208152600082518060208401526121f981604085016020870161219c565b601f01601f19169190910160400192915050565b634e487b7160e01b600052602160045260246000fdfe360894a13ba1a3210667c828492db98dca3e2076cc3735a920a3ca505d382bbc416464726573733a206c6f772d6c6576656c2064656c65676174652063616c6c206661696c6564a2646970667358221220959de0d6d14188f5ff3b8a9d10b8c92e67e70351a58316ad19e0cebfa929c0b064736f6c634300080c0033","linkReferences":{}},"methodIdentifiers":{"UNLOCK_BLOCK_COUNT()":"5a3f631a","alignedLayerServiceManager()":"953ef807","batcherWallet()":"58b96e27","createNewTask(bytes32,string,bytes32[],(bytes,uint256,uint256)[],uint256,uint256,uint256)":"df5ffbc6","initialize(address,address,address)":"c0c53b8b","lock()":"f83d08ba","owner()":"8da5cb5b","pause()":"8456cb59","paused()":"5c975abb","proxiableUUID()":"52d1902d","renounceOwnership()":"715018a6","transferOwnership(address)":"f2fde38b","unlock()":"a69df4b5","unpause()":"3f4ba83a","upgradeTo(address)":"3659cfe6","upgradeToAndCall(address,bytes)":"4f1ef286","userData(address)":"c8910913","user_balances(address)":"2df4e21e","user_nonces(address)":"17d89c4e","user_unlock_block(address)":"4d5431ea","withdraw(uint256)":"2e1a7d4d"},"id":181}