{
  "abi": [
    {
      "type": "constructor",
      "inputs": [],
      "stateMutability": "nonpayable"
    },
    {
      "type": "receive",
      "stateMutability": "payable"
    },
    {
      "type": "function",
      "name": "UNLOCK_BLOCK_TIME",
      "inputs": [],
      "outputs": [
        {
          "name": "",
          "type": "uint256",
          "internalType": "uint256"
        }
      ],
      "stateMutability": "view"
    },
    {
      "type": "function",
      "name": "alignedLayerServiceManager",
      "inputs": [],
      "outputs": [
        {
          "name": "",
          "type": "address",
          "internalType": "contract IAlignedLayerServiceManager"
        }
      ],
      "stateMutability": "view"
    },
    {
      "type": "function",
      "name": "batcherWallet",
      "inputs": [],
      "outputs": [
        {
          "name": "",
          "type": "address",
          "internalType": "address"
        }
      ],
      "stateMutability": "view"
    },
    {
      "type": "function",
      "name": "createNewTask",
      "inputs": [
        {
          "name": "batchMerkleRoot",
          "type": "bytes32",
          "internalType": "bytes32"
        },
        {
          "name": "batchDataPointer",
          "type": "string",
          "internalType": "string"
        },
        {
          "name": "proofSubmitters",
          "type": "address[]",
          "internalType": "address[]"
        },
        {
          "name": "feeForAggregator",
          "type": "uint256",
          "internalType": "uint256"
        },
        {
          "name": "feePerProof",
          "type": "uint256",
          "internalType": "uint256"
        },
        {
          "name": "respondToTaskFeeLimit",
          "type": "uint256",
          "internalType": "uint256"
        }
      ],
      "outputs": [],
      "stateMutability": "nonpayable"
    },
    {
      "type": "function",
      "name": "initialize",
      "inputs": [
        {
          "name": "_alignedLayerServiceManager",
          "type": "address",
          "internalType": "contract IAlignedLayerServiceManager"
        },
        {
          "name": "_batcherPaymentServiceOwner",
          "type": "address",
          "internalType": "address"
        },
        {
          "name": "_batcherWallet",
          "type": "address",
          "internalType": "address"
        }
      ],
      "outputs": [],
      "stateMutability": "nonpayable"
    },
    {
      "type": "function",
      "name": "lock",
      "inputs": [],
      "outputs": [],
      "stateMutability": "nonpayable"
    },
    {
      "type": "function",
      "name": "owner",
      "inputs": [],
      "outputs": [
        {
          "name": "",
          "type": "address",
          "internalType": "address"
        }
      ],
      "stateMutability": "view"
    },
    {
      "type": "function",
      "name": "pause",
      "inputs": [],
      "outputs": [],
      "stateMutability": "nonpayable"
    },
    {
      "type": "function",
      "name": "paused",
      "inputs": [],
      "outputs": [
        {
          "name": "",
          "type": "bool",
          "internalType": "bool"
        }
      ],
      "stateMutability": "view"
    },
    {
      "type": "function",
      "name": "proxiableUUID",
      "inputs": [],
      "outputs": [
        {
          "name": "",
          "type": "bytes32",
          "internalType": "bytes32"
        }
      ],
      "stateMutability": "view"
    },
    {
      "type": "function",
      "name": "renounceOwnership",
      "inputs": [],
      "outputs": [],
      "stateMutability": "nonpayable"
    },
    {
      "type": "function",
      "name": "transferOwnership",
      "inputs": [
        {
          "name": "newOwner",
          "type": "address",
          "internalType": "address"
        }
      ],
      "outputs": [],
      "stateMutability": "nonpayable"
    },
    {
      "type": "function",
      "name": "unlock",
      "inputs": [],
      "outputs": [],
      "stateMutability": "nonpayable"
    },
    {
      "type": "function",
      "name": "unpause",
      "inputs": [],
      "outputs": [],
      "stateMutability": "nonpayable"
    },
    {
      "type": "function",
      "name": "upgradeTo",
      "inputs": [
        {
          "name": "newImplementation",
          "type": "address",
          "internalType": "address"
        }
      ],
      "outputs": [],
      "stateMutability": "nonpayable"
    },
    {
      "type": "function",
      "name": "upgradeToAndCall",
      "inputs": [
        {
          "name": "newImplementation",
          "type": "address",
          "internalType": "address"
        },
        {
          "name": "data",
          "type": "bytes",
          "internalType": "bytes"
        }
      ],
      "outputs": [],
      "stateMutability": "payable"
    },
    {
      "type": "function",
      "name": "userData",
      "inputs": [
        {
          "name": "",
          "type": "address",
          "internalType": "address"
        }
      ],
      "outputs": [
        {
          "name": "balance",
          "type": "uint256",
          "internalType": "uint256"
        },
        {
          "name": "unlockBlockTime",
          "type": "uint256",
          "internalType": "uint256"
        },
        {
          "name": "nonce",
          "type": "uint256",
          "internalType": "uint256"
        }
      ],
      "stateMutability": "view"
    },
    {
      "type": "function",
      "name": "user_balances",
      "inputs": [
        {
          "name": "account",
          "type": "address",
          "internalType": "address"
        }
      ],
      "outputs": [
        {
          "name": "",
          "type": "uint256",
          "internalType": "uint256"
        }
      ],
      "stateMutability": "view"
    },
    {
      "type": "function",
      "name": "user_nonces",
      "inputs": [
        {
          "name": "account",
          "type": "address",
          "internalType": "address"
        }
      ],
      "outputs": [
        {
          "name": "",
          "type": "uint256",
          "internalType": "uint256"
        }
      ],
      "stateMutability": "view"
    },
    {
      "type": "function",
      "name": "user_unlock_block",
      "inputs": [
        {
          "name": "account",
          "type": "address",
          "internalType": "address"
        }
      ],
      "outputs": [
        {
          "name": "",
          "type": "uint256",
          "internalType": "uint256"
        }
      ],
      "stateMutability": "view"
    },
    {
      "type": "function",
      "name": "withdraw",
      "inputs": [
        {
          "name": "amount",
          "type": "uint256",
          "internalType": "uint256"
        }
      ],
      "outputs": [],
      "stateMutability": "nonpayable"
    },
    {
      "type": "event",
      "name": "AdminChanged",
      "inputs": [
        {
          "name": "previousAdmin",
          "type": "address",
          "indexed": false,
          "internalType": "address"
        },
        {
          "name": "newAdmin",
          "type": "address",
          "indexed": false,
          "internalType": "address"
        }
      ],
      "anonymous": false
    },
    {
      "type": "event",
      "name": "BalanceLocked",
      "inputs": [
        {
          "name": "user",
          "type": "address",
          "indexed": true,
          "internalType": "address"
        }
      ],
      "anonymous": false
    },
    {
      "type": "event",
      "name": "BalanceUnlocked",
      "inputs": [
        {
          "name": "user",
          "type": "address",
          "indexed": true,
          "internalType": "address"
        },
        {
          "name": "unlockBlockTime",
          "type": "uint256",
          "indexed": false,
          "internalType": "uint256"
        }
      ],
      "anonymous": false
    },
    {
      "type": "event",
      "name": "BeaconUpgraded",
      "inputs": [
        {
          "name": "beacon",
          "type": "address",
          "indexed": true,
          "internalType": "address"
        }
      ],
      "anonymous": false
    },
    {
      "type": "event",
      "name": "FundsWithdrawn",
      "inputs": [
        {
          "name": "recipient",
          "type": "address",
          "indexed": true,
          "internalType": "address"
        },
        {
          "name": "amount",
          "type": "uint256",
          "indexed": false,
          "internalType": "uint256"
        }
      ],
      "anonymous": false
    },
    {
      "type": "event",
      "name": "Initialized",
      "inputs": [
        {
          "name": "version",
          "type": "uint8",
          "indexed": false,
          "internalType": "uint8"
        }
      ],
      "anonymous": false
    },
    {
      "type": "event",
      "name": "OwnershipTransferred",
      "inputs": [
        {
          "name": "previousOwner",
          "type": "address",
          "indexed": true,
          "internalType": "address"
        },
        {
          "name": "newOwner",
          "type": "address",
          "indexed": true,
          "internalType": "address"
        }
      ],
      "anonymous": false
    },
    {
      "type": "event",
      "name": "Paused",
      "inputs": [
        {
          "name": "account",
          "type": "address",
          "indexed": false,
          "internalType": "address"
        }
      ],
      "anonymous": false
    },
    {
      "type": "event",
      "name": "PaymentReceived",
      "inputs": [
        {
          "name": "sender",
          "type": "address",
          "indexed": true,
          "internalType": "address"
        },
        {
          "name": "amount",
          "type": "uint256",
          "indexed": false,
          "internalType": "uint256"
        }
      ],
      "anonymous": false
    },
    {
      "type": "event",
      "name": "TaskCreated",
      "inputs": [
        {
          "name": "batchMerkleRoot",
          "type": "bytes32",
          "indexed": true,
          "internalType": "bytes32"
        },
        {
          "name": "feePerProof",
          "type": "uint256",
          "indexed": false,
          "internalType": "uint256"
        }
      ],
      "anonymous": false
    },
    {
      "type": "event",
      "name": "Unpaused",
      "inputs": [
        {
          "name": "account",
          "type": "address",
          "indexed": false,
          "internalType": "address"
        }
      ],
      "anonymous": false
    },
    {
      "type": "event",
      "name": "Upgraded",
      "inputs": [
        {
          "name": "implementation",
          "type": "address",
          "indexed": true,
          "internalType": "address"
        }
      ],
      "anonymous": false
    },
    {
      "type": "error",
      "name": "FundsLocked",
      "inputs": [
        {
          "name": "unlockBlockTime",
          "type": "uint256",
          "internalType": "uint256"
        },
        {
          "name": "currentBlockTime",
          "type": "uint256",
          "internalType": "uint256"
        }
      ]
    },
    {
      "type": "error",
      "name": "InsufficientFeeForAggregator",
      "inputs": [
        {
          "name": "required",
          "type": "uint256",
          "internalType": "uint256"
        },
        {
          "name": "available",
          "type": "uint256",
          "internalType": "uint256"
        }
      ]
    },
    {
      "type": "error",
      "name": "InvalidAddress",
      "inputs": [
        {
          "name": "param",
          "type": "string",
          "internalType": "string"
        }
      ]
    },
    {
      "type": "error",
      "name": "NoFeePerProof",
      "inputs": []
    },
    {
      "type": "error",
      "name": "NoProofSubmitters",
      "inputs": []
    },
    {
      "type": "error",
      "name": "OnlyBatcherAllowed",
      "inputs": [
        {
          "name": "caller",
          "type": "address",
          "internalType": "address"
        }
      ]
    },
    {
      "type": "error",
      "name": "PayerInsufficientBalance",
      "inputs": [
        {
          "name": "balance",
          "type": "uint256",
          "internalType": "uint256"
        },
        {
          "name": "amount",
          "type": "uint256",
          "internalType": "uint256"
        }
      ]
    },
    {
      "type": "error",
      "name": "SubmissionInsufficientBalance",
      "inputs": [
        {
          "name": "sender",
          "type": "address",
          "internalType": "address"
        },
        {
          "name": "balance",
          "type": "uint256",
          "internalType": "uint256"
        },
        {
          "name": "required",
          "type": "uint256",
          "internalType": "uint256"
        }
      ]
    },
    {
      "type": "error",
      "name": "UserHasNoFundsToLock",
      "inputs": [
        {
          "name": "user",
          "type": "address",
          "internalType": "address"
        }
      ]
    },
    {
      "type": "error",
      "name": "UserHasNoFundsToUnlock",
      "inputs": [
        {
          "name": "user",
          "type": "address",
          "internalType": "address"
        }
      ]
    }
  ],
  "bytecode": {
    "object": "0x60a06040523060805234801561001457600080fd5b5061001d610022565b6100e2565b600054610100900460ff161561008e5760405162461bcd60e51b815260206004820152602760248201527f496e697469616c697a61626c653a20636f6e747261637420697320696e697469604482015266616c697a696e6760c81b606482015260840160405180910390fd5b60005460ff90811610156100e0576000805460ff191660ff9081179091556040519081527f7f26b83ff96e1f2b6a682f133852f6798a09c465da95921460cefb38474024989060200160405180910390a15b565b608051611a82610119600039600081816105e801528181610628015281816106d90152818161071901526107ac0152611a826000f3fe60806040526004361061012e5760003560e01c8063715018a6116100ab578063a69df4b51161006f578063a69df4b5146103c0578063a7d31809146103d5578063c0c53b8b146103f5578063c891091314610415578063f2fde38b1461046c578063f83d08ba1461048c57600080fd5b8063715018a61461034257806373e289d0146103575780638456cb591461036d5780638da5cb5b14610382578063953ef807146103a057600080fd5b80634d5431ea116100f25780634d5431ea146102865780634f1ef286146102bf57806352d1902d146102d257806358b96e27146102e75780635c975abb1461031f57600080fd5b806317d89c4e146101ad5780632df4e21e146101f95780632e1a7d4d1461022f5780633659cfe6146102515780633f4ba83a1461027157600080fd5b366101a85733600090815260fd60205260408120805434929061015290849061154c565b909155505033600081815260fd602052604080822060010191909155517f6ef95f06320e7a25a04a175ca677b7052bdd97131872c2192525a629f51be7709061019e9034815260200190565b60405180910390a2005b600080fd5b3480156101b957600080fd5b506101e66101c8366004611574565b6001600160a01b0316600090815260fd602052604090206002015490565b6040519081526020015b60405180910390f35b34801561020557600080fd5b506101e6610214366004611574565b6001600160a01b0316600090815260fd602052604090205490565b34801561023b57600080fd5b5061024f61024a366004611591565b6104a1565b005b34801561025d57600080fd5b5061024f61026c366004611574565b6105de565b34801561027d57600080fd5b5061024f6106bd565b34801561029257600080fd5b506101e66102a1366004611574565b6001600160a01b0316600090815260fd602052604090206001015490565b61024f6102cd3660046115c0565b6106cf565b3480156102de57600080fd5b506101e661079f565b3480156102f357600080fd5b5060fc54610307906001600160a01b031681565b6040516001600160a01b0390911681526020016101f0565b34801561032b57600080fd5b5060655460ff1660405190151581526020016101f0565b34801561034e57600080fd5b5061024f610852565b34801561036357600080fd5b506101e6610e1081565b34801561037957600080fd5b5061024f610864565b34801561038e57600080fd5b506033546001600160a01b0316610307565b3480156103ac57600080fd5b5060fb54610307906001600160a01b031681565b3480156103cc57600080fd5b5061024f610874565b3480156103e157600080fd5b5061024f6103f03660046116d0565b61090b565b34801561040157600080fd5b5061024f61041036600461178f565b610b9f565b34801561042157600080fd5b50610451610430366004611574565b60fd6020526000908152604090208054600182015460029092015490919083565b604080519384526020840192909252908201526060016101f0565b34801561047857600080fd5b5061024f610487366004611574565b610de9565b34801561049857600080fd5b5061024f610e5f565b6104a9610ed5565b33600090815260fd6020526040902080548211156104ec5780546040516321c3d50f60e01b81526004810191909152602481018390526044015b60405180910390fd5b600181015415806105005750428160010154115b1561052d576001810154604051635f6e272d60e11b815260048101919091524260248201526044016104e3565b8181600001600082825461054191906117da565b909155505060006001820181905560405133917fc5f84593e7086c66a205abab7ee44e1a8e6db58e50bf18ca46cb8239118b5ecd91a2604051339083156108fc029084906000818181858888f193505050501580156105a4573d6000803e3d6000fd5b5060405182815233907feaff4b37086828766ad3268786972c0cd24259d4c87a80f9d3963a3c3d999b0d9060200160405180910390a25050565b6001600160a01b037f00000000000000000000000000000000000000000000000000000000000000001630036106265760405162461bcd60e51b81526004016104e3906117ed565b7f00000000000000000000000000000000000000000000000000000000000000006001600160a01b031661066f600080516020611a06833981519152546001600160a01b031690565b6001600160a01b0316146106955760405162461bcd60e51b81526004016104e390611839565b61069e81610f1b565b604080516000808252602082019092526106ba91839190610f23565b50565b6106c5611093565b6106cd6110ed565b565b6001600160a01b037f00000000000000000000000000000000000000000000000000000000000000001630036107175760405162461bcd60e51b81526004016104e3906117ed565b7f00000000000000000000000000000000000000000000000000000000000000006001600160a01b0316610760600080516020611a06833981519152546001600160a01b031690565b6001600160a01b0316146107865760405162461bcd60e51b81526004016104e390611839565b61078f82610f1b565b61079b82826001610f23565b5050565b6000306001600160a01b037f0000000000000000000000000000000000000000000000000000000000000000161461083f5760405162461bcd60e51b815260206004820152603860248201527f555550535570677261646561626c653a206d757374206e6f742062652063616c60448201527f6c6564207468726f7567682064656c656761746563616c6c000000000000000060648201526084016104e3565b50600080516020611a0683398151915290565b61085a611093565b6106cd600061113f565b61086c611093565b6106cd611191565b61087c610ed5565b33600090815260fd602052604081205490036108ad5760405163b38340cf60e01b81523360048201526024016104e3565b6108b9610e104261154c565b33600081815260fd6020526040908190206001018390555190917f43e8fb9d4f009c90c55a3fa108b177b794704d61af7af6f6512db7883f8ed8439161090191815260200190565b60405180910390a2565b60fc546001600160a01b03163314610938576040516302a5785160e31b81523360048201526024016104e3565b610940610ed5565b83600081900361096357604051630c43ac2960e41b815260040160405180910390fd5b82600003610984576040516351d432c560e11b815260040160405180910390fd5b8361098f8285611885565b116109c1578361099f8285611885565b604051637899ec7160e01b8152600481019290925260248201526044016104e3565b60005b818163ffffffff161015610aa257600087878363ffffffff168181106109ec576109ec61189c565b9050602002016020810190610a019190611574565b6001600160a01b038116600090815260fd60205260409020805491925090861115610a5b578054604051634f779ceb60e01b81526001600160a01b03841660048201526024810191909152604481018790526064016104e3565b600281018054906000610a6d836118b2565b919050555085816000016000828254610a8691906117da565b9250508190555050508080610a9a906118cb565b9150506109c4565b5060fb5460405163d66eaabd60e01b81526001600160a01b039091169063d66eaabd908690610adb908d908d908d9089906004016118ee565b6000604051808303818588803b158015610af457600080fd5b505af1158015610b08573d6000803e3d6000fd5b5050505050887f4f9439a5aed9cb470d2e0756e7d293accfe5223e719a9a1a256646378ec4375884604051610b3f91815260200190565b60405180910390a260fc546001600160a01b03166108fc85610b618487611885565b610b6b91906117da565b6040518115909202916000818181858888f19350505050158015610b93573d6000803e3d6000fd5b50505050505050505050565b600054610100900460ff1615808015610bbf5750600054600160ff909116105b80610bd95750303b158015610bd9575060005460ff166001145b610c3c5760405162461bcd60e51b815260206004820152602e60248201527f496e697469616c697a61626c653a20636f6e747261637420697320616c72656160448201526d191e481a5b9a5d1a585b1a5e995960921b60648201526084016104e3565b6000805460ff191660011790558015610c5f576000805461ff0019166101001790555b6001600160a01b038416610cae57604051630b0f5aa160e11b815260206004820152601560248201527430b634b3b732b229b2b93b34b1b2a6b0b730b3b2b960591b60448201526064016104e3565b6001600160a01b038316610d0557604051630b0f5aa160e11b815260206004820152601a60248201527f626174636865725061796d656e74536572766963654f776e657200000000000060448201526064016104e3565b6001600160a01b038216610d4c57604051630b0f5aa160e11b815260206004820152600d60248201526c18985d18da195c95d85b1b195d609a1b60448201526064016104e3565b610d546111ce565b610d5c6111fd565b610d64611224565b610d6d8361113f565b60fb80546001600160a01b038087166001600160a01b03199283161790925560fc8054928516929091169190911790558015610de3576000805461ff0019169055604051600181527f7f26b83ff96e1f2b6a682f133852f6798a09c465da95921460cefb38474024989060200160405180910390a15b50505050565b610df1611093565b6001600160a01b038116610e565760405162461bcd60e51b815260206004820152602660248201527f4f776e61626c653a206e6577206f776e657220697320746865207a65726f206160448201526564647265737360d01b60648201526084016104e3565b6106ba8161113f565b610e67610ed5565b33600090815260fd60205260408120549003610e985760405163366095e160e11b81523360048201526024016104e3565b33600081815260fd6020526040808220600101829055517fc5f84593e7086c66a205abab7ee44e1a8e6db58e50bf18ca46cb8239118b5ecd9190a2565b60655460ff16156106cd5760405162461bcd60e51b815260206004820152601060248201526f14185d5cd8589b194e881c185d5cd95960821b60448201526064016104e3565b6106ba611093565b7f4910fdfa16fed3260ed0e7147f7cc6da11a60208b5b9406d12a635614ffd91435460ff1615610f5b57610f5683611253565b505050565b826001600160a01b03166352d1902d6040518163ffffffff1660e01b8152600401602060405180830381865afa925050508015610fb5575060408051601f3d908101601f19168201909252610fb29181019061192e565b60015b6110185760405162461bcd60e51b815260206004820152602e60248201527f45524331393637557067726164653a206e657720696d706c656d656e7461746960448201526d6f6e206973206e6f74205555505360901b60648201526084016104e3565b600080516020611a0683398151915281146110875760405162461bcd60e51b815260206004820152602960248201527f45524331393637557067726164653a20756e737570706f727465642070726f786044820152681a58589b195555525160ba1b60648201526084016104e3565b50610f568383836112ef565b6033546001600160a01b031633146106cd5760405162461bcd60e51b815260206004820181905260248201527f4f776e61626c653a2063616c6c6572206973206e6f7420746865206f776e657260448201526064016104e3565b6110f5611314565b6065805460ff191690557f5db9ee0a495bf2e6ff9c91a7834c1ba4fdd244a5e8aa4e537bd38aeae4b073aa335b6040516001600160a01b03909116815260200160405180910390a1565b603380546001600160a01b038381166001600160a01b0319831681179093556040519116919082907f8be0079c531659141344cd1fd0a4f28419497f9722a3daafe3b4186f6b6457e090600090a35050565b611199610ed5565b6065805460ff191660011790557f62e78cea01bee320cd4e420270b5ea74000d11b0c9f74754ebdbfc544b05a2586111223390565b600054610100900460ff166111f55760405162461bcd60e51b81526004016104e390611947565b6106cd61135d565b600054610100900460ff166106cd5760405162461bcd60e51b81526004016104e390611947565b600054610100900460ff1661124b5760405162461bcd60e51b81526004016104e390611947565b6106cd61138d565b6001600160a01b0381163b6112c05760405162461bcd60e51b815260206004820152602d60248201527f455243313936373a206e657720696d706c656d656e746174696f6e206973206e60448201526c1bdd08184818dbdb9d1c9858dd609a1b60648201526084016104e3565b600080516020611a0683398151915280546001600160a01b0319166001600160a01b0392909216919091179055565b6112f8836113c0565b6000825111806113055750805b15610f5657610de38383611400565b60655460ff166106cd5760405162461bcd60e51b815260206004820152601460248201527314185d5cd8589b194e881b9bdd081c185d5cd95960621b60448201526064016104e3565b600054610100900460ff166113845760405162461bcd60e51b81526004016104e390611947565b6106cd3361113f565b600054610100900460ff166113b45760405162461bcd60e51b81526004016104e390611947565b6065805460ff19169055565b6113c981611253565b6040516001600160a01b038216907fbc7cd75a20ee27fd9adebab32041f755214dbc6bffa90cc0225b39da2e5c2d3b90600090a250565b60606001600160a01b0383163b6114685760405162461bcd60e51b815260206004820152602660248201527f416464726573733a2064656c65676174652063616c6c20746f206e6f6e2d636f6044820152651b9d1c9858dd60d21b60648201526084016104e3565b600080846001600160a01b03168460405161148391906119b6565b600060405180830381855af49150503d80600081146114be576040519150601f19603f3d011682016040523d82523d6000602084013e6114c3565b606091505b50915091506114eb8282604051806060016040528060278152602001611a26602791396114f6565b925050505b92915050565b6060831561150557508161152f565b8251156115155782518084602001fd5b8160405162461bcd60e51b81526004016104e391906119d2565b9392505050565b634e487b7160e01b600052601160045260246000fd5b808201808211156114f0576114f0611536565b6001600160a01b03811681146106ba57600080fd5b60006020828403121561158657600080fd5b813561152f8161155f565b6000602082840312156115a357600080fd5b5035919050565b634e487b7160e01b600052604160045260246000fd5b600080604083850312156115d357600080fd5b82356115de8161155f565b9150602083013567ffffffffffffffff808211156115fb57600080fd5b818501915085601f83011261160f57600080fd5b813581811115611621576116216115aa565b604051601f8201601f19908116603f01168101908382118183101715611649576116496115aa565b8160405282815288602084870101111561166257600080fd5b8260208601602083013760006020848301015280955050505050509250929050565b60008083601f84011261169657600080fd5b50813567ffffffffffffffff8111156116ae57600080fd5b6020830191508360208260051b85010111156116c957600080fd5b9250929050565b60008060008060008060008060c0898b0312156116ec57600080fd5b88359750602089013567ffffffffffffffff8082111561170b57600080fd5b818b0191508b601f83011261171f57600080fd5b81358181111561172e57600080fd5b8c602082850101111561174057600080fd5b6020830199508098505060408b013591508082111561175e57600080fd5b5061176b8b828c01611684565b999c989b5096999698976060880135976080810135975060a0013595509350505050565b6000806000606084860312156117a457600080fd5b83356117af8161155f565b925060208401356117bf8161155f565b915060408401356117cf8161155f565b809150509250925092565b818103818111156114f0576114f0611536565b6020808252602c908201527f46756e6374696f6e206d7573742062652063616c6c6564207468726f7567682060408201526b19195b1959d85d1958d85b1b60a21b606082015260800190565b6020808252602c908201527f46756e6374696f6e206d7573742062652063616c6c6564207468726f7567682060408201526b6163746976652070726f787960a01b606082015260800190565b80820281158282048414176114f0576114f0611536565b634e487b7160e01b600052603260045260246000fd5b6000600182016118c4576118c4611536565b5060010190565b600063ffffffff8083168181036118e4576118e4611536565b6001019392505050565b848152606060208201528260608201528284608083013760006080848301015260006080601f19601f860116830101905082604083015295945050505050565b60006020828403121561194057600080fd5b5051919050565b6020808252602b908201527f496e697469616c697a61626c653a20636f6e7472616374206973206e6f74206960408201526a6e697469616c697a696e6760a81b606082015260800190565b60005b838110156119ad578181015183820152602001611995565b50506000910152565b600082516119c8818460208701611992565b9190910192915050565b60208152600082518060208401526119f1816040850160208701611992565b601f01601f1916919091016040019291505056fe360894a13ba1a3210667c828492db98dca3e2076cc3735a920a3ca505d382bbc416464726573733a206c6f772d6c6576656c2064656c65676174652063616c6c206661696c6564a2646970667358221220e6ad2eed1ecf7ce82da9919d74f91b18da2f843c4e01e2d1ecb23ce863370e2964736f6c63430008180033",
    "linkReferences": {}
  },
  "methodIdentifiers": {
    "UNLOCK_BLOCK_TIME()": "73e289d0",
    "alignedLayerServiceManager()": "953ef807",
    "batcherWallet()": "58b96e27",
    "createNewTask(bytes32,string,address[],uint256,uint256,uint256)": "a7d31809",
    "initialize(address,address,address)": "c0c53b8b",
    "lock()": "f83d08ba",
    "owner()": "8da5cb5b",
    "pause()": "8456cb59",
    "paused()": "5c975abb",
    "proxiableUUID()": "52d1902d",
    "renounceOwnership()": "715018a6",
    "transferOwnership(address)": "f2fde38b",
    "unlock()": "a69df4b5",
    "unpause()": "3f4ba83a",
    "upgradeTo(address)": "3659cfe6",
    "upgradeToAndCall(address,bytes)": "4f1ef286",
    "userData(address)": "c8910913",
    "user_balances(address)": "2df4e21e",
    "user_nonces(address)": "17d89c4e",
    "user_unlock_block(address)": "4d5431ea",
    "withdraw(uint256)": "2e1a7d4d"
  },
  "id": 125
}