{"abi":[{"type":"constructor","inputs":[],"stateMutability":"nonpayable"},{"type":"receive","stateMutability":"payable"},{"type":"function","name":"AlignedLayerServiceManager","inputs":[],"outputs":[{"name":"","type":"address","internalType":"address"}],"stateMutability":"view"},{"type":"function","name":"BatcherWallet","inputs":[],"outputs":[{"name":"","type":"address","internalType":"address"}],"stateMutability":"view"},{"type":"function","name":"UserBalances","inputs":[{"name":"","type":"address","internalType":"address"}],"outputs":[{"name":"","type":"uint256","internalType":"uint256"}],"stateMutability":"view"},{"type":"function","name":"UserNonces","inputs":[{"name":"","type":"address","internalType":"address"}],"outputs":[{"name":"","type":"uint256","internalType":"uint256"}],"stateMutability":"view"},{"type":"function","name":"checkMerkleRootAndVerifySignatures","inputs":[{"name":"leaves","type":"bytes32[]","internalType":"bytes32[]"},{"name":"batchMerkleRoot","type":"bytes32","internalType":"bytes32"},{"name":"signatures","type":"tuple[]","internalType":"struct BatcherPaymentService.SignatureData[]","components":[{"name":"v","type":"uint8","internalType":"uint8"},{"name":"r","type":"bytes32","internalType":"bytes32"},{"name":"s","type":"bytes32","internalType":"bytes32"},{"name":"nonce","type":"uint256","internalType":"uint256"}]},{"name":"feePerProof","type":"uint256","internalType":"uint256"}],"outputs":[],"stateMutability":"nonpayable"},{"type":"function","name":"createNewTask","inputs":[{"name":"batchMerkleRoot","type":"bytes32","internalType":"bytes32"},{"name":"batchDataPointer","type":"string","internalType":"string"},{"name":"leaves","type":"bytes32[]","internalType":"bytes32[]"},{"name":"signatures","type":"tuple[]","internalType":"struct BatcherPaymentService.SignatureData[]","components":[{"name":"v","type":"uint8","internalType":"uint8"},{"name":"r","type":"bytes32","internalType":"bytes32"},{"name":"s","type":"bytes32","internalType":"bytes32"},{"name":"nonce","type":"uint256","internalType":"uint256"}]},{"name":"gasForAggregator","type":"uint256","internalType":"uint256"},{"name":"gasPerProof","type":"uint256","internalType":"uint256"}],"outputs":[],"stateMutability":"nonpayable"},{"type":"function","name":"initialize","inputs":[{"name":"_AlignedLayerServiceManager","type":"address","internalType":"address"},{"name":"_BatcherPaymentServiceOwner","type":"address","internalType":"address"},{"name":"_BatcherWallet","type":"address","internalType":"address"}],"outputs":[],"stateMutability":"nonpayable"},{"type":"function","name":"owner","inputs":[],"outputs":[{"name":"","type":"address","internalType":"address"}],"stateMutability":"view"},{"type":"function","name":"pause","inputs":[],"outputs":[],"stateMutability":"nonpayable"},{"type":"function","name":"paused","inputs":[],"outputs":[{"name":"","type":"bool","internalType":"bool"}],"stateMutability":"view"},{"type":"function","name":"proxiableUUID","inputs":[],"outputs":[{"name":"","type":"bytes32","internalType":"bytes32"}],"stateMutability":"view"},{"type":"function","name":"renounceOwnership","inputs":[],"outputs":[],"stateMutability":"nonpayable"},{"type":"function","name":"transferOwnership","inputs":[{"name":"newOwner","type":"address","internalType":"address"}],"outputs":[],"stateMutability":"nonpayable"},{"type":"function","name":"unpause","inputs":[],"outputs":[],"stateMutability":"nonpayable"},{"type":"function","name":"upgradeTo","inputs":[{"name":"newImplementation","type":"address","internalType":"address"}],"outputs":[],"stateMutability":"nonpayable"},{"type":"function","name":"upgradeToAndCall","inputs":[{"name":"newImplementation","type":"address","internalType":"address"},{"name":"data","type":"bytes","internalType":"bytes"}],"outputs":[],"stateMutability":"payable"},{"type":"function","name":"withdraw","inputs":[{"name":"amount","type":"uint256","internalType":"uint256"}],"outputs":[],"stateMutability":"nonpayable"},{"type":"event","name":"AdminChanged","inputs":[{"name":"previousAdmin","type":"address","indexed":false,"internalType":"address"},{"name":"newAdmin","type":"address","indexed":false,"internalType":"address"}],"anonymous":false},{"type":"event","name":"BeaconUpgraded","inputs":[{"name":"beacon","type":"address","indexed":true,"internalType":"address"}],"anonymous":false},{"type":"event","name":"FundsWithdrawn","inputs":[{"name":"recipient","type":"address","indexed":true,"internalType":"address"},{"name":"amount","type":"uint256","indexed":false,"internalType":"uint256"}],"anonymous":false},{"type":"event","name":"Initialized","inputs":[{"name":"version","type":"uint8","indexed":false,"internalType":"uint8"}],"anonymous":false},{"type":"event","name":"OwnershipTransferred","inputs":[{"name":"previousOwner","type":"address","indexed":true,"internalType":"address"},{"name":"newOwner","type":"address","indexed":true,"internalType":"address"}],"anonymous":false},{"type":"event","name":"Paused","inputs":[{"name":"account","type":"address","indexed":false,"internalType":"address"}],"anonymous":false},{"type":"event","name":"PaymentReceived","inputs":[{"name":"sender","type":"address","indexed":true,"internalType":"address"},{"name":"amount","type":"uint256","indexed":false,"internalType":"uint256"}],"anonymous":false},{"type":"event","name":"Unpaused","inputs":[{"name":"account","type":"address","indexed":false,"internalType":"address"}],"anonymous":false},{"type":"event","name":"Upgraded","inputs":[{"name":"implementation","type":"address","indexed":true,"internalType":"address"}],"anonymous":false}],"bytecode":{"object":"0x60a06040523060805234801561001457600080fd5b5061001d610022565b6100e2565b600054610100900460ff161561008e5760405162461bcd60e51b815260206004820152602760248201527f496e697469616c697a61626c653a20636f6e747261637420697320696e697469604482015266616c697a696e6760c81b606482015260840160405180910390fd5b60005460ff90811610156100e0576000805460ff191660ff9081179091556040519081527f7f26b83ff96e1f2b6a682f133852f6798a09c465da95921460cefb38474024989060200160405180910390a15b565b608051611ed4610119600039600081816107a8015281816107e80152818161089a015281816108da015261096d0152611ed46000f3fe6080604052600436106101025760003560e01c80635c975abb116100955780638da5cb5b116100645780638da5cb5b146102e0578063b570823014610312578063c0c53b8b14610332578063d3c7f83314610352578063f2fde38b1461037257600080fd5b80635c975abb14610266578063715018a61461028957806377f3f7821461029e5780638456cb59146102cb57600080fd5b80633f4ba83a116100d15780633f4ba83a146102095780634f1ef2861461021e57806352d1902d1461023157806354831db61461024657600080fd5b806310e2ec271461016757806325de0b09146101895780632e1a7d4d146101c95780633659cfe6146101e957600080fd5b366101625733600090815260fd60205260408120805434929061012690849061180c565b909155505060405134815233907f6ef95f06320e7a25a04a175ca677b7052bdd97131872c2192525a629f51be7709060200160405180910390a2005b600080fd5b34801561017357600080fd5b506101876101823660046118b5565b610392565b005b34801561019557600080fd5b506101b66101a4366004611953565b60fe6020526000908152604090205481565b6040519081526020015b60405180910390f35b3480156101d557600080fd5b506101876101e436600461196e565b6106ac565b3480156101f557600080fd5b50610187610204366004611953565b61079d565b34801561021557600080fd5b5061018761087d565b61018761022c36600461199d565b61088f565b34801561023d57600080fd5b506101b6610960565b34801561025257600080fd5b50610187610261366004611a5f565b610a13565b34801561027257600080fd5b5060655460ff1660405190151581526020016101c0565b34801561029557600080fd5b50610187610e36565b3480156102aa57600080fd5b506101b66102b9366004611953565b60fd6020526000908152604090205481565b3480156102d757600080fd5b50610187610e48565b3480156102ec57600080fd5b506033546001600160a01b03165b6040516001600160a01b0390911681526020016101c0565b34801561031e57600080fd5b5060fb546102fa906001600160a01b031681565b34801561033e57600080fd5b5061018761034d366004611b43565b610e58565b34801561035e57600080fd5b5060fc546102fa906001600160a01b031681565b34801561037e57600080fd5b5061018761038d366004611953565b610fad565b600061039f600287611b86565b905060008167ffffffffffffffff8111156103bc576103bc611987565b6040519080825280602002602001820160405280156103e5578160200160208202803683370190505b50905060005b828163ffffffff161015610504578888610406836002611ba8565b63ffffffff1681811061041b5761041b611bd4565b9050602002013589898360026104319190611ba8565b61043c906001611bea565b63ffffffff1681811061045157610451611bd4565b90506020020135604051602001610472929190918252602082015260400190565b60405160208183030381529060405280519060200120828263ffffffff16815181106104a0576104a0611bd4565b6020026020010181815250506104f289898363ffffffff168181106104c7576104c7611bd4565b9050602002013587878463ffffffff168181106104e6576104e6611bd4565b90506080020186611023565b806104fc81611c12565b9150506103eb565b63ffffffff811685111561053f5761052d89898363ffffffff168181106104c7576104c7611bd4565b8061053781611c12565b915050610504565b61054a600284611b86565b92505b821561063d575060005b828163ffffffff16101561062b5781610571826002611ba8565b63ffffffff168151811061058757610587611bd4565b60200260200101518282600261059d9190611ba8565b6105a8906001611bea565b63ffffffff16815181106105be576105be611bd4565b60200260200101516040516020016105e0929190918252602082015260400190565b60405160208183030381529060405280519060200120828263ffffffff168151811061060e5761060e611bd4565b60209081029190910101528061062381611c12565b915050610557565b610636600284611b86565b925061054d565b868260008151811061065157610651611bd4565b6020026020010151146106a15760405162461bcd60e51b8152602060048201526013602482015272125b9d985b1a59081b595c9adb19481c9bdbdd606a1b60448201526064015b60405180910390fd5b505050505050505050565b6106b46111f9565b33600090815260fd60205260409020548111156107135760405162461bcd60e51b815260206004820152601e60248201527f50617965722068617320696e73756666696369656e742062616c616e636500006044820152606401610698565b33600090815260fd602052604081208054839290610732908490611c36565b9091555050604051339082156108fc029083906000818181858888f19350505050158015610764573d6000803e3d6000fd5b5060405181815233907feaff4b37086828766ad3268786972c0cd24259d4c87a80f9d3963a3c3d999b0d9060200160405180910390a250565b306001600160a01b037f00000000000000000000000000000000000000000000000000000000000000001614156107e65760405162461bcd60e51b815260040161069890611c4d565b7f00000000000000000000000000000000000000000000000000000000000000006001600160a01b031661082f600080516020611e58833981519152546001600160a01b031690565b6001600160a01b0316146108555760405162461bcd60e51b815260040161069890611c99565b61085e8161123f565b6040805160008082526020820190925261087a91839190611247565b50565b6108856113b7565b61088d611411565b565b306001600160a01b037f00000000000000000000000000000000000000000000000000000000000000001614156108d85760405162461bcd60e51b815260040161069890611c4d565b7f00000000000000000000000000000000000000000000000000000000000000006001600160a01b0316610921600080516020611e58833981519152546001600160a01b031690565b6001600160a01b0316146109475760405162461bcd60e51b815260040161069890611c99565b6109508261123f565b61095c82826001611247565b5050565b6000306001600160a01b037f00000000000000000000000000000000000000000000000000000000000000001614610a005760405162461bcd60e51b815260206004820152603860248201527f555550535570677261646561626c653a206d757374206e6f742062652063616c60448201527f6c6564207468726f7567682064656c656761746563616c6c00000000000000006064820152608401610698565b50600080516020611e5883398151915290565b60fc546001600160a01b03163314610a795760405162461bcd60e51b815260206004820152602360248201527f4f6e6c7920426174636865722063616e2063616c6c20746869732066756e637460448201526234b7b760e91b6064820152608401610698565b610a816111f9565b84836000610a8f3a86611ce5565b90506000610a9d3a86611ce5565b905060008411610ae55760405162461bcd60e51b8152602060048201526013602482015272139bc81b19585d995cc81cdd589b5a5d1d1959606a1b6044820152606401610698565b60008311610b355760405162461bcd60e51b815260206004820152601d60248201527f4e6f2070726f6f66207375626d6974746572207369676e6174757265730000006044820152606401610698565b86841015610b795760405162461bcd60e51b81526020600482015260116024820152704e6f7420656e6f756768206c656176657360781b6044820152606401610698565b610b84600185611c36565b841615610bdd5760405162461bcd60e51b815260206004820152602160248201527f4c6561766573206c656e677468206973206e6f74206120706f776572206f66206044820152601960f91b6064820152608401610698565b60008211610c255760405162461bcd60e51b815260206004820152601560248201527427379033b0b9903337b91030b3b3b932b3b0ba37b960591b6044820152606401610698565b60008111610c685760405162461bcd60e51b815260206004820152601060248201526f27379033b0b9903832b910383937b7b360811b6044820152606401610698565b81610c738483611ce5565b11610ccc5760405162461bcd60e51b8152602060048201526024808201527f4e6f7420656e6f7567682067617320746f20706179207468652061676772656760448201526330ba37b960e11b6064820152608401610698565b610cda8a8a8f8b8b86610392565b600060fb60009054906101000a90046001600160a01b03166001600160a01b0316838f8f8f604051602401610d1193929190611d04565b60408051601f198184030181529181526020820180516001600160e01b0316631700226560e21b17905251610d469190611d66565b60006040518083038185875af1925050503d8060008114610d83576040519150601f19603f3d011682016040523d82523d6000602084013e610d88565b606091505b5050905080610dd95760405162461bcd60e51b815260206004820152601960248201527f6372656174654e65775461736b2063616c6c206661696c6564000000000000006044820152606401610698565b60fc546001600160a01b03166108fc84610df38786611ce5565b610dfd9190611c36565b6040518115909202916000818181858888f19350505050158015610e25573d6000803e3d6000fd5b505050505050505050505050505050565b610e3e6113b7565b61088d6000611463565b610e506113b7565b61088d6114b5565b600054610100900460ff1615808015610e785750600054600160ff909116105b80610e925750303b158015610e92575060005460ff166001145b610ef55760405162461bcd60e51b815260206004820152602e60248201527f496e697469616c697a61626c653a20636f6e747261637420697320616c72656160448201526d191e481a5b9a5d1a585b1a5e995960921b6064820152608401610698565b6000805460ff191660011790558015610f18576000805461ff0019166101001790555b610f206114f2565b610f28611521565b610f3183611463565b60fb80546001600160a01b038087166001600160a01b03199283161790925560fc8054928516929091169190911790558015610fa7576000805461ff0019169055604051600181527f7f26b83ff96e1f2b6a682f133852f6798a09c465da95921460cefb38474024989060200160405180910390a15b50505050565b610fb56113b7565b6001600160a01b03811661101a5760405162461bcd60e51b815260206004820152602660248201527f4f776e61626c653a206e6577206f776e657220697320746865207a65726f206160448201526564647265737360d01b6064820152608401610698565b61087a81611463565b6000838360600135604051602001611045929190918252602082015260400190565b60405160208183030381529060405280519060200120905060006001828560000160208101906110759190611d82565b604080516000815260208181018084529490945260ff9092168282015291870135606082015290860135608082015260a0016020604051602081039080840390855afa1580156110c9573d6000803e3d6000fd5b505060408051601f1901516001600160a01b038116600090815260fe602052919091205490925060608601351490506111345760405162461bcd60e51b815260206004820152600d60248201526c496e76616c6964204e6f6e636560981b6044820152606401610698565b6001600160a01b038116600090815260fe6020526040812080549161115883611da5565b90915550506001600160a01b038116600090815260fd60205260409020548311156111c55760405162461bcd60e51b815260206004820152601f60248201527f5369676e65722068617320696e73756666696369656e742062616c616e6365006044820152606401610698565b6001600160a01b038116600090815260fd6020526040812080548592906111ed908490611c36565b90915550505050505050565b60655460ff161561088d5760405162461bcd60e51b815260206004820152601060248201526f14185d5cd8589b194e881c185d5cd95960821b6044820152606401610698565b61087a6113b7565b7f4910fdfa16fed3260ed0e7147f7cc6da11a60208b5b9406d12a635614ffd91435460ff161561127f5761127a83611548565b505050565b826001600160a01b03166352d1902d6040518163ffffffff1660e01b8152600401602060405180830381865afa9250505080156112d9575060408051601f3d908101601f191682019092526112d691810190611dc0565b60015b61133c5760405162461bcd60e51b815260206004820152602e60248201527f45524331393637557067726164653a206e657720696d706c656d656e7461746960448201526d6f6e206973206e6f74205555505360901b6064820152608401610698565b600080516020611e5883398151915281146113ab5760405162461bcd60e51b815260206004820152602960248201527f45524331393637557067726164653a20756e737570706f727465642070726f786044820152681a58589b195555525160ba1b6064820152608401610698565b5061127a8383836115e4565b6033546001600160a01b0316331461088d5760405162461bcd60e51b815260206004820181905260248201527f4f776e61626c653a2063616c6c6572206973206e6f7420746865206f776e65726044820152606401610698565b611419611609565b6065805460ff191690557f5db9ee0a495bf2e6ff9c91a7834c1ba4fdd244a5e8aa4e537bd38aeae4b073aa335b6040516001600160a01b03909116815260200160405180910390a1565b603380546001600160a01b038381166001600160a01b0319831681179093556040519116919082907f8be0079c531659141344cd1fd0a4f28419497f9722a3daafe3b4186f6b6457e090600090a35050565b6114bd6111f9565b6065805460ff191660011790557f62e78cea01bee320cd4e420270b5ea74000d11b0c9f74754ebdbfc544b05a2586114463390565b600054610100900460ff166115195760405162461bcd60e51b815260040161069890611dd9565b61088d611652565b600054610100900460ff1661088d5760405162461bcd60e51b815260040161069890611dd9565b6001600160a01b0381163b6115b55760405162461bcd60e51b815260206004820152602d60248201527f455243313936373a206e657720696d706c656d656e746174696f6e206973206e60448201526c1bdd08184818dbdb9d1c9858dd609a1b6064820152608401610698565b600080516020611e5883398151915280546001600160a01b0319166001600160a01b0392909216919091179055565b6115ed83611682565b6000825111806115fa5750805b1561127a57610fa783836116c2565b60655460ff1661088d5760405162461bcd60e51b815260206004820152601460248201527314185d5cd8589b194e881b9bdd081c185d5cd95960621b6044820152606401610698565b600054610100900460ff166116795760405162461bcd60e51b815260040161069890611dd9565b61088d33611463565b61168b81611548565b6040516001600160a01b038216907fbc7cd75a20ee27fd9adebab32041f755214dbc6bffa90cc0225b39da2e5c2d3b90600090a250565b60606001600160a01b0383163b61172a5760405162461bcd60e51b815260206004820152602660248201527f416464726573733a2064656c65676174652063616c6c20746f206e6f6e2d636f6044820152651b9d1c9858dd60d21b6064820152608401610698565b600080846001600160a01b0316846040516117459190611d66565b600060405180830381855af49150503d8060008114611780576040519150601f19603f3d011682016040523d82523d6000602084013e611785565b606091505b50915091506117ad8282604051806060016040528060278152602001611e78602791396117b6565b95945050505050565b606083156117c55750816117ef565b8251156117d55782518084602001fd5b8160405162461bcd60e51b81526004016106989190611e24565b9392505050565b634e487b7160e01b600052601160045260246000fd5b6000821982111561181f5761181f6117f6565b500190565b60008083601f84011261183657600080fd5b50813567ffffffffffffffff81111561184e57600080fd5b6020830191508360208260051b850101111561186957600080fd5b9250929050565b60008083601f84011261188257600080fd5b50813567ffffffffffffffff81111561189a57600080fd5b6020830191508360208260071b850101111561186957600080fd5b600080600080600080608087890312156118ce57600080fd5b863567ffffffffffffffff808211156118e657600080fd5b6118f28a838b01611824565b909850965060208901359550604089013591508082111561191257600080fd5b5061191f89828a01611870565b979a9699509497949695606090950135949350505050565b80356001600160a01b038116811461194e57600080fd5b919050565b60006020828403121561196557600080fd5b6117ef82611937565b60006020828403121561198057600080fd5b5035919050565b634e487b7160e01b600052604160045260246000fd5b600080604083850312156119b057600080fd5b6119b983611937565b9150602083013567ffffffffffffffff808211156119d657600080fd5b818501915085601f8301126119ea57600080fd5b8135818111156119fc576119fc611987565b604051601f8201601f19908116603f01168101908382118183101715611a2457611a24611987565b81604052828152886020848701011115611a3d57600080fd5b8260208601602083013760006020848301015280955050505050509250929050565b600080600080600080600080600060c08a8c031215611a7d57600080fd5b8935985060208a013567ffffffffffffffff80821115611a9c57600080fd5b818c0191508c601f830112611ab057600080fd5b813581811115611abf57600080fd5b8d6020828501011115611ad157600080fd5b602083019a508099505060408c0135915080821115611aef57600080fd5b611afb8d838e01611824565b909850965060608c0135915080821115611b1457600080fd5b50611b218c828d01611870565b9a9d999c50979a96999598959660808101359660a09091013595509350505050565b600080600060608486031215611b5857600080fd5b611b6184611937565b9250611b6f60208501611937565b9150611b7d60408501611937565b90509250925092565b600082611ba357634e487b7160e01b600052601260045260246000fd5b500490565b600063ffffffff80831681851681830481118215151615611bcb57611bcb6117f6565b02949350505050565b634e487b7160e01b600052603260045260246000fd5b600063ffffffff808316818516808303821115611c0957611c096117f6565b01949350505050565b600063ffffffff80831681811415611c2c57611c2c6117f6565b6001019392505050565b600082821015611c4857611c486117f6565b500390565b6020808252602c908201527f46756e6374696f6e206d7573742062652063616c6c6564207468726f7567682060408201526b19195b1959d85d1958d85b1b60a21b606082015260800190565b6020808252602c908201527f46756e6374696f6e206d7573742062652063616c6c6564207468726f7567682060408201526b6163746976652070726f787960a01b606082015260800190565b6000816000190483118215151615611cff57611cff6117f6565b500290565b83815260406020820152816040820152818360608301376000818301606090810191909152601f909201601f1916010192915050565b60005b83811015611d55578181015183820152602001611d3d565b83811115610fa75750506000910152565b60008251611d78818460208701611d3a565b9190910192915050565b600060208284031215611d9457600080fd5b813560ff811681146117ef57600080fd5b6000600019821415611db957611db96117f6565b5060010190565b600060208284031215611dd257600080fd5b5051919050565b6020808252602b908201527f496e697469616c697a61626c653a20636f6e7472616374206973206e6f74206960408201526a6e697469616c697a696e6760a81b606082015260800190565b6020815260008251806020840152611e43816040850160208701611d3a565b601f01601f1916919091016040019291505056fe360894a13ba1a3210667c828492db98dca3e2076cc3735a920a3ca505d382bbc416464726573733a206c6f772d6c6576656c2064656c65676174652063616c6c206661696c6564a26469706673582212201ed4083f08afd3b3721fef02f7b0ca2dd03e0974b1d89f96a7976ea26305f4cf64736f6c634300080c0033","linkReferences":{}},"methodIdentifiers":{"AlignedLayerServiceManager()":"b5708230","BatcherWallet()":"d3c7f833","UserBalances(address)":"77f3f782","UserNonces(address)":"25de0b09","checkMerkleRootAndVerifySignatures(bytes32[],bytes32,(uint8,bytes32,bytes32,uint256)[],uint256)":"10e2ec27","createNewTask(bytes32,string,bytes32[],(uint8,bytes32,bytes32,uint256)[],uint256,uint256)":"54831db6","initialize(address,address,address)":"c0c53b8b","owner()":"8da5cb5b","pause()":"8456cb59","paused()":"5c975abb","proxiableUUID()":"52d1902d","renounceOwnership()":"715018a6","transferOwnership(address)":"f2fde38b","unpause()":"3f4ba83a","upgradeTo(address)":"3659cfe6","upgradeToAndCall(address,bytes)":"4f1ef286","withdraw(uint256)":"2e1a7d4d"},"id":10}