{"abi":[{"type":"constructor","inputs":[],"stateMutability":"nonpayable"},{"type":"receive","stateMutability":"payable"},{"type":"function","name":"UNLOCK_BLOCK_TIME","inputs":[],"outputs":[{"name":"","type":"uint256","internalType":"uint256"}],"stateMutability":"view"},{"type":"function","name":"alignedLayerServiceManager","inputs":[],"outputs":[{"name":"","type":"address","internalType":"contract IAlignedLayerServiceManager"}],"stateMutability":"view"},{"type":"function","name":"batcherWallet","inputs":[],"outputs":[{"name":"","type":"address","internalType":"address"}],"stateMutability":"view"},{"type":"function","name":"createNewTask","inputs":[{"name":"batchMerkleRoot","type":"bytes32","internalType":"bytes32"},{"name":"batchDataPointer","type":"string","internalType":"string"},{"name":"proofsSubmissions","type":"tuple[]","internalType":"struct BatcherPaymentServiceStorage.ProofSubmitterData[]","components":[{"name":"sender","type":"address","internalType":"address"}]},{"name":"feeForAggregator","type":"uint256","internalType":"uint256"},{"name":"feePerProof","type":"uint256","internalType":"uint256"},{"name":"respondToTaskFeeLimit","type":"uint256","internalType":"uint256"}],"outputs":[],"stateMutability":"nonpayable"},{"type":"function","name":"eip712Domain","inputs":[],"outputs":[{"name":"fields","type":"bytes1","internalType":"bytes1"},{"name":"name","type":"string","internalType":"string"},{"name":"version","type":"string","internalType":"string"},{"name":"chainId","type":"uint256","internalType":"uint256"},{"name":"verifyingContract","type":"address","internalType":"address"},{"name":"salt","type":"bytes32","internalType":"bytes32"},{"name":"extensions","type":"uint256[]","internalType":"uint256[]"}],"stateMutability":"view"},{"type":"function","name":"initialize","inputs":[{"name":"_alignedLayerServiceManager","type":"address","internalType":"contract IAlignedLayerServiceManager"},{"name":"_batcherPaymentServiceOwner","type":"address","internalType":"address"},{"name":"_batcherWallet","type":"address","internalType":"address"},{"name":"_noncedVerificationDataTypeHash","type":"bytes32","internalType":"bytes32"}],"outputs":[],"stateMutability":"nonpayable"},{"type":"function","name":"initializeNoncedVerificationDataTypeHash","inputs":[{"name":"_noncedVerificationDataTypeHash","type":"bytes32","internalType":"bytes32"}],"outputs":[],"stateMutability":"nonpayable"},{"type":"function","name":"lock","inputs":[],"outputs":[],"stateMutability":"nonpayable"},{"type":"function","name":"noncedVerificationDataTypeHash","inputs":[],"outputs":[{"name":"","type":"bytes32","internalType":"bytes32"}],"stateMutability":"view"},{"type":"function","name":"owner","inputs":[],"outputs":[{"name":"","type":"address","internalType":"address"}],"stateMutability":"view"},{"type":"function","name":"pause","inputs":[],"outputs":[],"stateMutability":"nonpayable"},{"type":"function","name":"paused","inputs":[],"outputs":[{"name":"","type":"bool","internalType":"bool"}],"stateMutability":"view"},{"type":"function","name":"proxiableUUID","inputs":[],"outputs":[{"name":"","type":"bytes32","internalType":"bytes32"}],"stateMutability":"view"},{"type":"function","name":"renounceOwnership","inputs":[],"outputs":[],"stateMutability":"nonpayable"},{"type":"function","name":"setNoncedVerificationDataTypeHash","inputs":[{"name":"_newTypeHash","type":"bytes32","internalType":"bytes32"}],"outputs":[],"stateMutability":"nonpayable"},{"type":"function","name":"transferOwnership","inputs":[{"name":"newOwner","type":"address","internalType":"address"}],"outputs":[],"stateMutability":"nonpayable"},{"type":"function","name":"unlock","inputs":[],"outputs":[],"stateMutability":"nonpayable"},{"type":"function","name":"unpause","inputs":[],"outputs":[],"stateMutability":"nonpayable"},{"type":"function","name":"upgradeTo","inputs":[{"name":"newImplementation","type":"address","internalType":"address"}],"outputs":[],"stateMutability":"nonpayable"},{"type":"function","name":"upgradeToAndCall","inputs":[{"name":"newImplementation","type":"address","internalType":"address"},{"name":"data","type":"bytes","internalType":"bytes"}],"outputs":[],"stateMutability":"payable"},{"type":"function","name":"userData","inputs":[{"name":"","type":"address","internalType":"address"}],"outputs":[{"name":"balance","type":"uint256","internalType":"uint256"},{"name":"unlockBlockTime","type":"uint256","internalType":"uint256"},{"name":"nonce","type":"uint256","internalType":"uint256"}],"stateMutability":"view"},{"type":"function","name":"user_balances","inputs":[{"name":"account","type":"address","internalType":"address"}],"outputs":[{"name":"","type":"uint256","internalType":"uint256"}],"stateMutability":"view"},{"type":"function","name":"user_nonces","inputs":[{"name":"account","type":"address","internalType":"address"}],"outputs":[{"name":"","type":"uint256","internalType":"uint256"}],"stateMutability":"view"},{"type":"function","name":"user_unlock_block","inputs":[{"name":"account","type":"address","internalType":"address"}],"outputs":[{"name":"","type":"uint256","internalType":"uint256"}],"stateMutability":"view"},{"type":"function","name":"withdraw","inputs":[{"name":"amount","type":"uint256","internalType":"uint256"}],"outputs":[],"stateMutability":"nonpayable"},{"type":"event","name":"AdminChanged","inputs":[{"name":"previousAdmin","type":"address","indexed":false,"internalType":"address"},{"name":"newAdmin","type":"address","indexed":false,"internalType":"address"}],"anonymous":false},{"type":"event","name":"BalanceLocked","inputs":[{"name":"user","type":"address","indexed":true,"internalType":"address"}],"anonymous":false},{"type":"event","name":"BalanceUnlocked","inputs":[{"name":"user","type":"address","indexed":true,"internalType":"address"},{"name":"unlockBlockTime","type":"uint256","indexed":false,"internalType":"uint256"}],"anonymous":false},{"type":"event","name":"BeaconUpgraded","inputs":[{"name":"beacon","type":"address","indexed":true,"internalType":"address"}],"anonymous":false},{"type":"event","name":"EIP712DomainChanged","inputs":[],"anonymous":false},{"type":"event","name":"FundsWithdrawn","inputs":[{"name":"recipient","type":"address","indexed":true,"internalType":"address"},{"name":"amount","type":"uint256","indexed":false,"internalType":"uint256"}],"anonymous":false},{"type":"event","name":"Initialized","inputs":[{"name":"version","type":"uint8","indexed":false,"internalType":"uint8"}],"anonymous":false},{"type":"event","name":"OwnershipTransferred","inputs":[{"name":"previousOwner","type":"address","indexed":true,"internalType":"address"},{"name":"newOwner","type":"address","indexed":true,"internalType":"address"}],"anonymous":false},{"type":"event","name":"Paused","inputs":[{"name":"account","type":"address","indexed":false,"internalType":"address"}],"anonymous":false},{"type":"event","name":"PaymentReceived","inputs":[{"name":"sender","type":"address","indexed":true,"internalType":"address"},{"name":"amount","type":"uint256","indexed":false,"internalType":"uint256"}],"anonymous":false},{"type":"event","name":"TaskCreated","inputs":[{"name":"batchMerkleRoot","type":"bytes32","indexed":true,"internalType":"bytes32"},{"name":"feePerProof","type":"uint256","indexed":false,"internalType":"uint256"}],"anonymous":false},{"type":"event","name":"Unpaused","inputs":[{"name":"account","type":"address","indexed":false,"internalType":"address"}],"anonymous":false},{"type":"event","name":"Upgraded","inputs":[{"name":"implementation","type":"address","indexed":true,"internalType":"address"}],"anonymous":false},{"type":"error","name":"FundsLocked","inputs":[{"name":"unlockBlockTime","type":"uint256","internalType":"uint256"},{"name":"currentBlockTime","type":"uint256","internalType":"uint256"}]},{"type":"error","name":"InsufficientFeeForAggregator","inputs":[{"name":"required","type":"uint256","internalType":"uint256"},{"name":"available","type":"uint256","internalType":"uint256"}]},{"type":"error","name":"InvalidAddress","inputs":[{"name":"param","type":"string","internalType":"string"}]},{"type":"error","name":"InvalidMaxFee","inputs":[{"name":"maxFee","type":"uint256","internalType":"uint256"},{"name":"actualFee","type":"uint256","internalType":"uint256"}]},{"type":"error","name":"InvalidMerkleRoot","inputs":[{"name":"expected","type":"bytes32","internalType":"bytes32"},{"name":"actual","type":"bytes32","internalType":"bytes32"}]},{"type":"error","name":"InvalidNonce","inputs":[{"name":"expected","type":"uint256","internalType":"uint256"},{"name":"actual","type":"uint256","internalType":"uint256"}]},{"type":"error","name":"InvalidShortString","inputs":[]},{"type":"error","name":"InvalidSignature","inputs":[]},{"type":"error","name":"LeavesNotPowerOfTwo","inputs":[{"name":"leavesQty","type":"uint256","internalType":"uint256"}]},{"type":"error","name":"NoFeePerProof","inputs":[]},{"type":"error","name":"NoLeavesSubmitted","inputs":[]},{"type":"error","name":"NoProofSubmitterSignatures","inputs":[]},{"type":"error","name":"NotEnoughLeaves","inputs":[{"name":"leavesQty","type":"uint256","internalType":"uint256"},{"name":"signaturesQty","type":"uint256","internalType":"uint256"}]},{"type":"error","name":"OnlyBatcherAllowed","inputs":[{"name":"caller","type":"address","internalType":"address"}]},{"type":"error","name":"PayerInsufficientBalance","inputs":[{"name":"balance","type":"uint256","internalType":"uint256"},{"name":"amount","type":"uint256","internalType":"uint256"}]},{"type":"error","name":"StringTooLong","inputs":[{"name":"str","type":"string","internalType":"string"}]},{"type":"error","name":"SubmissionInsufficientBalance","inputs":[{"name":"signer","type":"address","internalType":"address"},{"name":"balance","type":"uint256","internalType":"uint256"},{"name":"required","type":"uint256","internalType":"uint256"}]},{"type":"error","name":"UserHasNoFundsToLock","inputs":[{"name":"user","type":"address","internalType":"address"}]},{"type":"error","name":"UserHasNoFundsToUnlock","inputs":[{"name":"user","type":"address","internalType":"address"}]}],"bytecode":{"object":"0x6101806040523060805234801561001557600080fd5b506040805180820182526007815266105b1a59db995960ca1b602080830191909152825180840190935260018352603160f81b90830152906100598261011661010e565b610140526100698161011761010e565b61016052815160208084019190912061010052815190820120610120524660c0526100f86101005161012051604080517f8b73c3c69bb8fe3d512ecc4cf759cc79239f7b179b0ffacaa9a75d522b39400f60208201529081019290925260608201524660808201523060a082015260009060c00160405160208183030381529060405280519060200120905090565b60a05250503060e052610109610141565b61040f565b600060208351101561012a5761012383610202565b905061013b565b8161013584826102df565b5060ff90505b92915050565b600054610100900460ff16156101ae5760405162461bcd60e51b815260206004820152602760248201527f496e697469616c697a61626c653a20636f6e747261637420697320696e697469604482015266616c697a696e6760c81b60648201526084015b60405180910390fd5b60005460ff9081161015610200576000805460ff191660ff9081179091556040519081527f7f26b83ff96e1f2b6a682f133852f6798a09c465da95921460cefb38474024989060200160405180910390a15b565b600080829050601f8151111561022d578260405163305a27a960e01b81526004016101a5919061039d565b8051610238826103eb565b179392505050565b634e487b7160e01b600052604160045260246000fd5b600181811c9082168061026a57607f821691505b60208210810361028a57634e487b7160e01b600052602260045260246000fd5b50919050565b601f8211156102da57806000526020600020601f840160051c810160208510156102b75750805b601f840160051c820191505b818110156102d757600081556001016102c3565b50505b505050565b81516001600160401b038111156102f8576102f8610240565b61030c816103068454610256565b84610290565b6020601f82116001811461034057600083156103285750848201515b600019600385901b1c1916600184901b1784556102d7565b600084815260208120601f198516915b828110156103705787850151825560209485019460019092019101610350565b508482101561038e5786840151600019600387901b60f8161c191681555b50505050600190811b01905550565b602081526000825180602084015260005b818110156103cb57602081860181015160408684010152016103ae565b506000604082850101526040601f19601f83011684010191505092915050565b8051602080830151919081101561028a5760001960209190910360031b1b16919050565b60805160a05160c05160e05161010051610120516101405161016051611e34610481600039600061132f015260006112fc01526000505060005050600050506000505060005050600081816106a2015281816106e201528181610793015281816107d3015261090a0152611e346000f3fe60806040526004361061016a5760003560e01c8063715018a6116100d15780638da5cb5b1161008a578063bebe497b11610064578063bebe497b146104af578063c8910913146104cf578063f2fde38b14610526578063f83d08ba1461054657600080fd5b80638da5cb5b1461045c578063953ef8071461047a578063a69df4b51461049a57600080fd5b8063715018a6146103be57806373e289d0146103d357806379225985146103e95780637cb3805a146103ff5780638456cb591461041f57806384b0196e1461043457600080fd5b80634f1ef286116101235780634f1ef286146102fb57806352be56291461030e57806352d1902d1461032e57806358b96e27146103435780635c975abb1461037b57806363acc14d1461039e57600080fd5b806317d89c4e146101e95780632df4e21e146102355780632e1a7d4d1461026b5780633659cfe61461028d5780633f4ba83a146102ad5780634d5431ea146102c257600080fd5b366101e45733600090815260fd60205260408120805434929061018e9084906117d2565b909155505033600081815260fd602052604080822060010191909155517f6ef95f06320e7a25a04a175ca677b7052bdd97131872c2192525a629f51be770906101da9034815260200190565b60405180910390a2005b600080fd5b3480156101f557600080fd5b506102226102043660046117fa565b6001600160a01b0316600090815260fd602052604090206002015490565b6040519081526020015b60405180910390f35b34801561024157600080fd5b506102226102503660046117fa565b6001600160a01b0316600090815260fd602052604090205490565b34801561027757600080fd5b5061028b610286366004611817565b61055b565b005b34801561029957600080fd5b5061028b6102a83660046117fa565b610698565b3480156102b957600080fd5b5061028b610777565b3480156102ce57600080fd5b506102226102dd3660046117fa565b6001600160a01b0316600090815260fd602052604090206001015490565b61028b610309366004611846565b610789565b34801561031a57600080fd5b5061028b610329366004611817565b610859565b34801561033a57600080fd5b506102226108fd565b34801561034f57600080fd5b5060fc54610363906001600160a01b031681565b6040516001600160a01b03909116815260200161022c565b34801561038757600080fd5b5060655460ff16604051901515815260200161022c565b3480156103aa57600080fd5b5061028b6103b9366004611912565b6109b0565b3480156103ca57600080fd5b5061028b610bb1565b3480156103df57600080fd5b50610222610e1081565b3480156103f557600080fd5b5061022260fe5481565b34801561040b57600080fd5b5061028b61041a366004611817565b610bc3565b34801561042b57600080fd5b5061028b610bd0565b34801561044057600080fd5b50610449610be0565b60405161022c97969594939291906119b3565b34801561046857600080fd5b506033546001600160a01b0316610363565b34801561048657600080fd5b5060fb54610363906001600160a01b031681565b3480156104a657600080fd5b5061028b610c26565b3480156104bb57600080fd5b5061028b6104ca366004611a97565b610cbd565b3480156104db57600080fd5b5061050b6104ea3660046117fa565b60fd6020526000908152604090208054600182015460029092015490919083565b6040805193845260208401929092529082015260600161022c565b34801561053257600080fd5b5061028b6105413660046117fa565b610eba565b34801561055257600080fd5b5061028b610f30565b610563610fa6565b33600090815260fd6020526040902080548211156105a65780546040516321c3d50f60e01b81526004810191909152602481018390526044015b60405180910390fd5b600181015415806105ba5750428160010154115b156105e7576001810154604051635f6e272d60e11b8152600481019190915242602482015260440161059d565b818160000160008282546105fb9190611b5f565b909155505060006001820181905560405133917fc5f84593e7086c66a205abab7ee44e1a8e6db58e50bf18ca46cb8239118b5ecd91a2604051339083156108fc029084906000818181858888f1935050505015801561065e573d6000803e3d6000fd5b5060405182815233907feaff4b37086828766ad3268786972c0cd24259d4c87a80f9d3963a3c3d999b0d9060200160405180910390a25050565b6001600160a01b037f00000000000000000000000000000000000000000000000000000000000000001630036106e05760405162461bcd60e51b815260040161059d90611b72565b7f00000000000000000000000000000000000000000000000000000000000000006001600160a01b0316610729600080516020611db8833981519152546001600160a01b031690565b6001600160a01b03161461074f5760405162461bcd60e51b815260040161059d90611bbe565b61075881610fec565b6040805160008082526020820190925261077491839190610ff4565b50565b61077f611164565b6107876111be565b565b6001600160a01b037f00000000000000000000000000000000000000000000000000000000000000001630036107d15760405162461bcd60e51b815260040161059d90611b72565b7f00000000000000000000000000000000000000000000000000000000000000006001600160a01b031661081a600080516020611db8833981519152546001600160a01b031690565b6001600160a01b0316146108405760405162461bcd60e51b815260040161059d90611bbe565b61084982610fec565b61085582826001610ff4565b5050565b600054600290610100900460ff1615801561087b575060005460ff8083169116105b6108975760405162461bcd60e51b815260040161059d90611c0a565b6000805461ffff191660ff8316176101001790556108b3611164565b60fe8290556000805461ff001916905560405160ff821681527f7f26b83ff96e1f2b6a682f133852f6798a09c465da95921460cefb38474024989060200160405180910390a15050565b6000306001600160a01b037f0000000000000000000000000000000000000000000000000000000000000000161461099d5760405162461bcd60e51b815260206004820152603860248201527f555550535570677261646561626c653a206d757374206e6f742062652063616c60448201527f6c6564207468726f7567682064656c656761746563616c6c0000000000000000606482015260840161059d565b50600080516020611db883398151915290565b600054610100900460ff16158080156109d05750600054600160ff909116105b806109ea5750303b1580156109ea575060005460ff166001145b610a065760405162461bcd60e51b815260040161059d90611c0a565b6000805460ff191660011790558015610a29576000805461ff0019166101001790555b6001600160a01b038516610a7857604051630b0f5aa160e11b815260206004820152601560248201527430b634b3b732b229b2b93b34b1b2a6b0b730b3b2b960591b604482015260640161059d565b6001600160a01b038416610acf57604051630b0f5aa160e11b815260206004820152601a60248201527f626174636865725061796d656e74536572766963654f776e6572000000000000604482015260640161059d565b6001600160a01b038316610b1657604051630b0f5aa160e11b815260206004820152600d60248201526c18985d18da195c95d85b1b195d609a1b604482015260640161059d565b610b1e611210565b610b2661123f565b610b2f84611266565b60fb80546001600160a01b038088166001600160a01b03199283161790925560fc80549286169290911691909117905560fe8290558015610baa576000805461ff0019169055604051600181527f7f26b83ff96e1f2b6a682f133852f6798a09c465da95921460cefb38474024989060200160405180910390a15b5050505050565b610bb9611164565b6107876000611266565b610bcb611164565b60fe55565b610bd8611164565b6107876112b8565b600060608060008060006060610bf46112f5565b610bfc611328565b60408051600080825260208201909252600f60f81b9b939a50919850469750309650945092509050565b610c2e610fa6565b33600090815260fd60205260408120549003610c5f5760405163b38340cf60e01b815233600482015260240161059d565b610c6b610e10426117d2565b33600081815260fd6020526040908190206001018390555190917f43e8fb9d4f009c90c55a3fa108b177b794704d61af7af6f6512db7883f8ed84391610cb391815260200190565b60405180910390a2565b60fc546001600160a01b03163314610cea576040516302a5785160e31b815233600482015260240161059d565b610cf2610fa6565b836000819003610d1557604051630c9d0b0160e21b815260040160405180910390fd5b82600003610d36576040516351d432c560e11b815260040160405180910390fd5b83610d418285611c58565b11610d735783610d518285611c58565b604051637899ec7160e01b81526004810192909252602482015260440161059d565b60005b818163ffffffff161015610dbd57610dab87878363ffffffff16818110610d9f57610d9f611c6f565b90506020020185611356565b80610db581611c85565b915050610d76565b5060fb5460405163d66eaabd60e01b81526001600160a01b039091169063d66eaabd908690610df6908d908d908d908990600401611caa565b6000604051808303818588803b158015610e0f57600080fd5b505af1158015610e23573d6000803e3d6000fd5b5050505050887f4f9439a5aed9cb470d2e0756e7d293accfe5223e719a9a1a256646378ec4375884604051610e5a91815260200190565b60405180910390a260fc546001600160a01b03166108fc85610e7c8487611c58565b610e869190611b5f565b6040518115909202916000818181858888f19350505050158015610eae573d6000803e3d6000fd5b50505050505050505050565b610ec2611164565b6001600160a01b038116610f275760405162461bcd60e51b815260206004820152602660248201527f4f776e61626c653a206e6577206f776e657220697320746865207a65726f206160448201526564647265737360d01b606482015260840161059d565b61077481611266565b610f38610fa6565b33600090815260fd60205260408120549003610f695760405163366095e160e11b815233600482015260240161059d565b33600081815260fd6020526040808220600101829055517fc5f84593e7086c66a205abab7ee44e1a8e6db58e50bf18ca46cb8239118b5ecd9190a2565b60655460ff16156107875760405162461bcd60e51b815260206004820152601060248201526f14185d5cd8589b194e881c185d5cd95960821b604482015260640161059d565b610774611164565b7f4910fdfa16fed3260ed0e7147f7cc6da11a60208b5b9406d12a635614ffd91435460ff161561102c57611027836113f4565b505050565b826001600160a01b03166352d1902d6040518163ffffffff1660e01b8152600401602060405180830381865afa925050508015611086575060408051601f3d908101601f1916820190925261108391810190611cea565b60015b6110e95760405162461bcd60e51b815260206004820152602e60248201527f45524331393637557067726164653a206e657720696d706c656d656e7461746960448201526d6f6e206973206e6f74205555505360901b606482015260840161059d565b600080516020611db883398151915281146111585760405162461bcd60e51b815260206004820152602960248201527f45524331393637557067726164653a20756e737570706f727465642070726f786044820152681a58589b195555525160ba1b606482015260840161059d565b50611027838383611490565b6033546001600160a01b031633146107875760405162461bcd60e51b815260206004820181905260248201527f4f776e61626c653a2063616c6c6572206973206e6f7420746865206f776e6572604482015260640161059d565b6111c66114bb565b6065805460ff191690557f5db9ee0a495bf2e6ff9c91a7834c1ba4fdd244a5e8aa4e537bd38aeae4b073aa335b6040516001600160a01b03909116815260200160405180910390a1565b600054610100900460ff166112375760405162461bcd60e51b815260040161059d90611d03565b610787611504565b600054610100900460ff166107875760405162461bcd60e51b815260040161059d90611d03565b603380546001600160a01b038381166001600160a01b0319831681179093556040519116919082907f8be0079c531659141344cd1fd0a4f28419497f9722a3daafe3b4186f6b6457e090600090a35050565b6112c0610fa6565b6065805460ff191660011790557f62e78cea01bee320cd4e420270b5ea74000d11b0c9f74754ebdbfc544b05a2586111f33390565b60606113237f0000000000000000000000000000000000000000000000000000000000000000610116611534565b905090565b60606113237f0000000000000000000000000000000000000000000000000000000000000000610117611534565b600060fd8161136860208601866117fa565b6001600160a01b03166001600160a01b03168152602001908152602001600020905081816000015410156113d6576113a360208401846117fa565b8154604051634f779ceb60e01b81526001600160a01b03909216600483015260248201526044810183905260640161059d565b818160000160008282546113ea9190611b5f565b9091555050505050565b6001600160a01b0381163b6114615760405162461bcd60e51b815260206004820152602d60248201527f455243313936373a206e657720696d706c656d656e746174696f6e206973206e60448201526c1bdd08184818dbdb9d1c9858dd609a1b606482015260840161059d565b600080516020611db883398151915280546001600160a01b0319166001600160a01b0392909216919091179055565b611499836115e1565b6000825111806114a65750805b15611027576114b58383611621565b50505050565b60655460ff166107875760405162461bcd60e51b815260206004820152601460248201527314185d5cd8589b194e881b9bdd081c185d5cd95960621b604482015260640161059d565b600054610100900460ff1661152b5760405162461bcd60e51b815260040161059d90611d03565b61078733611266565b606060ff831461154e5761154783611715565b90506115db565b81805461155a90611d4e565b80601f016020809104026020016040519081016040528092919081815260200182805461158690611d4e565b80156115d35780601f106115a8576101008083540402835291602001916115d3565b820191906000526020600020905b8154815290600101906020018083116115b657829003601f168201915b505050505090505b92915050565b6115ea816113f4565b6040516001600160a01b038216907fbc7cd75a20ee27fd9adebab32041f755214dbc6bffa90cc0225b39da2e5c2d3b90600090a250565b60606001600160a01b0383163b6116895760405162461bcd60e51b815260206004820152602660248201527f416464726573733a2064656c65676174652063616c6c20746f206e6f6e2d636f6044820152651b9d1c9858dd60d21b606482015260840161059d565b600080846001600160a01b0316846040516116a49190611d88565b600060405180830381855af49150503d80600081146116df576040519150601f19603f3d011682016040523d82523d6000602084013e6116e4565b606091505b509150915061170c8282604051806060016040528060278152602001611dd860279139611754565b95945050505050565b6060600061172283611794565b604080516020808252818301909252919250600091906020820181803683375050509182525060208101929092525090565b6060831561176357508161178d565b8251156117735782518084602001fd5b8160405162461bcd60e51b815260040161059d9190611da4565b9392505050565b600060ff8216601f8111156115db57604051632cd44ac360e21b815260040160405180910390fd5b634e487b7160e01b600052601160045260246000fd5b808201808211156115db576115db6117bc565b6001600160a01b038116811461077457600080fd5b60006020828403121561180c57600080fd5b813561178d816117e5565b60006020828403121561182957600080fd5b5035919050565b634e487b7160e01b600052604160045260246000fd5b6000806040838503121561185957600080fd5b8235611864816117e5565b9150602083013567ffffffffffffffff81111561188057600080fd5b8301601f8101851361189157600080fd5b803567ffffffffffffffff8111156118ab576118ab611830565b604051601f8201601f19908116603f0116810167ffffffffffffffff811182821017156118da576118da611830565b6040528181528282016020018710156118f257600080fd5b816020840160208301376000602083830101528093505050509250929050565b6000806000806080858703121561192857600080fd5b8435611933816117e5565b93506020850135611943816117e5565b92506040850135611953816117e5565b9396929550929360600135925050565b60005b8381101561197e578181015183820152602001611966565b50506000910152565b6000815180845261199f816020860160208601611963565b601f01601f19169290920160200192915050565b60ff60f81b8816815260e0602082015260006119d260e0830189611987565b82810360408401526119e48189611987565b606084018890526001600160a01b038716608085015260a0840186905283810360c08501528451808252602080870193509091019060005b81811015611a3a578351835260209384019390920191600101611a1c565b50909b9a5050505050505050505050565b60008083601f840112611a5d57600080fd5b50813567ffffffffffffffff811115611a7557600080fd5b6020830191508360208260051b8501011115611a9057600080fd5b9250929050565b60008060008060008060008060c0898b031215611ab357600080fd5b88359750602089013567ffffffffffffffff811115611ad157600080fd5b8901601f81018b13611ae257600080fd5b803567ffffffffffffffff811115611af957600080fd5b8b6020828401011115611b0b57600080fd5b60209190910197509550604089013567ffffffffffffffff811115611b2f57600080fd5b611b3b8b828c01611a4b565b999c989b5096999698976060880135976080810135975060a0013595509350505050565b818103818111156115db576115db6117bc565b6020808252602c908201527f46756e6374696f6e206d7573742062652063616c6c6564207468726f7567682060408201526b19195b1959d85d1958d85b1b60a21b606082015260800190565b6020808252602c908201527f46756e6374696f6e206d7573742062652063616c6c6564207468726f7567682060408201526b6163746976652070726f787960a01b606082015260800190565b6020808252602e908201527f496e697469616c697a61626c653a20636f6e747261637420697320616c72656160408201526d191e481a5b9a5d1a585b1a5e995960921b606082015260800190565b80820281158282048414176115db576115db6117bc565b634e487b7160e01b600052603260045260246000fd5b600063ffffffff821663ffffffff8103611ca157611ca16117bc565b60010192915050565b848152606060208201528260608201528284608083013760006080848301015260006080601f19601f860116830101905082604083015295945050505050565b600060208284031215611cfc57600080fd5b5051919050565b6020808252602b908201527f496e697469616c697a61626c653a20636f6e7472616374206973206e6f74206960408201526a6e697469616c697a696e6760a81b606082015260800190565b600181811c90821680611d6257607f821691505b602082108103611d8257634e487b7160e01b600052602260045260246000fd5b50919050565b60008251611d9a818460208701611963565b9190910192915050565b60208152600061178d602083018461198756fe360894a13ba1a3210667c828492db98dca3e2076cc3735a920a3ca505d382bbc416464726573733a206c6f772d6c6576656c2064656c65676174652063616c6c206661696c6564a264697066735822122020f53fdc85683a1f67e8880a7463c4f9e06c085366b5fb1b988f0a98553e68b964736f6c634300081b0033","linkReferences":{}},"methodIdentifiers":{"UNLOCK_BLOCK_TIME()":"73e289d0","alignedLayerServiceManager()":"953ef807","batcherWallet()":"58b96e27","createNewTask(bytes32,string,(address)[],uint256,uint256,uint256)":"bebe497b","eip712Domain()":"84b0196e","initialize(address,address,address,bytes32)":"63acc14d","initializeNoncedVerificationDataTypeHash(bytes32)":"52be5629","lock()":"f83d08ba","noncedVerificationDataTypeHash()":"79225985","owner()":"8da5cb5b","pause()":"8456cb59","paused()":"5c975abb","proxiableUUID()":"52d1902d","renounceOwnership()":"715018a6","setNoncedVerificationDataTypeHash(bytes32)":"7cb3805a","transferOwnership(address)":"f2fde38b","unlock()":"a69df4b5","unpause()":"3f4ba83a","upgradeTo(address)":"3659cfe6","upgradeToAndCall(address,bytes)":"4f1ef286","userData(address)":"c8910913","user_balances(address)":"2df4e21e","user_nonces(address)":"17d89c4e","user_unlock_block(address)":"4d5431ea","withdraw(uint256)":"2e1a7d4d"},"id":192}