{"abi":[{"type":"constructor","inputs":[],"stateMutability":"nonpayable"},{"type":"receive","stateMutability":"payable"},{"type":"function","name":"AlignedLayerServiceManager","inputs":[],"outputs":[{"name":"","type":"address","internalType":"address"}],"stateMutability":"view"},{"type":"function","name":"BatcherWallet","inputs":[],"outputs":[{"name":"","type":"address","internalType":"address"}],"stateMutability":"view"},{"type":"function","name":"UNLOCK_BLOCK_COUNT","inputs":[],"outputs":[{"name":"","type":"uint256","internalType":"uint256"}],"stateMutability":"view"},{"type":"function","name":"UserData","inputs":[{"name":"","type":"address","internalType":"address"}],"outputs":[{"name":"balance","type":"uint256","internalType":"uint256"},{"name":"unlockBlock","type":"uint256","internalType":"uint256"},{"name":"nonce","type":"uint256","internalType":"uint256"}],"stateMutability":"view"},{"type":"function","name":"checkMerkleRootAndVerifySignatures","inputs":[{"name":"leaves","type":"bytes32[]","internalType":"bytes32[]"},{"name":"batchMerkleRoot","type":"bytes32","internalType":"bytes32"},{"name":"signatures","type":"tuple[]","internalType":"struct BatcherPaymentService.SignatureData[]","components":[{"name":"signature","type":"bytes","internalType":"bytes"},{"name":"nonce","type":"uint256","internalType":"uint256"}]},{"name":"feePerProof","type":"uint256","internalType":"uint256"}],"outputs":[],"stateMutability":"nonpayable"},{"type":"function","name":"createNewTask","inputs":[{"name":"batchMerkleRoot","type":"bytes32","internalType":"bytes32"},{"name":"batchDataPointer","type":"string","internalType":"string"},{"name":"leaves","type":"bytes32[]","internalType":"bytes32[]"},{"name":"signatures","type":"tuple[]","internalType":"struct BatcherPaymentService.SignatureData[]","components":[{"name":"signature","type":"bytes","internalType":"bytes"},{"name":"nonce","type":"uint256","internalType":"uint256"}]},{"name":"gasForAggregator","type":"uint256","internalType":"uint256"},{"name":"gasPerProof","type":"uint256","internalType":"uint256"}],"outputs":[],"stateMutability":"nonpayable"},{"type":"function","name":"initialize","inputs":[{"name":"_AlignedLayerServiceManager","type":"address","internalType":"address"},{"name":"_BatcherPaymentServiceOwner","type":"address","internalType":"address"},{"name":"_BatcherWallet","type":"address","internalType":"address"}],"outputs":[],"stateMutability":"nonpayable"},{"type":"function","name":"lock","inputs":[],"outputs":[],"stateMutability":"nonpayable"},{"type":"function","name":"owner","inputs":[],"outputs":[{"name":"","type":"address","internalType":"address"}],"stateMutability":"view"},{"type":"function","name":"pause","inputs":[],"outputs":[],"stateMutability":"nonpayable"},{"type":"function","name":"paused","inputs":[],"outputs":[{"name":"","type":"bool","internalType":"bool"}],"stateMutability":"view"},{"type":"function","name":"proxiableUUID","inputs":[],"outputs":[{"name":"","type":"bytes32","internalType":"bytes32"}],"stateMutability":"view"},{"type":"function","name":"renounceOwnership","inputs":[],"outputs":[],"stateMutability":"nonpayable"},{"type":"function","name":"transferOwnership","inputs":[{"name":"newOwner","type":"address","internalType":"address"}],"outputs":[],"stateMutability":"nonpayable"},{"type":"function","name":"unlock","inputs":[],"outputs":[],"stateMutability":"nonpayable"},{"type":"function","name":"unpause","inputs":[],"outputs":[],"stateMutability":"nonpayable"},{"type":"function","name":"upgradeTo","inputs":[{"name":"newImplementation","type":"address","internalType":"address"}],"outputs":[],"stateMutability":"nonpayable"},{"type":"function","name":"upgradeToAndCall","inputs":[{"name":"newImplementation","type":"address","internalType":"address"},{"name":"data","type":"bytes","internalType":"bytes"}],"outputs":[],"stateMutability":"payable"},{"type":"function","name":"user_balances","inputs":[{"name":"account","type":"address","internalType":"address"}],"outputs":[{"name":"","type":"uint256","internalType":"uint256"}],"stateMutability":"view"},{"type":"function","name":"user_nonces","inputs":[{"name":"account","type":"address","internalType":"address"}],"outputs":[{"name":"","type":"uint256","internalType":"uint256"}],"stateMutability":"view"},{"type":"function","name":"user_unlock_block","inputs":[{"name":"account","type":"address","internalType":"address"}],"outputs":[{"name":"","type":"uint256","internalType":"uint256"}],"stateMutability":"view"},{"type":"function","name":"withdraw","inputs":[{"name":"amount","type":"uint256","internalType":"uint256"}],"outputs":[],"stateMutability":"nonpayable"},{"type":"event","name":"AdminChanged","inputs":[{"name":"previousAdmin","type":"address","indexed":false,"internalType":"address"},{"name":"newAdmin","type":"address","indexed":false,"internalType":"address"}],"anonymous":false},{"type":"event","name":"BeaconUpgraded","inputs":[{"name":"beacon","type":"address","indexed":true,"internalType":"address"}],"anonymous":false},{"type":"event","name":"FundsWithdrawn","inputs":[{"name":"recipient","type":"address","indexed":true,"internalType":"address"},{"name":"amount","type":"uint256","indexed":false,"internalType":"uint256"}],"anonymous":false},{"type":"event","name":"Initialized","inputs":[{"name":"version","type":"uint8","indexed":false,"internalType":"uint8"}],"anonymous":false},{"type":"event","name":"OwnershipTransferred","inputs":[{"name":"previousOwner","type":"address","indexed":true,"internalType":"address"},{"name":"newOwner","type":"address","indexed":true,"internalType":"address"}],"anonymous":false},{"type":"event","name":"Paused","inputs":[{"name":"account","type":"address","indexed":false,"internalType":"address"}],"anonymous":false},{"type":"event","name":"PaymentReceived","inputs":[{"name":"sender","type":"address","indexed":true,"internalType":"address"},{"name":"amount","type":"uint256","indexed":false,"internalType":"uint256"}],"anonymous":false},{"type":"event","name":"Unpaused","inputs":[{"name":"account","type":"address","indexed":false,"internalType":"address"}],"anonymous":false},{"type":"event","name":"Upgraded","inputs":[{"name":"implementation","type":"address","indexed":true,"internalType":"address"}],"anonymous":false}],"bytecode":{"object":"0x60a0604052306080523480156200001557600080fd5b506200002062000026565b620000e8565b600054610100900460ff1615620000935760405162461bcd60e51b815260206004820152602760248201527f496e697469616c697a61626c653a20636f6e747261637420697320696e697469604482015266616c697a696e6760c81b606482015260840160405180910390fd5b60005460ff9081161015620000e6576000805460ff191660ff9081179091556040519081527f7f26b83ff96e1f2b6a682f133852f6798a09c465da95921460cefb38474024989060200160405180910390a15b565b60805161251362000120600039600081816105fb0152818161063b015281816106ed0152818161072d01526107c001526125136000f3fe6080604052600436106101395760003560e01c8063715018a6116100ab578063b57082301161006f578063b5708230146103f8578063bf32265814610418578063c0c53b8b14610438578063d3c7f83314610458578063f2fde38b14610478578063f83d08ba1461049857600080fd5b8063715018a6146103305780638456cb59146103455780638da5cb5b1461035a5780639907e0ab1461038c578063a69df4b5146103e357600080fd5b80634d5431ea116100fd5780634d5431ea146102775780634f1ef286146102b057806352d1902d146102c357806355f6065f146102d85780635a3f631a146102f85780635c975abb1461030d57600080fd5b806317d89c4e1461019e5780632df4e21e146101ea5780632e1a7d4d146102205780633659cfe6146102425780633f4ba83a1461026257600080fd5b366101995733600090815260fd60205260408120805434929061015d908490611e47565b909155505060405134815233907f6ef95f06320e7a25a04a175ca677b7052bdd97131872c2192525a629f51be7709060200160405180910390a2005b600080fd5b3480156101aa57600080fd5b506101d76101b9366004611e7b565b6001600160a01b0316600090815260fd602052604090206002015490565b6040519081526020015b60405180910390f35b3480156101f657600080fd5b506101d7610205366004611e7b565b6001600160a01b0316600090815260fd602052604090205490565b34801561022c57600080fd5b5061024061023b366004611e96565b6104ad565b005b34801561024e57600080fd5b5061024061025d366004611e7b565b6105f0565b34801561026e57600080fd5b506102406106d0565b34801561028357600080fd5b506101d7610292366004611e7b565b6001600160a01b0316600090815260fd602052604090206001015490565b6102406102be366004611ec5565b6106e2565b3480156102cf57600080fd5b506101d76107b3565b3480156102e457600080fd5b506102406102f3366004611fcc565b610866565b34801561030457600080fd5b506101d7606481565b34801561031957600080fd5b5060655460ff1660405190151581526020016101e1565b34801561033c57600080fd5b50610240610bf3565b34801561035157600080fd5b50610240610c05565b34801561036657600080fd5b506033546001600160a01b03165b6040516001600160a01b0390911681526020016101e1565b34801561039857600080fd5b506103c86103a7366004611e7b565b60fd6020526000908152604090208054600182015460029092015490919083565b604080519384526020840192909252908201526060016101e1565b3480156103ef57600080fd5b50610240610c15565b34801561040457600080fd5b5060fb54610374906001600160a01b031681565b34801561042457600080fd5b5061024061043336600461204e565b610c99565b34801561044457600080fd5b50610240610453366004612132565b6110bc565b34801561046457600080fd5b5060fc54610374906001600160a01b031681565b34801561048457600080fd5b50610240610493366004611e7b565b611211565b3480156104a457600080fd5b50610240611287565b6104b5611300565b33600090815260fd60205260409020805482111561051a5760405162461bcd60e51b815260206004820152601e60248201527f50617965722068617320696e73756666696369656e742062616c616e6365000060448201526064015b60405180910390fd5b600181015415801590610531575043816001015411155b6105705760405162461bcd60e51b815260206004820152601060248201526f119d5b991cc8185c99481b1bd8dad95960821b6044820152606401610511565b818160000160008282546105849190612175565b9091555050604051339083156108fc029084906000818181858888f193505050501580156105b6573d6000803e3d6000fd5b5060405182815233907feaff4b37086828766ad3268786972c0cd24259d4c87a80f9d3963a3c3d999b0d9060200160405180910390a25050565b306001600160a01b037f00000000000000000000000000000000000000000000000000000000000000001614156106395760405162461bcd60e51b81526004016105119061218c565b7f00000000000000000000000000000000000000000000000000000000000000006001600160a01b0316610682600080516020612497833981519152546001600160a01b031690565b6001600160a01b0316146106a85760405162461bcd60e51b8152600401610511906121d8565b6106b181611346565b604080516000808252602082019092526106cd9183919061134e565b50565b6106d86114be565b6106e0611518565b565b306001600160a01b037f000000000000000000000000000000000000000000000000000000000000000016141561072b5760405162461bcd60e51b81526004016105119061218c565b7f00000000000000000000000000000000000000000000000000000000000000006001600160a01b0316610774600080516020612497833981519152546001600160a01b031690565b6001600160a01b03161461079a5760405162461bcd60e51b8152600401610511906121d8565b6107a382611346565b6107af8282600161134e565b5050565b6000306001600160a01b037f000000000000000000000000000000000000000000000000000000000000000016146108535760405162461bcd60e51b815260206004820152603860248201527f555550535570677261646561626c653a206d757374206e6f742062652063616c60448201527f6c6564207468726f7567682064656c656761746563616c6c00000000000000006064820152608401610511565b5060008051602061249783398151915290565b6000610873600287612224565b905060008167ffffffffffffffff81111561089057610890611eaf565b6040519080825280602002602001820160405280156108b9578160200160208202803683370190505b50905060005b828163ffffffff1610156109e45788886108da836002612246565b63ffffffff168181106108ef576108ef612272565b9050602002013589898360026109059190612246565b610910906001612288565b63ffffffff1681811061092557610925612272565b90506020020135604051602001610946929190918252602082015260400190565b60405160208183030381529060405280519060200120828263ffffffff168151811061097457610974612272565b6020026020010181815250506109d289898363ffffffff1681811061099b5761099b612272565b9050602002013587878463ffffffff168181106109ba576109ba612272565b90506020028101906109cc91906122b0565b8661156a565b806109dc816122d0565b9150506108bf565b63ffffffff8116851115610a1f57610a0d89898363ffffffff1681811061099b5761099b612272565b80610a17816122d0565b9150506109e4565b610a2a600284612224565b92505b8215610b1d575060005b828163ffffffff161015610b0b5781610a51826002612246565b63ffffffff1681518110610a6757610a67612272565b602002602001015182826002610a7d9190612246565b610a88906001612288565b63ffffffff1681518110610a9e57610a9e612272565b6020026020010151604051602001610ac0929190918252602082015260400190565b60405160208183030381529060405280519060200120828263ffffffff1681518110610aee57610aee612272565b602090810291909101015280610b03816122d0565b915050610a37565b610b16600284612224565b9250610a2d565b6001881415610b89578689896000818110610b3a57610b3a612272565b9050602002013514610b845760405162461bcd60e51b8152602060048201526013602482015272125b9d985b1a59081b595c9adb19481c9bdbdd606a1b6044820152606401610511565b610be8565b8682600081518110610b9d57610b9d612272565b602002602001015114610be85760405162461bcd60e51b8152602060048201526013602482015272125b9d985b1a59081b595c9adb19481c9bdbdd606a1b6044820152606401610511565b505050505050505050565b610bfb6114be565b6106e06000611729565b610c0d6114be565b6106e061177b565b610c1d611300565b33600090815260fd6020526040902054610c795760405162461bcd60e51b815260206004820152601b60248201527f5573657220686173206e6f2066756e647320746f20756e6c6f636b00000000006044820152606401610511565b610c84606443611e47565b33600090815260fd6020526040902060010155565b60fc546001600160a01b03163314610cff5760405162461bcd60e51b815260206004820152602360248201527f4f6e6c7920426174636865722063616e2063616c6c20746869732066756e637460448201526234b7b760e91b6064820152608401610511565b610d07611300565b84836000610d153a866122f4565b90506000610d233a866122f4565b905060008411610d6b5760405162461bcd60e51b8152602060048201526013602482015272139bc81b19585d995cc81cdd589b5a5d1d1959606a1b6044820152606401610511565b60008311610dbb5760405162461bcd60e51b815260206004820152601d60248201527f4e6f2070726f6f66207375626d6974746572207369676e6174757265730000006044820152606401610511565b82841015610dff5760405162461bcd60e51b81526020600482015260116024820152704e6f7420656e6f756768206c656176657360781b6044820152606401610511565b610e0a600185612175565b841615610e635760405162461bcd60e51b815260206004820152602160248201527f4c6561766573206c656e677468206973206e6f74206120706f776572206f66206044820152601960f91b6064820152608401610511565b60008211610eab5760405162461bcd60e51b815260206004820152601560248201527427379033b0b9903337b91030b3b3b932b3b0ba37b960591b6044820152606401610511565b60008111610eee5760405162461bcd60e51b815260206004820152601060248201526f27379033b0b9903832b910383937b7b360811b6044820152606401610511565b81610ef984836122f4565b11610f525760405162461bcd60e51b8152602060048201526024808201527f4e6f7420656e6f7567682067617320746f20706179207468652061676772656760448201526330ba37b960e11b6064820152608401610511565b610f608a8a8f8b8b86610866565b600060fb60009054906101000a90046001600160a01b03166001600160a01b0316838f8f8f604051602401610f9793929190612313565b60408051601f198184030181529181526020820180516001600160e01b0316631700226560e21b17905251610fcc9190612375565b60006040518083038185875af1925050503d8060008114611009576040519150601f19603f3d011682016040523d82523d6000602084013e61100e565b606091505b505090508061105f5760405162461bcd60e51b815260206004820152601960248201527f6372656174654e65775461736b2063616c6c206661696c6564000000000000006044820152606401610511565b60fc546001600160a01b03166108fc8461107987866122f4565b6110839190612175565b6040518115909202916000818181858888f193505050501580156110ab573d6000803e3d6000fd5b505050505050505050505050505050565b600054610100900460ff16158080156110dc5750600054600160ff909116105b806110f65750303b1580156110f6575060005460ff166001145b6111595760405162461bcd60e51b815260206004820152602e60248201527f496e697469616c697a61626c653a20636f6e747261637420697320616c72656160448201526d191e481a5b9a5d1a585b1a5e995960921b6064820152608401610511565b6000805460ff19166001179055801561117c576000805461ff0019166101001790555b6111846117b8565b61118c6117e7565b61119583611729565b60fb80546001600160a01b038087166001600160a01b03199283161790925560fc805492851692909116919091179055801561120b576000805461ff0019169055604051600181527f7f26b83ff96e1f2b6a682f133852f6798a09c465da95921460cefb38474024989060200160405180910390a15b50505050565b6112196114be565b6001600160a01b03811661127e5760405162461bcd60e51b815260206004820152602660248201527f4f776e61626c653a206e6577206f776e657220697320746865207a65726f206160448201526564647265737360d01b6064820152608401610511565b6106cd81611729565b61128f611300565b33600090815260fd60205260409020546112eb5760405162461bcd60e51b815260206004820152601960248201527f5573657220686173206e6f2066756e647320746f206c6f636b000000000000006044820152606401610511565b33600090815260fd6020526040812060010155565b60655460ff16156106e05760405162461bcd60e51b815260206004820152601060248201526f14185d5cd8589b194e881c185d5cd95960821b6044820152606401610511565b6106cd6114be565b7f4910fdfa16fed3260ed0e7147f7cc6da11a60208b5b9406d12a635614ffd91435460ff1615611386576113818361180e565b505050565b826001600160a01b03166352d1902d6040518163ffffffff1660e01b8152600401602060405180830381865afa9250505080156113e0575060408051601f3d908101601f191682019092526113dd91810190612387565b60015b6114435760405162461bcd60e51b815260206004820152602e60248201527f45524331393637557067726164653a206e657720696d706c656d656e7461746960448201526d6f6e206973206e6f74205555505360901b6064820152608401610511565b60008051602061249783398151915281146114b25760405162461bcd60e51b815260206004820152602960248201527f45524331393637557067726164653a20756e737570706f727465642070726f786044820152681a58589b195555525160ba1b6064820152608401610511565b506113818383836118aa565b6033546001600160a01b031633146106e05760405162461bcd60e51b815260206004820181905260248201527f4f776e61626c653a2063616c6c6572206973206e6f7420746865206f776e65726044820152606401610511565b6115206118cf565b6065805460ff191690557f5db9ee0a495bf2e6ff9c91a7834c1ba4fdd244a5e8aa4e537bd38aeae4b073aa335b6040516001600160a01b03909116815260200160405180910390a1565b600083836020013560405160200161158c929190918252602082015260400190565b60408051601f198184030181529190528051602090910120905060006115f26115b585806123a0565b8080601f01602080910402602001604051908101604052809392919081815260200183838082843760009201919091525086939250506119189050565b90506001600160a01b03811661163e5760405162461bcd60e51b8152602060048201526011602482015270496e76616c6964207369676e617475726560781b6044820152606401610511565b6001600160a01b038116600090815260fd6020908152604090912060028101549091860135146116a05760405162461bcd60e51b815260206004820152600d60248201526c496e76616c6964204e6f6e636560981b6044820152606401610511565b6002810180549060006116b2836123e7565b909155505080548411156117085760405162461bcd60e51b815260206004820152601f60248201527f5369676e65722068617320696e73756666696369656e742062616c616e6365006044820152606401610511565b8381600001600082825461171c9190612175565b9091555050505050505050565b603380546001600160a01b038381166001600160a01b0319831681179093556040519116919082907f8be0079c531659141344cd1fd0a4f28419497f9722a3daafe3b4186f6b6457e090600090a35050565b611783611300565b6065805460ff191660011790557f62e78cea01bee320cd4e420270b5ea74000d11b0c9f74754ebdbfc544b05a25861154d3390565b600054610100900460ff166117df5760405162461bcd60e51b815260040161051190612402565b6106e061193c565b600054610100900460ff166106e05760405162461bcd60e51b815260040161051190612402565b6001600160a01b0381163b61187b5760405162461bcd60e51b815260206004820152602d60248201527f455243313936373a206e657720696d706c656d656e746174696f6e206973206e60448201526c1bdd08184818dbdb9d1c9858dd609a1b6064820152608401610511565b60008051602061249783398151915280546001600160a01b0319166001600160a01b0392909216919091179055565b6118b38361196c565b6000825111806118c05750805b156113815761120b83836119ac565b60655460ff166106e05760405162461bcd60e51b815260206004820152601460248201527314185d5cd8589b194e881b9bdd081c185d5cd95960621b6044820152606401610511565b60008060006119278585611aa0565b9150915061193481611b10565b509392505050565b600054610100900460ff166119635760405162461bcd60e51b815260040161051190612402565b6106e033611729565b6119758161180e565b6040516001600160a01b038216907fbc7cd75a20ee27fd9adebab32041f755214dbc6bffa90cc0225b39da2e5c2d3b90600090a250565b60606001600160a01b0383163b611a145760405162461bcd60e51b815260206004820152602660248201527f416464726573733a2064656c65676174652063616c6c20746f206e6f6e2d636f6044820152651b9d1c9858dd60d21b6064820152608401610511565b600080846001600160a01b031684604051611a2f9190612375565b600060405180830381855af49150503d8060008114611a6a576040519150601f19603f3d011682016040523d82523d6000602084013e611a6f565b606091505b5091509150611a9782826040518060600160405280602781526020016124b760279139611ccb565b95945050505050565b600080825160411415611ad75760208301516040840151606085015160001a611acb87828585611d0b565b94509450505050611b09565b825160401415611b015760208301516040840151611af6868383611df8565b935093505050611b09565b506000905060025b9250929050565b6000816004811115611b2457611b2461244d565b1415611b2d5750565b6001816004811115611b4157611b4161244d565b1415611b8f5760405162461bcd60e51b815260206004820152601860248201527f45434453413a20696e76616c6964207369676e617475726500000000000000006044820152606401610511565b6002816004811115611ba357611ba361244d565b1415611bf15760405162461bcd60e51b815260206004820152601f60248201527f45434453413a20696e76616c6964207369676e6174757265206c656e677468006044820152606401610511565b6003816004811115611c0557611c0561244d565b1415611c5e5760405162461bcd60e51b815260206004820152602260248201527f45434453413a20696e76616c6964207369676e6174757265202773272076616c604482015261756560f01b6064820152608401610511565b6004816004811115611c7257611c7261244d565b14156106cd5760405162461bcd60e51b815260206004820152602260248201527f45434453413a20696e76616c6964207369676e6174757265202776272076616c604482015261756560f01b6064820152608401610511565b60608315611cda575081611d04565b825115611cea5782518084602001fd5b8160405162461bcd60e51b81526004016105119190612463565b9392505050565b6000807f7fffffffffffffffffffffffffffffff5d576e7357a4501ddfe92f46681b20a0831115611d425750600090506003611def565b8460ff16601b14158015611d5a57508460ff16601c14155b15611d6b5750600090506004611def565b6040805160008082526020820180845289905260ff881692820192909252606081018690526080810185905260019060a0016020604051602081039080840390855afa158015611dbf573d6000803e3d6000fd5b5050604051601f1901519150506001600160a01b038116611de857600060019250925050611def565b9150600090505b94509492505050565b6000806001600160ff1b03831681611e1560ff86901c601b611e47565b9050611e2387828885611d0b565b935093505050935093915050565b634e487b7160e01b600052601160045260246000fd5b60008219821115611e5a57611e5a611e31565b500190565b80356001600160a01b0381168114611e7657600080fd5b919050565b600060208284031215611e8d57600080fd5b611d0482611e5f565b600060208284031215611ea857600080fd5b5035919050565b634e487b7160e01b600052604160045260246000fd5b60008060408385031215611ed857600080fd5b611ee183611e5f565b9150602083013567ffffffffffffffff80821115611efe57600080fd5b818501915085601f830112611f1257600080fd5b813581811115611f2457611f24611eaf565b604051601f8201601f19908116603f01168101908382118183101715611f4c57611f4c611eaf565b81604052828152886020848701011115611f6557600080fd5b8260208601602083013760006020848301015280955050505050509250929050565b60008083601f840112611f9957600080fd5b50813567ffffffffffffffff811115611fb157600080fd5b6020830191508360208260051b8501011115611b0957600080fd5b60008060008060008060808789031215611fe557600080fd5b863567ffffffffffffffff80821115611ffd57600080fd5b6120098a838b01611f87565b909850965060208901359550604089013591508082111561202957600080fd5b5061203689828a01611f87565b979a9699509497949695606090950135949350505050565b600080600080600080600080600060c08a8c03121561206c57600080fd5b8935985060208a013567ffffffffffffffff8082111561208b57600080fd5b818c0191508c601f83011261209f57600080fd5b8135818111156120ae57600080fd5b8d60208285010111156120c057600080fd5b602083019a508099505060408c01359150808211156120de57600080fd5b6120ea8d838e01611f87565b909850965060608c013591508082111561210357600080fd5b506121108c828d01611f87565b9a9d999c50979a96999598959660808101359660a09091013595509350505050565b60008060006060848603121561214757600080fd5b61215084611e5f565b925061215e60208501611e5f565b915061216c60408501611e5f565b90509250925092565b60008282101561218757612187611e31565b500390565b6020808252602c908201527f46756e6374696f6e206d7573742062652063616c6c6564207468726f7567682060408201526b19195b1959d85d1958d85b1b60a21b606082015260800190565b6020808252602c908201527f46756e6374696f6e206d7573742062652063616c6c6564207468726f7567682060408201526b6163746976652070726f787960a01b606082015260800190565b60008261224157634e487b7160e01b600052601260045260246000fd5b500490565b600063ffffffff8083168185168183048111821515161561226957612269611e31565b02949350505050565b634e487b7160e01b600052603260045260246000fd5b600063ffffffff8083168185168083038211156122a7576122a7611e31565b01949350505050565b60008235603e198336030181126122c657600080fd5b9190910192915050565b600063ffffffff808316818114156122ea576122ea611e31565b6001019392505050565b600081600019048311821515161561230e5761230e611e31565b500290565b83815260406020820152816040820152818360608301376000818301606090810191909152601f909201601f1916010192915050565b60005b8381101561236457818101518382015260200161234c565b8381111561120b5750506000910152565b600082516122c6818460208701612349565b60006020828403121561239957600080fd5b5051919050565b6000808335601e198436030181126123b757600080fd5b83018035915067ffffffffffffffff8211156123d257600080fd5b602001915036819003821315611b0957600080fd5b60006000198214156123fb576123fb611e31565b5060010190565b6020808252602b908201527f496e697469616c697a61626c653a20636f6e7472616374206973206e6f74206960408201526a6e697469616c697a696e6760a81b606082015260800190565b634e487b7160e01b600052602160045260246000fd5b6020815260008251806020840152612482816040850160208701612349565b601f01601f1916919091016040019291505056fe360894a13ba1a3210667c828492db98dca3e2076cc3735a920a3ca505d382bbc416464726573733a206c6f772d6c6576656c2064656c65676174652063616c6c206661696c6564a26469706673582212207a95aa48a13c9a049c44d88a566d9790c8c9044edaa06ac0dbe7ad02abaf59b364736f6c634300080c0033","linkReferences":{}},"methodIdentifiers":{"AlignedLayerServiceManager()":"b5708230","BatcherWallet()":"d3c7f833","UNLOCK_BLOCK_COUNT()":"5a3f631a","UserData(address)":"9907e0ab","checkMerkleRootAndVerifySignatures(bytes32[],bytes32,(bytes,uint256)[],uint256)":"55f6065f","createNewTask(bytes32,string,bytes32[],(bytes,uint256)[],uint256,uint256)":"bf322658","initialize(address,address,address)":"c0c53b8b","lock()":"f83d08ba","owner()":"8da5cb5b","pause()":"8456cb59","paused()":"5c975abb","proxiableUUID()":"52d1902d","renounceOwnership()":"715018a6","transferOwnership(address)":"f2fde38b","unlock()":"a69df4b5","unpause()":"3f4ba83a","upgradeTo(address)":"3659cfe6","upgradeToAndCall(address,bytes)":"4f1ef286","user_balances(address)":"2df4e21e","user_nonces(address)":"17d89c4e","user_unlock_block(address)":"4d5431ea","withdraw(uint256)":"2e1a7d4d"},"id":181}