{"abi":[{"type":"constructor","inputs":[],"stateMutability":"nonpayable"},{"type":"receive","stateMutability":"payable"},{"type":"function","name":"UNLOCK_BLOCK_TIME","inputs":[],"outputs":[{"name":"","type":"uint256","internalType":"uint256"}],"stateMutability":"view"},{"type":"function","name":"alignedLayerServiceManager","inputs":[],"outputs":[{"name":"","type":"address","internalType":"contract IAlignedLayerServiceManager"}],"stateMutability":"view"},{"type":"function","name":"batcherWallet","inputs":[],"outputs":[{"name":"","type":"address","internalType":"address"}],"stateMutability":"view"},{"type":"function","name":"createNewTask","inputs":[{"name":"batchMerkleRoot","type":"bytes32","internalType":"bytes32"},{"name":"batchDataPointer","type":"string","internalType":"string"},{"name":"leaves","type":"bytes32[]","internalType":"bytes32[]"},{"name":"signatures","type":"tuple[]","internalType":"struct BatcherPaymentServiceStorage.SignatureData[]","components":[{"name":"signature","type":"bytes","internalType":"bytes"},{"name":"nonce","type":"uint256","internalType":"uint256"},{"name":"maxFee","type":"uint256","internalType":"uint256"}]},{"name":"feeForAggregator","type":"uint256","internalType":"uint256"},{"name":"feePerProof","type":"uint256","internalType":"uint256"},{"name":"respondToTaskFeeLimit","type":"uint256","internalType":"uint256"}],"outputs":[],"stateMutability":"nonpayable"},{"type":"function","name":"eip712Domain","inputs":[],"outputs":[{"name":"fields","type":"bytes1","internalType":"bytes1"},{"name":"name","type":"string","internalType":"string"},{"name":"version","type":"string","internalType":"string"},{"name":"chainId","type":"uint256","internalType":"uint256"},{"name":"verifyingContract","type":"address","internalType":"address"},{"name":"salt","type":"bytes32","internalType":"bytes32"},{"name":"extensions","type":"uint256[]","internalType":"uint256[]"}],"stateMutability":"view"},{"type":"function","name":"initialize","inputs":[{"name":"_alignedLayerServiceManager","type":"address","internalType":"contract IAlignedLayerServiceManager"},{"name":"_batcherPaymentServiceOwner","type":"address","internalType":"address"},{"name":"_batcherWallet","type":"address","internalType":"address"},{"name":"_noncedVerificationDataTypeHash","type":"bytes32","internalType":"bytes32"}],"outputs":[],"stateMutability":"nonpayable"},{"type":"function","name":"initializeNoncedVerificationDataTypeHash","inputs":[{"name":"_noncedVerificationDataTypeHash","type":"bytes32","internalType":"bytes32"}],"outputs":[],"stateMutability":"nonpayable"},{"type":"function","name":"lock","inputs":[],"outputs":[],"stateMutability":"nonpayable"},{"type":"function","name":"noncedVerificationDataTypeHash","inputs":[],"outputs":[{"name":"","type":"bytes32","internalType":"bytes32"}],"stateMutability":"view"},{"type":"function","name":"owner","inputs":[],"outputs":[{"name":"","type":"address","internalType":"address"}],"stateMutability":"view"},{"type":"function","name":"pause","inputs":[],"outputs":[],"stateMutability":"nonpayable"},{"type":"function","name":"paused","inputs":[],"outputs":[{"name":"","type":"bool","internalType":"bool"}],"stateMutability":"view"},{"type":"function","name":"proxiableUUID","inputs":[],"outputs":[{"name":"","type":"bytes32","internalType":"bytes32"}],"stateMutability":"view"},{"type":"function","name":"renounceOwnership","inputs":[],"outputs":[],"stateMutability":"nonpayable"},{"type":"function","name":"setNoncedVerificationDataTypeHash","inputs":[{"name":"_newTypeHash","type":"bytes32","internalType":"bytes32"}],"outputs":[],"stateMutability":"nonpayable"},{"type":"function","name":"transferOwnership","inputs":[{"name":"newOwner","type":"address","internalType":"address"}],"outputs":[],"stateMutability":"nonpayable"},{"type":"function","name":"unlock","inputs":[],"outputs":[],"stateMutability":"nonpayable"},{"type":"function","name":"unpause","inputs":[],"outputs":[],"stateMutability":"nonpayable"},{"type":"function","name":"upgradeTo","inputs":[{"name":"newImplementation","type":"address","internalType":"address"}],"outputs":[],"stateMutability":"nonpayable"},{"type":"function","name":"upgradeToAndCall","inputs":[{"name":"newImplementation","type":"address","internalType":"address"},{"name":"data","type":"bytes","internalType":"bytes"}],"outputs":[],"stateMutability":"payable"},{"type":"function","name":"userData","inputs":[{"name":"","type":"address","internalType":"address"}],"outputs":[{"name":"balance","type":"uint256","internalType":"uint256"},{"name":"unlockBlockTime","type":"uint256","internalType":"uint256"},{"name":"nonce","type":"uint256","internalType":"uint256"}],"stateMutability":"view"},{"type":"function","name":"user_balances","inputs":[{"name":"account","type":"address","internalType":"address"}],"outputs":[{"name":"","type":"uint256","internalType":"uint256"}],"stateMutability":"view"},{"type":"function","name":"user_nonces","inputs":[{"name":"account","type":"address","internalType":"address"}],"outputs":[{"name":"","type":"uint256","internalType":"uint256"}],"stateMutability":"view"},{"type":"function","name":"user_unlock_block","inputs":[{"name":"account","type":"address","internalType":"address"}],"outputs":[{"name":"","type":"uint256","internalType":"uint256"}],"stateMutability":"view"},{"type":"function","name":"withdraw","inputs":[{"name":"amount","type":"uint256","internalType":"uint256"}],"outputs":[],"stateMutability":"nonpayable"},{"type":"event","name":"AdminChanged","inputs":[{"name":"previousAdmin","type":"address","indexed":false,"internalType":"address"},{"name":"newAdmin","type":"address","indexed":false,"internalType":"address"}],"anonymous":false},{"type":"event","name":"BalanceLocked","inputs":[{"name":"user","type":"address","indexed":true,"internalType":"address"}],"anonymous":false},{"type":"event","name":"BalanceUnlocked","inputs":[{"name":"user","type":"address","indexed":true,"internalType":"address"},{"name":"unlockBlockTime","type":"uint256","indexed":false,"internalType":"uint256"}],"anonymous":false},{"type":"event","name":"BeaconUpgraded","inputs":[{"name":"beacon","type":"address","indexed":true,"internalType":"address"}],"anonymous":false},{"type":"event","name":"EIP712DomainChanged","inputs":[],"anonymous":false},{"type":"event","name":"FundsWithdrawn","inputs":[{"name":"recipient","type":"address","indexed":true,"internalType":"address"},{"name":"amount","type":"uint256","indexed":false,"internalType":"uint256"}],"anonymous":false},{"type":"event","name":"Initialized","inputs":[{"name":"version","type":"uint8","indexed":false,"internalType":"uint8"}],"anonymous":false},{"type":"event","name":"OwnershipTransferred","inputs":[{"name":"previousOwner","type":"address","indexed":true,"internalType":"address"},{"name":"newOwner","type":"address","indexed":true,"internalType":"address"}],"anonymous":false},{"type":"event","name":"Paused","inputs":[{"name":"account","type":"address","indexed":false,"internalType":"address"}],"anonymous":false},{"type":"event","name":"PaymentReceived","inputs":[{"name":"sender","type":"address","indexed":true,"internalType":"address"},{"name":"amount","type":"uint256","indexed":false,"internalType":"uint256"}],"anonymous":false},{"type":"event","name":"TaskCreated","inputs":[{"name":"batchMerkleRoot","type":"bytes32","indexed":true,"internalType":"bytes32"},{"name":"feePerProof","type":"uint256","indexed":false,"internalType":"uint256"}],"anonymous":false},{"type":"event","name":"Unpaused","inputs":[{"name":"account","type":"address","indexed":false,"internalType":"address"}],"anonymous":false},{"type":"event","name":"Upgraded","inputs":[{"name":"implementation","type":"address","indexed":true,"internalType":"address"}],"anonymous":false},{"type":"error","name":"FundsLocked","inputs":[{"name":"unlockBlockTime","type":"uint256","internalType":"uint256"},{"name":"currentBlockTime","type":"uint256","internalType":"uint256"}]},{"type":"error","name":"InsufficientFeeForAggregator","inputs":[{"name":"required","type":"uint256","internalType":"uint256"},{"name":"available","type":"uint256","internalType":"uint256"}]},{"type":"error","name":"InvalidAddress","inputs":[{"name":"param","type":"string","internalType":"string"}]},{"type":"error","name":"InvalidMaxFee","inputs":[{"name":"maxFee","type":"uint256","internalType":"uint256"},{"name":"actualFee","type":"uint256","internalType":"uint256"}]},{"type":"error","name":"InvalidMerkleRoot","inputs":[{"name":"expected","type":"bytes32","internalType":"bytes32"},{"name":"actual","type":"bytes32","internalType":"bytes32"}]},{"type":"error","name":"InvalidNonce","inputs":[{"name":"expected","type":"uint256","internalType":"uint256"},{"name":"actual","type":"uint256","internalType":"uint256"}]},{"type":"error","name":"InvalidShortString","inputs":[]},{"type":"error","name":"InvalidSignature","inputs":[]},{"type":"error","name":"LeavesNotPowerOfTwo","inputs":[{"name":"leavesQty","type":"uint256","internalType":"uint256"}]},{"type":"error","name":"NoFeePerProof","inputs":[]},{"type":"error","name":"NoLeavesSubmitted","inputs":[]},{"type":"error","name":"NoProofSubmitterSignatures","inputs":[]},{"type":"error","name":"NotEnoughLeaves","inputs":[{"name":"leavesQty","type":"uint256","internalType":"uint256"},{"name":"signaturesQty","type":"uint256","internalType":"uint256"}]},{"type":"error","name":"OnlyBatcherAllowed","inputs":[{"name":"caller","type":"address","internalType":"address"}]},{"type":"error","name":"PayerInsufficientBalance","inputs":[{"name":"balance","type":"uint256","internalType":"uint256"},{"name":"amount","type":"uint256","internalType":"uint256"}]},{"type":"error","name":"SignerInsufficientBalance","inputs":[{"name":"signer","type":"address","internalType":"address"},{"name":"balance","type":"uint256","internalType":"uint256"},{"name":"required","type":"uint256","internalType":"uint256"}]},{"type":"error","name":"StringTooLong","inputs":[{"name":"str","type":"string","internalType":"string"}]},{"type":"error","name":"UserHasNoFundsToLock","inputs":[{"name":"user","type":"address","internalType":"address"}]},{"type":"error","name":"UserHasNoFundsToUnlock","inputs":[{"name":"user","type":"address","internalType":"address"}]}],"bytecode":{"object":"0x6101806040523060805234801561001557600080fd5b506040805180820182526007815266105b1a59db995960ca1b602080830191909152825180840190935260018352603160f81b90830152906100598261011661010e565b610140526100698161011761010e565b61016052815160208084019190912061010052815190820120610120524660c0526100f86101005161012051604080517f8b73c3c69bb8fe3d512ecc4cf759cc79239f7b179b0ffacaa9a75d522b39400f60208201529081019290925260608201524660808201523060a082015260009060c00160405160208183030381529060405280519060200120905090565b60a05250503060e052610109610141565b61040f565b600060208351101561012a5761012383610202565b905061013b565b8161013584826102df565b5060ff90505b92915050565b600054610100900460ff16156101ae5760405162461bcd60e51b815260206004820152602760248201527f496e697469616c697a61626c653a20636f6e747261637420697320696e697469604482015266616c697a696e6760c81b60648201526084015b60405180910390fd5b60005460ff9081161015610200576000805460ff191660ff9081179091556040519081527f7f26b83ff96e1f2b6a682f133852f6798a09c465da95921460cefb38474024989060200160405180910390a15b565b600080829050601f8151111561022d578260405163305a27a960e01b81526004016101a5919061039d565b8051610238826103eb565b179392505050565b634e487b7160e01b600052604160045260246000fd5b600181811c9082168061026a57607f821691505b60208210810361028a57634e487b7160e01b600052602260045260246000fd5b50919050565b601f8211156102da57806000526020600020601f840160051c810160208510156102b75750805b601f840160051c820191505b818110156102d757600081556001016102c3565b50505b505050565b81516001600160401b038111156102f8576102f8610240565b61030c816103068454610256565b84610290565b6020601f82116001811461034057600083156103285750848201515b600019600385901b1c1916600184901b1784556102d7565b600084815260208120601f198516915b828110156103705787850151825560209485019460019092019101610350565b508482101561038e5786840151600019600387901b60f8161c191681555b50505050600190811b01905550565b602081526000825180602084015260005b818110156103cb57602081860181015160408684010152016103ae565b506000604082850101526040601f19601f83011684010191505092915050565b8051602080830151919081101561028a5760001960209190910360031b1b16919050565b60805160a05160c05160e0516101005161012051610140516101605161296261049060003960006113b70152600061138401526000611e3201526000611e0a01526000611d6501526000611d8f01526000611db90152600081816106a2015281816106e201528181610793015281816107d3015261090a01526129626000f3fe60806040526004361061016a5760003560e01c8063715018a6116100d15780638da5cb5b1161008a578063c891091311610064578063c8910913146104af578063df5ffbc614610506578063f2fde38b14610526578063f83d08ba1461054657600080fd5b80638da5cb5b1461045c578063953ef8071461047a578063a69df4b51461049a57600080fd5b8063715018a6146103be57806373e289d0146103d357806379225985146103e95780637cb3805a146103ff5780638456cb591461041f57806384b0196e1461043457600080fd5b80634f1ef286116101235780634f1ef286146102fb57806352be56291461030e57806352d1902d1461032e57806358b96e27146103435780635c975abb1461037b57806363acc14d1461039e57600080fd5b806317d89c4e146101e95780632df4e21e146102355780632e1a7d4d1461026b5780633659cfe61461028d5780633f4ba83a146102ad5780634d5431ea146102c257600080fd5b366101e45733600090815260fd60205260408120805434929061018e9084906121e3565b909155505033600081815260fd602052604080822060010191909155517f6ef95f06320e7a25a04a175ca677b7052bdd97131872c2192525a629f51be770906101da9034815260200190565b60405180910390a2005b600080fd5b3480156101f557600080fd5b5061022261020436600461220b565b6001600160a01b0316600090815260fd602052604090206002015490565b6040519081526020015b60405180910390f35b34801561024157600080fd5b5061022261025036600461220b565b6001600160a01b0316600090815260fd602052604090205490565b34801561027757600080fd5b5061028b610286366004612228565b61055b565b005b34801561029957600080fd5b5061028b6102a836600461220b565b610698565b3480156102b957600080fd5b5061028b610777565b3480156102ce57600080fd5b506102226102dd36600461220b565b6001600160a01b0316600090815260fd602052604090206001015490565b61028b610309366004612257565b610789565b34801561031a57600080fd5b5061028b610329366004612228565b610859565b34801561033a57600080fd5b506102226108fd565b34801561034f57600080fd5b5060fc54610363906001600160a01b031681565b6040516001600160a01b03909116815260200161022c565b34801561038757600080fd5b5060655460ff16604051901515815260200161022c565b3480156103aa57600080fd5b5061028b6103b9366004612323565b6109b0565b3480156103ca57600080fd5b5061028b610bb9565b3480156103df57600080fd5b50610222610e1081565b3480156103f557600080fd5b5061022260fe5481565b34801561040b57600080fd5b5061028b61041a366004612228565b610bcb565b34801561042b57600080fd5b5061028b610bd8565b34801561044057600080fd5b50610449610be8565b60405161022c97969594939291906123c4565b34801561046857600080fd5b506033546001600160a01b0316610363565b34801561048657600080fd5b5060fb54610363906001600160a01b031681565b3480156104a657600080fd5b5061028b610c2e565b3480156104bb57600080fd5b506104eb6104ca36600461220b565b60fd6020526000908152604090208054600182015460029092015490919083565b6040805193845260208401929092529082015260600161022c565b34801561051257600080fd5b5061028b6105213660046124a1565b610cc5565b34801561053257600080fd5b5061028b61054136600461220b565b610f13565b34801561055257600080fd5b5061028b610f89565b610563610fff565b33600090815260fd6020526040902080548211156105a65780546040516321c3d50f60e01b81526004810191909152602481018390526044015b60405180910390fd5b600181015415806105ba5750428160010154115b156105e7576001810154604051635f6e272d60e11b8152600481019190915242602482015260440161059d565b818160000160008282546105fb919061259d565b909155505060006001820181905560405133917fc5f84593e7086c66a205abab7ee44e1a8e6db58e50bf18ca46cb8239118b5ecd91a2604051339083156108fc029084906000818181858888f1935050505015801561065e573d6000803e3d6000fd5b5060405182815233907feaff4b37086828766ad3268786972c0cd24259d4c87a80f9d3963a3c3d999b0d9060200160405180910390a25050565b6001600160a01b037f00000000000000000000000000000000000000000000000000000000000000001630036106e05760405162461bcd60e51b815260040161059d906125b0565b7f00000000000000000000000000000000000000000000000000000000000000006001600160a01b03166107296000805160206128e6833981519152546001600160a01b031690565b6001600160a01b03161461074f5760405162461bcd60e51b815260040161059d906125fc565b61075881611045565b604080516000808252602082019092526107749183919061104d565b50565b61077f6111bd565b610787611217565b565b6001600160a01b037f00000000000000000000000000000000000000000000000000000000000000001630036107d15760405162461bcd60e51b815260040161059d906125b0565b7f00000000000000000000000000000000000000000000000000000000000000006001600160a01b031661081a6000805160206128e6833981519152546001600160a01b031690565b6001600160a01b0316146108405760405162461bcd60e51b815260040161059d906125fc565b61084982611045565b6108558282600161104d565b5050565b600054600290610100900460ff1615801561087b575060005460ff8083169116105b6108975760405162461bcd60e51b815260040161059d90612648565b6000805461ffff191660ff8316176101001790556108b36111bd565b60fe8290556000805461ff001916905560405160ff821681527f7f26b83ff96e1f2b6a682f133852f6798a09c465da95921460cefb38474024989060200160405180910390a15050565b6000306001600160a01b037f0000000000000000000000000000000000000000000000000000000000000000161461099d5760405162461bcd60e51b815260206004820152603860248201527f555550535570677261646561626c653a206d757374206e6f742062652063616c60448201527f6c6564207468726f7567682064656c656761746563616c6c0000000000000000606482015260840161059d565b506000805160206128e683398151915290565b600054610100900460ff16158080156109d05750600054600160ff909116105b806109ea5750303b1580156109ea575060005460ff166001145b610a065760405162461bcd60e51b815260040161059d90612648565b6000805460ff191660011790558015610a29576000805461ff0019166101001790555b6001600160a01b038516610a7857604051630b0f5aa160e11b815260206004820152601560248201527430b634b3b732b229b2b93b34b1b2a6b0b730b3b2b960591b604482015260640161059d565b6001600160a01b038416610acf57604051630b0f5aa160e11b815260206004820152601a60248201527f626174636865725061796d656e74536572766963654f776e6572000000000000604482015260640161059d565b6001600160a01b038316610b1657604051630b0f5aa160e11b815260206004820152600d60248201526c18985d18da195c95d85b1b195d609a1b604482015260640161059d565b610b1e611269565b610b26611298565b610b2e6112bf565b610b37846112ee565b60fb80546001600160a01b038088166001600160a01b03199283161790925560fc80549286169290911691909117905560fe8290558015610bb2576000805461ff0019169055604051600181527f7f26b83ff96e1f2b6a682f133852f6798a09c465da95921460cefb38474024989060200160405180910390a15b5050505050565b610bc16111bd565b61078760006112ee565b610bd36111bd565b60fe55565b610be06111bd565b610787611340565b600060608060008060006060610bfc61137d565b610c046113b0565b60408051600080825260208201909252600f60f81b9b939a50919850469750309650945092509050565b610c36610fff565b33600090815260fd60205260408120549003610c675760405163b38340cf60e01b815233600482015260240161059d565b610c73610e10426121e3565b33600081815260fd6020526040908190206001018390555190917f43e8fb9d4f009c90c55a3fa108b177b794704d61af7af6f6512db7883f8ed84391610cbb91815260200190565b60405180910390a2565b60fc546001600160a01b03163314610cf2576040516302a5785160e31b815233600482015260240161059d565b610cfa610fff565b85846000829003610d1e5760405163e5180e0360e01b815260040160405180910390fd5b80600003610d3f57604051630c9d0b0160e21b815260040160405180910390fd5b80821015610d6a5760405163320f0a1b60e01b8152600481018390526024810182905260440161059d565b610d7560018361259d565b821615610d9857604051636b1651e160e01b81526004810183905260240161059d565b83600003610db9576040516351d432c560e11b815260040160405180910390fd5b84610dc48286612696565b11610df65784610dd48286612696565b604051637899ec7160e01b81526004810192909252602482015260440161059d565b610e0489898e8a8a896113de565b60fb60009054906101000a90046001600160a01b03166001600160a01b031663d66eaabd868e8e8e886040518663ffffffff1660e01b8152600401610e4c94939291906126ad565b6000604051808303818588803b158015610e6557600080fd5b505af1158015610e79573d6000803e3d6000fd5b50505050508b7f4f9439a5aed9cb470d2e0756e7d293accfe5223e719a9a1a256646378ec4375885604051610eb091815260200190565b60405180910390a260fc546001600160a01b03166108fc86610ed28488612696565b610edc919061259d565b6040518115909202916000818181858888f19350505050158015610f04573d6000803e3d6000fd5b50505050505050505050505050565b610f1b6111bd565b6001600160a01b038116610f805760405162461bcd60e51b815260206004820152602660248201527f4f776e61626c653a206e6577206f776e657220697320746865207a65726f206160448201526564647265737360d01b606482015260840161059d565b610774816112ee565b610f91610fff565b33600090815260fd60205260408120549003610fc25760405163366095e160e11b815233600482015260240161059d565b33600081815260fd6020526040808220600101829055517fc5f84593e7086c66a205abab7ee44e1a8e6db58e50bf18ca46cb8239118b5ecd9190a2565b60655460ff16156107875760405162461bcd60e51b815260206004820152601060248201526f14185d5cd8589b194e881c185d5cd95960821b604482015260640161059d565b6107746111bd565b7f4910fdfa16fed3260ed0e7147f7cc6da11a60208b5b9406d12a635614ffd91435460ff1615611085576110808361176e565b505050565b826001600160a01b03166352d1902d6040518163ffffffff1660e01b8152600401602060405180830381865afa9250505080156110df575060408051601f3d908101601f191682019092526110dc918101906126ed565b60015b6111425760405162461bcd60e51b815260206004820152602e60248201527f45524331393637557067726164653a206e657720696d706c656d656e7461746960448201526d6f6e206973206e6f74205555505360901b606482015260840161059d565b6000805160206128e683398151915281146111b15760405162461bcd60e51b815260206004820152602960248201527f45524331393637557067726164653a20756e737570706f727465642070726f786044820152681a58589b195555525160ba1b606482015260840161059d565b5061108083838361180a565b6033546001600160a01b031633146107875760405162461bcd60e51b815260206004820181905260248201527f4f776e61626c653a2063616c6c6572206973206e6f7420746865206f776e6572604482015260640161059d565b61121f611835565b6065805460ff191690557f5db9ee0a495bf2e6ff9c91a7834c1ba4fdd244a5e8aa4e537bd38aeae4b073aa335b6040516001600160a01b03909116815260200160405180910390a1565b600054610100900460ff166112905760405162461bcd60e51b815260040161059d90612706565b61078761187e565b600054610100900460ff166107875760405162461bcd60e51b815260040161059d90612706565b600054610100900460ff166112e65760405162461bcd60e51b815260040161059d90612706565b6107876118ae565b603380546001600160a01b038381166001600160a01b0319831681179093556040519116919082907f8be0079c531659141344cd1fd0a4f28419497f9722a3daafe3b4186f6b6457e090600090a35050565b611348610fff565b6065805460ff191660011790557f62e78cea01bee320cd4e420270b5ea74000d11b0c9f74754ebdbfc544b05a25861124c3390565b60606113ab7f00000000000000000000000000000000000000000000000000000000000000006101166118e1565b905090565b60606113ab7f00000000000000000000000000000000000000000000000000000000000000006101176118e1565b60006113eb600287612751565b905060008167ffffffffffffffff81111561140857611408612241565b604051908082528060200260200182016040528015611431578160200160208202803683370190505b50905060005b828163ffffffff16101561155c578888611452836002612773565b63ffffffff1681811061146757611467612799565b90506020020135898983600261147d9190612773565b6114889060016127af565b63ffffffff1681811061149d5761149d612799565b905060200201356040516020016114be929190918252602082015260400190565b60405160208183030381529060405280519060200120828263ffffffff16815181106114ec576114ec612799565b60200260200101818152505061154a89898363ffffffff1681811061151357611513612799565b9050602002013587878463ffffffff1681811061153257611532612799565b905060200281019061154491906127cb565b8661198e565b80611554816127eb565b915050611437565b63ffffffff81168511156115975761158589898363ffffffff1681811061151357611513612799565b8061158f816127eb565b91505061155c565b6115a2600284612751565b92505b8215611695575060005b828163ffffffff16101561168357816115c9826002612773565b63ffffffff16815181106115df576115df612799565b6020026020010151828260026115f59190612773565b6116009060016127af565b63ffffffff168151811061161657611616612799565b6020026020010151604051602001611638929190918252602082015260400190565b60405160208183030381529060405280519060200120828263ffffffff168151811061166657611666612799565b60209081029190910101528061167b816127eb565b9150506115af565b61168e600284612751565b92506115a5565b60018890036117025786898960008181106116b2576116b2612799565b90506020020135146116fd5786898960008181106116d2576116d2612799565b905060200201356040516327c4ed9760e21b815260040161059d929190918252602082015260400190565b611763565b868260008151811061171657611716612799565b60200260200101511461176357868260008151811061173757611737612799565b60200260200101516040516327c4ed9760e21b815260040161059d929190918252602082015260400190565b505050505050505050565b6001600160a01b0381163b6117db5760405162461bcd60e51b815260206004820152602d60248201527f455243313936373a206e657720696d706c656d656e746174696f6e206973206e60448201526c1bdd08184818dbdb9d1c9858dd609a1b606482015260840161059d565b6000805160206128e683398151915280546001600160a01b0319166001600160a01b0392909216919091179055565b61181383611b2c565b6000825111806118205750805b156110805761182f8383611b6c565b50505050565b60655460ff166107875760405162461bcd60e51b815260206004820152601460248201527314185d5cd8589b194e881b9bdd081c185d5cd95960621b604482015260640161059d565b600054610100900460ff166118a55760405162461bcd60e51b815260040161059d90612706565b610787336112ee565b600054610100900460ff166118d55760405162461bcd60e51b815260040161059d90612706565b6065805460ff19169055565b606060ff83146118fb576118f483611c60565b9050611988565b81805461190790612810565b80601f016020809104026020016040519081016040528092919081815260200182805461193390612810565b80156119805780601f1061195557610100808354040283529160200191611980565b820191906000526020600020905b81548152906001019060200180831161196357829003601f168201915b505050505090505b92915050565b80826040013510156119c05760408051637acd6fa560e11b81529083013560048201526024810182905260440161059d565b60fe5460408051602081810193909352808201869052918401356060830152830135608082015260009060a0016040516020818303038152906040528051906020012090506000611a1082611c9f565b90506000611a5c82611a22878061284a565b8080601f016020809104026020016040519081016040528093929190818152602001838380828437600092019190915250611ccc92505050565b6001600160a01b038116600090815260fd602090815260409091206002810154929350919087013514611ab55760028101546040516306427aeb60e01b815260048101919091526020870135602482015260440161059d565b600281018054906000611ac783612891565b90915550508054851115611b0a578054604051632557019960e21b81526001600160a01b038416600482015260248101919091526044810186905260640161059d565b84816000016000828254611b1e919061259d565b909155505050505050505050565b611b358161176e565b6040516001600160a01b038216907fbc7cd75a20ee27fd9adebab32041f755214dbc6bffa90cc0225b39da2e5c2d3b90600090a250565b60606001600160a01b0383163b611bd45760405162461bcd60e51b815260206004820152602660248201527f416464726573733a2064656c65676174652063616c6c20746f206e6f6e2d636f6044820152651b9d1c9858dd60d21b606482015260840161059d565b600080846001600160a01b031684604051611bef91906128aa565b600060405180830381855af49150503d8060008114611c2a576040519150601f19603f3d011682016040523d82523d6000602084013e611c2f565b606091505b5091509150611c57828260405180606001604052806027815260200161290660279139611cf0565b95945050505050565b60606000611c6d83611d30565b604080516020808252818301909252919250600091906020820181803683375050509182525060208101929092525090565b6000611988611cac611d58565b8360405161190160f01b8152600281019290925260228201526042902090565b6000806000611cdb8585611e83565b91509150611ce881611ef1565b509392505050565b60608315611cff575081611d29565b825115611d0f5782518084602001fd5b8160405162461bcd60e51b815260040161059d91906128bc565b9392505050565b600060ff8216601f81111561198857604051632cd44ac360e21b815260040160405180910390fd5b6000306001600160a01b037f000000000000000000000000000000000000000000000000000000000000000016148015611db157507f000000000000000000000000000000000000000000000000000000000000000046145b15611ddb57507f000000000000000000000000000000000000000000000000000000000000000090565b6113ab604080517f8b73c3c69bb8fe3d512ecc4cf759cc79239f7b179b0ffacaa9a75d522b39400f60208201527f0000000000000000000000000000000000000000000000000000000000000000918101919091527f000000000000000000000000000000000000000000000000000000000000000060608201524660808201523060a082015260009060c00160405160208183030381529060405280519060200120905090565b6000808251604103611eb95760208301516040840151606085015160001a611ead878285856120a7565b94509450505050611eea565b8251604003611ee25760208301516040840151611ed7868383612194565b935093505050611eea565b506000905060025b9250929050565b6000816004811115611f0557611f056128cf565b03611f0d5750565b6001816004811115611f2157611f216128cf565b03611f6e5760405162461bcd60e51b815260206004820152601860248201527f45434453413a20696e76616c6964207369676e61747572650000000000000000604482015260640161059d565b6002816004811115611f8257611f826128cf565b03611fcf5760405162461bcd60e51b815260206004820152601f60248201527f45434453413a20696e76616c6964207369676e6174757265206c656e67746800604482015260640161059d565b6003816004811115611fe357611fe36128cf565b0361203b5760405162461bcd60e51b815260206004820152602260248201527f45434453413a20696e76616c6964207369676e6174757265202773272076616c604482015261756560f01b606482015260840161059d565b600481600481111561204f5761204f6128cf565b036107745760405162461bcd60e51b815260206004820152602260248201527f45434453413a20696e76616c6964207369676e6174757265202776272076616c604482015261756560f01b606482015260840161059d565b6000807f7fffffffffffffffffffffffffffffff5d576e7357a4501ddfe92f46681b20a08311156120de575060009050600361218b565b8460ff16601b141580156120f657508460ff16601c14155b15612107575060009050600461218b565b6040805160008082526020820180845289905260ff881692820192909252606081018690526080810185905260019060a0016020604051602081039080840390855afa15801561215b573d6000803e3d6000fd5b5050604051601f1901519150506001600160a01b0381166121845760006001925092505061218b565b9150600090505b94509492505050565b6000806001600160ff1b038316816121b160ff86901c601b6121e3565b90506121bf878288856120a7565b935093505050935093915050565b634e487b7160e01b600052601160045260246000fd5b80820180821115611988576119886121cd565b6001600160a01b038116811461077457600080fd5b60006020828403121561221d57600080fd5b8135611d29816121f6565b60006020828403121561223a57600080fd5b5035919050565b634e487b7160e01b600052604160045260246000fd5b6000806040838503121561226a57600080fd5b8235612275816121f6565b9150602083013567ffffffffffffffff81111561229157600080fd5b8301601f810185136122a257600080fd5b803567ffffffffffffffff8111156122bc576122bc612241565b604051601f8201601f19908116603f0116810167ffffffffffffffff811182821017156122eb576122eb612241565b60405281815282820160200187101561230357600080fd5b816020840160208301376000602083830101528093505050509250929050565b6000806000806080858703121561233957600080fd5b8435612344816121f6565b93506020850135612354816121f6565b92506040850135612364816121f6565b9396929550929360600135925050565b60005b8381101561238f578181015183820152602001612377565b50506000910152565b600081518084526123b0816020860160208601612374565b601f01601f19169290920160200192915050565b60ff60f81b8816815260e0602082015260006123e360e0830189612398565b82810360408401526123f58189612398565b606084018890526001600160a01b038716608085015260a0840186905283810360c08501528451808252602080870193509091019060005b8181101561244b57835183526020938401939092019160010161242d565b50909b9a5050505050505050505050565b60008083601f84011261246e57600080fd5b50813567ffffffffffffffff81111561248657600080fd5b6020830191508360208260051b8501011115611eea57600080fd5b60008060008060008060008060008060e08b8d0312156124c057600080fd5b8a35995060208b013567ffffffffffffffff8111156124de57600080fd5b8b01601f81018d136124ef57600080fd5b803567ffffffffffffffff81111561250657600080fd5b8d602082840101111561251857600080fd5b6020919091019950975060408b013567ffffffffffffffff81111561253c57600080fd5b6125488d828e0161245c565b90985096505060608b013567ffffffffffffffff81111561256857600080fd5b6125748d828e0161245c565b9b9e9a9d50989b979a9699969760808101359760a0820135975060c09091013595509350505050565b81810381811115611988576119886121cd565b6020808252602c908201527f46756e6374696f6e206d7573742062652063616c6c6564207468726f7567682060408201526b19195b1959d85d1958d85b1b60a21b606082015260800190565b6020808252602c908201527f46756e6374696f6e206d7573742062652063616c6c6564207468726f7567682060408201526b6163746976652070726f787960a01b606082015260800190565b6020808252602e908201527f496e697469616c697a61626c653a20636f6e747261637420697320616c72656160408201526d191e481a5b9a5d1a585b1a5e995960921b606082015260800190565b8082028115828204841417611988576119886121cd565b848152606060208201528260608201528284608083013760006080848301015260006080601f19601f860116830101905082604083015295945050505050565b6000602082840312156126ff57600080fd5b5051919050565b6020808252602b908201527f496e697469616c697a61626c653a20636f6e7472616374206973206e6f74206960408201526a6e697469616c697a696e6760a81b606082015260800190565b60008261276e57634e487b7160e01b600052601260045260246000fd5b500490565b63ffffffff8181168382160290811690818114612792576127926121cd565b5092915050565b634e487b7160e01b600052603260045260246000fd5b63ffffffff8181168382160190811115611988576119886121cd565b60008235605e198336030181126127e157600080fd5b9190910192915050565b600063ffffffff821663ffffffff8103612807576128076121cd565b60010192915050565b600181811c9082168061282457607f821691505b60208210810361284457634e487b7160e01b600052602260045260246000fd5b50919050565b6000808335601e1984360301811261286157600080fd5b83018035915067ffffffffffffffff82111561287c57600080fd5b602001915036819003821315611eea57600080fd5b6000600182016128a3576128a36121cd565b5060010190565b600082516127e1818460208701612374565b602081526000611d296020830184612398565b634e487b7160e01b600052602160045260246000fdfe360894a13ba1a3210667c828492db98dca3e2076cc3735a920a3ca505d382bbc416464726573733a206c6f772d6c6576656c2064656c65676174652063616c6c206661696c6564a264697066735822122090a1d6fcad9997e3c5ac984a30aeec025a6db9cab4577fbf39c254bebbdf9ec364736f6c634300081a0033","linkReferences":{}},"methodIdentifiers":{"UNLOCK_BLOCK_TIME()":"73e289d0","alignedLayerServiceManager()":"953ef807","batcherWallet()":"58b96e27","createNewTask(bytes32,string,bytes32[],(bytes,uint256,uint256)[],uint256,uint256,uint256)":"df5ffbc6","eip712Domain()":"84b0196e","initialize(address,address,address,bytes32)":"63acc14d","initializeNoncedVerificationDataTypeHash(bytes32)":"52be5629","lock()":"f83d08ba","noncedVerificationDataTypeHash()":"79225985","owner()":"8da5cb5b","pause()":"8456cb59","paused()":"5c975abb","proxiableUUID()":"52d1902d","renounceOwnership()":"715018a6","setNoncedVerificationDataTypeHash(bytes32)":"7cb3805a","transferOwnership(address)":"f2fde38b","unlock()":"a69df4b5","unpause()":"3f4ba83a","upgradeTo(address)":"3659cfe6","upgradeToAndCall(address,bytes)":"4f1ef286","userData(address)":"c8910913","user_balances(address)":"2df4e21e","user_nonces(address)":"17d89c4e","user_unlock_block(address)":"4d5431ea","withdraw(uint256)":"2e1a7d4d"},"id":184}