{"abi":[{"type":"constructor","inputs":[],"stateMutability":"nonpayable"},{"type":"receive","stateMutability":"payable"},{"type":"function","name":"AlignedLayerServiceManager","inputs":[],"outputs":[{"name":"","type":"address","internalType":"contract IAlignedLayerServiceManager"}],"stateMutability":"view"},{"type":"function","name":"BatcherWallet","inputs":[],"outputs":[{"name":"","type":"address","internalType":"address"}],"stateMutability":"view"},{"type":"function","name":"UNLOCK_BLOCK_COUNT","inputs":[],"outputs":[{"name":"","type":"uint256","internalType":"uint256"}],"stateMutability":"view"},{"type":"function","name":"UserData","inputs":[{"name":"","type":"address","internalType":"address"}],"outputs":[{"name":"balance","type":"uint256","internalType":"uint256"},{"name":"unlockBlock","type":"uint256","internalType":"uint256"},{"name":"nonce","type":"uint256","internalType":"uint256"}],"stateMutability":"view"},{"type":"function","name":"createNewTask","inputs":[{"name":"batchMerkleRoot","type":"bytes32","internalType":"bytes32"},{"name":"batchDataPointer","type":"string","internalType":"string"},{"name":"leaves","type":"bytes32[]","internalType":"bytes32[]"},{"name":"signatures","type":"tuple[]","internalType":"struct BatcherPaymentService.SignatureData[]","components":[{"name":"signature","type":"bytes","internalType":"bytes"},{"name":"nonce","type":"uint256","internalType":"uint256"},{"name":"maxFee","type":"uint256","internalType":"uint256"}]},{"name":"gasForAggregator","type":"uint256","internalType":"uint256"},{"name":"gasPerProof","type":"uint256","internalType":"uint256"}],"outputs":[],"stateMutability":"nonpayable"},{"type":"function","name":"initialize","inputs":[{"name":"_AlignedLayerServiceManager","type":"address","internalType":"contract IAlignedLayerServiceManager"},{"name":"_BatcherPaymentServiceOwner","type":"address","internalType":"address"},{"name":"_BatcherWallet","type":"address","internalType":"address"}],"outputs":[],"stateMutability":"nonpayable"},{"type":"function","name":"lock","inputs":[],"outputs":[],"stateMutability":"nonpayable"},{"type":"function","name":"owner","inputs":[],"outputs":[{"name":"","type":"address","internalType":"address"}],"stateMutability":"view"},{"type":"function","name":"pause","inputs":[],"outputs":[],"stateMutability":"nonpayable"},{"type":"function","name":"paused","inputs":[],"outputs":[{"name":"","type":"bool","internalType":"bool"}],"stateMutability":"view"},{"type":"function","name":"proxiableUUID","inputs":[],"outputs":[{"name":"","type":"bytes32","internalType":"bytes32"}],"stateMutability":"view"},{"type":"function","name":"renounceOwnership","inputs":[],"outputs":[],"stateMutability":"nonpayable"},{"type":"function","name":"transferOwnership","inputs":[{"name":"newOwner","type":"address","internalType":"address"}],"outputs":[],"stateMutability":"nonpayable"},{"type":"function","name":"unlock","inputs":[],"outputs":[],"stateMutability":"nonpayable"},{"type":"function","name":"unpause","inputs":[],"outputs":[],"stateMutability":"nonpayable"},{"type":"function","name":"upgradeTo","inputs":[{"name":"newImplementation","type":"address","internalType":"address"}],"outputs":[],"stateMutability":"nonpayable"},{"type":"function","name":"upgradeToAndCall","inputs":[{"name":"newImplementation","type":"address","internalType":"address"},{"name":"data","type":"bytes","internalType":"bytes"}],"outputs":[],"stateMutability":"payable"},{"type":"function","name":"user_balances","inputs":[{"name":"account","type":"address","internalType":"address"}],"outputs":[{"name":"","type":"uint256","internalType":"uint256"}],"stateMutability":"view"},{"type":"function","name":"user_nonces","inputs":[{"name":"account","type":"address","internalType":"address"}],"outputs":[{"name":"","type":"uint256","internalType":"uint256"}],"stateMutability":"view"},{"type":"function","name":"user_unlock_block","inputs":[{"name":"account","type":"address","internalType":"address"}],"outputs":[{"name":"","type":"uint256","internalType":"uint256"}],"stateMutability":"view"},{"type":"function","name":"withdraw","inputs":[{"name":"amount","type":"uint256","internalType":"uint256"}],"outputs":[],"stateMutability":"nonpayable"},{"type":"event","name":"AdminChanged","inputs":[{"name":"previousAdmin","type":"address","indexed":false,"internalType":"address"},{"name":"newAdmin","type":"address","indexed":false,"internalType":"address"}],"anonymous":false},{"type":"event","name":"BalanceLocked","inputs":[{"name":"user","type":"address","indexed":true,"internalType":"address"}],"anonymous":false},{"type":"event","name":"BalanceUnlocked","inputs":[{"name":"user","type":"address","indexed":true,"internalType":"address"},{"name":"unlockBlock","type":"uint256","indexed":false,"internalType":"uint256"}],"anonymous":false},{"type":"event","name":"BeaconUpgraded","inputs":[{"name":"beacon","type":"address","indexed":true,"internalType":"address"}],"anonymous":false},{"type":"event","name":"FundsWithdrawn","inputs":[{"name":"recipient","type":"address","indexed":true,"internalType":"address"},{"name":"amount","type":"uint256","indexed":false,"internalType":"uint256"}],"anonymous":false},{"type":"event","name":"Initialized","inputs":[{"name":"version","type":"uint8","indexed":false,"internalType":"uint8"}],"anonymous":false},{"type":"event","name":"OwnershipTransferred","inputs":[{"name":"previousOwner","type":"address","indexed":true,"internalType":"address"},{"name":"newOwner","type":"address","indexed":true,"internalType":"address"}],"anonymous":false},{"type":"event","name":"Paused","inputs":[{"name":"account","type":"address","indexed":false,"internalType":"address"}],"anonymous":false},{"type":"event","name":"PaymentReceived","inputs":[{"name":"sender","type":"address","indexed":true,"internalType":"address"},{"name":"amount","type":"uint256","indexed":false,"internalType":"uint256"}],"anonymous":false},{"type":"event","name":"TaskCreated","inputs":[{"name":"batchMerkleRoot","type":"bytes32","indexed":true,"internalType":"bytes32"},{"name":"batchDataPointer","type":"string","indexed":false,"internalType":"string"}],"anonymous":false},{"type":"event","name":"Unpaused","inputs":[{"name":"account","type":"address","indexed":false,"internalType":"address"}],"anonymous":false},{"type":"event","name":"Upgraded","inputs":[{"name":"implementation","type":"address","indexed":true,"internalType":"address"}],"anonymous":false}],"bytecode":{"object":"0x60a0604052306080523480156200001557600080fd5b506200002062000026565b620000e8565b600054610100900460ff1615620000935760405162461bcd60e51b815260206004820152602760248201527f496e697469616c697a61626c653a20636f6e747261637420697320696e697469604482015266616c697a696e6760c81b606482015260840160405180910390fd5b60005460ff9081161015620000e6576000805460ff191660ff9081179091556040519081527f7f26b83ff96e1f2b6a682f133852f6798a09c465da95921460cefb38474024989060200160405180910390a15b565b608051612536620001206000396000818161060101528181610641015281816106f30152818161073301526107c601526125366000f3fe60806040526004361061012e5760003560e01c8063715018a6116100ab578063b57082301161006f578063b5708230146103cd578063c0c53b8b146103ed578063d3c7f8331461040d578063d5453ac61461042d578063f2fde38b1461044d578063f83d08ba1461046d57600080fd5b8063715018a6146103055780638456cb591461031a5780638da5cb5b1461032f5780639907e0ab14610361578063a69df4b5146103b857600080fd5b80634d5431ea116100f25780634d5431ea1461026c5780634f1ef286146102a557806352d1902d146102b85780635a3f631a146102cd5780635c975abb146102e257600080fd5b806317d89c4e146101935780632df4e21e146101df5780632e1a7d4d146102155780633659cfe6146102375780633f4ba83a1461025757600080fd5b3661018e5733600090815260fd602052604081208054349290610152908490611ebe565b909155505060405134815233907f6ef95f06320e7a25a04a175ca677b7052bdd97131872c2192525a629f51be7709060200160405180910390a2005b600080fd5b34801561019f57600080fd5b506101cc6101ae366004611eeb565b6001600160a01b0316600090815260fd602052604090206002015490565b6040519081526020015b60405180910390f35b3480156101eb57600080fd5b506101cc6101fa366004611eeb565b6001600160a01b0316600090815260fd602052604090205490565b34801561022157600080fd5b50610235610230366004611f08565b610482565b005b34801561024357600080fd5b50610235610252366004611eeb565b6105f6565b34801561026357600080fd5b506102356106d6565b34801561027857600080fd5b506101cc610287366004611eeb565b6001600160a01b0316600090815260fd602052604090206001015490565b6102356102b3366004611f37565b6106e8565b3480156102c457600080fd5b506101cc6107b9565b3480156102d957600080fd5b506101cc606481565b3480156102ee57600080fd5b5060655460ff1660405190151581526020016101d6565b34801561031157600080fd5b5061023561086c565b34801561032657600080fd5b5061023561087e565b34801561033b57600080fd5b506033546001600160a01b03165b6040516001600160a01b0390911681526020016101d6565b34801561036d57600080fd5b5061039d61037c366004611eeb565b60fd6020526000908152604090208054600182015460029092015490919083565b604080519384526020840192909252908201526060016101d6565b3480156103c457600080fd5b5061023561088e565b3480156103d957600080fd5b5060fc54610349906001600160a01b031681565b3480156103f957600080fd5b50610235610408366004611ffb565b61094f565b34801561041957600080fd5b5060fb54610349906001600160a01b031681565b34801561043957600080fd5b5061023561044836600461208b565b610aa4565b34801561045957600080fd5b50610235610468366004611eeb565b610e79565b34801561047957600080fd5b50610235610eef565b61048a610f90565b33600090815260fd6020526040902080548211156104ef5760405162461bcd60e51b815260206004820152601e60248201527f50617965722068617320696e73756666696369656e742062616c616e6365000060448201526064015b60405180910390fd5b600181015415801590610506575043816001015411155b6105455760405162461bcd60e51b815260206004820152601060248201526f119d5b991cc8185c99481b1bd8dad95960821b60448201526064016104e6565b81816000016000828254610559919061216f565b909155505060006001820181905560405133917fc5f84593e7086c66a205abab7ee44e1a8e6db58e50bf18ca46cb8239118b5ecd91a2604051339083156108fc029084906000818181858888f193505050501580156105bc573d6000803e3d6000fd5b5060405182815233907feaff4b37086828766ad3268786972c0cd24259d4c87a80f9d3963a3c3d999b0d9060200160405180910390a25050565b306001600160a01b037f000000000000000000000000000000000000000000000000000000000000000016141561063f5760405162461bcd60e51b81526004016104e690612186565b7f00000000000000000000000000000000000000000000000000000000000000006001600160a01b03166106886000805160206124ba833981519152546001600160a01b031690565b6001600160a01b0316146106ae5760405162461bcd60e51b81526004016104e6906121d2565b6106b781610fd6565b604080516000808252602082019092526106d391839190610fde565b50565b6106de61114e565b6106e66111a8565b565b306001600160a01b037f00000000000000000000000000000000000000000000000000000000000000001614156107315760405162461bcd60e51b81526004016104e690612186565b7f00000000000000000000000000000000000000000000000000000000000000006001600160a01b031661077a6000805160206124ba833981519152546001600160a01b031690565b6001600160a01b0316146107a05760405162461bcd60e51b81526004016104e6906121d2565b6107a982610fd6565b6107b582826001610fde565b5050565b6000306001600160a01b037f000000000000000000000000000000000000000000000000000000000000000016146108595760405162461bcd60e51b815260206004820152603860248201527f555550535570677261646561626c653a206d757374206e6f742062652063616c60448201527f6c6564207468726f7567682064656c656761746563616c6c000000000000000060648201526084016104e6565b506000805160206124ba83398151915290565b61087461114e565b6106e660006111fa565b61088661114e565b6106e661124c565b610896610f90565b33600090815260fd60205260409020546108f25760405162461bcd60e51b815260206004820152601b60248201527f5573657220686173206e6f2066756e647320746f20756e6c6f636b000000000060448201526064016104e6565b6108fd606443611ebe565b33600081815260fd6020526040908190206001018390555190917f43e8fb9d4f009c90c55a3fa108b177b794704d61af7af6f6512db7883f8ed8439161094591815260200190565b60405180910390a2565b600054610100900460ff161580801561096f5750600054600160ff909116105b806109895750303b158015610989575060005460ff166001145b6109ec5760405162461bcd60e51b815260206004820152602e60248201527f496e697469616c697a61626c653a20636f6e747261637420697320616c72656160448201526d191e481a5b9a5d1a585b1a5e995960921b60648201526084016104e6565b6000805460ff191660011790558015610a0f576000805461ff0019166101001790555b610a17611289565b610a1f6112b8565b610a28836111fa565b60fc80546001600160a01b038087166001600160a01b03199283161790925560fb8054928516929091169190911790558015610a9e576000805461ff0019169055604051600181527f7f26b83ff96e1f2b6a682f133852f6798a09c465da95921460cefb38474024989060200160405180910390a15b50505050565b60fb546001600160a01b03163314610b0a5760405162461bcd60e51b815260206004820152602360248201527f4f6e6c7920426174636865722063616e2063616c6c20746869732066756e637460448201526234b7b760e91b60648201526084016104e6565b610b12610f90565b84836000610b203a8661221e565b90506000610b2e3a8661221e565b905060008411610b765760405162461bcd60e51b8152602060048201526013602482015272139bc81b19585d995cc81cdd589b5a5d1d1959606a1b60448201526064016104e6565b60008311610bc65760405162461bcd60e51b815260206004820152601d60248201527f4e6f2070726f6f66207375626d6974746572207369676e61747572657300000060448201526064016104e6565b82841015610c0a5760405162461bcd60e51b81526020600482015260116024820152704e6f7420656e6f756768206c656176657360781b60448201526064016104e6565b610c1560018561216f565b841615610c6e5760405162461bcd60e51b815260206004820152602160248201527f4c6561766573206c656e677468206973206e6f74206120706f776572206f66206044820152601960f91b60648201526084016104e6565b60008211610cb65760405162461bcd60e51b815260206004820152601560248201527427379033b0b9903337b91030b3b3b932b3b0ba37b960591b60448201526064016104e6565b60008111610cf95760405162461bcd60e51b815260206004820152601060248201526f27379033b0b9903832b910383937b7b360811b60448201526064016104e6565b81610d04848361221e565b11610d5d5760405162461bcd60e51b8152602060048201526024808201527f4e6f7420656e6f7567682067617320746f20706179207468652061676772656760448201526330ba37b960e11b60648201526084016104e6565b610d6b8a8a8f8b8b866112df565b60fc60009054906101000a90046001600160a01b03166001600160a01b0316635c008994838f8f8f6040518563ffffffff1660e01b8152600401610db193929190612266565b6000604051808303818588803b158015610dca57600080fd5b505af1158015610dde573d6000803e3d6000fd5b50505050508c7f42e8b4c4d2caef98adf791972bad42982fe6df907c366fc36f9e0e1e2d29de4e8d8d604051610e15929190612280565b60405180910390a260fb546001600160a01b03166108fc83610e37868561221e565b610e41919061216f565b6040518115909202916000818181858888f19350505050158015610e69573d6000803e3d6000fd5b5050505050505050505050505050565b610e8161114e565b6001600160a01b038116610ee65760405162461bcd60e51b815260206004820152602660248201527f4f776e61626c653a206e6577206f776e657220697320746865207a65726f206160448201526564647265737360d01b60648201526084016104e6565b6106d3816111fa565b610ef7610f90565b33600090815260fd6020526040902054610f535760405162461bcd60e51b815260206004820152601960248201527f5573657220686173206e6f2066756e647320746f206c6f636b0000000000000060448201526064016104e6565b33600081815260fd6020526040808220600101829055517fc5f84593e7086c66a205abab7ee44e1a8e6db58e50bf18ca46cb8239118b5ecd9190a2565b60655460ff16156106e65760405162461bcd60e51b815260206004820152601060248201526f14185d5cd8589b194e881c185d5cd95960821b60448201526064016104e6565b6106d361114e565b7f4910fdfa16fed3260ed0e7147f7cc6da11a60208b5b9406d12a635614ffd91435460ff1615611016576110118361166c565b505050565b826001600160a01b03166352d1902d6040518163ffffffff1660e01b8152600401602060405180830381865afa925050508015611070575060408051601f3d908101601f1916820190925261106d9181019061229c565b60015b6110d35760405162461bcd60e51b815260206004820152602e60248201527f45524331393637557067726164653a206e657720696d706c656d656e7461746960448201526d6f6e206973206e6f74205555505360901b60648201526084016104e6565b6000805160206124ba83398151915281146111425760405162461bcd60e51b815260206004820152602960248201527f45524331393637557067726164653a20756e737570706f727465642070726f786044820152681a58589b195555525160ba1b60648201526084016104e6565b50611011838383611708565b6033546001600160a01b031633146106e65760405162461bcd60e51b815260206004820181905260248201527f4f776e61626c653a2063616c6c6572206973206e6f7420746865206f776e657260448201526064016104e6565b6111b061172d565b6065805460ff191690557f5db9ee0a495bf2e6ff9c91a7834c1ba4fdd244a5e8aa4e537bd38aeae4b073aa335b6040516001600160a01b03909116815260200160405180910390a1565b603380546001600160a01b038381166001600160a01b0319831681179093556040519116919082907f8be0079c531659141344cd1fd0a4f28419497f9722a3daafe3b4186f6b6457e090600090a35050565b611254610f90565b6065805460ff191660011790557f62e78cea01bee320cd4e420270b5ea74000d11b0c9f74754ebdbfc544b05a2586111dd3390565b600054610100900460ff166112b05760405162461bcd60e51b81526004016104e6906122b5565b6106e6611776565b600054610100900460ff166106e65760405162461bcd60e51b81526004016104e6906122b5565b60006112ec600287612300565b905060008167ffffffffffffffff81111561130957611309611f21565b604051908082528060200260200182016040528015611332578160200160208202803683370190505b50905060005b828163ffffffff16101561145d578888611353836002612322565b63ffffffff168181106113685761136861234e565b90506020020135898983600261137e9190612322565b611389906001612364565b63ffffffff1681811061139e5761139e61234e565b905060200201356040516020016113bf929190918252602082015260400190565b60405160208183030381529060405280519060200120828263ffffffff16815181106113ed576113ed61234e565b60200260200101818152505061144b89898363ffffffff168181106114145761141461234e565b9050602002013587878463ffffffff168181106114335761143361234e565b9050602002810190611445919061238c565b866117a6565b80611455816123ac565b915050611338565b63ffffffff81168511156114985761148689898363ffffffff168181106114145761141461234e565b80611490816123ac565b91505061145d565b6114a3600284612300565b92505b8215611596575060005b828163ffffffff16101561158457816114ca826002612322565b63ffffffff16815181106114e0576114e061234e565b6020026020010151828260026114f69190612322565b611501906001612364565b63ffffffff16815181106115175761151761234e565b6020026020010151604051602001611539929190918252602082015260400190565b60405160208183030381529060405280519060200120828263ffffffff16815181106115675761156761234e565b60209081029190910101528061157c816123ac565b9150506114b0565b61158f600284612300565b92506114a6565b60018814156116025786898960008181106115b3576115b361234e565b90506020020135146115fd5760405162461bcd60e51b8152602060048201526013602482015272125b9d985b1a59081b595c9adb19481c9bdbdd606a1b60448201526064016104e6565b611661565b86826000815181106116165761161661234e565b6020026020010151146116615760405162461bcd60e51b8152602060048201526013602482015272125b9d985b1a59081b595c9adb19481c9bdbdd606a1b60448201526064016104e6565b505050505050505050565b6001600160a01b0381163b6116d95760405162461bcd60e51b815260206004820152602d60248201527f455243313936373a206e657720696d706c656d656e746174696f6e206973206e60448201526c1bdd08184818dbdb9d1c9858dd609a1b60648201526084016104e6565b6000805160206124ba83398151915280546001600160a01b0319166001600160a01b0392909216919091179055565b611711836119bf565b60008251118061171e5750805b1561101157610a9e83836119ff565b60655460ff166106e65760405162461bcd60e51b815260206004820152601460248201527314185d5cd8589b194e881b9bdd081c185d5cd95960621b60448201526064016104e6565b600054610100900460ff1661179d5760405162461bcd60e51b81526004016104e6906122b5565b6106e6336111fa565b80826040013510156117fa5760405162461bcd60e51b815260206004820152601e60248201527f5369676e65722068617320696e73756666696369656e74206d6178466565000060448201526064016104e6565b6040805160208181018690528401358183015290830135606082015246608082015260009060a00160408051601f1981840301815291905280516020909101209050600061188861184b85806123d0565b8080601f0160208091040260200160405190810160405280939291908181526020018383808284376000920191909152508693925050611af39050565b90506001600160a01b0381166118d45760405162461bcd60e51b8152602060048201526011602482015270496e76616c6964207369676e617475726560781b60448201526064016104e6565b6001600160a01b038116600090815260fd6020908152604090912060028101549091860135146119365760405162461bcd60e51b815260206004820152600d60248201526c496e76616c6964204e6f6e636560981b60448201526064016104e6565b60028101805490600061194883612417565b9091555050805484111561199e5760405162461bcd60e51b815260206004820152601f60248201527f5369676e65722068617320696e73756666696369656e742062616c616e63650060448201526064016104e6565b838160000160008282546119b2919061216f565b9091555050505050505050565b6119c88161166c565b6040516001600160a01b038216907fbc7cd75a20ee27fd9adebab32041f755214dbc6bffa90cc0225b39da2e5c2d3b90600090a250565b60606001600160a01b0383163b611a675760405162461bcd60e51b815260206004820152602660248201527f416464726573733a2064656c65676174652063616c6c20746f206e6f6e2d636f6044820152651b9d1c9858dd60d21b60648201526084016104e6565b600080846001600160a01b031684604051611a82919061245e565b600060405180830381855af49150503d8060008114611abd576040519150601f19603f3d011682016040523d82523d6000602084013e611ac2565b606091505b5091509150611aea82826040518060600160405280602781526020016124da60279139611b17565b95945050505050565b6000806000611b028585611b57565b91509150611b0f81611bc7565b509392505050565b60608315611b26575081611b50565b825115611b365782518084602001fd5b8160405162461bcd60e51b81526004016104e69190612470565b9392505050565b600080825160411415611b8e5760208301516040840151606085015160001a611b8287828585611d82565b94509450505050611bc0565b825160401415611bb85760208301516040840151611bad868383611e6f565b935093505050611bc0565b506000905060025b9250929050565b6000816004811115611bdb57611bdb6124a3565b1415611be45750565b6001816004811115611bf857611bf86124a3565b1415611c465760405162461bcd60e51b815260206004820152601860248201527f45434453413a20696e76616c6964207369676e6174757265000000000000000060448201526064016104e6565b6002816004811115611c5a57611c5a6124a3565b1415611ca85760405162461bcd60e51b815260206004820152601f60248201527f45434453413a20696e76616c6964207369676e6174757265206c656e6774680060448201526064016104e6565b6003816004811115611cbc57611cbc6124a3565b1415611d155760405162461bcd60e51b815260206004820152602260248201527f45434453413a20696e76616c6964207369676e6174757265202773272076616c604482015261756560f01b60648201526084016104e6565b6004816004811115611d2957611d296124a3565b14156106d35760405162461bcd60e51b815260206004820152602260248201527f45434453413a20696e76616c6964207369676e6174757265202776272076616c604482015261756560f01b60648201526084016104e6565b6000807f7fffffffffffffffffffffffffffffff5d576e7357a4501ddfe92f46681b20a0831115611db95750600090506003611e66565b8460ff16601b14158015611dd157508460ff16601c14155b15611de25750600090506004611e66565b6040805160008082526020820180845289905260ff881692820192909252606081018690526080810185905260019060a0016020604051602081039080840390855afa158015611e36573d6000803e3d6000fd5b5050604051601f1901519150506001600160a01b038116611e5f57600060019250925050611e66565b9150600090505b94509492505050565b6000806001600160ff1b03831681611e8c60ff86901c601b611ebe565b9050611e9a87828885611d82565b935093505050935093915050565b634e487b7160e01b600052601160045260246000fd5b60008219821115611ed157611ed1611ea8565b500190565b6001600160a01b03811681146106d357600080fd5b600060208284031215611efd57600080fd5b8135611b5081611ed6565b600060208284031215611f1a57600080fd5b5035919050565b634e487b7160e01b600052604160045260246000fd5b60008060408385031215611f4a57600080fd5b8235611f5581611ed6565b9150602083013567ffffffffffffffff80821115611f7257600080fd5b818501915085601f830112611f8657600080fd5b813581811115611f9857611f98611f21565b604051601f8201601f19908116603f01168101908382118183101715611fc057611fc0611f21565b81604052828152886020848701011115611fd957600080fd5b8260208601602083013760006020848301015280955050505050509250929050565b60008060006060848603121561201057600080fd5b833561201b81611ed6565b9250602084013561202b81611ed6565b9150604084013561203b81611ed6565b809150509250925092565b60008083601f84011261205857600080fd5b50813567ffffffffffffffff81111561207057600080fd5b6020830191508360208260051b8501011115611bc057600080fd5b600080600080600080600080600060c08a8c0312156120a957600080fd5b8935985060208a013567ffffffffffffffff808211156120c857600080fd5b818c0191508c601f8301126120dc57600080fd5b8135818111156120eb57600080fd5b8d60208285010111156120fd57600080fd5b602083019a508099505060408c013591508082111561211b57600080fd5b6121278d838e01612046565b909850965060608c013591508082111561214057600080fd5b5061214d8c828d01612046565b9a9d999c50979a96999598959660808101359660a09091013595509350505050565b60008282101561218157612181611ea8565b500390565b6020808252602c908201527f46756e6374696f6e206d7573742062652063616c6c6564207468726f7567682060408201526b19195b1959d85d1958d85b1b60a21b606082015260800190565b6020808252602c908201527f46756e6374696f6e206d7573742062652063616c6c6564207468726f7567682060408201526b6163746976652070726f787960a01b606082015260800190565b600081600019048311821515161561223857612238611ea8565b500290565b81835281816020850137506000828201602090810191909152601f909101601f19169091010190565b838152604060208201526000611aea60408301848661223d565b60208152600061229460208301848661223d565b949350505050565b6000602082840312156122ae57600080fd5b5051919050565b6020808252602b908201527f496e697469616c697a61626c653a20636f6e7472616374206973206e6f74206960408201526a6e697469616c697a696e6760a81b606082015260800190565b60008261231d57634e487b7160e01b600052601260045260246000fd5b500490565b600063ffffffff8083168185168183048111821515161561234557612345611ea8565b02949350505050565b634e487b7160e01b600052603260045260246000fd5b600063ffffffff80831681851680830382111561238357612383611ea8565b01949350505050565b60008235605e198336030181126123a257600080fd5b9190910192915050565b600063ffffffff808316818114156123c6576123c6611ea8565b6001019392505050565b6000808335601e198436030181126123e757600080fd5b83018035915067ffffffffffffffff82111561240257600080fd5b602001915036819003821315611bc057600080fd5b600060001982141561242b5761242b611ea8565b5060010190565b60005b8381101561244d578181015183820152602001612435565b83811115610a9e5750506000910152565b600082516123a2818460208701612432565b602081526000825180602084015261248f816040850160208701612432565b601f01601f19169190910160400192915050565b634e487b7160e01b600052602160045260246000fdfe360894a13ba1a3210667c828492db98dca3e2076cc3735a920a3ca505d382bbc416464726573733a206c6f772d6c6576656c2064656c65676174652063616c6c206661696c6564a2646970667358221220b8bdaf66ffe783299b965b699fc0d11bffded01607252e0bfc32a948ac7601c764736f6c634300080c0033","linkReferences":{}},"methodIdentifiers":{"AlignedLayerServiceManager()":"b5708230","BatcherWallet()":"d3c7f833","UNLOCK_BLOCK_COUNT()":"5a3f631a","UserData(address)":"9907e0ab","createNewTask(bytes32,string,bytes32[],(bytes,uint256,uint256)[],uint256,uint256)":"d5453ac6","initialize(address,address,address)":"c0c53b8b","lock()":"f83d08ba","owner()":"8da5cb5b","pause()":"8456cb59","paused()":"5c975abb","proxiableUUID()":"52d1902d","renounceOwnership()":"715018a6","transferOwnership(address)":"f2fde38b","unlock()":"a69df4b5","unpause()":"3f4ba83a","upgradeTo(address)":"3659cfe6","upgradeToAndCall(address,bytes)":"4f1ef286","user_balances(address)":"2df4e21e","user_nonces(address)":"17d89c4e","user_unlock_block(address)":"4d5431ea","withdraw(uint256)":"2e1a7d4d"},"id":124}