{"abi":[{"type":"constructor","inputs":[],"stateMutability":"nonpayable"},{"type":"receive","stateMutability":"payable"},{"type":"function","name":"AlignedLayerServiceManager","inputs":[],"outputs":[{"name":"","type":"address","internalType":"address"}],"stateMutability":"view"},{"type":"function","name":"BatcherWallet","inputs":[],"outputs":[{"name":"","type":"address","internalType":"address"}],"stateMutability":"view"},{"type":"function","name":"UNLOCK_BLOCK_COUNT","inputs":[],"outputs":[{"name":"","type":"uint256","internalType":"uint256"}],"stateMutability":"view"},{"type":"function","name":"UserData","inputs":[{"name":"","type":"address","internalType":"address"}],"outputs":[{"name":"balance","type":"uint256","internalType":"uint256"},{"name":"unlockBlock","type":"uint256","internalType":"uint256"},{"name":"nonce","type":"uint256","internalType":"uint256"}],"stateMutability":"view"},{"type":"function","name":"checkMerkleRootAndVerifySignatures","inputs":[{"name":"leaves","type":"bytes32[]","internalType":"bytes32[]"},{"name":"batchMerkleRoot","type":"bytes32","internalType":"bytes32"},{"name":"signatures","type":"tuple[]","internalType":"struct BatcherPaymentService.SignatureData[]","components":[{"name":"v","type":"uint8","internalType":"uint8"},{"name":"r","type":"bytes32","internalType":"bytes32"},{"name":"s","type":"bytes32","internalType":"bytes32"},{"name":"nonce","type":"uint256","internalType":"uint256"}]},{"name":"feePerProof","type":"uint256","internalType":"uint256"}],"outputs":[],"stateMutability":"nonpayable"},{"type":"function","name":"createNewTask","inputs":[{"name":"batchMerkleRoot","type":"bytes32","internalType":"bytes32"},{"name":"batchDataPointer","type":"string","internalType":"string"},{"name":"leaves","type":"bytes32[]","internalType":"bytes32[]"},{"name":"signatures","type":"tuple[]","internalType":"struct BatcherPaymentService.SignatureData[]","components":[{"name":"v","type":"uint8","internalType":"uint8"},{"name":"r","type":"bytes32","internalType":"bytes32"},{"name":"s","type":"bytes32","internalType":"bytes32"},{"name":"nonce","type":"uint256","internalType":"uint256"}]},{"name":"gasForAggregator","type":"uint256","internalType":"uint256"},{"name":"gasPerProof","type":"uint256","internalType":"uint256"}],"outputs":[],"stateMutability":"nonpayable"},{"type":"function","name":"initialize","inputs":[{"name":"_AlignedLayerServiceManager","type":"address","internalType":"address"},{"name":"_BatcherPaymentServiceOwner","type":"address","internalType":"address"},{"name":"_BatcherWallet","type":"address","internalType":"address"}],"outputs":[],"stateMutability":"nonpayable"},{"type":"function","name":"lock","inputs":[],"outputs":[],"stateMutability":"nonpayable"},{"type":"function","name":"owner","inputs":[],"outputs":[{"name":"","type":"address","internalType":"address"}],"stateMutability":"view"},{"type":"function","name":"pause","inputs":[],"outputs":[],"stateMutability":"nonpayable"},{"type":"function","name":"paused","inputs":[],"outputs":[{"name":"","type":"bool","internalType":"bool"}],"stateMutability":"view"},{"type":"function","name":"proxiableUUID","inputs":[],"outputs":[{"name":"","type":"bytes32","internalType":"bytes32"}],"stateMutability":"view"},{"type":"function","name":"renounceOwnership","inputs":[],"outputs":[],"stateMutability":"nonpayable"},{"type":"function","name":"transferOwnership","inputs":[{"name":"newOwner","type":"address","internalType":"address"}],"outputs":[],"stateMutability":"nonpayable"},{"type":"function","name":"unlock","inputs":[],"outputs":[],"stateMutability":"nonpayable"},{"type":"function","name":"unpause","inputs":[],"outputs":[],"stateMutability":"nonpayable"},{"type":"function","name":"upgradeTo","inputs":[{"name":"newImplementation","type":"address","internalType":"address"}],"outputs":[],"stateMutability":"nonpayable"},{"type":"function","name":"upgradeToAndCall","inputs":[{"name":"newImplementation","type":"address","internalType":"address"},{"name":"data","type":"bytes","internalType":"bytes"}],"outputs":[],"stateMutability":"payable"},{"type":"function","name":"user_balances","inputs":[{"name":"account","type":"address","internalType":"address"}],"outputs":[{"name":"","type":"uint256","internalType":"uint256"}],"stateMutability":"view"},{"type":"function","name":"user_nonces","inputs":[{"name":"account","type":"address","internalType":"address"}],"outputs":[{"name":"","type":"uint256","internalType":"uint256"}],"stateMutability":"view"},{"type":"function","name":"user_unlock_block","inputs":[{"name":"account","type":"address","internalType":"address"}],"outputs":[{"name":"","type":"uint256","internalType":"uint256"}],"stateMutability":"view"},{"type":"function","name":"withdraw","inputs":[{"name":"amount","type":"uint256","internalType":"uint256"}],"outputs":[],"stateMutability":"nonpayable"},{"type":"event","name":"AdminChanged","inputs":[{"name":"previousAdmin","type":"address","indexed":false,"internalType":"address"},{"name":"newAdmin","type":"address","indexed":false,"internalType":"address"}],"anonymous":false},{"type":"event","name":"BeaconUpgraded","inputs":[{"name":"beacon","type":"address","indexed":true,"internalType":"address"}],"anonymous":false},{"type":"event","name":"FundsWithdrawn","inputs":[{"name":"recipient","type":"address","indexed":true,"internalType":"address"},{"name":"amount","type":"uint256","indexed":false,"internalType":"uint256"}],"anonymous":false},{"type":"event","name":"Initialized","inputs":[{"name":"version","type":"uint8","indexed":false,"internalType":"uint8"}],"anonymous":false},{"type":"event","name":"OwnershipTransferred","inputs":[{"name":"previousOwner","type":"address","indexed":true,"internalType":"address"},{"name":"newOwner","type":"address","indexed":true,"internalType":"address"}],"anonymous":false},{"type":"event","name":"Paused","inputs":[{"name":"account","type":"address","indexed":false,"internalType":"address"}],"anonymous":false},{"type":"event","name":"PaymentReceived","inputs":[{"name":"sender","type":"address","indexed":true,"internalType":"address"},{"name":"amount","type":"uint256","indexed":false,"internalType":"uint256"}],"anonymous":false},{"type":"event","name":"Unpaused","inputs":[{"name":"account","type":"address","indexed":false,"internalType":"address"}],"anonymous":false},{"type":"event","name":"Upgraded","inputs":[{"name":"implementation","type":"address","indexed":true,"internalType":"address"}],"anonymous":false}],"bytecode":{"object":"0x60a06040523060805234801561001457600080fd5b5061001d610022565b6100e2565b600054610100900460ff161561008e5760405162461bcd60e51b815260206004820152602760248201527f496e697469616c697a61626c653a20636f6e747261637420697320696e697469604482015266616c697a696e6760c81b606482015260840160405180910390fd5b60005460ff90811610156100e0576000805460ff191660ff9081179091556040519081527f7f26b83ff96e1f2b6a682f133852f6798a09c465da95921460cefb38474024989060200160405180910390a15b565b60805161216d6200011a6000396000818161097c015281816109bc01528181610a6e01528181610aae0152610b41015261216d6000f3fe6080604052600436106101395760003560e01c80635c975abb116100ab578063a69df4b51161006f578063a69df4b514610403578063b570823014610418578063c0c53b8b14610438578063d3c7f83314610458578063f2fde38b14610478578063f83d08ba1461049857600080fd5b80635c975abb1461032d578063715018a6146103505780638456cb59146103655780638da5cb5b1461037a5780639907e0ab146103ac57600080fd5b80633f4ba83a116100fd5780633f4ba83a146102825780634d5431ea146102975780634f1ef286146102d057806352d1902d146102e357806354831db6146102f85780635a3f631a1461031857600080fd5b806310e2ec271461019e57806317d89c4e146101c05780632df4e21e1461020c5780632e1a7d4d146102425780633659cfe61461026257600080fd5b366101995733600090815260fd60205260408120805434929061015d908490611aa5565b909155505060405134815233907f6ef95f06320e7a25a04a175ca677b7052bdd97131872c2192525a629f51be7709060200160405180910390a2005b600080fd5b3480156101aa57600080fd5b506101be6101b9366004611b4e565b6104ad565b005b3480156101cc57600080fd5b506101f96101db366004611bec565b6001600160a01b0316600090815260fd602052604090206002015490565b6040519081526020015b60405180910390f35b34801561021857600080fd5b506101f9610227366004611bec565b6001600160a01b0316600090815260fd602052604090205490565b34801561024e57600080fd5b506101be61025d366004611c07565b610833565b34801561026e57600080fd5b506101be61027d366004611bec565b610971565b34801561028e57600080fd5b506101be610a51565b3480156102a357600080fd5b506101f96102b2366004611bec565b6001600160a01b0316600090815260fd602052604090206001015490565b6101be6102de366004611c36565b610a63565b3480156102ef57600080fd5b506101f9610b34565b34801561030457600080fd5b506101be610313366004611cf8565b610be7565b34801561032457600080fd5b506101f9606481565b34801561033957600080fd5b5060655460ff166040519015158152602001610203565b34801561035c57600080fd5b506101be61100a565b34801561037157600080fd5b506101be61101c565b34801561038657600080fd5b506033546001600160a01b03165b6040516001600160a01b039091168152602001610203565b3480156103b857600080fd5b506103e86103c7366004611bec565b60fd6020526000908152604090208054600182015460029092015490919083565b60408051938452602084019290925290820152606001610203565b34801561040f57600080fd5b506101be61102c565b34801561042457600080fd5b5060fb54610394906001600160a01b031681565b34801561044457600080fd5b506101be610453366004611ddc565b6110b0565b34801561046457600080fd5b5060fc54610394906001600160a01b031681565b34801561048457600080fd5b506101be610493366004611bec565b611205565b3480156104a457600080fd5b506101be61127b565b60006104ba600287611e1f565b905060008167ffffffffffffffff8111156104d7576104d7611c20565b604051908082528060200260200182016040528015610500578160200160208202803683370190505b50905060005b828163ffffffff16101561061f578888610521836002611e41565b63ffffffff1681811061053657610536611e6d565b90506020020135898983600261054c9190611e41565b610557906001611e83565b63ffffffff1681811061056c5761056c611e6d565b9050602002013560405160200161058d929190918252602082015260400190565b60405160208183030381529060405280519060200120828263ffffffff16815181106105bb576105bb611e6d565b60200260200101818152505061060d89898363ffffffff168181106105e2576105e2611e6d565b9050602002013587878463ffffffff1681811061060157610601611e6d565b905060800201866112f4565b8061061781611eab565b915050610506565b63ffffffff811685111561065a5761064889898363ffffffff168181106105e2576105e2611e6d565b8061065281611eab565b91505061061f565b610665600284611e1f565b92505b8215610758575060005b828163ffffffff161015610746578161068c826002611e41565b63ffffffff16815181106106a2576106a2611e6d565b6020026020010151828260026106b89190611e41565b6106c3906001611e83565b63ffffffff16815181106106d9576106d9611e6d565b60200260200101516040516020016106fb929190918252602082015260400190565b60405160208183030381529060405280519060200120828263ffffffff168151811061072957610729611e6d565b60209081029190910101528061073e81611eab565b915050610672565b610751600284611e1f565b9250610668565b60018814156107c957868989600081811061077557610775611e6d565b90506020020135146107c45760405162461bcd60e51b8152602060048201526013602482015272125b9d985b1a59081b595c9adb19481c9bdbdd606a1b60448201526064015b60405180910390fd5b610828565b86826000815181106107dd576107dd611e6d565b6020026020010151146108285760405162461bcd60e51b8152602060048201526013602482015272125b9d985b1a59081b595c9adb19481c9bdbdd606a1b60448201526064016107bb565b505050505050505050565b61083b611492565b33600090815260fd60205260409020805482111561089b5760405162461bcd60e51b815260206004820152601e60248201527f50617965722068617320696e73756666696369656e742062616c616e6365000060448201526064016107bb565b6001810154158015906108b2575043816001015411155b6108f15760405162461bcd60e51b815260206004820152601060248201526f119d5b991cc8185c99481b1bd8dad95960821b60448201526064016107bb565b818160000160008282546109059190611ecf565b9091555050604051339083156108fc029084906000818181858888f19350505050158015610937573d6000803e3d6000fd5b5060405182815233907feaff4b37086828766ad3268786972c0cd24259d4c87a80f9d3963a3c3d999b0d9060200160405180910390a25050565b306001600160a01b037f00000000000000000000000000000000000000000000000000000000000000001614156109ba5760405162461bcd60e51b81526004016107bb90611ee6565b7f00000000000000000000000000000000000000000000000000000000000000006001600160a01b0316610a036000805160206120f1833981519152546001600160a01b031690565b6001600160a01b031614610a295760405162461bcd60e51b81526004016107bb90611f32565b610a32816114d8565b60408051600080825260208201909252610a4e918391906114e0565b50565b610a59611650565b610a616116aa565b565b306001600160a01b037f0000000000000000000000000000000000000000000000000000000000000000161415610aac5760405162461bcd60e51b81526004016107bb90611ee6565b7f00000000000000000000000000000000000000000000000000000000000000006001600160a01b0316610af56000805160206120f1833981519152546001600160a01b031690565b6001600160a01b031614610b1b5760405162461bcd60e51b81526004016107bb90611f32565b610b24826114d8565b610b30828260016114e0565b5050565b6000306001600160a01b037f00000000000000000000000000000000000000000000000000000000000000001614610bd45760405162461bcd60e51b815260206004820152603860248201527f555550535570677261646561626c653a206d757374206e6f742062652063616c60448201527f6c6564207468726f7567682064656c656761746563616c6c000000000000000060648201526084016107bb565b506000805160206120f183398151915290565b60fc546001600160a01b03163314610c4d5760405162461bcd60e51b815260206004820152602360248201527f4f6e6c7920426174636865722063616e2063616c6c20746869732066756e637460448201526234b7b760e91b60648201526084016107bb565b610c55611492565b84836000610c633a86611f7e565b90506000610c713a86611f7e565b905060008411610cb95760405162461bcd60e51b8152602060048201526013602482015272139bc81b19585d995cc81cdd589b5a5d1d1959606a1b60448201526064016107bb565b60008311610d095760405162461bcd60e51b815260206004820152601d60248201527f4e6f2070726f6f66207375626d6974746572207369676e61747572657300000060448201526064016107bb565b82841015610d4d5760405162461bcd60e51b81526020600482015260116024820152704e6f7420656e6f756768206c656176657360781b60448201526064016107bb565b610d58600185611ecf565b841615610db15760405162461bcd60e51b815260206004820152602160248201527f4c6561766573206c656e677468206973206e6f74206120706f776572206f66206044820152601960f91b60648201526084016107bb565b60008211610df95760405162461bcd60e51b815260206004820152601560248201527427379033b0b9903337b91030b3b3b932b3b0ba37b960591b60448201526064016107bb565b60008111610e3c5760405162461bcd60e51b815260206004820152601060248201526f27379033b0b9903832b910383937b7b360811b60448201526064016107bb565b81610e478483611f7e565b11610ea05760405162461bcd60e51b8152602060048201526024808201527f4e6f7420656e6f7567682067617320746f20706179207468652061676772656760448201526330ba37b960e11b60648201526084016107bb565b610eae8a8a8f8b8b866104ad565b600060fb60009054906101000a90046001600160a01b03166001600160a01b0316838f8f8f604051602401610ee593929190611f9d565b60408051601f198184030181529181526020820180516001600160e01b0316631700226560e21b17905251610f1a9190611fff565b60006040518083038185875af1925050503d8060008114610f57576040519150601f19603f3d011682016040523d82523d6000602084013e610f5c565b606091505b5050905080610fad5760405162461bcd60e51b815260206004820152601960248201527f6372656174654e65775461736b2063616c6c206661696c65640000000000000060448201526064016107bb565b60fc546001600160a01b03166108fc84610fc78786611f7e565b610fd19190611ecf565b6040518115909202916000818181858888f19350505050158015610ff9573d6000803e3d6000fd5b505050505050505050505050505050565b611012611650565b610a6160006116fc565b611024611650565b610a6161174e565b611034611492565b33600090815260fd60205260409020546110905760405162461bcd60e51b815260206004820152601b60248201527f5573657220686173206e6f2066756e647320746f20756e6c6f636b000000000060448201526064016107bb565b61109b606443611aa5565b33600090815260fd6020526040902060010155565b600054610100900460ff16158080156110d05750600054600160ff909116105b806110ea5750303b1580156110ea575060005460ff166001145b61114d5760405162461bcd60e51b815260206004820152602e60248201527f496e697469616c697a61626c653a20636f6e747261637420697320616c72656160448201526d191e481a5b9a5d1a585b1a5e995960921b60648201526084016107bb565b6000805460ff191660011790558015611170576000805461ff0019166101001790555b61117861178b565b6111806117ba565b611189836116fc565b60fb80546001600160a01b038087166001600160a01b03199283161790925560fc80549285169290911691909117905580156111ff576000805461ff0019169055604051600181527f7f26b83ff96e1f2b6a682f133852f6798a09c465da95921460cefb38474024989060200160405180910390a15b50505050565b61120d611650565b6001600160a01b0381166112725760405162461bcd60e51b815260206004820152602660248201527f4f776e61626c653a206e6577206f776e657220697320746865207a65726f206160448201526564647265737360d01b60648201526084016107bb565b610a4e816116fc565b611283611492565b33600090815260fd60205260409020546112df5760405162461bcd60e51b815260206004820152601960248201527f5573657220686173206e6f2066756e647320746f206c6f636b0000000000000060448201526064016107bb565b33600090815260fd6020526040812060010155565b6000838360600135604051602001611316929190918252602082015260400190565b6040516020818303038152906040528051906020012090506000600182856000016020810190611346919061201b565b604080516000815260208181018084529490945260ff9092168282015291870135606082015290860135608082015260a0016020604051602081039080840390855afa15801561139a573d6000803e3d6000fd5b505060408051601f1901516001600160a01b038116600090815260fd60205291909120600281015491935091506060860135146114095760405162461bcd60e51b815260206004820152600d60248201526c496e76616c6964204e6f6e636560981b60448201526064016107bb565b60028101805490600061141b8361203e565b909155505080548411156114715760405162461bcd60e51b815260206004820152601f60248201527f5369676e65722068617320696e73756666696369656e742062616c616e63650060448201526064016107bb565b838160000160008282546114859190611ecf565b9091555050505050505050565b60655460ff1615610a615760405162461bcd60e51b815260206004820152601060248201526f14185d5cd8589b194e881c185d5cd95960821b60448201526064016107bb565b610a4e611650565b7f4910fdfa16fed3260ed0e7147f7cc6da11a60208b5b9406d12a635614ffd91435460ff161561151857611513836117e1565b505050565b826001600160a01b03166352d1902d6040518163ffffffff1660e01b8152600401602060405180830381865afa925050508015611572575060408051601f3d908101601f1916820190925261156f91810190612059565b60015b6115d55760405162461bcd60e51b815260206004820152602e60248201527f45524331393637557067726164653a206e657720696d706c656d656e7461746960448201526d6f6e206973206e6f74205555505360901b60648201526084016107bb565b6000805160206120f183398151915281146116445760405162461bcd60e51b815260206004820152602960248201527f45524331393637557067726164653a20756e737570706f727465642070726f786044820152681a58589b195555525160ba1b60648201526084016107bb565b5061151383838361187d565b6033546001600160a01b03163314610a615760405162461bcd60e51b815260206004820181905260248201527f4f776e61626c653a2063616c6c6572206973206e6f7420746865206f776e657260448201526064016107bb565b6116b26118a2565b6065805460ff191690557f5db9ee0a495bf2e6ff9c91a7834c1ba4fdd244a5e8aa4e537bd38aeae4b073aa335b6040516001600160a01b03909116815260200160405180910390a1565b603380546001600160a01b038381166001600160a01b0319831681179093556040519116919082907f8be0079c531659141344cd1fd0a4f28419497f9722a3daafe3b4186f6b6457e090600090a35050565b611756611492565b6065805460ff191660011790557f62e78cea01bee320cd4e420270b5ea74000d11b0c9f74754ebdbfc544b05a2586116df3390565b600054610100900460ff166117b25760405162461bcd60e51b81526004016107bb90612072565b610a616118eb565b600054610100900460ff16610a615760405162461bcd60e51b81526004016107bb90612072565b6001600160a01b0381163b61184e5760405162461bcd60e51b815260206004820152602d60248201527f455243313936373a206e657720696d706c656d656e746174696f6e206973206e60448201526c1bdd08184818dbdb9d1c9858dd609a1b60648201526084016107bb565b6000805160206120f183398151915280546001600160a01b0319166001600160a01b0392909216919091179055565b6118868361191b565b6000825111806118935750805b15611513576111ff838361195b565b60655460ff16610a615760405162461bcd60e51b815260206004820152601460248201527314185d5cd8589b194e881b9bdd081c185d5cd95960621b60448201526064016107bb565b600054610100900460ff166119125760405162461bcd60e51b81526004016107bb90612072565b610a61336116fc565b611924816117e1565b6040516001600160a01b038216907fbc7cd75a20ee27fd9adebab32041f755214dbc6bffa90cc0225b39da2e5c2d3b90600090a250565b60606001600160a01b0383163b6119c35760405162461bcd60e51b815260206004820152602660248201527f416464726573733a2064656c65676174652063616c6c20746f206e6f6e2d636f6044820152651b9d1c9858dd60d21b60648201526084016107bb565b600080846001600160a01b0316846040516119de9190611fff565b600060405180830381855af49150503d8060008114611a19576040519150601f19603f3d011682016040523d82523d6000602084013e611a1e565b606091505b5091509150611a46828260405180606001604052806027815260200161211160279139611a4f565b95945050505050565b60608315611a5e575081611a88565b825115611a6e5782518084602001fd5b8160405162461bcd60e51b81526004016107bb91906120bd565b9392505050565b634e487b7160e01b600052601160045260246000fd5b60008219821115611ab857611ab8611a8f565b500190565b60008083601f840112611acf57600080fd5b50813567ffffffffffffffff811115611ae757600080fd5b6020830191508360208260051b8501011115611b0257600080fd5b9250929050565b60008083601f840112611b1b57600080fd5b50813567ffffffffffffffff811115611b3357600080fd5b6020830191508360208260071b8501011115611b0257600080fd5b60008060008060008060808789031215611b6757600080fd5b863567ffffffffffffffff80821115611b7f57600080fd5b611b8b8a838b01611abd565b9098509650602089013595506040890135915080821115611bab57600080fd5b50611bb889828a01611b09565b979a9699509497949695606090950135949350505050565b80356001600160a01b0381168114611be757600080fd5b919050565b600060208284031215611bfe57600080fd5b611a8882611bd0565b600060208284031215611c1957600080fd5b5035919050565b634e487b7160e01b600052604160045260246000fd5b60008060408385031215611c4957600080fd5b611c5283611bd0565b9150602083013567ffffffffffffffff80821115611c6f57600080fd5b818501915085601f830112611c8357600080fd5b813581811115611c9557611c95611c20565b604051601f8201601f19908116603f01168101908382118183101715611cbd57611cbd611c20565b81604052828152886020848701011115611cd657600080fd5b8260208601602083013760006020848301015280955050505050509250929050565b600080600080600080600080600060c08a8c031215611d1657600080fd5b8935985060208a013567ffffffffffffffff80821115611d3557600080fd5b818c0191508c601f830112611d4957600080fd5b813581811115611d5857600080fd5b8d6020828501011115611d6a57600080fd5b602083019a508099505060408c0135915080821115611d8857600080fd5b611d948d838e01611abd565b909850965060608c0135915080821115611dad57600080fd5b50611dba8c828d01611b09565b9a9d999c50979a96999598959660808101359660a09091013595509350505050565b600080600060608486031215611df157600080fd5b611dfa84611bd0565b9250611e0860208501611bd0565b9150611e1660408501611bd0565b90509250925092565b600082611e3c57634e487b7160e01b600052601260045260246000fd5b500490565b600063ffffffff80831681851681830481118215151615611e6457611e64611a8f565b02949350505050565b634e487b7160e01b600052603260045260246000fd5b600063ffffffff808316818516808303821115611ea257611ea2611a8f565b01949350505050565b600063ffffffff80831681811415611ec557611ec5611a8f565b6001019392505050565b600082821015611ee157611ee1611a8f565b500390565b6020808252602c908201527f46756e6374696f6e206d7573742062652063616c6c6564207468726f7567682060408201526b19195b1959d85d1958d85b1b60a21b606082015260800190565b6020808252602c908201527f46756e6374696f6e206d7573742062652063616c6c6564207468726f7567682060408201526b6163746976652070726f787960a01b606082015260800190565b6000816000190483118215151615611f9857611f98611a8f565b500290565b83815260406020820152816040820152818360608301376000818301606090810191909152601f909201601f1916010192915050565b60005b83811015611fee578181015183820152602001611fd6565b838111156111ff5750506000910152565b60008251612011818460208701611fd3565b9190910192915050565b60006020828403121561202d57600080fd5b813560ff81168114611a8857600080fd5b600060001982141561205257612052611a8f565b5060010190565b60006020828403121561206b57600080fd5b5051919050565b6020808252602b908201527f496e697469616c697a61626c653a20636f6e7472616374206973206e6f74206960408201526a6e697469616c697a696e6760a81b606082015260800190565b60208152600082518060208401526120dc816040850160208701611fd3565b601f01601f1916919091016040019291505056fe360894a13ba1a3210667c828492db98dca3e2076cc3735a920a3ca505d382bbc416464726573733a206c6f772d6c6576656c2064656c65676174652063616c6c206661696c6564a2646970667358221220682ec2268f99a6ae561db4d6f685812edc7b19ac9db30ea41786651811af857664736f6c634300080c0033","linkReferences":{}},"methodIdentifiers":{"AlignedLayerServiceManager()":"b5708230","BatcherWallet()":"d3c7f833","UNLOCK_BLOCK_COUNT()":"5a3f631a","UserData(address)":"9907e0ab","checkMerkleRootAndVerifySignatures(bytes32[],bytes32,(uint8,bytes32,bytes32,uint256)[],uint256)":"10e2ec27","createNewTask(bytes32,string,bytes32[],(uint8,bytes32,bytes32,uint256)[],uint256,uint256)":"54831db6","initialize(address,address,address)":"c0c53b8b","lock()":"f83d08ba","owner()":"8da5cb5b","pause()":"8456cb59","paused()":"5c975abb","proxiableUUID()":"52d1902d","renounceOwnership()":"715018a6","transferOwnership(address)":"f2fde38b","unlock()":"a69df4b5","unpause()":"3f4ba83a","upgradeTo(address)":"3659cfe6","upgradeToAndCall(address,bytes)":"4f1ef286","user_balances(address)":"2df4e21e","user_nonces(address)":"17d89c4e","user_unlock_block(address)":"4d5431ea","withdraw(uint256)":"2e1a7d4d"},"id":10}