{"abi":[{"type":"constructor","inputs":[],"stateMutability":"nonpayable"},{"type":"receive","stateMutability":"payable"},{"type":"function","name":"AlignedLayerServiceManager","inputs":[],"outputs":[{"name":"","type":"address","internalType":"address"}],"stateMutability":"view"},{"type":"function","name":"BatcherWallet","inputs":[],"outputs":[{"name":"","type":"address","internalType":"address"}],"stateMutability":"view"},{"type":"function","name":"UNLOCK_BLOCK_COUNT","inputs":[],"outputs":[{"name":"","type":"uint256","internalType":"uint256"}],"stateMutability":"view"},{"type":"function","name":"UserBalances","inputs":[{"name":"","type":"address","internalType":"address"}],"outputs":[{"name":"","type":"uint256","internalType":"uint256"}],"stateMutability":"view"},{"type":"function","name":"UserBalancesUnlockBlock","inputs":[{"name":"","type":"address","internalType":"address"}],"outputs":[{"name":"","type":"uint256","internalType":"uint256"}],"stateMutability":"view"},{"type":"function","name":"UserNonces","inputs":[{"name":"","type":"address","internalType":"address"}],"outputs":[{"name":"","type":"uint256","internalType":"uint256"}],"stateMutability":"view"},{"type":"function","name":"checkMerkleRootAndVerifySignatures","inputs":[{"name":"leaves","type":"bytes32[]","internalType":"bytes32[]"},{"name":"batchMerkleRoot","type":"bytes32","internalType":"bytes32"},{"name":"signatures","type":"tuple[]","internalType":"struct BatcherPaymentService.SignatureData[]","components":[{"name":"v","type":"uint8","internalType":"uint8"},{"name":"r","type":"bytes32","internalType":"bytes32"},{"name":"s","type":"bytes32","internalType":"bytes32"},{"name":"nonce","type":"uint256","internalType":"uint256"}]},{"name":"feePerProof","type":"uint256","internalType":"uint256"}],"outputs":[],"stateMutability":"nonpayable"},{"type":"function","name":"createNewTask","inputs":[{"name":"batchMerkleRoot","type":"bytes32","internalType":"bytes32"},{"name":"batchDataPointer","type":"string","internalType":"string"},{"name":"leaves","type":"bytes32[]","internalType":"bytes32[]"},{"name":"signatures","type":"tuple[]","internalType":"struct BatcherPaymentService.SignatureData[]","components":[{"name":"v","type":"uint8","internalType":"uint8"},{"name":"r","type":"bytes32","internalType":"bytes32"},{"name":"s","type":"bytes32","internalType":"bytes32"},{"name":"nonce","type":"uint256","internalType":"uint256"}]},{"name":"gasForAggregator","type":"uint256","internalType":"uint256"},{"name":"gasPerProof","type":"uint256","internalType":"uint256"}],"outputs":[],"stateMutability":"nonpayable"},{"type":"function","name":"initialize","inputs":[{"name":"_AlignedLayerServiceManager","type":"address","internalType":"address"},{"name":"_BatcherPaymentServiceOwner","type":"address","internalType":"address"},{"name":"_BatcherWallet","type":"address","internalType":"address"}],"outputs":[],"stateMutability":"nonpayable"},{"type":"function","name":"lock","inputs":[],"outputs":[],"stateMutability":"nonpayable"},{"type":"function","name":"owner","inputs":[],"outputs":[{"name":"","type":"address","internalType":"address"}],"stateMutability":"view"},{"type":"function","name":"pause","inputs":[],"outputs":[],"stateMutability":"nonpayable"},{"type":"function","name":"paused","inputs":[],"outputs":[{"name":"","type":"bool","internalType":"bool"}],"stateMutability":"view"},{"type":"function","name":"proxiableUUID","inputs":[],"outputs":[{"name":"","type":"bytes32","internalType":"bytes32"}],"stateMutability":"view"},{"type":"function","name":"renounceOwnership","inputs":[],"outputs":[],"stateMutability":"nonpayable"},{"type":"function","name":"transferOwnership","inputs":[{"name":"newOwner","type":"address","internalType":"address"}],"outputs":[],"stateMutability":"nonpayable"},{"type":"function","name":"unlock","inputs":[],"outputs":[],"stateMutability":"nonpayable"},{"type":"function","name":"unpause","inputs":[],"outputs":[],"stateMutability":"nonpayable"},{"type":"function","name":"upgradeTo","inputs":[{"name":"newImplementation","type":"address","internalType":"address"}],"outputs":[],"stateMutability":"nonpayable"},{"type":"function","name":"upgradeToAndCall","inputs":[{"name":"newImplementation","type":"address","internalType":"address"},{"name":"data","type":"bytes","internalType":"bytes"}],"outputs":[],"stateMutability":"payable"},{"type":"function","name":"withdraw","inputs":[{"name":"amount","type":"uint256","internalType":"uint256"}],"outputs":[],"stateMutability":"nonpayable"},{"type":"event","name":"AdminChanged","inputs":[{"name":"previousAdmin","type":"address","indexed":false,"internalType":"address"},{"name":"newAdmin","type":"address","indexed":false,"internalType":"address"}],"anonymous":false},{"type":"event","name":"BeaconUpgraded","inputs":[{"name":"beacon","type":"address","indexed":true,"internalType":"address"}],"anonymous":false},{"type":"event","name":"FundsWithdrawn","inputs":[{"name":"recipient","type":"address","indexed":true,"internalType":"address"},{"name":"amount","type":"uint256","indexed":false,"internalType":"uint256"}],"anonymous":false},{"type":"event","name":"Initialized","inputs":[{"name":"version","type":"uint8","indexed":false,"internalType":"uint8"}],"anonymous":false},{"type":"event","name":"OwnershipTransferred","inputs":[{"name":"previousOwner","type":"address","indexed":true,"internalType":"address"},{"name":"newOwner","type":"address","indexed":true,"internalType":"address"}],"anonymous":false},{"type":"event","name":"Paused","inputs":[{"name":"account","type":"address","indexed":false,"internalType":"address"}],"anonymous":false},{"type":"event","name":"PaymentReceived","inputs":[{"name":"sender","type":"address","indexed":true,"internalType":"address"},{"name":"amount","type":"uint256","indexed":false,"internalType":"uint256"}],"anonymous":false},{"type":"event","name":"Unpaused","inputs":[{"name":"account","type":"address","indexed":false,"internalType":"address"}],"anonymous":false},{"type":"event","name":"Upgraded","inputs":[{"name":"implementation","type":"address","indexed":true,"internalType":"address"}],"anonymous":false}],"bytecode":{"object":"0x60a06040523060805234801561001457600080fd5b5061001d610022565b6100e2565b600054610100900460ff161561008e5760405162461bcd60e51b815260206004820152602760248201527f496e697469616c697a61626c653a20636f6e747261637420697320696e697469604482015266616c697a696e6760c81b606482015260840160405180910390fd5b60005460ff90811610156100e0576000805460ff191660ff9081179091556040519081527f7f26b83ff96e1f2b6a682f133852f6798a09c465da95921460cefb38474024989060200160405180910390a15b565b60805161213b6200011a600039600081816109180152818161095801528181610a0a01528181610a4a0152610add015261213b6000f3fe60806040526004361061012e5760003560e01c8063715018a6116100ab578063a69df4b51161006f578063a69df4b514610380578063b570823014610395578063c0c53b8b146103b5578063d3c7f833146103d5578063f2fde38b146103f5578063f83d08ba1461041557600080fd5b8063715018a6146102ca57806377f3f782146102df5780638391ee381461030c5780638456cb59146103395780638da5cb5b1461034e57600080fd5b80634f1ef286116100f25780634f1ef2861461024a57806352d1902d1461025d57806354831db6146102725780635a3f631a146102925780635c975abb146102a757600080fd5b806310e2ec271461019357806325de0b09146101b55780632e1a7d4d146101f55780633659cfe6146102155780633f4ba83a1461023557600080fd5b3661018e5733600090815260fd602052604081208054349290610152908490611a73565b909155505060405134815233907f6ef95f06320e7a25a04a175ca677b7052bdd97131872c2192525a629f51be7709060200160405180910390a2005b600080fd5b34801561019f57600080fd5b506101b36101ae366004611b1c565b61042a565b005b3480156101c157600080fd5b506101e26101d0366004611bba565b60ff6020526000908152604090205481565b6040519081526020015b60405180910390f35b34801561020157600080fd5b506101b3610210366004611bd5565b6107b0565b34801561022157600080fd5b506101b3610230366004611bba565b61090d565b34801561024157600080fd5b506101b36109ed565b6101b3610258366004611c04565b6109ff565b34801561026957600080fd5b506101e2610ad0565b34801561027e57600080fd5b506101b361028d366004611cc6565b610b83565b34801561029e57600080fd5b506101e2606481565b3480156102b357600080fd5b5060655460ff1660405190151581526020016101ec565b3480156102d657600080fd5b506101b3610fa6565b3480156102eb57600080fd5b506101e26102fa366004611bba565b60fd6020526000908152604090205481565b34801561031857600080fd5b506101e2610327366004611bba565b60fe6020526000908152604090205481565b34801561034557600080fd5b506101b3610fb8565b34801561035a57600080fd5b506033546001600160a01b03165b6040516001600160a01b0390911681526020016101ec565b34801561038c57600080fd5b506101b3610fc8565b3480156103a157600080fd5b5060fb54610368906001600160a01b031681565b3480156103c157600080fd5b506101b36103d0366004611daa565b611049565b3480156103e157600080fd5b5060fc54610368906001600160a01b031681565b34801561040157600080fd5b506101b3610410366004611bba565b61119e565b34801561042157600080fd5b506101b3611214565b6000610437600287611ded565b905060008167ffffffffffffffff81111561045457610454611bee565b60405190808252806020026020018201604052801561047d578160200160208202803683370190505b50905060005b828163ffffffff16101561059c57888861049e836002611e0f565b63ffffffff168181106104b3576104b3611e3b565b9050602002013589898360026104c99190611e0f565b6104d4906001611e51565b63ffffffff168181106104e9576104e9611e3b565b9050602002013560405160200161050a929190918252602082015260400190565b60405160208183030381529060405280519060200120828263ffffffff168151811061053857610538611e3b565b60200260200101818152505061058a89898363ffffffff1681811061055f5761055f611e3b565b9050602002013587878463ffffffff1681811061057e5761057e611e3b565b9050608002018661128a565b8061059481611e79565b915050610483565b63ffffffff81168511156105d7576105c589898363ffffffff1681811061055f5761055f611e3b565b806105cf81611e79565b91505061059c565b6105e2600284611ded565b92505b82156106d5575060005b828163ffffffff1610156106c35781610609826002611e0f565b63ffffffff168151811061061f5761061f611e3b565b6020026020010151828260026106359190611e0f565b610640906001611e51565b63ffffffff168151811061065657610656611e3b565b6020026020010151604051602001610678929190918252602082015260400190565b60405160208183030381529060405280519060200120828263ffffffff16815181106106a6576106a6611e3b565b6020908102919091010152806106bb81611e79565b9150506105ef565b6106ce600284611ded565b92506105e5565b60018814156107465786898960008181106106f2576106f2611e3b565b90506020020135146107415760405162461bcd60e51b8152602060048201526013602482015272125b9d985b1a59081b595c9adb19481c9bdbdd606a1b60448201526064015b60405180910390fd5b6107a5565b868260008151811061075a5761075a611e3b565b6020026020010151146107a55760405162461bcd60e51b8152602060048201526013602482015272125b9d985b1a59081b595c9adb19481c9bdbdd606a1b6044820152606401610738565b505050505050505050565b6107b8611460565b33600090815260fd60205260409020548111156108175760405162461bcd60e51b815260206004820152601e60248201527f50617965722068617320696e73756666696369656e742062616c616e636500006044820152606401610738565b33600090815260fe602052604090205415801590610844575033600090815260fe60205260409020544310155b6108835760405162461bcd60e51b815260206004820152601060248201526f119d5b991cc8185c99481b1bd8dad95960821b6044820152606401610738565b33600090815260fd6020526040812080548392906108a2908490611e9d565b9091555050604051339082156108fc029083906000818181858888f193505050501580156108d4573d6000803e3d6000fd5b5060405181815233907feaff4b37086828766ad3268786972c0cd24259d4c87a80f9d3963a3c3d999b0d9060200160405180910390a250565b306001600160a01b037f00000000000000000000000000000000000000000000000000000000000000001614156109565760405162461bcd60e51b815260040161073890611eb4565b7f00000000000000000000000000000000000000000000000000000000000000006001600160a01b031661099f6000805160206120bf833981519152546001600160a01b031690565b6001600160a01b0316146109c55760405162461bcd60e51b815260040161073890611f00565b6109ce816114a6565b604080516000808252602082019092526109ea918391906114ae565b50565b6109f561161e565b6109fd611678565b565b306001600160a01b037f0000000000000000000000000000000000000000000000000000000000000000161415610a485760405162461bcd60e51b815260040161073890611eb4565b7f00000000000000000000000000000000000000000000000000000000000000006001600160a01b0316610a916000805160206120bf833981519152546001600160a01b031690565b6001600160a01b031614610ab75760405162461bcd60e51b815260040161073890611f00565b610ac0826114a6565b610acc828260016114ae565b5050565b6000306001600160a01b037f00000000000000000000000000000000000000000000000000000000000000001614610b705760405162461bcd60e51b815260206004820152603860248201527f555550535570677261646561626c653a206d757374206e6f742062652063616c60448201527f6c6564207468726f7567682064656c656761746563616c6c00000000000000006064820152608401610738565b506000805160206120bf83398151915290565b60fc546001600160a01b03163314610be95760405162461bcd60e51b815260206004820152602360248201527f4f6e6c7920426174636865722063616e2063616c6c20746869732066756e637460448201526234b7b760e91b6064820152608401610738565b610bf1611460565b84836000610bff3a86611f4c565b90506000610c0d3a86611f4c565b905060008411610c555760405162461bcd60e51b8152602060048201526013602482015272139bc81b19585d995cc81cdd589b5a5d1d1959606a1b6044820152606401610738565b60008311610ca55760405162461bcd60e51b815260206004820152601d60248201527f4e6f2070726f6f66207375626d6974746572207369676e6174757265730000006044820152606401610738565b82841015610ce95760405162461bcd60e51b81526020600482015260116024820152704e6f7420656e6f756768206c656176657360781b6044820152606401610738565b610cf4600185611e9d565b841615610d4d5760405162461bcd60e51b815260206004820152602160248201527f4c6561766573206c656e677468206973206e6f74206120706f776572206f66206044820152601960f91b6064820152608401610738565b60008211610d955760405162461bcd60e51b815260206004820152601560248201527427379033b0b9903337b91030b3b3b932b3b0ba37b960591b6044820152606401610738565b60008111610dd85760405162461bcd60e51b815260206004820152601060248201526f27379033b0b9903832b910383937b7b360811b6044820152606401610738565b81610de38483611f4c565b11610e3c5760405162461bcd60e51b8152602060048201526024808201527f4e6f7420656e6f7567682067617320746f20706179207468652061676772656760448201526330ba37b960e11b6064820152608401610738565b610e4a8a8a8f8b8b8661042a565b600060fb60009054906101000a90046001600160a01b03166001600160a01b0316838f8f8f604051602401610e8193929190611f6b565b60408051601f198184030181529181526020820180516001600160e01b0316631700226560e21b17905251610eb69190611fcd565b60006040518083038185875af1925050503d8060008114610ef3576040519150601f19603f3d011682016040523d82523d6000602084013e610ef8565b606091505b5050905080610f495760405162461bcd60e51b815260206004820152601960248201527f6372656174654e65775461736b2063616c6c206661696c6564000000000000006044820152606401610738565b60fc546001600160a01b03166108fc84610f638786611f4c565b610f6d9190611e9d565b6040518115909202916000818181858888f19350505050158015610f95573d6000803e3d6000fd5b505050505050505050505050505050565b610fae61161e565b6109fd60006116ca565b610fc061161e565b6109fd61171c565b610fd0611460565b33600090815260fd602052604090205461102c5760405162461bcd60e51b815260206004820152601b60248201527f5573657220686173206e6f2066756e647320746f20756e6c6f636b00000000006044820152606401610738565b611037606443611a73565b33600090815260fe6020526040902055565b600054610100900460ff16158080156110695750600054600160ff909116105b806110835750303b158015611083575060005460ff166001145b6110e65760405162461bcd60e51b815260206004820152602e60248201527f496e697469616c697a61626c653a20636f6e747261637420697320616c72656160448201526d191e481a5b9a5d1a585b1a5e995960921b6064820152608401610738565b6000805460ff191660011790558015611109576000805461ff0019166101001790555b611111611759565b611119611788565b611122836116ca565b60fb80546001600160a01b038087166001600160a01b03199283161790925560fc8054928516929091169190911790558015611198576000805461ff0019169055604051600181527f7f26b83ff96e1f2b6a682f133852f6798a09c465da95921460cefb38474024989060200160405180910390a15b50505050565b6111a661161e565b6001600160a01b03811661120b5760405162461bcd60e51b815260206004820152602660248201527f4f776e61626c653a206e6577206f776e657220697320746865207a65726f206160448201526564647265737360d01b6064820152608401610738565b6109ea816116ca565b61121c611460565b33600090815260fd60205260409020546112785760405162461bcd60e51b815260206004820152601960248201527f5573657220686173206e6f2066756e647320746f206c6f636b000000000000006044820152606401610738565b33600090815260fe6020526040812055565b60008383606001356040516020016112ac929190918252602082015260400190565b60405160208183030381529060405280519060200120905060006001828560000160208101906112dc9190611fe9565b604080516000815260208181018084529490945260ff9092168282015291870135606082015290860135608082015260a0016020604051602081039080840390855afa158015611330573d6000803e3d6000fd5b505060408051601f1901516001600160a01b038116600090815260ff6020529190912054909250606086013514905061139b5760405162461bcd60e51b815260206004820152600d60248201526c496e76616c6964204e6f6e636560981b6044820152606401610738565b6001600160a01b038116600090815260ff602052604081208054916113bf8361200c565b90915550506001600160a01b038116600090815260fd602052604090205483111561142c5760405162461bcd60e51b815260206004820152601f60248201527f5369676e65722068617320696e73756666696369656e742062616c616e6365006044820152606401610738565b6001600160a01b038116600090815260fd602052604081208054859290611454908490611e9d565b90915550505050505050565b60655460ff16156109fd5760405162461bcd60e51b815260206004820152601060248201526f14185d5cd8589b194e881c185d5cd95960821b6044820152606401610738565b6109ea61161e565b7f4910fdfa16fed3260ed0e7147f7cc6da11a60208b5b9406d12a635614ffd91435460ff16156114e6576114e1836117af565b505050565b826001600160a01b03166352d1902d6040518163ffffffff1660e01b8152600401602060405180830381865afa925050508015611540575060408051601f3d908101601f1916820190925261153d91810190612027565b60015b6115a35760405162461bcd60e51b815260206004820152602e60248201527f45524331393637557067726164653a206e657720696d706c656d656e7461746960448201526d6f6e206973206e6f74205555505360901b6064820152608401610738565b6000805160206120bf83398151915281146116125760405162461bcd60e51b815260206004820152602960248201527f45524331393637557067726164653a20756e737570706f727465642070726f786044820152681a58589b195555525160ba1b6064820152608401610738565b506114e183838361184b565b6033546001600160a01b031633146109fd5760405162461bcd60e51b815260206004820181905260248201527f4f776e61626c653a2063616c6c6572206973206e6f7420746865206f776e65726044820152606401610738565b611680611870565b6065805460ff191690557f5db9ee0a495bf2e6ff9c91a7834c1ba4fdd244a5e8aa4e537bd38aeae4b073aa335b6040516001600160a01b03909116815260200160405180910390a1565b603380546001600160a01b038381166001600160a01b0319831681179093556040519116919082907f8be0079c531659141344cd1fd0a4f28419497f9722a3daafe3b4186f6b6457e090600090a35050565b611724611460565b6065805460ff191660011790557f62e78cea01bee320cd4e420270b5ea74000d11b0c9f74754ebdbfc544b05a2586116ad3390565b600054610100900460ff166117805760405162461bcd60e51b815260040161073890612040565b6109fd6118b9565b600054610100900460ff166109fd5760405162461bcd60e51b815260040161073890612040565b6001600160a01b0381163b61181c5760405162461bcd60e51b815260206004820152602d60248201527f455243313936373a206e657720696d706c656d656e746174696f6e206973206e60448201526c1bdd08184818dbdb9d1c9858dd609a1b6064820152608401610738565b6000805160206120bf83398151915280546001600160a01b0319166001600160a01b0392909216919091179055565b611854836118e9565b6000825111806118615750805b156114e1576111988383611929565b60655460ff166109fd5760405162461bcd60e51b815260206004820152601460248201527314185d5cd8589b194e881b9bdd081c185d5cd95960621b6044820152606401610738565b600054610100900460ff166118e05760405162461bcd60e51b815260040161073890612040565b6109fd336116ca565b6118f2816117af565b6040516001600160a01b038216907fbc7cd75a20ee27fd9adebab32041f755214dbc6bffa90cc0225b39da2e5c2d3b90600090a250565b60606001600160a01b0383163b6119915760405162461bcd60e51b815260206004820152602660248201527f416464726573733a2064656c65676174652063616c6c20746f206e6f6e2d636f6044820152651b9d1c9858dd60d21b6064820152608401610738565b600080846001600160a01b0316846040516119ac9190611fcd565b600060405180830381855af49150503d80600081146119e7576040519150601f19603f3d011682016040523d82523d6000602084013e6119ec565b606091505b5091509150611a1482826040518060600160405280602781526020016120df60279139611a1d565b95945050505050565b60608315611a2c575081611a56565b825115611a3c5782518084602001fd5b8160405162461bcd60e51b8152600401610738919061208b565b9392505050565b634e487b7160e01b600052601160045260246000fd5b60008219821115611a8657611a86611a5d565b500190565b60008083601f840112611a9d57600080fd5b50813567ffffffffffffffff811115611ab557600080fd5b6020830191508360208260051b8501011115611ad057600080fd5b9250929050565b60008083601f840112611ae957600080fd5b50813567ffffffffffffffff811115611b0157600080fd5b6020830191508360208260071b8501011115611ad057600080fd5b60008060008060008060808789031215611b3557600080fd5b863567ffffffffffffffff80821115611b4d57600080fd5b611b598a838b01611a8b565b9098509650602089013595506040890135915080821115611b7957600080fd5b50611b8689828a01611ad7565b979a9699509497949695606090950135949350505050565b80356001600160a01b0381168114611bb557600080fd5b919050565b600060208284031215611bcc57600080fd5b611a5682611b9e565b600060208284031215611be757600080fd5b5035919050565b634e487b7160e01b600052604160045260246000fd5b60008060408385031215611c1757600080fd5b611c2083611b9e565b9150602083013567ffffffffffffffff80821115611c3d57600080fd5b818501915085601f830112611c5157600080fd5b813581811115611c6357611c63611bee565b604051601f8201601f19908116603f01168101908382118183101715611c8b57611c8b611bee565b81604052828152886020848701011115611ca457600080fd5b8260208601602083013760006020848301015280955050505050509250929050565b600080600080600080600080600060c08a8c031215611ce457600080fd5b8935985060208a013567ffffffffffffffff80821115611d0357600080fd5b818c0191508c601f830112611d1757600080fd5b813581811115611d2657600080fd5b8d6020828501011115611d3857600080fd5b602083019a508099505060408c0135915080821115611d5657600080fd5b611d628d838e01611a8b565b909850965060608c0135915080821115611d7b57600080fd5b50611d888c828d01611ad7565b9a9d999c50979a96999598959660808101359660a09091013595509350505050565b600080600060608486031215611dbf57600080fd5b611dc884611b9e565b9250611dd660208501611b9e565b9150611de460408501611b9e565b90509250925092565b600082611e0a57634e487b7160e01b600052601260045260246000fd5b500490565b600063ffffffff80831681851681830481118215151615611e3257611e32611a5d565b02949350505050565b634e487b7160e01b600052603260045260246000fd5b600063ffffffff808316818516808303821115611e7057611e70611a5d565b01949350505050565b600063ffffffff80831681811415611e9357611e93611a5d565b6001019392505050565b600082821015611eaf57611eaf611a5d565b500390565b6020808252602c908201527f46756e6374696f6e206d7573742062652063616c6c6564207468726f7567682060408201526b19195b1959d85d1958d85b1b60a21b606082015260800190565b6020808252602c908201527f46756e6374696f6e206d7573742062652063616c6c6564207468726f7567682060408201526b6163746976652070726f787960a01b606082015260800190565b6000816000190483118215151615611f6657611f66611a5d565b500290565b83815260406020820152816040820152818360608301376000818301606090810191909152601f909201601f1916010192915050565b60005b83811015611fbc578181015183820152602001611fa4565b838111156111985750506000910152565b60008251611fdf818460208701611fa1565b9190910192915050565b600060208284031215611ffb57600080fd5b813560ff81168114611a5657600080fd5b600060001982141561202057612020611a5d565b5060010190565b60006020828403121561203957600080fd5b5051919050565b6020808252602b908201527f496e697469616c697a61626c653a20636f6e7472616374206973206e6f74206960408201526a6e697469616c697a696e6760a81b606082015260800190565b60208152600082518060208401526120aa816040850160208701611fa1565b601f01601f1916919091016040019291505056fe360894a13ba1a3210667c828492db98dca3e2076cc3735a920a3ca505d382bbc416464726573733a206c6f772d6c6576656c2064656c65676174652063616c6c206661696c6564a26469706673582212207993a67066c06bd311b70badb76f2f8cc78d90e42e7255eebf04ae826698638164736f6c634300080c0033","linkReferences":{}},"methodIdentifiers":{"AlignedLayerServiceManager()":"b5708230","BatcherWallet()":"d3c7f833","UNLOCK_BLOCK_COUNT()":"5a3f631a","UserBalances(address)":"77f3f782","UserBalancesUnlockBlock(address)":"8391ee38","UserNonces(address)":"25de0b09","checkMerkleRootAndVerifySignatures(bytes32[],bytes32,(uint8,bytes32,bytes32,uint256)[],uint256)":"10e2ec27","createNewTask(bytes32,string,bytes32[],(uint8,bytes32,bytes32,uint256)[],uint256,uint256)":"54831db6","initialize(address,address,address)":"c0c53b8b","lock()":"f83d08ba","owner()":"8da5cb5b","pause()":"8456cb59","paused()":"5c975abb","proxiableUUID()":"52d1902d","renounceOwnership()":"715018a6","transferOwnership(address)":"f2fde38b","unlock()":"a69df4b5","unpause()":"3f4ba83a","upgradeTo(address)":"3659cfe6","upgradeToAndCall(address,bytes)":"4f1ef286","withdraw(uint256)":"2e1a7d4d"},"id":124}