{"abi":[{"type":"constructor","inputs":[{"name":"__avsDirectory","type":"address","internalType":"contract IAVSDirectory"},{"name":"__registryCoordinator","type":"address","internalType":"contract IRegistryCoordinator"},{"name":"__stakeRegistry","type":"address","internalType":"contract IStakeRegistry"}],"stateMutability":"nonpayable"},{"type":"function","name":"avsDirectory","inputs":[],"outputs":[{"name":"","type":"address","internalType":"address"}],"stateMutability":"view"},{"type":"function","name":"batchesState","inputs":[{"name":"","type":"bytes32","internalType":"bytes32"}],"outputs":[{"name":"taskCreatedBlock","type":"uint32","internalType":"uint32"},{"name":"responded","type":"bool","internalType":"bool"}],"stateMutability":"view"},{"type":"function","name":"blsApkRegistry","inputs":[],"outputs":[{"name":"","type":"address","internalType":"contract IBLSApkRegistry"}],"stateMutability":"view"},{"type":"function","name":"checkSignatures","inputs":[{"name":"msgHash","type":"bytes32","internalType":"bytes32"},{"name":"referenceBlockNumber","type":"uint32","internalType":"uint32"},{"name":"params","type":"tuple","internalType":"struct IBLSSignatureChecker.NonSignerStakesAndSignature","components":[{"name":"nonSignerQuorumBitmapIndices","type":"uint32[]","internalType":"uint32[]"},{"name":"nonSignerPubkeys","type":"tuple[]","internalType":"struct BN254.G1Point[]","components":[{"name":"X","type":"uint256","internalType":"uint256"},{"name":"Y","type":"uint256","internalType":"uint256"}]},{"name":"quorumApks","type":"tuple[]","internalType":"struct BN254.G1Point[]","components":[{"name":"X","type":"uint256","internalType":"uint256"},{"name":"Y","type":"uint256","internalType":"uint256"}]},{"name":"apkG2","type":"tuple","internalType":"struct BN254.G2Point","components":[{"name":"X","type":"uint256[2]","internalType":"uint256[2]"},{"name":"Y","type":"uint256[2]","internalType":"uint256[2]"}]},{"name":"sigma","type":"tuple","internalType":"struct BN254.G1Point","components":[{"name":"X","type":"uint256","internalType":"uint256"},{"name":"Y","type":"uint256","internalType":"uint256"}]},{"name":"quorumApkIndices","type":"uint32[]","internalType":"uint32[]"},{"name":"totalStakeIndices","type":"uint32[]","internalType":"uint32[]"},{"name":"nonSignerStakeIndices","type":"uint32[][]","internalType":"uint32[][]"}]}],"outputs":[{"name":"","type":"tuple","internalType":"struct IBLSSignatureChecker.QuorumStakeTotals","components":[{"name":"signedStakeForQuorum","type":"uint96[]","internalType":"uint96[]"},{"name":"totalStakeForQuorum","type":"uint96[]","internalType":"uint96[]"}]},{"name":"","type":"bytes32","internalType":"bytes32"}],"stateMutability":"view"},{"type":"function","name":"createNewTask","inputs":[{"name":"batchMerkleRoot","type":"bytes32","internalType":"bytes32"},{"name":"batchDataPointer","type":"string","internalType":"string"}],"outputs":[],"stateMutability":"payable"},{"type":"function","name":"delegation","inputs":[],"outputs":[{"name":"","type":"address","internalType":"contract IDelegationManager"}],"stateMutability":"view"},{"type":"function","name":"deregisterOperatorFromAVS","inputs":[{"name":"operator","type":"address","internalType":"address"}],"outputs":[],"stateMutability":"nonpayable"},{"type":"function","name":"getOperatorRestakedStrategies","inputs":[{"name":"operator","type":"address","internalType":"address"}],"outputs":[{"name":"","type":"address[]","internalType":"address[]"}],"stateMutability":"view"},{"type":"function","name":"getRestakeableStrategies","inputs":[],"outputs":[{"name":"","type":"address[]","internalType":"address[]"}],"stateMutability":"view"},{"type":"function","name":"initialize","inputs":[{"name":"_initialOwner","type":"address","internalType":"address"},{"name":"_aggregator","type":"address","internalType":"address"}],"outputs":[],"stateMutability":"nonpayable"},{"type":"function","name":"isAggregator","inputs":[{"name":"_aggregator","type":"address","internalType":"address"}],"outputs":[{"name":"","type":"bool","internalType":"bool"}],"stateMutability":"view"},{"type":"function","name":"owner","inputs":[],"outputs":[{"name":"","type":"address","internalType":"address"}],"stateMutability":"view"},{"type":"function","name":"registerOperatorToAVS","inputs":[{"name":"operator","type":"address","internalType":"address"},{"name":"operatorSignature","type":"tuple","internalType":"struct ISignatureUtils.SignatureWithSaltAndExpiry","components":[{"name":"signature","type":"bytes","internalType":"bytes"},{"name":"salt","type":"bytes32","internalType":"bytes32"},{"name":"expiry","type":"uint256","internalType":"uint256"}]}],"outputs":[],"stateMutability":"nonpayable"},{"type":"function","name":"registryCoordinator","inputs":[],"outputs":[{"name":"","type":"address","internalType":"contract IRegistryCoordinator"}],"stateMutability":"view"},{"type":"function","name":"renounceOwnership","inputs":[],"outputs":[],"stateMutability":"nonpayable"},{"type":"function","name":"respondToTask","inputs":[{"name":"batchMerkleRoot","type":"bytes32","internalType":"bytes32"},{"name":"nonSignerStakesAndSignature","type":"tuple","internalType":"struct IBLSSignatureChecker.NonSignerStakesAndSignature","components":[{"name":"nonSignerQuorumBitmapIndices","type":"uint32[]","internalType":"uint32[]"},{"name":"nonSignerPubkeys","type":"tuple[]","internalType":"struct BN254.G1Point[]","components":[{"name":"X","type":"uint256","internalType":"uint256"},{"name":"Y","type":"uint256","internalType":"uint256"}]},{"name":"quorumApks","type":"tuple[]","internalType":"struct BN254.G1Point[]","components":[{"name":"X","type":"uint256","internalType":"uint256"},{"name":"Y","type":"uint256","internalType":"uint256"}]},{"name":"apkG2","type":"tuple","internalType":"struct BN254.G2Point","components":[{"name":"X","type":"uint256[2]","internalType":"uint256[2]"},{"name":"Y","type":"uint256[2]","internalType":"uint256[2]"}]},{"name":"sigma","type":"tuple","internalType":"struct BN254.G1Point","components":[{"name":"X","type":"uint256","internalType":"uint256"},{"name":"Y","type":"uint256","internalType":"uint256"}]},{"name":"quorumApkIndices","type":"uint32[]","internalType":"uint32[]"},{"name":"totalStakeIndices","type":"uint32[]","internalType":"uint32[]"},{"name":"nonSignerStakeIndices","type":"uint32[][]","internalType":"uint32[][]"}]}],"outputs":[],"stateMutability":"nonpayable"},{"type":"function","name":"setStaleStakesForbidden","inputs":[{"name":"value","type":"bool","internalType":"bool"}],"outputs":[],"stateMutability":"nonpayable"},{"type":"function","name":"stakeRegistry","inputs":[],"outputs":[{"name":"","type":"address","internalType":"contract IStakeRegistry"}],"stateMutability":"view"},{"type":"function","name":"staleStakesForbidden","inputs":[],"outputs":[{"name":"","type":"bool","internalType":"bool"}],"stateMutability":"view"},{"type":"function","name":"transferOwnership","inputs":[{"name":"newOwner","type":"address","internalType":"address"}],"outputs":[],"stateMutability":"nonpayable"},{"type":"function","name":"trySignatureAndApkVerification","inputs":[{"name":"msgHash","type":"bytes32","internalType":"bytes32"},{"name":"apk","type":"tuple","internalType":"struct BN254.G1Point","components":[{"name":"X","type":"uint256","internalType":"uint256"},{"name":"Y","type":"uint256","internalType":"uint256"}]},{"name":"apkG2","type":"tuple","internalType":"struct BN254.G2Point","components":[{"name":"X","type":"uint256[2]","internalType":"uint256[2]"},{"name":"Y","type":"uint256[2]","internalType":"uint256[2]"}]},{"name":"sigma","type":"tuple","internalType":"struct BN254.G1Point","components":[{"name":"X","type":"uint256","internalType":"uint256"},{"name":"Y","type":"uint256","internalType":"uint256"}]}],"outputs":[{"name":"pairingSuccessful","type":"bool","internalType":"bool"},{"name":"siganatureIsValid","type":"bool","internalType":"bool"}],"stateMutability":"view"},{"type":"function","name":"updateAVSMetadataURI","inputs":[{"name":"_metadataURI","type":"string","internalType":"string"}],"outputs":[],"stateMutability":"nonpayable"},{"type":"function","name":"verifyBatchInclusion","inputs":[{"name":"proofCommitment","type":"bytes32","internalType":"bytes32"},{"name":"pubInputCommitment","type":"bytes32","internalType":"bytes32"},{"name":"provingSystemAuxDataCommitment","type":"bytes32","internalType":"bytes32"},{"name":"proofGeneratorAddr","type":"bytes20","internalType":"bytes20"},{"name":"batchMerkleRoot","type":"bytes32","internalType":"bytes32"},{"name":"merkleProof","type":"bytes32[]","internalType":"bytes32[]"}],"outputs":[{"name":"","type":"bool","internalType":"bool"}],"stateMutability":"nonpayable"},{"type":"event","name":"BatchVerified","inputs":[{"name":"batchMerkleRoot","type":"bytes32","indexed":true,"internalType":"bytes32"}],"anonymous":false},{"type":"event","name":"Initialized","inputs":[{"name":"version","type":"uint8","indexed":false,"internalType":"uint8"}],"anonymous":false},{"type":"event","name":"NewBatch","inputs":[{"name":"batchMerkleRoot","type":"bytes32","indexed":true,"internalType":"bytes32"},{"name":"taskCreatedBlock","type":"uint32","indexed":false,"internalType":"uint32"},{"name":"batchDataPointer","type":"string","indexed":false,"internalType":"string"}],"anonymous":false},{"type":"event","name":"OwnershipTransferred","inputs":[{"name":"previousOwner","type":"address","indexed":true,"internalType":"address"},{"name":"newOwner","type":"address","indexed":true,"internalType":"address"}],"anonymous":false},{"type":"event","name":"StaleStakesForbiddenUpdate","inputs":[{"name":"value","type":"bool","indexed":false,"internalType":"bool"}],"anonymous":false}],"bytecode":{"object":"0x6101606040523480156200001257600080fd5b5060405162004579380380620045798339810160408190526200003591620002da565b6001600160a01b0380841660c052808316608052811660a052818381836200005c620001ff565b5050506001600160a01b03811660e081905260408051636830483560e01b815290516368304835916004808201926020929091908290030181865afa158015620000aa573d6000803e3d6000fd5b505050506040513d601f19601f82011682018060405250810190620000d091906200032e565b6001600160a01b0316610100816001600160a01b031681525050806001600160a01b0316635df459466040518163ffffffff1660e01b8152600401602060405180830381865afa15801562000129573d6000803e3d6000fd5b505050506040513d601f19601f820116820180604052508101906200014f91906200032e565b6001600160a01b0316610120816001600160a01b031681525050610100516001600160a01b031663df5cf7236040518163ffffffff1660e01b8152600401602060405180830381865afa158015620001ab573d6000803e3d6000fd5b505050506040513d601f19601f82011682018060405250810190620001d191906200032e565b6001600160a01b031661014052506097805460ff19166001179055620001f6620001ff565b50505062000355565b600054610100900460ff16156200026c5760405162461bcd60e51b815260206004820152602760248201527f496e697469616c697a61626c653a20636f6e747261637420697320696e697469604482015266616c697a696e6760c81b606482015260840160405180910390fd5b60005460ff9081161015620002bf576000805460ff191660ff9081179091556040519081527f7f26b83ff96e1f2b6a682f133852f6798a09c465da95921460cefb38474024989060200160405180910390a15b565b6001600160a01b0381168114620002d757600080fd5b50565b600080600060608486031215620002f057600080fd5b8351620002fd81620002c1565b60208501519093506200031081620002c1565b60408501519092506200032381620002c1565b809150509250925092565b6000602082840312156200034157600080fd5b81516200034e81620002c1565b9392505050565b60805160a05160c05160e05161010051610120516101405161412f6200044a600039600081816104b201526116c60152600081816102a201526118d90152600081816102ee01528181611ac60152611cb601526000818161035501528181610d750152818161138201528181611529015261177a01526000818161031f015281816120e50152818161222301526122a2015260008181610a9e01528181610bf901528181610c900152818161239f0152818161252201526125c10152600081816108c901528181610958015281816109d801528181612091015281816121c7015281816122dd015261247d015261412f6000f3fe6080604052600436106101405760003560e01c80636d14a987116100b6578063a98fb3551161006f578063a98fb3551461040a578063b099627e1461042a578063b98d090814610486578063df5cf723146104a0578063e481af9d146104d4578063f2fde38b146104e957600080fd5b80636d14a98714610343578063715018a6146103775780638da5cb5b1461038c5780639926ee7d146103aa5780639f9f3976146103ca578063a364f4da146103ea57600080fd5b8063485cc95511610108578063485cc9551461022f5780634ae07c371461024f5780635c0089941461027d5780635df459461461029057806368304835146102dc5780636b3aa72e1461031057600080fd5b8063171f1d5b146101455780631e8f3c95146101815780632dd94eba146101c057806333cfb7b7146101e2578063416c7e5e1461020f575b600080fd5b34801561015157600080fd5b506101656101603660046134f9565b610509565b6040805192151583529015156020830152015b60405180910390f35b34801561018d57600080fd5b506101b061019c36600461355f565b60c9546001600160a01b0390811691161490565b6040519015158152602001610178565b3480156101cc57600080fd5b506101e06101db366004613832565b610693565b005b3480156101ee57600080fd5b506102026101fd36600461355f565b6108a4565b6040516101789190613878565b34801561021b57600080fd5b506101e061022a3660046138c5565b610d73565b34801561023b57600080fd5b506101e061024a3660046138e7565b610ee8565b34801561025b57600080fd5b5061026f61026a366004613920565b611017565b6040516101789291906139ba565b6101e061028b366004613a03565b611f80565b34801561029c57600080fd5b506102c47f000000000000000000000000000000000000000000000000000000000000000081565b6040516001600160a01b039091168152602001610178565b3480156102e857600080fd5b506102c47f000000000000000000000000000000000000000000000000000000000000000081565b34801561031c57600080fd5b507f00000000000000000000000000000000000000000000000000000000000000006102c4565b34801561034f57600080fd5b506102c47f000000000000000000000000000000000000000000000000000000000000000081565b34801561038357600080fd5b506101e0612072565b34801561039857600080fd5b506033546001600160a01b03166102c4565b3480156103b657600080fd5b506101e06103c5366004613ad5565b612086565b3480156103d657600080fd5b506101b06103e5366004613b7f565b612152565b3480156103f657600080fd5b506101e061040536600461355f565b6121bc565b34801561041657600080fd5b506101e0610425366004613c5b565b612283565b34801561043657600080fd5b5061046a610445366004613cab565b60ca6020526000908152604090205463ffffffff811690640100000000900460ff1682565b6040805163ffffffff9093168352901515602083015201610178565b34801561049257600080fd5b506097546101b09060ff1681565b3480156104ac57600080fd5b506102c47f000000000000000000000000000000000000000000000000000000000000000081565b3480156104e057600080fd5b506102026122d7565b3480156104f557600080fd5b506101e061050436600461355f565b6126a0565b60008060007f30644e72e131a029b85045b68181585d2833e84879b9709143e1f593f00000018787600001518860200151886000015160006002811061055157610551613cc4565b60200201518951600160200201518a6020015160006002811061057657610576613cc4565b60200201518b6020015160016002811061059257610592613cc4565b602090810291909101518c518d8301516040516105ef9a99989796959401988952602089019790975260408801959095526060870193909352608086019190915260a085015260c084015260e08301526101008201526101200190565b6040516020818303038152906040528051906020012060001c6106129190613cda565b905061068561062b6106248884612719565b86906127b0565b610633612844565b61067b61066c85610666604080518082018252600080825260209182015281518083019092526001825260029082015290565b90612719565b6106758c612904565b906127b0565b886201d4c0612994565b909890975095505050505050565b600082815260ca602052604090205463ffffffff166106f05760405162461bcd60e51b8152602060048201526014602482015273426174636820646f65736e27742065786973747360601b60448201526064015b60405180910390fd5b600082815260ca6020526040902054640100000000900460ff16156107575760405162461bcd60e51b815260206004820152601760248201527f426174636820616c726561647920726573706f6e64656400000000000000000060448201526064016106e7565b600082815260ca60205260408120805464ff0000000019811664010000000017909155819061078e90859063ffffffff1685611017565b91509150604360ff1682602001516000815181106107ae576107ae613cc4565b60200260200101516107c09190613d12565b6001600160601b0316606483600001516000815181106107e2576107e2613cc4565b60200260200101516001600160601b03166107fd9190613d41565b1015610873576040805162461bcd60e51b81526020600482015260248101919091527f5369676e61746f7269657320646f206e6f74206f776e206174206c656173742060448201527f7468726573686f6c642070657263656e74616765206f6620612071756f72756d60648201526084016106e7565b60405184907f433ae0767fe95db70a0e30eda902926e41203b9eb97ec5175076fb9e2d35c13e90600090a250505050565b6040516309aa152760e11b81526001600160a01b0382811660048301526060916000917f000000000000000000000000000000000000000000000000000000000000000016906313542a4e90602401602060405180830381865afa158015610910573d6000803e3d6000fd5b505050506040513d601f19601f820116820180604052508101906109349190613d60565b60405163871ef04960e01b8152600481018290529091506000906001600160a01b037f0000000000000000000000000000000000000000000000000000000000000000169063871ef04990602401602060405180830381865afa15801561099f573d6000803e3d6000fd5b505050506040513d601f19601f820116820180604052508101906109c39190613d79565b90506001600160c01b0381161580610a5d57507f00000000000000000000000000000000000000000000000000000000000000006001600160a01b0316639aa1653d6040518163ffffffff1660e01b8152600401602060405180830381865afa158015610a34573d6000803e3d6000fd5b505050506040513d601f19601f82011682018060405250810190610a589190613da2565b60ff16155b15610a7957505060408051600081526020810190915292915050565b6000610a8d826001600160c01b0316612bb8565b90506000805b8251811015610b63577f00000000000000000000000000000000000000000000000000000000000000006001600160a01b0316633ca5a5f5848381518110610add57610add613cc4565b01602001516040516001600160e01b031960e084901b16815260f89190911c6004820152602401602060405180830381865afa158015610b21573d6000803e3d6000fd5b505050506040513d601f19601f82011682018060405250810190610b459190613d60565b610b4f9083613dc5565b915080610b5b81613ddd565b915050610a93565b506000816001600160401b03811115610b7e57610b7e613386565b604051908082528060200260200182016040528015610ba7578160200160208202803683370190505b5090506000805b8451811015610d66576000858281518110610bcb57610bcb613cc4565b0160200151604051633ca5a5f560e01b815260f89190911c6004820181905291506000906001600160a01b037f00000000000000000000000000000000000000000000000000000000000000001690633ca5a5f590602401602060405180830381865afa158015610c40573d6000803e3d6000fd5b505050506040513d601f19601f82011682018060405250810190610c649190613d60565b905060005b81811015610d50576040516356e4026d60e11b815260ff84166004820152602481018290527f00000000000000000000000000000000000000000000000000000000000000006001600160a01b03169063adc804da906044016040805180830381865afa158015610cde573d6000803e3d6000fd5b505050506040513d601f19601f82011682018060405250810190610d029190613e0f565b60000151868681518110610d1857610d18613cc4565b6001600160a01b039092166020928302919091019091015284610d3a81613ddd565b9550508080610d4890613ddd565b915050610c69565b5050508080610d5e90613ddd565b915050610bae565b5090979650505050505050565b7f00000000000000000000000000000000000000000000000000000000000000006001600160a01b0316638da5cb5b6040518163ffffffff1660e01b8152600401602060405180830381865afa158015610dd1573d6000803e3d6000fd5b505050506040513d601f19601f82011682018060405250810190610df59190613e4e565b6001600160a01b0316336001600160a01b031614610ea15760405162461bcd60e51b815260206004820152605c60248201527f424c535369676e6174757265436865636b65722e6f6e6c79436f6f7264696e6160448201527f746f724f776e65723a2063616c6c6572206973206e6f7420746865206f776e6560648201527f72206f6620746865207265676973747279436f6f7264696e61746f7200000000608482015260a4016106e7565b6097805460ff19168215159081179091556040519081527f40e4ed880a29e0f6ddce307457fb75cddf4feef7d3ecb0301bfdf4976a0e2dfc9060200160405180910390a150565b600054610100900460ff1615808015610f085750600054600160ff909116105b80610f225750303b158015610f22575060005460ff166001145b610f855760405162461bcd60e51b815260206004820152602e60248201527f496e697469616c697a61626c653a20636f6e747261637420697320616c72656160448201526d191e481a5b9a5d1a585b1a5e995960921b60648201526084016106e7565b6000805460ff191660011790558015610fa8576000805461ff0019166101001790555b610fb183612c7a565b60c980546001600160a01b0319166001600160a01b0384161790558015611012576000805461ff0019169055604051600181527f7f26b83ff96e1f2b6a682f133852f6798a09c465da95921460cefb38474024989060200160405180910390a15b505050565b604080518082019091526060808252602082015260408051808201909152600181526000602090910181905282604001515160405180604001604052806001815260200160008152505114801561108957508260a0015151604051806040016040528060018152602001600081525051145b80156110b057508260c0015151604051806040016040528060018152602001600081525051145b80156110d757508260e0015151604051806040016040528060018152602001600081525051145b6111415760405162461bcd60e51b815260206004820152604160248201526000805160206140da83398151915260448201527f7265733a20696e7075742071756f72756d206c656e677468206d69736d6174636064820152600d60fb1b608482015260a4016106e7565b825151602084015151146111b95760405162461bcd60e51b8152602060048201526044602482018190526000805160206140da833981519152908201527f7265733a20696e707574206e6f6e7369676e6572206c656e677468206d69736d6064820152630c2e8c6d60e31b608482015260a4016106e7565b4363ffffffff168463ffffffff16106112285760405162461bcd60e51b815260206004820152603c60248201526000805160206140da83398151915260448201527f7265733a20696e76616c6964207265666572656e636520626c6f636b0000000060648201526084016106e7565b60408051808201825260008082526020808301829052835180850185526060808252818301528451808601865260018082529083019390935284518381528086019095529293919082810190803683370190505060208281019190915260408051808201825260018082526000919093015280518281528082019091529081602001602082028036833701905050815260408051808201909152606080825260208201528560200151516001600160401b038111156112e9576112e9613386565b604051908082528060200260200182016040528015611312578160200160208202803683370190505b5081526020860151516001600160401b0381111561133257611332613386565b60405190808252806020026020018201604052801561135b578160200160208202803683370190505b508160200181905250600061140760405180604001604052806001815260200160008152507f00000000000000000000000000000000000000000000000000000000000000006001600160a01b0316639aa1653d6040518163ffffffff1660e01b8152600401602060405180830381865afa1580156113de573d6000803e3d6000fd5b505050506040513d601f19601f820116820180604052508101906114029190613da2565b612ccc565b905060005b8760200151518110156116a2576114518860200151828151811061143257611432613cc4565b6020026020010151805160009081526020918201519091526040902090565b8360200151828151811061146757611467613cc4565b60209081029190910101528015611527576020830151611488600183613e6b565b8151811061149857611498613cc4565b602002602001015160001c836020015182815181106114b9576114b9613cc4565b602002602001015160001c11611527576040805162461bcd60e51b81526020600482015260248101919091526000805160206140da83398151915260448201527f7265733a206e6f6e5369676e65725075626b657973206e6f7420736f7274656460648201526084016106e7565b7f00000000000000000000000000000000000000000000000000000000000000006001600160a01b03166304ec63518460200151838151811061156c5761156c613cc4565b60200260200101518b8b60000151858151811061158b5761158b613cc4565b60200260200101516040518463ffffffff1660e01b81526004016115c89392919092835263ffffffff918216602084015216604082015260600190565b602060405180830381865afa1580156115e5573d6000803e3d6000fd5b505050506040513d601f19601f820116820180604052508101906116099190613d79565b6001600160c01b03168360000151828151811061162857611628613cc4565b60200260200101818152505061168e610624611662848660000151858151811061165457611654613cc4565b602002602001015116612d5f565b8a60200151848151811061167857611678613cc4565b6020026020010151612d8a90919063ffffffff16565b94508061169a81613ddd565b91505061140c565b50506116ad83612e6e565b60975490935060ff166000816116c4576000611746565b7f00000000000000000000000000000000000000000000000000000000000000006001600160a01b031663c448feb86040518163ffffffff1660e01b8152600401602060405180830381865afa158015611722573d6000803e3d6000fd5b505050506040513d601f19601f820116820180604052508101906117469190613d60565b905060005b604051806040016040528060018152602001600081525051811015611e515782156118d7578963ffffffff16827f00000000000000000000000000000000000000000000000000000000000000006001600160a01b031663249a0c42604051806040016040528060018152602001600081525085815181106117cf576117cf613cc4565b01602001516040516001600160e01b031960e084901b16815260f89190911c6004820152602401602060405180830381865afa158015611813573d6000803e3d6000fd5b505050506040513d601f19601f820116820180604052508101906118379190613d60565b6118419190613dc5565b116118d75760405162461bcd60e51b815260206004820152606660248201526000805160206140da83398151915260448201527f7265733a205374616b6552656769737472792075706461746573206d7573742060648201527f62652077697468696e207769746864726177616c44656c6179426c6f636b732060848201526577696e646f7760d01b60a482015260c4016106e7565b7f00000000000000000000000000000000000000000000000000000000000000006001600160a01b03166368bccaac6040518060400160405280600181526020016000815250838151811061192e5761192e613cc4565b602001015160f81c60f81b60f81c8c8c60a00151858151811061195357611953613cc4565b60209081029190910101516040516001600160e01b031960e086901b16815260ff909316600484015263ffffffff9182166024840152166044820152606401602060405180830381865afa1580156119af573d6000803e3d6000fd5b505050506040513d601f19601f820116820180604052508101906119d39190613e82565b6001600160401b0319166119f68a60400151838151811061143257611432613cc4565b67ffffffffffffffff191614611a925760405162461bcd60e51b815260206004820152606160248201526000805160206140da83398151915260448201527f7265733a2071756f72756d41706b206861736820696e2073746f72616765206460648201527f6f6573206e6f74206d617463682070726f76696465642071756f72756d2061706084820152606b60f81b60a482015260c4016106e7565b611ac289604001518281518110611aab57611aab613cc4565b6020026020010151876127b090919063ffffffff16565b95507f00000000000000000000000000000000000000000000000000000000000000006001600160a01b031663c8294c5660405180604001604052806001815260200160008152508381518110611b1b57611b1b613cc4565b602001015160f81c60f81b60f81c8c8c60c001518581518110611b4057611b40613cc4565b60209081029190910101516040516001600160e01b031960e086901b16815260ff909316600484015263ffffffff9182166024840152166044820152606401602060405180830381865afa158015611b9c573d6000803e3d6000fd5b505050506040513d601f19601f82011682018060405250810190611bc09190613ead565b85602001518281518110611bd657611bd6613cc4565b6001600160601b03909216602092830291909101820152850151805182908110611c0257611c02613cc4565b602002602001015185600001518281518110611c2057611c20613cc4565b60200260200101906001600160601b031690816001600160601b0316815250506000805b8a6020015151811015611e3c57611caf86600001518281518110611c6a57611c6a613cc4565b602002602001015160405180604001604052806001815260200160008152508581518110611c9a57611c9a613cc4565b016020015160f81c60ff161c60019081161490565b15611e2a577f00000000000000000000000000000000000000000000000000000000000000006001600160a01b031663f2be94ae60405180604001604052806001815260200160008152508581518110611d0b57611d0b613cc4565b602001015160f81c60f81b60f81c8e89602001518581518110611d3057611d30613cc4565b60200260200101518f60e001518881518110611d4e57611d4e613cc4565b60200260200101518781518110611d6757611d67613cc4565b60209081029190910101516040516001600160e01b031960e087901b16815260ff909416600485015263ffffffff92831660248501526044840191909152166064820152608401602060405180830381865afa158015611dcb573d6000803e3d6000fd5b505050506040513d601f19601f82011682018060405250810190611def9190613ead565b8751805185908110611e0357611e03613cc4565b60200260200101818151611e179190613ec8565b6001600160601b03169052506001909101905b80611e3481613ddd565b915050611c44565b50508080611e4990613ddd565b91505061174b565b505050600080611e6b8a868a606001518b60800151610509565b9150915081611edc5760405162461bcd60e51b815260206004820152604360248201526000805160206140da83398151915260448201527f7265733a2070616972696e6720707265636f6d70696c652063616c6c206661696064820152621b195960ea1b608482015260a4016106e7565b80611f3d5760405162461bcd60e51b815260206004820152603960248201526000805160206140da83398151915260448201527f7265733a207369676e617475726520697320696e76616c69640000000000000060648201526084016106e7565b50506000878260200151604051602001611f58929190613ef0565b60408051808303601f1901815291905280516020909101209299929850919650505050505050565b600083815260ca602052604090205463ffffffff1615611fe25760405162461bcd60e51b815260206004820152601a60248201527f42617463682077617320616c726561647920766572696669656400000000000060448201526064016106e7565b6040805180820182526000602080830182815263ffffffff43818116865289855260ca9093529285902084518154925115156401000000000264ffffffffff19909316941693909317179091559151909185917f1871c33134a542e0ab9facf7013d27b9ed95e64d299e9919ee091c9cfcb19fa5916120649187908790613f38565b60405180910390a250505050565b61207a612f09565b6120846000612c7a565b565b336001600160a01b037f000000000000000000000000000000000000000000000000000000000000000016146120ce5760405162461bcd60e51b81526004016106e790613f74565b604051639926ee7d60e01b81526001600160a01b037f00000000000000000000000000000000000000000000000000000000000000001690639926ee7d9061211c9085908590600401614039565b600060405180830381600087803b15801561213657600080fd5b505af115801561214a573d6000803e3d6000fd5b505050505050565b6040805160208101889052908101869052606081018590526bffffffffffffffffffffffff1984166080820152600090819060940160408051601f198184030181529190528051602082012090915060006121ae858784612f63565b9a9950505050505050505050565b336001600160a01b037f000000000000000000000000000000000000000000000000000000000000000016146122045760405162461bcd60e51b81526004016106e790613f74565b6040516351b27a6d60e11b81526001600160a01b0382811660048301527f0000000000000000000000000000000000000000000000000000000000000000169063a364f4da906024015b600060405180830381600087803b15801561226857600080fd5b505af115801561227c573d6000803e3d6000fd5b5050505050565b61228b612f09565b60405163a98fb35560e01b81526001600160a01b037f0000000000000000000000000000000000000000000000000000000000000000169063a98fb3559061224e908490600401614084565b606060007f00000000000000000000000000000000000000000000000000000000000000006001600160a01b0316639aa1653d6040518163ffffffff1660e01b8152600401602060405180830381865afa158015612339573d6000803e3d6000fd5b505050506040513d601f19601f8201168201806040525081019061235d9190613da2565b60ff1690508061237b57505060408051600081526020810190915290565b6000805b8281101561243057604051633ca5a5f560e01b815260ff821660048201527f00000000000000000000000000000000000000000000000000000000000000006001600160a01b031690633ca5a5f590602401602060405180830381865afa1580156123ee573d6000803e3d6000fd5b505050506040513d601f19601f820116820180604052508101906124129190613d60565b61241c9083613dc5565b91508061242881613ddd565b91505061237f565b506000816001600160401b0381111561244b5761244b613386565b604051908082528060200260200182016040528015612474578160200160208202803683370190505b5090506000805b7f00000000000000000000000000000000000000000000000000000000000000006001600160a01b0316639aa1653d6040518163ffffffff1660e01b8152600401602060405180830381865afa1580156124d9573d6000803e3d6000fd5b505050506040513d601f19601f820116820180604052508101906124fd9190613da2565b60ff1681101561269657604051633ca5a5f560e01b815260ff821660048201526000907f00000000000000000000000000000000000000000000000000000000000000006001600160a01b031690633ca5a5f590602401602060405180830381865afa158015612571573d6000803e3d6000fd5b505050506040513d601f19601f820116820180604052508101906125959190613d60565b905060005b81811015612681576040516356e4026d60e11b815260ff84166004820152602481018290527f00000000000000000000000000000000000000000000000000000000000000006001600160a01b03169063adc804da906044016040805180830381865afa15801561260f573d6000803e3d6000fd5b505050506040513d601f19601f820116820180604052508101906126339190613e0f565b6000015185858151811061264957612649613cc4565b6001600160a01b03909216602092830291909101909101528361266b81613ddd565b945050808061267990613ddd565b91505061259a565b5050808061268e90613ddd565b91505061247b565b5090949350505050565b6126a8612f09565b6001600160a01b03811661270d5760405162461bcd60e51b815260206004820152602660248201527f4f776e61626c653a206e6577206f776e657220697320746865207a65726f206160448201526564647265737360d01b60648201526084016106e7565b61271681612c7a565b50565b60408051808201909152600080825260208201526127356132ac565b835181526020808501519082015260408082018490526000908360608460076107d05a03fa90508080156127685761276a565bfe5b50806127a85760405162461bcd60e51b815260206004820152600d60248201526c1958cb5b5d5b0b59985a5b1959609a1b60448201526064016106e7565b505092915050565b60408051808201909152600080825260208201526127cc6132ca565b835181526020808501518183015283516040808401919091529084015160608301526000908360808460066107d05a03fa90508080156127685750806127a85760405162461bcd60e51b815260206004820152600d60248201526c1958cb5859190b59985a5b1959609a1b60448201526064016106e7565b61284c6132e8565b50604080516080810182527f198e9393920d483a7260bfb731fb5d25f1aa493335a9e71297e485b7aef312c28183019081527f1800deef121f1e76426a00665e5c4479674322d4f75edadd46debd5cd992f6ed6060830152815281518083019092527f275dc4a288d1afb3cbb1ac09187524c7db36395df7be3b99e673b13a075a65ec82527f1d9befcd05a5323e6da4d435f3b617cdb3af83285c2df711ef39c01571827f9d60208381019190915281019190915290565b6040805180820190915260008082526020820152600080806129346000805160206140ba83398151915286613cda565b90505b61294081612f79565b90935091506000805160206140ba83398151915282830983141561297a576040805180820190915290815260208101919091529392505050565b6000805160206140ba833981519152600182089050612937565b6040805180820182528681526020808201869052825180840190935286835282018490526000918291906129c661330d565b60005b6002811015612b8b5760006129df826006613d41565b90508482600281106129f3576129f3613cc4565b60200201515183612a05836000613dc5565b600c8110612a1557612a15613cc4565b6020020152848260028110612a2c57612a2c613cc4565b60200201516020015183826001612a439190613dc5565b600c8110612a5357612a53613cc4565b6020020152838260028110612a6a57612a6a613cc4565b6020020151515183612a7d836002613dc5565b600c8110612a8d57612a8d613cc4565b6020020152838260028110612aa457612aa4613cc4565b6020020151516001602002015183612abd836003613dc5565b600c8110612acd57612acd613cc4565b6020020152838260028110612ae457612ae4613cc4565b602002015160200151600060028110612aff57612aff613cc4565b602002015183612b10836004613dc5565b600c8110612b2057612b20613cc4565b6020020152838260028110612b3757612b37613cc4565b602002015160200151600160028110612b5257612b52613cc4565b602002015183612b63836005613dc5565b600c8110612b7357612b73613cc4565b60200201525080612b8381613ddd565b9150506129c9565b50612b9461332c565b60006020826101808560088cfa9151919c9115159b50909950505050505050505050565b6060600080612bc684612d5f565b61ffff166001600160401b03811115612be157612be1613386565b6040519080825280601f01601f191660200182016040528015612c0b576020820181803683370190505b5090506000805b825182108015612c23575061010081105b15612696576001811b935085841615612c6a578060f81b838381518110612c4c57612c4c613cc4565b60200101906001600160f81b031916908160001a9053508160010191505b612c7381613ddd565b9050612c12565b603380546001600160a01b038381166001600160a01b0319831681179093556040519116919082907f8be0079c531659141344cd1fd0a4f28419497f9722a3daafe3b4186f6b6457e090600090a35050565b600080612cd884612ffb565b9050808360ff166001901b11612d565760405162461bcd60e51b815260206004820152603f60248201527f4269746d61705574696c732e6f72646572656442797465734172726179546f4260448201527f69746d61703a206269746d61702065786365656473206d61782076616c75650060648201526084016106e7565b90505b92915050565b6000805b8215612d5957612d74600184613e6b565b9092169180612d8281614097565b915050612d63565b60408051808201909152600080825260208201526102008261ffff1610612de65760405162461bcd60e51b815260206004820152601060248201526f7363616c61722d746f6f2d6c6172676560801b60448201526064016106e7565b8161ffff1660011415612dfa575081612d59565b6040805180820190915260008082526020820181905284906001905b8161ffff168661ffff1610612e6357600161ffff871660ff83161c81161415612e4657612e4384846127b0565b93505b612e5083846127b0565b92506201fffe600192831b169101612e16565b509195945050505050565b60408051808201909152600080825260208201528151158015612e9357506020820151155b15612eb1575050604080518082019091526000808252602082015290565b6040518060400160405280836000015181526020016000805160206140ba8339815191528460200151612ee49190613cda565b612efc906000805160206140ba833981519152613e6b565b905292915050565b919050565b6033546001600160a01b031633146120845760405162461bcd60e51b815260206004820181905260248201527f4f776e61626c653a2063616c6c6572206973206e6f7420746865206f776e657260448201526064016106e7565b600082612f708584613188565b14949350505050565b600080806000805160206140ba83398151915260036000805160206140ba833981519152866000805160206140ba833981519152888909090890506000612fef827f0c19139cb84c680a6e14116da060561765e05aa45a1c72a34f082305b61f3f526000805160206140ba8339815191526131d5565b91959194509092505050565b6000610100825111156130845760405162461bcd60e51b8152602060048201526044602482018190527f4269746d61705574696c732e6f72646572656442797465734172726179546f42908201527f69746d61703a206f7264657265644279746573417272617920697320746f6f206064820152636c6f6e6760e01b608482015260a4016106e7565b815161309257506000919050565b600080836000815181106130a8576130a8613cc4565b0160200151600160f89190911c81901b92505b845181101561317f578481815181106130d6576130d6613cc4565b0160200151600160f89190911c1b915082821161316b5760405162461bcd60e51b815260206004820152604760248201527f4269746d61705574696c732e6f72646572656442797465734172726179546f4260448201527f69746d61703a206f72646572656442797465734172726179206973206e6f74206064820152661bdc99195c995960ca1b608482015260a4016106e7565b9181179161317881613ddd565b90506130bb565b50909392505050565b600081815b84518110156131cd576131b9828683815181106131ac576131ac613cc4565b602002602001015161327d565b9150806131c581613ddd565b91505061318d565b509392505050565b6000806131e061332c565b6131e861334a565b602080825281810181905260408201819052606082018890526080820187905260a082018690528260c08360056107d05a03fa92508280156127685750826132725760405162461bcd60e51b815260206004820152601a60248201527f424e3235342e6578704d6f643a2063616c6c206661696c75726500000000000060448201526064016106e7565b505195945050505050565b6000818310613299576000828152602084905260409020612d56565b6000838152602083905260409020612d56565b60405180606001604052806003906020820280368337509192915050565b60405180608001604052806004906020820280368337509192915050565b60405180604001604052806132fb613368565b8152602001613308613368565b905290565b604051806101800160405280600c906020820280368337509192915050565b60405180602001604052806001906020820280368337509192915050565b6040518060c001604052806006906020820280368337509192915050565b60405180604001604052806002906020820280368337509192915050565b634e487b7160e01b600052604160045260246000fd5b604080519081016001600160401b03811182821017156133be576133be613386565b60405290565b60405161010081016001600160401b03811182821017156133be576133be613386565b604051606081016001600160401b03811182821017156133be576133be613386565b604051601f8201601f191681016001600160401b038111828210171561343157613431613386565b604052919050565b60006040828403121561344b57600080fd5b61345361339c565b9050813581526020820135602082015292915050565b600082601f83011261347a57600080fd5b61348261339c565b80604084018581111561349457600080fd5b845b818110156134ae578035845260209384019301613496565b509095945050505050565b6000608082840312156134cb57600080fd5b6134d361339c565b90506134df8383613469565b81526134ee8360408401613469565b602082015292915050565b600080600080610120858703121561351057600080fd5b843593506135218660208701613439565b925061353086606087016134b9565b915061353f8660e08701613439565b905092959194509250565b6001600160a01b038116811461271657600080fd5b60006020828403121561357157600080fd5b8135612d568161354a565b60006001600160401b0382111561359557613595613386565b5060051b60200190565b803563ffffffff81168114612f0457600080fd5b600082601f8301126135c457600080fd5b813560206135d96135d48361357c565b613409565b82815260059290921b840181019181810190868411156135f857600080fd5b8286015b8481101561361a5761360d8161359f565b83529183019183016135fc565b509695505050505050565b600082601f83011261363657600080fd5b813560206136466135d48361357c565b82815260069290921b8401810191818101908684111561366557600080fd5b8286015b8481101561361a5761367b8882613439565b835291830191604001613669565b600082601f83011261369a57600080fd5b813560206136aa6135d48361357c565b82815260059290921b840181019181810190868411156136c957600080fd5b8286015b8481101561361a5780356001600160401b038111156136ec5760008081fd5b6136fa8986838b01016135b3565b8452509183019183016136cd565b6000610180828403121561371b57600080fd5b6137236133c4565b905081356001600160401b038082111561373c57600080fd5b613748858386016135b3565b8352602084013591508082111561375e57600080fd5b61376a85838601613625565b6020840152604084013591508082111561378357600080fd5b61378f85838601613625565b60408401526137a185606086016134b9565b60608401526137b38560e08601613439565b60808401526101208401359150808211156137cd57600080fd5b6137d9858386016135b3565b60a08401526101408401359150808211156137f357600080fd5b6137ff858386016135b3565b60c084015261016084013591508082111561381957600080fd5b5061382684828501613689565b60e08301525092915050565b6000806040838503121561384557600080fd5b8235915060208301356001600160401b0381111561386257600080fd5b61386e85828601613708565b9150509250929050565b6020808252825182820181905260009190848201906040850190845b818110156138b95783516001600160a01b031683529284019291840191600101613894565b50909695505050505050565b6000602082840312156138d757600080fd5b81358015158114612d5657600080fd5b600080604083850312156138fa57600080fd5b82356139058161354a565b915060208301356139158161354a565b809150509250929050565b60008060006060848603121561393557600080fd5b833592506139456020850161359f565b915060408401356001600160401b0381111561396057600080fd5b61396c86828701613708565b9150509250925092565b600081518084526020808501945080840160005b838110156139af5781516001600160601b03168752958201959082019060010161398a565b509495945050505050565b60408152600083516040808401526139d56080840182613976565b90506020850151603f198483030160608501526139f28282613976565b925050508260208301529392505050565b600080600060408486031215613a1857600080fd5b8335925060208401356001600160401b0380821115613a3657600080fd5b818601915086601f830112613a4a57600080fd5b813581811115613a5957600080fd5b876020828501011115613a6b57600080fd5b6020830194508093505050509250925092565b60006001600160401b03831115613a9757613a97613386565b613aaa601f8401601f1916602001613409565b9050828152838383011115613abe57600080fd5b828260208301376000602084830101529392505050565b60008060408385031215613ae857600080fd5b8235613af38161354a565b915060208301356001600160401b0380821115613b0f57600080fd5b9084019060608287031215613b2357600080fd5b613b2b6133e7565b823582811115613b3a57600080fd5b83019150601f82018713613b4d57600080fd5b613b5c87833560208501613a7e565b815260208301356020820152604083013560408201528093505050509250929050565b60008060008060008060c08789031215613b9857600080fd5b8635955060208088013595506040880135945060608801356bffffffffffffffffffffffff1981168114613bcb57600080fd5b93506080880135925060a08801356001600160401b03811115613bed57600080fd5b8801601f81018a13613bfe57600080fd5b8035613c0c6135d48261357c565b81815260059190911b8201830190838101908c831115613c2b57600080fd5b928401925b82841015613c4957833582529284019290840190613c30565b80955050505050509295509295509295565b600060208284031215613c6d57600080fd5b81356001600160401b03811115613c8357600080fd5b8201601f81018413613c9457600080fd5b613ca384823560208401613a7e565b949350505050565b600060208284031215613cbd57600080fd5b5035919050565b634e487b7160e01b600052603260045260246000fd5b600082613cf757634e487b7160e01b600052601260045260246000fd5b500690565b634e487b7160e01b600052601160045260246000fd5b60006001600160601b0380831681851681830481118215151615613d3857613d38613cfc565b02949350505050565b6000816000190483118215151615613d5b57613d5b613cfc565b500290565b600060208284031215613d7257600080fd5b5051919050565b600060208284031215613d8b57600080fd5b81516001600160c01b0381168114612d5657600080fd5b600060208284031215613db457600080fd5b815160ff81168114612d5657600080fd5b60008219821115613dd857613dd8613cfc565b500190565b6000600019821415613df157613df1613cfc565b5060010190565b80516001600160601b0381168114612f0457600080fd5b600060408284031215613e2157600080fd5b613e2961339c565b8251613e348161354a565b8152613e4260208401613df8565b60208201529392505050565b600060208284031215613e6057600080fd5b8151612d568161354a565b600082821015613e7d57613e7d613cfc565b500390565b600060208284031215613e9457600080fd5b815167ffffffffffffffff1981168114612d5657600080fd5b600060208284031215613ebf57600080fd5b612d5682613df8565b60006001600160601b0383811690831681811015613ee857613ee8613cfc565b039392505050565b63ffffffff60e01b8360e01b1681526000600482018351602080860160005b83811015613f2b57815185529382019390820190600101613f0f565b5092979650505050505050565b63ffffffff8416815260406020820152816040820152818360608301376000818301606090810191909152601f909201601f1916010192915050565b60208082526052908201527f536572766963654d616e61676572426173652e6f6e6c7952656769737472794360408201527f6f6f7264696e61746f723a2063616c6c6572206973206e6f742074686520726560608201527133b4b9ba393c9031b7b7b93234b730ba37b960711b608082015260a00190565b6000815180845260005b8181101561401257602081850181015186830182015201613ff6565b81811115614024576000602083870101525b50601f01601f19169290920160200192915050565b60018060a01b038316815260406020820152600082516060604084015261406360a0840182613fec565b90506020840151606084015260408401516080840152809150509392505050565b602081526000612d566020830184613fec565b600061ffff808316818114156140af576140af613cfc565b600101939250505056fe30644e72e131a029b85045b68181585d97816a916871ca8d3c208c16d87cfd47424c535369676e6174757265436865636b65722e636865636b5369676e617475a264697066735822122081f72020c1a4b49b993db1cf1c49de696f3dddbda584f12d6ad94e2f664f399664736f6c634300080c0033","linkReferences":{}},"methodIdentifiers":{"avsDirectory()":"6b3aa72e","batchesState(bytes32)":"b099627e","blsApkRegistry()":"5df45946","checkSignatures(bytes32,uint32,(uint32[],(uint256,uint256)[],(uint256,uint256)[],(uint256[2],uint256[2]),(uint256,uint256),uint32[],uint32[],uint32[][]))":"4ae07c37","createNewTask(bytes32,string)":"5c008994","delegation()":"df5cf723","deregisterOperatorFromAVS(address)":"a364f4da","getOperatorRestakedStrategies(address)":"33cfb7b7","getRestakeableStrategies()":"e481af9d","initialize(address,address)":"485cc955","isAggregator(address)":"1e8f3c95","owner()":"8da5cb5b","registerOperatorToAVS(address,(bytes,bytes32,uint256))":"9926ee7d","registryCoordinator()":"6d14a987","renounceOwnership()":"715018a6","respondToTask(bytes32,(uint32[],(uint256,uint256)[],(uint256,uint256)[],(uint256[2],uint256[2]),(uint256,uint256),uint32[],uint32[],uint32[][]))":"2dd94eba","setStaleStakesForbidden(bool)":"416c7e5e","stakeRegistry()":"68304835","staleStakesForbidden()":"b98d0908","transferOwnership(address)":"f2fde38b","trySignatureAndApkVerification(bytes32,(uint256,uint256),(uint256[2],uint256[2]),(uint256,uint256))":"171f1d5b","updateAVSMetadataURI(string)":"a98fb355","verifyBatchInclusion(bytes32,bytes32,bytes32,bytes20,bytes32,bytes32[])":"9f9f3976"},"id":111}