{
    "abi": [
        {
            "type": "constructor",
            "inputs": [
                {
                    "name": "__avsDirectory",
                    "type": "address",
                    "internalType": "contract IAVSDirectory"
                },
                {
                    "name": "__registryCoordinator",
                    "type": "address",
                    "internalType": "contract IRegistryCoordinator"
                },
                {
                    "name": "__stakeRegistry",
                    "type": "address",
                    "internalType": "contract IStakeRegistry"
                }
            ],
            "stateMutability": "nonpayable"
        },
        {
            "type": "function",
            "name": "avsDirectory",
            "inputs": [],
            "outputs": [
                {
                    "name": "",
                    "type": "address",
                    "internalType": "address"
                }
            ],
            "stateMutability": "view"
        },
        {
            "type": "function",
            "name": "batchesState",
            "inputs": [
                {
                    "name": "",
                    "type": "bytes32",
                    "internalType": "bytes32"
                }
            ],
            "outputs": [
                {
                    "name": "taskCreatedBlock",
                    "type": "uint32",
                    "internalType": "uint32"
                },
                {
                    "name": "responded",
                    "type": "bool",
                    "internalType": "bool"
                }
            ],
            "stateMutability": "view"
        },
        {
            "type": "function",
            "name": "blsApkRegistry",
            "inputs": [],
            "outputs": [
                {
                    "name": "",
                    "type": "address",
                    "internalType": "contract IBLSApkRegistry"
                }
            ],
            "stateMutability": "view"
        },
        {
            "type": "function",
            "name": "checkSignatures",
            "inputs": [
                {
                    "name": "msgHash",
                    "type": "bytes32",
                    "internalType": "bytes32"
                },
                {
                    "name": "referenceBlockNumber",
                    "type": "uint32",
                    "internalType": "uint32"
                },
                {
                    "name": "params",
                    "type": "tuple",
                    "internalType": "struct IBLSSignatureChecker.NonSignerStakesAndSignature",
                    "components": [
                        {
                            "name": "nonSignerQuorumBitmapIndices",
                            "type": "uint32[]",
                            "internalType": "uint32[]"
                        },
                        {
                            "name": "nonSignerPubkeys",
                            "type": "tuple[]",
                            "internalType": "struct BN254.G1Point[]",
                            "components": [
                                {
                                    "name": "X",
                                    "type": "uint256",
                                    "internalType": "uint256"
                                },
                                {
                                    "name": "Y",
                                    "type": "uint256",
                                    "internalType": "uint256"
                                }
                            ]
                        },
                        {
                            "name": "quorumApks",
                            "type": "tuple[]",
                            "internalType": "struct BN254.G1Point[]",
                            "components": [
                                {
                                    "name": "X",
                                    "type": "uint256",
                                    "internalType": "uint256"
                                },
                                {
                                    "name": "Y",
                                    "type": "uint256",
                                    "internalType": "uint256"
                                }
                            ]
                        },
                        {
                            "name": "apkG2",
                            "type": "tuple",
                            "internalType": "struct BN254.G2Point",
                            "components": [
                                {
                                    "name": "X",
                                    "type": "uint256[2]",
                                    "internalType": "uint256[2]"
                                },
                                {
                                    "name": "Y",
                                    "type": "uint256[2]",
                                    "internalType": "uint256[2]"
                                }
                            ]
                        },
                        {
                            "name": "sigma",
                            "type": "tuple",
                            "internalType": "struct BN254.G1Point",
                            "components": [
                                {
                                    "name": "X",
                                    "type": "uint256",
                                    "internalType": "uint256"
                                },
                                {
                                    "name": "Y",
                                    "type": "uint256",
                                    "internalType": "uint256"
                                }
                            ]
                        },
                        {
                            "name": "quorumApkIndices",
                            "type": "uint32[]",
                            "internalType": "uint32[]"
                        },
                        {
                            "name": "totalStakeIndices",
                            "type": "uint32[]",
                            "internalType": "uint32[]"
                        },
                        {
                            "name": "nonSignerStakeIndices",
                            "type": "uint32[][]",
                            "internalType": "uint32[][]"
                        }
                    ]
                }
            ],
            "outputs": [
                {
                    "name": "",
                    "type": "tuple",
                    "internalType": "struct IBLSSignatureChecker.QuorumStakeTotals",
                    "components": [
                        {
                            "name": "signedStakeForQuorum",
                            "type": "uint96[]",
                            "internalType": "uint96[]"
                        },
                        {
                            "name": "totalStakeForQuorum",
                            "type": "uint96[]",
                            "internalType": "uint96[]"
                        }
                    ]
                },
                {
                    "name": "",
                    "type": "bytes32",
                    "internalType": "bytes32"
                }
            ],
            "stateMutability": "view"
        },
        {
            "type": "function",
            "name": "createNewTask",
            "inputs": [
                {
                    "name": "batchMerkleRoot",
                    "type": "bytes32",
                    "internalType": "bytes32"
                },
                {
                    "name": "batchDataPointer",
                    "type": "string",
                    "internalType": "string"
                }
            ],
            "outputs": [],
            "stateMutability": "payable"
        },
        {
            "type": "function",
            "name": "delegation",
            "inputs": [],
            "outputs": [
                {
                    "name": "",
                    "type": "address",
                    "internalType": "contract IDelegationManager"
                }
            ],
            "stateMutability": "view"
        },
        {
            "type": "function",
            "name": "deregisterOperatorFromAVS",
            "inputs": [
                {
                    "name": "operator",
                    "type": "address",
                    "internalType": "address"
                }
            ],
            "outputs": [],
            "stateMutability": "nonpayable"
        },
        {
            "type": "function",
            "name": "getOperatorRestakedStrategies",
            "inputs": [
                {
                    "name": "operator",
                    "type": "address",
                    "internalType": "address"
                }
            ],
            "outputs": [
                {
                    "name": "",
                    "type": "address[]",
                    "internalType": "address[]"
                }
            ],
            "stateMutability": "view"
        },
        {
            "type": "function",
            "name": "getRestakeableStrategies",
            "inputs": [],
            "outputs": [
                {
                    "name": "",
                    "type": "address[]",
                    "internalType": "address[]"
                }
            ],
            "stateMutability": "view"
        },
        {
            "type": "function",
            "name": "initialize",
            "inputs": [
                {
                    "name": "_initialOwner",
                    "type": "address",
                    "internalType": "address"
                },
                {
                    "name": "_aggregator",
                    "type": "address",
                    "internalType": "address"
                }
            ],
            "outputs": [],
            "stateMutability": "nonpayable"
        },
        {
            "type": "function",
            "name": "isAggregator",
            "inputs": [
                {
                    "name": "_aggregator",
                    "type": "address",
                    "internalType": "address"
                }
            ],
            "outputs": [
                {
                    "name": "",
                    "type": "bool",
                    "internalType": "bool"
                }
            ],
            "stateMutability": "view"
        },
        {
            "type": "function",
            "name": "owner",
            "inputs": [],
            "outputs": [
                {
                    "name": "",
                    "type": "address",
                    "internalType": "address"
                }
            ],
            "stateMutability": "view"
        },
        {
            "type": "function",
            "name": "registerOperatorToAVS",
            "inputs": [
                {
                    "name": "operator",
                    "type": "address",
                    "internalType": "address"
                },
                {
                    "name": "operatorSignature",
                    "type": "tuple",
                    "internalType": "struct ISignatureUtils.SignatureWithSaltAndExpiry",
                    "components": [
                        {
                            "name": "signature",
                            "type": "bytes",
                            "internalType": "bytes"
                        },
                        {
                            "name": "salt",
                            "type": "bytes32",
                            "internalType": "bytes32"
                        },
                        {
                            "name": "expiry",
                            "type": "uint256",
                            "internalType": "uint256"
                        }
                    ]
                }
            ],
            "outputs": [],
            "stateMutability": "nonpayable"
        },
        {
            "type": "function",
            "name": "registryCoordinator",
            "inputs": [],
            "outputs": [
                {
                    "name": "",
                    "type": "address",
                    "internalType": "contract IRegistryCoordinator"
                }
            ],
            "stateMutability": "view"
        },
        {
            "type": "function",
            "name": "renounceOwnership",
            "inputs": [],
            "outputs": [],
            "stateMutability": "nonpayable"
        },
        {
            "type": "function",
            "name": "respondToTask",
            "inputs": [
                {
                    "name": "batchMerkleRoot",
                    "type": "bytes32",
                    "internalType": "bytes32"
                },
                {
                    "name": "nonSignerStakesAndSignature",
                    "type": "tuple",
                    "internalType": "struct IBLSSignatureChecker.NonSignerStakesAndSignature",
                    "components": [
                        {
                            "name": "nonSignerQuorumBitmapIndices",
                            "type": "uint32[]",
                            "internalType": "uint32[]"
                        },
                        {
                            "name": "nonSignerPubkeys",
                            "type": "tuple[]",
                            "internalType": "struct BN254.G1Point[]",
                            "components": [
                                {
                                    "name": "X",
                                    "type": "uint256",
                                    "internalType": "uint256"
                                },
                                {
                                    "name": "Y",
                                    "type": "uint256",
                                    "internalType": "uint256"
                                }
                            ]
                        },
                        {
                            "name": "quorumApks",
                            "type": "tuple[]",
                            "internalType": "struct BN254.G1Point[]",
                            "components": [
                                {
                                    "name": "X",
                                    "type": "uint256",
                                    "internalType": "uint256"
                                },
                                {
                                    "name": "Y",
                                    "type": "uint256",
                                    "internalType": "uint256"
                                }
                            ]
                        },
                        {
                            "name": "apkG2",
                            "type": "tuple",
                            "internalType": "struct BN254.G2Point",
                            "components": [
                                {
                                    "name": "X",
                                    "type": "uint256[2]",
                                    "internalType": "uint256[2]"
                                },
                                {
                                    "name": "Y",
                                    "type": "uint256[2]",
                                    "internalType": "uint256[2]"
                                }
                            ]
                        },
                        {
                            "name": "sigma",
                            "type": "tuple",
                            "internalType": "struct BN254.G1Point",
                            "components": [
                                {
                                    "name": "X",
                                    "type": "uint256",
                                    "internalType": "uint256"
                                },
                                {
                                    "name": "Y",
                                    "type": "uint256",
                                    "internalType": "uint256"
                                }
                            ]
                        },
                        {
                            "name": "quorumApkIndices",
                            "type": "uint32[]",
                            "internalType": "uint32[]"
                        },
                        {
                            "name": "totalStakeIndices",
                            "type": "uint32[]",
                            "internalType": "uint32[]"
                        },
                        {
                            "name": "nonSignerStakeIndices",
                            "type": "uint32[][]",
                            "internalType": "uint32[][]"
                        }
                    ]
                }
            ],
            "outputs": [],
            "stateMutability": "nonpayable"
        },
        {
            "type": "function",
            "name": "setStaleStakesForbidden",
            "inputs": [
                {
                    "name": "value",
                    "type": "bool",
                    "internalType": "bool"
                }
            ],
            "outputs": [],
            "stateMutability": "nonpayable"
        },
        {
            "type": "function",
            "name": "stakeRegistry",
            "inputs": [],
            "outputs": [
                {
                    "name": "",
                    "type": "address",
                    "internalType": "contract IStakeRegistry"
                }
            ],
            "stateMutability": "view"
        },
        {
            "type": "function",
            "name": "staleStakesForbidden",
            "inputs": [],
            "outputs": [
                {
                    "name": "",
                    "type": "bool",
                    "internalType": "bool"
                }
            ],
            "stateMutability": "view"
        },
        {
            "type": "function",
            "name": "transferOwnership",
            "inputs": [
                {
                    "name": "newOwner",
                    "type": "address",
                    "internalType": "address"
                }
            ],
            "outputs": [],
            "stateMutability": "nonpayable"
        },
        {
            "type": "function",
            "name": "trySignatureAndApkVerification",
            "inputs": [
                {
                    "name": "msgHash",
                    "type": "bytes32",
                    "internalType": "bytes32"
                },
                {
                    "name": "apk",
                    "type": "tuple",
                    "internalType": "struct BN254.G1Point",
                    "components": [
                        {
                            "name": "X",
                            "type": "uint256",
                            "internalType": "uint256"
                        },
                        {
                            "name": "Y",
                            "type": "uint256",
                            "internalType": "uint256"
                        }
                    ]
                },
                {
                    "name": "apkG2",
                    "type": "tuple",
                    "internalType": "struct BN254.G2Point",
                    "components": [
                        {
                            "name": "X",
                            "type": "uint256[2]",
                            "internalType": "uint256[2]"
                        },
                        {
                            "name": "Y",
                            "type": "uint256[2]",
                            "internalType": "uint256[2]"
                        }
                    ]
                },
                {
                    "name": "sigma",
                    "type": "tuple",
                    "internalType": "struct BN254.G1Point",
                    "components": [
                        {
                            "name": "X",
                            "type": "uint256",
                            "internalType": "uint256"
                        },
                        {
                            "name": "Y",
                            "type": "uint256",
                            "internalType": "uint256"
                        }
                    ]
                }
            ],
            "outputs": [
                {
                    "name": "pairingSuccessful",
                    "type": "bool",
                    "internalType": "bool"
                },
                {
                    "name": "siganatureIsValid",
                    "type": "bool",
                    "internalType": "bool"
                }
            ],
            "stateMutability": "view"
        },
        {
            "type": "function",
            "name": "updateAVSMetadataURI",
            "inputs": [
                {
                    "name": "_metadataURI",
                    "type": "string",
                    "internalType": "string"
                }
            ],
            "outputs": [],
            "stateMutability": "nonpayable"
        },
        {
            "type": "function",
            "name": "verifyBatchInclusion",
            "inputs": [
                {
                    "name": "batchMerkleRoot",
                    "type": "bytes32",
                    "internalType": "bytes32"
                },
                {
                    "name": "proofCommitment",
                    "type": "bytes32",
                    "internalType": "bytes32"
                }
            ],
            "outputs": [
                {
                    "name": "",
                    "type": "bool",
                    "internalType": "bool"
                }
            ],
            "stateMutability": "nonpayable"
        },
        {
            "type": "event",
            "name": "BatchVerified",
            "inputs": [
                {
                    "name": "batchMerkleRoot",
                    "type": "bytes32",
                    "indexed": true,
                    "internalType": "bytes32"
                }
            ],
            "anonymous": false
        },
        {
            "type": "event",
            "name": "Initialized",
            "inputs": [
                {
                    "name": "version",
                    "type": "uint8",
                    "indexed": false,
                    "internalType": "uint8"
                }
            ],
            "anonymous": false
        },
        {
            "type": "event",
            "name": "NewBatch",
            "inputs": [
                {
                    "name": "batchMerkleRoot",
                    "type": "bytes32",
                    "indexed": true,
                    "internalType": "bytes32"
                },
                {
                    "name": "taskCreatedBlock",
                    "type": "uint32",
                    "indexed": false,
                    "internalType": "uint32"
                },
                {
                    "name": "batchDataPointer",
                    "type": "string",
                    "indexed": false,
                    "internalType": "string"
                }
            ],
            "anonymous": false
        },
        {
            "type": "event",
            "name": "OwnershipTransferred",
            "inputs": [
                {
                    "name": "previousOwner",
                    "type": "address",
                    "indexed": true,
                    "internalType": "address"
                },
                {
                    "name": "newOwner",
                    "type": "address",
                    "indexed": true,
                    "internalType": "address"
                }
            ],
            "anonymous": false
        },
        {
            "type": "event",
            "name": "StaleStakesForbiddenUpdate",
            "inputs": [
                {
                    "name": "value",
                    "type": "bool",
                    "indexed": false,
                    "internalType": "bool"
                }
            ],
            "anonymous": false
        }
    ],
    "bytecode": {
        "object": "0x6101606040523480156200001257600080fd5b50604051620043ca380380620043ca8339810160408190526200003591620002da565b6001600160a01b0380841660c052808316608052811660a052818381836200005c620001ff565b5050506001600160a01b03811660e081905260408051636830483560e01b815290516368304835916004808201926020929091908290030181865afa158015620000aa573d6000803e3d6000fd5b505050506040513d601f19601f82011682018060405250810190620000d091906200032e565b6001600160a01b0316610100816001600160a01b031681525050806001600160a01b0316635df459466040518163ffffffff1660e01b8152600401602060405180830381865afa15801562000129573d6000803e3d6000fd5b505050506040513d601f19601f820116820180604052508101906200014f91906200032e565b6001600160a01b0316610120816001600160a01b031681525050610100516001600160a01b031663df5cf7236040518163ffffffff1660e01b8152600401602060405180830381865afa158015620001ab573d6000803e3d6000fd5b505050506040513d601f19601f82011682018060405250810190620001d191906200032e565b6001600160a01b031661014052506097805460ff19166001179055620001f6620001ff565b50505062000355565b600054610100900460ff16156200026c5760405162461bcd60e51b815260206004820152602760248201527f496e697469616c697a61626c653a20636f6e747261637420697320696e697469604482015266616c697a696e6760c81b606482015260840160405180910390fd5b60005460ff9081161015620002bf576000805460ff191660ff9081179091556040519081527f7f26b83ff96e1f2b6a682f133852f6798a09c465da95921460cefb38474024989060200160405180910390a15b565b6001600160a01b0381168114620002d757600080fd5b50565b600080600060608486031215620002f057600080fd5b8351620002fd81620002c1565b60208501519093506200031081620002c1565b60408501519092506200032381620002c1565b809150509250925092565b6000602082840312156200034157600080fd5b81516200034e81620002c1565b9392505050565b60805160a05160c05160e051610100516101205161014051613f806200044a600039600081816104b201526116cf0152600081816102c201526118e201526000818161030e01528181611acf0152611cbf01526000818161037501528181610d7e0152818161138b01528181611532015261178301526000818161033f015281816120ee015281816121c20152612241015260008181610aa701528181610c0201528181610c990152818161233e015281816124c101526125600152600081816108d201528181610961015281816109e10152818161209a015281816121660152818161227c015261241c0152613f806000f3fe6080604052600436106101405760003560e01c80636b3aa72e116100b6578063a98fb3551161006f578063a98fb3551461040a578063b099627e1461042a578063b98d090814610486578063df5cf723146104a0578063e481af9d146104d4578063f2fde38b146104e957600080fd5b80636b3aa72e146103305780636d14a98714610363578063715018a6146103975780638da5cb5b146103ac5780639926ee7d146103ca578063a364f4da146103ea57600080fd5b8063416c7e5e11610108578063416c7e5e1461022f578063485cc9551461024f5780634ae07c371461026f5780635c0089941461029d5780635df45946146102b057806368304835146102fc57600080fd5b8063171f1d5b146101455780631e8f3c9514610181578063218bc878146101c05780632dd94eba146101e057806333cfb7b714610202575b600080fd5b34801561015157600080fd5b50610165610160366004613404565b610509565b6040805192151583529015156020830152015b60405180910390f35b34801561018d57600080fd5b506101b061019c36600461346a565b60c9546001600160a01b0390811691161490565b6040519015158152602001610178565b3480156101cc57600080fd5b506101b06101db366004613487565b610693565b3480156101ec57600080fd5b506102006101fb36600461375f565b61069c565b005b34801561020e57600080fd5b5061022261021d36600461346a565b6108ad565b60405161017891906137a5565b34801561023b57600080fd5b5061020061024a3660046137f2565b610d7c565b34801561025b57600080fd5b5061020061026a366004613814565b610ef1565b34801561027b57600080fd5b5061028f61028a36600461384d565b611020565b6040516101789291906138e7565b6102006102ab366004613930565b611f89565b3480156102bc57600080fd5b506102e47f000000000000000000000000000000000000000000000000000000000000000081565b6040516001600160a01b039091168152602001610178565b34801561030857600080fd5b506102e47f000000000000000000000000000000000000000000000000000000000000000081565b34801561033c57600080fd5b507f00000000000000000000000000000000000000000000000000000000000000006102e4565b34801561036f57600080fd5b506102e47f000000000000000000000000000000000000000000000000000000000000000081565b3480156103a357600080fd5b5061020061207b565b3480156103b857600080fd5b506033546001600160a01b03166102e4565b3480156103d657600080fd5b506102006103e5366004613a02565b61208f565b3480156103f657600080fd5b5061020061040536600461346a565b61215b565b34801561041657600080fd5b50610200610425366004613aac565b612222565b34801561043657600080fd5b5061046a610445366004613afc565b60ca6020526000908152604090205463ffffffff811690640100000000900460ff1682565b6040805163ffffffff9093168352901515602083015201610178565b34801561049257600080fd5b506097546101b09060ff1681565b3480156104ac57600080fd5b506102e47f000000000000000000000000000000000000000000000000000000000000000081565b3480156104e057600080fd5b50610222612276565b3480156104f557600080fd5b5061020061050436600461346a565b61263f565b60008060007f30644e72e131a029b85045b68181585d2833e84879b9709143e1f593f00000018787600001518860200151886000015160006002811061055157610551613b15565b60200201518951600160200201518a6020015160006002811061057657610576613b15565b60200201518b6020015160016002811061059257610592613b15565b602090810291909101518c518d8301516040516105ef9a99989796959401988952602089019790975260408801959095526060870193909352608086019190915260a085015260c084015260e08301526101008201526101200190565b6040516020818303038152906040528051906020012060001c6106129190613b2b565b905061068561062b61062488846126b8565b869061274f565b6106336127e3565b61067b61066c85610666604080518082018252600080825260209182015281518083019092526001825260029082015290565b906126b8565b6106758c6128a3565b9061274f565b886201d4c0612933565b909890975095505050505050565b60015b92915050565b600082815260ca602052604090205463ffffffff166106f95760405162461bcd60e51b8152602060048201526014602482015273426174636820646f65736e27742065786973747360601b60448201526064015b60405180910390fd5b600082815260ca6020526040902054640100000000900460ff16156107605760405162461bcd60e51b815260206004820152601760248201527f426174636820616c726561647920726573706f6e64656400000000000000000060448201526064016106f0565b600082815260ca60205260408120805464ff0000000019811664010000000017909155819061079790859063ffffffff1685611020565b91509150604360ff1682602001516000815181106107b7576107b7613b15565b60200260200101516107c99190613b63565b6001600160601b0316606483600001516000815181106107eb576107eb613b15565b60200260200101516001600160601b03166108069190613b92565b101561087c576040805162461bcd60e51b81526020600482015260248101919091527f5369676e61746f7269657320646f206e6f74206f776e206174206c656173742060448201527f7468726573686f6c642070657263656e74616765206f6620612071756f72756d60648201526084016106f0565b60405184907f433ae0767fe95db70a0e30eda902926e41203b9eb97ec5175076fb9e2d35c13e90600090a250505050565b6040516309aa152760e11b81526001600160a01b0382811660048301526060916000917f000000000000000000000000000000000000000000000000000000000000000016906313542a4e90602401602060405180830381865afa158015610919573d6000803e3d6000fd5b505050506040513d601f19601f8201168201806040525081019061093d9190613bb1565b60405163871ef04960e01b8152600481018290529091506000906001600160a01b037f0000000000000000000000000000000000000000000000000000000000000000169063871ef04990602401602060405180830381865afa1580156109a8573d6000803e3d6000fd5b505050506040513d601f19601f820116820180604052508101906109cc9190613bca565b90506001600160c01b0381161580610a6657507f00000000000000000000000000000000000000000000000000000000000000006001600160a01b0316639aa1653d6040518163ffffffff1660e01b8152600401602060405180830381865afa158015610a3d573d6000803e3d6000fd5b505050506040513d601f19601f82011682018060405250810190610a619190613bf3565b60ff16155b15610a8257505060408051600081526020810190915292915050565b6000610a96826001600160c01b0316612b57565b90506000805b8251811015610b6c577f00000000000000000000000000000000000000000000000000000000000000006001600160a01b0316633ca5a5f5848381518110610ae657610ae6613b15565b01602001516040516001600160e01b031960e084901b16815260f89190911c6004820152602401602060405180830381865afa158015610b2a573d6000803e3d6000fd5b505050506040513d601f19601f82011682018060405250810190610b4e9190613bb1565b610b589083613c16565b915080610b6481613c2e565b915050610a9c565b506000816001600160401b03811115610b8757610b87613291565b604051908082528060200260200182016040528015610bb0578160200160208202803683370190505b5090506000805b8451811015610d6f576000858281518110610bd457610bd4613b15565b0160200151604051633ca5a5f560e01b815260f89190911c6004820181905291506000906001600160a01b037f00000000000000000000000000000000000000000000000000000000000000001690633ca5a5f590602401602060405180830381865afa158015610c49573d6000803e3d6000fd5b505050506040513d601f19601f82011682018060405250810190610c6d9190613bb1565b905060005b81811015610d59576040516356e4026d60e11b815260ff84166004820152602481018290527f00000000000000000000000000000000000000000000000000000000000000006001600160a01b03169063adc804da906044016040805180830381865afa158015610ce7573d6000803e3d6000fd5b505050506040513d601f19601f82011682018060405250810190610d0b9190613c60565b60000151868681518110610d2157610d21613b15565b6001600160a01b039092166020928302919091019091015284610d4381613c2e565b9550508080610d5190613c2e565b915050610c72565b5050508080610d6790613c2e565b915050610bb7565b5090979650505050505050565b7f00000000000000000000000000000000000000000000000000000000000000006001600160a01b0316638da5cb5b6040518163ffffffff1660e01b8152600401602060405180830381865afa158015610dda573d6000803e3d6000fd5b505050506040513d601f19601f82011682018060405250810190610dfe9190613c9f565b6001600160a01b0316336001600160a01b031614610eaa5760405162461bcd60e51b815260206004820152605c60248201527f424c535369676e6174757265436865636b65722e6f6e6c79436f6f7264696e6160448201527f746f724f776e65723a2063616c6c6572206973206e6f7420746865206f776e6560648201527f72206f6620746865207265676973747279436f6f7264696e61746f7200000000608482015260a4016106f0565b6097805460ff19168215159081179091556040519081527f40e4ed880a29e0f6ddce307457fb75cddf4feef7d3ecb0301bfdf4976a0e2dfc9060200160405180910390a150565b600054610100900460ff1615808015610f115750600054600160ff909116105b80610f2b5750303b158015610f2b575060005460ff166001145b610f8e5760405162461bcd60e51b815260206004820152602e60248201527f496e697469616c697a61626c653a20636f6e747261637420697320616c72656160448201526d191e481a5b9a5d1a585b1a5e995960921b60648201526084016106f0565b6000805460ff191660011790558015610fb1576000805461ff0019166101001790555b610fba83612c19565b60c980546001600160a01b0319166001600160a01b038416179055801561101b576000805461ff0019169055604051600181527f7f26b83ff96e1f2b6a682f133852f6798a09c465da95921460cefb38474024989060200160405180910390a15b505050565b604080518082019091526060808252602082015260408051808201909152600181526000602090910181905282604001515160405180604001604052806001815260200160008152505114801561109257508260a0015151604051806040016040528060018152602001600081525051145b80156110b957508260c0015151604051806040016040528060018152602001600081525051145b80156110e057508260e0015151604051806040016040528060018152602001600081525051145b61114a5760405162461bcd60e51b81526020600482015260416024820152600080516020613f2b83398151915260448201527f7265733a20696e7075742071756f72756d206c656e677468206d69736d6174636064820152600d60fb1b608482015260a4016106f0565b825151602084015151146111c25760405162461bcd60e51b815260206004820152604460248201819052600080516020613f2b833981519152908201527f7265733a20696e707574206e6f6e7369676e6572206c656e677468206d69736d6064820152630c2e8c6d60e31b608482015260a4016106f0565b4363ffffffff168463ffffffff16106112315760405162461bcd60e51b815260206004820152603c6024820152600080516020613f2b83398151915260448201527f7265733a20696e76616c6964207265666572656e636520626c6f636b0000000060648201526084016106f0565b60408051808201825260008082526020808301829052835180850185526060808252818301528451808601865260018082529083019390935284518381528086019095529293919082810190803683370190505060208281019190915260408051808201825260018082526000919093015280518281528082019091529081602001602082028036833701905050815260408051808201909152606080825260208201528560200151516001600160401b038111156112f2576112f2613291565b60405190808252806020026020018201604052801561131b578160200160208202803683370190505b5081526020860151516001600160401b0381111561133b5761133b613291565b604051908082528060200260200182016040528015611364578160200160208202803683370190505b508160200181905250600061141060405180604001604052806001815260200160008152507f00000000000000000000000000000000000000000000000000000000000000006001600160a01b0316639aa1653d6040518163ffffffff1660e01b8152600401602060405180830381865afa1580156113e7573d6000803e3d6000fd5b505050506040513d601f19601f8201168201806040525081019061140b9190613bf3565b612c6b565b905060005b8760200151518110156116ab5761145a8860200151828151811061143b5761143b613b15565b6020026020010151805160009081526020918201519091526040902090565b8360200151828151811061147057611470613b15565b60209081029190910101528015611530576020830151611491600183613cbc565b815181106114a1576114a1613b15565b602002602001015160001c836020015182815181106114c2576114c2613b15565b602002602001015160001c11611530576040805162461bcd60e51b8152602060048201526024810191909152600080516020613f2b83398151915260448201527f7265733a206e6f6e5369676e65725075626b657973206e6f7420736f7274656460648201526084016106f0565b7f00000000000000000000000000000000000000000000000000000000000000006001600160a01b03166304ec63518460200151838151811061157557611575613b15565b60200260200101518b8b60000151858151811061159457611594613b15565b60200260200101516040518463ffffffff1660e01b81526004016115d19392919092835263ffffffff918216602084015216604082015260600190565b602060405180830381865afa1580156115ee573d6000803e3d6000fd5b505050506040513d601f19601f820116820180604052508101906116129190613bca565b6001600160c01b03168360000151828151811061163157611631613b15565b60200260200101818152505061169761062461166b848660000151858151811061165d5761165d613b15565b602002602001015116612cfc565b8a60200151848151811061168157611681613b15565b6020026020010151612d2790919063ffffffff16565b9450806116a381613c2e565b915050611415565b50506116b683612e0b565b60975490935060ff166000816116cd57600061174f565b7f00000000000000000000000000000000000000000000000000000000000000006001600160a01b031663c448feb86040518163ffffffff1660e01b8152600401602060405180830381865afa15801561172b573d6000803e3d6000fd5b505050506040513d601f19601f8201168201806040525081019061174f9190613bb1565b905060005b604051806040016040528060018152602001600081525051811015611e5a5782156118e0578963ffffffff16827f00000000000000000000000000000000000000000000000000000000000000006001600160a01b031663249a0c42604051806040016040528060018152602001600081525085815181106117d8576117d8613b15565b01602001516040516001600160e01b031960e084901b16815260f89190911c6004820152602401602060405180830381865afa15801561181c573d6000803e3d6000fd5b505050506040513d601f19601f820116820180604052508101906118409190613bb1565b61184a9190613c16565b116118e05760405162461bcd60e51b81526020600482015260666024820152600080516020613f2b83398151915260448201527f7265733a205374616b6552656769737472792075706461746573206d7573742060648201527f62652077697468696e207769746864726177616c44656c6179426c6f636b732060848201526577696e646f7760d01b60a482015260c4016106f0565b7f00000000000000000000000000000000000000000000000000000000000000006001600160a01b03166368bccaac6040518060400160405280600181526020016000815250838151811061193757611937613b15565b602001015160f81c60f81b60f81c8c8c60a00151858151811061195c5761195c613b15565b60209081029190910101516040516001600160e01b031960e086901b16815260ff909316600484015263ffffffff9182166024840152166044820152606401602060405180830381865afa1580156119b8573d6000803e3d6000fd5b505050506040513d601f19601f820116820180604052508101906119dc9190613cd3565b6001600160401b0319166119ff8a60400151838151811061143b5761143b613b15565b67ffffffffffffffff191614611a9b5760405162461bcd60e51b81526020600482015260616024820152600080516020613f2b83398151915260448201527f7265733a2071756f72756d41706b206861736820696e2073746f72616765206460648201527f6f6573206e6f74206d617463682070726f76696465642071756f72756d2061706084820152606b60f81b60a482015260c4016106f0565b611acb89604001518281518110611ab457611ab4613b15565b60200260200101518761274f90919063ffffffff16565b95507f00000000000000000000000000000000000000000000000000000000000000006001600160a01b031663c8294c5660405180604001604052806001815260200160008152508381518110611b2457611b24613b15565b602001015160f81c60f81b60f81c8c8c60c001518581518110611b4957611b49613b15565b60209081029190910101516040516001600160e01b031960e086901b16815260ff909316600484015263ffffffff9182166024840152166044820152606401602060405180830381865afa158015611ba5573d6000803e3d6000fd5b505050506040513d601f19601f82011682018060405250810190611bc99190613cfe565b85602001518281518110611bdf57611bdf613b15565b6001600160601b03909216602092830291909101820152850151805182908110611c0b57611c0b613b15565b602002602001015185600001518281518110611c2957611c29613b15565b60200260200101906001600160601b031690816001600160601b0316815250506000805b8a6020015151811015611e4557611cb886600001518281518110611c7357611c73613b15565b602002602001015160405180604001604052806001815260200160008152508581518110611ca357611ca3613b15565b016020015160f81c60ff161c60019081161490565b15611e33577f00000000000000000000000000000000000000000000000000000000000000006001600160a01b031663f2be94ae60405180604001604052806001815260200160008152508581518110611d1457611d14613b15565b602001015160f81c60f81b60f81c8e89602001518581518110611d3957611d39613b15565b60200260200101518f60e001518881518110611d5757611d57613b15565b60200260200101518781518110611d7057611d70613b15565b60209081029190910101516040516001600160e01b031960e087901b16815260ff909416600485015263ffffffff92831660248501526044840191909152166064820152608401602060405180830381865afa158015611dd4573d6000803e3d6000fd5b505050506040513d601f19601f82011682018060405250810190611df89190613cfe565b8751805185908110611e0c57611e0c613b15565b60200260200101818151611e209190613d19565b6001600160601b03169052506001909101905b80611e3d81613c2e565b915050611c4d565b50508080611e5290613c2e565b915050611754565b505050600080611e748a868a606001518b60800151610509565b9150915081611ee55760405162461bcd60e51b81526020600482015260436024820152600080516020613f2b83398151915260448201527f7265733a2070616972696e6720707265636f6d70696c652063616c6c206661696064820152621b195960ea1b608482015260a4016106f0565b80611f465760405162461bcd60e51b81526020600482015260396024820152600080516020613f2b83398151915260448201527f7265733a207369676e617475726520697320696e76616c69640000000000000060648201526084016106f0565b50506000878260200151604051602001611f61929190613d41565b60408051808303601f1901815291905280516020909101209299929850919650505050505050565b600083815260ca602052604090205463ffffffff1615611feb5760405162461bcd60e51b815260206004820152601a60248201527f42617463682077617320616c726561647920766572696669656400000000000060448201526064016106f0565b6040805180820182526000602080830182815263ffffffff43818116865289855260ca9093529285902084518154925115156401000000000264ffffffffff19909316941693909317179091559151909185917f1871c33134a542e0ab9facf7013d27b9ed95e64d299e9919ee091c9cfcb19fa59161206d9187908790613d89565b60405180910390a250505050565b612083612ea6565b61208d6000612c19565b565b336001600160a01b037f000000000000000000000000000000000000000000000000000000000000000016146120d75760405162461bcd60e51b81526004016106f090613dc5565b604051639926ee7d60e01b81526001600160a01b037f00000000000000000000000000000000000000000000000000000000000000001690639926ee7d906121259085908590600401613e8a565b600060405180830381600087803b15801561213f57600080fd5b505af1158015612153573d6000803e3d6000fd5b505050505050565b336001600160a01b037f000000000000000000000000000000000000000000000000000000000000000016146121a35760405162461bcd60e51b81526004016106f090613dc5565b6040516351b27a6d60e11b81526001600160a01b0382811660048301527f0000000000000000000000000000000000000000000000000000000000000000169063a364f4da906024015b600060405180830381600087803b15801561220757600080fd5b505af115801561221b573d6000803e3d6000fd5b5050505050565b61222a612ea6565b60405163a98fb35560e01b81526001600160a01b037f0000000000000000000000000000000000000000000000000000000000000000169063a98fb355906121ed908490600401613ed5565b606060007f00000000000000000000000000000000000000000000000000000000000000006001600160a01b0316639aa1653d6040518163ffffffff1660e01b8152600401602060405180830381865afa1580156122d8573d6000803e3d6000fd5b505050506040513d601f19601f820116820180604052508101906122fc9190613bf3565b60ff1690508061231a57505060408051600081526020810190915290565b6000805b828110156123cf57604051633ca5a5f560e01b815260ff821660048201527f00000000000000000000000000000000000000000000000000000000000000006001600160a01b031690633ca5a5f590602401602060405180830381865afa15801561238d573d6000803e3d6000fd5b505050506040513d601f19601f820116820180604052508101906123b19190613bb1565b6123bb9083613c16565b9150806123c781613c2e565b91505061231e565b506000816001600160401b038111156123ea576123ea613291565b604051908082528060200260200182016040528015612413578160200160208202803683370190505b5090506000805b7f00000000000000000000000000000000000000000000000000000000000000006001600160a01b0316639aa1653d6040518163ffffffff1660e01b8152600401602060405180830381865afa158015612478573d6000803e3d6000fd5b505050506040513d601f19601f8201168201806040525081019061249c9190613bf3565b60ff1681101561263557604051633ca5a5f560e01b815260ff821660048201526000907f00000000000000000000000000000000000000000000000000000000000000006001600160a01b031690633ca5a5f590602401602060405180830381865afa158015612510573d6000803e3d6000fd5b505050506040513d601f19601f820116820180604052508101906125349190613bb1565b905060005b81811015612620576040516356e4026d60e11b815260ff84166004820152602481018290527f00000000000000000000000000000000000000000000000000000000000000006001600160a01b03169063adc804da906044016040805180830381865afa1580156125ae573d6000803e3d6000fd5b505050506040513d601f19601f820116820180604052508101906125d29190613c60565b600001518585815181106125e8576125e8613b15565b6001600160a01b03909216602092830291909101909101528361260a81613c2e565b945050808061261890613c2e565b915050612539565b5050808061262d90613c2e565b91505061241a565b5090949350505050565b612647612ea6565b6001600160a01b0381166126ac5760405162461bcd60e51b815260206004820152602660248201527f4f776e61626c653a206e6577206f776e657220697320746865207a65726f206160448201526564647265737360d01b60648201526084016106f0565b6126b581612c19565b50565b60408051808201909152600080825260208201526126d46131b7565b835181526020808501519082015260408082018490526000908360608460076107d05a03fa905080801561270757612709565bfe5b50806127475760405162461bcd60e51b815260206004820152600d60248201526c1958cb5b5d5b0b59985a5b1959609a1b60448201526064016106f0565b505092915050565b604080518082019091526000808252602082015261276b6131d5565b835181526020808501518183015283516040808401919091529084015160608301526000908360808460066107d05a03fa90508080156127075750806127475760405162461bcd60e51b815260206004820152600d60248201526c1958cb5859190b59985a5b1959609a1b60448201526064016106f0565b6127eb6131f3565b50604080516080810182527f198e9393920d483a7260bfb731fb5d25f1aa493335a9e71297e485b7aef312c28183019081527f1800deef121f1e76426a00665e5c4479674322d4f75edadd46debd5cd992f6ed6060830152815281518083019092527f275dc4a288d1afb3cbb1ac09187524c7db36395df7be3b99e673b13a075a65ec82527f1d9befcd05a5323e6da4d435f3b617cdb3af83285c2df711ef39c01571827f9d60208381019190915281019190915290565b6040805180820190915260008082526020820152600080806128d3600080516020613f0b83398151915286613b2b565b90505b6128df81612f00565b9093509150600080516020613f0b833981519152828309831415612919576040805180820190915290815260208101919091529392505050565b600080516020613f0b8339815191526001820890506128d6565b604080518082018252868152602080820186905282518084019093528683528201849052600091829190612965613218565b60005b6002811015612b2a57600061297e826006613b92565b905084826002811061299257612992613b15565b602002015151836129a4836000613c16565b600c81106129b4576129b4613b15565b60200201528482600281106129cb576129cb613b15565b602002015160200151838260016129e29190613c16565b600c81106129f2576129f2613b15565b6020020152838260028110612a0957612a09613b15565b6020020151515183612a1c836002613c16565b600c8110612a2c57612a2c613b15565b6020020152838260028110612a4357612a43613b15565b6020020151516001602002015183612a5c836003613c16565b600c8110612a6c57612a6c613b15565b6020020152838260028110612a8357612a83613b15565b602002015160200151600060028110612a9e57612a9e613b15565b602002015183612aaf836004613c16565b600c8110612abf57612abf613b15565b6020020152838260028110612ad657612ad6613b15565b602002015160200151600160028110612af157612af1613b15565b602002015183612b02836005613c16565b600c8110612b1257612b12613b15565b60200201525080612b2281613c2e565b915050612968565b50612b33613237565b60006020826101808560088cfa9151919c9115159b50909950505050505050505050565b6060600080612b6584612cfc565b61ffff166001600160401b03811115612b8057612b80613291565b6040519080825280601f01601f191660200182016040528015612baa576020820181803683370190505b5090506000805b825182108015612bc2575061010081105b15612635576001811b935085841615612c09578060f81b838381518110612beb57612beb613b15565b60200101906001600160f81b031916908160001a9053508160010191505b612c1281613c2e565b9050612bb1565b603380546001600160a01b038381166001600160a01b0319831681179093556040519116919082907f8be0079c531659141344cd1fd0a4f28419497f9722a3daafe3b4186f6b6457e090600090a35050565b600080612c7784612f82565b9050808360ff166001901b11612cf55760405162461bcd60e51b815260206004820152603f60248201527f4269746d61705574696c732e6f72646572656442797465734172726179546f4260448201527f69746d61703a206269746d61702065786365656473206d61782076616c75650060648201526084016106f0565b9392505050565b6000805b821561069657612d11600184613cbc565b9092169180612d1f81613ee8565b915050612d00565b60408051808201909152600080825260208201526102008261ffff1610612d835760405162461bcd60e51b815260206004820152601060248201526f7363616c61722d746f6f2d6c6172676560801b60448201526064016106f0565b8161ffff1660011415612d97575081610696565b6040805180820190915260008082526020820181905284906001905b8161ffff168661ffff1610612e0057600161ffff871660ff83161c81161415612de357612de0848461274f565b93505b612ded838461274f565b92506201fffe600192831b169101612db3565b509195945050505050565b60408051808201909152600080825260208201528151158015612e3057506020820151155b15612e4e575050604080518082019091526000808252602082015290565b604051806040016040528083600001518152602001600080516020613f0b8339815191528460200151612e819190613b2b565b612e9990600080516020613f0b833981519152613cbc565b905292915050565b919050565b6033546001600160a01b0316331461208d5760405162461bcd60e51b815260206004820181905260248201527f4f776e61626c653a2063616c6c6572206973206e6f7420746865206f776e657260448201526064016106f0565b60008080600080516020613f0b8339815191526003600080516020613f0b83398151915286600080516020613f0b833981519152888909090890506000612f76827f0c19139cb84c680a6e14116da060561765e05aa45a1c72a34f082305b61f3f52600080516020613f0b83398151915261310f565b91959194509092505050565b60006101008251111561300b5760405162461bcd60e51b8152602060048201526044602482018190527f4269746d61705574696c732e6f72646572656442797465734172726179546f42908201527f69746d61703a206f7264657265644279746573417272617920697320746f6f206064820152636c6f6e6760e01b608482015260a4016106f0565b815161301957506000919050565b6000808360008151811061302f5761302f613b15565b0160200151600160f89190911c81901b92505b84518110156131065784818151811061305d5761305d613b15565b0160200151600160f89190911c1b91508282116130f25760405162461bcd60e51b815260206004820152604760248201527f4269746d61705574696c732e6f72646572656442797465734172726179546f4260448201527f69746d61703a206f72646572656442797465734172726179206973206e6f74206064820152661bdc99195c995960ca1b608482015260a4016106f0565b918117916130ff81613c2e565b9050613042565b50909392505050565b60008061311a613237565b613122613255565b602080825281810181905260408201819052606082018890526080820187905260a082018690528260c08360056107d05a03fa92508280156127075750826131ac5760405162461bcd60e51b815260206004820152601a60248201527f424e3235342e6578704d6f643a2063616c6c206661696c75726500000000000060448201526064016106f0565b505195945050505050565b60405180606001604052806003906020820280368337509192915050565b60405180608001604052806004906020820280368337509192915050565b6040518060400160405280613206613273565b8152602001613213613273565b905290565b604051806101800160405280600c906020820280368337509192915050565b60405180602001604052806001906020820280368337509192915050565b6040518060c001604052806006906020820280368337509192915050565b60405180604001604052806002906020820280368337509192915050565b634e487b7160e01b600052604160045260246000fd5b604080519081016001600160401b03811182821017156132c9576132c9613291565b60405290565b60405161010081016001600160401b03811182821017156132c9576132c9613291565b604051606081016001600160401b03811182821017156132c9576132c9613291565b604051601f8201601f191681016001600160401b038111828210171561333c5761333c613291565b604052919050565b60006040828403121561335657600080fd5b61335e6132a7565b9050813581526020820135602082015292915050565b600082601f83011261338557600080fd5b61338d6132a7565b80604084018581111561339f57600080fd5b845b818110156133b95780358452602093840193016133a1565b509095945050505050565b6000608082840312156133d657600080fd5b6133de6132a7565b90506133ea8383613374565b81526133f98360408401613374565b602082015292915050565b600080600080610120858703121561341b57600080fd5b8435935061342c8660208701613344565b925061343b86606087016133c4565b915061344a8660e08701613344565b905092959194509250565b6001600160a01b03811681146126b557600080fd5b60006020828403121561347c57600080fd5b8135612cf581613455565b6000806040838503121561349a57600080fd5b50508035926020909101359150565b60006001600160401b038211156134c2576134c2613291565b5060051b60200190565b803563ffffffff81168114612ea157600080fd5b600082601f8301126134f157600080fd5b81356020613506613501836134a9565b613314565b82815260059290921b8401810191818101908684111561352557600080fd5b8286015b848110156135475761353a816134cc565b8352918301918301613529565b509695505050505050565b600082601f83011261356357600080fd5b81356020613573613501836134a9565b82815260069290921b8401810191818101908684111561359257600080fd5b8286015b84811015613547576135a88882613344565b835291830191604001613596565b600082601f8301126135c757600080fd5b813560206135d7613501836134a9565b82815260059290921b840181019181810190868411156135f657600080fd5b8286015b848110156135475780356001600160401b038111156136195760008081fd5b6136278986838b01016134e0565b8452509183019183016135fa565b6000610180828403121561364857600080fd5b6136506132cf565b905081356001600160401b038082111561366957600080fd5b613675858386016134e0565b8352602084013591508082111561368b57600080fd5b61369785838601613552565b602084015260408401359150808211156136b057600080fd5b6136bc85838601613552565b60408401526136ce85606086016133c4565b60608401526136e08560e08601613344565b60808401526101208401359150808211156136fa57600080fd5b613706858386016134e0565b60a084015261014084013591508082111561372057600080fd5b61372c858386016134e0565b60c084015261016084013591508082111561374657600080fd5b50613753848285016135b6565b60e08301525092915050565b6000806040838503121561377257600080fd5b8235915060208301356001600160401b0381111561378f57600080fd5b61379b85828601613635565b9150509250929050565b6020808252825182820181905260009190848201906040850190845b818110156137e65783516001600160a01b0316835292840192918401916001016137c1565b50909695505050505050565b60006020828403121561380457600080fd5b81358015158114612cf557600080fd5b6000806040838503121561382757600080fd5b823561383281613455565b9150602083013561384281613455565b809150509250929050565b60008060006060848603121561386257600080fd5b83359250613872602085016134cc565b915060408401356001600160401b0381111561388d57600080fd5b61389986828701613635565b9150509250925092565b600081518084526020808501945080840160005b838110156138dc5781516001600160601b0316875295820195908201906001016138b7565b509495945050505050565b604081526000835160408084015261390260808401826138a3565b90506020850151603f1984830301606085015261391f82826138a3565b925050508260208301529392505050565b60008060006040848603121561394557600080fd5b8335925060208401356001600160401b038082111561396357600080fd5b818601915086601f83011261397757600080fd5b81358181111561398657600080fd5b87602082850101111561399857600080fd5b6020830194508093505050509250925092565b60006001600160401b038311156139c4576139c4613291565b6139d7601f8401601f1916602001613314565b90508281528383830111156139eb57600080fd5b828260208301376000602084830101529392505050565b60008060408385031215613a1557600080fd5b8235613a2081613455565b915060208301356001600160401b0380821115613a3c57600080fd5b9084019060608287031215613a5057600080fd5b613a586132f2565b823582811115613a6757600080fd5b83019150601f82018713613a7a57600080fd5b613a89878335602085016139ab565b815260208301356020820152604083013560408201528093505050509250929050565b600060208284031215613abe57600080fd5b81356001600160401b03811115613ad457600080fd5b8201601f81018413613ae557600080fd5b613af4848235602084016139ab565b949350505050565b600060208284031215613b0e57600080fd5b5035919050565b634e487b7160e01b600052603260045260246000fd5b600082613b4857634e487b7160e01b600052601260045260246000fd5b500690565b634e487b7160e01b600052601160045260246000fd5b60006001600160601b0380831681851681830481118215151615613b8957613b89613b4d565b02949350505050565b6000816000190483118215151615613bac57613bac613b4d565b500290565b600060208284031215613bc357600080fd5b5051919050565b600060208284031215613bdc57600080fd5b81516001600160c01b0381168114612cf557600080fd5b600060208284031215613c0557600080fd5b815160ff81168114612cf557600080fd5b60008219821115613c2957613c29613b4d565b500190565b6000600019821415613c4257613c42613b4d565b5060010190565b80516001600160601b0381168114612ea157600080fd5b600060408284031215613c7257600080fd5b613c7a6132a7565b8251613c8581613455565b8152613c9360208401613c49565b60208201529392505050565b600060208284031215613cb157600080fd5b8151612cf581613455565b600082821015613cce57613cce613b4d565b500390565b600060208284031215613ce557600080fd5b815167ffffffffffffffff1981168114612cf557600080fd5b600060208284031215613d1057600080fd5b612cf582613c49565b60006001600160601b0383811690831681811015613d3957613d39613b4d565b039392505050565b63ffffffff60e01b8360e01b1681526000600482018351602080860160005b83811015613d7c57815185529382019390820190600101613d60565b5092979650505050505050565b63ffffffff8416815260406020820152816040820152818360608301376000818301606090810191909152601f909201601f1916010192915050565b60208082526052908201527f536572766963654d616e61676572426173652e6f6e6c7952656769737472794360408201527f6f6f7264696e61746f723a2063616c6c6572206973206e6f742074686520726560608201527133b4b9ba393c9031b7b7b93234b730ba37b960711b608082015260a00190565b6000815180845260005b81811015613e6357602081850181015186830182015201613e47565b81811115613e75576000602083870101525b50601f01601f19169290920160200192915050565b60018060a01b0383168152604060208201526000825160606040840152613eb460a0840182613e3d565b90506020840151606084015260408401516080840152809150509392505050565b602081526000612cf56020830184613e3d565b600061ffff80831681811415613f0057613f00613b4d565b600101939250505056fe30644e72e131a029b85045b68181585d97816a916871ca8d3c208c16d87cfd47424c535369676e6174757265436865636b65722e636865636b5369676e617475a264697066735822122086ecd3b6d008fac1baa4e49020c23dc4e2e4bc3ae9f47380bccf99774ec4a3c864736f6c634300080c0033",
        "linkReferences": {}
    },
    "methodIdentifiers": {
        "avsDirectory()": "6b3aa72e",
        "batchesState(bytes32)": "b099627e",
        "blsApkRegistry()": "5df45946",
        "checkSignatures(bytes32,uint32,(uint32[],(uint256,uint256)[],(uint256,uint256)[],(uint256[2],uint256[2]),(uint256,uint256),uint32[],uint32[],uint32[][]))": "4ae07c37",
        "createNewTask(bytes32,string)": "5c008994",
        "delegation()": "df5cf723",
        "deregisterOperatorFromAVS(address)": "a364f4da",
        "getOperatorRestakedStrategies(address)": "33cfb7b7",
        "getRestakeableStrategies()": "e481af9d",
        "initialize(address,address)": "485cc955",
        "isAggregator(address)": "1e8f3c95",
        "owner()": "8da5cb5b",
        "registerOperatorToAVS(address,(bytes,bytes32,uint256))": "9926ee7d",
        "registryCoordinator()": "6d14a987",
        "renounceOwnership()": "715018a6",
        "respondToTask(bytes32,(uint32[],(uint256,uint256)[],(uint256,uint256)[],(uint256[2],uint256[2]),(uint256,uint256),uint32[],uint32[],uint32[][]))": "2dd94eba",
        "setStaleStakesForbidden(bool)": "416c7e5e",
        "stakeRegistry()": "68304835",
        "staleStakesForbidden()": "b98d0908",
        "transferOwnership(address)": "f2fde38b",
        "trySignatureAndApkVerification(bytes32,(uint256,uint256),(uint256[2],uint256[2]),(uint256,uint256))": "171f1d5b",
        "updateAVSMetadataURI(string)": "a98fb355",
        "verifyBatchInclusion(bytes32,bytes32)": "218bc878"
    },
    "id": 110
}